{
	"contracts/StakingSystem/StakeHolder.sol": {
		"StakeHolder": {
			"abi": [
				{
					"inputs": [],
					"stateMutability": "nonpayable",
					"type": "constructor"
				},
				{
					"inputs": [
						{
							"internalType": "address",
							"name": "ethAddress",
							"type": "address"
						}
					],
					"name": "accept",
					"outputs": [],
					"stateMutability": "nonpayable",
					"type": "function"
				},
				{
					"inputs": [],
					"name": "active",
					"outputs": [],
					"stateMutability": "nonpayable",
					"type": "function"
				},
				{
					"inputs": [],
					"name": "deactive",
					"outputs": [],
					"stateMutability": "nonpayable",
					"type": "function"
				},
				{
					"inputs": [
						{
							"internalType": "address",
							"name": "ethAddress",
							"type": "address"
						}
					],
					"name": "getStatus",
					"outputs": [
						{
							"internalType": "enum StakeHolder.Status",
							"name": "",
							"type": "uint8"
						}
					],
					"stateMutability": "view",
					"type": "function"
				},
				{
					"inputs": [],
					"name": "getTotalStakeHolders",
					"outputs": [
						{
							"internalType": "uint256",
							"name": "",
							"type": "uint256"
						}
					],
					"stateMutability": "view",
					"type": "function"
				},
				{
					"inputs": [
						{
							"internalType": "address",
							"name": "ethAddress",
							"type": "address"
						}
					],
					"name": "isStakeholder",
					"outputs": [
						{
							"internalType": "bool",
							"name": "",
							"type": "bool"
						}
					],
					"stateMutability": "view",
					"type": "function"
				},
				{
					"inputs": [],
					"name": "owner",
					"outputs": [
						{
							"internalType": "address",
							"name": "",
							"type": "address"
						}
					],
					"stateMutability": "view",
					"type": "function"
				},
				{
					"inputs": [],
					"name": "removeRequest",
					"outputs": [],
					"stateMutability": "nonpayable",
					"type": "function"
				},
				{
					"inputs": [],
					"name": "requestForStakeholder",
					"outputs": [],
					"stateMutability": "nonpayable",
					"type": "function"
				},
				{
					"inputs": [
						{
							"internalType": "address",
							"name": "",
							"type": "address"
						}
					],
					"name": "stakeholdersStatus",
					"outputs": [
						{
							"internalType": "enum StakeHolder.Status",
							"name": "",
							"type": "uint8"
						}
					],
					"stateMutability": "view",
					"type": "function"
				}
			],
			"devdoc": {
				"kind": "dev",
				"methods": {},
				"version": 1
			},
			"evm": {
				"assembly": "    /* \"contracts/StakingSystem/StakeHolder.sol\":58:2307  contract StakeHolder {... */\n  mstore(0x40, 0x80)\n    /* \"contracts/StakingSystem/StakeHolder.sol\":307:356  constructor() {... */\n  callvalue\n  dup1\n  iszero\n  tag_1\n  jumpi\n  0x00\n  dup1\n  revert\ntag_1:\n  pop\n    /* \"contracts/StakingSystem/StakeHolder.sol\":339:349  msg.sender */\n  caller\n    /* \"contracts/StakingSystem/StakeHolder.sol\":331:336  owner */\n  0x00\n  dup1\n    /* \"contracts/StakingSystem/StakeHolder.sol\":331:349  owner = msg.sender */\n  0x0100\n  exp\n  dup2\n  sload\n  dup2\n  0xffffffffffffffffffffffffffffffffffffffff\n  mul\n  not\n  and\n  swap1\n  dup4\n  0xffffffffffffffffffffffffffffffffffffffff\n  and\n  mul\n  or\n  swap1\n  sstore\n  pop\n    /* \"contracts/StakingSystem/StakeHolder.sol\":58:2307  contract StakeHolder {... */\n  dataSize(sub_0)\n  dup1\n  dataOffset(sub_0)\n  0x00\n  codecopy\n  0x00\n  return\nstop\n\nsub_0: assembly {\n        /* \"contracts/StakingSystem/StakeHolder.sol\":58:2307  contract StakeHolder {... */\n      mstore(0x40, 0x80)\n      callvalue\n      dup1\n      iszero\n      tag_1\n      jumpi\n      0x00\n      dup1\n      revert\n    tag_1:\n      pop\n      jumpi(tag_2, lt(calldatasize, 0x04))\n      shr(0xe0, calldataload(0x00))\n      dup1\n      0x8da5cb5b\n      gt\n      tag_13\n      jumpi\n      dup1\n      0x8da5cb5b\n      eq\n      tag_8\n      jumpi\n      dup1\n      0x9f005920\n      eq\n      tag_9\n      jumpi\n      dup1\n      0xa008f709\n      eq\n      tag_10\n      jumpi\n      dup1\n      0xef037b90\n      eq\n      tag_11\n      jumpi\n      dup1\n      0xf81c96b1\n      eq\n      tag_12\n      jumpi\n      jump(tag_2)\n    tag_13:\n      dup1\n      0x02fb0c5e\n      eq\n      tag_3\n      jumpi\n      dup1\n      0x187fcb16\n      eq\n      tag_4\n      jumpi\n      dup1\n      0x1982e21c\n      eq\n      tag_5\n      jumpi\n      dup1\n      0x30ccebb5\n      eq\n      tag_6\n      jumpi\n      dup1\n      0x7e3350fc\n      eq\n      tag_7\n      jumpi\n    tag_2:\n      0x00\n      dup1\n      revert\n        /* \"contracts/StakingSystem/StakeHolder.sol\":1367:1609  function active() external onylStakeholder {... */\n    tag_3:\n      tag_14\n      tag_15\n      jump\t// in\n    tag_14:\n      stop\n        /* \"contracts/StakingSystem/StakeHolder.sol\":2063:2175  function getTotalStakeHolders() external view returns(uint){... */\n    tag_4:\n      tag_16\n      tag_17\n      jump\t// in\n    tag_16:\n      mload(0x40)\n      tag_18\n      swap2\n      swap1\n      tag_19\n      jump\t// in\n    tag_18:\n      mload(0x40)\n      dup1\n      swap2\n      sub\n      swap1\n      return\n        /* \"contracts/StakingSystem/StakeHolder.sol\":596:781  function requestForStakeholder() external {... */\n    tag_5:\n      tag_20\n      tag_21\n      jump\t// in\n    tag_20:\n      stop\n        /* \"contracts/StakingSystem/StakeHolder.sol\":2181:2305  function getStatus(address ethAddress) external view returns (Status) {... */\n    tag_6:\n      tag_22\n      0x04\n      dup1\n      calldatasize\n      sub\n      dup2\n      add\n      swap1\n      tag_23\n      swap2\n      swap1\n      tag_24\n      jump\t// in\n    tag_23:\n      tag_25\n      jump\t// in\n    tag_22:\n      mload(0x40)\n      tag_26\n      swap2\n      swap1\n      tag_27\n      jump\t// in\n    tag_26:\n      mload(0x40)\n      dup1\n      swap2\n      sub\n      swap1\n      return\n        /* \"contracts/StakingSystem/StakeHolder.sol\":1615:1858  function removeRequest() external {... */\n    tag_7:\n      tag_28\n      tag_29\n      jump\t// in\n    tag_28:\n      stop\n        /* \"contracts/StakingSystem/StakeHolder.sol\":176:196  address public owner */\n    tag_8:\n      tag_30\n      tag_31\n      jump\t// in\n    tag_30:\n      mload(0x40)\n      tag_32\n      swap2\n      swap1\n      tag_33\n      jump\t// in\n    tag_32:\n      mload(0x40)\n      dup1\n      swap2\n      sub\n      swap1\n      return\n        /* \"contracts/StakingSystem/StakeHolder.sol\":787:1109  function accept(address ethAddress) external onlyOwner {... */\n    tag_9:\n      tag_34\n      0x04\n      dup1\n      calldatasize\n      sub\n      dup2\n      add\n      swap1\n      tag_35\n      swap2\n      swap1\n      tag_24\n      jump\t// in\n    tag_35:\n      tag_36\n      jump\t// in\n    tag_34:\n      stop\n        /* \"contracts/StakingSystem/StakeHolder.sol\":1115:1361  function deactive() external onylStakeholder {... */\n    tag_10:\n      tag_37\n      tag_38\n      jump\t// in\n    tag_37:\n      stop\n        /* \"contracts/StakingSystem/StakeHolder.sol\":1864:2057  function isStakeholder(address ethAddress) public view returns (bool) {... */\n    tag_11:\n      tag_39\n      0x04\n      dup1\n      calldatasize\n      sub\n      dup2\n      add\n      swap1\n      tag_40\n      swap2\n      swap1\n      tag_24\n      jump\t// in\n    tag_40:\n      tag_41\n      jump\t// in\n    tag_39:\n      mload(0x40)\n      tag_42\n      swap2\n      swap1\n      tag_43\n      jump\t// in\n    tag_42:\n      mload(0x40)\n      dup1\n      swap2\n      sub\n      swap1\n      return\n        /* \"contracts/StakingSystem/StakeHolder.sol\":248:300  mapping(address => Status) public stakeholdersStatus */\n    tag_12:\n      tag_44\n      0x04\n      dup1\n      calldatasize\n      sub\n      dup2\n      add\n      swap1\n      tag_45\n      swap2\n      swap1\n      tag_24\n      jump\t// in\n    tag_45:\n      tag_46\n      jump\t// in\n    tag_44:\n      mload(0x40)\n      tag_47\n      swap2\n      swap1\n      tag_27\n      jump\t// in\n    tag_47:\n      mload(0x40)\n      dup1\n      swap2\n      sub\n      swap1\n      return\n        /* \"contracts/StakingSystem/StakeHolder.sol\":1367:1609  function active() external onylStakeholder {... */\n    tag_15:\n        /* \"contracts/StakingSystem/StakeHolder.sol\":515:540  isStakeholder(msg.sender) */\n      tag_49\n        /* \"contracts/StakingSystem/StakeHolder.sol\":529:539  msg.sender */\n      caller\n        /* \"contracts/StakingSystem/StakeHolder.sol\":515:528  isStakeholder */\n      tag_41\n        /* \"contracts/StakingSystem/StakeHolder.sol\":515:540  isStakeholder(msg.sender) */\n      jump\t// in\n    tag_49:\n        /* \"contracts/StakingSystem/StakeHolder.sol\":507:572  require(isStakeholder(msg.sender), \"Only stakeholder has access\") */\n      tag_50\n      jumpi\n      mload(0x40)\n      0x08c379a000000000000000000000000000000000000000000000000000000000\n      dup2\n      mstore\n      0x04\n      add\n      tag_51\n      swap1\n      tag_52\n      jump\t// in\n    tag_51:\n      mload(0x40)\n      dup1\n      swap2\n      sub\n      swap1\n      revert\n    tag_50:\n        /* \"contracts/StakingSystem/StakeHolder.sol\":1475:1490  Status.DEACTIVE */\n      0x02\n        /* \"contracts/StakingSystem/StakeHolder.sol\":1441:1490  stakeholdersStatus[msg.sender] == Status.DEACTIVE */\n      0x03\n      dup2\n      gt\n      iszero\n      tag_54\n      jumpi\n      tag_55\n      tag_56\n      jump\t// in\n    tag_55:\n    tag_54:\n        /* \"contracts/StakingSystem/StakeHolder.sol\":1441:1459  stakeholdersStatus */\n      0x02\n        /* \"contracts/StakingSystem/StakeHolder.sol\":1441:1471  stakeholdersStatus[msg.sender] */\n      0x00\n        /* \"contracts/StakingSystem/StakeHolder.sol\":1460:1470  msg.sender */\n      caller\n        /* \"contracts/StakingSystem/StakeHolder.sol\":1441:1471  stakeholdersStatus[msg.sender] */\n      0xffffffffffffffffffffffffffffffffffffffff\n      and\n      0xffffffffffffffffffffffffffffffffffffffff\n      and\n      dup2\n      mstore\n      0x20\n      add\n      swap1\n      dup2\n      mstore\n      0x20\n      add\n      0x00\n      keccak256\n      0x00\n      swap1\n      sload\n      swap1\n      0x0100\n      exp\n      swap1\n      div\n      0xff\n      and\n        /* \"contracts/StakingSystem/StakeHolder.sol\":1441:1490  stakeholdersStatus[msg.sender] == Status.DEACTIVE */\n      0x03\n      dup2\n      gt\n      iszero\n      tag_57\n      jumpi\n      tag_58\n      tag_56\n      jump\t// in\n    tag_58:\n    tag_57:\n      eq\n        /* \"contracts/StakingSystem/StakeHolder.sol\":1420:1546  require(... */\n      tag_59\n      jumpi\n      mload(0x40)\n      0x08c379a000000000000000000000000000000000000000000000000000000000\n      dup2\n      mstore\n      0x04\n      add\n      tag_60\n      swap1\n      tag_61\n      jump\t// in\n    tag_60:\n      mload(0x40)\n      dup1\n      swap2\n      sub\n      swap1\n      revert\n    tag_59:\n        /* \"contracts/StakingSystem/StakeHolder.sol\":1589:1602  Status.ACTIVE */\n      0x03\n        /* \"contracts/StakingSystem/StakeHolder.sol\":1556:1574  stakeholdersStatus */\n      0x02\n        /* \"contracts/StakingSystem/StakeHolder.sol\":1556:1586  stakeholdersStatus[msg.sender] */\n      0x00\n        /* \"contracts/StakingSystem/StakeHolder.sol\":1575:1585  msg.sender */\n      caller\n        /* \"contracts/StakingSystem/StakeHolder.sol\":1556:1586  stakeholdersStatus[msg.sender] */\n      0xffffffffffffffffffffffffffffffffffffffff\n      and\n      0xffffffffffffffffffffffffffffffffffffffff\n      and\n      dup2\n      mstore\n      0x20\n      add\n      swap1\n      dup2\n      mstore\n      0x20\n      add\n      0x00\n      keccak256\n      0x00\n        /* \"contracts/StakingSystem/StakeHolder.sol\":1556:1602  stakeholdersStatus[msg.sender] = Status.ACTIVE */\n      0x0100\n      exp\n      dup2\n      sload\n      dup2\n      0xff\n      mul\n      not\n      and\n      swap1\n      dup4\n      0x03\n      dup2\n      gt\n      iszero\n      tag_62\n      jumpi\n      tag_63\n      tag_56\n      jump\t// in\n    tag_63:\n    tag_62:\n      mul\n      or\n      swap1\n      sstore\n      pop\n        /* \"contracts/StakingSystem/StakeHolder.sol\":1367:1609  function active() external onylStakeholder {... */\n      jump\t// out\n        /* \"contracts/StakingSystem/StakeHolder.sol\":2063:2175  function getTotalStakeHolders() external view returns(uint){... */\n    tag_17:\n        /* \"contracts/StakingSystem/StakeHolder.sol\":2117:2121  uint */\n      0x00\n        /* \"contracts/StakingSystem/StakeHolder.sol\":2139:2161  stakeholdersEthAddress */\n      0x01\n        /* \"contracts/StakingSystem/StakeHolder.sol\":2139:2168  stakeholdersEthAddress.length */\n      dup1\n      sload\n      swap1\n      pop\n        /* \"contracts/StakingSystem/StakeHolder.sol\":2132:2168  return stakeholdersEthAddress.length */\n      swap1\n      pop\n        /* \"contracts/StakingSystem/StakeHolder.sol\":2063:2175  function getTotalStakeHolders() external view returns(uint){... */\n      swap1\n      jump\t// out\n        /* \"contracts/StakingSystem/StakeHolder.sol\":596:781  function requestForStakeholder() external {... */\n    tag_21:\n        /* \"contracts/StakingSystem/StakeHolder.sol\":657:682  isStakeholder(msg.sender) */\n      tag_66\n        /* \"contracts/StakingSystem/StakeHolder.sol\":671:681  msg.sender */\n      caller\n        /* \"contracts/StakingSystem/StakeHolder.sol\":657:670  isStakeholder */\n      tag_41\n        /* \"contracts/StakingSystem/StakeHolder.sol\":657:682  isStakeholder(msg.sender) */\n      jump\t// in\n    tag_66:\n        /* \"contracts/StakingSystem/StakeHolder.sol\":656:682  !isStakeholder(msg.sender) */\n      iszero\n        /* \"contracts/StakingSystem/StakeHolder.sol\":648:715  require(!isStakeholder(msg.sender), \"Stakeholder dont have access\") */\n      tag_67\n      jumpi\n      mload(0x40)\n      0x08c379a000000000000000000000000000000000000000000000000000000000\n      dup2\n      mstore\n      0x04\n      add\n      tag_68\n      swap1\n      tag_69\n      jump\t// in\n    tag_68:\n      mload(0x40)\n      dup1\n      swap2\n      sub\n      swap1\n      revert\n    tag_67:\n        /* \"contracts/StakingSystem/StakeHolder.sol\":758:774  Status.REQUESTED */\n      0x01\n        /* \"contracts/StakingSystem/StakeHolder.sol\":725:743  stakeholdersStatus */\n      0x02\n        /* \"contracts/StakingSystem/StakeHolder.sol\":725:755  stakeholdersStatus[msg.sender] */\n      0x00\n        /* \"contracts/StakingSystem/StakeHolder.sol\":744:754  msg.sender */\n      caller\n        /* \"contracts/StakingSystem/StakeHolder.sol\":725:755  stakeholdersStatus[msg.sender] */\n      0xffffffffffffffffffffffffffffffffffffffff\n      and\n      0xffffffffffffffffffffffffffffffffffffffff\n      and\n      dup2\n      mstore\n      0x20\n      add\n      swap1\n      dup2\n      mstore\n      0x20\n      add\n      0x00\n      keccak256\n      0x00\n        /* \"contracts/StakingSystem/StakeHolder.sol\":725:774  stakeholdersStatus[msg.sender] = Status.REQUESTED */\n      0x0100\n      exp\n      dup2\n      sload\n      dup2\n      0xff\n      mul\n      not\n      and\n      swap1\n      dup4\n      0x03\n      dup2\n      gt\n      iszero\n      tag_70\n      jumpi\n      tag_71\n      tag_56\n      jump\t// in\n    tag_71:\n    tag_70:\n      mul\n      or\n      swap1\n      sstore\n      pop\n        /* \"contracts/StakingSystem/StakeHolder.sol\":596:781  function requestForStakeholder() external {... */\n      jump\t// out\n        /* \"contracts/StakingSystem/StakeHolder.sol\":2181:2305  function getStatus(address ethAddress) external view returns (Status) {... */\n    tag_25:\n        /* \"contracts/StakingSystem/StakeHolder.sol\":2243:2249  Status */\n      0x00\n        /* \"contracts/StakingSystem/StakeHolder.sol\":2268:2286  stakeholdersStatus */\n      0x02\n        /* \"contracts/StakingSystem/StakeHolder.sol\":2268:2298  stakeholdersStatus[ethAddress] */\n      0x00\n        /* \"contracts/StakingSystem/StakeHolder.sol\":2287:2297  ethAddress */\n      dup4\n        /* \"contracts/StakingSystem/StakeHolder.sol\":2268:2298  stakeholdersStatus[ethAddress] */\n      0xffffffffffffffffffffffffffffffffffffffff\n      and\n      0xffffffffffffffffffffffffffffffffffffffff\n      and\n      dup2\n      mstore\n      0x20\n      add\n      swap1\n      dup2\n      mstore\n      0x20\n      add\n      0x00\n      keccak256\n      0x00\n      swap1\n      sload\n      swap1\n      0x0100\n      exp\n      swap1\n      div\n      0xff\n      and\n        /* \"contracts/StakingSystem/StakeHolder.sol\":2261:2298  return stakeholdersStatus[ethAddress] */\n      swap1\n      pop\n        /* \"contracts/StakingSystem/StakeHolder.sol\":2181:2305  function getStatus(address ethAddress) external view returns (Status) {... */\n      swap2\n      swap1\n      pop\n      jump\t// out\n        /* \"contracts/StakingSystem/StakeHolder.sol\":1615:1858  function removeRequest() external {... */\n    tag_29:\n        /* \"contracts/StakingSystem/StakeHolder.sol\":1714:1730  Status.REQUESTED */\n      0x01\n        /* \"contracts/StakingSystem/StakeHolder.sol\":1680:1730  stakeholdersStatus[msg.sender] == Status.REQUESTED */\n      0x03\n      dup2\n      gt\n      iszero\n      tag_74\n      jumpi\n      tag_75\n      tag_56\n      jump\t// in\n    tag_75:\n    tag_74:\n        /* \"contracts/StakingSystem/StakeHolder.sol\":1680:1698  stakeholdersStatus */\n      0x02\n        /* \"contracts/StakingSystem/StakeHolder.sol\":1680:1710  stakeholdersStatus[msg.sender] */\n      0x00\n        /* \"contracts/StakingSystem/StakeHolder.sol\":1699:1709  msg.sender */\n      caller\n        /* \"contracts/StakingSystem/StakeHolder.sol\":1680:1710  stakeholdersStatus[msg.sender] */\n      0xffffffffffffffffffffffffffffffffffffffff\n      and\n      0xffffffffffffffffffffffffffffffffffffffff\n      and\n      dup2\n      mstore\n      0x20\n      add\n      swap1\n      dup2\n      mstore\n      0x20\n      add\n      0x00\n      keccak256\n      0x00\n      swap1\n      sload\n      swap1\n      0x0100\n      exp\n      swap1\n      div\n      0xff\n      and\n        /* \"contracts/StakingSystem/StakeHolder.sol\":1680:1730  stakeholdersStatus[msg.sender] == Status.REQUESTED */\n      0x03\n      dup2\n      gt\n      iszero\n      tag_76\n      jumpi\n      tag_77\n      tag_56\n      jump\t// in\n    tag_77:\n    tag_76:\n      eq\n        /* \"contracts/StakingSystem/StakeHolder.sol\":1659:1804  require(... */\n      tag_78\n      jumpi\n      mload(0x40)\n      0x08c379a000000000000000000000000000000000000000000000000000000000\n      dup2\n      mstore\n      0x04\n      add\n      tag_79\n      swap1\n      tag_80\n      jump\t// in\n    tag_79:\n      mload(0x40)\n      dup1\n      swap2\n      sub\n      swap1\n      revert\n    tag_78:\n        /* \"contracts/StakingSystem/StakeHolder.sol\":1821:1839  stakeholdersStatus */\n      0x02\n        /* \"contracts/StakingSystem/StakeHolder.sol\":1821:1851  stakeholdersStatus[msg.sender] */\n      0x00\n        /* \"contracts/StakingSystem/StakeHolder.sol\":1840:1850  msg.sender */\n      caller\n        /* \"contracts/StakingSystem/StakeHolder.sol\":1821:1851  stakeholdersStatus[msg.sender] */\n      0xffffffffffffffffffffffffffffffffffffffff\n      and\n      0xffffffffffffffffffffffffffffffffffffffff\n      and\n      dup2\n      mstore\n      0x20\n      add\n      swap1\n      dup2\n      mstore\n      0x20\n      add\n      0x00\n      keccak256\n      0x00\n        /* \"contracts/StakingSystem/StakeHolder.sol\":1814:1851  delete stakeholdersStatus[msg.sender] */\n      0x0100\n      exp\n      dup2\n      sload\n      swap1\n      0xff\n      mul\n      not\n      and\n      swap1\n      sstore\n        /* \"contracts/StakingSystem/StakeHolder.sol\":1615:1858  function removeRequest() external {... */\n      jump\t// out\n        /* \"contracts/StakingSystem/StakeHolder.sol\":176:196  address public owner */\n    tag_31:\n      0x00\n      dup1\n      sload\n      swap1\n      0x0100\n      exp\n      swap1\n      div\n      0xffffffffffffffffffffffffffffffffffffffff\n      and\n      dup2\n      jump\t// out\n        /* \"contracts/StakingSystem/StakeHolder.sol\":787:1109  function accept(address ethAddress) external onlyOwner {... */\n    tag_36:\n        /* \"contracts/StakingSystem/StakeHolder.sol\":415:420  owner */\n      0x00\n      dup1\n      sload\n      swap1\n      0x0100\n      exp\n      swap1\n      div\n      0xffffffffffffffffffffffffffffffffffffffff\n      and\n        /* \"contracts/StakingSystem/StakeHolder.sol\":401:420  msg.sender == owner */\n      0xffffffffffffffffffffffffffffffffffffffff\n      and\n        /* \"contracts/StakingSystem/StakeHolder.sol\":401:411  msg.sender */\n      caller\n        /* \"contracts/StakingSystem/StakeHolder.sol\":401:420  msg.sender == owner */\n      0xffffffffffffffffffffffffffffffffffffffff\n      and\n      eq\n        /* \"contracts/StakingSystem/StakeHolder.sol\":393:446  require(msg.sender == owner, \"Only owner has accees\") */\n      tag_82\n      jumpi\n      mload(0x40)\n      0x08c379a000000000000000000000000000000000000000000000000000000000\n      dup2\n      mstore\n      0x04\n      add\n      tag_83\n      swap1\n      tag_84\n      jump\t// in\n    tag_83:\n      mload(0x40)\n      dup1\n      swap2\n      sub\n      swap1\n      revert\n    tag_82:\n        /* \"contracts/StakingSystem/StakeHolder.sol\":907:923  Status.REQUESTED */\n      0x01\n        /* \"contracts/StakingSystem/StakeHolder.sol\":873:923  stakeholdersStatus[ethAddress] == Status.REQUESTED */\n      0x03\n      dup2\n      gt\n      iszero\n      tag_86\n      jumpi\n      tag_87\n      tag_56\n      jump\t// in\n    tag_87:\n    tag_86:\n        /* \"contracts/StakingSystem/StakeHolder.sol\":873:891  stakeholdersStatus */\n      0x02\n        /* \"contracts/StakingSystem/StakeHolder.sol\":873:903  stakeholdersStatus[ethAddress] */\n      0x00\n        /* \"contracts/StakingSystem/StakeHolder.sol\":892:902  ethAddress */\n      dup4\n        /* \"contracts/StakingSystem/StakeHolder.sol\":873:903  stakeholdersStatus[ethAddress] */\n      0xffffffffffffffffffffffffffffffffffffffff\n      and\n      0xffffffffffffffffffffffffffffffffffffffff\n      and\n      dup2\n      mstore\n      0x20\n      add\n      swap1\n      dup2\n      mstore\n      0x20\n      add\n      0x00\n      keccak256\n      0x00\n      swap1\n      sload\n      swap1\n      0x0100\n      exp\n      swap1\n      div\n      0xff\n      and\n        /* \"contracts/StakingSystem/StakeHolder.sol\":873:923  stakeholdersStatus[ethAddress] == Status.REQUESTED */\n      0x03\n      dup2\n      gt\n      iszero\n      tag_88\n      jumpi\n      tag_89\n      tag_56\n      jump\t// in\n    tag_89:\n    tag_88:\n      eq\n        /* \"contracts/StakingSystem/StakeHolder.sol\":852:997  require(... */\n      tag_90\n      jumpi\n      mload(0x40)\n      0x08c379a000000000000000000000000000000000000000000000000000000000\n      dup2\n      mstore\n      0x04\n      add\n      tag_91\n      swap1\n      tag_80\n      jump\t// in\n    tag_91:\n      mload(0x40)\n      dup1\n      swap2\n      sub\n      swap1\n      revert\n    tag_90:\n        /* \"contracts/StakingSystem/StakeHolder.sol\":1007:1029  stakeholdersEthAddress */\n      0x01\n        /* \"contracts/StakingSystem/StakeHolder.sol\":1035:1045  ethAddress */\n      dup2\n        /* \"contracts/StakingSystem/StakeHolder.sol\":1007:1046  stakeholdersEthAddress.push(ethAddress) */\n      swap1\n      dup1\n      0x01\n      dup2\n      sload\n      add\n      dup1\n      dup3\n      sstore\n      dup1\n      swap2\n      pop\n      pop\n      0x01\n      swap1\n      sub\n      swap1\n      0x00\n      mstore\n      keccak256(0x00, 0x20)\n      add\n      0x00\n      swap1\n      swap2\n      swap1\n      swap2\n      swap1\n      swap2\n      0x0100\n      exp\n      dup2\n      sload\n      dup2\n      0xffffffffffffffffffffffffffffffffffffffff\n      mul\n      not\n      and\n      swap1\n      dup4\n      0xffffffffffffffffffffffffffffffffffffffff\n      and\n      mul\n      or\n      swap1\n      sstore\n      pop\n        /* \"contracts/StakingSystem/StakeHolder.sol\":1089:1102  Status.ACTIVE */\n      0x03\n        /* \"contracts/StakingSystem/StakeHolder.sol\":1056:1074  stakeholdersStatus */\n      0x02\n        /* \"contracts/StakingSystem/StakeHolder.sol\":1056:1086  stakeholdersStatus[ethAddress] */\n      0x00\n        /* \"contracts/StakingSystem/StakeHolder.sol\":1075:1085  ethAddress */\n      dup4\n        /* \"contracts/StakingSystem/StakeHolder.sol\":1056:1086  stakeholdersStatus[ethAddress] */\n      0xffffffffffffffffffffffffffffffffffffffff\n      and\n      0xffffffffffffffffffffffffffffffffffffffff\n      and\n      dup2\n      mstore\n      0x20\n      add\n      swap1\n      dup2\n      mstore\n      0x20\n      add\n      0x00\n      keccak256\n      0x00\n        /* \"contracts/StakingSystem/StakeHolder.sol\":1056:1102  stakeholdersStatus[ethAddress] = Status.ACTIVE */\n      0x0100\n      exp\n      dup2\n      sload\n      dup2\n      0xff\n      mul\n      not\n      and\n      swap1\n      dup4\n      0x03\n      dup2\n      gt\n      iszero\n      tag_93\n      jumpi\n      tag_94\n      tag_56\n      jump\t// in\n    tag_94:\n    tag_93:\n      mul\n      or\n      swap1\n      sstore\n      pop\n        /* \"contracts/StakingSystem/StakeHolder.sol\":787:1109  function accept(address ethAddress) external onlyOwner {... */\n      pop\n      jump\t// out\n        /* \"contracts/StakingSystem/StakeHolder.sol\":1115:1361  function deactive() external onylStakeholder {... */\n    tag_38:\n        /* \"contracts/StakingSystem/StakeHolder.sol\":515:540  isStakeholder(msg.sender) */\n      tag_96\n        /* \"contracts/StakingSystem/StakeHolder.sol\":529:539  msg.sender */\n      caller\n        /* \"contracts/StakingSystem/StakeHolder.sol\":515:528  isStakeholder */\n      tag_41\n        /* \"contracts/StakingSystem/StakeHolder.sol\":515:540  isStakeholder(msg.sender) */\n      jump\t// in\n    tag_96:\n        /* \"contracts/StakingSystem/StakeHolder.sol\":507:572  require(isStakeholder(msg.sender), \"Only stakeholder has access\") */\n      tag_97\n      jumpi\n      mload(0x40)\n      0x08c379a000000000000000000000000000000000000000000000000000000000\n      dup2\n      mstore\n      0x04\n      add\n      tag_98\n      swap1\n      tag_52\n      jump\t// in\n    tag_98:\n      mload(0x40)\n      dup1\n      swap2\n      sub\n      swap1\n      revert\n    tag_97:\n        /* \"contracts/StakingSystem/StakeHolder.sol\":1225:1238  Status.ACTIVE */\n      0x03\n        /* \"contracts/StakingSystem/StakeHolder.sol\":1191:1238  stakeholdersStatus[msg.sender] == Status.ACTIVE */\n      dup1\n      dup2\n      gt\n      iszero\n      tag_100\n      jumpi\n      tag_101\n      tag_56\n      jump\t// in\n    tag_101:\n    tag_100:\n        /* \"contracts/StakingSystem/StakeHolder.sol\":1191:1209  stakeholdersStatus */\n      0x02\n        /* \"contracts/StakingSystem/StakeHolder.sol\":1191:1221  stakeholdersStatus[msg.sender] */\n      0x00\n        /* \"contracts/StakingSystem/StakeHolder.sol\":1210:1220  msg.sender */\n      caller\n        /* \"contracts/StakingSystem/StakeHolder.sol\":1191:1221  stakeholdersStatus[msg.sender] */\n      0xffffffffffffffffffffffffffffffffffffffff\n      and\n      0xffffffffffffffffffffffffffffffffffffffff\n      and\n      dup2\n      mstore\n      0x20\n      add\n      swap1\n      dup2\n      mstore\n      0x20\n      add\n      0x00\n      keccak256\n      0x00\n      swap1\n      sload\n      swap1\n      0x0100\n      exp\n      swap1\n      div\n      0xff\n      and\n        /* \"contracts/StakingSystem/StakeHolder.sol\":1191:1238  stakeholdersStatus[msg.sender] == Status.ACTIVE */\n      0x03\n      dup2\n      gt\n      iszero\n      tag_102\n      jumpi\n      tag_103\n      tag_56\n      jump\t// in\n    tag_103:\n    tag_102:\n      eq\n        /* \"contracts/StakingSystem/StakeHolder.sol\":1170:1296  require(... */\n      tag_104\n      jumpi\n      mload(0x40)\n      0x08c379a000000000000000000000000000000000000000000000000000000000\n      dup2\n      mstore\n      0x04\n      add\n      tag_105\n      swap1\n      tag_106\n      jump\t// in\n    tag_105:\n      mload(0x40)\n      dup1\n      swap2\n      sub\n      swap1\n      revert\n    tag_104:\n        /* \"contracts/StakingSystem/StakeHolder.sol\":1339:1354  Status.DEACTIVE */\n      0x02\n        /* \"contracts/StakingSystem/StakeHolder.sol\":1306:1324  stakeholdersStatus */\n      dup1\n        /* \"contracts/StakingSystem/StakeHolder.sol\":1306:1336  stakeholdersStatus[msg.sender] */\n      0x00\n        /* \"contracts/StakingSystem/StakeHolder.sol\":1325:1335  msg.sender */\n      caller\n        /* \"contracts/StakingSystem/StakeHolder.sol\":1306:1336  stakeholdersStatus[msg.sender] */\n      0xffffffffffffffffffffffffffffffffffffffff\n      and\n      0xffffffffffffffffffffffffffffffffffffffff\n      and\n      dup2\n      mstore\n      0x20\n      add\n      swap1\n      dup2\n      mstore\n      0x20\n      add\n      0x00\n      keccak256\n      0x00\n        /* \"contracts/StakingSystem/StakeHolder.sol\":1306:1354  stakeholdersStatus[msg.sender] = Status.DEACTIVE */\n      0x0100\n      exp\n      dup2\n      sload\n      dup2\n      0xff\n      mul\n      not\n      and\n      swap1\n      dup4\n      0x03\n      dup2\n      gt\n      iszero\n      tag_107\n      jumpi\n      tag_108\n      tag_56\n      jump\t// in\n    tag_108:\n    tag_107:\n      mul\n      or\n      swap1\n      sstore\n      pop\n        /* \"contracts/StakingSystem/StakeHolder.sol\":1115:1361  function deactive() external onylStakeholder {... */\n      jump\t// out\n        /* \"contracts/StakingSystem/StakeHolder.sol\":1864:2057  function isStakeholder(address ethAddress) public view returns (bool) {... */\n    tag_41:\n        /* \"contracts/StakingSystem/StakeHolder.sol\":1928:1932  bool */\n      0x00\n        /* \"contracts/StakingSystem/StakeHolder.sol\":1981:1992  Status.NONE */\n      dup1\n        /* \"contracts/StakingSystem/StakeHolder.sol\":1947:1992  stakeholdersStatus[ethAddress] == Status.NONE */\n      0x03\n      dup2\n      gt\n      iszero\n      tag_110\n      jumpi\n      tag_111\n      tag_56\n      jump\t// in\n    tag_111:\n    tag_110:\n        /* \"contracts/StakingSystem/StakeHolder.sol\":1947:1965  stakeholdersStatus */\n      0x02\n        /* \"contracts/StakingSystem/StakeHolder.sol\":1947:1977  stakeholdersStatus[ethAddress] */\n      0x00\n        /* \"contracts/StakingSystem/StakeHolder.sol\":1966:1976  ethAddress */\n      dup5\n        /* \"contracts/StakingSystem/StakeHolder.sol\":1947:1977  stakeholdersStatus[ethAddress] */\n      0xffffffffffffffffffffffffffffffffffffffff\n      and\n      0xffffffffffffffffffffffffffffffffffffffff\n      and\n      dup2\n      mstore\n      0x20\n      add\n      swap1\n      dup2\n      mstore\n      0x20\n      add\n      0x00\n      keccak256\n      0x00\n      swap1\n      sload\n      swap1\n      0x0100\n      exp\n      swap1\n      div\n      0xff\n      and\n        /* \"contracts/StakingSystem/StakeHolder.sol\":1947:1992  stakeholdersStatus[ethAddress] == Status.NONE */\n      0x03\n      dup2\n      gt\n      iszero\n      tag_112\n      jumpi\n      tag_113\n      tag_56\n      jump\t// in\n    tag_113:\n    tag_112:\n      sub\n        /* \"contracts/StakingSystem/StakeHolder.sol\":1944:2030  if(stakeholdersStatus[ethAddress] == Status.NONE){... */\n      tag_114\n      jumpi\n        /* \"contracts/StakingSystem/StakeHolder.sol\":2014:2019  false */\n      0x00\n        /* \"contracts/StakingSystem/StakeHolder.sol\":2007:2019  return false */\n      swap1\n      pop\n      jump(tag_109)\n        /* \"contracts/StakingSystem/StakeHolder.sol\":1944:2030  if(stakeholdersStatus[ethAddress] == Status.NONE){... */\n    tag_114:\n        /* \"contracts/StakingSystem/StakeHolder.sol\":2046:2050  true */\n      0x01\n        /* \"contracts/StakingSystem/StakeHolder.sol\":2039:2050  return true */\n      swap1\n      pop\n        /* \"contracts/StakingSystem/StakeHolder.sol\":1864:2057  function isStakeholder(address ethAddress) public view returns (bool) {... */\n    tag_109:\n      swap2\n      swap1\n      pop\n      jump\t// out\n        /* \"contracts/StakingSystem/StakeHolder.sol\":248:300  mapping(address => Status) public stakeholdersStatus */\n    tag_46:\n      mstore(0x20, 0x02)\n      dup1\n      0x00\n      mstore\n      keccak256(0x00, 0x40)\n      0x00\n      swap2\n      pop\n      sload\n      swap1\n      0x0100\n      exp\n      swap1\n      div\n      0xff\n      and\n      dup2\n      jump\t// out\n        /* \"#utility.yul\":7:84   */\n    tag_115:\n        /* \"#utility.yul\":44:51   */\n      0x00\n        /* \"#utility.yul\":73:78   */\n      dup2\n        /* \"#utility.yul\":62:78   */\n      swap1\n      pop\n        /* \"#utility.yul\":7:84   */\n      swap2\n      swap1\n      pop\n      jump\t// out\n        /* \"#utility.yul\":90:208   */\n    tag_116:\n        /* \"#utility.yul\":177:201   */\n      tag_147\n        /* \"#utility.yul\":195:200   */\n      dup2\n        /* \"#utility.yul\":177:201   */\n      tag_115\n      jump\t// in\n    tag_147:\n        /* \"#utility.yul\":172:175   */\n      dup3\n        /* \"#utility.yul\":165:202   */\n      mstore\n        /* \"#utility.yul\":90:208   */\n      pop\n      pop\n      jump\t// out\n        /* \"#utility.yul\":214:436   */\n    tag_19:\n        /* \"#utility.yul\":307:311   */\n      0x00\n        /* \"#utility.yul\":345:347   */\n      0x20\n        /* \"#utility.yul\":334:343   */\n      dup3\n        /* \"#utility.yul\":330:348   */\n      add\n        /* \"#utility.yul\":322:348   */\n      swap1\n      pop\n        /* \"#utility.yul\":358:429   */\n      tag_149\n        /* \"#utility.yul\":426:427   */\n      0x00\n        /* \"#utility.yul\":415:424   */\n      dup4\n        /* \"#utility.yul\":411:428   */\n      add\n        /* \"#utility.yul\":402:408   */\n      dup5\n        /* \"#utility.yul\":358:429   */\n      tag_116\n      jump\t// in\n    tag_149:\n        /* \"#utility.yul\":214:436   */\n      swap3\n      swap2\n      pop\n      pop\n      jump\t// out\n        /* \"#utility.yul\":523:640   */\n    tag_118:\n        /* \"#utility.yul\":632:633   */\n      0x00\n        /* \"#utility.yul\":629:630   */\n      dup1\n        /* \"#utility.yul\":622:634   */\n      revert\n        /* \"#utility.yul\":769:895   */\n    tag_120:\n        /* \"#utility.yul\":806:813   */\n      0x00\n        /* \"#utility.yul\":846:888   */\n      0xffffffffffffffffffffffffffffffffffffffff\n        /* \"#utility.yul\":839:844   */\n      dup3\n        /* \"#utility.yul\":835:889   */\n      and\n        /* \"#utility.yul\":824:889   */\n      swap1\n      pop\n        /* \"#utility.yul\":769:895   */\n      swap2\n      swap1\n      pop\n      jump\t// out\n        /* \"#utility.yul\":901:997   */\n    tag_121:\n        /* \"#utility.yul\":938:945   */\n      0x00\n        /* \"#utility.yul\":967:991   */\n      tag_155\n        /* \"#utility.yul\":985:990   */\n      dup3\n        /* \"#utility.yul\":967:991   */\n      tag_120\n      jump\t// in\n    tag_155:\n        /* \"#utility.yul\":956:991   */\n      swap1\n      pop\n        /* \"#utility.yul\":901:997   */\n      swap2\n      swap1\n      pop\n      jump\t// out\n        /* \"#utility.yul\":1003:1125   */\n    tag_122:\n        /* \"#utility.yul\":1076:1100   */\n      tag_157\n        /* \"#utility.yul\":1094:1099   */\n      dup2\n        /* \"#utility.yul\":1076:1100   */\n      tag_121\n      jump\t// in\n    tag_157:\n        /* \"#utility.yul\":1069:1074   */\n      dup2\n        /* \"#utility.yul\":1066:1101   */\n      eq\n        /* \"#utility.yul\":1056:1119   */\n      tag_158\n      jumpi\n        /* \"#utility.yul\":1115:1116   */\n      0x00\n        /* \"#utility.yul\":1112:1113   */\n      dup1\n        /* \"#utility.yul\":1105:1117   */\n      revert\n        /* \"#utility.yul\":1056:1119   */\n    tag_158:\n        /* \"#utility.yul\":1003:1125   */\n      pop\n      jump\t// out\n        /* \"#utility.yul\":1131:1270   */\n    tag_123:\n        /* \"#utility.yul\":1177:1182   */\n      0x00\n        /* \"#utility.yul\":1215:1221   */\n      dup2\n        /* \"#utility.yul\":1202:1222   */\n      calldataload\n        /* \"#utility.yul\":1193:1222   */\n      swap1\n      pop\n        /* \"#utility.yul\":1231:1264   */\n      tag_160\n        /* \"#utility.yul\":1258:1263   */\n      dup2\n        /* \"#utility.yul\":1231:1264   */\n      tag_122\n      jump\t// in\n    tag_160:\n        /* \"#utility.yul\":1131:1270   */\n      swap3\n      swap2\n      pop\n      pop\n      jump\t// out\n        /* \"#utility.yul\":1276:1605   */\n    tag_24:\n        /* \"#utility.yul\":1335:1341   */\n      0x00\n        /* \"#utility.yul\":1384:1386   */\n      0x20\n        /* \"#utility.yul\":1372:1381   */\n      dup3\n        /* \"#utility.yul\":1363:1370   */\n      dup5\n        /* \"#utility.yul\":1359:1382   */\n      sub\n        /* \"#utility.yul\":1355:1387   */\n      slt\n        /* \"#utility.yul\":1352:1471   */\n      iszero\n      tag_162\n      jumpi\n        /* \"#utility.yul\":1390:1469   */\n      tag_163\n      tag_118\n      jump\t// in\n    tag_163:\n        /* \"#utility.yul\":1352:1471   */\n    tag_162:\n        /* \"#utility.yul\":1510:1511   */\n      0x00\n        /* \"#utility.yul\":1535:1588   */\n      tag_164\n        /* \"#utility.yul\":1580:1587   */\n      dup5\n        /* \"#utility.yul\":1571:1577   */\n      dup3\n        /* \"#utility.yul\":1560:1569   */\n      dup6\n        /* \"#utility.yul\":1556:1578   */\n      add\n        /* \"#utility.yul\":1535:1588   */\n      tag_123\n      jump\t// in\n    tag_164:\n        /* \"#utility.yul\":1525:1588   */\n      swap2\n      pop\n        /* \"#utility.yul\":1481:1598   */\n      pop\n        /* \"#utility.yul\":1276:1605   */\n      swap3\n      swap2\n      pop\n      pop\n      jump\t// out\n        /* \"#utility.yul\":1611:1791   */\n    tag_56:\n        /* \"#utility.yul\":1659:1736   */\n      0x4e487b7100000000000000000000000000000000000000000000000000000000\n        /* \"#utility.yul\":1656:1657   */\n      0x00\n        /* \"#utility.yul\":1649:1737   */\n      mstore\n        /* \"#utility.yul\":1756:1760   */\n      0x21\n        /* \"#utility.yul\":1753:1754   */\n      0x04\n        /* \"#utility.yul\":1746:1761   */\n      mstore\n        /* \"#utility.yul\":1780:1784   */\n      0x24\n        /* \"#utility.yul\":1777:1778   */\n      0x00\n        /* \"#utility.yul\":1770:1785   */\n      revert\n        /* \"#utility.yul\":1797:1910   */\n    tag_124:\n        /* \"#utility.yul\":1878:1879   */\n      0x04\n        /* \"#utility.yul\":1871:1876   */\n      dup2\n        /* \"#utility.yul\":1868:1880   */\n      lt\n        /* \"#utility.yul\":1858:1904   */\n      tag_167\n      jumpi\n        /* \"#utility.yul\":1884:1902   */\n      tag_168\n      tag_56\n      jump\t// in\n    tag_168:\n        /* \"#utility.yul\":1858:1904   */\n    tag_167:\n        /* \"#utility.yul\":1797:1910   */\n      pop\n      jump\t// out\n        /* \"#utility.yul\":1916:2043   */\n    tag_125:\n        /* \"#utility.yul\":1961:1968   */\n      0x00\n        /* \"#utility.yul\":1990:1995   */\n      dup2\n        /* \"#utility.yul\":1979:1995   */\n      swap1\n      pop\n        /* \"#utility.yul\":1996:2037   */\n      tag_170\n        /* \"#utility.yul\":2031:2036   */\n      dup3\n        /* \"#utility.yul\":1996:2037   */\n      tag_124\n      jump\t// in\n    tag_170:\n        /* \"#utility.yul\":1916:2043   */\n      swap2\n      swap1\n      pop\n      jump\t// out\n        /* \"#utility.yul\":2049:2176   */\n    tag_126:\n        /* \"#utility.yul\":2105:2114   */\n      0x00\n        /* \"#utility.yul\":2138:2170   */\n      tag_172\n        /* \"#utility.yul\":2164:2169   */\n      dup3\n        /* \"#utility.yul\":2138:2170   */\n      tag_125\n      jump\t// in\n    tag_172:\n        /* \"#utility.yul\":2125:2170   */\n      swap1\n      pop\n        /* \"#utility.yul\":2049:2176   */\n      swap2\n      swap1\n      pop\n      jump\t// out\n        /* \"#utility.yul\":2182:2325   */\n    tag_127:\n        /* \"#utility.yul\":2275:2318   */\n      tag_174\n        /* \"#utility.yul\":2312:2317   */\n      dup2\n        /* \"#utility.yul\":2275:2318   */\n      tag_126\n      jump\t// in\n    tag_174:\n        /* \"#utility.yul\":2270:2273   */\n      dup3\n        /* \"#utility.yul\":2263:2319   */\n      mstore\n        /* \"#utility.yul\":2182:2325   */\n      pop\n      pop\n      jump\t// out\n        /* \"#utility.yul\":2331:2565   */\n    tag_27:\n        /* \"#utility.yul\":2430:2434   */\n      0x00\n        /* \"#utility.yul\":2468:2470   */\n      0x20\n        /* \"#utility.yul\":2457:2466   */\n      dup3\n        /* \"#utility.yul\":2453:2471   */\n      add\n        /* \"#utility.yul\":2445:2471   */\n      swap1\n      pop\n        /* \"#utility.yul\":2481:2558   */\n      tag_176\n        /* \"#utility.yul\":2555:2556   */\n      0x00\n        /* \"#utility.yul\":2544:2553   */\n      dup4\n        /* \"#utility.yul\":2540:2557   */\n      add\n        /* \"#utility.yul\":2531:2537   */\n      dup5\n        /* \"#utility.yul\":2481:2558   */\n      tag_127\n      jump\t// in\n    tag_176:\n        /* \"#utility.yul\":2331:2565   */\n      swap3\n      swap2\n      pop\n      pop\n      jump\t// out\n        /* \"#utility.yul\":2571:2689   */\n    tag_128:\n        /* \"#utility.yul\":2658:2682   */\n      tag_178\n        /* \"#utility.yul\":2676:2681   */\n      dup2\n        /* \"#utility.yul\":2658:2682   */\n      tag_121\n      jump\t// in\n    tag_178:\n        /* \"#utility.yul\":2653:2656   */\n      dup3\n        /* \"#utility.yul\":2646:2683   */\n      mstore\n        /* \"#utility.yul\":2571:2689   */\n      pop\n      pop\n      jump\t// out\n        /* \"#utility.yul\":2695:2917   */\n    tag_33:\n        /* \"#utility.yul\":2788:2792   */\n      0x00\n        /* \"#utility.yul\":2826:2828   */\n      0x20\n        /* \"#utility.yul\":2815:2824   */\n      dup3\n        /* \"#utility.yul\":2811:2829   */\n      add\n        /* \"#utility.yul\":2803:2829   */\n      swap1\n      pop\n        /* \"#utility.yul\":2839:2910   */\n      tag_180\n        /* \"#utility.yul\":2907:2908   */\n      0x00\n        /* \"#utility.yul\":2896:2905   */\n      dup4\n        /* \"#utility.yul\":2892:2909   */\n      add\n        /* \"#utility.yul\":2883:2889   */\n      dup5\n        /* \"#utility.yul\":2839:2910   */\n      tag_128\n      jump\t// in\n    tag_180:\n        /* \"#utility.yul\":2695:2917   */\n      swap3\n      swap2\n      pop\n      pop\n      jump\t// out\n        /* \"#utility.yul\":2923:3013   */\n    tag_129:\n        /* \"#utility.yul\":2957:2964   */\n      0x00\n        /* \"#utility.yul\":3000:3005   */\n      dup2\n        /* \"#utility.yul\":2993:3006   */\n      iszero\n        /* \"#utility.yul\":2986:3007   */\n      iszero\n        /* \"#utility.yul\":2975:3007   */\n      swap1\n      pop\n        /* \"#utility.yul\":2923:3013   */\n      swap2\n      swap1\n      pop\n      jump\t// out\n        /* \"#utility.yul\":3019:3128   */\n    tag_130:\n        /* \"#utility.yul\":3100:3121   */\n      tag_183\n        /* \"#utility.yul\":3115:3120   */\n      dup2\n        /* \"#utility.yul\":3100:3121   */\n      tag_129\n      jump\t// in\n    tag_183:\n        /* \"#utility.yul\":3095:3098   */\n      dup3\n        /* \"#utility.yul\":3088:3122   */\n      mstore\n        /* \"#utility.yul\":3019:3128   */\n      pop\n      pop\n      jump\t// out\n        /* \"#utility.yul\":3134:3344   */\n    tag_43:\n        /* \"#utility.yul\":3221:3225   */\n      0x00\n        /* \"#utility.yul\":3259:3261   */\n      0x20\n        /* \"#utility.yul\":3248:3257   */\n      dup3\n        /* \"#utility.yul\":3244:3262   */\n      add\n        /* \"#utility.yul\":3236:3262   */\n      swap1\n      pop\n        /* \"#utility.yul\":3272:3337   */\n      tag_185\n        /* \"#utility.yul\":3334:3335   */\n      0x00\n        /* \"#utility.yul\":3323:3332   */\n      dup4\n        /* \"#utility.yul\":3319:3336   */\n      add\n        /* \"#utility.yul\":3310:3316   */\n      dup5\n        /* \"#utility.yul\":3272:3337   */\n      tag_130\n      jump\t// in\n    tag_185:\n        /* \"#utility.yul\":3134:3344   */\n      swap3\n      swap2\n      pop\n      pop\n      jump\t// out\n        /* \"#utility.yul\":3350:3519   */\n    tag_131:\n        /* \"#utility.yul\":3434:3445   */\n      0x00\n        /* \"#utility.yul\":3468:3474   */\n      dup3\n        /* \"#utility.yul\":3463:3466   */\n      dup3\n        /* \"#utility.yul\":3456:3475   */\n      mstore\n        /* \"#utility.yul\":3508:3512   */\n      0x20\n        /* \"#utility.yul\":3503:3506   */\n      dup3\n        /* \"#utility.yul\":3499:3513   */\n      add\n        /* \"#utility.yul\":3484:3513   */\n      swap1\n      pop\n        /* \"#utility.yul\":3350:3519   */\n      swap3\n      swap2\n      pop\n      pop\n      jump\t// out\n        /* \"#utility.yul\":3525:3702   */\n    tag_132:\n        /* \"#utility.yul\":3665:3694   */\n      0x4f6e6c79207374616b65686f6c64657220686173206163636573730000000000\n        /* \"#utility.yul\":3661:3662   */\n      0x00\n        /* \"#utility.yul\":3653:3659   */\n      dup3\n        /* \"#utility.yul\":3649:3663   */\n      add\n        /* \"#utility.yul\":3642:3695   */\n      mstore\n        /* \"#utility.yul\":3525:3702   */\n      pop\n      jump\t// out\n        /* \"#utility.yul\":3708:4074   */\n    tag_133:\n        /* \"#utility.yul\":3850:3853   */\n      0x00\n        /* \"#utility.yul\":3871:3938   */\n      tag_189\n        /* \"#utility.yul\":3935:3937   */\n      0x1b\n        /* \"#utility.yul\":3930:3933   */\n      dup4\n        /* \"#utility.yul\":3871:3938   */\n      tag_131\n      jump\t// in\n    tag_189:\n        /* \"#utility.yul\":3864:3938   */\n      swap2\n      pop\n        /* \"#utility.yul\":3947:4040   */\n      tag_190\n        /* \"#utility.yul\":4036:4039   */\n      dup3\n        /* \"#utility.yul\":3947:4040   */\n      tag_132\n      jump\t// in\n    tag_190:\n        /* \"#utility.yul\":4065:4067   */\n      0x20\n        /* \"#utility.yul\":4060:4063   */\n      dup3\n        /* \"#utility.yul\":4056:4068   */\n      add\n        /* \"#utility.yul\":4049:4068   */\n      swap1\n      pop\n        /* \"#utility.yul\":3708:4074   */\n      swap2\n      swap1\n      pop\n      jump\t// out\n        /* \"#utility.yul\":4080:4499   */\n    tag_52:\n        /* \"#utility.yul\":4246:4250   */\n      0x00\n        /* \"#utility.yul\":4284:4286   */\n      0x20\n        /* \"#utility.yul\":4273:4282   */\n      dup3\n        /* \"#utility.yul\":4269:4287   */\n      add\n        /* \"#utility.yul\":4261:4287   */\n      swap1\n      pop\n        /* \"#utility.yul\":4333:4342   */\n      dup2\n        /* \"#utility.yul\":4327:4331   */\n      dup2\n        /* \"#utility.yul\":4323:4343   */\n      sub\n        /* \"#utility.yul\":4319:4320   */\n      0x00\n        /* \"#utility.yul\":4308:4317   */\n      dup4\n        /* \"#utility.yul\":4304:4321   */\n      add\n        /* \"#utility.yul\":4297:4344   */\n      mstore\n        /* \"#utility.yul\":4361:4492   */\n      tag_192\n        /* \"#utility.yul\":4487:4491   */\n      dup2\n        /* \"#utility.yul\":4361:4492   */\n      tag_133\n      jump\t// in\n    tag_192:\n        /* \"#utility.yul\":4353:4492   */\n      swap1\n      pop\n        /* \"#utility.yul\":4080:4499   */\n      swap2\n      swap1\n      pop\n      jump\t// out\n        /* \"#utility.yul\":4505:4685   */\n    tag_134:\n        /* \"#utility.yul\":4645:4677   */\n      0x54686973206164647265737320697320616c7265616479206163746976650000\n        /* \"#utility.yul\":4641:4642   */\n      0x00\n        /* \"#utility.yul\":4633:4639   */\n      dup3\n        /* \"#utility.yul\":4629:4643   */\n      add\n        /* \"#utility.yul\":4622:4678   */\n      mstore\n        /* \"#utility.yul\":4505:4685   */\n      pop\n      jump\t// out\n        /* \"#utility.yul\":4691:5057   */\n    tag_135:\n        /* \"#utility.yul\":4833:4836   */\n      0x00\n        /* \"#utility.yul\":4854:4921   */\n      tag_195\n        /* \"#utility.yul\":4918:4920   */\n      0x1e\n        /* \"#utility.yul\":4913:4916   */\n      dup4\n        /* \"#utility.yul\":4854:4921   */\n      tag_131\n      jump\t// in\n    tag_195:\n        /* \"#utility.yul\":4847:4921   */\n      swap2\n      pop\n        /* \"#utility.yul\":4930:5023   */\n      tag_196\n        /* \"#utility.yul\":5019:5022   */\n      dup3\n        /* \"#utility.yul\":4930:5023   */\n      tag_134\n      jump\t// in\n    tag_196:\n        /* \"#utility.yul\":5048:5050   */\n      0x20\n        /* \"#utility.yul\":5043:5046   */\n      dup3\n        /* \"#utility.yul\":5039:5051   */\n      add\n        /* \"#utility.yul\":5032:5051   */\n      swap1\n      pop\n        /* \"#utility.yul\":4691:5057   */\n      swap2\n      swap1\n      pop\n      jump\t// out\n        /* \"#utility.yul\":5063:5482   */\n    tag_61:\n        /* \"#utility.yul\":5229:5233   */\n      0x00\n        /* \"#utility.yul\":5267:5269   */\n      0x20\n        /* \"#utility.yul\":5256:5265   */\n      dup3\n        /* \"#utility.yul\":5252:5270   */\n      add\n        /* \"#utility.yul\":5244:5270   */\n      swap1\n      pop\n        /* \"#utility.yul\":5316:5325   */\n      dup2\n        /* \"#utility.yul\":5310:5314   */\n      dup2\n        /* \"#utility.yul\":5306:5326   */\n      sub\n        /* \"#utility.yul\":5302:5303   */\n      0x00\n        /* \"#utility.yul\":5291:5300   */\n      dup4\n        /* \"#utility.yul\":5287:5304   */\n      add\n        /* \"#utility.yul\":5280:5327   */\n      mstore\n        /* \"#utility.yul\":5344:5475   */\n      tag_198\n        /* \"#utility.yul\":5470:5474   */\n      dup2\n        /* \"#utility.yul\":5344:5475   */\n      tag_135\n      jump\t// in\n    tag_198:\n        /* \"#utility.yul\":5336:5475   */\n      swap1\n      pop\n        /* \"#utility.yul\":5063:5482   */\n      swap2\n      swap1\n      pop\n      jump\t// out\n        /* \"#utility.yul\":5488:5666   */\n    tag_136:\n        /* \"#utility.yul\":5628:5658   */\n      0x5374616b65686f6c64657220646f6e7420686176652061636365737300000000\n        /* \"#utility.yul\":5624:5625   */\n      0x00\n        /* \"#utility.yul\":5616:5622   */\n      dup3\n        /* \"#utility.yul\":5612:5626   */\n      add\n        /* \"#utility.yul\":5605:5659   */\n      mstore\n        /* \"#utility.yul\":5488:5666   */\n      pop\n      jump\t// out\n        /* \"#utility.yul\":5672:6038   */\n    tag_137:\n        /* \"#utility.yul\":5814:5817   */\n      0x00\n        /* \"#utility.yul\":5835:5902   */\n      tag_201\n        /* \"#utility.yul\":5899:5901   */\n      0x1c\n        /* \"#utility.yul\":5894:5897   */\n      dup4\n        /* \"#utility.yul\":5835:5902   */\n      tag_131\n      jump\t// in\n    tag_201:\n        /* \"#utility.yul\":5828:5902   */\n      swap2\n      pop\n        /* \"#utility.yul\":5911:6004   */\n      tag_202\n        /* \"#utility.yul\":6000:6003   */\n      dup3\n        /* \"#utility.yul\":5911:6004   */\n      tag_136\n      jump\t// in\n    tag_202:\n        /* \"#utility.yul\":6029:6031   */\n      0x20\n        /* \"#utility.yul\":6024:6027   */\n      dup3\n        /* \"#utility.yul\":6020:6032   */\n      add\n        /* \"#utility.yul\":6013:6032   */\n      swap1\n      pop\n        /* \"#utility.yul\":5672:6038   */\n      swap2\n      swap1\n      pop\n      jump\t// out\n        /* \"#utility.yul\":6044:6463   */\n    tag_69:\n        /* \"#utility.yul\":6210:6214   */\n      0x00\n        /* \"#utility.yul\":6248:6250   */\n      0x20\n        /* \"#utility.yul\":6237:6246   */\n      dup3\n        /* \"#utility.yul\":6233:6251   */\n      add\n        /* \"#utility.yul\":6225:6251   */\n      swap1\n      pop\n        /* \"#utility.yul\":6297:6306   */\n      dup2\n        /* \"#utility.yul\":6291:6295   */\n      dup2\n        /* \"#utility.yul\":6287:6307   */\n      sub\n        /* \"#utility.yul\":6283:6284   */\n      0x00\n        /* \"#utility.yul\":6272:6281   */\n      dup4\n        /* \"#utility.yul\":6268:6285   */\n      add\n        /* \"#utility.yul\":6261:6308   */\n      mstore\n        /* \"#utility.yul\":6325:6456   */\n      tag_204\n        /* \"#utility.yul\":6451:6455   */\n      dup2\n        /* \"#utility.yul\":6325:6456   */\n      tag_137\n      jump\t// in\n    tag_204:\n        /* \"#utility.yul\":6317:6456   */\n      swap1\n      pop\n        /* \"#utility.yul\":6044:6463   */\n      swap2\n      swap1\n      pop\n      jump\t// out\n        /* \"#utility.yul\":6469:6704   */\n    tag_138:\n        /* \"#utility.yul\":6609:6643   */\n      0x5468697320616464726573732077617320616c72656164792061636365707465\n        /* \"#utility.yul\":6605:6606   */\n      0x00\n        /* \"#utility.yul\":6597:6603   */\n      dup3\n        /* \"#utility.yul\":6593:6607   */\n      add\n        /* \"#utility.yul\":6586:6644   */\n      mstore\n        /* \"#utility.yul\":6678:6696   */\n      0x64206173207374616b65686f6c64657200000000000000000000000000000000\n        /* \"#utility.yul\":6673:6675   */\n      0x20\n        /* \"#utility.yul\":6665:6671   */\n      dup3\n        /* \"#utility.yul\":6661:6676   */\n      add\n        /* \"#utility.yul\":6654:6697   */\n      mstore\n        /* \"#utility.yul\":6469:6704   */\n      pop\n      jump\t// out\n        /* \"#utility.yul\":6710:7076   */\n    tag_139:\n        /* \"#utility.yul\":6852:6855   */\n      0x00\n        /* \"#utility.yul\":6873:6940   */\n      tag_207\n        /* \"#utility.yul\":6937:6939   */\n      0x30\n        /* \"#utility.yul\":6932:6935   */\n      dup4\n        /* \"#utility.yul\":6873:6940   */\n      tag_131\n      jump\t// in\n    tag_207:\n        /* \"#utility.yul\":6866:6940   */\n      swap2\n      pop\n        /* \"#utility.yul\":6949:7042   */\n      tag_208\n        /* \"#utility.yul\":7038:7041   */\n      dup3\n        /* \"#utility.yul\":6949:7042   */\n      tag_138\n      jump\t// in\n    tag_208:\n        /* \"#utility.yul\":7067:7069   */\n      0x40\n        /* \"#utility.yul\":7062:7065   */\n      dup3\n        /* \"#utility.yul\":7058:7070   */\n      add\n        /* \"#utility.yul\":7051:7070   */\n      swap1\n      pop\n        /* \"#utility.yul\":6710:7076   */\n      swap2\n      swap1\n      pop\n      jump\t// out\n        /* \"#utility.yul\":7082:7501   */\n    tag_80:\n        /* \"#utility.yul\":7248:7252   */\n      0x00\n        /* \"#utility.yul\":7286:7288   */\n      0x20\n        /* \"#utility.yul\":7275:7284   */\n      dup3\n        /* \"#utility.yul\":7271:7289   */\n      add\n        /* \"#utility.yul\":7263:7289   */\n      swap1\n      pop\n        /* \"#utility.yul\":7335:7344   */\n      dup2\n        /* \"#utility.yul\":7329:7333   */\n      dup2\n        /* \"#utility.yul\":7325:7345   */\n      sub\n        /* \"#utility.yul\":7321:7322   */\n      0x00\n        /* \"#utility.yul\":7310:7319   */\n      dup4\n        /* \"#utility.yul\":7306:7323   */\n      add\n        /* \"#utility.yul\":7299:7346   */\n      mstore\n        /* \"#utility.yul\":7363:7494   */\n      tag_210\n        /* \"#utility.yul\":7489:7493   */\n      dup2\n        /* \"#utility.yul\":7363:7494   */\n      tag_139\n      jump\t// in\n    tag_210:\n        /* \"#utility.yul\":7355:7494   */\n      swap1\n      pop\n        /* \"#utility.yul\":7082:7501   */\n      swap2\n      swap1\n      pop\n      jump\t// out\n        /* \"#utility.yul\":7507:7678   */\n    tag_140:\n        /* \"#utility.yul\":7647:7670   */\n      0x4f6e6c79206f776e657220686173206163636565730000000000000000000000\n        /* \"#utility.yul\":7643:7644   */\n      0x00\n        /* \"#utility.yul\":7635:7641   */\n      dup3\n        /* \"#utility.yul\":7631:7645   */\n      add\n        /* \"#utility.yul\":7624:7671   */\n      mstore\n        /* \"#utility.yul\":7507:7678   */\n      pop\n      jump\t// out\n        /* \"#utility.yul\":7684:8050   */\n    tag_141:\n        /* \"#utility.yul\":7826:7829   */\n      0x00\n        /* \"#utility.yul\":7847:7914   */\n      tag_213\n        /* \"#utility.yul\":7911:7913   */\n      0x15\n        /* \"#utility.yul\":7906:7909   */\n      dup4\n        /* \"#utility.yul\":7847:7914   */\n      tag_131\n      jump\t// in\n    tag_213:\n        /* \"#utility.yul\":7840:7914   */\n      swap2\n      pop\n        /* \"#utility.yul\":7923:8016   */\n      tag_214\n        /* \"#utility.yul\":8012:8015   */\n      dup3\n        /* \"#utility.yul\":7923:8016   */\n      tag_140\n      jump\t// in\n    tag_214:\n        /* \"#utility.yul\":8041:8043   */\n      0x20\n        /* \"#utility.yul\":8036:8039   */\n      dup3\n        /* \"#utility.yul\":8032:8044   */\n      add\n        /* \"#utility.yul\":8025:8044   */\n      swap1\n      pop\n        /* \"#utility.yul\":7684:8050   */\n      swap2\n      swap1\n      pop\n      jump\t// out\n        /* \"#utility.yul\":8056:8475   */\n    tag_84:\n        /* \"#utility.yul\":8222:8226   */\n      0x00\n        /* \"#utility.yul\":8260:8262   */\n      0x20\n        /* \"#utility.yul\":8249:8258   */\n      dup3\n        /* \"#utility.yul\":8245:8263   */\n      add\n        /* \"#utility.yul\":8237:8263   */\n      swap1\n      pop\n        /* \"#utility.yul\":8309:8318   */\n      dup2\n        /* \"#utility.yul\":8303:8307   */\n      dup2\n        /* \"#utility.yul\":8299:8319   */\n      sub\n        /* \"#utility.yul\":8295:8296   */\n      0x00\n        /* \"#utility.yul\":8284:8293   */\n      dup4\n        /* \"#utility.yul\":8280:8297   */\n      add\n        /* \"#utility.yul\":8273:8320   */\n      mstore\n        /* \"#utility.yul\":8337:8468   */\n      tag_216\n        /* \"#utility.yul\":8463:8467   */\n      dup2\n        /* \"#utility.yul\":8337:8468   */\n      tag_141\n      jump\t// in\n    tag_216:\n        /* \"#utility.yul\":8329:8468   */\n      swap1\n      pop\n        /* \"#utility.yul\":8056:8475   */\n      swap2\n      swap1\n      pop\n      jump\t// out\n        /* \"#utility.yul\":8481:8663   */\n    tag_142:\n        /* \"#utility.yul\":8621:8655   */\n      0x54686973206164647265737320697320616c7265616479206465616374697665\n        /* \"#utility.yul\":8617:8618   */\n      0x00\n        /* \"#utility.yul\":8609:8615   */\n      dup3\n        /* \"#utility.yul\":8605:8619   */\n      add\n        /* \"#utility.yul\":8598:8656   */\n      mstore\n        /* \"#utility.yul\":8481:8663   */\n      pop\n      jump\t// out\n        /* \"#utility.yul\":8669:9035   */\n    tag_143:\n        /* \"#utility.yul\":8811:8814   */\n      0x00\n        /* \"#utility.yul\":8832:8899   */\n      tag_219\n        /* \"#utility.yul\":8896:8898   */\n      0x20\n        /* \"#utility.yul\":8891:8894   */\n      dup4\n        /* \"#utility.yul\":8832:8899   */\n      tag_131\n      jump\t// in\n    tag_219:\n        /* \"#utility.yul\":8825:8899   */\n      swap2\n      pop\n        /* \"#utility.yul\":8908:9001   */\n      tag_220\n        /* \"#utility.yul\":8997:9000   */\n      dup3\n        /* \"#utility.yul\":8908:9001   */\n      tag_142\n      jump\t// in\n    tag_220:\n        /* \"#utility.yul\":9026:9028   */\n      0x20\n        /* \"#utility.yul\":9021:9024   */\n      dup3\n        /* \"#utility.yul\":9017:9029   */\n      add\n        /* \"#utility.yul\":9010:9029   */\n      swap1\n      pop\n        /* \"#utility.yul\":8669:9035   */\n      swap2\n      swap1\n      pop\n      jump\t// out\n        /* \"#utility.yul\":9041:9460   */\n    tag_106:\n        /* \"#utility.yul\":9207:9211   */\n      0x00\n        /* \"#utility.yul\":9245:9247   */\n      0x20\n        /* \"#utility.yul\":9234:9243   */\n      dup3\n        /* \"#utility.yul\":9230:9248   */\n      add\n        /* \"#utility.yul\":9222:9248   */\n      swap1\n      pop\n        /* \"#utility.yul\":9294:9303   */\n      dup2\n        /* \"#utility.yul\":9288:9292   */\n      dup2\n        /* \"#utility.yul\":9284:9304   */\n      sub\n        /* \"#utility.yul\":9280:9281   */\n      0x00\n        /* \"#utility.yul\":9269:9278   */\n      dup4\n        /* \"#utility.yul\":9265:9282   */\n      add\n        /* \"#utility.yul\":9258:9305   */\n      mstore\n        /* \"#utility.yul\":9322:9453   */\n      tag_222\n        /* \"#utility.yul\":9448:9452   */\n      dup2\n        /* \"#utility.yul\":9322:9453   */\n      tag_143\n      jump\t// in\n    tag_222:\n        /* \"#utility.yul\":9314:9453   */\n      swap1\n      pop\n        /* \"#utility.yul\":9041:9460   */\n      swap2\n      swap1\n      pop\n      jump\t// out\n\n    auxdata: 0xa264697066735822122041e564fe2def042871ea75eec176c08771c3e89c3be2be4383620a44eb0f74b764736f6c63430008140033\n}\n",
				"bytecode": {
					"linkReferences": {},
					"object": "608060405234801561000f575f80fd5b50335f806101000a81548173ffffffffffffffffffffffffffffffffffffffff021916908373ffffffffffffffffffffffffffffffffffffffff160217905550610dc18061005c5f395ff3fe608060405234801561000f575f80fd5b506004361061009c575f3560e01c80638da5cb5b116100645780638da5cb5b1461010c5780639f0059201461012a578063a008f70914610146578063ef037b9014610150578063f81c96b1146101805761009c565b806302fb0c5e146100a0578063187fcb16146100aa5780631982e21c146100c857806330ccebb5146100d25780637e3350fc14610102575b5f80fd5b6100a86101b0565b005b6100b261030f565b6040516100bf919061095c565b60405180910390f35b6100d061031b565b005b6100ec60048036038101906100e791906109d3565b6103cb565b6040516100f99190610a71565b60405180910390f35b61010a61041d565b005b61011461051b565b6040516101219190610a99565b60405180910390f35b610144600480360381019061013f91906109d3565b61053e565b005b61014e610743565b005b61016a600480360381019061016591906109d3565b6108a0565b6040516101779190610acc565b60405180910390f35b61019a600480360381019061019591906109d3565b610927565b6040516101a79190610a71565b60405180910390f35b6101b9336108a0565b6101f8576040517f08c379a00000000000000000000000000000000000000000000000000000000081526004016101ef90610b3f565b60405180910390fd5b6002600381111561020c5761020b6109fe565b5b60025f3373ffffffffffffffffffffffffffffffffffffffff1673ffffffffffffffffffffffffffffffffffffffff1681526020019081526020015f205f9054906101000a900460ff166003811115610268576102676109fe565b5b146102a8576040517f08c379a000000000000000000000000000000000000000000000000000000000815260040161029f90610ba7565b60405180910390fd5b600360025f3373ffffffffffffffffffffffffffffffffffffffff1673ffffffffffffffffffffffffffffffffffffffff1681526020019081526020015f205f6101000a81548160ff02191690836003811115610308576103076109fe565b5b0217905550565b5f600180549050905090565b610324336108a0565b15610364576040517f08c379a000000000000000000000000000000000000000000000000000000000815260040161035b90610c0f565b60405180910390fd5b600160025f3373ffffffffffffffffffffffffffffffffffffffff1673ffffffffffffffffffffffffffffffffffffffff1681526020019081526020015f205f6101000a81548160ff021916908360038111156103c4576103c36109fe565b5b0217905550565b5f60025f8373ffffffffffffffffffffffffffffffffffffffff1673ffffffffffffffffffffffffffffffffffffffff1681526020019081526020015f205f9054906101000a900460ff169050919050565b60016003811115610431576104306109fe565b5b60025f3373ffffffffffffffffffffffffffffffffffffffff1673ffffffffffffffffffffffffffffffffffffffff1681526020019081526020015f205f9054906101000a900460ff16600381111561048d5761048c6109fe565b5b146104cd576040517f08c379a00000000000000000000000000000000000000000000000000000000081526004016104c490610c9d565b60405180910390fd5b60025f3373ffffffffffffffffffffffffffffffffffffffff1673ffffffffffffffffffffffffffffffffffffffff1681526020019081526020015f205f6101000a81549060ff0219169055565b5f8054906101000a900473ffffffffffffffffffffffffffffffffffffffff1681565b5f8054906101000a900473ffffffffffffffffffffffffffffffffffffffff1673ffffffffffffffffffffffffffffffffffffffff163373ffffffffffffffffffffffffffffffffffffffff16146105cb576040517f08c379a00000000000000000000000000000000000000000000000000000000081526004016105c290610d05565b60405180910390fd5b600160038111156105df576105de6109fe565b5b60025f8373ffffffffffffffffffffffffffffffffffffffff1673ffffffffffffffffffffffffffffffffffffffff1681526020019081526020015f205f9054906101000a900460ff16600381111561063b5761063a6109fe565b5b1461067b576040517f08c379a000000000000000000000000000000000000000000000000000000000815260040161067290610c9d565b60405180910390fd5b600181908060018154018082558091505060019003905f5260205f20015f9091909190916101000a81548173ffffffffffffffffffffffffffffffffffffffff021916908373ffffffffffffffffffffffffffffffffffffffff160217905550600360025f8373ffffffffffffffffffffffffffffffffffffffff1673ffffffffffffffffffffffffffffffffffffffff1681526020019081526020015f205f6101000a81548160ff0219169083600381111561073b5761073a6109fe565b5b021790555050565b61074c336108a0565b61078b576040517f08c379a000000000000000000000000000000000000000000000000000000000815260040161078290610b3f565b60405180910390fd5b60038081111561079e5761079d6109fe565b5b60025f3373ffffffffffffffffffffffffffffffffffffffff1673ffffffffffffffffffffffffffffffffffffffff1681526020019081526020015f205f9054906101000a900460ff1660038111156107fa576107f96109fe565b5b1461083a576040517f08c379a000000000000000000000000000000000000000000000000000000000815260040161083190610d6d565b60405180910390fd5b6002805f3373ffffffffffffffffffffffffffffffffffffffff1673ffffffffffffffffffffffffffffffffffffffff1681526020019081526020015f205f6101000a81548160ff02191690836003811115610899576108986109fe565b5b0217905550565b5f8060038111156108b4576108b36109fe565b5b60025f8473ffffffffffffffffffffffffffffffffffffffff1673ffffffffffffffffffffffffffffffffffffffff1681526020019081526020015f205f9054906101000a900460ff1660038111156109105761090f6109fe565b5b0361091d575f9050610922565b600190505b919050565b6002602052805f5260405f205f915054906101000a900460ff1681565b5f819050919050565b61095681610944565b82525050565b5f60208201905061096f5f83018461094d565b92915050565b5f80fd5b5f73ffffffffffffffffffffffffffffffffffffffff82169050919050565b5f6109a282610979565b9050919050565b6109b281610998565b81146109bc575f80fd5b50565b5f813590506109cd816109a9565b92915050565b5f602082840312156109e8576109e7610975565b5b5f6109f5848285016109bf565b91505092915050565b7f4e487b71000000000000000000000000000000000000000000000000000000005f52602160045260245ffd5b60048110610a3c57610a3b6109fe565b5b50565b5f819050610a4c82610a2b565b919050565b5f610a5b82610a3f565b9050919050565b610a6b81610a51565b82525050565b5f602082019050610a845f830184610a62565b92915050565b610a9381610998565b82525050565b5f602082019050610aac5f830184610a8a565b92915050565b5f8115159050919050565b610ac681610ab2565b82525050565b5f602082019050610adf5f830184610abd565b92915050565b5f82825260208201905092915050565b7f4f6e6c79207374616b65686f6c646572206861732061636365737300000000005f82015250565b5f610b29601b83610ae5565b9150610b3482610af5565b602082019050919050565b5f6020820190508181035f830152610b5681610b1d565b9050919050565b7f54686973206164647265737320697320616c72656164792061637469766500005f82015250565b5f610b91601e83610ae5565b9150610b9c82610b5d565b602082019050919050565b5f6020820190508181035f830152610bbe81610b85565b9050919050565b7f5374616b65686f6c64657220646f6e74206861766520616363657373000000005f82015250565b5f610bf9601c83610ae5565b9150610c0482610bc5565b602082019050919050565b5f6020820190508181035f830152610c2681610bed565b9050919050565b7f5468697320616464726573732077617320616c726561647920616363657074655f8201527f64206173207374616b65686f6c64657200000000000000000000000000000000602082015250565b5f610c87603083610ae5565b9150610c9282610c2d565b604082019050919050565b5f6020820190508181035f830152610cb481610c7b565b9050919050565b7f4f6e6c79206f776e6572206861732061636365657300000000000000000000005f82015250565b5f610cef601583610ae5565b9150610cfa82610cbb565b602082019050919050565b5f6020820190508181035f830152610d1c81610ce3565b9050919050565b7f54686973206164647265737320697320616c72656164792064656163746976655f82015250565b5f610d57602083610ae5565b9150610d6282610d23565b602082019050919050565b5f6020820190508181035f830152610d8481610d4b565b905091905056fea264697066735822122041e564fe2def042871ea75eec176c08771c3e89c3be2be4383620a44eb0f74b764736f6c63430008140033",
					"opcodes": "PUSH1 0x80 PUSH1 0x40 MSTORE CALLVALUE DUP1 ISZERO PUSH2 0xF JUMPI PUSH0 DUP1 REVERT JUMPDEST POP CALLER PUSH0 DUP1 PUSH2 0x100 EXP DUP2 SLOAD DUP2 PUSH20 0xFFFFFFFFFFFFFFFFFFFFFFFFFFFFFFFFFFFFFFFF MUL NOT AND SWAP1 DUP4 PUSH20 0xFFFFFFFFFFFFFFFFFFFFFFFFFFFFFFFFFFFFFFFF AND MUL OR SWAP1 SSTORE POP PUSH2 0xDC1 DUP1 PUSH2 0x5C PUSH0 CODECOPY PUSH0 RETURN INVALID PUSH1 0x80 PUSH1 0x40 MSTORE CALLVALUE DUP1 ISZERO PUSH2 0xF JUMPI PUSH0 DUP1 REVERT JUMPDEST POP PUSH1 0x4 CALLDATASIZE LT PUSH2 0x9C JUMPI PUSH0 CALLDATALOAD PUSH1 0xE0 SHR DUP1 PUSH4 0x8DA5CB5B GT PUSH2 0x64 JUMPI DUP1 PUSH4 0x8DA5CB5B EQ PUSH2 0x10C JUMPI DUP1 PUSH4 0x9F005920 EQ PUSH2 0x12A JUMPI DUP1 PUSH4 0xA008F709 EQ PUSH2 0x146 JUMPI DUP1 PUSH4 0xEF037B90 EQ PUSH2 0x150 JUMPI DUP1 PUSH4 0xF81C96B1 EQ PUSH2 0x180 JUMPI PUSH2 0x9C JUMP JUMPDEST DUP1 PUSH4 0x2FB0C5E EQ PUSH2 0xA0 JUMPI DUP1 PUSH4 0x187FCB16 EQ PUSH2 0xAA JUMPI DUP1 PUSH4 0x1982E21C EQ PUSH2 0xC8 JUMPI DUP1 PUSH4 0x30CCEBB5 EQ PUSH2 0xD2 JUMPI DUP1 PUSH4 0x7E3350FC EQ PUSH2 0x102 JUMPI JUMPDEST PUSH0 DUP1 REVERT JUMPDEST PUSH2 0xA8 PUSH2 0x1B0 JUMP JUMPDEST STOP JUMPDEST PUSH2 0xB2 PUSH2 0x30F JUMP JUMPDEST PUSH1 0x40 MLOAD PUSH2 0xBF SWAP2 SWAP1 PUSH2 0x95C JUMP JUMPDEST PUSH1 0x40 MLOAD DUP1 SWAP2 SUB SWAP1 RETURN JUMPDEST PUSH2 0xD0 PUSH2 0x31B JUMP JUMPDEST STOP JUMPDEST PUSH2 0xEC PUSH1 0x4 DUP1 CALLDATASIZE SUB DUP2 ADD SWAP1 PUSH2 0xE7 SWAP2 SWAP1 PUSH2 0x9D3 JUMP JUMPDEST PUSH2 0x3CB JUMP JUMPDEST PUSH1 0x40 MLOAD PUSH2 0xF9 SWAP2 SWAP1 PUSH2 0xA71 JUMP JUMPDEST PUSH1 0x40 MLOAD DUP1 SWAP2 SUB SWAP1 RETURN JUMPDEST PUSH2 0x10A PUSH2 0x41D JUMP JUMPDEST STOP JUMPDEST PUSH2 0x114 PUSH2 0x51B JUMP JUMPDEST PUSH1 0x40 MLOAD PUSH2 0x121 SWAP2 SWAP1 PUSH2 0xA99 JUMP JUMPDEST PUSH1 0x40 MLOAD DUP1 SWAP2 SUB SWAP1 RETURN JUMPDEST PUSH2 0x144 PUSH1 0x4 DUP1 CALLDATASIZE SUB DUP2 ADD SWAP1 PUSH2 0x13F SWAP2 SWAP1 PUSH2 0x9D3 JUMP JUMPDEST PUSH2 0x53E JUMP JUMPDEST STOP JUMPDEST PUSH2 0x14E PUSH2 0x743 JUMP JUMPDEST STOP JUMPDEST PUSH2 0x16A PUSH1 0x4 DUP1 CALLDATASIZE SUB DUP2 ADD SWAP1 PUSH2 0x165 SWAP2 SWAP1 PUSH2 0x9D3 JUMP JUMPDEST PUSH2 0x8A0 JUMP JUMPDEST PUSH1 0x40 MLOAD PUSH2 0x177 SWAP2 SWAP1 PUSH2 0xACC JUMP JUMPDEST PUSH1 0x40 MLOAD DUP1 SWAP2 SUB SWAP1 RETURN JUMPDEST PUSH2 0x19A PUSH1 0x4 DUP1 CALLDATASIZE SUB DUP2 ADD SWAP1 PUSH2 0x195 SWAP2 SWAP1 PUSH2 0x9D3 JUMP JUMPDEST PUSH2 0x927 JUMP JUMPDEST PUSH1 0x40 MLOAD PUSH2 0x1A7 SWAP2 SWAP1 PUSH2 0xA71 JUMP JUMPDEST PUSH1 0x40 MLOAD DUP1 SWAP2 SUB SWAP1 RETURN JUMPDEST PUSH2 0x1B9 CALLER PUSH2 0x8A0 JUMP JUMPDEST PUSH2 0x1F8 JUMPI PUSH1 0x40 MLOAD PUSH32 0x8C379A000000000000000000000000000000000000000000000000000000000 DUP2 MSTORE PUSH1 0x4 ADD PUSH2 0x1EF SWAP1 PUSH2 0xB3F JUMP JUMPDEST PUSH1 0x40 MLOAD DUP1 SWAP2 SUB SWAP1 REVERT JUMPDEST PUSH1 0x2 PUSH1 0x3 DUP2 GT ISZERO PUSH2 0x20C JUMPI PUSH2 0x20B PUSH2 0x9FE JUMP JUMPDEST JUMPDEST PUSH1 0x2 PUSH0 CALLER PUSH20 0xFFFFFFFFFFFFFFFFFFFFFFFFFFFFFFFFFFFFFFFF AND PUSH20 0xFFFFFFFFFFFFFFFFFFFFFFFFFFFFFFFFFFFFFFFF AND DUP2 MSTORE PUSH1 0x20 ADD SWAP1 DUP2 MSTORE PUSH1 0x20 ADD PUSH0 KECCAK256 PUSH0 SWAP1 SLOAD SWAP1 PUSH2 0x100 EXP SWAP1 DIV PUSH1 0xFF AND PUSH1 0x3 DUP2 GT ISZERO PUSH2 0x268 JUMPI PUSH2 0x267 PUSH2 0x9FE JUMP JUMPDEST JUMPDEST EQ PUSH2 0x2A8 JUMPI PUSH1 0x40 MLOAD PUSH32 0x8C379A000000000000000000000000000000000000000000000000000000000 DUP2 MSTORE PUSH1 0x4 ADD PUSH2 0x29F SWAP1 PUSH2 0xBA7 JUMP JUMPDEST PUSH1 0x40 MLOAD DUP1 SWAP2 SUB SWAP1 REVERT JUMPDEST PUSH1 0x3 PUSH1 0x2 PUSH0 CALLER PUSH20 0xFFFFFFFFFFFFFFFFFFFFFFFFFFFFFFFFFFFFFFFF AND PUSH20 0xFFFFFFFFFFFFFFFFFFFFFFFFFFFFFFFFFFFFFFFF AND DUP2 MSTORE PUSH1 0x20 ADD SWAP1 DUP2 MSTORE PUSH1 0x20 ADD PUSH0 KECCAK256 PUSH0 PUSH2 0x100 EXP DUP2 SLOAD DUP2 PUSH1 0xFF MUL NOT AND SWAP1 DUP4 PUSH1 0x3 DUP2 GT ISZERO PUSH2 0x308 JUMPI PUSH2 0x307 PUSH2 0x9FE JUMP JUMPDEST JUMPDEST MUL OR SWAP1 SSTORE POP JUMP JUMPDEST PUSH0 PUSH1 0x1 DUP1 SLOAD SWAP1 POP SWAP1 POP SWAP1 JUMP JUMPDEST PUSH2 0x324 CALLER PUSH2 0x8A0 JUMP JUMPDEST ISZERO PUSH2 0x364 JUMPI PUSH1 0x40 MLOAD PUSH32 0x8C379A000000000000000000000000000000000000000000000000000000000 DUP2 MSTORE PUSH1 0x4 ADD PUSH2 0x35B SWAP1 PUSH2 0xC0F JUMP JUMPDEST PUSH1 0x40 MLOAD DUP1 SWAP2 SUB SWAP1 REVERT JUMPDEST PUSH1 0x1 PUSH1 0x2 PUSH0 CALLER PUSH20 0xFFFFFFFFFFFFFFFFFFFFFFFFFFFFFFFFFFFFFFFF AND PUSH20 0xFFFFFFFFFFFFFFFFFFFFFFFFFFFFFFFFFFFFFFFF AND DUP2 MSTORE PUSH1 0x20 ADD SWAP1 DUP2 MSTORE PUSH1 0x20 ADD PUSH0 KECCAK256 PUSH0 PUSH2 0x100 EXP DUP2 SLOAD DUP2 PUSH1 0xFF MUL NOT AND SWAP1 DUP4 PUSH1 0x3 DUP2 GT ISZERO PUSH2 0x3C4 JUMPI PUSH2 0x3C3 PUSH2 0x9FE JUMP JUMPDEST JUMPDEST MUL OR SWAP1 SSTORE POP JUMP JUMPDEST PUSH0 PUSH1 0x2 PUSH0 DUP4 PUSH20 0xFFFFFFFFFFFFFFFFFFFFFFFFFFFFFFFFFFFFFFFF AND PUSH20 0xFFFFFFFFFFFFFFFFFFFFFFFFFFFFFFFFFFFFFFFF AND DUP2 MSTORE PUSH1 0x20 ADD SWAP1 DUP2 MSTORE PUSH1 0x20 ADD PUSH0 KECCAK256 PUSH0 SWAP1 SLOAD SWAP1 PUSH2 0x100 EXP SWAP1 DIV PUSH1 0xFF AND SWAP1 POP SWAP2 SWAP1 POP JUMP JUMPDEST PUSH1 0x1 PUSH1 0x3 DUP2 GT ISZERO PUSH2 0x431 JUMPI PUSH2 0x430 PUSH2 0x9FE JUMP JUMPDEST JUMPDEST PUSH1 0x2 PUSH0 CALLER PUSH20 0xFFFFFFFFFFFFFFFFFFFFFFFFFFFFFFFFFFFFFFFF AND PUSH20 0xFFFFFFFFFFFFFFFFFFFFFFFFFFFFFFFFFFFFFFFF AND DUP2 MSTORE PUSH1 0x20 ADD SWAP1 DUP2 MSTORE PUSH1 0x20 ADD PUSH0 KECCAK256 PUSH0 SWAP1 SLOAD SWAP1 PUSH2 0x100 EXP SWAP1 DIV PUSH1 0xFF AND PUSH1 0x3 DUP2 GT ISZERO PUSH2 0x48D JUMPI PUSH2 0x48C PUSH2 0x9FE JUMP JUMPDEST JUMPDEST EQ PUSH2 0x4CD JUMPI PUSH1 0x40 MLOAD PUSH32 0x8C379A000000000000000000000000000000000000000000000000000000000 DUP2 MSTORE PUSH1 0x4 ADD PUSH2 0x4C4 SWAP1 PUSH2 0xC9D JUMP JUMPDEST PUSH1 0x40 MLOAD DUP1 SWAP2 SUB SWAP1 REVERT JUMPDEST PUSH1 0x2 PUSH0 CALLER PUSH20 0xFFFFFFFFFFFFFFFFFFFFFFFFFFFFFFFFFFFFFFFF AND PUSH20 0xFFFFFFFFFFFFFFFFFFFFFFFFFFFFFFFFFFFFFFFF AND DUP2 MSTORE PUSH1 0x20 ADD SWAP1 DUP2 MSTORE PUSH1 0x20 ADD PUSH0 KECCAK256 PUSH0 PUSH2 0x100 EXP DUP2 SLOAD SWAP1 PUSH1 0xFF MUL NOT AND SWAP1 SSTORE JUMP JUMPDEST PUSH0 DUP1 SLOAD SWAP1 PUSH2 0x100 EXP SWAP1 DIV PUSH20 0xFFFFFFFFFFFFFFFFFFFFFFFFFFFFFFFFFFFFFFFF AND DUP2 JUMP JUMPDEST PUSH0 DUP1 SLOAD SWAP1 PUSH2 0x100 EXP SWAP1 DIV PUSH20 0xFFFFFFFFFFFFFFFFFFFFFFFFFFFFFFFFFFFFFFFF AND PUSH20 0xFFFFFFFFFFFFFFFFFFFFFFFFFFFFFFFFFFFFFFFF AND CALLER PUSH20 0xFFFFFFFFFFFFFFFFFFFFFFFFFFFFFFFFFFFFFFFF AND EQ PUSH2 0x5CB JUMPI PUSH1 0x40 MLOAD PUSH32 0x8C379A000000000000000000000000000000000000000000000000000000000 DUP2 MSTORE PUSH1 0x4 ADD PUSH2 0x5C2 SWAP1 PUSH2 0xD05 JUMP JUMPDEST PUSH1 0x40 MLOAD DUP1 SWAP2 SUB SWAP1 REVERT JUMPDEST PUSH1 0x1 PUSH1 0x3 DUP2 GT ISZERO PUSH2 0x5DF JUMPI PUSH2 0x5DE PUSH2 0x9FE JUMP JUMPDEST JUMPDEST PUSH1 0x2 PUSH0 DUP4 PUSH20 0xFFFFFFFFFFFFFFFFFFFFFFFFFFFFFFFFFFFFFFFF AND PUSH20 0xFFFFFFFFFFFFFFFFFFFFFFFFFFFFFFFFFFFFFFFF AND DUP2 MSTORE PUSH1 0x20 ADD SWAP1 DUP2 MSTORE PUSH1 0x20 ADD PUSH0 KECCAK256 PUSH0 SWAP1 SLOAD SWAP1 PUSH2 0x100 EXP SWAP1 DIV PUSH1 0xFF AND PUSH1 0x3 DUP2 GT ISZERO PUSH2 0x63B JUMPI PUSH2 0x63A PUSH2 0x9FE JUMP JUMPDEST JUMPDEST EQ PUSH2 0x67B JUMPI PUSH1 0x40 MLOAD PUSH32 0x8C379A000000000000000000000000000000000000000000000000000000000 DUP2 MSTORE PUSH1 0x4 ADD PUSH2 0x672 SWAP1 PUSH2 0xC9D JUMP JUMPDEST PUSH1 0x40 MLOAD DUP1 SWAP2 SUB SWAP1 REVERT JUMPDEST PUSH1 0x1 DUP2 SWAP1 DUP1 PUSH1 0x1 DUP2 SLOAD ADD DUP1 DUP3 SSTORE DUP1 SWAP2 POP POP PUSH1 0x1 SWAP1 SUB SWAP1 PUSH0 MSTORE PUSH1 0x20 PUSH0 KECCAK256 ADD PUSH0 SWAP1 SWAP2 SWAP1 SWAP2 SWAP1 SWAP2 PUSH2 0x100 EXP DUP2 SLOAD DUP2 PUSH20 0xFFFFFFFFFFFFFFFFFFFFFFFFFFFFFFFFFFFFFFFF MUL NOT AND SWAP1 DUP4 PUSH20 0xFFFFFFFFFFFFFFFFFFFFFFFFFFFFFFFFFFFFFFFF AND MUL OR SWAP1 SSTORE POP PUSH1 0x3 PUSH1 0x2 PUSH0 DUP4 PUSH20 0xFFFFFFFFFFFFFFFFFFFFFFFFFFFFFFFFFFFFFFFF AND PUSH20 0xFFFFFFFFFFFFFFFFFFFFFFFFFFFFFFFFFFFFFFFF AND DUP2 MSTORE PUSH1 0x20 ADD SWAP1 DUP2 MSTORE PUSH1 0x20 ADD PUSH0 KECCAK256 PUSH0 PUSH2 0x100 EXP DUP2 SLOAD DUP2 PUSH1 0xFF MUL NOT AND SWAP1 DUP4 PUSH1 0x3 DUP2 GT ISZERO PUSH2 0x73B JUMPI PUSH2 0x73A PUSH2 0x9FE JUMP JUMPDEST JUMPDEST MUL OR SWAP1 SSTORE POP POP JUMP JUMPDEST PUSH2 0x74C CALLER PUSH2 0x8A0 JUMP JUMPDEST PUSH2 0x78B JUMPI PUSH1 0x40 MLOAD PUSH32 0x8C379A000000000000000000000000000000000000000000000000000000000 DUP2 MSTORE PUSH1 0x4 ADD PUSH2 0x782 SWAP1 PUSH2 0xB3F JUMP JUMPDEST PUSH1 0x40 MLOAD DUP1 SWAP2 SUB SWAP1 REVERT JUMPDEST PUSH1 0x3 DUP1 DUP2 GT ISZERO PUSH2 0x79E JUMPI PUSH2 0x79D PUSH2 0x9FE JUMP JUMPDEST JUMPDEST PUSH1 0x2 PUSH0 CALLER PUSH20 0xFFFFFFFFFFFFFFFFFFFFFFFFFFFFFFFFFFFFFFFF AND PUSH20 0xFFFFFFFFFFFFFFFFFFFFFFFFFFFFFFFFFFFFFFFF AND DUP2 MSTORE PUSH1 0x20 ADD SWAP1 DUP2 MSTORE PUSH1 0x20 ADD PUSH0 KECCAK256 PUSH0 SWAP1 SLOAD SWAP1 PUSH2 0x100 EXP SWAP1 DIV PUSH1 0xFF AND PUSH1 0x3 DUP2 GT ISZERO PUSH2 0x7FA JUMPI PUSH2 0x7F9 PUSH2 0x9FE JUMP JUMPDEST JUMPDEST EQ PUSH2 0x83A JUMPI PUSH1 0x40 MLOAD PUSH32 0x8C379A000000000000000000000000000000000000000000000000000000000 DUP2 MSTORE PUSH1 0x4 ADD PUSH2 0x831 SWAP1 PUSH2 0xD6D JUMP JUMPDEST PUSH1 0x40 MLOAD DUP1 SWAP2 SUB SWAP1 REVERT JUMPDEST PUSH1 0x2 DUP1 PUSH0 CALLER PUSH20 0xFFFFFFFFFFFFFFFFFFFFFFFFFFFFFFFFFFFFFFFF AND PUSH20 0xFFFFFFFFFFFFFFFFFFFFFFFFFFFFFFFFFFFFFFFF AND DUP2 MSTORE PUSH1 0x20 ADD SWAP1 DUP2 MSTORE PUSH1 0x20 ADD PUSH0 KECCAK256 PUSH0 PUSH2 0x100 EXP DUP2 SLOAD DUP2 PUSH1 0xFF MUL NOT AND SWAP1 DUP4 PUSH1 0x3 DUP2 GT ISZERO PUSH2 0x899 JUMPI PUSH2 0x898 PUSH2 0x9FE JUMP JUMPDEST JUMPDEST MUL OR SWAP1 SSTORE POP JUMP JUMPDEST PUSH0 DUP1 PUSH1 0x3 DUP2 GT ISZERO PUSH2 0x8B4 JUMPI PUSH2 0x8B3 PUSH2 0x9FE JUMP JUMPDEST JUMPDEST PUSH1 0x2 PUSH0 DUP5 PUSH20 0xFFFFFFFFFFFFFFFFFFFFFFFFFFFFFFFFFFFFFFFF AND PUSH20 0xFFFFFFFFFFFFFFFFFFFFFFFFFFFFFFFFFFFFFFFF AND DUP2 MSTORE PUSH1 0x20 ADD SWAP1 DUP2 MSTORE PUSH1 0x20 ADD PUSH0 KECCAK256 PUSH0 SWAP1 SLOAD SWAP1 PUSH2 0x100 EXP SWAP1 DIV PUSH1 0xFF AND PUSH1 0x3 DUP2 GT ISZERO PUSH2 0x910 JUMPI PUSH2 0x90F PUSH2 0x9FE JUMP JUMPDEST JUMPDEST SUB PUSH2 0x91D JUMPI PUSH0 SWAP1 POP PUSH2 0x922 JUMP JUMPDEST PUSH1 0x1 SWAP1 POP JUMPDEST SWAP2 SWAP1 POP JUMP JUMPDEST PUSH1 0x2 PUSH1 0x20 MSTORE DUP1 PUSH0 MSTORE PUSH1 0x40 PUSH0 KECCAK256 PUSH0 SWAP2 POP SLOAD SWAP1 PUSH2 0x100 EXP SWAP1 DIV PUSH1 0xFF AND DUP2 JUMP JUMPDEST PUSH0 DUP2 SWAP1 POP SWAP2 SWAP1 POP JUMP JUMPDEST PUSH2 0x956 DUP2 PUSH2 0x944 JUMP JUMPDEST DUP3 MSTORE POP POP JUMP JUMPDEST PUSH0 PUSH1 0x20 DUP3 ADD SWAP1 POP PUSH2 0x96F PUSH0 DUP4 ADD DUP5 PUSH2 0x94D JUMP JUMPDEST SWAP3 SWAP2 POP POP JUMP JUMPDEST PUSH0 DUP1 REVERT JUMPDEST PUSH0 PUSH20 0xFFFFFFFFFFFFFFFFFFFFFFFFFFFFFFFFFFFFFFFF DUP3 AND SWAP1 POP SWAP2 SWAP1 POP JUMP JUMPDEST PUSH0 PUSH2 0x9A2 DUP3 PUSH2 0x979 JUMP JUMPDEST SWAP1 POP SWAP2 SWAP1 POP JUMP JUMPDEST PUSH2 0x9B2 DUP2 PUSH2 0x998 JUMP JUMPDEST DUP2 EQ PUSH2 0x9BC JUMPI PUSH0 DUP1 REVERT JUMPDEST POP JUMP JUMPDEST PUSH0 DUP2 CALLDATALOAD SWAP1 POP PUSH2 0x9CD DUP2 PUSH2 0x9A9 JUMP JUMPDEST SWAP3 SWAP2 POP POP JUMP JUMPDEST PUSH0 PUSH1 0x20 DUP3 DUP5 SUB SLT ISZERO PUSH2 0x9E8 JUMPI PUSH2 0x9E7 PUSH2 0x975 JUMP JUMPDEST JUMPDEST PUSH0 PUSH2 0x9F5 DUP5 DUP3 DUP6 ADD PUSH2 0x9BF JUMP JUMPDEST SWAP2 POP POP SWAP3 SWAP2 POP POP JUMP JUMPDEST PUSH32 0x4E487B7100000000000000000000000000000000000000000000000000000000 PUSH0 MSTORE PUSH1 0x21 PUSH1 0x4 MSTORE PUSH1 0x24 PUSH0 REVERT JUMPDEST PUSH1 0x4 DUP2 LT PUSH2 0xA3C JUMPI PUSH2 0xA3B PUSH2 0x9FE JUMP JUMPDEST JUMPDEST POP JUMP JUMPDEST PUSH0 DUP2 SWAP1 POP PUSH2 0xA4C DUP3 PUSH2 0xA2B JUMP JUMPDEST SWAP2 SWAP1 POP JUMP JUMPDEST PUSH0 PUSH2 0xA5B DUP3 PUSH2 0xA3F JUMP JUMPDEST SWAP1 POP SWAP2 SWAP1 POP JUMP JUMPDEST PUSH2 0xA6B DUP2 PUSH2 0xA51 JUMP JUMPDEST DUP3 MSTORE POP POP JUMP JUMPDEST PUSH0 PUSH1 0x20 DUP3 ADD SWAP1 POP PUSH2 0xA84 PUSH0 DUP4 ADD DUP5 PUSH2 0xA62 JUMP JUMPDEST SWAP3 SWAP2 POP POP JUMP JUMPDEST PUSH2 0xA93 DUP2 PUSH2 0x998 JUMP JUMPDEST DUP3 MSTORE POP POP JUMP JUMPDEST PUSH0 PUSH1 0x20 DUP3 ADD SWAP1 POP PUSH2 0xAAC PUSH0 DUP4 ADD DUP5 PUSH2 0xA8A JUMP JUMPDEST SWAP3 SWAP2 POP POP JUMP JUMPDEST PUSH0 DUP2 ISZERO ISZERO SWAP1 POP SWAP2 SWAP1 POP JUMP JUMPDEST PUSH2 0xAC6 DUP2 PUSH2 0xAB2 JUMP JUMPDEST DUP3 MSTORE POP POP JUMP JUMPDEST PUSH0 PUSH1 0x20 DUP3 ADD SWAP1 POP PUSH2 0xADF PUSH0 DUP4 ADD DUP5 PUSH2 0xABD JUMP JUMPDEST SWAP3 SWAP2 POP POP JUMP JUMPDEST PUSH0 DUP3 DUP3 MSTORE PUSH1 0x20 DUP3 ADD SWAP1 POP SWAP3 SWAP2 POP POP JUMP JUMPDEST PUSH32 0x4F6E6C79207374616B65686F6C64657220686173206163636573730000000000 PUSH0 DUP3 ADD MSTORE POP JUMP JUMPDEST PUSH0 PUSH2 0xB29 PUSH1 0x1B DUP4 PUSH2 0xAE5 JUMP JUMPDEST SWAP2 POP PUSH2 0xB34 DUP3 PUSH2 0xAF5 JUMP JUMPDEST PUSH1 0x20 DUP3 ADD SWAP1 POP SWAP2 SWAP1 POP JUMP JUMPDEST PUSH0 PUSH1 0x20 DUP3 ADD SWAP1 POP DUP2 DUP2 SUB PUSH0 DUP4 ADD MSTORE PUSH2 0xB56 DUP2 PUSH2 0xB1D JUMP JUMPDEST SWAP1 POP SWAP2 SWAP1 POP JUMP JUMPDEST PUSH32 0x54686973206164647265737320697320616C7265616479206163746976650000 PUSH0 DUP3 ADD MSTORE POP JUMP JUMPDEST PUSH0 PUSH2 0xB91 PUSH1 0x1E DUP4 PUSH2 0xAE5 JUMP JUMPDEST SWAP2 POP PUSH2 0xB9C DUP3 PUSH2 0xB5D JUMP JUMPDEST PUSH1 0x20 DUP3 ADD SWAP1 POP SWAP2 SWAP1 POP JUMP JUMPDEST PUSH0 PUSH1 0x20 DUP3 ADD SWAP1 POP DUP2 DUP2 SUB PUSH0 DUP4 ADD MSTORE PUSH2 0xBBE DUP2 PUSH2 0xB85 JUMP JUMPDEST SWAP1 POP SWAP2 SWAP1 POP JUMP JUMPDEST PUSH32 0x5374616B65686F6C64657220646F6E7420686176652061636365737300000000 PUSH0 DUP3 ADD MSTORE POP JUMP JUMPDEST PUSH0 PUSH2 0xBF9 PUSH1 0x1C DUP4 PUSH2 0xAE5 JUMP JUMPDEST SWAP2 POP PUSH2 0xC04 DUP3 PUSH2 0xBC5 JUMP JUMPDEST PUSH1 0x20 DUP3 ADD SWAP1 POP SWAP2 SWAP1 POP JUMP JUMPDEST PUSH0 PUSH1 0x20 DUP3 ADD SWAP1 POP DUP2 DUP2 SUB PUSH0 DUP4 ADD MSTORE PUSH2 0xC26 DUP2 PUSH2 0xBED JUMP JUMPDEST SWAP1 POP SWAP2 SWAP1 POP JUMP JUMPDEST PUSH32 0x5468697320616464726573732077617320616C72656164792061636365707465 PUSH0 DUP3 ADD MSTORE PUSH32 0x64206173207374616B65686F6C64657200000000000000000000000000000000 PUSH1 0x20 DUP3 ADD MSTORE POP JUMP JUMPDEST PUSH0 PUSH2 0xC87 PUSH1 0x30 DUP4 PUSH2 0xAE5 JUMP JUMPDEST SWAP2 POP PUSH2 0xC92 DUP3 PUSH2 0xC2D JUMP JUMPDEST PUSH1 0x40 DUP3 ADD SWAP1 POP SWAP2 SWAP1 POP JUMP JUMPDEST PUSH0 PUSH1 0x20 DUP3 ADD SWAP1 POP DUP2 DUP2 SUB PUSH0 DUP4 ADD MSTORE PUSH2 0xCB4 DUP2 PUSH2 0xC7B JUMP JUMPDEST SWAP1 POP SWAP2 SWAP1 POP JUMP JUMPDEST PUSH32 0x4F6E6C79206F776E657220686173206163636565730000000000000000000000 PUSH0 DUP3 ADD MSTORE POP JUMP JUMPDEST PUSH0 PUSH2 0xCEF PUSH1 0x15 DUP4 PUSH2 0xAE5 JUMP JUMPDEST SWAP2 POP PUSH2 0xCFA DUP3 PUSH2 0xCBB JUMP JUMPDEST PUSH1 0x20 DUP3 ADD SWAP1 POP SWAP2 SWAP1 POP JUMP JUMPDEST PUSH0 PUSH1 0x20 DUP3 ADD SWAP1 POP DUP2 DUP2 SUB PUSH0 DUP4 ADD MSTORE PUSH2 0xD1C DUP2 PUSH2 0xCE3 JUMP JUMPDEST SWAP1 POP SWAP2 SWAP1 POP JUMP JUMPDEST PUSH32 0x54686973206164647265737320697320616C7265616479206465616374697665 PUSH0 DUP3 ADD MSTORE POP JUMP JUMPDEST PUSH0 PUSH2 0xD57 PUSH1 0x20 DUP4 PUSH2 0xAE5 JUMP JUMPDEST SWAP2 POP PUSH2 0xD62 DUP3 PUSH2 0xD23 JUMP JUMPDEST PUSH1 0x20 DUP3 ADD SWAP1 POP SWAP2 SWAP1 POP JUMP JUMPDEST PUSH0 PUSH1 0x20 DUP3 ADD SWAP1 POP DUP2 DUP2 SUB PUSH0 DUP4 ADD MSTORE PUSH2 0xD84 DUP2 PUSH2 0xD4B JUMP JUMPDEST SWAP1 POP SWAP2 SWAP1 POP JUMP INVALID LOG2 PUSH5 0x6970667358 0x22 SLT KECCAK256 COINBASE 0xE5 PUSH5 0xFE2DEF0428 PUSH18 0xEA75EEC176C08771C3E89C3BE2BE4383620A PREVRANDAO 0xEB 0xF PUSH21 0xB764736F6C63430008140033000000000000000000 "
				},
				"gasEstimates": {
					"creation": {
						"codeDepositCost": "704200",
						"executionCost": "25004",
						"totalCost": "729204"
					},
					"external": {
						"accept(address)": "77885",
						"active()": "2794",
						"deactive()": "2837",
						"getStatus(address)": "3025",
						"getTotalStakeHolders()": "2463",
						"isStakeholder(address)": "3021",
						"owner()": "2505",
						"removeRequest()": "26857",
						"requestForStakeholder()": "26930",
						"stakeholdersStatus(address)": "3009"
					}
				},
				"methodIdentifiers": {
					"accept(address)": "9f005920",
					"active()": "02fb0c5e",
					"deactive()": "a008f709",
					"getStatus(address)": "30ccebb5",
					"getTotalStakeHolders()": "187fcb16",
					"isStakeholder(address)": "ef037b90",
					"owner()": "8da5cb5b",
					"removeRequest()": "7e3350fc",
					"requestForStakeholder()": "1982e21c",
					"stakeholdersStatus(address)": "f81c96b1"
				}
			},
			"storageLayout": {
				"storage": [
					{
						"astId": 8,
						"contract": "contracts/StakingSystem/StakeHolder.sol:StakeHolder",
						"label": "owner",
						"offset": 0,
						"slot": "0",
						"type": "t_address"
					},
					{
						"astId": 11,
						"contract": "contracts/StakingSystem/StakeHolder.sol:StakeHolder",
						"label": "stakeholdersEthAddress",
						"offset": 0,
						"slot": "1",
						"type": "t_array(t_address)dyn_storage"
					},
					{
						"astId": 16,
						"contract": "contracts/StakingSystem/StakeHolder.sol:StakeHolder",
						"label": "stakeholdersStatus",
						"offset": 0,
						"slot": "2",
						"type": "t_mapping(t_address,t_enum(Status)6)"
					}
				],
				"types": {
					"t_address": {
						"encoding": "inplace",
						"label": "address",
						"numberOfBytes": "20"
					},
					"t_array(t_address)dyn_storage": {
						"base": "t_address",
						"encoding": "dynamic_array",
						"label": "address[]",
						"numberOfBytes": "32"
					},
					"t_enum(Status)6": {
						"encoding": "inplace",
						"label": "enum StakeHolder.Status",
						"numberOfBytes": "1"
					},
					"t_mapping(t_address,t_enum(Status)6)": {
						"encoding": "mapping",
						"key": "t_address",
						"label": "mapping(address => enum StakeHolder.Status)",
						"numberOfBytes": "32",
						"value": "t_enum(Status)6"
					}
				}
			},
			"userdoc": {
				"kind": "user",
				"methods": {},
				"version": 1
			}
		}
	}
}