{
	"contracts/StakingSystem/StackHolder.sol": {
		"StackHolder": {
			"abi": [
				{
					"inputs": [
						{
							"internalType": "address",
							"name": "ethAddress",
							"type": "address"
						}
					],
					"name": "acceptAsStakeholder",
					"outputs": [],
					"stateMutability": "nonpayable",
					"type": "function"
				},
				{
					"inputs": [],
					"name": "isStakeholder",
					"outputs": [
						{
							"internalType": "bool",
							"name": "",
							"type": "bool"
						}
					],
					"stateMutability": "view",
					"type": "function"
				},
				{
					"inputs": [],
					"name": "owner",
					"outputs": [
						{
							"internalType": "address",
							"name": "",
							"type": "address"
						}
					],
					"stateMutability": "view",
					"type": "function"
				},
				{
					"inputs": [
						{
							"internalType": "address",
							"name": "",
							"type": "address"
						}
					],
					"name": "pendingStakeholders",
					"outputs": [
						{
							"internalType": "address",
							"name": "",
							"type": "address"
						}
					],
					"stateMutability": "view",
					"type": "function"
				},
				{
					"inputs": [],
					"name": "removeRequestForStakeholder",
					"outputs": [],
					"stateMutability": "nonpayable",
					"type": "function"
				},
				{
					"inputs": [],
					"name": "requestForStakeholder",
					"outputs": [],
					"stateMutability": "nonpayable",
					"type": "function"
				}
			],
			"devdoc": {
				"kind": "dev",
				"methods": {},
				"version": 1
			},
			"evm": {
				"assembly": "    /* \"contracts/StakingSystem/StackHolder.sol\":58:1239  contract StackHolder {... */\n  mstore(0x40, 0x80)\n  callvalue\n  dup1\n  iszero\n  tag_1\n  jumpi\n  0x00\n  dup1\n  revert\ntag_1:\n  pop\n  dataSize(sub_0)\n  dup1\n  dataOffset(sub_0)\n  0x00\n  codecopy\n  0x00\n  return\nstop\n\nsub_0: assembly {\n        /* \"contracts/StakingSystem/StackHolder.sol\":58:1239  contract StackHolder {... */\n      mstore(0x40, 0x80)\n      callvalue\n      dup1\n      iszero\n      tag_1\n      jumpi\n      0x00\n      dup1\n      revert\n    tag_1:\n      pop\n      jumpi(tag_2, lt(calldatasize, 0x04))\n      shr(0xe0, calldataload(0x00))\n      dup1\n      0x1982e21c\n      eq\n      tag_3\n      jumpi\n      dup1\n      0x2af4c04a\n      eq\n      tag_4\n      jumpi\n      dup1\n      0x348151e2\n      eq\n      tag_5\n      jumpi\n      dup1\n      0x8da5cb5b\n      eq\n      tag_6\n      jumpi\n      dup1\n      0xc02146ac\n      eq\n      tag_7\n      jumpi\n      dup1\n      0xd3e1e4ce\n      eq\n      tag_8\n      jumpi\n    tag_2:\n      0x00\n      dup1\n      revert\n        /* \"contracts/StakingSystem/StackHolder.sol\":326:496  function requestForStakeholder() external {... */\n    tag_3:\n      tag_9\n      tag_10\n      jump\t// in\n    tag_9:\n      stop\n        /* \"contracts/StakingSystem/StackHolder.sol\":748:968  function removeRequestForStakeholder() external {... */\n    tag_4:\n      tag_11\n      tag_12\n      jump\t// in\n    tag_11:\n      stop\n        /* \"contracts/StakingSystem/StackHolder.sol\":502:742  function acceptAsStakeholder(address ethAddress) external onlyOwner {... */\n    tag_5:\n      tag_13\n      0x04\n      dup1\n      calldatasize\n      sub\n      dup2\n      add\n      swap1\n      tag_14\n      swap2\n      swap1\n      tag_15\n      jump\t// in\n    tag_14:\n      tag_16\n      jump\t// in\n    tag_13:\n      stop\n        /* \"contracts/StakingSystem/StackHolder.sol\":85:105  address public owner */\n    tag_6:\n      tag_17\n      tag_18\n      jump\t// in\n    tag_17:\n      mload(0x40)\n      tag_19\n      swap2\n      swap1\n      tag_20\n      jump\t// in\n    tag_19:\n      mload(0x40)\n      dup1\n      swap2\n      sub\n      swap1\n      return\n        /* \"contracts/StakingSystem/StackHolder.sol\":974:1237  function isStakeholder() public view returns (bool) {... */\n    tag_7:\n      tag_21\n      tag_22\n      jump\t// in\n    tag_21:\n      mload(0x40)\n      tag_23\n      swap2\n      swap1\n      tag_24\n      jump\t// in\n    tag_23:\n      mload(0x40)\n      dup1\n      swap2\n      sub\n      swap1\n      return\n        /* \"contracts/StakingSystem/StackHolder.sol\":157:211  mapping(address => address) public pendingStakeholders */\n    tag_8:\n      tag_25\n      0x04\n      dup1\n      calldatasize\n      sub\n      dup2\n      add\n      swap1\n      tag_26\n      swap2\n      swap1\n      tag_15\n      jump\t// in\n    tag_26:\n      tag_27\n      jump\t// in\n    tag_25:\n      mload(0x40)\n      tag_28\n      swap2\n      swap1\n      tag_20\n      jump\t// in\n    tag_28:\n      mload(0x40)\n      dup1\n      swap2\n      sub\n      swap1\n      return\n        /* \"contracts/StakingSystem/StackHolder.sol\":326:496  function requestForStakeholder() external {... */\n    tag_10:\n        /* \"contracts/StakingSystem/StackHolder.sol\":387:402  isStakeholder() */\n      tag_30\n        /* \"contracts/StakingSystem/StackHolder.sol\":387:400  isStakeholder */\n      tag_22\n        /* \"contracts/StakingSystem/StackHolder.sol\":387:402  isStakeholder() */\n      jump\t// in\n    tag_30:\n        /* \"contracts/StakingSystem/StackHolder.sol\":386:402  !isStakeholder() */\n      iszero\n        /* \"contracts/StakingSystem/StackHolder.sol\":378:435  require(!isStakeholder(), \"Stakeholder dont have access\") */\n      tag_31\n      jumpi\n      mload(0x40)\n      0x08c379a000000000000000000000000000000000000000000000000000000000\n      dup2\n      mstore\n      0x04\n      add\n      tag_32\n      swap1\n      tag_33\n      jump\t// in\n    tag_32:\n      mload(0x40)\n      dup1\n      swap2\n      sub\n      swap1\n      revert\n    tag_31:\n        /* \"contracts/StakingSystem/StackHolder.sol\":479:489  msg.sender */\n      caller\n        /* \"contracts/StakingSystem/StackHolder.sol\":445:464  pendingStakeholders */\n      0x02\n        /* \"contracts/StakingSystem/StackHolder.sol\":445:476  pendingStakeholders[msg.sender] */\n      0x00\n        /* \"contracts/StakingSystem/StackHolder.sol\":465:475  msg.sender */\n      caller\n        /* \"contracts/StakingSystem/StackHolder.sol\":445:476  pendingStakeholders[msg.sender] */\n      0xffffffffffffffffffffffffffffffffffffffff\n      and\n      0xffffffffffffffffffffffffffffffffffffffff\n      and\n      dup2\n      mstore\n      0x20\n      add\n      swap1\n      dup2\n      mstore\n      0x20\n      add\n      0x00\n      keccak256\n      0x00\n        /* \"contracts/StakingSystem/StackHolder.sol\":445:489  pendingStakeholders[msg.sender] = msg.sender */\n      0x0100\n      exp\n      dup2\n      sload\n      dup2\n      0xffffffffffffffffffffffffffffffffffffffff\n      mul\n      not\n      and\n      swap1\n      dup4\n      0xffffffffffffffffffffffffffffffffffffffff\n      and\n      mul\n      or\n      swap1\n      sstore\n      pop\n        /* \"contracts/StakingSystem/StackHolder.sol\":326:496  function requestForStakeholder() external {... */\n      jump\t// out\n        /* \"contracts/StakingSystem/StackHolder.sol\":748:968  function removeRequestForStakeholder() external {... */\n    tag_12:\n        /* \"contracts/StakingSystem/StackHolder.sol\":870:871  0 */\n      0x00\n        /* \"contracts/StakingSystem/StackHolder.sol\":827:872  pendingStakeholders[msg.sender] == address(0) */\n      0xffffffffffffffffffffffffffffffffffffffff\n      and\n        /* \"contracts/StakingSystem/StackHolder.sol\":827:846  pendingStakeholders */\n      0x02\n        /* \"contracts/StakingSystem/StackHolder.sol\":827:858  pendingStakeholders[msg.sender] */\n      0x00\n        /* \"contracts/StakingSystem/StackHolder.sol\":847:857  msg.sender */\n      caller\n        /* \"contracts/StakingSystem/StackHolder.sol\":827:858  pendingStakeholders[msg.sender] */\n      0xffffffffffffffffffffffffffffffffffffffff\n      and\n      0xffffffffffffffffffffffffffffffffffffffff\n      and\n      dup2\n      mstore\n      0x20\n      add\n      swap1\n      dup2\n      mstore\n      0x20\n      add\n      0x00\n      keccak256\n      0x00\n      swap1\n      sload\n      swap1\n      0x0100\n      exp\n      swap1\n      div\n      0xffffffffffffffffffffffffffffffffffffffff\n      and\n        /* \"contracts/StakingSystem/StackHolder.sol\":827:872  pendingStakeholders[msg.sender] == address(0) */\n      0xffffffffffffffffffffffffffffffffffffffff\n      and\n      eq\n        /* \"contracts/StakingSystem/StackHolder.sol\":806:913  require(... */\n      tag_35\n      jumpi\n      mload(0x40)\n      0x08c379a000000000000000000000000000000000000000000000000000000000\n      dup2\n      mstore\n      0x04\n      add\n      tag_36\n      swap1\n      tag_37\n      jump\t// in\n    tag_36:\n      mload(0x40)\n      dup1\n      swap2\n      sub\n      swap1\n      revert\n    tag_35:\n        /* \"contracts/StakingSystem/StackHolder.sol\":930:949  pendingStakeholders */\n      0x02\n        /* \"contracts/StakingSystem/StackHolder.sol\":930:961  pendingStakeholders[msg.sender] */\n      0x00\n        /* \"contracts/StakingSystem/StackHolder.sol\":950:960  msg.sender */\n      caller\n        /* \"contracts/StakingSystem/StackHolder.sol\":930:961  pendingStakeholders[msg.sender] */\n      0xffffffffffffffffffffffffffffffffffffffff\n      and\n      0xffffffffffffffffffffffffffffffffffffffff\n      and\n      dup2\n      mstore\n      0x20\n      add\n      swap1\n      dup2\n      mstore\n      0x20\n      add\n      0x00\n      keccak256\n      0x00\n        /* \"contracts/StakingSystem/StackHolder.sol\":923:961  delete pendingStakeholders[msg.sender] */\n      0x0100\n      exp\n      dup2\n      sload\n      swap1\n      0xffffffffffffffffffffffffffffffffffffffff\n      mul\n      not\n      and\n      swap1\n      sstore\n        /* \"contracts/StakingSystem/StackHolder.sol\":748:968  function removeRequestForStakeholder() external {... */\n      jump\t// out\n        /* \"contracts/StakingSystem/StackHolder.sol\":502:742  function acceptAsStakeholder(address ethAddress) external onlyOwner {... */\n    tag_16:\n        /* \"contracts/StakingSystem/StackHolder.sol\":271:276  owner */\n      0x00\n      dup1\n      sload\n      swap1\n      0x0100\n      exp\n      swap1\n      div\n      0xffffffffffffffffffffffffffffffffffffffff\n      and\n        /* \"contracts/StakingSystem/StackHolder.sol\":257:276  msg.sender == owner */\n      0xffffffffffffffffffffffffffffffffffffffff\n      and\n        /* \"contracts/StakingSystem/StackHolder.sol\":257:267  msg.sender */\n      caller\n        /* \"contracts/StakingSystem/StackHolder.sol\":257:276  msg.sender == owner */\n      0xffffffffffffffffffffffffffffffffffffffff\n      and\n      eq\n        /* \"contracts/StakingSystem/StackHolder.sol\":249:302  require(msg.sender == owner, \"Only owner has accees\") */\n      tag_39\n      jumpi\n      mload(0x40)\n      0x08c379a000000000000000000000000000000000000000000000000000000000\n      dup2\n      mstore\n      0x04\n      add\n      tag_40\n      swap1\n      tag_41\n      jump\t// in\n    tag_40:\n      mload(0x40)\n      dup1\n      swap2\n      sub\n      swap1\n      revert\n    tag_39:\n        /* \"contracts/StakingSystem/StackHolder.sol\":636:646  ethAddress */\n      dup1\n        /* \"contracts/StakingSystem/StackHolder.sol\":601:646  pendingStakeholders[ethAddress] == ethAddress */\n      0xffffffffffffffffffffffffffffffffffffffff\n      and\n        /* \"contracts/StakingSystem/StackHolder.sol\":601:620  pendingStakeholders */\n      0x02\n        /* \"contracts/StakingSystem/StackHolder.sol\":601:632  pendingStakeholders[ethAddress] */\n      0x00\n        /* \"contracts/StakingSystem/StackHolder.sol\":621:631  ethAddress */\n      dup4\n        /* \"contracts/StakingSystem/StackHolder.sol\":601:632  pendingStakeholders[ethAddress] */\n      0xffffffffffffffffffffffffffffffffffffffff\n      and\n      0xffffffffffffffffffffffffffffffffffffffff\n      and\n      dup2\n      mstore\n      0x20\n      add\n      swap1\n      dup2\n      mstore\n      0x20\n      add\n      0x00\n      keccak256\n      0x00\n      swap1\n      sload\n      swap1\n      0x0100\n      exp\n      swap1\n      div\n      0xffffffffffffffffffffffffffffffffffffffff\n      and\n        /* \"contracts/StakingSystem/StackHolder.sol\":601:646  pendingStakeholders[ethAddress] == ethAddress */\n      0xffffffffffffffffffffffffffffffffffffffff\n      and\n      eq\n        /* \"contracts/StakingSystem/StackHolder.sol\":580:687  require(... */\n      tag_43\n      jumpi\n      mload(0x40)\n      0x08c379a000000000000000000000000000000000000000000000000000000000\n      dup2\n      mstore\n      0x04\n      add\n      tag_44\n      swap1\n      tag_37\n      jump\t// in\n    tag_44:\n      mload(0x40)\n      dup1\n      swap2\n      sub\n      swap1\n      revert\n    tag_43:\n        /* \"contracts/StakingSystem/StackHolder.sol\":704:723  pendingStakeholders */\n      0x02\n        /* \"contracts/StakingSystem/StackHolder.sol\":704:735  pendingStakeholders[ethAddress] */\n      0x00\n        /* \"contracts/StakingSystem/StackHolder.sol\":724:734  ethAddress */\n      dup3\n        /* \"contracts/StakingSystem/StackHolder.sol\":704:735  pendingStakeholders[ethAddress] */\n      0xffffffffffffffffffffffffffffffffffffffff\n      and\n      0xffffffffffffffffffffffffffffffffffffffff\n      and\n      dup2\n      mstore\n      0x20\n      add\n      swap1\n      dup2\n      mstore\n      0x20\n      add\n      0x00\n      keccak256\n      0x00\n        /* \"contracts/StakingSystem/StackHolder.sol\":697:735  delete pendingStakeholders[ethAddress] */\n      0x0100\n      exp\n      dup2\n      sload\n      swap1\n      0xffffffffffffffffffffffffffffffffffffffff\n      mul\n      not\n      and\n      swap1\n      sstore\n        /* \"contracts/StakingSystem/StackHolder.sol\":502:742  function acceptAsStakeholder(address ethAddress) external onlyOwner {... */\n      pop\n      jump\t// out\n        /* \"contracts/StakingSystem/StackHolder.sol\":85:105  address public owner */\n    tag_18:\n      0x00\n      dup1\n      sload\n      swap1\n      0x0100\n      exp\n      swap1\n      div\n      0xffffffffffffffffffffffffffffffffffffffff\n      and\n      dup2\n      jump\t// out\n        /* \"contracts/StakingSystem/StackHolder.sol\":974:1237  function isStakeholder() public view returns (bool) {... */\n    tag_22:\n        /* \"contracts/StakingSystem/StackHolder.sol\":1020:1024  bool */\n      0x00\n        /* \"contracts/StakingSystem/StackHolder.sol\":1041:1050  uint256 i */\n      dup1\n        /* \"contracts/StakingSystem/StackHolder.sol\":1053:1054  0 */\n      0x00\n        /* \"contracts/StakingSystem/StackHolder.sol\":1041:1054  uint256 i = 0 */\n      swap1\n      pop\n        /* \"contracts/StakingSystem/StackHolder.sol\":1036:1209  for (uint256 i = 0; i < stakeholdersEthAddress.length; i++) {... */\n    tag_46:\n        /* \"contracts/StakingSystem/StackHolder.sol\":1060:1082  stakeholdersEthAddress */\n      0x01\n        /* \"contracts/StakingSystem/StackHolder.sol\":1060:1089  stakeholdersEthAddress.length */\n      dup1\n      sload\n      swap1\n      pop\n        /* \"contracts/StakingSystem/StackHolder.sol\":1056:1057  i */\n      dup2\n        /* \"contracts/StakingSystem/StackHolder.sol\":1056:1089  i < stakeholdersEthAddress.length */\n      lt\n        /* \"contracts/StakingSystem/StackHolder.sol\":1036:1209  for (uint256 i = 0; i < stakeholdersEthAddress.length; i++) {... */\n      iszero\n      tag_47\n      jumpi\n        /* \"contracts/StakingSystem/StackHolder.sol\":1143:1153  msg.sender */\n      caller\n        /* \"contracts/StakingSystem/StackHolder.sol\":1114:1153  stakeholdersEthAddress[i] == msg.sender */\n      0xffffffffffffffffffffffffffffffffffffffff\n      and\n        /* \"contracts/StakingSystem/StackHolder.sol\":1114:1136  stakeholdersEthAddress */\n      0x01\n        /* \"contracts/StakingSystem/StackHolder.sol\":1137:1138  i */\n      dup3\n        /* \"contracts/StakingSystem/StackHolder.sol\":1114:1139  stakeholdersEthAddress[i] */\n      dup2\n      sload\n      dup2\n      lt\n      tag_49\n      jumpi\n      tag_50\n      tag_51\n      jump\t// in\n    tag_50:\n    tag_49:\n      swap1\n      0x00\n      mstore\n      keccak256(0x00, 0x20)\n      add\n      0x00\n      swap1\n      sload\n      swap1\n      0x0100\n      exp\n      swap1\n      div\n      0xffffffffffffffffffffffffffffffffffffffff\n      and\n        /* \"contracts/StakingSystem/StackHolder.sol\":1114:1153  stakeholdersEthAddress[i] == msg.sender */\n      0xffffffffffffffffffffffffffffffffffffffff\n      and\n      sub\n        /* \"contracts/StakingSystem/StackHolder.sol\":1110:1199  if (stakeholdersEthAddress[i] == msg.sender) {... */\n      tag_53\n      jumpi\n        /* \"contracts/StakingSystem/StackHolder.sol\":1180:1184  true */\n      0x01\n        /* \"contracts/StakingSystem/StackHolder.sol\":1173:1184  return true */\n      swap2\n      pop\n      pop\n      jump(tag_45)\n        /* \"contracts/StakingSystem/StackHolder.sol\":1110:1199  if (stakeholdersEthAddress[i] == msg.sender) {... */\n    tag_53:\n        /* \"contracts/StakingSystem/StackHolder.sol\":1091:1094  i++ */\n      dup1\n      dup1\n      tag_54\n      swap1\n      tag_55\n      jump\t// in\n    tag_54:\n      swap2\n      pop\n      pop\n        /* \"contracts/StakingSystem/StackHolder.sol\":1036:1209  for (uint256 i = 0; i < stakeholdersEthAddress.length; i++) {... */\n      jump(tag_46)\n    tag_47:\n      pop\n        /* \"contracts/StakingSystem/StackHolder.sol\":1225:1230  false */\n      0x00\n        /* \"contracts/StakingSystem/StackHolder.sol\":1218:1230  return false */\n      swap1\n      pop\n        /* \"contracts/StakingSystem/StackHolder.sol\":974:1237  function isStakeholder() public view returns (bool) {... */\n    tag_45:\n      swap1\n      jump\t// out\n        /* \"contracts/StakingSystem/StackHolder.sol\":157:211  mapping(address => address) public pendingStakeholders */\n    tag_27:\n      mstore(0x20, 0x02)\n      dup1\n      0x00\n      mstore\n      keccak256(0x00, 0x40)\n      0x00\n      swap2\n      pop\n      sload\n      swap1\n      0x0100\n      exp\n      swap1\n      div\n      0xffffffffffffffffffffffffffffffffffffffff\n      and\n      dup2\n      jump\t// out\n        /* \"#utility.yul\":88:205   */\n    tag_57:\n        /* \"#utility.yul\":197:198   */\n      0x00\n        /* \"#utility.yul\":194:195   */\n      dup1\n        /* \"#utility.yul\":187:199   */\n      revert\n        /* \"#utility.yul\":334:460   */\n    tag_59:\n        /* \"#utility.yul\":371:378   */\n      0x00\n        /* \"#utility.yul\":411:453   */\n      0xffffffffffffffffffffffffffffffffffffffff\n        /* \"#utility.yul\":404:409   */\n      dup3\n        /* \"#utility.yul\":400:454   */\n      and\n        /* \"#utility.yul\":389:454   */\n      swap1\n      pop\n        /* \"#utility.yul\":334:460   */\n      swap2\n      swap1\n      pop\n      jump\t// out\n        /* \"#utility.yul\":466:562   */\n    tag_60:\n        /* \"#utility.yul\":503:510   */\n      0x00\n        /* \"#utility.yul\":532:556   */\n      tag_81\n        /* \"#utility.yul\":550:555   */\n      dup3\n        /* \"#utility.yul\":532:556   */\n      tag_59\n      jump\t// in\n    tag_81:\n        /* \"#utility.yul\":521:556   */\n      swap1\n      pop\n        /* \"#utility.yul\":466:562   */\n      swap2\n      swap1\n      pop\n      jump\t// out\n        /* \"#utility.yul\":568:690   */\n    tag_61:\n        /* \"#utility.yul\":641:665   */\n      tag_83\n        /* \"#utility.yul\":659:664   */\n      dup2\n        /* \"#utility.yul\":641:665   */\n      tag_60\n      jump\t// in\n    tag_83:\n        /* \"#utility.yul\":634:639   */\n      dup2\n        /* \"#utility.yul\":631:666   */\n      eq\n        /* \"#utility.yul\":621:684   */\n      tag_84\n      jumpi\n        /* \"#utility.yul\":680:681   */\n      0x00\n        /* \"#utility.yul\":677:678   */\n      dup1\n        /* \"#utility.yul\":670:682   */\n      revert\n        /* \"#utility.yul\":621:684   */\n    tag_84:\n        /* \"#utility.yul\":568:690   */\n      pop\n      jump\t// out\n        /* \"#utility.yul\":696:835   */\n    tag_62:\n        /* \"#utility.yul\":742:747   */\n      0x00\n        /* \"#utility.yul\":780:786   */\n      dup2\n        /* \"#utility.yul\":767:787   */\n      calldataload\n        /* \"#utility.yul\":758:787   */\n      swap1\n      pop\n        /* \"#utility.yul\":796:829   */\n      tag_86\n        /* \"#utility.yul\":823:828   */\n      dup2\n        /* \"#utility.yul\":796:829   */\n      tag_61\n      jump\t// in\n    tag_86:\n        /* \"#utility.yul\":696:835   */\n      swap3\n      swap2\n      pop\n      pop\n      jump\t// out\n        /* \"#utility.yul\":841:1170   */\n    tag_15:\n        /* \"#utility.yul\":900:906   */\n      0x00\n        /* \"#utility.yul\":949:951   */\n      0x20\n        /* \"#utility.yul\":937:946   */\n      dup3\n        /* \"#utility.yul\":928:935   */\n      dup5\n        /* \"#utility.yul\":924:947   */\n      sub\n        /* \"#utility.yul\":920:952   */\n      slt\n        /* \"#utility.yul\":917:1036   */\n      iszero\n      tag_88\n      jumpi\n        /* \"#utility.yul\":955:1034   */\n      tag_89\n      tag_57\n      jump\t// in\n    tag_89:\n        /* \"#utility.yul\":917:1036   */\n    tag_88:\n        /* \"#utility.yul\":1075:1076   */\n      0x00\n        /* \"#utility.yul\":1100:1153   */\n      tag_90\n        /* \"#utility.yul\":1145:1152   */\n      dup5\n        /* \"#utility.yul\":1136:1142   */\n      dup3\n        /* \"#utility.yul\":1125:1134   */\n      dup6\n        /* \"#utility.yul\":1121:1143   */\n      add\n        /* \"#utility.yul\":1100:1153   */\n      tag_62\n      jump\t// in\n    tag_90:\n        /* \"#utility.yul\":1090:1153   */\n      swap2\n      pop\n        /* \"#utility.yul\":1046:1163   */\n      pop\n        /* \"#utility.yul\":841:1170   */\n      swap3\n      swap2\n      pop\n      pop\n      jump\t// out\n        /* \"#utility.yul\":1176:1294   */\n    tag_63:\n        /* \"#utility.yul\":1263:1287   */\n      tag_92\n        /* \"#utility.yul\":1281:1286   */\n      dup2\n        /* \"#utility.yul\":1263:1287   */\n      tag_60\n      jump\t// in\n    tag_92:\n        /* \"#utility.yul\":1258:1261   */\n      dup3\n        /* \"#utility.yul\":1251:1288   */\n      mstore\n        /* \"#utility.yul\":1176:1294   */\n      pop\n      pop\n      jump\t// out\n        /* \"#utility.yul\":1300:1522   */\n    tag_20:\n        /* \"#utility.yul\":1393:1397   */\n      0x00\n        /* \"#utility.yul\":1431:1433   */\n      0x20\n        /* \"#utility.yul\":1420:1429   */\n      dup3\n        /* \"#utility.yul\":1416:1434   */\n      add\n        /* \"#utility.yul\":1408:1434   */\n      swap1\n      pop\n        /* \"#utility.yul\":1444:1515   */\n      tag_94\n        /* \"#utility.yul\":1512:1513   */\n      0x00\n        /* \"#utility.yul\":1501:1510   */\n      dup4\n        /* \"#utility.yul\":1497:1514   */\n      add\n        /* \"#utility.yul\":1488:1494   */\n      dup5\n        /* \"#utility.yul\":1444:1515   */\n      tag_63\n      jump\t// in\n    tag_94:\n        /* \"#utility.yul\":1300:1522   */\n      swap3\n      swap2\n      pop\n      pop\n      jump\t// out\n        /* \"#utility.yul\":1528:1618   */\n    tag_64:\n        /* \"#utility.yul\":1562:1569   */\n      0x00\n        /* \"#utility.yul\":1605:1610   */\n      dup2\n        /* \"#utility.yul\":1598:1611   */\n      iszero\n        /* \"#utility.yul\":1591:1612   */\n      iszero\n        /* \"#utility.yul\":1580:1612   */\n      swap1\n      pop\n        /* \"#utility.yul\":1528:1618   */\n      swap2\n      swap1\n      pop\n      jump\t// out\n        /* \"#utility.yul\":1624:1733   */\n    tag_65:\n        /* \"#utility.yul\":1705:1726   */\n      tag_97\n        /* \"#utility.yul\":1720:1725   */\n      dup2\n        /* \"#utility.yul\":1705:1726   */\n      tag_64\n      jump\t// in\n    tag_97:\n        /* \"#utility.yul\":1700:1703   */\n      dup3\n        /* \"#utility.yul\":1693:1727   */\n      mstore\n        /* \"#utility.yul\":1624:1733   */\n      pop\n      pop\n      jump\t// out\n        /* \"#utility.yul\":1739:1949   */\n    tag_24:\n        /* \"#utility.yul\":1826:1830   */\n      0x00\n        /* \"#utility.yul\":1864:1866   */\n      0x20\n        /* \"#utility.yul\":1853:1862   */\n      dup3\n        /* \"#utility.yul\":1849:1867   */\n      add\n        /* \"#utility.yul\":1841:1867   */\n      swap1\n      pop\n        /* \"#utility.yul\":1877:1942   */\n      tag_99\n        /* \"#utility.yul\":1939:1940   */\n      0x00\n        /* \"#utility.yul\":1928:1937   */\n      dup4\n        /* \"#utility.yul\":1924:1941   */\n      add\n        /* \"#utility.yul\":1915:1921   */\n      dup5\n        /* \"#utility.yul\":1877:1942   */\n      tag_65\n      jump\t// in\n    tag_99:\n        /* \"#utility.yul\":1739:1949   */\n      swap3\n      swap2\n      pop\n      pop\n      jump\t// out\n        /* \"#utility.yul\":1955:2124   */\n    tag_66:\n        /* \"#utility.yul\":2039:2050   */\n      0x00\n        /* \"#utility.yul\":2073:2079   */\n      dup3\n        /* \"#utility.yul\":2068:2071   */\n      dup3\n        /* \"#utility.yul\":2061:2080   */\n      mstore\n        /* \"#utility.yul\":2113:2117   */\n      0x20\n        /* \"#utility.yul\":2108:2111   */\n      dup3\n        /* \"#utility.yul\":2104:2118   */\n      add\n        /* \"#utility.yul\":2089:2118   */\n      swap1\n      pop\n        /* \"#utility.yul\":1955:2124   */\n      swap3\n      swap2\n      pop\n      pop\n      jump\t// out\n        /* \"#utility.yul\":2130:2308   */\n    tag_67:\n        /* \"#utility.yul\":2270:2300   */\n      0x5374616b65686f6c64657220646f6e7420686176652061636365737300000000\n        /* \"#utility.yul\":2266:2267   */\n      0x00\n        /* \"#utility.yul\":2258:2264   */\n      dup3\n        /* \"#utility.yul\":2254:2268   */\n      add\n        /* \"#utility.yul\":2247:2301   */\n      mstore\n        /* \"#utility.yul\":2130:2308   */\n      pop\n      jump\t// out\n        /* \"#utility.yul\":2314:2680   */\n    tag_68:\n        /* \"#utility.yul\":2456:2459   */\n      0x00\n        /* \"#utility.yul\":2477:2544   */\n      tag_103\n        /* \"#utility.yul\":2541:2543   */\n      0x1c\n        /* \"#utility.yul\":2536:2539   */\n      dup4\n        /* \"#utility.yul\":2477:2544   */\n      tag_66\n      jump\t// in\n    tag_103:\n        /* \"#utility.yul\":2470:2544   */\n      swap2\n      pop\n        /* \"#utility.yul\":2553:2646   */\n      tag_104\n        /* \"#utility.yul\":2642:2645   */\n      dup3\n        /* \"#utility.yul\":2553:2646   */\n      tag_67\n      jump\t// in\n    tag_104:\n        /* \"#utility.yul\":2671:2673   */\n      0x20\n        /* \"#utility.yul\":2666:2669   */\n      dup3\n        /* \"#utility.yul\":2662:2674   */\n      add\n        /* \"#utility.yul\":2655:2674   */\n      swap1\n      pop\n        /* \"#utility.yul\":2314:2680   */\n      swap2\n      swap1\n      pop\n      jump\t// out\n        /* \"#utility.yul\":2686:3105   */\n    tag_33:\n        /* \"#utility.yul\":2852:2856   */\n      0x00\n        /* \"#utility.yul\":2890:2892   */\n      0x20\n        /* \"#utility.yul\":2879:2888   */\n      dup3\n        /* \"#utility.yul\":2875:2893   */\n      add\n        /* \"#utility.yul\":2867:2893   */\n      swap1\n      pop\n        /* \"#utility.yul\":2939:2948   */\n      dup2\n        /* \"#utility.yul\":2933:2937   */\n      dup2\n        /* \"#utility.yul\":2929:2949   */\n      sub\n        /* \"#utility.yul\":2925:2926   */\n      0x00\n        /* \"#utility.yul\":2914:2923   */\n      dup4\n        /* \"#utility.yul\":2910:2927   */\n      add\n        /* \"#utility.yul\":2903:2950   */\n      mstore\n        /* \"#utility.yul\":2967:3098   */\n      tag_106\n        /* \"#utility.yul\":3093:3097   */\n      dup2\n        /* \"#utility.yul\":2967:3098   */\n      tag_68\n      jump\t// in\n    tag_106:\n        /* \"#utility.yul\":2959:3098   */\n      swap1\n      pop\n        /* \"#utility.yul\":2686:3105   */\n      swap2\n      swap1\n      pop\n      jump\t// out\n        /* \"#utility.yul\":3111:3276   */\n    tag_69:\n        /* \"#utility.yul\":3251:3268   */\n      0x496e76616c696420616464726573730000000000000000000000000000000000\n        /* \"#utility.yul\":3247:3248   */\n      0x00\n        /* \"#utility.yul\":3239:3245   */\n      dup3\n        /* \"#utility.yul\":3235:3249   */\n      add\n        /* \"#utility.yul\":3228:3269   */\n      mstore\n        /* \"#utility.yul\":3111:3276   */\n      pop\n      jump\t// out\n        /* \"#utility.yul\":3282:3648   */\n    tag_70:\n        /* \"#utility.yul\":3424:3427   */\n      0x00\n        /* \"#utility.yul\":3445:3512   */\n      tag_109\n        /* \"#utility.yul\":3509:3511   */\n      0x0f\n        /* \"#utility.yul\":3504:3507   */\n      dup4\n        /* \"#utility.yul\":3445:3512   */\n      tag_66\n      jump\t// in\n    tag_109:\n        /* \"#utility.yul\":3438:3512   */\n      swap2\n      pop\n        /* \"#utility.yul\":3521:3614   */\n      tag_110\n        /* \"#utility.yul\":3610:3613   */\n      dup3\n        /* \"#utility.yul\":3521:3614   */\n      tag_69\n      jump\t// in\n    tag_110:\n        /* \"#utility.yul\":3639:3641   */\n      0x20\n        /* \"#utility.yul\":3634:3637   */\n      dup3\n        /* \"#utility.yul\":3630:3642   */\n      add\n        /* \"#utility.yul\":3623:3642   */\n      swap1\n      pop\n        /* \"#utility.yul\":3282:3648   */\n      swap2\n      swap1\n      pop\n      jump\t// out\n        /* \"#utility.yul\":3654:4073   */\n    tag_37:\n        /* \"#utility.yul\":3820:3824   */\n      0x00\n        /* \"#utility.yul\":3858:3860   */\n      0x20\n        /* \"#utility.yul\":3847:3856   */\n      dup3\n        /* \"#utility.yul\":3843:3861   */\n      add\n        /* \"#utility.yul\":3835:3861   */\n      swap1\n      pop\n        /* \"#utility.yul\":3907:3916   */\n      dup2\n        /* \"#utility.yul\":3901:3905   */\n      dup2\n        /* \"#utility.yul\":3897:3917   */\n      sub\n        /* \"#utility.yul\":3893:3894   */\n      0x00\n        /* \"#utility.yul\":3882:3891   */\n      dup4\n        /* \"#utility.yul\":3878:3895   */\n      add\n        /* \"#utility.yul\":3871:3918   */\n      mstore\n        /* \"#utility.yul\":3935:4066   */\n      tag_112\n        /* \"#utility.yul\":4061:4065   */\n      dup2\n        /* \"#utility.yul\":3935:4066   */\n      tag_70\n      jump\t// in\n    tag_112:\n        /* \"#utility.yul\":3927:4066   */\n      swap1\n      pop\n        /* \"#utility.yul\":3654:4073   */\n      swap2\n      swap1\n      pop\n      jump\t// out\n        /* \"#utility.yul\":4079:4250   */\n    tag_71:\n        /* \"#utility.yul\":4219:4242   */\n      0x4f6e6c79206f776e657220686173206163636565730000000000000000000000\n        /* \"#utility.yul\":4215:4216   */\n      0x00\n        /* \"#utility.yul\":4207:4213   */\n      dup3\n        /* \"#utility.yul\":4203:4217   */\n      add\n        /* \"#utility.yul\":4196:4243   */\n      mstore\n        /* \"#utility.yul\":4079:4250   */\n      pop\n      jump\t// out\n        /* \"#utility.yul\":4256:4622   */\n    tag_72:\n        /* \"#utility.yul\":4398:4401   */\n      0x00\n        /* \"#utility.yul\":4419:4486   */\n      tag_115\n        /* \"#utility.yul\":4483:4485   */\n      0x15\n        /* \"#utility.yul\":4478:4481   */\n      dup4\n        /* \"#utility.yul\":4419:4486   */\n      tag_66\n      jump\t// in\n    tag_115:\n        /* \"#utility.yul\":4412:4486   */\n      swap2\n      pop\n        /* \"#utility.yul\":4495:4588   */\n      tag_116\n        /* \"#utility.yul\":4584:4587   */\n      dup3\n        /* \"#utility.yul\":4495:4588   */\n      tag_71\n      jump\t// in\n    tag_116:\n        /* \"#utility.yul\":4613:4615   */\n      0x20\n        /* \"#utility.yul\":4608:4611   */\n      dup3\n        /* \"#utility.yul\":4604:4616   */\n      add\n        /* \"#utility.yul\":4597:4616   */\n      swap1\n      pop\n        /* \"#utility.yul\":4256:4622   */\n      swap2\n      swap1\n      pop\n      jump\t// out\n        /* \"#utility.yul\":4628:5047   */\n    tag_41:\n        /* \"#utility.yul\":4794:4798   */\n      0x00\n        /* \"#utility.yul\":4832:4834   */\n      0x20\n        /* \"#utility.yul\":4821:4830   */\n      dup3\n        /* \"#utility.yul\":4817:4835   */\n      add\n        /* \"#utility.yul\":4809:4835   */\n      swap1\n      pop\n        /* \"#utility.yul\":4881:4890   */\n      dup2\n        /* \"#utility.yul\":4875:4879   */\n      dup2\n        /* \"#utility.yul\":4871:4891   */\n      sub\n        /* \"#utility.yul\":4867:4868   */\n      0x00\n        /* \"#utility.yul\":4856:4865   */\n      dup4\n        /* \"#utility.yul\":4852:4869   */\n      add\n        /* \"#utility.yul\":4845:4892   */\n      mstore\n        /* \"#utility.yul\":4909:5040   */\n      tag_118\n        /* \"#utility.yul\":5035:5039   */\n      dup2\n        /* \"#utility.yul\":4909:5040   */\n      tag_72\n      jump\t// in\n    tag_118:\n        /* \"#utility.yul\":4901:5040   */\n      swap1\n      pop\n        /* \"#utility.yul\":4628:5047   */\n      swap2\n      swap1\n      pop\n      jump\t// out\n        /* \"#utility.yul\":5053:5233   */\n    tag_51:\n        /* \"#utility.yul\":5101:5178   */\n      0x4e487b7100000000000000000000000000000000000000000000000000000000\n        /* \"#utility.yul\":5098:5099   */\n      0x00\n        /* \"#utility.yul\":5091:5179   */\n      mstore\n        /* \"#utility.yul\":5198:5202   */\n      0x32\n        /* \"#utility.yul\":5195:5196   */\n      0x04\n        /* \"#utility.yul\":5188:5203   */\n      mstore\n        /* \"#utility.yul\":5222:5226   */\n      0x24\n        /* \"#utility.yul\":5219:5220   */\n      0x00\n        /* \"#utility.yul\":5212:5227   */\n      revert\n        /* \"#utility.yul\":5239:5419   */\n    tag_73:\n        /* \"#utility.yul\":5287:5364   */\n      0x4e487b7100000000000000000000000000000000000000000000000000000000\n        /* \"#utility.yul\":5284:5285   */\n      0x00\n        /* \"#utility.yul\":5277:5365   */\n      mstore\n        /* \"#utility.yul\":5384:5388   */\n      0x11\n        /* \"#utility.yul\":5381:5382   */\n      0x04\n        /* \"#utility.yul\":5374:5389   */\n      mstore\n        /* \"#utility.yul\":5408:5412   */\n      0x24\n        /* \"#utility.yul\":5405:5406   */\n      0x00\n        /* \"#utility.yul\":5398:5413   */\n      revert\n        /* \"#utility.yul\":5425:5502   */\n    tag_74:\n        /* \"#utility.yul\":5462:5469   */\n      0x00\n        /* \"#utility.yul\":5491:5496   */\n      dup2\n        /* \"#utility.yul\":5480:5496   */\n      swap1\n      pop\n        /* \"#utility.yul\":5425:5502   */\n      swap2\n      swap1\n      pop\n      jump\t// out\n        /* \"#utility.yul\":5508:5741   */\n    tag_55:\n        /* \"#utility.yul\":5547:5550   */\n      0x00\n        /* \"#utility.yul\":5570:5594   */\n      tag_123\n        /* \"#utility.yul\":5588:5593   */\n      dup3\n        /* \"#utility.yul\":5570:5594   */\n      tag_74\n      jump\t// in\n    tag_123:\n        /* \"#utility.yul\":5561:5594   */\n      swap2\n      pop\n        /* \"#utility.yul\":5616:5682   */\n      0xffffffffffffffffffffffffffffffffffffffffffffffffffffffffffffffff\n        /* \"#utility.yul\":5609:5614   */\n      dup3\n        /* \"#utility.yul\":5606:5683   */\n      sub\n        /* \"#utility.yul\":5603:5706   */\n      tag_124\n      jumpi\n        /* \"#utility.yul\":5686:5704   */\n      tag_125\n      tag_73\n      jump\t// in\n    tag_125:\n        /* \"#utility.yul\":5603:5706   */\n    tag_124:\n        /* \"#utility.yul\":5733:5734   */\n      0x01\n        /* \"#utility.yul\":5726:5731   */\n      dup3\n        /* \"#utility.yul\":5722:5735   */\n      add\n        /* \"#utility.yul\":5715:5735   */\n      swap1\n      pop\n        /* \"#utility.yul\":5508:5741   */\n      swap2\n      swap1\n      pop\n      jump\t// out\n\n    auxdata: 0xa26469706673582212205539c030021b1d93d5d9d6d7517e112e1a7282e35a558a543a1dd9a4644913f364736f6c63430008140033\n}\n",
				"bytecode": {
					"linkReferences": {},
					"object": "608060405234801561000f575f80fd5b506108ae8061001d5f395ff3fe608060405234801561000f575f80fd5b5060043610610060575f3560e01c80631982e21c146100645780632af4c04a1461006e578063348151e2146100785780638da5cb5b14610094578063c02146ac146100b2578063d3e1e4ce146100d0575b5f80fd5b61006c610100565b005b6100766101c5565b005b610092600480360381019061008d9190610600565b6102f0565b005b61009c6104a9565b6040516100a9919061063a565b60405180910390f35b6100ba6104cc565b6040516100c7919061066d565b60405180910390f35b6100ea60048036038101906100e59190610600565b610572565b6040516100f7919061063a565b60405180910390f35b6101086104cc565b15610148576040517f08c379a000000000000000000000000000000000000000000000000000000000815260040161013f906106e0565b60405180910390fd5b3360025f3373ffffffffffffffffffffffffffffffffffffffff1673ffffffffffffffffffffffffffffffffffffffff1681526020019081526020015f205f6101000a81548173ffffffffffffffffffffffffffffffffffffffff021916908373ffffffffffffffffffffffffffffffffffffffff160217905550565b5f73ffffffffffffffffffffffffffffffffffffffff1660025f3373ffffffffffffffffffffffffffffffffffffffff1673ffffffffffffffffffffffffffffffffffffffff1681526020019081526020015f205f9054906101000a900473ffffffffffffffffffffffffffffffffffffffff1673ffffffffffffffffffffffffffffffffffffffff161461028f576040517f08c379a000000000000000000000000000000000000000000000000000000000815260040161028690610748565b60405180910390fd5b60025f3373ffffffffffffffffffffffffffffffffffffffff1673ffffffffffffffffffffffffffffffffffffffff1681526020019081526020015f205f6101000a81549073ffffffffffffffffffffffffffffffffffffffff0219169055565b5f8054906101000a900473ffffffffffffffffffffffffffffffffffffffff1673ffffffffffffffffffffffffffffffffffffffff163373ffffffffffffffffffffffffffffffffffffffff161461037d576040517f08c379a0000000000000000000000000000000000000000000000000000000008152600401610374906107b0565b60405180910390fd5b8073ffffffffffffffffffffffffffffffffffffffff1660025f8373ffffffffffffffffffffffffffffffffffffffff1673ffffffffffffffffffffffffffffffffffffffff1681526020019081526020015f205f9054906101000a900473ffffffffffffffffffffffffffffffffffffffff1673ffffffffffffffffffffffffffffffffffffffff1614610447576040517f08c379a000000000000000000000000000000000000000000000000000000000815260040161043e90610748565b60405180910390fd5b60025f8273ffffffffffffffffffffffffffffffffffffffff1673ffffffffffffffffffffffffffffffffffffffff1681526020019081526020015f205f6101000a81549073ffffffffffffffffffffffffffffffffffffffff021916905550565b5f8054906101000a900473ffffffffffffffffffffffffffffffffffffffff1681565b5f805f90505b60018054905081101561056a573373ffffffffffffffffffffffffffffffffffffffff166001828154811061050a576105096107ce565b5b905f5260205f20015f9054906101000a900473ffffffffffffffffffffffffffffffffffffffff1673ffffffffffffffffffffffffffffffffffffffff160361055757600191505061056f565b808061056290610831565b9150506104d2565b505f90505b90565b6002602052805f5260405f205f915054906101000a900473ffffffffffffffffffffffffffffffffffffffff1681565b5f80fd5b5f73ffffffffffffffffffffffffffffffffffffffff82169050919050565b5f6105cf826105a6565b9050919050565b6105df816105c5565b81146105e9575f80fd5b50565b5f813590506105fa816105d6565b92915050565b5f60208284031215610615576106146105a2565b5b5f610622848285016105ec565b91505092915050565b610634816105c5565b82525050565b5f60208201905061064d5f83018461062b565b92915050565b5f8115159050919050565b61066781610653565b82525050565b5f6020820190506106805f83018461065e565b92915050565b5f82825260208201905092915050565b7f5374616b65686f6c64657220646f6e74206861766520616363657373000000005f82015250565b5f6106ca601c83610686565b91506106d582610696565b602082019050919050565b5f6020820190508181035f8301526106f7816106be565b9050919050565b7f496e76616c6964206164647265737300000000000000000000000000000000005f82015250565b5f610732600f83610686565b915061073d826106fe565b602082019050919050565b5f6020820190508181035f83015261075f81610726565b9050919050565b7f4f6e6c79206f776e6572206861732061636365657300000000000000000000005f82015250565b5f61079a601583610686565b91506107a582610766565b602082019050919050565b5f6020820190508181035f8301526107c78161078e565b9050919050565b7f4e487b71000000000000000000000000000000000000000000000000000000005f52603260045260245ffd5b7f4e487b71000000000000000000000000000000000000000000000000000000005f52601160045260245ffd5b5f819050919050565b5f61083b82610828565b91507fffffffffffffffffffffffffffffffffffffffffffffffffffffffffffffffff820361086d5761086c6107fb565b5b60018201905091905056fea26469706673582212205539c030021b1d93d5d9d6d7517e112e1a7282e35a558a543a1dd9a4644913f364736f6c63430008140033",
					"opcodes": "PUSH1 0x80 PUSH1 0x40 MSTORE CALLVALUE DUP1 ISZERO PUSH2 0xF JUMPI PUSH0 DUP1 REVERT JUMPDEST POP PUSH2 0x8AE DUP1 PUSH2 0x1D PUSH0 CODECOPY PUSH0 RETURN INVALID PUSH1 0x80 PUSH1 0x40 MSTORE CALLVALUE DUP1 ISZERO PUSH2 0xF JUMPI PUSH0 DUP1 REVERT JUMPDEST POP PUSH1 0x4 CALLDATASIZE LT PUSH2 0x60 JUMPI PUSH0 CALLDATALOAD PUSH1 0xE0 SHR DUP1 PUSH4 0x1982E21C EQ PUSH2 0x64 JUMPI DUP1 PUSH4 0x2AF4C04A EQ PUSH2 0x6E JUMPI DUP1 PUSH4 0x348151E2 EQ PUSH2 0x78 JUMPI DUP1 PUSH4 0x8DA5CB5B EQ PUSH2 0x94 JUMPI DUP1 PUSH4 0xC02146AC EQ PUSH2 0xB2 JUMPI DUP1 PUSH4 0xD3E1E4CE EQ PUSH2 0xD0 JUMPI JUMPDEST PUSH0 DUP1 REVERT JUMPDEST PUSH2 0x6C PUSH2 0x100 JUMP JUMPDEST STOP JUMPDEST PUSH2 0x76 PUSH2 0x1C5 JUMP JUMPDEST STOP JUMPDEST PUSH2 0x92 PUSH1 0x4 DUP1 CALLDATASIZE SUB DUP2 ADD SWAP1 PUSH2 0x8D SWAP2 SWAP1 PUSH2 0x600 JUMP JUMPDEST PUSH2 0x2F0 JUMP JUMPDEST STOP JUMPDEST PUSH2 0x9C PUSH2 0x4A9 JUMP JUMPDEST PUSH1 0x40 MLOAD PUSH2 0xA9 SWAP2 SWAP1 PUSH2 0x63A JUMP JUMPDEST PUSH1 0x40 MLOAD DUP1 SWAP2 SUB SWAP1 RETURN JUMPDEST PUSH2 0xBA PUSH2 0x4CC JUMP JUMPDEST PUSH1 0x40 MLOAD PUSH2 0xC7 SWAP2 SWAP1 PUSH2 0x66D JUMP JUMPDEST PUSH1 0x40 MLOAD DUP1 SWAP2 SUB SWAP1 RETURN JUMPDEST PUSH2 0xEA PUSH1 0x4 DUP1 CALLDATASIZE SUB DUP2 ADD SWAP1 PUSH2 0xE5 SWAP2 SWAP1 PUSH2 0x600 JUMP JUMPDEST PUSH2 0x572 JUMP JUMPDEST PUSH1 0x40 MLOAD PUSH2 0xF7 SWAP2 SWAP1 PUSH2 0x63A JUMP JUMPDEST PUSH1 0x40 MLOAD DUP1 SWAP2 SUB SWAP1 RETURN JUMPDEST PUSH2 0x108 PUSH2 0x4CC JUMP JUMPDEST ISZERO PUSH2 0x148 JUMPI PUSH1 0x40 MLOAD PUSH32 0x8C379A000000000000000000000000000000000000000000000000000000000 DUP2 MSTORE PUSH1 0x4 ADD PUSH2 0x13F SWAP1 PUSH2 0x6E0 JUMP JUMPDEST PUSH1 0x40 MLOAD DUP1 SWAP2 SUB SWAP1 REVERT JUMPDEST CALLER PUSH1 0x2 PUSH0 CALLER PUSH20 0xFFFFFFFFFFFFFFFFFFFFFFFFFFFFFFFFFFFFFFFF AND PUSH20 0xFFFFFFFFFFFFFFFFFFFFFFFFFFFFFFFFFFFFFFFF AND DUP2 MSTORE PUSH1 0x20 ADD SWAP1 DUP2 MSTORE PUSH1 0x20 ADD PUSH0 KECCAK256 PUSH0 PUSH2 0x100 EXP DUP2 SLOAD DUP2 PUSH20 0xFFFFFFFFFFFFFFFFFFFFFFFFFFFFFFFFFFFFFFFF MUL NOT AND SWAP1 DUP4 PUSH20 0xFFFFFFFFFFFFFFFFFFFFFFFFFFFFFFFFFFFFFFFF AND MUL OR SWAP1 SSTORE POP JUMP JUMPDEST PUSH0 PUSH20 0xFFFFFFFFFFFFFFFFFFFFFFFFFFFFFFFFFFFFFFFF AND PUSH1 0x2 PUSH0 CALLER PUSH20 0xFFFFFFFFFFFFFFFFFFFFFFFFFFFFFFFFFFFFFFFF AND PUSH20 0xFFFFFFFFFFFFFFFFFFFFFFFFFFFFFFFFFFFFFFFF AND DUP2 MSTORE PUSH1 0x20 ADD SWAP1 DUP2 MSTORE PUSH1 0x20 ADD PUSH0 KECCAK256 PUSH0 SWAP1 SLOAD SWAP1 PUSH2 0x100 EXP SWAP1 DIV PUSH20 0xFFFFFFFFFFFFFFFFFFFFFFFFFFFFFFFFFFFFFFFF AND PUSH20 0xFFFFFFFFFFFFFFFFFFFFFFFFFFFFFFFFFFFFFFFF AND EQ PUSH2 0x28F JUMPI PUSH1 0x40 MLOAD PUSH32 0x8C379A000000000000000000000000000000000000000000000000000000000 DUP2 MSTORE PUSH1 0x4 ADD PUSH2 0x286 SWAP1 PUSH2 0x748 JUMP JUMPDEST PUSH1 0x40 MLOAD DUP1 SWAP2 SUB SWAP1 REVERT JUMPDEST PUSH1 0x2 PUSH0 CALLER PUSH20 0xFFFFFFFFFFFFFFFFFFFFFFFFFFFFFFFFFFFFFFFF AND PUSH20 0xFFFFFFFFFFFFFFFFFFFFFFFFFFFFFFFFFFFFFFFF AND DUP2 MSTORE PUSH1 0x20 ADD SWAP1 DUP2 MSTORE PUSH1 0x20 ADD PUSH0 KECCAK256 PUSH0 PUSH2 0x100 EXP DUP2 SLOAD SWAP1 PUSH20 0xFFFFFFFFFFFFFFFFFFFFFFFFFFFFFFFFFFFFFFFF MUL NOT AND SWAP1 SSTORE JUMP JUMPDEST PUSH0 DUP1 SLOAD SWAP1 PUSH2 0x100 EXP SWAP1 DIV PUSH20 0xFFFFFFFFFFFFFFFFFFFFFFFFFFFFFFFFFFFFFFFF AND PUSH20 0xFFFFFFFFFFFFFFFFFFFFFFFFFFFFFFFFFFFFFFFF AND CALLER PUSH20 0xFFFFFFFFFFFFFFFFFFFFFFFFFFFFFFFFFFFFFFFF AND EQ PUSH2 0x37D JUMPI PUSH1 0x40 MLOAD PUSH32 0x8C379A000000000000000000000000000000000000000000000000000000000 DUP2 MSTORE PUSH1 0x4 ADD PUSH2 0x374 SWAP1 PUSH2 0x7B0 JUMP JUMPDEST PUSH1 0x40 MLOAD DUP1 SWAP2 SUB SWAP1 REVERT JUMPDEST DUP1 PUSH20 0xFFFFFFFFFFFFFFFFFFFFFFFFFFFFFFFFFFFFFFFF AND PUSH1 0x2 PUSH0 DUP4 PUSH20 0xFFFFFFFFFFFFFFFFFFFFFFFFFFFFFFFFFFFFFFFF AND PUSH20 0xFFFFFFFFFFFFFFFFFFFFFFFFFFFFFFFFFFFFFFFF AND DUP2 MSTORE PUSH1 0x20 ADD SWAP1 DUP2 MSTORE PUSH1 0x20 ADD PUSH0 KECCAK256 PUSH0 SWAP1 SLOAD SWAP1 PUSH2 0x100 EXP SWAP1 DIV PUSH20 0xFFFFFFFFFFFFFFFFFFFFFFFFFFFFFFFFFFFFFFFF AND PUSH20 0xFFFFFFFFFFFFFFFFFFFFFFFFFFFFFFFFFFFFFFFF AND EQ PUSH2 0x447 JUMPI PUSH1 0x40 MLOAD PUSH32 0x8C379A000000000000000000000000000000000000000000000000000000000 DUP2 MSTORE PUSH1 0x4 ADD PUSH2 0x43E SWAP1 PUSH2 0x748 JUMP JUMPDEST PUSH1 0x40 MLOAD DUP1 SWAP2 SUB SWAP1 REVERT JUMPDEST PUSH1 0x2 PUSH0 DUP3 PUSH20 0xFFFFFFFFFFFFFFFFFFFFFFFFFFFFFFFFFFFFFFFF AND PUSH20 0xFFFFFFFFFFFFFFFFFFFFFFFFFFFFFFFFFFFFFFFF AND DUP2 MSTORE PUSH1 0x20 ADD SWAP1 DUP2 MSTORE PUSH1 0x20 ADD PUSH0 KECCAK256 PUSH0 PUSH2 0x100 EXP DUP2 SLOAD SWAP1 PUSH20 0xFFFFFFFFFFFFFFFFFFFFFFFFFFFFFFFFFFFFFFFF MUL NOT AND SWAP1 SSTORE POP JUMP JUMPDEST PUSH0 DUP1 SLOAD SWAP1 PUSH2 0x100 EXP SWAP1 DIV PUSH20 0xFFFFFFFFFFFFFFFFFFFFFFFFFFFFFFFFFFFFFFFF AND DUP2 JUMP JUMPDEST PUSH0 DUP1 PUSH0 SWAP1 POP JUMPDEST PUSH1 0x1 DUP1 SLOAD SWAP1 POP DUP2 LT ISZERO PUSH2 0x56A JUMPI CALLER PUSH20 0xFFFFFFFFFFFFFFFFFFFFFFFFFFFFFFFFFFFFFFFF AND PUSH1 0x1 DUP3 DUP2 SLOAD DUP2 LT PUSH2 0x50A JUMPI PUSH2 0x509 PUSH2 0x7CE JUMP JUMPDEST JUMPDEST SWAP1 PUSH0 MSTORE PUSH1 0x20 PUSH0 KECCAK256 ADD PUSH0 SWAP1 SLOAD SWAP1 PUSH2 0x100 EXP SWAP1 DIV PUSH20 0xFFFFFFFFFFFFFFFFFFFFFFFFFFFFFFFFFFFFFFFF AND PUSH20 0xFFFFFFFFFFFFFFFFFFFFFFFFFFFFFFFFFFFFFFFF AND SUB PUSH2 0x557 JUMPI PUSH1 0x1 SWAP2 POP POP PUSH2 0x56F JUMP JUMPDEST DUP1 DUP1 PUSH2 0x562 SWAP1 PUSH2 0x831 JUMP JUMPDEST SWAP2 POP POP PUSH2 0x4D2 JUMP JUMPDEST POP PUSH0 SWAP1 POP JUMPDEST SWAP1 JUMP JUMPDEST PUSH1 0x2 PUSH1 0x20 MSTORE DUP1 PUSH0 MSTORE PUSH1 0x40 PUSH0 KECCAK256 PUSH0 SWAP2 POP SLOAD SWAP1 PUSH2 0x100 EXP SWAP1 DIV PUSH20 0xFFFFFFFFFFFFFFFFFFFFFFFFFFFFFFFFFFFFFFFF AND DUP2 JUMP JUMPDEST PUSH0 DUP1 REVERT JUMPDEST PUSH0 PUSH20 0xFFFFFFFFFFFFFFFFFFFFFFFFFFFFFFFFFFFFFFFF DUP3 AND SWAP1 POP SWAP2 SWAP1 POP JUMP JUMPDEST PUSH0 PUSH2 0x5CF DUP3 PUSH2 0x5A6 JUMP JUMPDEST SWAP1 POP SWAP2 SWAP1 POP JUMP JUMPDEST PUSH2 0x5DF DUP2 PUSH2 0x5C5 JUMP JUMPDEST DUP2 EQ PUSH2 0x5E9 JUMPI PUSH0 DUP1 REVERT JUMPDEST POP JUMP JUMPDEST PUSH0 DUP2 CALLDATALOAD SWAP1 POP PUSH2 0x5FA DUP2 PUSH2 0x5D6 JUMP JUMPDEST SWAP3 SWAP2 POP POP JUMP JUMPDEST PUSH0 PUSH1 0x20 DUP3 DUP5 SUB SLT ISZERO PUSH2 0x615 JUMPI PUSH2 0x614 PUSH2 0x5A2 JUMP JUMPDEST JUMPDEST PUSH0 PUSH2 0x622 DUP5 DUP3 DUP6 ADD PUSH2 0x5EC JUMP JUMPDEST SWAP2 POP POP SWAP3 SWAP2 POP POP JUMP JUMPDEST PUSH2 0x634 DUP2 PUSH2 0x5C5 JUMP JUMPDEST DUP3 MSTORE POP POP JUMP JUMPDEST PUSH0 PUSH1 0x20 DUP3 ADD SWAP1 POP PUSH2 0x64D PUSH0 DUP4 ADD DUP5 PUSH2 0x62B JUMP JUMPDEST SWAP3 SWAP2 POP POP JUMP JUMPDEST PUSH0 DUP2 ISZERO ISZERO SWAP1 POP SWAP2 SWAP1 POP JUMP JUMPDEST PUSH2 0x667 DUP2 PUSH2 0x653 JUMP JUMPDEST DUP3 MSTORE POP POP JUMP JUMPDEST PUSH0 PUSH1 0x20 DUP3 ADD SWAP1 POP PUSH2 0x680 PUSH0 DUP4 ADD DUP5 PUSH2 0x65E JUMP JUMPDEST SWAP3 SWAP2 POP POP JUMP JUMPDEST PUSH0 DUP3 DUP3 MSTORE PUSH1 0x20 DUP3 ADD SWAP1 POP SWAP3 SWAP2 POP POP JUMP JUMPDEST PUSH32 0x5374616B65686F6C64657220646F6E7420686176652061636365737300000000 PUSH0 DUP3 ADD MSTORE POP JUMP JUMPDEST PUSH0 PUSH2 0x6CA PUSH1 0x1C DUP4 PUSH2 0x686 JUMP JUMPDEST SWAP2 POP PUSH2 0x6D5 DUP3 PUSH2 0x696 JUMP JUMPDEST PUSH1 0x20 DUP3 ADD SWAP1 POP SWAP2 SWAP1 POP JUMP JUMPDEST PUSH0 PUSH1 0x20 DUP3 ADD SWAP1 POP DUP2 DUP2 SUB PUSH0 DUP4 ADD MSTORE PUSH2 0x6F7 DUP2 PUSH2 0x6BE JUMP JUMPDEST SWAP1 POP SWAP2 SWAP1 POP JUMP JUMPDEST PUSH32 0x496E76616C696420616464726573730000000000000000000000000000000000 PUSH0 DUP3 ADD MSTORE POP JUMP JUMPDEST PUSH0 PUSH2 0x732 PUSH1 0xF DUP4 PUSH2 0x686 JUMP JUMPDEST SWAP2 POP PUSH2 0x73D DUP3 PUSH2 0x6FE JUMP JUMPDEST PUSH1 0x20 DUP3 ADD SWAP1 POP SWAP2 SWAP1 POP JUMP JUMPDEST PUSH0 PUSH1 0x20 DUP3 ADD SWAP1 POP DUP2 DUP2 SUB PUSH0 DUP4 ADD MSTORE PUSH2 0x75F DUP2 PUSH2 0x726 JUMP JUMPDEST SWAP1 POP SWAP2 SWAP1 POP JUMP JUMPDEST PUSH32 0x4F6E6C79206F776E657220686173206163636565730000000000000000000000 PUSH0 DUP3 ADD MSTORE POP JUMP JUMPDEST PUSH0 PUSH2 0x79A PUSH1 0x15 DUP4 PUSH2 0x686 JUMP JUMPDEST SWAP2 POP PUSH2 0x7A5 DUP3 PUSH2 0x766 JUMP JUMPDEST PUSH1 0x20 DUP3 ADD SWAP1 POP SWAP2 SWAP1 POP JUMP JUMPDEST PUSH0 PUSH1 0x20 DUP3 ADD SWAP1 POP DUP2 DUP2 SUB PUSH0 DUP4 ADD MSTORE PUSH2 0x7C7 DUP2 PUSH2 0x78E JUMP JUMPDEST SWAP1 POP SWAP2 SWAP1 POP JUMP JUMPDEST PUSH32 0x4E487B7100000000000000000000000000000000000000000000000000000000 PUSH0 MSTORE PUSH1 0x32 PUSH1 0x4 MSTORE PUSH1 0x24 PUSH0 REVERT JUMPDEST PUSH32 0x4E487B7100000000000000000000000000000000000000000000000000000000 PUSH0 MSTORE PUSH1 0x11 PUSH1 0x4 MSTORE PUSH1 0x24 PUSH0 REVERT JUMPDEST PUSH0 DUP2 SWAP1 POP SWAP2 SWAP1 POP JUMP JUMPDEST PUSH0 PUSH2 0x83B DUP3 PUSH2 0x828 JUMP JUMPDEST SWAP2 POP PUSH32 0xFFFFFFFFFFFFFFFFFFFFFFFFFFFFFFFFFFFFFFFFFFFFFFFFFFFFFFFFFFFFFFFF DUP3 SUB PUSH2 0x86D JUMPI PUSH2 0x86C PUSH2 0x7FB JUMP JUMPDEST JUMPDEST PUSH1 0x1 DUP3 ADD SWAP1 POP SWAP2 SWAP1 POP JUMP INVALID LOG2 PUSH5 0x6970667358 0x22 SLT KECCAK256 SSTORE CODECOPY 0xC0 ADDRESS MUL SHL SAR SWAP4 0xD5 0xD9 0xD6 0xD7 MLOAD PUSH31 0x112E1A7282E35A558A543A1DD9A4644913F364736F6C634300081400330000 "
				},
				"gasEstimates": {
					"creation": {
						"codeDepositCost": "444400",
						"executionCost": "478",
						"totalCost": "444878"
					},
					"external": {
						"acceptAsStakeholder(address)": "29224",
						"isStakeholder()": "infinite",
						"owner()": "2549",
						"pendingStakeholders(address)": "infinite",
						"removeRequestForStakeholder()": "26727",
						"requestForStakeholder()": "infinite"
					}
				},
				"methodIdentifiers": {
					"acceptAsStakeholder(address)": "348151e2",
					"isStakeholder()": "c02146ac",
					"owner()": "8da5cb5b",
					"pendingStakeholders(address)": "d3e1e4ce",
					"removeRequestForStakeholder()": "2af4c04a",
					"requestForStakeholder()": "1982e21c"
				}
			},
			"storageLayout": {
				"storage": [
					{
						"astId": 3,
						"contract": "contracts/StakingSystem/StackHolder.sol:StackHolder",
						"label": "owner",
						"offset": 0,
						"slot": "0",
						"type": "t_address"
					},
					{
						"astId": 6,
						"contract": "contracts/StakingSystem/StackHolder.sol:StackHolder",
						"label": "stakeholdersEthAddress",
						"offset": 0,
						"slot": "1",
						"type": "t_array(t_address)dyn_storage"
					},
					{
						"astId": 10,
						"contract": "contracts/StakingSystem/StackHolder.sol:StackHolder",
						"label": "pendingStakeholders",
						"offset": 0,
						"slot": "2",
						"type": "t_mapping(t_address,t_address)"
					}
				],
				"types": {
					"t_address": {
						"encoding": "inplace",
						"label": "address",
						"numberOfBytes": "20"
					},
					"t_array(t_address)dyn_storage": {
						"base": "t_address",
						"encoding": "dynamic_array",
						"label": "address[]",
						"numberOfBytes": "32"
					},
					"t_mapping(t_address,t_address)": {
						"encoding": "mapping",
						"key": "t_address",
						"label": "mapping(address => address)",
						"numberOfBytes": "32",
						"value": "t_address"
					}
				}
			},
			"userdoc": {
				"kind": "user",
				"methods": {},
				"version": 1
			}
		}
	}
}