{
	"data": {
		"bytecode": {
			"linkReferences": {},
			"object": "60806040523480156200001157600080fd5b5060405162000d7a38038062000d7a833981810160405281019062000037919062000180565b336000806101000a81548173ffffffffffffffffffffffffffffffffffffffff021916908373ffffffffffffffffffffffffffffffffffffffff16021790555081600160006101000a81548173ffffffffffffffffffffffffffffffffffffffff021916908373ffffffffffffffffffffffffffffffffffffffff160217905550806002819055505050620001c7565b600080fd5b600073ffffffffffffffffffffffffffffffffffffffff82169050919050565b6000620000f982620000cc565b9050919050565b60006200010d82620000ec565b9050919050565b6200011f8162000100565b81146200012b57600080fd5b50565b6000815190506200013f8162000114565b92915050565b6000819050919050565b6200015a8162000145565b81146200016657600080fd5b50565b6000815190506200017a816200014f565b92915050565b600080604083850312156200019a5762000199620000c7565b5b6000620001aa858286016200012e565b9250506020620001bd8582860162000169565b9150509250929050565b610ba380620001d76000396000f3fe60806040526004361061004a5760003560e01c80632397e4d71461004f5780632d296bf114610078578063518ab2a8146100945780637ff9b596146100bf578063fc0c546a146100ea575b600080fd5b34801561005b57600080fd5b5061007660048036038101906100719190610626565b610115565b005b610092600480360381019061008d9190610626565b610366565b005b3480156100a057600080fd5b506100a96105b9565b6040516100b69190610662565b60405180910390f35b3480156100cb57600080fd5b506100d46105bf565b6040516100e19190610662565b60405180910390f35b3480156100f657600080fd5b506100ff6105c5565b60405161010c91906106fc565b60405180910390f35b60008111610158576040517f08c379a000000000000000000000000000000000000000000000000000000000815260040161014f9061079a565b60405180910390fd5b6000600160009054906101000a900473ffffffffffffffffffffffffffffffffffffffff1673ffffffffffffffffffffffffffffffffffffffff1663dd62ed3e33306040518363ffffffff1660e01b81526004016101b79291906107db565b602060405180830381865afa1580156101d4573d6000803e3d6000fd5b505050506040513d601f19601f820116820180604052508101906101f89190610819565b90508181101561023d576040517f08c379a000000000000000000000000000000000000000000000000000000000815260040161023490610892565b60405180910390fd5b600160009054906101000a900473ffffffffffffffffffffffffffffffffffffffff1673ffffffffffffffffffffffffffffffffffffffff166323b872dd3330856040518463ffffffff1660e01b815260040161029c939291906108b2565b6020604051808303816000875af11580156102bb573d6000803e3d6000fd5b505050506040513d601f19601f820116820180604052508101906102df9190610921565b503373ffffffffffffffffffffffffffffffffffffffff166108fc839081150290604051600060405180830381858888f19350505050158015610326573d6000803e3d6000fd5b507fae98fdb7f4bc601d31354dd8c8ba584bf892418c4df67aba01011867bd88ea2733308460405161035a939291906108b2565b60405180910390a15050565b600034116103a9576040517f08c379a00000000000000000000000000000000000000000000000000000000081526004016103a09061099a565b60405180910390fd5b6000600160009054906101000a900473ffffffffffffffffffffffffffffffffffffffff1673ffffffffffffffffffffffffffffffffffffffff166370a08231306040518263ffffffff1660e01b815260040161040691906109ba565b602060405180830381865afa158015610423573d6000803e3d6000fd5b505050506040513d601f19601f820116820180604052508101906104479190610819565b90508034111561048c576040517f08c379a000000000000000000000000000000000000000000000000000000000815260040161048390610a21565b60405180910390fd5b6002548261049a9190610a70565b34146104db576040517f08c379a00000000000000000000000000000000000000000000000000000000081526004016104d290610b24565b60405180910390fd5b600160009054906101000a900473ffffffffffffffffffffffffffffffffffffffff1673ffffffffffffffffffffffffffffffffffffffff1663a9059cbb33846040518363ffffffff1660e01b8152600401610538929190610b44565b6020604051808303816000875af1158015610557573d6000803e3d6000fd5b505050506040513d601f19601f8201168201806040525081019061057b9190610921565b507fe3d4187f6ca4248660cc0ac8b8056515bac4a8132be2eca31d6d0cc170722a7e33836040516105ad929190610b44565b60405180910390a15050565b60035481565b60025481565b600160009054906101000a900473ffffffffffffffffffffffffffffffffffffffff1681565b600080fd5b6000819050919050565b610603816105f0565b811461060e57600080fd5b50565b600081359050610620816105fa565b92915050565b60006020828403121561063c5761063b6105eb565b5b600061064a84828501610611565b91505092915050565b61065c816105f0565b82525050565b60006020820190506106776000830184610653565b92915050565b600073ffffffffffffffffffffffffffffffffffffffff82169050919050565b6000819050919050565b60006106c26106bd6106b88461067d565b61069d565b61067d565b9050919050565b60006106d4826106a7565b9050919050565b60006106e6826106c9565b9050919050565b6106f6816106db565b82525050565b600060208201905061071160008301846106ed565b92915050565b600082825260208201905092915050565b7f596f75206e65656420746f2073656c6c206174206c6561737420736f6d65207460008201527f6f6b656e73000000000000000000000000000000000000000000000000000000602082015250565b6000610784602583610717565b915061078f82610728565b604082019050919050565b600060208201905081810360008301526107b381610777565b9050919050565b60006107c58261067d565b9050919050565b6107d5816107ba565b82525050565b60006040820190506107f060008301856107cc565b6107fd60208301846107cc565b9392505050565b600081519050610813816105fa565b92915050565b60006020828403121561082f5761082e6105eb565b5b600061083d84828501610804565b91505092915050565b7f436865636b2074686520746f6b656e20616c6c6f77616e636500000000000000600082015250565b600061087c601983610717565b915061088782610846565b602082019050919050565b600060208201905081810360008301526108ab8161086f565b9050919050565b60006060820190506108c760008301866107cc565b6108d460208301856107cc565b6108e16040830184610653565b949350505050565b60008115159050919050565b6108fe816108e9565b811461090957600080fd5b50565b60008151905061091b816108f5565b92915050565b600060208284031215610937576109366105eb565b5b60006109458482850161090c565b91505092915050565b7f596f75206e65656420746f2073656e6420736f6d652065746865727300000000600082015250565b6000610984601c83610717565b915061098f8261094e565b602082019050919050565b600060208201905081810360008301526109b381610977565b9050919050565b60006020820190506109cf60008301846107cc565b92915050565b7f4e6f7420656e6f75676820746f6b656e7320696e207468652072657365727665600082015250565b6000610a0b602083610717565b9150610a16826109d5565b602082019050919050565b60006020820190508181036000830152610a3a816109fe565b9050919050565b7f4e487b7100000000000000000000000000000000000000000000000000000000600052601160045260246000fd5b6000610a7b826105f0565b9150610a86836105f0565b9250828202610a94816105f0565b91508282048414831517610aab57610aaa610a41565b5b5092915050565b7f596f75206e65656420746f2073656e64206574686572206163636f7264696e6760008201527f20746f2063757272656e74207072696365206f6620746f6b656e000000000000602082015250565b6000610b0e603a83610717565b9150610b1982610ab2565b604082019050919050565b60006020820190508181036000830152610b3d81610b01565b9050919050565b6000604082019050610b5960008301856107cc565b610b666020830184610653565b939250505056fea26469706673582212201acf0bd3dc948fe2b1052e087b6e232aea29ceb016e1283a4bef102f84c658e664736f6c63430008120033",
			"opcodes": "PUSH1 0x80 PUSH1 0x40 MSTORE CALLVALUE DUP1 ISZERO PUSH3 0x11 JUMPI PUSH1 0x0 DUP1 REVERT JUMPDEST POP PUSH1 0x40 MLOAD PUSH3 0xD7A CODESIZE SUB DUP1 PUSH3 0xD7A DUP4 CODECOPY DUP2 DUP2 ADD PUSH1 0x40 MSTORE DUP2 ADD SWAP1 PUSH3 0x37 SWAP2 SWAP1 PUSH3 0x180 JUMP JUMPDEST CALLER PUSH1 0x0 DUP1 PUSH2 0x100 EXP DUP2 SLOAD DUP2 PUSH20 0xFFFFFFFFFFFFFFFFFFFFFFFFFFFFFFFFFFFFFFFF MUL NOT AND SWAP1 DUP4 PUSH20 0xFFFFFFFFFFFFFFFFFFFFFFFFFFFFFFFFFFFFFFFF AND MUL OR SWAP1 SSTORE POP DUP2 PUSH1 0x1 PUSH1 0x0 PUSH2 0x100 EXP DUP2 SLOAD DUP2 PUSH20 0xFFFFFFFFFFFFFFFFFFFFFFFFFFFFFFFFFFFFFFFF MUL NOT AND SWAP1 DUP4 PUSH20 0xFFFFFFFFFFFFFFFFFFFFFFFFFFFFFFFFFFFFFFFF AND MUL OR SWAP1 SSTORE POP DUP1 PUSH1 0x2 DUP2 SWAP1 SSTORE POP POP POP PUSH3 0x1C7 JUMP JUMPDEST PUSH1 0x0 DUP1 REVERT JUMPDEST PUSH1 0x0 PUSH20 0xFFFFFFFFFFFFFFFFFFFFFFFFFFFFFFFFFFFFFFFF DUP3 AND SWAP1 POP SWAP2 SWAP1 POP JUMP JUMPDEST PUSH1 0x0 PUSH3 0xF9 DUP3 PUSH3 0xCC JUMP JUMPDEST SWAP1 POP SWAP2 SWAP1 POP JUMP JUMPDEST PUSH1 0x0 PUSH3 0x10D DUP3 PUSH3 0xEC JUMP JUMPDEST SWAP1 POP SWAP2 SWAP1 POP JUMP JUMPDEST PUSH3 0x11F DUP2 PUSH3 0x100 JUMP JUMPDEST DUP2 EQ PUSH3 0x12B JUMPI PUSH1 0x0 DUP1 REVERT JUMPDEST POP JUMP JUMPDEST PUSH1 0x0 DUP2 MLOAD SWAP1 POP PUSH3 0x13F DUP2 PUSH3 0x114 JUMP JUMPDEST SWAP3 SWAP2 POP POP JUMP JUMPDEST PUSH1 0x0 DUP2 SWAP1 POP SWAP2 SWAP1 POP JUMP JUMPDEST PUSH3 0x15A DUP2 PUSH3 0x145 JUMP JUMPDEST DUP2 EQ PUSH3 0x166 JUMPI PUSH1 0x0 DUP1 REVERT JUMPDEST POP JUMP JUMPDEST PUSH1 0x0 DUP2 MLOAD SWAP1 POP PUSH3 0x17A DUP2 PUSH3 0x14F JUMP JUMPDEST SWAP3 SWAP2 POP POP JUMP JUMPDEST PUSH1 0x0 DUP1 PUSH1 0x40 DUP4 DUP6 SUB SLT ISZERO PUSH3 0x19A JUMPI PUSH3 0x199 PUSH3 0xC7 JUMP JUMPDEST JUMPDEST PUSH1 0x0 PUSH3 0x1AA DUP6 DUP3 DUP7 ADD PUSH3 0x12E JUMP JUMPDEST SWAP3 POP POP PUSH1 0x20 PUSH3 0x1BD DUP6 DUP3 DUP7 ADD PUSH3 0x169 JUMP JUMPDEST SWAP2 POP POP SWAP3 POP SWAP3 SWAP1 POP JUMP JUMPDEST PUSH2 0xBA3 DUP1 PUSH3 0x1D7 PUSH1 0x0 CODECOPY PUSH1 0x0 RETURN INVALID PUSH1 0x80 PUSH1 0x40 MSTORE PUSH1 0x4 CALLDATASIZE LT PUSH2 0x4A JUMPI PUSH1 0x0 CALLDATALOAD PUSH1 0xE0 SHR DUP1 PUSH4 0x2397E4D7 EQ PUSH2 0x4F JUMPI DUP1 PUSH4 0x2D296BF1 EQ PUSH2 0x78 JUMPI DUP1 PUSH4 0x518AB2A8 EQ PUSH2 0x94 JUMPI DUP1 PUSH4 0x7FF9B596 EQ PUSH2 0xBF JUMPI DUP1 PUSH4 0xFC0C546A EQ PUSH2 0xEA JUMPI JUMPDEST PUSH1 0x0 DUP1 REVERT JUMPDEST CALLVALUE DUP1 ISZERO PUSH2 0x5B JUMPI PUSH1 0x0 DUP1 REVERT JUMPDEST POP PUSH2 0x76 PUSH1 0x4 DUP1 CALLDATASIZE SUB DUP2 ADD SWAP1 PUSH2 0x71 SWAP2 SWAP1 PUSH2 0x626 JUMP JUMPDEST PUSH2 0x115 JUMP JUMPDEST STOP JUMPDEST PUSH2 0x92 PUSH1 0x4 DUP1 CALLDATASIZE SUB DUP2 ADD SWAP1 PUSH2 0x8D SWAP2 SWAP1 PUSH2 0x626 JUMP JUMPDEST PUSH2 0x366 JUMP JUMPDEST STOP JUMPDEST CALLVALUE DUP1 ISZERO PUSH2 0xA0 JUMPI PUSH1 0x0 DUP1 REVERT JUMPDEST POP PUSH2 0xA9 PUSH2 0x5B9 JUMP JUMPDEST PUSH1 0x40 MLOAD PUSH2 0xB6 SWAP2 SWAP1 PUSH2 0x662 JUMP JUMPDEST PUSH1 0x40 MLOAD DUP1 SWAP2 SUB SWAP1 RETURN JUMPDEST CALLVALUE DUP1 ISZERO PUSH2 0xCB JUMPI PUSH1 0x0 DUP1 REVERT JUMPDEST POP PUSH2 0xD4 PUSH2 0x5BF JUMP JUMPDEST PUSH1 0x40 MLOAD PUSH2 0xE1 SWAP2 SWAP1 PUSH2 0x662 JUMP JUMPDEST PUSH1 0x40 MLOAD DUP1 SWAP2 SUB SWAP1 RETURN JUMPDEST CALLVALUE DUP1 ISZERO PUSH2 0xF6 JUMPI PUSH1 0x0 DUP1 REVERT JUMPDEST POP PUSH2 0xFF PUSH2 0x5C5 JUMP JUMPDEST PUSH1 0x40 MLOAD PUSH2 0x10C SWAP2 SWAP1 PUSH2 0x6FC JUMP JUMPDEST PUSH1 0x40 MLOAD DUP1 SWAP2 SUB SWAP1 RETURN JUMPDEST PUSH1 0x0 DUP2 GT PUSH2 0x158 JUMPI PUSH1 0x40 MLOAD PUSH32 0x8C379A000000000000000000000000000000000000000000000000000000000 DUP2 MSTORE PUSH1 0x4 ADD PUSH2 0x14F SWAP1 PUSH2 0x79A JUMP JUMPDEST PUSH1 0x40 MLOAD DUP1 SWAP2 SUB SWAP1 REVERT JUMPDEST PUSH1 0x0 PUSH1 0x1 PUSH1 0x0 SWAP1 SLOAD SWAP1 PUSH2 0x100 EXP SWAP1 DIV PUSH20 0xFFFFFFFFFFFFFFFFFFFFFFFFFFFFFFFFFFFFFFFF AND PUSH20 0xFFFFFFFFFFFFFFFFFFFFFFFFFFFFFFFFFFFFFFFF AND PUSH4 0xDD62ED3E CALLER ADDRESS PUSH1 0x40 MLOAD DUP4 PUSH4 0xFFFFFFFF AND PUSH1 0xE0 SHL DUP2 MSTORE PUSH1 0x4 ADD PUSH2 0x1B7 SWAP3 SWAP2 SWAP1 PUSH2 0x7DB JUMP JUMPDEST PUSH1 0x20 PUSH1 0x40 MLOAD DUP1 DUP4 SUB DUP2 DUP7 GAS STATICCALL ISZERO DUP1 ISZERO PUSH2 0x1D4 JUMPI RETURNDATASIZE PUSH1 0x0 DUP1 RETURNDATACOPY RETURNDATASIZE PUSH1 0x0 REVERT JUMPDEST POP POP POP POP PUSH1 0x40 MLOAD RETURNDATASIZE PUSH1 0x1F NOT PUSH1 0x1F DUP3 ADD AND DUP3 ADD DUP1 PUSH1 0x40 MSTORE POP DUP2 ADD SWAP1 PUSH2 0x1F8 SWAP2 SWAP1 PUSH2 0x819 JUMP JUMPDEST SWAP1 POP DUP2 DUP2 LT ISZERO PUSH2 0x23D JUMPI PUSH1 0x40 MLOAD PUSH32 0x8C379A000000000000000000000000000000000000000000000000000000000 DUP2 MSTORE PUSH1 0x4 ADD PUSH2 0x234 SWAP1 PUSH2 0x892 JUMP JUMPDEST PUSH1 0x40 MLOAD DUP1 SWAP2 SUB SWAP1 REVERT JUMPDEST PUSH1 0x1 PUSH1 0x0 SWAP1 SLOAD SWAP1 PUSH2 0x100 EXP SWAP1 DIV PUSH20 0xFFFFFFFFFFFFFFFFFFFFFFFFFFFFFFFFFFFFFFFF AND PUSH20 0xFFFFFFFFFFFFFFFFFFFFFFFFFFFFFFFFFFFFFFFF AND PUSH4 0x23B872DD CALLER ADDRESS DUP6 PUSH1 0x40 MLOAD DUP5 PUSH4 0xFFFFFFFF AND PUSH1 0xE0 SHL DUP2 MSTORE PUSH1 0x4 ADD PUSH2 0x29C SWAP4 SWAP3 SWAP2 SWAP1 PUSH2 0x8B2 JUMP JUMPDEST PUSH1 0x20 PUSH1 0x40 MLOAD DUP1 DUP4 SUB DUP2 PUSH1 0x0 DUP8 GAS CALL ISZERO DUP1 ISZERO PUSH2 0x2BB JUMPI RETURNDATASIZE PUSH1 0x0 DUP1 RETURNDATACOPY RETURNDATASIZE PUSH1 0x0 REVERT JUMPDEST POP POP POP POP PUSH1 0x40 MLOAD RETURNDATASIZE PUSH1 0x1F NOT PUSH1 0x1F DUP3 ADD AND DUP3 ADD DUP1 PUSH1 0x40 MSTORE POP DUP2 ADD SWAP1 PUSH2 0x2DF SWAP2 SWAP1 PUSH2 0x921 JUMP JUMPDEST POP CALLER PUSH20 0xFFFFFFFFFFFFFFFFFFFFFFFFFFFFFFFFFFFFFFFF AND PUSH2 0x8FC DUP4 SWAP1 DUP2 ISZERO MUL SWAP1 PUSH1 0x40 MLOAD PUSH1 0x0 PUSH1 0x40 MLOAD DUP1 DUP4 SUB DUP2 DUP6 DUP9 DUP9 CALL SWAP4 POP POP POP POP ISZERO DUP1 ISZERO PUSH2 0x326 JUMPI RETURNDATASIZE PUSH1 0x0 DUP1 RETURNDATACOPY RETURNDATASIZE PUSH1 0x0 REVERT JUMPDEST POP PUSH32 0xAE98FDB7F4BC601D31354DD8C8BA584BF892418C4DF67ABA01011867BD88EA27 CALLER ADDRESS DUP5 PUSH1 0x40 MLOAD PUSH2 0x35A SWAP4 SWAP3 SWAP2 SWAP1 PUSH2 0x8B2 JUMP JUMPDEST PUSH1 0x40 MLOAD DUP1 SWAP2 SUB SWAP1 LOG1 POP POP JUMP JUMPDEST PUSH1 0x0 CALLVALUE GT PUSH2 0x3A9 JUMPI PUSH1 0x40 MLOAD PUSH32 0x8C379A000000000000000000000000000000000000000000000000000000000 DUP2 MSTORE PUSH1 0x4 ADD PUSH2 0x3A0 SWAP1 PUSH2 0x99A JUMP JUMPDEST PUSH1 0x40 MLOAD DUP1 SWAP2 SUB SWAP1 REVERT JUMPDEST PUSH1 0x0 PUSH1 0x1 PUSH1 0x0 SWAP1 SLOAD SWAP1 PUSH2 0x100 EXP SWAP1 DIV PUSH20 0xFFFFFFFFFFFFFFFFFFFFFFFFFFFFFFFFFFFFFFFF AND PUSH20 0xFFFFFFFFFFFFFFFFFFFFFFFFFFFFFFFFFFFFFFFF AND PUSH4 0x70A08231 ADDRESS PUSH1 0x40 MLOAD DUP3 PUSH4 0xFFFFFFFF AND PUSH1 0xE0 SHL DUP2 MSTORE PUSH1 0x4 ADD PUSH2 0x406 SWAP2 SWAP1 PUSH2 0x9BA JUMP JUMPDEST PUSH1 0x20 PUSH1 0x40 MLOAD DUP1 DUP4 SUB DUP2 DUP7 GAS STATICCALL ISZERO DUP1 ISZERO PUSH2 0x423 JUMPI RETURNDATASIZE PUSH1 0x0 DUP1 RETURNDATACOPY RETURNDATASIZE PUSH1 0x0 REVERT JUMPDEST POP POP POP POP PUSH1 0x40 MLOAD RETURNDATASIZE PUSH1 0x1F NOT PUSH1 0x1F DUP3 ADD AND DUP3 ADD DUP1 PUSH1 0x40 MSTORE POP DUP2 ADD SWAP1 PUSH2 0x447 SWAP2 SWAP1 PUSH2 0x819 JUMP JUMPDEST SWAP1 POP DUP1 CALLVALUE GT ISZERO PUSH2 0x48C JUMPI PUSH1 0x40 MLOAD PUSH32 0x8C379A000000000000000000000000000000000000000000000000000000000 DUP2 MSTORE PUSH1 0x4 ADD PUSH2 0x483 SWAP1 PUSH2 0xA21 JUMP JUMPDEST PUSH1 0x40 MLOAD DUP1 SWAP2 SUB SWAP1 REVERT JUMPDEST PUSH1 0x2 SLOAD DUP3 PUSH2 0x49A SWAP2 SWAP1 PUSH2 0xA70 JUMP JUMPDEST CALLVALUE EQ PUSH2 0x4DB JUMPI PUSH1 0x40 MLOAD PUSH32 0x8C379A000000000000000000000000000000000000000000000000000000000 DUP2 MSTORE PUSH1 0x4 ADD PUSH2 0x4D2 SWAP1 PUSH2 0xB24 JUMP JUMPDEST PUSH1 0x40 MLOAD DUP1 SWAP2 SUB SWAP1 REVERT JUMPDEST PUSH1 0x1 PUSH1 0x0 SWAP1 SLOAD SWAP1 PUSH2 0x100 EXP SWAP1 DIV PUSH20 0xFFFFFFFFFFFFFFFFFFFFFFFFFFFFFFFFFFFFFFFF AND PUSH20 0xFFFFFFFFFFFFFFFFFFFFFFFFFFFFFFFFFFFFFFFF AND PUSH4 0xA9059CBB CALLER DUP5 PUSH1 0x40 MLOAD DUP4 PUSH4 0xFFFFFFFF AND PUSH1 0xE0 SHL DUP2 MSTORE PUSH1 0x4 ADD PUSH2 0x538 SWAP3 SWAP2 SWAP1 PUSH2 0xB44 JUMP JUMPDEST PUSH1 0x20 PUSH1 0x40 MLOAD DUP1 DUP4 SUB DUP2 PUSH1 0x0 DUP8 GAS CALL ISZERO DUP1 ISZERO PUSH2 0x557 JUMPI RETURNDATASIZE PUSH1 0x0 DUP1 RETURNDATACOPY RETURNDATASIZE PUSH1 0x0 REVERT JUMPDEST POP POP POP POP PUSH1 0x40 MLOAD RETURNDATASIZE PUSH1 0x1F NOT PUSH1 0x1F DUP3 ADD AND DUP3 ADD DUP1 PUSH1 0x40 MSTORE POP DUP2 ADD SWAP1 PUSH2 0x57B SWAP2 SWAP1 PUSH2 0x921 JUMP JUMPDEST POP PUSH32 0xE3D4187F6CA4248660CC0AC8B8056515BAC4A8132BE2ECA31D6D0CC170722A7E CALLER DUP4 PUSH1 0x40 MLOAD PUSH2 0x5AD SWAP3 SWAP2 SWAP1 PUSH2 0xB44 JUMP JUMPDEST PUSH1 0x40 MLOAD DUP1 SWAP2 SUB SWAP1 LOG1 POP POP JUMP JUMPDEST PUSH1 0x3 SLOAD DUP2 JUMP JUMPDEST PUSH1 0x2 SLOAD DUP2 JUMP JUMPDEST PUSH1 0x1 PUSH1 0x0 SWAP1 SLOAD SWAP1 PUSH2 0x100 EXP SWAP1 DIV PUSH20 0xFFFFFFFFFFFFFFFFFFFFFFFFFFFFFFFFFFFFFFFF AND DUP2 JUMP JUMPDEST PUSH1 0x0 DUP1 REVERT JUMPDEST PUSH1 0x0 DUP2 SWAP1 POP SWAP2 SWAP1 POP JUMP JUMPDEST PUSH2 0x603 DUP2 PUSH2 0x5F0 JUMP JUMPDEST DUP2 EQ PUSH2 0x60E JUMPI PUSH1 0x0 DUP1 REVERT JUMPDEST POP JUMP JUMPDEST PUSH1 0x0 DUP2 CALLDATALOAD SWAP1 POP PUSH2 0x620 DUP2 PUSH2 0x5FA JUMP JUMPDEST SWAP3 SWAP2 POP POP JUMP JUMPDEST PUSH1 0x0 PUSH1 0x20 DUP3 DUP5 SUB SLT ISZERO PUSH2 0x63C JUMPI PUSH2 0x63B PUSH2 0x5EB JUMP JUMPDEST JUMPDEST PUSH1 0x0 PUSH2 0x64A DUP5 DUP3 DUP6 ADD PUSH2 0x611 JUMP JUMPDEST SWAP2 POP POP SWAP3 SWAP2 POP POP JUMP JUMPDEST PUSH2 0x65C DUP2 PUSH2 0x5F0 JUMP JUMPDEST DUP3 MSTORE POP POP JUMP JUMPDEST PUSH1 0x0 PUSH1 0x20 DUP3 ADD SWAP1 POP PUSH2 0x677 PUSH1 0x0 DUP4 ADD DUP5 PUSH2 0x653 JUMP JUMPDEST SWAP3 SWAP2 POP POP JUMP JUMPDEST PUSH1 0x0 PUSH20 0xFFFFFFFFFFFFFFFFFFFFFFFFFFFFFFFFFFFFFFFF DUP3 AND SWAP1 POP SWAP2 SWAP1 POP JUMP JUMPDEST PUSH1 0x0 DUP2 SWAP1 POP SWAP2 SWAP1 POP JUMP JUMPDEST PUSH1 0x0 PUSH2 0x6C2 PUSH2 0x6BD PUSH2 0x6B8 DUP5 PUSH2 0x67D JUMP JUMPDEST PUSH2 0x69D JUMP JUMPDEST PUSH2 0x67D JUMP JUMPDEST SWAP1 POP SWAP2 SWAP1 POP JUMP JUMPDEST PUSH1 0x0 PUSH2 0x6D4 DUP3 PUSH2 0x6A7 JUMP JUMPDEST SWAP1 POP SWAP2 SWAP1 POP JUMP JUMPDEST PUSH1 0x0 PUSH2 0x6E6 DUP3 PUSH2 0x6C9 JUMP JUMPDEST SWAP1 POP SWAP2 SWAP1 POP JUMP JUMPDEST PUSH2 0x6F6 DUP2 PUSH2 0x6DB JUMP JUMPDEST DUP3 MSTORE POP POP JUMP JUMPDEST PUSH1 0x0 PUSH1 0x20 DUP3 ADD SWAP1 POP PUSH2 0x711 PUSH1 0x0 DUP4 ADD DUP5 PUSH2 0x6ED JUMP JUMPDEST SWAP3 SWAP2 POP POP JUMP JUMPDEST PUSH1 0x0 DUP3 DUP3 MSTORE PUSH1 0x20 DUP3 ADD SWAP1 POP SWAP3 SWAP2 POP POP JUMP JUMPDEST PUSH32 0x596F75206E65656420746F2073656C6C206174206C6561737420736F6D652074 PUSH1 0x0 DUP3 ADD MSTORE PUSH32 0x6F6B656E73000000000000000000000000000000000000000000000000000000 PUSH1 0x20 DUP3 ADD MSTORE POP JUMP JUMPDEST PUSH1 0x0 PUSH2 0x784 PUSH1 0x25 DUP4 PUSH2 0x717 JUMP JUMPDEST SWAP2 POP PUSH2 0x78F DUP3 PUSH2 0x728 JUMP JUMPDEST PUSH1 0x40 DUP3 ADD SWAP1 POP SWAP2 SWAP1 POP JUMP JUMPDEST PUSH1 0x0 PUSH1 0x20 DUP3 ADD SWAP1 POP DUP2 DUP2 SUB PUSH1 0x0 DUP4 ADD MSTORE PUSH2 0x7B3 DUP2 PUSH2 0x777 JUMP JUMPDEST SWAP1 POP SWAP2 SWAP1 POP JUMP JUMPDEST PUSH1 0x0 PUSH2 0x7C5 DUP3 PUSH2 0x67D JUMP JUMPDEST SWAP1 POP SWAP2 SWAP1 POP JUMP JUMPDEST PUSH2 0x7D5 DUP2 PUSH2 0x7BA JUMP JUMPDEST DUP3 MSTORE POP POP JUMP JUMPDEST PUSH1 0x0 PUSH1 0x40 DUP3 ADD SWAP1 POP PUSH2 0x7F0 PUSH1 0x0 DUP4 ADD DUP6 PUSH2 0x7CC JUMP JUMPDEST PUSH2 0x7FD PUSH1 0x20 DUP4 ADD DUP5 PUSH2 0x7CC JUMP JUMPDEST SWAP4 SWAP3 POP POP POP JUMP JUMPDEST PUSH1 0x0 DUP2 MLOAD SWAP1 POP PUSH2 0x813 DUP2 PUSH2 0x5FA JUMP JUMPDEST SWAP3 SWAP2 POP POP JUMP JUMPDEST PUSH1 0x0 PUSH1 0x20 DUP3 DUP5 SUB SLT ISZERO PUSH2 0x82F JUMPI PUSH2 0x82E PUSH2 0x5EB JUMP JUMPDEST JUMPDEST PUSH1 0x0 PUSH2 0x83D DUP5 DUP3 DUP6 ADD PUSH2 0x804 JUMP JUMPDEST SWAP2 POP POP SWAP3 SWAP2 POP POP JUMP JUMPDEST PUSH32 0x436865636B2074686520746F6B656E20616C6C6F77616E636500000000000000 PUSH1 0x0 DUP3 ADD MSTORE POP JUMP JUMPDEST PUSH1 0x0 PUSH2 0x87C PUSH1 0x19 DUP4 PUSH2 0x717 JUMP JUMPDEST SWAP2 POP PUSH2 0x887 DUP3 PUSH2 0x846 JUMP JUMPDEST PUSH1 0x20 DUP3 ADD SWAP1 POP SWAP2 SWAP1 POP JUMP JUMPDEST PUSH1 0x0 PUSH1 0x20 DUP3 ADD SWAP1 POP DUP2 DUP2 SUB PUSH1 0x0 DUP4 ADD MSTORE PUSH2 0x8AB DUP2 PUSH2 0x86F JUMP JUMPDEST SWAP1 POP SWAP2 SWAP1 POP JUMP JUMPDEST PUSH1 0x0 PUSH1 0x60 DUP3 ADD SWAP1 POP PUSH2 0x8C7 PUSH1 0x0 DUP4 ADD DUP7 PUSH2 0x7CC JUMP JUMPDEST PUSH2 0x8D4 PUSH1 0x20 DUP4 ADD DUP6 PUSH2 0x7CC JUMP JUMPDEST PUSH2 0x8E1 PUSH1 0x40 DUP4 ADD DUP5 PUSH2 0x653 JUMP JUMPDEST SWAP5 SWAP4 POP POP POP POP JUMP JUMPDEST PUSH1 0x0 DUP2 ISZERO ISZERO SWAP1 POP SWAP2 SWAP1 POP JUMP JUMPDEST PUSH2 0x8FE DUP2 PUSH2 0x8E9 JUMP JUMPDEST DUP2 EQ PUSH2 0x909 JUMPI PUSH1 0x0 DUP1 REVERT JUMPDEST POP JUMP JUMPDEST PUSH1 0x0 DUP2 MLOAD SWAP1 POP PUSH2 0x91B DUP2 PUSH2 0x8F5 JUMP JUMPDEST SWAP3 SWAP2 POP POP JUMP JUMPDEST PUSH1 0x0 PUSH1 0x20 DUP3 DUP5 SUB SLT ISZERO PUSH2 0x937 JUMPI PUSH2 0x936 PUSH2 0x5EB JUMP JUMPDEST JUMPDEST PUSH1 0x0 PUSH2 0x945 DUP5 DUP3 DUP6 ADD PUSH2 0x90C JUMP JUMPDEST SWAP2 POP POP SWAP3 SWAP2 POP POP JUMP JUMPDEST PUSH32 0x596F75206E65656420746F2073656E6420736F6D652065746865727300000000 PUSH1 0x0 DUP3 ADD MSTORE POP JUMP JUMPDEST PUSH1 0x0 PUSH2 0x984 PUSH1 0x1C DUP4 PUSH2 0x717 JUMP JUMPDEST SWAP2 POP PUSH2 0x98F DUP3 PUSH2 0x94E JUMP JUMPDEST PUSH1 0x20 DUP3 ADD SWAP1 POP SWAP2 SWAP1 POP JUMP JUMPDEST PUSH1 0x0 PUSH1 0x20 DUP3 ADD SWAP1 POP DUP2 DUP2 SUB PUSH1 0x0 DUP4 ADD MSTORE PUSH2 0x9B3 DUP2 PUSH2 0x977 JUMP JUMPDEST SWAP1 POP SWAP2 SWAP1 POP JUMP JUMPDEST PUSH1 0x0 PUSH1 0x20 DUP3 ADD SWAP1 POP PUSH2 0x9CF PUSH1 0x0 DUP4 ADD DUP5 PUSH2 0x7CC JUMP JUMPDEST SWAP3 SWAP2 POP POP JUMP JUMPDEST PUSH32 0x4E6F7420656E6F75676820746F6B656E7320696E207468652072657365727665 PUSH1 0x0 DUP3 ADD MSTORE POP JUMP JUMPDEST PUSH1 0x0 PUSH2 0xA0B PUSH1 0x20 DUP4 PUSH2 0x717 JUMP JUMPDEST SWAP2 POP PUSH2 0xA16 DUP3 PUSH2 0x9D5 JUMP JUMPDEST PUSH1 0x20 DUP3 ADD SWAP1 POP SWAP2 SWAP1 POP JUMP JUMPDEST PUSH1 0x0 PUSH1 0x20 DUP3 ADD SWAP1 POP DUP2 DUP2 SUB PUSH1 0x0 DUP4 ADD MSTORE PUSH2 0xA3A DUP2 PUSH2 0x9FE JUMP JUMPDEST SWAP1 POP SWAP2 SWAP1 POP JUMP JUMPDEST PUSH32 0x4E487B7100000000000000000000000000000000000000000000000000000000 PUSH1 0x0 MSTORE PUSH1 0x11 PUSH1 0x4 MSTORE PUSH1 0x24 PUSH1 0x0 REVERT JUMPDEST PUSH1 0x0 PUSH2 0xA7B DUP3 PUSH2 0x5F0 JUMP JUMPDEST SWAP2 POP PUSH2 0xA86 DUP4 PUSH2 0x5F0 JUMP JUMPDEST SWAP3 POP DUP3 DUP3 MUL PUSH2 0xA94 DUP2 PUSH2 0x5F0 JUMP JUMPDEST SWAP2 POP DUP3 DUP3 DIV DUP5 EQ DUP4 ISZERO OR PUSH2 0xAAB JUMPI PUSH2 0xAAA PUSH2 0xA41 JUMP JUMPDEST JUMPDEST POP SWAP3 SWAP2 POP POP JUMP JUMPDEST PUSH32 0x596F75206E65656420746F2073656E64206574686572206163636F7264696E67 PUSH1 0x0 DUP3 ADD MSTORE PUSH32 0x20746F2063757272656E74207072696365206F6620746F6B656E000000000000 PUSH1 0x20 DUP3 ADD MSTORE POP JUMP JUMPDEST PUSH1 0x0 PUSH2 0xB0E PUSH1 0x3A DUP4 PUSH2 0x717 JUMP JUMPDEST SWAP2 POP PUSH2 0xB19 DUP3 PUSH2 0xAB2 JUMP JUMPDEST PUSH1 0x40 DUP3 ADD SWAP1 POP SWAP2 SWAP1 POP JUMP JUMPDEST PUSH1 0x0 PUSH1 0x20 DUP3 ADD SWAP1 POP DUP2 DUP2 SUB PUSH1 0x0 DUP4 ADD MSTORE PUSH2 0xB3D DUP2 PUSH2 0xB01 JUMP JUMPDEST SWAP1 POP SWAP2 SWAP1 POP JUMP JUMPDEST PUSH1 0x0 PUSH1 0x40 DUP3 ADD SWAP1 POP PUSH2 0xB59 PUSH1 0x0 DUP4 ADD DUP6 PUSH2 0x7CC JUMP JUMPDEST PUSH2 0xB66 PUSH1 0x20 DUP4 ADD DUP5 PUSH2 0x653 JUMP JUMPDEST SWAP4 SWAP3 POP POP POP JUMP INVALID LOG2 PUSH5 0x6970667358 0x22 SLT KECCAK256 BYTE 0xCF SIGNEXTEND 0xD3 0xDC SWAP5 DUP16 0xE2 0xB1 SDIV 0x2E ADDMOD PUSH28 0x6E232AEA29CEB016E1283A4BEF102F84C658E664736F6C6343000812 STOP CALLER "
		},
		"gasEstimates": {
			"creation": {
				"codeDepositCost": "595800",
				"executionCost": "infinite",
				"totalCost": "infinite"
			},
			"external": {
				"buyToken(uint256)": "infinite",
				"sellToken(uint256)": "infinite",
				"token()": "infinite",
				"tokenPrice()": "2473",
				"tokensSold()": "2451"
			}
		},
		"methodIdentifiers": {
			"buyToken(uint256)": "2d296bf1",
			"sellToken(uint256)": "2397e4d7",
			"token()": "fc0c546a",
			"tokenPrice()": "7ff9b596",
			"tokensSold()": "518ab2a8"
		}
	},
	"abi": [
		{
			"inputs": [
				{
					"internalType": "contract YourToken",
					"name": "_tokenContract",
					"type": "address"
				},
				{
					"internalType": "uint256",
					"name": "_tokenPrice",
					"type": "uint256"
				}
			],
			"stateMutability": "nonpayable",
			"type": "constructor"
		},
		{
			"anonymous": false,
			"inputs": [
				{
					"indexed": false,
					"internalType": "address",
					"name": "_buyer",
					"type": "address"
				},
				{
					"indexed": false,
					"internalType": "uint256",
					"name": "amount",
					"type": "uint256"
				}
			],
			"name": "Buy",
			"type": "event"
		},
		{
			"anonymous": false,
			"inputs": [
				{
					"indexed": false,
					"internalType": "address",
					"name": "_from",
					"type": "address"
				},
				{
					"indexed": false,
					"internalType": "address",
					"name": "_to",
					"type": "address"
				},
				{
					"indexed": false,
					"internalType": "uint256",
					"name": "amount",
					"type": "uint256"
				}
			],
			"name": "Sell",
			"type": "event"
		},
		{
			"inputs": [
				{
					"internalType": "uint256",
					"name": "_numberOfTokens",
					"type": "uint256"
				}
			],
			"name": "buyToken",
			"outputs": [],
			"stateMutability": "payable",
			"type": "function"
		},
		{
			"inputs": [
				{
					"internalType": "uint256",
					"name": "_numberOfTokens",
					"type": "uint256"
				}
			],
			"name": "sellToken",
			"outputs": [],
			"stateMutability": "nonpayable",
			"type": "function"
		},
		{
			"inputs": [],
			"name": "token",
			"outputs": [
				{
					"internalType": "contract YourToken",
					"name": "",
					"type": "address"
				}
			],
			"stateMutability": "view",
			"type": "function"
		},
		{
			"inputs": [],
			"name": "tokenPrice",
			"outputs": [
				{
					"internalType": "uint256",
					"name": "",
					"type": "uint256"
				}
			],
			"stateMutability": "view",
			"type": "function"
		},
		{
			"inputs": [],
			"name": "tokensSold",
			"outputs": [
				{
					"internalType": "uint256",
					"name": "",
					"type": "uint256"
				}
			],
			"stateMutability": "view",
			"type": "function"
		}
	]
}