{
	"contracts/LotteryWinner/124.sol": {
		"Main": {
			"abi": [
				{
					"inputs": [],
					"stateMutability": "nonpayable",
					"type": "constructor"
				},
				{
					"inputs": [],
					"name": "enter",
					"outputs": [],
					"stateMutability": "payable",
					"type": "function"
				},
				{
					"inputs": [],
					"name": "pickWinner",
					"outputs": [],
					"stateMutability": "payable",
					"type": "function"
				},
				{
					"inputs": [
						{
							"internalType": "uint256",
							"name": "",
							"type": "uint256"
						}
					],
					"name": "players",
					"outputs": [
						{
							"internalType": "address",
							"name": "",
							"type": "address"
						}
					],
					"stateMutability": "view",
					"type": "function"
				}
			],
			"devdoc": {
				"kind": "dev",
				"methods": {},
				"version": 1
			},
			"evm": {
				"assembly": "    /* \"contracts/LotteryWinner/124.sol\":170:1202  contract Main {... */\n  mstore(0x40, 0x80)\n    /* \"contracts/LotteryWinner/124.sol\":242:293  constructor() {... */\n  callvalue\n  dup1\n  iszero\n  tag_1\n  jumpi\n  0x00\n  dup1\n  revert\ntag_1:\n  pop\n    /* \"contracts/LotteryWinner/124.sol\":276:286  msg.sender */\n  caller\n    /* \"contracts/LotteryWinner/124.sol\":266:273  manager */\n  0x01\n  0x00\n    /* \"contracts/LotteryWinner/124.sol\":266:286  manager = msg.sender */\n  0x0100\n  exp\n  dup2\n  sload\n  dup2\n  0xffffffffffffffffffffffffffffffffffffffff\n  mul\n  not\n  and\n  swap1\n  dup4\n  0xffffffffffffffffffffffffffffffffffffffff\n  and\n  mul\n  or\n  swap1\n  sstore\n  pop\n    /* \"contracts/LotteryWinner/124.sol\":170:1202  contract Main {... */\n  dataSize(sub_0)\n  dup1\n  dataOffset(sub_0)\n  0x00\n  codecopy\n  0x00\n  return\nstop\n\nsub_0: assembly {\n        /* \"contracts/LotteryWinner/124.sol\":170:1202  contract Main {... */\n      mstore(0x40, 0x80)\n      jumpi(tag_1, lt(calldatasize, 0x04))\n      shr(0xe0, calldataload(0x00))\n      dup1\n      0x5d495aea\n      eq\n      tag_2\n      jumpi\n      dup1\n      0xe97dcb62\n      eq\n      tag_3\n      jumpi\n      dup1\n      0xf71d96cb\n      eq\n      tag_4\n      jumpi\n    tag_1:\n      0x00\n      dup1\n      revert\n        /* \"contracts/LotteryWinner/124.sol\":944:1200  function pickWinner() payable public {... */\n    tag_2:\n      tag_5\n      tag_6\n      jump\t// in\n    tag_5:\n      stop\n        /* \"contracts/LotteryWinner/124.sol\":673:938  function enter() public payable {... */\n    tag_3:\n      tag_7\n      tag_8\n      jump\t// in\n    tag_7:\n      stop\n        /* \"contracts/LotteryWinner/124.sol\":190:214  address[] public players */\n    tag_4:\n      callvalue\n      dup1\n      iszero\n      tag_9\n      jumpi\n      0x00\n      dup1\n      revert\n    tag_9:\n      pop\n      tag_10\n      0x04\n      dup1\n      calldatasize\n      sub\n      dup2\n      add\n      swap1\n      tag_11\n      swap2\n      swap1\n      tag_12\n      jump\t// in\n    tag_11:\n      tag_13\n      jump\t// in\n    tag_10:\n      mload(0x40)\n      tag_14\n      swap2\n      swap1\n      tag_15\n      jump\t// in\n    tag_14:\n      mload(0x40)\n      dup1\n      swap2\n      sub\n      swap1\n      return\n        /* \"contracts/LotteryWinner/124.sol\":944:1200  function pickWinner() payable public {... */\n    tag_6:\n        /* \"contracts/LotteryWinner/124.sol\":1010:1020  msg.sender */\n      caller\n        /* \"contracts/LotteryWinner/124.sol\":999:1020  manager == msg.sender */\n      0xffffffffffffffffffffffffffffffffffffffff\n      and\n        /* \"contracts/LotteryWinner/124.sol\":999:1006  manager */\n      0x01\n      0x00\n      swap1\n      sload\n      swap1\n      0x0100\n      exp\n      swap1\n      div\n      0xffffffffffffffffffffffffffffffffffffffff\n      and\n        /* \"contracts/LotteryWinner/124.sol\":999:1020  manager == msg.sender */\n      0xffffffffffffffffffffffffffffffffffffffff\n      and\n      eq\n        /* \"contracts/LotteryWinner/124.sol\":991:1044  require(manager == msg.sender, \"You can not access.\") */\n      tag_17\n      jumpi\n      mload(0x40)\n      0x08c379a000000000000000000000000000000000000000000000000000000000\n      dup2\n      mstore\n      0x04\n      add\n      tag_18\n      swap1\n      tag_19\n      jump\t// in\n    tag_18:\n      mload(0x40)\n      dup1\n      swap2\n      sub\n      swap1\n      revert\n    tag_17:\n        /* \"contracts/LotteryWinner/124.sol\":1054:1064  uint index */\n      0x00\n        /* \"contracts/LotteryWinner/124.sol\":1078:1085  players */\n      dup1\n        /* \"contracts/LotteryWinner/124.sol\":1078:1092  players.length */\n      dup1\n      sload\n      swap1\n      pop\n        /* \"contracts/LotteryWinner/124.sol\":1067:1075  random() */\n      tag_20\n        /* \"contracts/LotteryWinner/124.sol\":1067:1073  random */\n      tag_21\n        /* \"contracts/LotteryWinner/124.sol\":1067:1075  random() */\n      jump\t// in\n    tag_20:\n        /* \"contracts/LotteryWinner/124.sol\":1067:1092  random() % players.length */\n      tag_22\n      swap2\n      swap1\n      tag_23\n      jump\t// in\n    tag_22:\n        /* \"contracts/LotteryWinner/124.sol\":1054:1092  uint index = random() % players.length */\n      swap1\n      pop\n        /* \"contracts/LotteryWinner/124.sol\":1110:1117  players */\n      0x00\n        /* \"contracts/LotteryWinner/124.sol\":1118:1123  index */\n      dup2\n        /* \"contracts/LotteryWinner/124.sol\":1110:1124  players[index] */\n      dup2\n      sload\n      dup2\n      lt\n      tag_24\n      jumpi\n      tag_25\n      tag_26\n      jump\t// in\n    tag_25:\n    tag_24:\n      swap1\n      0x00\n      mstore\n      keccak256(0x00, 0x20)\n      add\n      0x00\n      swap1\n      sload\n      swap1\n      0x0100\n      exp\n      swap1\n      div\n      0xffffffffffffffffffffffffffffffffffffffff\n      and\n        /* \"contracts/LotteryWinner/124.sol\":1102:1134  payable(players[index]).transfer */\n      0xffffffffffffffffffffffffffffffffffffffff\n      and\n        /* \"contracts/LotteryWinner/124.sol\":1102:1157  payable(players[index]).transfer(address(this).balance) */\n      0x08fc\n        /* \"contracts/LotteryWinner/124.sol\":1135:1156  address(this).balance */\n      selfbalance\n        /* \"contracts/LotteryWinner/124.sol\":1102:1157  payable(players[index]).transfer(address(this).balance) */\n      swap1\n      dup2\n      iszero\n      mul\n      swap1\n      mload(0x40)\n      0x00\n      mload(0x40)\n      dup1\n      dup4\n      sub\n      dup2\n      dup6\n      dup9\n      dup9\n      call\n      swap4\n      pop\n      pop\n      pop\n      pop\n      iszero\n      dup1\n      iszero\n      tag_29\n      jumpi\n      returndatasize\n      0x00\n      dup1\n      returndatacopy\n      revert(0x00, returndatasize)\n    tag_29:\n      pop\n        /* \"contracts/LotteryWinner/124.sol\":1191:1192  0 */\n      0x00\n        /* \"contracts/LotteryWinner/124.sol\":1177:1193  new address[](0) */\n      0xffffffffffffffff\n      dup2\n      gt\n      iszero\n      tag_30\n      jumpi\n      tag_31\n      tag_32\n      jump\t// in\n    tag_31:\n    tag_30:\n      mload(0x40)\n      swap1\n      dup1\n      dup3\n      mstore\n      dup1\n      0x20\n      mul\n      0x20\n      add\n      dup3\n      add\n      0x40\n      mstore\n      dup1\n      iszero\n      tag_33\n      jumpi\n      dup2\n      0x20\n      add\n      0x20\n      dup3\n      mul\n      dup1\n      calldatasize\n      dup4\n      calldatacopy\n      dup1\n      dup3\n      add\n      swap2\n      pop\n      pop\n      swap1\n      pop\n    tag_33:\n      pop\n        /* \"contracts/LotteryWinner/124.sol\":1167:1174  players */\n      0x00\n        /* \"contracts/LotteryWinner/124.sol\":1167:1193  players = new address[](0) */\n      swap1\n      dup1\n      mload\n      swap1\n      0x20\n      add\n      swap1\n      tag_34\n      swap3\n      swap2\n      swap1\n      tag_35\n      jump\t// in\n    tag_34:\n      pop\n        /* \"contracts/LotteryWinner/124.sol\":981:1200  {... */\n      pop\n        /* \"contracts/LotteryWinner/124.sol\":944:1200  function pickWinner() payable public {... */\n      jump\t// out\n        /* \"contracts/LotteryWinner/124.sol\":673:938  function enter() public payable {... */\n    tag_8:\n        /* \"contracts/LotteryWinner/124.sol\":749:756  1 ether */\n      0x0de0b6b3a7640000\n        /* \"contracts/LotteryWinner/124.sol\":736:745  msg.value */\n      callvalue\n        /* \"contracts/LotteryWinner/124.sol\":736:756  msg.value == 1 ether */\n      eq\n        /* \"contracts/LotteryWinner/124.sol\":715:824  require(... */\n      tag_37\n      jumpi\n      mload(0x40)\n      0x08c379a000000000000000000000000000000000000000000000000000000000\n      dup2\n      mstore\n      0x04\n      add\n      tag_38\n      swap1\n      tag_39\n      jump\t// in\n    tag_38:\n      mload(0x40)\n      dup1\n      swap2\n      sub\n      swap1\n      revert\n    tag_37:\n        /* \"contracts/LotteryWinner/124.sol\":843:857  alreadyExist() */\n      tag_40\n        /* \"contracts/LotteryWinner/124.sol\":843:855  alreadyExist */\n      tag_41\n        /* \"contracts/LotteryWinner/124.sol\":843:857  alreadyExist() */\n      jump\t// in\n    tag_40:\n        /* \"contracts/LotteryWinner/124.sol\":842:857  !alreadyExist() */\n      iszero\n        /* \"contracts/LotteryWinner/124.sol\":834:897  require(!alreadyExist(), \"You already participated in contest\") */\n      tag_42\n      jumpi\n      mload(0x40)\n      0x08c379a000000000000000000000000000000000000000000000000000000000\n      dup2\n      mstore\n      0x04\n      add\n      tag_43\n      swap1\n      tag_44\n      jump\t// in\n    tag_43:\n      mload(0x40)\n      dup1\n      swap2\n      sub\n      swap1\n      revert\n    tag_42:\n        /* \"contracts/LotteryWinner/124.sol\":907:914  players */\n      0x00\n        /* \"contracts/LotteryWinner/124.sol\":920:930  msg.sender */\n      caller\n        /* \"contracts/LotteryWinner/124.sol\":907:931  players.push(msg.sender) */\n      swap1\n      dup1\n      0x01\n      dup2\n      sload\n      add\n      dup1\n      dup3\n      sstore\n      dup1\n      swap2\n      pop\n      pop\n      0x01\n      swap1\n      sub\n      swap1\n      0x00\n      mstore\n      keccak256(0x00, 0x20)\n      add\n      0x00\n      swap1\n      swap2\n      swap1\n      swap2\n      swap1\n      swap2\n      0x0100\n      exp\n      dup2\n      sload\n      dup2\n      0xffffffffffffffffffffffffffffffffffffffff\n      mul\n      not\n      and\n      swap1\n      dup4\n      0xffffffffffffffffffffffffffffffffffffffff\n      and\n      mul\n      or\n      swap1\n      sstore\n      pop\n        /* \"contracts/LotteryWinner/124.sol\":673:938  function enter() public payable {... */\n      jump\t// out\n        /* \"contracts/LotteryWinner/124.sol\":190:214  address[] public players */\n    tag_13:\n      0x00\n      dup2\n      dup2\n      sload\n      dup2\n      lt\n      tag_46\n      jumpi\n      0x00\n      dup1\n      revert\n    tag_46:\n      swap1\n      0x00\n      mstore\n      keccak256(0x00, 0x20)\n      add\n      0x00\n      swap2\n      pop\n      sload\n      swap1\n      0x0100\n      exp\n      swap1\n      div\n      0xffffffffffffffffffffffffffffffffffffffff\n      and\n      dup2\n      jump\t// out\n        /* \"contracts/LotteryWinner/124.sol\":538:667  function random() private view returns (uint256) {... */\n    tag_21:\n        /* \"contracts/LotteryWinner/124.sol\":578:585  uint256 */\n      0x00\n        /* \"contracts/LotteryWinner/124.sol\":633:648  block.timestamp */\n      timestamp\n        /* \"contracts/LotteryWinner/124.sol\":650:657  players */\n      0x00\n        /* \"contracts/LotteryWinner/124.sol\":622:658  abi.encode(block.timestamp, players) */\n      add(0x20, mload(0x40))\n      tag_49\n      swap3\n      swap2\n      swap1\n      tag_50\n      jump\t// in\n    tag_49:\n      mload(0x40)\n      0x20\n      dup2\n      dup4\n      sub\n      sub\n      dup2\n      mstore\n      swap1\n      0x40\n      mstore\n        /* \"contracts/LotteryWinner/124.sol\":612:659  keccak256(abi.encode(block.timestamp, players)) */\n      dup1\n      mload\n      swap1\n      0x20\n      add\n      keccak256\n        /* \"contracts/LotteryWinner/124.sol\":604:660  uint256(keccak256(abi.encode(block.timestamp, players))) */\n      0x00\n      shr\n        /* \"contracts/LotteryWinner/124.sol\":597:660  return uint256(keccak256(abi.encode(block.timestamp, players))) */\n      swap1\n      pop\n        /* \"contracts/LotteryWinner/124.sol\":538:667  function random() private view returns (uint256) {... */\n      swap1\n      jump\t// out\n        /* \"contracts/LotteryWinner/124.sol\":299:532  function alreadyExist() private view returns (bool) {... */\n    tag_41:\n        /* \"contracts/LotteryWinner/124.sol\":345:349  bool */\n      0x00\n        /* \"contracts/LotteryWinner/124.sol\":366:375  uint256 i */\n      dup1\n        /* \"contracts/LotteryWinner/124.sol\":378:379  0 */\n      0x00\n        /* \"contracts/LotteryWinner/124.sol\":366:379  uint256 i = 0 */\n      swap1\n      pop\n        /* \"contracts/LotteryWinner/124.sol\":361:504  for (uint256 i = 0; i < players.length; i++) {... */\n    tag_52:\n        /* \"contracts/LotteryWinner/124.sol\":385:392  players */\n      0x00\n        /* \"contracts/LotteryWinner/124.sol\":385:399  players.length */\n      dup1\n      sload\n      swap1\n      pop\n        /* \"contracts/LotteryWinner/124.sol\":381:382  i */\n      dup2\n        /* \"contracts/LotteryWinner/124.sol\":381:399  i < players.length */\n      lt\n        /* \"contracts/LotteryWinner/124.sol\":361:504  for (uint256 i = 0; i < players.length; i++) {... */\n      iszero\n      tag_53\n      jumpi\n        /* \"contracts/LotteryWinner/124.sol\":438:448  msg.sender */\n      caller\n        /* \"contracts/LotteryWinner/124.sol\":424:448  players[i] == msg.sender */\n      0xffffffffffffffffffffffffffffffffffffffff\n      and\n        /* \"contracts/LotteryWinner/124.sol\":424:431  players */\n      0x00\n        /* \"contracts/LotteryWinner/124.sol\":432:433  i */\n      dup3\n        /* \"contracts/LotteryWinner/124.sol\":424:434  players[i] */\n      dup2\n      sload\n      dup2\n      lt\n      tag_55\n      jumpi\n      tag_56\n      tag_26\n      jump\t// in\n    tag_56:\n    tag_55:\n      swap1\n      0x00\n      mstore\n      keccak256(0x00, 0x20)\n      add\n      0x00\n      swap1\n      sload\n      swap1\n      0x0100\n      exp\n      swap1\n      div\n      0xffffffffffffffffffffffffffffffffffffffff\n      and\n        /* \"contracts/LotteryWinner/124.sol\":424:448  players[i] == msg.sender */\n      0xffffffffffffffffffffffffffffffffffffffff\n      and\n      sub\n        /* \"contracts/LotteryWinner/124.sol\":420:494  if (players[i] == msg.sender) {... */\n      tag_58\n      jumpi\n        /* \"contracts/LotteryWinner/124.sol\":475:479  true */\n      0x01\n        /* \"contracts/LotteryWinner/124.sol\":468:479  return true */\n      swap2\n      pop\n      pop\n      jump(tag_51)\n        /* \"contracts/LotteryWinner/124.sol\":420:494  if (players[i] == msg.sender) {... */\n    tag_58:\n        /* \"contracts/LotteryWinner/124.sol\":401:404  i++ */\n      dup1\n      dup1\n      tag_59\n      swap1\n      tag_60\n      jump\t// in\n    tag_59:\n      swap2\n      pop\n      pop\n        /* \"contracts/LotteryWinner/124.sol\":361:504  for (uint256 i = 0; i < players.length; i++) {... */\n      jump(tag_52)\n    tag_53:\n      pop\n        /* \"contracts/LotteryWinner/124.sol\":520:525  false */\n      0x00\n        /* \"contracts/LotteryWinner/124.sol\":513:525  return false */\n      swap1\n      pop\n        /* \"contracts/LotteryWinner/124.sol\":299:532  function alreadyExist() private view returns (bool) {... */\n    tag_51:\n      swap1\n      jump\t// out\n    tag_35:\n      dup3\n      dup1\n      sload\n      dup3\n      dup3\n      sstore\n      swap1\n      0x00\n      mstore\n      keccak256(0x00, 0x20)\n      swap1\n      dup2\n      add\n      swap3\n      dup3\n      iszero\n      tag_61\n      jumpi\n      swap2\n      0x20\n      mul\n      dup3\n      add\n    tag_62:\n      dup3\n      dup2\n      gt\n      iszero\n      tag_63\n      jumpi\n      dup3\n      mload\n      dup3\n      exp(0x0100, 0x00)\n      dup2\n      sload\n      dup2\n      0xffffffffffffffffffffffffffffffffffffffff\n      mul\n      not\n      and\n      swap1\n      dup4\n      0xffffffffffffffffffffffffffffffffffffffff\n      and\n      mul\n      or\n      swap1\n      sstore\n      pop\n      swap2\n      0x20\n      add\n      swap2\n      swap1\n      0x01\n      add\n      swap1\n      jump(tag_62)\n    tag_63:\n    tag_61:\n      pop\n      swap1\n      pop\n      tag_64\n      swap2\n      swap1\n      tag_65\n      jump\t// in\n    tag_64:\n      pop\n      swap1\n      jump\t// out\n    tag_65:\n    tag_66:\n      dup1\n      dup3\n      gt\n      iszero\n      tag_67\n      jumpi\n      0x00\n      dup2\n      0x00\n      swap1\n      sstore\n      pop\n      0x01\n      add\n      jump(tag_66)\n    tag_67:\n      pop\n      swap1\n      jump\t// out\n        /* \"#utility.yul\":88:205   */\n    tag_69:\n        /* \"#utility.yul\":197:198   */\n      0x00\n        /* \"#utility.yul\":194:195   */\n      dup1\n        /* \"#utility.yul\":187:199   */\n      revert\n        /* \"#utility.yul\":334:411   */\n    tag_71:\n        /* \"#utility.yul\":371:378   */\n      0x00\n        /* \"#utility.yul\":400:405   */\n      dup2\n        /* \"#utility.yul\":389:405   */\n      swap1\n      pop\n        /* \"#utility.yul\":334:411   */\n      swap2\n      swap1\n      pop\n      jump\t// out\n        /* \"#utility.yul\":417:539   */\n    tag_72:\n        /* \"#utility.yul\":490:514   */\n      tag_104\n        /* \"#utility.yul\":508:513   */\n      dup2\n        /* \"#utility.yul\":490:514   */\n      tag_71\n      jump\t// in\n    tag_104:\n        /* \"#utility.yul\":483:488   */\n      dup2\n        /* \"#utility.yul\":480:515   */\n      eq\n        /* \"#utility.yul\":470:533   */\n      tag_105\n      jumpi\n        /* \"#utility.yul\":529:530   */\n      0x00\n        /* \"#utility.yul\":526:527   */\n      dup1\n        /* \"#utility.yul\":519:531   */\n      revert\n        /* \"#utility.yul\":470:533   */\n    tag_105:\n        /* \"#utility.yul\":417:539   */\n      pop\n      jump\t// out\n        /* \"#utility.yul\":545:684   */\n    tag_73:\n        /* \"#utility.yul\":591:596   */\n      0x00\n        /* \"#utility.yul\":629:635   */\n      dup2\n        /* \"#utility.yul\":616:636   */\n      calldataload\n        /* \"#utility.yul\":607:636   */\n      swap1\n      pop\n        /* \"#utility.yul\":645:678   */\n      tag_107\n        /* \"#utility.yul\":672:677   */\n      dup2\n        /* \"#utility.yul\":645:678   */\n      tag_72\n      jump\t// in\n    tag_107:\n        /* \"#utility.yul\":545:684   */\n      swap3\n      swap2\n      pop\n      pop\n      jump\t// out\n        /* \"#utility.yul\":690:1019   */\n    tag_12:\n        /* \"#utility.yul\":749:755   */\n      0x00\n        /* \"#utility.yul\":798:800   */\n      0x20\n        /* \"#utility.yul\":786:795   */\n      dup3\n        /* \"#utility.yul\":777:784   */\n      dup5\n        /* \"#utility.yul\":773:796   */\n      sub\n        /* \"#utility.yul\":769:801   */\n      slt\n        /* \"#utility.yul\":766:885   */\n      iszero\n      tag_109\n      jumpi\n        /* \"#utility.yul\":804:883   */\n      tag_110\n      tag_69\n      jump\t// in\n    tag_110:\n        /* \"#utility.yul\":766:885   */\n    tag_109:\n        /* \"#utility.yul\":924:925   */\n      0x00\n        /* \"#utility.yul\":949:1002   */\n      tag_111\n        /* \"#utility.yul\":994:1001   */\n      dup5\n        /* \"#utility.yul\":985:991   */\n      dup3\n        /* \"#utility.yul\":974:983   */\n      dup6\n        /* \"#utility.yul\":970:992   */\n      add\n        /* \"#utility.yul\":949:1002   */\n      tag_73\n      jump\t// in\n    tag_111:\n        /* \"#utility.yul\":939:1002   */\n      swap2\n      pop\n        /* \"#utility.yul\":895:1012   */\n      pop\n        /* \"#utility.yul\":690:1019   */\n      swap3\n      swap2\n      pop\n      pop\n      jump\t// out\n        /* \"#utility.yul\":1025:1151   */\n    tag_74:\n        /* \"#utility.yul\":1062:1069   */\n      0x00\n        /* \"#utility.yul\":1102:1144   */\n      0xffffffffffffffffffffffffffffffffffffffff\n        /* \"#utility.yul\":1095:1100   */\n      dup3\n        /* \"#utility.yul\":1091:1145   */\n      and\n        /* \"#utility.yul\":1080:1145   */\n      swap1\n      pop\n        /* \"#utility.yul\":1025:1151   */\n      swap2\n      swap1\n      pop\n      jump\t// out\n        /* \"#utility.yul\":1157:1253   */\n    tag_75:\n        /* \"#utility.yul\":1194:1201   */\n      0x00\n        /* \"#utility.yul\":1223:1247   */\n      tag_114\n        /* \"#utility.yul\":1241:1246   */\n      dup3\n        /* \"#utility.yul\":1223:1247   */\n      tag_74\n      jump\t// in\n    tag_114:\n        /* \"#utility.yul\":1212:1247   */\n      swap1\n      pop\n        /* \"#utility.yul\":1157:1253   */\n      swap2\n      swap1\n      pop\n      jump\t// out\n        /* \"#utility.yul\":1259:1377   */\n    tag_76:\n        /* \"#utility.yul\":1346:1370   */\n      tag_116\n        /* \"#utility.yul\":1364:1369   */\n      dup2\n        /* \"#utility.yul\":1346:1370   */\n      tag_75\n      jump\t// in\n    tag_116:\n        /* \"#utility.yul\":1341:1344   */\n      dup3\n        /* \"#utility.yul\":1334:1371   */\n      mstore\n        /* \"#utility.yul\":1259:1377   */\n      pop\n      pop\n      jump\t// out\n        /* \"#utility.yul\":1383:1605   */\n    tag_15:\n        /* \"#utility.yul\":1476:1480   */\n      0x00\n        /* \"#utility.yul\":1514:1516   */\n      0x20\n        /* \"#utility.yul\":1503:1512   */\n      dup3\n        /* \"#utility.yul\":1499:1517   */\n      add\n        /* \"#utility.yul\":1491:1517   */\n      swap1\n      pop\n        /* \"#utility.yul\":1527:1598   */\n      tag_118\n        /* \"#utility.yul\":1595:1596   */\n      0x00\n        /* \"#utility.yul\":1584:1593   */\n      dup4\n        /* \"#utility.yul\":1580:1597   */\n      add\n        /* \"#utility.yul\":1571:1577   */\n      dup5\n        /* \"#utility.yul\":1527:1598   */\n      tag_76\n      jump\t// in\n    tag_118:\n        /* \"#utility.yul\":1383:1605   */\n      swap3\n      swap2\n      pop\n      pop\n      jump\t// out\n        /* \"#utility.yul\":1611:1780   */\n    tag_77:\n        /* \"#utility.yul\":1695:1706   */\n      0x00\n        /* \"#utility.yul\":1729:1735   */\n      dup3\n        /* \"#utility.yul\":1724:1727   */\n      dup3\n        /* \"#utility.yul\":1717:1736   */\n      mstore\n        /* \"#utility.yul\":1769:1773   */\n      0x20\n        /* \"#utility.yul\":1764:1767   */\n      dup3\n        /* \"#utility.yul\":1760:1774   */\n      add\n        /* \"#utility.yul\":1745:1774   */\n      swap1\n      pop\n        /* \"#utility.yul\":1611:1780   */\n      swap3\n      swap2\n      pop\n      pop\n      jump\t// out\n        /* \"#utility.yul\":1786:1955   */\n    tag_78:\n        /* \"#utility.yul\":1926:1947   */\n      0x596f752063616e206e6f74206163636573732e00000000000000000000000000\n        /* \"#utility.yul\":1922:1923   */\n      0x00\n        /* \"#utility.yul\":1914:1920   */\n      dup3\n        /* \"#utility.yul\":1910:1924   */\n      add\n        /* \"#utility.yul\":1903:1948   */\n      mstore\n        /* \"#utility.yul\":1786:1955   */\n      pop\n      jump\t// out\n        /* \"#utility.yul\":1961:2327   */\n    tag_79:\n        /* \"#utility.yul\":2103:2106   */\n      0x00\n        /* \"#utility.yul\":2124:2191   */\n      tag_122\n        /* \"#utility.yul\":2188:2190   */\n      0x13\n        /* \"#utility.yul\":2183:2186   */\n      dup4\n        /* \"#utility.yul\":2124:2191   */\n      tag_77\n      jump\t// in\n    tag_122:\n        /* \"#utility.yul\":2117:2191   */\n      swap2\n      pop\n        /* \"#utility.yul\":2200:2293   */\n      tag_123\n        /* \"#utility.yul\":2289:2292   */\n      dup3\n        /* \"#utility.yul\":2200:2293   */\n      tag_78\n      jump\t// in\n    tag_123:\n        /* \"#utility.yul\":2318:2320   */\n      0x20\n        /* \"#utility.yul\":2313:2316   */\n      dup3\n        /* \"#utility.yul\":2309:2321   */\n      add\n        /* \"#utility.yul\":2302:2321   */\n      swap1\n      pop\n        /* \"#utility.yul\":1961:2327   */\n      swap2\n      swap1\n      pop\n      jump\t// out\n        /* \"#utility.yul\":2333:2752   */\n    tag_19:\n        /* \"#utility.yul\":2499:2503   */\n      0x00\n        /* \"#utility.yul\":2537:2539   */\n      0x20\n        /* \"#utility.yul\":2526:2535   */\n      dup3\n        /* \"#utility.yul\":2522:2540   */\n      add\n        /* \"#utility.yul\":2514:2540   */\n      swap1\n      pop\n        /* \"#utility.yul\":2586:2595   */\n      dup2\n        /* \"#utility.yul\":2580:2584   */\n      dup2\n        /* \"#utility.yul\":2576:2596   */\n      sub\n        /* \"#utility.yul\":2572:2573   */\n      0x00\n        /* \"#utility.yul\":2561:2570   */\n      dup4\n        /* \"#utility.yul\":2557:2574   */\n      add\n        /* \"#utility.yul\":2550:2597   */\n      mstore\n        /* \"#utility.yul\":2614:2745   */\n      tag_125\n        /* \"#utility.yul\":2740:2744   */\n      dup2\n        /* \"#utility.yul\":2614:2745   */\n      tag_79\n      jump\t// in\n    tag_125:\n        /* \"#utility.yul\":2606:2745   */\n      swap1\n      pop\n        /* \"#utility.yul\":2333:2752   */\n      swap2\n      swap1\n      pop\n      jump\t// out\n        /* \"#utility.yul\":2758:2938   */\n    tag_80:\n        /* \"#utility.yul\":2806:2883   */\n      0x4e487b7100000000000000000000000000000000000000000000000000000000\n        /* \"#utility.yul\":2803:2804   */\n      0x00\n        /* \"#utility.yul\":2796:2884   */\n      mstore\n        /* \"#utility.yul\":2903:2907   */\n      0x12\n        /* \"#utility.yul\":2900:2901   */\n      0x04\n        /* \"#utility.yul\":2893:2908   */\n      mstore\n        /* \"#utility.yul\":2927:2931   */\n      0x24\n        /* \"#utility.yul\":2924:2925   */\n      0x00\n        /* \"#utility.yul\":2917:2932   */\n      revert\n        /* \"#utility.yul\":2944:3120   */\n    tag_23:\n        /* \"#utility.yul\":2976:2977   */\n      0x00\n        /* \"#utility.yul\":2993:3013   */\n      tag_128\n        /* \"#utility.yul\":3011:3012   */\n      dup3\n        /* \"#utility.yul\":2993:3013   */\n      tag_71\n      jump\t// in\n    tag_128:\n        /* \"#utility.yul\":2988:3013   */\n      swap2\n      pop\n        /* \"#utility.yul\":3027:3047   */\n      tag_129\n        /* \"#utility.yul\":3045:3046   */\n      dup4\n        /* \"#utility.yul\":3027:3047   */\n      tag_71\n      jump\t// in\n    tag_129:\n        /* \"#utility.yul\":3022:3047   */\n      swap3\n      pop\n        /* \"#utility.yul\":3066:3067   */\n      dup3\n        /* \"#utility.yul\":3056:3091   */\n      tag_130\n      jumpi\n        /* \"#utility.yul\":3071:3089   */\n      tag_131\n      tag_80\n      jump\t// in\n    tag_131:\n        /* \"#utility.yul\":3056:3091   */\n    tag_130:\n        /* \"#utility.yul\":3112:3113   */\n      dup3\n        /* \"#utility.yul\":3109:3110   */\n      dup3\n        /* \"#utility.yul\":3105:3114   */\n      mod\n        /* \"#utility.yul\":3100:3114   */\n      swap1\n      pop\n        /* \"#utility.yul\":2944:3120   */\n      swap3\n      swap2\n      pop\n      pop\n      jump\t// out\n        /* \"#utility.yul\":3126:3306   */\n    tag_26:\n        /* \"#utility.yul\":3174:3251   */\n      0x4e487b7100000000000000000000000000000000000000000000000000000000\n        /* \"#utility.yul\":3171:3172   */\n      0x00\n        /* \"#utility.yul\":3164:3252   */\n      mstore\n        /* \"#utility.yul\":3271:3275   */\n      0x32\n        /* \"#utility.yul\":3268:3269   */\n      0x04\n        /* \"#utility.yul\":3261:3276   */\n      mstore\n        /* \"#utility.yul\":3295:3299   */\n      0x24\n        /* \"#utility.yul\":3292:3293   */\n      0x00\n        /* \"#utility.yul\":3285:3300   */\n      revert\n        /* \"#utility.yul\":3312:3492   */\n    tag_32:\n        /* \"#utility.yul\":3360:3437   */\n      0x4e487b7100000000000000000000000000000000000000000000000000000000\n        /* \"#utility.yul\":3357:3358   */\n      0x00\n        /* \"#utility.yul\":3350:3438   */\n      mstore\n        /* \"#utility.yul\":3457:3461   */\n      0x41\n        /* \"#utility.yul\":3454:3455   */\n      0x04\n        /* \"#utility.yul\":3447:3462   */\n      mstore\n        /* \"#utility.yul\":3481:3485   */\n      0x24\n        /* \"#utility.yul\":3478:3479   */\n      0x00\n        /* \"#utility.yul\":3471:3486   */\n      revert\n        /* \"#utility.yul\":3498:3727   */\n    tag_81:\n        /* \"#utility.yul\":3638:3672   */\n      0x596f75206d757374206861766520746f2070617920656e747279206665657320\n        /* \"#utility.yul\":3634:3635   */\n      0x00\n        /* \"#utility.yul\":3626:3632   */\n      dup3\n        /* \"#utility.yul\":3622:3636   */\n      add\n        /* \"#utility.yul\":3615:3673   */\n      mstore\n        /* \"#utility.yul\":3707:3719   */\n      0x6f66203120657468657200000000000000000000000000000000000000000000\n        /* \"#utility.yul\":3702:3704   */\n      0x20\n        /* \"#utility.yul\":3694:3700   */\n      dup3\n        /* \"#utility.yul\":3690:3705   */\n      add\n        /* \"#utility.yul\":3683:3720   */\n      mstore\n        /* \"#utility.yul\":3498:3727   */\n      pop\n      jump\t// out\n        /* \"#utility.yul\":3733:4099   */\n    tag_82:\n        /* \"#utility.yul\":3875:3878   */\n      0x00\n        /* \"#utility.yul\":3896:3963   */\n      tag_136\n        /* \"#utility.yul\":3960:3962   */\n      0x2a\n        /* \"#utility.yul\":3955:3958   */\n      dup4\n        /* \"#utility.yul\":3896:3963   */\n      tag_77\n      jump\t// in\n    tag_136:\n        /* \"#utility.yul\":3889:3963   */\n      swap2\n      pop\n        /* \"#utility.yul\":3972:4065   */\n      tag_137\n        /* \"#utility.yul\":4061:4064   */\n      dup3\n        /* \"#utility.yul\":3972:4065   */\n      tag_81\n      jump\t// in\n    tag_137:\n        /* \"#utility.yul\":4090:4092   */\n      0x40\n        /* \"#utility.yul\":4085:4088   */\n      dup3\n        /* \"#utility.yul\":4081:4093   */\n      add\n        /* \"#utility.yul\":4074:4093   */\n      swap1\n      pop\n        /* \"#utility.yul\":3733:4099   */\n      swap2\n      swap1\n      pop\n      jump\t// out\n        /* \"#utility.yul\":4105:4524   */\n    tag_39:\n        /* \"#utility.yul\":4271:4275   */\n      0x00\n        /* \"#utility.yul\":4309:4311   */\n      0x20\n        /* \"#utility.yul\":4298:4307   */\n      dup3\n        /* \"#utility.yul\":4294:4312   */\n      add\n        /* \"#utility.yul\":4286:4312   */\n      swap1\n      pop\n        /* \"#utility.yul\":4358:4367   */\n      dup2\n        /* \"#utility.yul\":4352:4356   */\n      dup2\n        /* \"#utility.yul\":4348:4368   */\n      sub\n        /* \"#utility.yul\":4344:4345   */\n      0x00\n        /* \"#utility.yul\":4333:4342   */\n      dup4\n        /* \"#utility.yul\":4329:4346   */\n      add\n        /* \"#utility.yul\":4322:4369   */\n      mstore\n        /* \"#utility.yul\":4386:4517   */\n      tag_139\n        /* \"#utility.yul\":4512:4516   */\n      dup2\n        /* \"#utility.yul\":4386:4517   */\n      tag_82\n      jump\t// in\n    tag_139:\n        /* \"#utility.yul\":4378:4517   */\n      swap1\n      pop\n        /* \"#utility.yul\":4105:4524   */\n      swap2\n      swap1\n      pop\n      jump\t// out\n        /* \"#utility.yul\":4530:4752   */\n    tag_83:\n        /* \"#utility.yul\":4670:4704   */\n      0x596f7520616c72656164792070617274696369706174656420696e20636f6e74\n        /* \"#utility.yul\":4666:4667   */\n      0x00\n        /* \"#utility.yul\":4658:4664   */\n      dup3\n        /* \"#utility.yul\":4654:4668   */\n      add\n        /* \"#utility.yul\":4647:4705   */\n      mstore\n        /* \"#utility.yul\":4739:4744   */\n      0x6573740000000000000000000000000000000000000000000000000000000000\n        /* \"#utility.yul\":4734:4736   */\n      0x20\n        /* \"#utility.yul\":4726:4732   */\n      dup3\n        /* \"#utility.yul\":4722:4737   */\n      add\n        /* \"#utility.yul\":4715:4745   */\n      mstore\n        /* \"#utility.yul\":4530:4752   */\n      pop\n      jump\t// out\n        /* \"#utility.yul\":4758:5124   */\n    tag_84:\n        /* \"#utility.yul\":4900:4903   */\n      0x00\n        /* \"#utility.yul\":4921:4988   */\n      tag_142\n        /* \"#utility.yul\":4985:4987   */\n      0x23\n        /* \"#utility.yul\":4980:4983   */\n      dup4\n        /* \"#utility.yul\":4921:4988   */\n      tag_77\n      jump\t// in\n    tag_142:\n        /* \"#utility.yul\":4914:4988   */\n      swap2\n      pop\n        /* \"#utility.yul\":4997:5090   */\n      tag_143\n        /* \"#utility.yul\":5086:5089   */\n      dup3\n        /* \"#utility.yul\":4997:5090   */\n      tag_83\n      jump\t// in\n    tag_143:\n        /* \"#utility.yul\":5115:5117   */\n      0x40\n        /* \"#utility.yul\":5110:5113   */\n      dup3\n        /* \"#utility.yul\":5106:5118   */\n      add\n        /* \"#utility.yul\":5099:5118   */\n      swap1\n      pop\n        /* \"#utility.yul\":4758:5124   */\n      swap2\n      swap1\n      pop\n      jump\t// out\n        /* \"#utility.yul\":5130:5549   */\n    tag_44:\n        /* \"#utility.yul\":5296:5300   */\n      0x00\n        /* \"#utility.yul\":5334:5336   */\n      0x20\n        /* \"#utility.yul\":5323:5332   */\n      dup3\n        /* \"#utility.yul\":5319:5337   */\n      add\n        /* \"#utility.yul\":5311:5337   */\n      swap1\n      pop\n        /* \"#utility.yul\":5383:5392   */\n      dup2\n        /* \"#utility.yul\":5377:5381   */\n      dup2\n        /* \"#utility.yul\":5373:5393   */\n      sub\n        /* \"#utility.yul\":5369:5370   */\n      0x00\n        /* \"#utility.yul\":5358:5367   */\n      dup4\n        /* \"#utility.yul\":5354:5371   */\n      add\n        /* \"#utility.yul\":5347:5394   */\n      mstore\n        /* \"#utility.yul\":5411:5542   */\n      tag_145\n        /* \"#utility.yul\":5537:5541   */\n      dup2\n        /* \"#utility.yul\":5411:5542   */\n      tag_84\n      jump\t// in\n    tag_145:\n        /* \"#utility.yul\":5403:5542   */\n      swap1\n      pop\n        /* \"#utility.yul\":5130:5549   */\n      swap2\n      swap1\n      pop\n      jump\t// out\n        /* \"#utility.yul\":5555:5673   */\n    tag_85:\n        /* \"#utility.yul\":5642:5666   */\n      tag_147\n        /* \"#utility.yul\":5660:5665   */\n      dup2\n        /* \"#utility.yul\":5642:5666   */\n      tag_71\n      jump\t// in\n    tag_147:\n        /* \"#utility.yul\":5637:5640   */\n      dup3\n        /* \"#utility.yul\":5630:5667   */\n      mstore\n        /* \"#utility.yul\":5555:5673   */\n      pop\n      pop\n      jump\t// out\n        /* \"#utility.yul\":5679:5790   */\n    tag_86:\n        /* \"#utility.yul\":5743:5749   */\n      0x00\n        /* \"#utility.yul\":5777:5782   */\n      dup2\n        /* \"#utility.yul\":5771:5783   */\n      sload\n        /* \"#utility.yul\":5761:5783   */\n      swap1\n      pop\n        /* \"#utility.yul\":5679:5790   */\n      swap2\n      swap1\n      pop\n      jump\t// out\n        /* \"#utility.yul\":5796:5980   */\n    tag_87:\n        /* \"#utility.yul\":5895:5906   */\n      0x00\n        /* \"#utility.yul\":5929:5935   */\n      dup3\n        /* \"#utility.yul\":5924:5927   */\n      dup3\n        /* \"#utility.yul\":5917:5936   */\n      mstore\n        /* \"#utility.yul\":5969:5973   */\n      0x20\n        /* \"#utility.yul\":5964:5967   */\n      dup3\n        /* \"#utility.yul\":5960:5974   */\n      add\n        /* \"#utility.yul\":5945:5974   */\n      swap1\n      pop\n        /* \"#utility.yul\":5796:5980   */\n      swap3\n      swap2\n      pop\n      pop\n      jump\t// out\n        /* \"#utility.yul\":5986:6142   */\n    tag_88:\n        /* \"#utility.yul\":6050:6054   */\n      0x00\n        /* \"#utility.yul\":6073:6076   */\n      dup2\n        /* \"#utility.yul\":6065:6076   */\n      swap1\n      pop\n        /* \"#utility.yul\":6096:6099   */\n      dup2\n        /* \"#utility.yul\":6093:6094   */\n      0x00\n        /* \"#utility.yul\":6086:6100   */\n      mstore\n        /* \"#utility.yul\":6130:6134   */\n      0x20\n        /* \"#utility.yul\":6127:6128   */\n      0x00\n        /* \"#utility.yul\":6117:6135   */\n      keccak256\n        /* \"#utility.yul\":6109:6135   */\n      swap1\n      pop\n        /* \"#utility.yul\":5986:6142   */\n      swap2\n      swap1\n      pop\n      jump\t// out\n        /* \"#utility.yul\":6148:6256   */\n    tag_89:\n        /* \"#utility.yul\":6225:6249   */\n      tag_152\n        /* \"#utility.yul\":6243:6248   */\n      dup2\n        /* \"#utility.yul\":6225:6249   */\n      tag_75\n      jump\t// in\n    tag_152:\n        /* \"#utility.yul\":6220:6223   */\n      dup3\n        /* \"#utility.yul\":6213:6250   */\n      mstore\n        /* \"#utility.yul\":6148:6256   */\n      pop\n      pop\n      jump\t// out\n        /* \"#utility.yul\":6262:6441   */\n    tag_90:\n        /* \"#utility.yul\":6331:6341   */\n      0x00\n        /* \"#utility.yul\":6352:6398   */\n      tag_154\n        /* \"#utility.yul\":6394:6397   */\n      dup4\n        /* \"#utility.yul\":6386:6392   */\n      dup4\n        /* \"#utility.yul\":6352:6398   */\n      tag_89\n      jump\t// in\n    tag_154:\n        /* \"#utility.yul\":6430:6434   */\n      0x20\n        /* \"#utility.yul\":6425:6428   */\n      dup4\n        /* \"#utility.yul\":6421:6435   */\n      add\n        /* \"#utility.yul\":6407:6435   */\n      swap1\n      pop\n        /* \"#utility.yul\":6262:6441   */\n      swap3\n      swap2\n      pop\n      pop\n      jump\t// out\n        /* \"#utility.yul\":6447:6549   */\n    tag_91:\n        /* \"#utility.yul\":6489:6497   */\n      0x00\n        /* \"#utility.yul\":6536:6541   */\n      dup2\n        /* \"#utility.yul\":6533:6534   */\n      0x00\n        /* \"#utility.yul\":6529:6542   */\n      shr\n        /* \"#utility.yul\":6508:6542   */\n      swap1\n      pop\n        /* \"#utility.yul\":6447:6549   */\n      swap2\n      swap1\n      pop\n      jump\t// out\n        /* \"#utility.yul\":6555:6694   */\n    tag_92:\n        /* \"#utility.yul\":6605:6612   */\n      0x00\n        /* \"#utility.yul\":6645:6687   */\n      0xffffffffffffffffffffffffffffffffffffffff\n        /* \"#utility.yul\":6638:6643   */\n      dup3\n        /* \"#utility.yul\":6634:6688   */\n      and\n        /* \"#utility.yul\":6623:6688   */\n      swap1\n      pop\n        /* \"#utility.yul\":6555:6694   */\n      swap2\n      swap1\n      pop\n      jump\t// out\n        /* \"#utility.yul\":6700:6866   */\n    tag_93:\n        /* \"#utility.yul\":6769:6774   */\n      0x00\n        /* \"#utility.yul\":6794:6860   */\n      tag_158\n        /* \"#utility.yul\":6825:6859   */\n      tag_159\n        /* \"#utility.yul\":6848:6858   */\n      dup4\n        /* \"#utility.yul\":6825:6859   */\n      tag_91\n      jump\t// in\n    tag_159:\n        /* \"#utility.yul\":6794:6860   */\n      tag_92\n      jump\t// in\n    tag_158:\n        /* \"#utility.yul\":6785:6860   */\n      swap1\n      pop\n        /* \"#utility.yul\":6700:6866   */\n      swap2\n      swap1\n      pop\n      jump\t// out\n        /* \"#utility.yul\":6872:7016   */\n    tag_94:\n        /* \"#utility.yul\":6927:6932   */\n      0x00\n        /* \"#utility.yul\":6952:7009   */\n      tag_161\n        /* \"#utility.yul\":7003:7007   */\n      dup3\n        /* \"#utility.yul\":6997:7008   */\n      sload\n        /* \"#utility.yul\":6952:7009   */\n      tag_93\n      jump\t// in\n    tag_161:\n        /* \"#utility.yul\":6943:7009   */\n      swap1\n      pop\n        /* \"#utility.yul\":6872:7016   */\n      swap2\n      swap1\n      pop\n      jump\t// out\n        /* \"#utility.yul\":7022:7132   */\n    tag_95:\n        /* \"#utility.yul\":7089:7093   */\n      0x00\n        /* \"#utility.yul\":7121:7125   */\n      0x01\n        /* \"#utility.yul\":7116:7119   */\n      dup3\n        /* \"#utility.yul\":7112:7126   */\n      add\n        /* \"#utility.yul\":7104:7126   */\n      swap1\n      pop\n        /* \"#utility.yul\":7022:7132   */\n      swap2\n      swap1\n      pop\n      jump\t// out\n        /* \"#utility.yul\":7168:7919   */\n    tag_96:\n        /* \"#utility.yul\":7284:7287   */\n      0x00\n        /* \"#utility.yul\":7313:7364   */\n      tag_164\n        /* \"#utility.yul\":7358:7363   */\n      dup3\n        /* \"#utility.yul\":7313:7364   */\n      tag_86\n      jump\t// in\n    tag_164:\n        /* \"#utility.yul\":7380:7466   */\n      tag_165\n        /* \"#utility.yul\":7459:7465   */\n      dup2\n        /* \"#utility.yul\":7454:7457   */\n      dup6\n        /* \"#utility.yul\":7380:7466   */\n      tag_87\n      jump\t// in\n    tag_165:\n        /* \"#utility.yul\":7373:7466   */\n      swap4\n      pop\n        /* \"#utility.yul\":7490:7543   */\n      tag_166\n        /* \"#utility.yul\":7537:7542   */\n      dup4\n        /* \"#utility.yul\":7490:7543   */\n      tag_88\n      jump\t// in\n    tag_166:\n        /* \"#utility.yul\":7566:7573   */\n      dup1\n        /* \"#utility.yul\":7597:7598   */\n      0x00\n        /* \"#utility.yul\":7582:7894   */\n    tag_167:\n        /* \"#utility.yul\":7607:7613   */\n      dup4\n        /* \"#utility.yul\":7604:7605   */\n      dup2\n        /* \"#utility.yul\":7601:7614   */\n      lt\n        /* \"#utility.yul\":7582:7894   */\n      iszero\n      tag_169\n      jumpi\n        /* \"#utility.yul\":7677:7721   */\n      tag_170\n        /* \"#utility.yul\":7714:7720   */\n      dup3\n        /* \"#utility.yul\":7677:7721   */\n      tag_94\n      jump\t// in\n    tag_170:\n        /* \"#utility.yul\":7741:7804   */\n      tag_171\n        /* \"#utility.yul\":7800:7803   */\n      dup9\n        /* \"#utility.yul\":7785:7798   */\n      dup3\n        /* \"#utility.yul\":7741:7804   */\n      tag_90\n      jump\t// in\n    tag_171:\n        /* \"#utility.yul\":7734:7804   */\n      swap8\n      pop\n        /* \"#utility.yul\":7827:7884   */\n      tag_172\n        /* \"#utility.yul\":7877:7883   */\n      dup4\n        /* \"#utility.yul\":7827:7884   */\n      tag_95\n      jump\t// in\n    tag_172:\n        /* \"#utility.yul\":7817:7884   */\n      swap3\n      pop\n        /* \"#utility.yul\":7642:7894   */\n      pop\n        /* \"#utility.yul\":7629:7630   */\n      0x01\n        /* \"#utility.yul\":7626:7627   */\n      dup2\n        /* \"#utility.yul\":7622:7631   */\n      add\n        /* \"#utility.yul\":7617:7631   */\n      swap1\n      pop\n        /* \"#utility.yul\":7582:7894   */\n      jump(tag_167)\n    tag_169:\n        /* \"#utility.yul\":7586:7600   */\n      pop\n        /* \"#utility.yul\":7910:7913   */\n      dup6\n        /* \"#utility.yul\":7903:7913   */\n      swap4\n      pop\n        /* \"#utility.yul\":7289:7919   */\n      pop\n      pop\n      pop\n        /* \"#utility.yul\":7168:7919   */\n      swap3\n      swap2\n      pop\n      pop\n      jump\t// out\n        /* \"#utility.yul\":7925:8402   */\n    tag_50:\n        /* \"#utility.yul\":8093:8097   */\n      0x00\n        /* \"#utility.yul\":8131:8133   */\n      0x40\n        /* \"#utility.yul\":8120:8129   */\n      dup3\n        /* \"#utility.yul\":8116:8134   */\n      add\n        /* \"#utility.yul\":8108:8134   */\n      swap1\n      pop\n        /* \"#utility.yul\":8144:8215   */\n      tag_174\n        /* \"#utility.yul\":8212:8213   */\n      0x00\n        /* \"#utility.yul\":8201:8210   */\n      dup4\n        /* \"#utility.yul\":8197:8214   */\n      add\n        /* \"#utility.yul\":8188:8194   */\n      dup6\n        /* \"#utility.yul\":8144:8215   */\n      tag_85\n      jump\t// in\n    tag_174:\n        /* \"#utility.yul\":8262:8271   */\n      dup2\n        /* \"#utility.yul\":8256:8260   */\n      dup2\n        /* \"#utility.yul\":8252:8272   */\n      sub\n        /* \"#utility.yul\":8247:8249   */\n      0x20\n        /* \"#utility.yul\":8236:8245   */\n      dup4\n        /* \"#utility.yul\":8232:8250   */\n      add\n        /* \"#utility.yul\":8225:8273   */\n      mstore\n        /* \"#utility.yul\":8290:8395   */\n      tag_175\n        /* \"#utility.yul\":8390:8394   */\n      dup2\n        /* \"#utility.yul\":8381:8387   */\n      dup5\n        /* \"#utility.yul\":8290:8395   */\n      tag_96\n      jump\t// in\n    tag_175:\n        /* \"#utility.yul\":8282:8395   */\n      swap1\n      pop\n        /* \"#utility.yul\":7925:8402   */\n      swap4\n      swap3\n      pop\n      pop\n      pop\n      jump\t// out\n        /* \"#utility.yul\":8408:8588   */\n    tag_97:\n        /* \"#utility.yul\":8456:8533   */\n      0x4e487b7100000000000000000000000000000000000000000000000000000000\n        /* \"#utility.yul\":8453:8454   */\n      0x00\n        /* \"#utility.yul\":8446:8534   */\n      mstore\n        /* \"#utility.yul\":8553:8557   */\n      0x11\n        /* \"#utility.yul\":8550:8551   */\n      0x04\n        /* \"#utility.yul\":8543:8558   */\n      mstore\n        /* \"#utility.yul\":8577:8581   */\n      0x24\n        /* \"#utility.yul\":8574:8575   */\n      0x00\n        /* \"#utility.yul\":8567:8582   */\n      revert\n        /* \"#utility.yul\":8594:8827   */\n    tag_60:\n        /* \"#utility.yul\":8633:8636   */\n      0x00\n        /* \"#utility.yul\":8656:8680   */\n      tag_178\n        /* \"#utility.yul\":8674:8679   */\n      dup3\n        /* \"#utility.yul\":8656:8680   */\n      tag_71\n      jump\t// in\n    tag_178:\n        /* \"#utility.yul\":8647:8680   */\n      swap2\n      pop\n        /* \"#utility.yul\":8702:8768   */\n      0xffffffffffffffffffffffffffffffffffffffffffffffffffffffffffffffff\n        /* \"#utility.yul\":8695:8700   */\n      dup3\n        /* \"#utility.yul\":8692:8769   */\n      sub\n        /* \"#utility.yul\":8689:8792   */\n      tag_179\n      jumpi\n        /* \"#utility.yul\":8772:8790   */\n      tag_180\n      tag_97\n      jump\t// in\n    tag_180:\n        /* \"#utility.yul\":8689:8792   */\n    tag_179:\n        /* \"#utility.yul\":8819:8820   */\n      0x01\n        /* \"#utility.yul\":8812:8817   */\n      dup3\n        /* \"#utility.yul\":8808:8821   */\n      add\n        /* \"#utility.yul\":8801:8821   */\n      swap1\n      pop\n        /* \"#utility.yul\":8594:8827   */\n      swap2\n      swap1\n      pop\n      jump\t// out\n\n    auxdata: 0xa2646970667358221220cdcd8c7da8659ea4ba93083ffde81beb92496932e4f4995e80fd7cb547cabaa764736f6c63430008120033\n}\n",
				"bytecode": {
					"linkReferences": {},
					"object": "608060405234801561001057600080fd5b5033600160006101000a81548173ffffffffffffffffffffffffffffffffffffffff021916908373ffffffffffffffffffffffffffffffffffffffff160217905550610a0d806100616000396000f3fe6080604052600436106100345760003560e01c80635d495aea14610039578063e97dcb6214610043578063f71d96cb1461004d575b600080fd5b61004161008a565b005b61004b61021d565b005b34801561005957600080fd5b50610074600480360381019061006f9190610515565b610314565b6040516100819190610583565b60405180910390f35b3373ffffffffffffffffffffffffffffffffffffffff16600160009054906101000a900473ffffffffffffffffffffffffffffffffffffffff1673ffffffffffffffffffffffffffffffffffffffff161461011a576040517f08c379a0000000000000000000000000000000000000000000000000000000008152600401610111906105fb565b60405180910390fd5b60008080549050610129610353565b610133919061064a565b9050600081815481106101495761014861067b565b5b9060005260206000200160009054906101000a900473ffffffffffffffffffffffffffffffffffffffff1673ffffffffffffffffffffffffffffffffffffffff166108fc479081150290604051600060405180830381858888f193505050501580156101b9573d6000803e3d6000fd5b50600067ffffffffffffffff8111156101d5576101d46106aa565b5b6040519080825280602002602001820160405280156102035781602001602082028036833780820191505090505b5060009080519060200190610219929190610433565b5050565b670de0b6b3a76400003414610267576040517f08c379a000000000000000000000000000000000000000000000000000000000815260040161025e9061074b565b60405180910390fd5b61026f610387565b156102af576040517f08c379a00000000000000000000000000000000000000000000000000000000081526004016102a6906107dd565b60405180910390fd5b6000339080600181540180825580915050600190039060005260206000200160009091909190916101000a81548173ffffffffffffffffffffffffffffffffffffffff021916908373ffffffffffffffffffffffffffffffffffffffff160217905550565b6000818154811061032457600080fd5b906000526020600020016000915054906101000a900473ffffffffffffffffffffffffffffffffffffffff1681565b6000426000604051602001610369929190610930565b6040516020818303038152906040528051906020012060001c905090565b600080600090505b60008054905081101561042a573373ffffffffffffffffffffffffffffffffffffffff16600082815481106103c7576103c661067b565b5b9060005260206000200160009054906101000a900473ffffffffffffffffffffffffffffffffffffffff1673ffffffffffffffffffffffffffffffffffffffff1603610417576001915050610430565b80806104229061098f565b91505061038f565b50600090505b90565b8280548282559060005260206000209081019282156104ac579160200282015b828111156104ab5782518260006101000a81548173ffffffffffffffffffffffffffffffffffffffff021916908373ffffffffffffffffffffffffffffffffffffffff16021790555091602001919060010190610453565b5b5090506104b991906104bd565b5090565b5b808211156104d65760008160009055506001016104be565b5090565b600080fd5b6000819050919050565b6104f2816104df565b81146104fd57600080fd5b50565b60008135905061050f816104e9565b92915050565b60006020828403121561052b5761052a6104da565b5b600061053984828501610500565b91505092915050565b600073ffffffffffffffffffffffffffffffffffffffff82169050919050565b600061056d82610542565b9050919050565b61057d81610562565b82525050565b60006020820190506105986000830184610574565b92915050565b600082825260208201905092915050565b7f596f752063616e206e6f74206163636573732e00000000000000000000000000600082015250565b60006105e560138361059e565b91506105f0826105af565b602082019050919050565b60006020820190508181036000830152610614816105d8565b9050919050565b7f4e487b7100000000000000000000000000000000000000000000000000000000600052601260045260246000fd5b6000610655826104df565b9150610660836104df565b9250826106705761066f61061b565b5b828206905092915050565b7f4e487b7100000000000000000000000000000000000000000000000000000000600052603260045260246000fd5b7f4e487b7100000000000000000000000000000000000000000000000000000000600052604160045260246000fd5b7f596f75206d757374206861766520746f2070617920656e74727920666565732060008201527f6f66203120657468657200000000000000000000000000000000000000000000602082015250565b6000610735602a8361059e565b9150610740826106d9565b604082019050919050565b6000602082019050818103600083015261076481610728565b9050919050565b7f596f7520616c72656164792070617274696369706174656420696e20636f6e7460008201527f6573740000000000000000000000000000000000000000000000000000000000602082015250565b60006107c760238361059e565b91506107d28261076b565b604082019050919050565b600060208201905081810360008301526107f6816107ba565b9050919050565b610806816104df565b82525050565b600081549050919050565b600082825260208201905092915050565b60008190508160005260206000209050919050565b61084681610562565b82525050565b6000610858838361083d565b60208301905092915050565b60008160001c9050919050565b600073ffffffffffffffffffffffffffffffffffffffff82169050919050565b60006108a461089f83610864565b610871565b9050919050565b60006108b78254610891565b9050919050565b6000600182019050919050565b60006108d68261080c565b6108e08185610817565b93506108eb83610828565b8060005b8381101561092357610900826108ab565b61090a888261084c565b9750610915836108be565b9250506001810190506108ef565b5085935050505092915050565b600060408201905061094560008301856107fd565b818103602083015261095781846108cb565b90509392505050565b7f4e487b7100000000000000000000000000000000000000000000000000000000600052601160045260246000fd5b600061099a826104df565b91507fffffffffffffffffffffffffffffffffffffffffffffffffffffffffffffffff82036109cc576109cb610960565b5b60018201905091905056fea2646970667358221220cdcd8c7da8659ea4ba93083ffde81beb92496932e4f4995e80fd7cb547cabaa764736f6c63430008120033",
					"opcodes": "PUSH1 0x80 PUSH1 0x40 MSTORE CALLVALUE DUP1 ISZERO PUSH2 0x10 JUMPI PUSH1 0x0 DUP1 REVERT JUMPDEST POP CALLER PUSH1 0x1 PUSH1 0x0 PUSH2 0x100 EXP DUP2 SLOAD DUP2 PUSH20 0xFFFFFFFFFFFFFFFFFFFFFFFFFFFFFFFFFFFFFFFF MUL NOT AND SWAP1 DUP4 PUSH20 0xFFFFFFFFFFFFFFFFFFFFFFFFFFFFFFFFFFFFFFFF AND MUL OR SWAP1 SSTORE POP PUSH2 0xA0D DUP1 PUSH2 0x61 PUSH1 0x0 CODECOPY PUSH1 0x0 RETURN INVALID PUSH1 0x80 PUSH1 0x40 MSTORE PUSH1 0x4 CALLDATASIZE LT PUSH2 0x34 JUMPI PUSH1 0x0 CALLDATALOAD PUSH1 0xE0 SHR DUP1 PUSH4 0x5D495AEA EQ PUSH2 0x39 JUMPI DUP1 PUSH4 0xE97DCB62 EQ PUSH2 0x43 JUMPI DUP1 PUSH4 0xF71D96CB EQ PUSH2 0x4D JUMPI JUMPDEST PUSH1 0x0 DUP1 REVERT JUMPDEST PUSH2 0x41 PUSH2 0x8A JUMP JUMPDEST STOP JUMPDEST PUSH2 0x4B PUSH2 0x21D JUMP JUMPDEST STOP JUMPDEST CALLVALUE DUP1 ISZERO PUSH2 0x59 JUMPI PUSH1 0x0 DUP1 REVERT JUMPDEST POP PUSH2 0x74 PUSH1 0x4 DUP1 CALLDATASIZE SUB DUP2 ADD SWAP1 PUSH2 0x6F SWAP2 SWAP1 PUSH2 0x515 JUMP JUMPDEST PUSH2 0x314 JUMP JUMPDEST PUSH1 0x40 MLOAD PUSH2 0x81 SWAP2 SWAP1 PUSH2 0x583 JUMP JUMPDEST PUSH1 0x40 MLOAD DUP1 SWAP2 SUB SWAP1 RETURN JUMPDEST CALLER PUSH20 0xFFFFFFFFFFFFFFFFFFFFFFFFFFFFFFFFFFFFFFFF AND PUSH1 0x1 PUSH1 0x0 SWAP1 SLOAD SWAP1 PUSH2 0x100 EXP SWAP1 DIV PUSH20 0xFFFFFFFFFFFFFFFFFFFFFFFFFFFFFFFFFFFFFFFF AND PUSH20 0xFFFFFFFFFFFFFFFFFFFFFFFFFFFFFFFFFFFFFFFF AND EQ PUSH2 0x11A JUMPI PUSH1 0x40 MLOAD PUSH32 0x8C379A000000000000000000000000000000000000000000000000000000000 DUP2 MSTORE PUSH1 0x4 ADD PUSH2 0x111 SWAP1 PUSH2 0x5FB JUMP JUMPDEST PUSH1 0x40 MLOAD DUP1 SWAP2 SUB SWAP1 REVERT JUMPDEST PUSH1 0x0 DUP1 DUP1 SLOAD SWAP1 POP PUSH2 0x129 PUSH2 0x353 JUMP JUMPDEST PUSH2 0x133 SWAP2 SWAP1 PUSH2 0x64A JUMP JUMPDEST SWAP1 POP PUSH1 0x0 DUP2 DUP2 SLOAD DUP2 LT PUSH2 0x149 JUMPI PUSH2 0x148 PUSH2 0x67B JUMP JUMPDEST JUMPDEST SWAP1 PUSH1 0x0 MSTORE PUSH1 0x20 PUSH1 0x0 KECCAK256 ADD PUSH1 0x0 SWAP1 SLOAD SWAP1 PUSH2 0x100 EXP SWAP1 DIV PUSH20 0xFFFFFFFFFFFFFFFFFFFFFFFFFFFFFFFFFFFFFFFF AND PUSH20 0xFFFFFFFFFFFFFFFFFFFFFFFFFFFFFFFFFFFFFFFF AND PUSH2 0x8FC SELFBALANCE SWAP1 DUP2 ISZERO MUL SWAP1 PUSH1 0x40 MLOAD PUSH1 0x0 PUSH1 0x40 MLOAD DUP1 DUP4 SUB DUP2 DUP6 DUP9 DUP9 CALL SWAP4 POP POP POP POP ISZERO DUP1 ISZERO PUSH2 0x1B9 JUMPI RETURNDATASIZE PUSH1 0x0 DUP1 RETURNDATACOPY RETURNDATASIZE PUSH1 0x0 REVERT JUMPDEST POP PUSH1 0x0 PUSH8 0xFFFFFFFFFFFFFFFF DUP2 GT ISZERO PUSH2 0x1D5 JUMPI PUSH2 0x1D4 PUSH2 0x6AA JUMP JUMPDEST JUMPDEST PUSH1 0x40 MLOAD SWAP1 DUP1 DUP3 MSTORE DUP1 PUSH1 0x20 MUL PUSH1 0x20 ADD DUP3 ADD PUSH1 0x40 MSTORE DUP1 ISZERO PUSH2 0x203 JUMPI DUP2 PUSH1 0x20 ADD PUSH1 0x20 DUP3 MUL DUP1 CALLDATASIZE DUP4 CALLDATACOPY DUP1 DUP3 ADD SWAP2 POP POP SWAP1 POP JUMPDEST POP PUSH1 0x0 SWAP1 DUP1 MLOAD SWAP1 PUSH1 0x20 ADD SWAP1 PUSH2 0x219 SWAP3 SWAP2 SWAP1 PUSH2 0x433 JUMP JUMPDEST POP POP JUMP JUMPDEST PUSH8 0xDE0B6B3A7640000 CALLVALUE EQ PUSH2 0x267 JUMPI PUSH1 0x40 MLOAD PUSH32 0x8C379A000000000000000000000000000000000000000000000000000000000 DUP2 MSTORE PUSH1 0x4 ADD PUSH2 0x25E SWAP1 PUSH2 0x74B JUMP JUMPDEST PUSH1 0x40 MLOAD DUP1 SWAP2 SUB SWAP1 REVERT JUMPDEST PUSH2 0x26F PUSH2 0x387 JUMP JUMPDEST ISZERO PUSH2 0x2AF JUMPI PUSH1 0x40 MLOAD PUSH32 0x8C379A000000000000000000000000000000000000000000000000000000000 DUP2 MSTORE PUSH1 0x4 ADD PUSH2 0x2A6 SWAP1 PUSH2 0x7DD JUMP JUMPDEST PUSH1 0x40 MLOAD DUP1 SWAP2 SUB SWAP1 REVERT JUMPDEST PUSH1 0x0 CALLER SWAP1 DUP1 PUSH1 0x1 DUP2 SLOAD ADD DUP1 DUP3 SSTORE DUP1 SWAP2 POP POP PUSH1 0x1 SWAP1 SUB SWAP1 PUSH1 0x0 MSTORE PUSH1 0x20 PUSH1 0x0 KECCAK256 ADD PUSH1 0x0 SWAP1 SWAP2 SWAP1 SWAP2 SWAP1 SWAP2 PUSH2 0x100 EXP DUP2 SLOAD DUP2 PUSH20 0xFFFFFFFFFFFFFFFFFFFFFFFFFFFFFFFFFFFFFFFF MUL NOT AND SWAP1 DUP4 PUSH20 0xFFFFFFFFFFFFFFFFFFFFFFFFFFFFFFFFFFFFFFFF AND MUL OR SWAP1 SSTORE POP JUMP JUMPDEST PUSH1 0x0 DUP2 DUP2 SLOAD DUP2 LT PUSH2 0x324 JUMPI PUSH1 0x0 DUP1 REVERT JUMPDEST SWAP1 PUSH1 0x0 MSTORE PUSH1 0x20 PUSH1 0x0 KECCAK256 ADD PUSH1 0x0 SWAP2 POP SLOAD SWAP1 PUSH2 0x100 EXP SWAP1 DIV PUSH20 0xFFFFFFFFFFFFFFFFFFFFFFFFFFFFFFFFFFFFFFFF AND DUP2 JUMP JUMPDEST PUSH1 0x0 TIMESTAMP PUSH1 0x0 PUSH1 0x40 MLOAD PUSH1 0x20 ADD PUSH2 0x369 SWAP3 SWAP2 SWAP1 PUSH2 0x930 JUMP JUMPDEST PUSH1 0x40 MLOAD PUSH1 0x20 DUP2 DUP4 SUB SUB DUP2 MSTORE SWAP1 PUSH1 0x40 MSTORE DUP1 MLOAD SWAP1 PUSH1 0x20 ADD KECCAK256 PUSH1 0x0 SHR SWAP1 POP SWAP1 JUMP JUMPDEST PUSH1 0x0 DUP1 PUSH1 0x0 SWAP1 POP JUMPDEST PUSH1 0x0 DUP1 SLOAD SWAP1 POP DUP2 LT ISZERO PUSH2 0x42A JUMPI CALLER PUSH20 0xFFFFFFFFFFFFFFFFFFFFFFFFFFFFFFFFFFFFFFFF AND PUSH1 0x0 DUP3 DUP2 SLOAD DUP2 LT PUSH2 0x3C7 JUMPI PUSH2 0x3C6 PUSH2 0x67B JUMP JUMPDEST JUMPDEST SWAP1 PUSH1 0x0 MSTORE PUSH1 0x20 PUSH1 0x0 KECCAK256 ADD PUSH1 0x0 SWAP1 SLOAD SWAP1 PUSH2 0x100 EXP SWAP1 DIV PUSH20 0xFFFFFFFFFFFFFFFFFFFFFFFFFFFFFFFFFFFFFFFF AND PUSH20 0xFFFFFFFFFFFFFFFFFFFFFFFFFFFFFFFFFFFFFFFF AND SUB PUSH2 0x417 JUMPI PUSH1 0x1 SWAP2 POP POP PUSH2 0x430 JUMP JUMPDEST DUP1 DUP1 PUSH2 0x422 SWAP1 PUSH2 0x98F JUMP JUMPDEST SWAP2 POP POP PUSH2 0x38F JUMP JUMPDEST POP PUSH1 0x0 SWAP1 POP JUMPDEST SWAP1 JUMP JUMPDEST DUP3 DUP1 SLOAD DUP3 DUP3 SSTORE SWAP1 PUSH1 0x0 MSTORE PUSH1 0x20 PUSH1 0x0 KECCAK256 SWAP1 DUP2 ADD SWAP3 DUP3 ISZERO PUSH2 0x4AC JUMPI SWAP2 PUSH1 0x20 MUL DUP3 ADD JUMPDEST DUP3 DUP2 GT ISZERO PUSH2 0x4AB JUMPI DUP3 MLOAD DUP3 PUSH1 0x0 PUSH2 0x100 EXP DUP2 SLOAD DUP2 PUSH20 0xFFFFFFFFFFFFFFFFFFFFFFFFFFFFFFFFFFFFFFFF MUL NOT AND SWAP1 DUP4 PUSH20 0xFFFFFFFFFFFFFFFFFFFFFFFFFFFFFFFFFFFFFFFF AND MUL OR SWAP1 SSTORE POP SWAP2 PUSH1 0x20 ADD SWAP2 SWAP1 PUSH1 0x1 ADD SWAP1 PUSH2 0x453 JUMP JUMPDEST JUMPDEST POP SWAP1 POP PUSH2 0x4B9 SWAP2 SWAP1 PUSH2 0x4BD JUMP JUMPDEST POP SWAP1 JUMP JUMPDEST JUMPDEST DUP1 DUP3 GT ISZERO PUSH2 0x4D6 JUMPI PUSH1 0x0 DUP2 PUSH1 0x0 SWAP1 SSTORE POP PUSH1 0x1 ADD PUSH2 0x4BE JUMP JUMPDEST POP SWAP1 JUMP JUMPDEST PUSH1 0x0 DUP1 REVERT JUMPDEST PUSH1 0x0 DUP2 SWAP1 POP SWAP2 SWAP1 POP JUMP JUMPDEST PUSH2 0x4F2 DUP2 PUSH2 0x4DF JUMP JUMPDEST DUP2 EQ PUSH2 0x4FD JUMPI PUSH1 0x0 DUP1 REVERT JUMPDEST POP JUMP JUMPDEST PUSH1 0x0 DUP2 CALLDATALOAD SWAP1 POP PUSH2 0x50F DUP2 PUSH2 0x4E9 JUMP JUMPDEST SWAP3 SWAP2 POP POP JUMP JUMPDEST PUSH1 0x0 PUSH1 0x20 DUP3 DUP5 SUB SLT ISZERO PUSH2 0x52B JUMPI PUSH2 0x52A PUSH2 0x4DA JUMP JUMPDEST JUMPDEST PUSH1 0x0 PUSH2 0x539 DUP5 DUP3 DUP6 ADD PUSH2 0x500 JUMP JUMPDEST SWAP2 POP POP SWAP3 SWAP2 POP POP JUMP JUMPDEST PUSH1 0x0 PUSH20 0xFFFFFFFFFFFFFFFFFFFFFFFFFFFFFFFFFFFFFFFF DUP3 AND SWAP1 POP SWAP2 SWAP1 POP JUMP JUMPDEST PUSH1 0x0 PUSH2 0x56D DUP3 PUSH2 0x542 JUMP JUMPDEST SWAP1 POP SWAP2 SWAP1 POP JUMP JUMPDEST PUSH2 0x57D DUP2 PUSH2 0x562 JUMP JUMPDEST DUP3 MSTORE POP POP JUMP JUMPDEST PUSH1 0x0 PUSH1 0x20 DUP3 ADD SWAP1 POP PUSH2 0x598 PUSH1 0x0 DUP4 ADD DUP5 PUSH2 0x574 JUMP JUMPDEST SWAP3 SWAP2 POP POP JUMP JUMPDEST PUSH1 0x0 DUP3 DUP3 MSTORE PUSH1 0x20 DUP3 ADD SWAP1 POP SWAP3 SWAP2 POP POP JUMP JUMPDEST PUSH32 0x596F752063616E206E6F74206163636573732E00000000000000000000000000 PUSH1 0x0 DUP3 ADD MSTORE POP JUMP JUMPDEST PUSH1 0x0 PUSH2 0x5E5 PUSH1 0x13 DUP4 PUSH2 0x59E JUMP JUMPDEST SWAP2 POP PUSH2 0x5F0 DUP3 PUSH2 0x5AF JUMP JUMPDEST PUSH1 0x20 DUP3 ADD SWAP1 POP SWAP2 SWAP1 POP JUMP JUMPDEST PUSH1 0x0 PUSH1 0x20 DUP3 ADD SWAP1 POP DUP2 DUP2 SUB PUSH1 0x0 DUP4 ADD MSTORE PUSH2 0x614 DUP2 PUSH2 0x5D8 JUMP JUMPDEST SWAP1 POP SWAP2 SWAP1 POP JUMP JUMPDEST PUSH32 0x4E487B7100000000000000000000000000000000000000000000000000000000 PUSH1 0x0 MSTORE PUSH1 0x12 PUSH1 0x4 MSTORE PUSH1 0x24 PUSH1 0x0 REVERT JUMPDEST PUSH1 0x0 PUSH2 0x655 DUP3 PUSH2 0x4DF JUMP JUMPDEST SWAP2 POP PUSH2 0x660 DUP4 PUSH2 0x4DF JUMP JUMPDEST SWAP3 POP DUP3 PUSH2 0x670 JUMPI PUSH2 0x66F PUSH2 0x61B JUMP JUMPDEST JUMPDEST DUP3 DUP3 MOD SWAP1 POP SWAP3 SWAP2 POP POP JUMP JUMPDEST PUSH32 0x4E487B7100000000000000000000000000000000000000000000000000000000 PUSH1 0x0 MSTORE PUSH1 0x32 PUSH1 0x4 MSTORE PUSH1 0x24 PUSH1 0x0 REVERT JUMPDEST PUSH32 0x4E487B7100000000000000000000000000000000000000000000000000000000 PUSH1 0x0 MSTORE PUSH1 0x41 PUSH1 0x4 MSTORE PUSH1 0x24 PUSH1 0x0 REVERT JUMPDEST PUSH32 0x596F75206D757374206861766520746F2070617920656E747279206665657320 PUSH1 0x0 DUP3 ADD MSTORE PUSH32 0x6F66203120657468657200000000000000000000000000000000000000000000 PUSH1 0x20 DUP3 ADD MSTORE POP JUMP JUMPDEST PUSH1 0x0 PUSH2 0x735 PUSH1 0x2A DUP4 PUSH2 0x59E JUMP JUMPDEST SWAP2 POP PUSH2 0x740 DUP3 PUSH2 0x6D9 JUMP JUMPDEST PUSH1 0x40 DUP3 ADD SWAP1 POP SWAP2 SWAP1 POP JUMP JUMPDEST PUSH1 0x0 PUSH1 0x20 DUP3 ADD SWAP1 POP DUP2 DUP2 SUB PUSH1 0x0 DUP4 ADD MSTORE PUSH2 0x764 DUP2 PUSH2 0x728 JUMP JUMPDEST SWAP1 POP SWAP2 SWAP1 POP JUMP JUMPDEST PUSH32 0x596F7520616C72656164792070617274696369706174656420696E20636F6E74 PUSH1 0x0 DUP3 ADD MSTORE PUSH32 0x6573740000000000000000000000000000000000000000000000000000000000 PUSH1 0x20 DUP3 ADD MSTORE POP JUMP JUMPDEST PUSH1 0x0 PUSH2 0x7C7 PUSH1 0x23 DUP4 PUSH2 0x59E JUMP JUMPDEST SWAP2 POP PUSH2 0x7D2 DUP3 PUSH2 0x76B JUMP JUMPDEST PUSH1 0x40 DUP3 ADD SWAP1 POP SWAP2 SWAP1 POP JUMP JUMPDEST PUSH1 0x0 PUSH1 0x20 DUP3 ADD SWAP1 POP DUP2 DUP2 SUB PUSH1 0x0 DUP4 ADD MSTORE PUSH2 0x7F6 DUP2 PUSH2 0x7BA JUMP JUMPDEST SWAP1 POP SWAP2 SWAP1 POP JUMP JUMPDEST PUSH2 0x806 DUP2 PUSH2 0x4DF JUMP JUMPDEST DUP3 MSTORE POP POP JUMP JUMPDEST PUSH1 0x0 DUP2 SLOAD SWAP1 POP SWAP2 SWAP1 POP JUMP JUMPDEST PUSH1 0x0 DUP3 DUP3 MSTORE PUSH1 0x20 DUP3 ADD SWAP1 POP SWAP3 SWAP2 POP POP JUMP JUMPDEST PUSH1 0x0 DUP2 SWAP1 POP DUP2 PUSH1 0x0 MSTORE PUSH1 0x20 PUSH1 0x0 KECCAK256 SWAP1 POP SWAP2 SWAP1 POP JUMP JUMPDEST PUSH2 0x846 DUP2 PUSH2 0x562 JUMP JUMPDEST DUP3 MSTORE POP POP JUMP JUMPDEST PUSH1 0x0 PUSH2 0x858 DUP4 DUP4 PUSH2 0x83D JUMP JUMPDEST PUSH1 0x20 DUP4 ADD SWAP1 POP SWAP3 SWAP2 POP POP JUMP JUMPDEST PUSH1 0x0 DUP2 PUSH1 0x0 SHR SWAP1 POP SWAP2 SWAP1 POP JUMP JUMPDEST PUSH1 0x0 PUSH20 0xFFFFFFFFFFFFFFFFFFFFFFFFFFFFFFFFFFFFFFFF DUP3 AND SWAP1 POP SWAP2 SWAP1 POP JUMP JUMPDEST PUSH1 0x0 PUSH2 0x8A4 PUSH2 0x89F DUP4 PUSH2 0x864 JUMP JUMPDEST PUSH2 0x871 JUMP JUMPDEST SWAP1 POP SWAP2 SWAP1 POP JUMP JUMPDEST PUSH1 0x0 PUSH2 0x8B7 DUP3 SLOAD PUSH2 0x891 JUMP JUMPDEST SWAP1 POP SWAP2 SWAP1 POP JUMP JUMPDEST PUSH1 0x0 PUSH1 0x1 DUP3 ADD SWAP1 POP SWAP2 SWAP1 POP JUMP JUMPDEST PUSH1 0x0 PUSH2 0x8D6 DUP3 PUSH2 0x80C JUMP JUMPDEST PUSH2 0x8E0 DUP2 DUP6 PUSH2 0x817 JUMP JUMPDEST SWAP4 POP PUSH2 0x8EB DUP4 PUSH2 0x828 JUMP JUMPDEST DUP1 PUSH1 0x0 JUMPDEST DUP4 DUP2 LT ISZERO PUSH2 0x923 JUMPI PUSH2 0x900 DUP3 PUSH2 0x8AB JUMP JUMPDEST PUSH2 0x90A DUP9 DUP3 PUSH2 0x84C JUMP JUMPDEST SWAP8 POP PUSH2 0x915 DUP4 PUSH2 0x8BE JUMP JUMPDEST SWAP3 POP POP PUSH1 0x1 DUP2 ADD SWAP1 POP PUSH2 0x8EF JUMP JUMPDEST POP DUP6 SWAP4 POP POP POP POP SWAP3 SWAP2 POP POP JUMP JUMPDEST PUSH1 0x0 PUSH1 0x40 DUP3 ADD SWAP1 POP PUSH2 0x945 PUSH1 0x0 DUP4 ADD DUP6 PUSH2 0x7FD JUMP JUMPDEST DUP2 DUP2 SUB PUSH1 0x20 DUP4 ADD MSTORE PUSH2 0x957 DUP2 DUP5 PUSH2 0x8CB JUMP JUMPDEST SWAP1 POP SWAP4 SWAP3 POP POP POP JUMP JUMPDEST PUSH32 0x4E487B7100000000000000000000000000000000000000000000000000000000 PUSH1 0x0 MSTORE PUSH1 0x11 PUSH1 0x4 MSTORE PUSH1 0x24 PUSH1 0x0 REVERT JUMPDEST PUSH1 0x0 PUSH2 0x99A DUP3 PUSH2 0x4DF JUMP JUMPDEST SWAP2 POP PUSH32 0xFFFFFFFFFFFFFFFFFFFFFFFFFFFFFFFFFFFFFFFFFFFFFFFFFFFFFFFFFFFFFFFF DUP3 SUB PUSH2 0x9CC JUMPI PUSH2 0x9CB PUSH2 0x960 JUMP JUMPDEST JUMPDEST PUSH1 0x1 DUP3 ADD SWAP1 POP SWAP2 SWAP1 POP JUMP INVALID LOG2 PUSH5 0x6970667358 0x22 SLT KECCAK256 0xCD 0xCD DUP13 PUSH30 0xA8659EA4BA93083FFDE81BEB92496932E4F4995E80FD7CB547CABAA76473 PUSH16 0x6C634300081200330000000000000000 "
				},
				"gasEstimates": {
					"creation": {
						"codeDepositCost": "514600",
						"executionCost": "24815",
						"totalCost": "539415"
					},
					"external": {
						"enter()": "infinite",
						"pickWinner()": "infinite",
						"players(uint256)": "4978"
					},
					"internal": {
						"alreadyExist()": "infinite",
						"random()": "infinite"
					}
				},
				"methodIdentifiers": {
					"enter()": "e97dcb62",
					"pickWinner()": "5d495aea",
					"players(uint256)": "f71d96cb"
				}
			},
			"storageLayout": {
				"storage": [
					{
						"astId": 4,
						"contract": "contracts/LotteryWinner/124.sol:Main",
						"label": "players",
						"offset": 0,
						"slot": "0",
						"type": "t_array(t_address)dyn_storage"
					},
					{
						"astId": 6,
						"contract": "contracts/LotteryWinner/124.sol:Main",
						"label": "manager",
						"offset": 0,
						"slot": "1",
						"type": "t_address"
					}
				],
				"types": {
					"t_address": {
						"encoding": "inplace",
						"label": "address",
						"numberOfBytes": "20"
					},
					"t_array(t_address)dyn_storage": {
						"base": "t_address",
						"encoding": "dynamic_array",
						"label": "address[]",
						"numberOfBytes": "32"
					}
				}
			},
			"userdoc": {
				"kind": "user",
				"methods": {},
				"version": 1
			}
		}
	}
}