{
	"data": {
		"bytecode": {
			"linkReferences": {},
			"object": "608060405234801561001057600080fd5b50604051610a43380380610a438339818101604052810190610032919061016d565b816000806101000a81548173ffffffffffffffffffffffffffffffffffffffff021916908373ffffffffffffffffffffffffffffffffffffffff16021790555080600160006101000a81548173ffffffffffffffffffffffffffffffffffffffff021916908373ffffffffffffffffffffffffffffffffffffffff16021790555050506101ad565b600080fd5b600073ffffffffffffffffffffffffffffffffffffffff82169050919050565b60006100ea826100bf565b9050919050565b60006100fc826100df565b9050919050565b61010c816100f1565b811461011757600080fd5b50565b60008151905061012981610103565b92915050565b600061013a826100df565b9050919050565b61014a8161012f565b811461015557600080fd5b50565b60008151905061016781610141565b92915050565b60008060408385031215610184576101836100ba565b5b60006101928582860161011a565b92505060206101a385828601610158565b9150509250929050565b610887806101bc6000396000f3fe608060405234801561001057600080fd5b50600436106100365760003560e01c806319a009801461003b57806354862f6614610057575b600080fd5b61005560048036038101906100509190610480565b610087565b005b610071600480360381019061006c9190610480565b6101f5565b60405161007e9190610588565b60405180910390f35b600160009054906101000a900473ffffffffffffffffffffffffffffffffffffffff1673ffffffffffffffffffffffffffffffffffffffff16631e9d48cf336040518263ffffffff1660e01b81526004016100e291906105b2565b602060405180830381865afa1580156100ff573d6000803e3d6000fd5b505050506040513d601f19601f820116820180604052508101906101239190610605565b610162576040517f08c379a00000000000000000000000000000000000000000000000000000000081526004016101599061068f565b60405180910390fd5b60008054906101000a900473ffffffffffffffffffffffffffffffffffffffff1673ffffffffffffffffffffffffffffffffffffffff1663ec6d2b0e3383856040518463ffffffff1660e01b81526004016101bf939291906106be565b600060405180830381600087803b1580156101d957600080fd5b505af11580156101ed573d6000803e3d6000fd5b505050505050565b6101fd61037e565b600160009054906101000a900473ffffffffffffffffffffffffffffffffffffffff1673ffffffffffffffffffffffffffffffffffffffff16631e9d48cf336040518263ffffffff1660e01b815260040161025891906105b2565b602060405180830381865afa158015610275573d6000803e3d6000fd5b505050506040513d601f19601f820116820180604052508101906102999190610605565b6102d8576040517f08c379a00000000000000000000000000000000000000000000000000000000081526004016102cf9061068f565b60405180910390fd5b60008054906101000a900473ffffffffffffffffffffffffffffffffffffffff1673ffffffffffffffffffffffffffffffffffffffff1663876481873384866040518463ffffffff1660e01b8152600401610335939291906106be565b606060405180830381865afa158015610352573d6000803e3d6000fd5b505050506040513d601f19601f820116820180604052508101906103769190610824565b905092915050565b6040518060600160405280600073ffffffffffffffffffffffffffffffffffffffff168152602001600073ffffffffffffffffffffffffffffffffffffffff168152602001600060058111156103d7576103d66104cf565b5b81525090565b6000604051905090565b600080fd5b6000819050919050565b6103ff816103ec565b811461040a57600080fd5b50565b60008135905061041c816103f6565b92915050565b600073ffffffffffffffffffffffffffffffffffffffff82169050919050565b600061044d82610422565b9050919050565b61045d81610442565b811461046857600080fd5b50565b60008135905061047a81610454565b92915050565b60008060408385031215610497576104966103e7565b5b60006104a58582860161040d565b92505060206104b68582860161046b565b9150509250929050565b6104c981610442565b82525050565b7f4e487b7100000000000000000000000000000000000000000000000000000000600052602160045260246000fd5b6006811061050f5761050e6104cf565b5b50565b6000819050610520826104fe565b919050565b600061053082610512565b9050919050565b61054081610525565b82525050565b60608201600082015161055c60008501826104c0565b50602082015161056f60208501826104c0565b5060408201516105826040850182610537565b50505050565b600060608201905061059d6000830184610546565b92915050565b6105ac81610442565b82525050565b60006020820190506105c760008301846105a3565b92915050565b60008115159050919050565b6105e2816105cd565b81146105ed57600080fd5b50565b6000815190506105ff816105d9565b92915050565b60006020828403121561061b5761061a6103e7565b5b6000610629848285016105f0565b91505092915050565b600082825260208201905092915050565b7f55736572206e6f7420666f756e64000000000000000000000000000000000000600082015250565b6000610679600e83610632565b915061068482610643565b602082019050919050565b600060208201905081810360008301526106a88161066c565b9050919050565b6106b8816103ec565b82525050565b60006060820190506106d360008301866105a3565b6106e060208301856105a3565b6106ed60408301846106af565b949350505050565b600080fd5b6000601f19601f8301169050919050565b7f4e487b7100000000000000000000000000000000000000000000000000000000600052604160045260246000fd5b610743826106fa565b810181811067ffffffffffffffff821117156107625761076161070b565b5b80604052505050565b60006107756103dd565b9050610781828261073a565b919050565b60008151905061079581610454565b92915050565b600681106107a857600080fd5b50565b6000815190506107ba8161079b565b92915050565b6000606082840312156107d6576107d56106f5565b5b6107e0606061076b565b905060006107f084828501610786565b600083015250602061080484828501610786565b6020830152506040610818848285016107ab565b60408301525092915050565b60006060828403121561083a576108396103e7565b5b6000610848848285016107c0565b9150509291505056fea2646970667358221220d97cb7d611c946d80696524ad83516140e974c02a179873c8bda8d9b8bd0077c64736f6c63430008120033",
			"opcodes": "PUSH1 0x80 PUSH1 0x40 MSTORE CALLVALUE DUP1 ISZERO PUSH2 0x10 JUMPI PUSH1 0x0 DUP1 REVERT JUMPDEST POP PUSH1 0x40 MLOAD PUSH2 0xA43 CODESIZE SUB DUP1 PUSH2 0xA43 DUP4 CODECOPY DUP2 DUP2 ADD PUSH1 0x40 MSTORE DUP2 ADD SWAP1 PUSH2 0x32 SWAP2 SWAP1 PUSH2 0x16D JUMP JUMPDEST DUP2 PUSH1 0x0 DUP1 PUSH2 0x100 EXP DUP2 SLOAD DUP2 PUSH20 0xFFFFFFFFFFFFFFFFFFFFFFFFFFFFFFFFFFFFFFFF MUL NOT AND SWAP1 DUP4 PUSH20 0xFFFFFFFFFFFFFFFFFFFFFFFFFFFFFFFFFFFFFFFF AND MUL OR SWAP1 SSTORE POP DUP1 PUSH1 0x1 PUSH1 0x0 PUSH2 0x100 EXP DUP2 SLOAD DUP2 PUSH20 0xFFFFFFFFFFFFFFFFFFFFFFFFFFFFFFFFFFFFFFFF MUL NOT AND SWAP1 DUP4 PUSH20 0xFFFFFFFFFFFFFFFFFFFFFFFFFFFFFFFFFFFFFFFF AND MUL OR SWAP1 SSTORE POP POP POP PUSH2 0x1AD JUMP JUMPDEST PUSH1 0x0 DUP1 REVERT JUMPDEST PUSH1 0x0 PUSH20 0xFFFFFFFFFFFFFFFFFFFFFFFFFFFFFFFFFFFFFFFF DUP3 AND SWAP1 POP SWAP2 SWAP1 POP JUMP JUMPDEST PUSH1 0x0 PUSH2 0xEA DUP3 PUSH2 0xBF JUMP JUMPDEST SWAP1 POP SWAP2 SWAP1 POP JUMP JUMPDEST PUSH1 0x0 PUSH2 0xFC DUP3 PUSH2 0xDF JUMP JUMPDEST SWAP1 POP SWAP2 SWAP1 POP JUMP JUMPDEST PUSH2 0x10C DUP2 PUSH2 0xF1 JUMP JUMPDEST DUP2 EQ PUSH2 0x117 JUMPI PUSH1 0x0 DUP1 REVERT JUMPDEST POP JUMP JUMPDEST PUSH1 0x0 DUP2 MLOAD SWAP1 POP PUSH2 0x129 DUP2 PUSH2 0x103 JUMP JUMPDEST SWAP3 SWAP2 POP POP JUMP JUMPDEST PUSH1 0x0 PUSH2 0x13A DUP3 PUSH2 0xDF JUMP JUMPDEST SWAP1 POP SWAP2 SWAP1 POP JUMP JUMPDEST PUSH2 0x14A DUP2 PUSH2 0x12F JUMP JUMPDEST DUP2 EQ PUSH2 0x155 JUMPI PUSH1 0x0 DUP1 REVERT JUMPDEST POP JUMP JUMPDEST PUSH1 0x0 DUP2 MLOAD SWAP1 POP PUSH2 0x167 DUP2 PUSH2 0x141 JUMP JUMPDEST SWAP3 SWAP2 POP POP JUMP JUMPDEST PUSH1 0x0 DUP1 PUSH1 0x40 DUP4 DUP6 SUB SLT ISZERO PUSH2 0x184 JUMPI PUSH2 0x183 PUSH2 0xBA JUMP JUMPDEST JUMPDEST PUSH1 0x0 PUSH2 0x192 DUP6 DUP3 DUP7 ADD PUSH2 0x11A JUMP JUMPDEST SWAP3 POP POP PUSH1 0x20 PUSH2 0x1A3 DUP6 DUP3 DUP7 ADD PUSH2 0x158 JUMP JUMPDEST SWAP2 POP POP SWAP3 POP SWAP3 SWAP1 POP JUMP JUMPDEST PUSH2 0x887 DUP1 PUSH2 0x1BC PUSH1 0x0 CODECOPY PUSH1 0x0 RETURN INVALID PUSH1 0x80 PUSH1 0x40 MSTORE CALLVALUE DUP1 ISZERO PUSH2 0x10 JUMPI PUSH1 0x0 DUP1 REVERT JUMPDEST POP PUSH1 0x4 CALLDATASIZE LT PUSH2 0x36 JUMPI PUSH1 0x0 CALLDATALOAD PUSH1 0xE0 SHR DUP1 PUSH4 0x19A00980 EQ PUSH2 0x3B JUMPI DUP1 PUSH4 0x54862F66 EQ PUSH2 0x57 JUMPI JUMPDEST PUSH1 0x0 DUP1 REVERT JUMPDEST PUSH2 0x55 PUSH1 0x4 DUP1 CALLDATASIZE SUB DUP2 ADD SWAP1 PUSH2 0x50 SWAP2 SWAP1 PUSH2 0x480 JUMP JUMPDEST PUSH2 0x87 JUMP JUMPDEST STOP JUMPDEST PUSH2 0x71 PUSH1 0x4 DUP1 CALLDATASIZE SUB DUP2 ADD SWAP1 PUSH2 0x6C SWAP2 SWAP1 PUSH2 0x480 JUMP JUMPDEST PUSH2 0x1F5 JUMP JUMPDEST PUSH1 0x40 MLOAD PUSH2 0x7E SWAP2 SWAP1 PUSH2 0x588 JUMP JUMPDEST PUSH1 0x40 MLOAD DUP1 SWAP2 SUB SWAP1 RETURN JUMPDEST PUSH1 0x1 PUSH1 0x0 SWAP1 SLOAD SWAP1 PUSH2 0x100 EXP SWAP1 DIV PUSH20 0xFFFFFFFFFFFFFFFFFFFFFFFFFFFFFFFFFFFFFFFF AND PUSH20 0xFFFFFFFFFFFFFFFFFFFFFFFFFFFFFFFFFFFFFFFF AND PUSH4 0x1E9D48CF CALLER PUSH1 0x40 MLOAD DUP3 PUSH4 0xFFFFFFFF AND PUSH1 0xE0 SHL DUP2 MSTORE PUSH1 0x4 ADD PUSH2 0xE2 SWAP2 SWAP1 PUSH2 0x5B2 JUMP JUMPDEST PUSH1 0x20 PUSH1 0x40 MLOAD DUP1 DUP4 SUB DUP2 DUP7 GAS STATICCALL ISZERO DUP1 ISZERO PUSH2 0xFF JUMPI RETURNDATASIZE PUSH1 0x0 DUP1 RETURNDATACOPY RETURNDATASIZE PUSH1 0x0 REVERT JUMPDEST POP POP POP POP PUSH1 0x40 MLOAD RETURNDATASIZE PUSH1 0x1F NOT PUSH1 0x1F DUP3 ADD AND DUP3 ADD DUP1 PUSH1 0x40 MSTORE POP DUP2 ADD SWAP1 PUSH2 0x123 SWAP2 SWAP1 PUSH2 0x605 JUMP JUMPDEST PUSH2 0x162 JUMPI PUSH1 0x40 MLOAD PUSH32 0x8C379A000000000000000000000000000000000000000000000000000000000 DUP2 MSTORE PUSH1 0x4 ADD PUSH2 0x159 SWAP1 PUSH2 0x68F JUMP JUMPDEST PUSH1 0x40 MLOAD DUP1 SWAP2 SUB SWAP1 REVERT JUMPDEST PUSH1 0x0 DUP1 SLOAD SWAP1 PUSH2 0x100 EXP SWAP1 DIV PUSH20 0xFFFFFFFFFFFFFFFFFFFFFFFFFFFFFFFFFFFFFFFF AND PUSH20 0xFFFFFFFFFFFFFFFFFFFFFFFFFFFFFFFFFFFFFFFF AND PUSH4 0xEC6D2B0E CALLER DUP4 DUP6 PUSH1 0x40 MLOAD DUP5 PUSH4 0xFFFFFFFF AND PUSH1 0xE0 SHL DUP2 MSTORE PUSH1 0x4 ADD PUSH2 0x1BF SWAP4 SWAP3 SWAP2 SWAP1 PUSH2 0x6BE JUMP JUMPDEST PUSH1 0x0 PUSH1 0x40 MLOAD DUP1 DUP4 SUB DUP2 PUSH1 0x0 DUP8 DUP1 EXTCODESIZE ISZERO DUP1 ISZERO PUSH2 0x1D9 JUMPI PUSH1 0x0 DUP1 REVERT JUMPDEST POP GAS CALL ISZERO DUP1 ISZERO PUSH2 0x1ED JUMPI RETURNDATASIZE PUSH1 0x0 DUP1 RETURNDATACOPY RETURNDATASIZE PUSH1 0x0 REVERT JUMPDEST POP POP POP POP POP POP JUMP JUMPDEST PUSH2 0x1FD PUSH2 0x37E JUMP JUMPDEST PUSH1 0x1 PUSH1 0x0 SWAP1 SLOAD SWAP1 PUSH2 0x100 EXP SWAP1 DIV PUSH20 0xFFFFFFFFFFFFFFFFFFFFFFFFFFFFFFFFFFFFFFFF AND PUSH20 0xFFFFFFFFFFFFFFFFFFFFFFFFFFFFFFFFFFFFFFFF AND PUSH4 0x1E9D48CF CALLER PUSH1 0x40 MLOAD DUP3 PUSH4 0xFFFFFFFF AND PUSH1 0xE0 SHL DUP2 MSTORE PUSH1 0x4 ADD PUSH2 0x258 SWAP2 SWAP1 PUSH2 0x5B2 JUMP JUMPDEST PUSH1 0x20 PUSH1 0x40 MLOAD DUP1 DUP4 SUB DUP2 DUP7 GAS STATICCALL ISZERO DUP1 ISZERO PUSH2 0x275 JUMPI RETURNDATASIZE PUSH1 0x0 DUP1 RETURNDATACOPY RETURNDATASIZE PUSH1 0x0 REVERT JUMPDEST POP POP POP POP PUSH1 0x40 MLOAD RETURNDATASIZE PUSH1 0x1F NOT PUSH1 0x1F DUP3 ADD AND DUP3 ADD DUP1 PUSH1 0x40 MSTORE POP DUP2 ADD SWAP1 PUSH2 0x299 SWAP2 SWAP1 PUSH2 0x605 JUMP JUMPDEST PUSH2 0x2D8 JUMPI PUSH1 0x40 MLOAD PUSH32 0x8C379A000000000000000000000000000000000000000000000000000000000 DUP2 MSTORE PUSH1 0x4 ADD PUSH2 0x2CF SWAP1 PUSH2 0x68F JUMP JUMPDEST PUSH1 0x40 MLOAD DUP1 SWAP2 SUB SWAP1 REVERT JUMPDEST PUSH1 0x0 DUP1 SLOAD SWAP1 PUSH2 0x100 EXP SWAP1 DIV PUSH20 0xFFFFFFFFFFFFFFFFFFFFFFFFFFFFFFFFFFFFFFFF AND PUSH20 0xFFFFFFFFFFFFFFFFFFFFFFFFFFFFFFFFFFFFFFFF AND PUSH4 0x87648187 CALLER DUP5 DUP7 PUSH1 0x40 MLOAD DUP5 PUSH4 0xFFFFFFFF AND PUSH1 0xE0 SHL DUP2 MSTORE PUSH1 0x4 ADD PUSH2 0x335 SWAP4 SWAP3 SWAP2 SWAP1 PUSH2 0x6BE JUMP JUMPDEST PUSH1 0x60 PUSH1 0x40 MLOAD DUP1 DUP4 SUB DUP2 DUP7 GAS STATICCALL ISZERO DUP1 ISZERO PUSH2 0x352 JUMPI RETURNDATASIZE PUSH1 0x0 DUP1 RETURNDATACOPY RETURNDATASIZE PUSH1 0x0 REVERT JUMPDEST POP POP POP POP PUSH1 0x40 MLOAD RETURNDATASIZE PUSH1 0x1F NOT PUSH1 0x1F DUP3 ADD AND DUP3 ADD DUP1 PUSH1 0x40 MSTORE POP DUP2 ADD SWAP1 PUSH2 0x376 SWAP2 SWAP1 PUSH2 0x824 JUMP JUMPDEST SWAP1 POP SWAP3 SWAP2 POP POP JUMP JUMPDEST PUSH1 0x40 MLOAD DUP1 PUSH1 0x60 ADD PUSH1 0x40 MSTORE DUP1 PUSH1 0x0 PUSH20 0xFFFFFFFFFFFFFFFFFFFFFFFFFFFFFFFFFFFFFFFF AND DUP2 MSTORE PUSH1 0x20 ADD PUSH1 0x0 PUSH20 0xFFFFFFFFFFFFFFFFFFFFFFFFFFFFFFFFFFFFFFFF AND DUP2 MSTORE PUSH1 0x20 ADD PUSH1 0x0 PUSH1 0x5 DUP2 GT ISZERO PUSH2 0x3D7 JUMPI PUSH2 0x3D6 PUSH2 0x4CF JUMP JUMPDEST JUMPDEST DUP2 MSTORE POP SWAP1 JUMP JUMPDEST PUSH1 0x0 PUSH1 0x40 MLOAD SWAP1 POP SWAP1 JUMP JUMPDEST PUSH1 0x0 DUP1 REVERT JUMPDEST PUSH1 0x0 DUP2 SWAP1 POP SWAP2 SWAP1 POP JUMP JUMPDEST PUSH2 0x3FF DUP2 PUSH2 0x3EC JUMP JUMPDEST DUP2 EQ PUSH2 0x40A JUMPI PUSH1 0x0 DUP1 REVERT JUMPDEST POP JUMP JUMPDEST PUSH1 0x0 DUP2 CALLDATALOAD SWAP1 POP PUSH2 0x41C DUP2 PUSH2 0x3F6 JUMP JUMPDEST SWAP3 SWAP2 POP POP JUMP JUMPDEST PUSH1 0x0 PUSH20 0xFFFFFFFFFFFFFFFFFFFFFFFFFFFFFFFFFFFFFFFF DUP3 AND SWAP1 POP SWAP2 SWAP1 POP JUMP JUMPDEST PUSH1 0x0 PUSH2 0x44D DUP3 PUSH2 0x422 JUMP JUMPDEST SWAP1 POP SWAP2 SWAP1 POP JUMP JUMPDEST PUSH2 0x45D DUP2 PUSH2 0x442 JUMP JUMPDEST DUP2 EQ PUSH2 0x468 JUMPI PUSH1 0x0 DUP1 REVERT JUMPDEST POP JUMP JUMPDEST PUSH1 0x0 DUP2 CALLDATALOAD SWAP1 POP PUSH2 0x47A DUP2 PUSH2 0x454 JUMP JUMPDEST SWAP3 SWAP2 POP POP JUMP JUMPDEST PUSH1 0x0 DUP1 PUSH1 0x40 DUP4 DUP6 SUB SLT ISZERO PUSH2 0x497 JUMPI PUSH2 0x496 PUSH2 0x3E7 JUMP JUMPDEST JUMPDEST PUSH1 0x0 PUSH2 0x4A5 DUP6 DUP3 DUP7 ADD PUSH2 0x40D JUMP JUMPDEST SWAP3 POP POP PUSH1 0x20 PUSH2 0x4B6 DUP6 DUP3 DUP7 ADD PUSH2 0x46B JUMP JUMPDEST SWAP2 POP POP SWAP3 POP SWAP3 SWAP1 POP JUMP JUMPDEST PUSH2 0x4C9 DUP2 PUSH2 0x442 JUMP JUMPDEST DUP3 MSTORE POP POP JUMP JUMPDEST PUSH32 0x4E487B7100000000000000000000000000000000000000000000000000000000 PUSH1 0x0 MSTORE PUSH1 0x21 PUSH1 0x4 MSTORE PUSH1 0x24 PUSH1 0x0 REVERT JUMPDEST PUSH1 0x6 DUP2 LT PUSH2 0x50F JUMPI PUSH2 0x50E PUSH2 0x4CF JUMP JUMPDEST JUMPDEST POP JUMP JUMPDEST PUSH1 0x0 DUP2 SWAP1 POP PUSH2 0x520 DUP3 PUSH2 0x4FE JUMP JUMPDEST SWAP2 SWAP1 POP JUMP JUMPDEST PUSH1 0x0 PUSH2 0x530 DUP3 PUSH2 0x512 JUMP JUMPDEST SWAP1 POP SWAP2 SWAP1 POP JUMP JUMPDEST PUSH2 0x540 DUP2 PUSH2 0x525 JUMP JUMPDEST DUP3 MSTORE POP POP JUMP JUMPDEST PUSH1 0x60 DUP3 ADD PUSH1 0x0 DUP3 ADD MLOAD PUSH2 0x55C PUSH1 0x0 DUP6 ADD DUP3 PUSH2 0x4C0 JUMP JUMPDEST POP PUSH1 0x20 DUP3 ADD MLOAD PUSH2 0x56F PUSH1 0x20 DUP6 ADD DUP3 PUSH2 0x4C0 JUMP JUMPDEST POP PUSH1 0x40 DUP3 ADD MLOAD PUSH2 0x582 PUSH1 0x40 DUP6 ADD DUP3 PUSH2 0x537 JUMP JUMPDEST POP POP POP POP JUMP JUMPDEST PUSH1 0x0 PUSH1 0x60 DUP3 ADD SWAP1 POP PUSH2 0x59D PUSH1 0x0 DUP4 ADD DUP5 PUSH2 0x546 JUMP JUMPDEST SWAP3 SWAP2 POP POP JUMP JUMPDEST PUSH2 0x5AC DUP2 PUSH2 0x442 JUMP JUMPDEST DUP3 MSTORE POP POP JUMP JUMPDEST PUSH1 0x0 PUSH1 0x20 DUP3 ADD SWAP1 POP PUSH2 0x5C7 PUSH1 0x0 DUP4 ADD DUP5 PUSH2 0x5A3 JUMP JUMPDEST SWAP3 SWAP2 POP POP JUMP JUMPDEST PUSH1 0x0 DUP2 ISZERO ISZERO SWAP1 POP SWAP2 SWAP1 POP JUMP JUMPDEST PUSH2 0x5E2 DUP2 PUSH2 0x5CD JUMP JUMPDEST DUP2 EQ PUSH2 0x5ED JUMPI PUSH1 0x0 DUP1 REVERT JUMPDEST POP JUMP JUMPDEST PUSH1 0x0 DUP2 MLOAD SWAP1 POP PUSH2 0x5FF DUP2 PUSH2 0x5D9 JUMP JUMPDEST SWAP3 SWAP2 POP POP JUMP JUMPDEST PUSH1 0x0 PUSH1 0x20 DUP3 DUP5 SUB SLT ISZERO PUSH2 0x61B JUMPI PUSH2 0x61A PUSH2 0x3E7 JUMP JUMPDEST JUMPDEST PUSH1 0x0 PUSH2 0x629 DUP5 DUP3 DUP6 ADD PUSH2 0x5F0 JUMP JUMPDEST SWAP2 POP POP SWAP3 SWAP2 POP POP JUMP JUMPDEST PUSH1 0x0 DUP3 DUP3 MSTORE PUSH1 0x20 DUP3 ADD SWAP1 POP SWAP3 SWAP2 POP POP JUMP JUMPDEST PUSH32 0x55736572206E6F7420666F756E64000000000000000000000000000000000000 PUSH1 0x0 DUP3 ADD MSTORE POP JUMP JUMPDEST PUSH1 0x0 PUSH2 0x679 PUSH1 0xE DUP4 PUSH2 0x632 JUMP JUMPDEST SWAP2 POP PUSH2 0x684 DUP3 PUSH2 0x643 JUMP JUMPDEST PUSH1 0x20 DUP3 ADD SWAP1 POP SWAP2 SWAP1 POP JUMP JUMPDEST PUSH1 0x0 PUSH1 0x20 DUP3 ADD SWAP1 POP DUP2 DUP2 SUB PUSH1 0x0 DUP4 ADD MSTORE PUSH2 0x6A8 DUP2 PUSH2 0x66C JUMP JUMPDEST SWAP1 POP SWAP2 SWAP1 POP JUMP JUMPDEST PUSH2 0x6B8 DUP2 PUSH2 0x3EC JUMP JUMPDEST DUP3 MSTORE POP POP JUMP JUMPDEST PUSH1 0x0 PUSH1 0x60 DUP3 ADD SWAP1 POP PUSH2 0x6D3 PUSH1 0x0 DUP4 ADD DUP7 PUSH2 0x5A3 JUMP JUMPDEST PUSH2 0x6E0 PUSH1 0x20 DUP4 ADD DUP6 PUSH2 0x5A3 JUMP JUMPDEST PUSH2 0x6ED PUSH1 0x40 DUP4 ADD DUP5 PUSH2 0x6AF JUMP JUMPDEST SWAP5 SWAP4 POP POP POP POP JUMP JUMPDEST PUSH1 0x0 DUP1 REVERT JUMPDEST PUSH1 0x0 PUSH1 0x1F NOT PUSH1 0x1F DUP4 ADD AND SWAP1 POP SWAP2 SWAP1 POP JUMP JUMPDEST PUSH32 0x4E487B7100000000000000000000000000000000000000000000000000000000 PUSH1 0x0 MSTORE PUSH1 0x41 PUSH1 0x4 MSTORE PUSH1 0x24 PUSH1 0x0 REVERT JUMPDEST PUSH2 0x743 DUP3 PUSH2 0x6FA JUMP JUMPDEST DUP2 ADD DUP2 DUP2 LT PUSH8 0xFFFFFFFFFFFFFFFF DUP3 GT OR ISZERO PUSH2 0x762 JUMPI PUSH2 0x761 PUSH2 0x70B JUMP JUMPDEST JUMPDEST DUP1 PUSH1 0x40 MSTORE POP POP POP JUMP JUMPDEST PUSH1 0x0 PUSH2 0x775 PUSH2 0x3DD JUMP JUMPDEST SWAP1 POP PUSH2 0x781 DUP3 DUP3 PUSH2 0x73A JUMP JUMPDEST SWAP2 SWAP1 POP JUMP JUMPDEST PUSH1 0x0 DUP2 MLOAD SWAP1 POP PUSH2 0x795 DUP2 PUSH2 0x454 JUMP JUMPDEST SWAP3 SWAP2 POP POP JUMP JUMPDEST PUSH1 0x6 DUP2 LT PUSH2 0x7A8 JUMPI PUSH1 0x0 DUP1 REVERT JUMPDEST POP JUMP JUMPDEST PUSH1 0x0 DUP2 MLOAD SWAP1 POP PUSH2 0x7BA DUP2 PUSH2 0x79B JUMP JUMPDEST SWAP3 SWAP2 POP POP JUMP JUMPDEST PUSH1 0x0 PUSH1 0x60 DUP3 DUP5 SUB SLT ISZERO PUSH2 0x7D6 JUMPI PUSH2 0x7D5 PUSH2 0x6F5 JUMP JUMPDEST JUMPDEST PUSH2 0x7E0 PUSH1 0x60 PUSH2 0x76B JUMP JUMPDEST SWAP1 POP PUSH1 0x0 PUSH2 0x7F0 DUP5 DUP3 DUP6 ADD PUSH2 0x786 JUMP JUMPDEST PUSH1 0x0 DUP4 ADD MSTORE POP PUSH1 0x20 PUSH2 0x804 DUP5 DUP3 DUP6 ADD PUSH2 0x786 JUMP JUMPDEST PUSH1 0x20 DUP4 ADD MSTORE POP PUSH1 0x40 PUSH2 0x818 DUP5 DUP3 DUP6 ADD PUSH2 0x7AB JUMP JUMPDEST PUSH1 0x40 DUP4 ADD MSTORE POP SWAP3 SWAP2 POP POP JUMP JUMPDEST PUSH1 0x0 PUSH1 0x60 DUP3 DUP5 SUB SLT ISZERO PUSH2 0x83A JUMPI PUSH2 0x839 PUSH2 0x3E7 JUMP JUMPDEST JUMPDEST PUSH1 0x0 PUSH2 0x848 DUP5 DUP3 DUP6 ADD PUSH2 0x7C0 JUMP JUMPDEST SWAP2 POP POP SWAP3 SWAP2 POP POP JUMP INVALID LOG2 PUSH5 0x6970667358 0x22 SLT KECCAK256 0xD9 PUSH29 0xB7D611C946D80696524AD83516140E974C02A179873C8BDA8D9B8BD007 PUSH29 0x64736F6C63430008120033000000000000000000000000000000000000 "
		},
		"gasEstimates": {
			"creation": {
				"codeDepositCost": "436600",
				"executionCost": "infinite",
				"totalCost": "infinite"
			},
			"external": {
				"applyForJob(uint256,address)": "infinite",
				"getApplicationByJobId(uint256,address)": "infinite"
			}
		},
		"methodIdentifiers": {
			"applyForJob(uint256,address)": "19a00980",
			"getApplicationByJobId(uint256,address)": "54862f66"
		}
	},
	"abi": [
		{
			"inputs": [
				{
					"internalType": "contract JobHandler",
					"name": "jobHandlerAddress",
					"type": "address"
				},
				{
					"internalType": "contract Controller",
					"name": "authAddress",
					"type": "address"
				}
			],
			"stateMutability": "nonpayable",
			"type": "constructor"
		},
		{
			"inputs": [
				{
					"internalType": "uint256",
					"name": "jobId",
					"type": "uint256"
				},
				{
					"internalType": "address",
					"name": "companyAddress",
					"type": "address"
				}
			],
			"name": "applyForJob",
			"outputs": [],
			"stateMutability": "nonpayable",
			"type": "function"
		},
		{
			"inputs": [
				{
					"internalType": "uint256",
					"name": "jobId",
					"type": "uint256"
				},
				{
					"internalType": "address",
					"name": "companyAddress",
					"type": "address"
				}
			],
			"name": "getApplicationByJobId",
			"outputs": [
				{
					"components": [
						{
							"internalType": "address",
							"name": "applierAddress",
							"type": "address"
						},
						{
							"internalType": "address",
							"name": "companyAddress",
							"type": "address"
						},
						{
							"internalType": "enum JobHandler.Status",
							"name": "status",
							"type": "uint8"
						}
					],
					"internalType": "struct JobHandler.ApplicationData",
					"name": "",
					"type": "tuple"
				}
			],
			"stateMutability": "view",
			"type": "function"
		}
	]
}