{
	"data": {
		"bytecode": {
			"linkReferences": {},
			"object": "60806040523480156200001157600080fd5b5060405162004b6438038062004b648339818101604052810190620000379190620000fd565b80600160006101000a81548173ffffffffffffffffffffffffffffffffffffffff021916908373ffffffffffffffffffffffffffffffffffffffff160217905550506200012f565b600080fd5b600073ffffffffffffffffffffffffffffffffffffffff82169050919050565b6000620000b18262000084565b9050919050565b6000620000c582620000a4565b9050919050565b620000d781620000b8565b8114620000e357600080fd5b50565b600081519050620000f781620000cc565b92915050565b6000602082840312156200011657620001156200007f565b5b60006200012684828501620000e6565b91505092915050565b614a25806200013f6000396000f3fe608060405234801561001057600080fd5b50600436106100a95760003560e01c8063745d413011610071578063745d4130146101775780638764818714610193578063afbe627b146101c3578063b8054bc1146101f3578063e7e25d1714610223578063ec6d2b0e1461023f576100a9565b80630dec01ea146100ae57806315ef38e7146100de5780631e01abca1461010f578063647caa7b1461012b57806369afcab114610147575b600080fd5b6100c860048036038101906100c39190612ae0565b61025b565b6040516100d59190612fe8565b60405180910390f35b6100f860048036038101906100f39190613036565b6108d2565b6040516101069291906130e0565b60405180910390f35b61012960048036038101906101249190613109565b610ab6565b005b61014560048036038101906101409190613351565b610c4b565b005b610161600480360381019061015c91906134bc565b611111565b60405161016e9190613631565b60405180910390f35b610191600480360381019061018c9190613653565b6116bd565b005b6101ad60048036038101906101a89190613036565b611a59565b6040516101ba91906136f7565b60405180910390f35b6101dd60048036038101906101d89190613109565b611d52565b6040516101ea9190613803565b60405180910390f35b61020d60048036038101906102089190613109565b611fa4565b60405161021a919061386f565b60405180910390f35b61023d60048036038101906102389190613891565b612142565b005b61025960048036038101906102549190613036565b61243f565b005b60606000600460008473ffffffffffffffffffffffffffffffffffffffff1673ffffffffffffffffffffffffffffffffffffffff1681526020019081526020016000208054905067ffffffffffffffff8111156102bb576102ba613140565b5b6040519080825280602002602001820160405280156102f457816020015b6102e161286d565b8152602001906001900390816102d95790505b50905060005b600460008573ffffffffffffffffffffffffffffffffffffffff1673ffffffffffffffffffffffffffffffffffffffff168152602001908152602001600020805490508110156108c85760026000600460008773ffffffffffffffffffffffffffffffffffffffff1673ffffffffffffffffffffffffffffffffffffffff168152602001908152602001600020838154811061039957610398613900565b5b90600052602060002001548152602001908152602001600020604051806101a00160405290816000820160009054906101000a900473ffffffffffffffffffffffffffffffffffffffff1673ffffffffffffffffffffffffffffffffffffffff1673ffffffffffffffffffffffffffffffffffffffff1681526020016001820180546104249061395e565b80601f01602080910402602001604051908101604052809291908181526020018280546104509061395e565b801561049d5780601f106104725761010080835404028352916020019161049d565b820191906000526020600020905b81548152906001019060200180831161048057829003601f168201915b505050505081526020016002820160009054906101000a900460ff1660038111156104cb576104ca612bd8565b5b60038111156104dd576104dc612bd8565b5b815260200160038201805480602002602001604051908101604052809291908181526020016000905b828210156105b25783829060005260206000200180546105259061395e565b80601f01602080910402602001604051908101604052809291908181526020018280546105519061395e565b801561059e5780601f106105735761010080835404028352916020019161059e565b820191906000526020600020905b81548152906001019060200180831161058157829003601f168201915b505050505081526020019060010190610506565b5050505081526020016004820160009054906101000a900460ff161515151581526020016005820180546105e59061395e565b80601f01602080910402602001604051908101604052809291908181526020018280546106119061395e565b801561065e5780601f106106335761010080835404028352916020019161065e565b820191906000526020600020905b81548152906001019060200180831161064157829003601f168201915b505050505081526020016006820160009054906101000a900460ff16600181111561068c5761068b612bd8565b5b600181111561069e5761069d612bd8565b5b81526020016006820160019054906101000a900460ff1660018111156106c7576106c6612bd8565b5b60018111156106d9576106d8612bd8565b5b81526020016006820160029054906101000a900460ff16600181111561070257610701612bd8565b5b600181111561071457610713612bd8565b5b815260200160078201805480602002602001604051908101604052809291908181526020016000905b828210156107e957838290600052602060002001805461075c9061395e565b80601f01602080910402602001604051908101604052809291908181526020018280546107889061395e565b80156107d55780601f106107aa576101008083540402835291602001916107d5565b820191906000526020600020905b8154815290600101906020018083116107b857829003601f168201915b50505050508152602001906001019061073d565b5050505081526020016008820154815260200160098201805461080b9061395e565b80601f01602080910402602001604051908101604052809291908181526020018280546108379061395e565b80156108845780601f1061085957610100808354040283529160200191610884565b820191906000526020600020905b81548152906001019060200180831161086757829003601f168201915b50505050508152602001600a820154815250508282815181106108aa576108a9613900565b5b602002602001018190525080806108c0906139be565b9150506102fa565b5080915050919050565b60008060005b6003600085815260200190815260200160002080549050811015610aa5578573ffffffffffffffffffffffffffffffffffffffff1660036000868152602001908152602001600020828154811061093257610931613900565b5b906000526020600020906002020160000160009054906101000a900473ffffffffffffffffffffffffffffffffffffffff1673ffffffffffffffffffffffffffffffffffffffff1603610a92578473ffffffffffffffffffffffffffffffffffffffff166003600086815260200190815260200160002082815481106109bb576109ba613900565b5b906000526020600020906002020160010160009054906101000a900473ffffffffffffffffffffffffffffffffffffffff1673ffffffffffffffffffffffffffffffffffffffff1614610a43576040517f08c379a0000000000000000000000000000000000000000000000000000000008152600401610a3a90613a52565b60405180910390fd5b600360008581526020019081526020016000208181548110610a6857610a67613900565b5b906000526020600020906002020160010160149054906101000a900460ff16819250925050610aae565b8080610a9d906139be565b9150506108d8565b50600080915091505b935093915050565b3373ffffffffffffffffffffffffffffffffffffffff166002600083815260200190815260200160002060000160009054906101000a900473ffffffffffffffffffffffffffffffffffffffff1673ffffffffffffffffffffffffffffffffffffffff1614610b5a576040517f08c379a0000000000000000000000000000000000000000000000000000000008152600401610b5190613abe565b60405180910390fd5b6002600082815260200190815260200160002060040160009054906101000a900460ff16610bbd576040517f08c379a0000000000000000000000000000000000000000000000000000000008152600401610bb490613b2a565b60405180910390fd5b60006002600083815260200190815260200160002060040160006101000a81548160ff0219169083151502179055507fca2949ccab8a139045d9f4e02712861b2e53d7e0f97cec15655799445c20b1cc336002600084815260200190815260200160002060040160009054906101000a900460ff16604051610c40929190613b68565b60405180910390a150565b6000600160009054906101000a900473ffffffffffffffffffffffffffffffffffffffff1673ffffffffffffffffffffffffffffffffffffffff166362bc56e6336040518263ffffffff1660e01b8152600401610ca89190613b91565b600060405180830381865afa158015610cc5573d6000803e3d6000fd5b505050506040513d6000823e3d601f19601f82011682018060405250810190610cee9190613e5b565b6000015190503373ffffffffffffffffffffffffffffffffffffffff168173ffffffffffffffffffffffffffffffffffffffff1614610d62576040517f08c379a0000000000000000000000000000000000000000000000000000000008152600401610d5990613f16565b60405180910390fd5b600080815480929190610d74906139be565b9190505550604051806101a001604052808273ffffffffffffffffffffffffffffffffffffffff1681526020018c81526020018b6003811115610dba57610db9612bd8565b5b6003811115610dcc57610dcb612bd8565b5b81526020018a8152602001600115158152602001898152602001886001811115610df957610df8612bd8565b5b6001811115610e0b57610e0a612bd8565b5b8152602001876001811115610e2357610e22612bd8565b5b6001811115610e3557610e34612bd8565b5b8152602001866001811115610e4d57610e4c612bd8565b5b6001811115610e5f57610e5e612bd8565b5b815260200185815260200184815260200183815260200142815250600260008054815260200190815260200160002060008201518160000160006101000a81548173ffffffffffffffffffffffffffffffffffffffff021916908373ffffffffffffffffffffffffffffffffffffffff1602179055506020820151816001019081610eea91906140e2565b5060408201518160020160006101000a81548160ff02191690836003811115610f1657610f15612bd8565b5b02179055506060820151816003019080519060200190610f37929190612935565b5060808201518160040160006101000a81548160ff02191690831515021790555060a0820151816005019081610f6d91906140e2565b5060c08201518160060160006101000a81548160ff02191690836001811115610f9957610f98612bd8565b5b021790555060e08201518160060160016101000a81548160ff02191690836001811115610fc957610fc8612bd8565b5b02179055506101008201518160060160026101000a81548160ff02191690836001811115610ffa57610ff9612bd8565b5b021790555061012082015181600701908051906020019061101c929190612935565b50610140820151816008015561016082015181600901908161103e91906140e2565b5061018082015181600a0155905050600460008273ffffffffffffffffffffffffffffffffffffffff1673ffffffffffffffffffffffffffffffffffffffff16815260200190815260200160002060005490806001815401808255809150506001900390600052602060002001600090919091909150557fb59ab3eda203d25d3f7f9c2b2cc9833111775c1193b6ecdd3eb7184bfca6ed7d818c8c60038111156110eb576110ea612bd8565b5b8c6040516110fc9493929190614249565b60405180910390a15050505050505050505050565b61111961286d565b8273ffffffffffffffffffffffffffffffffffffffff166002600084815260200190815260200160002060000160009054906101000a900473ffffffffffffffffffffffffffffffffffffffff1673ffffffffffffffffffffffffffffffffffffffff16146111bd576040517f08c379a00000000000000000000000000000000000000000000000000000000081526004016111b490613a52565b60405180910390fd5b60026000838152602001908152602001600020604051806101a00160405290816000820160009054906101000a900473ffffffffffffffffffffffffffffffffffffffff1673ffffffffffffffffffffffffffffffffffffffff1673ffffffffffffffffffffffffffffffffffffffff1681526020016001820180546112429061395e565b80601f016020809104026020016040519081016040528092919081815260200182805461126e9061395e565b80156112bb5780601f10611290576101008083540402835291602001916112bb565b820191906000526020600020905b81548152906001019060200180831161129e57829003601f168201915b505050505081526020016002820160009054906101000a900460ff1660038111156112e9576112e8612bd8565b5b60038111156112fb576112fa612bd8565b5b815260200160038201805480602002602001604051908101604052809291908181526020016000905b828210156113d05783829060005260206000200180546113439061395e565b80601f016020809104026020016040519081016040528092919081815260200182805461136f9061395e565b80156113bc5780601f10611391576101008083540402835291602001916113bc565b820191906000526020600020905b81548152906001019060200180831161139f57829003601f168201915b505050505081526020019060010190611324565b5050505081526020016004820160009054906101000a900460ff161515151581526020016005820180546114039061395e565b80601f016020809104026020016040519081016040528092919081815260200182805461142f9061395e565b801561147c5780601f106114515761010080835404028352916020019161147c565b820191906000526020600020905b81548152906001019060200180831161145f57829003601f168201915b505050505081526020016006820160009054906101000a900460ff1660018111156114aa576114a9612bd8565b5b60018111156114bc576114bb612bd8565b5b81526020016006820160019054906101000a900460ff1660018111156114e5576114e4612bd8565b5b60018111156114f7576114f6612bd8565b5b81526020016006820160029054906101000a900460ff1660018111156115205761151f612bd8565b5b600181111561153257611531612bd8565b5b815260200160078201805480602002602001604051908101604052809291908181526020016000905b8282101561160757838290600052602060002001805461157a9061395e565b80601f01602080910402602001604051908101604052809291908181526020018280546115a69061395e565b80156115f35780601f106115c8576101008083540402835291602001916115f3565b820191906000526020600020905b8154815290600101906020018083116115d657829003601f168201915b50505050508152602001906001019061155b565b505050508152602001600882015481526020016009820180546116299061395e565b80601f01602080910402602001604051908101604052809291908181526020018280546116559061395e565b80156116a25780601f10611677576101008083540402835291602001916116a2565b820191906000526020600020905b81548152906001019060200180831161168557829003601f168201915b50505050508152602001600a82015481525050905092915050565b6000600260008481526020019081526020016000206008015403611716576040517f08c379a000000000000000000000000000000000000000000000000000000000815260040161170d906142e8565b60405180910390fd5b60008303611759576040517f08c379a000000000000000000000000000000000000000000000000000000000815260040161175090614354565b60405180910390fd5b6000806117678333866108d2565b915091506004600581111561177f5761177e612bd8565b5b82600581111561179257611791612bd8565b5b036117d2576040517f08c379a00000000000000000000000000000000000000000000000000000000081526004016117c9906143c0565b60405180910390fd5b6005808111156117e5576117e4612bd8565b5b8260058111156117f8576117f7612bd8565b5b03611838576040517f08c379a000000000000000000000000000000000000000000000000000000000815260040161182f9061442c565b60405180910390fd5b60058081111561184b5761184a612bd8565b5b85600581111561185e5761185d612bd8565b5b60058111156118705761186f612bd8565b5b146118fa57600185611882919061444c565b600581111561189457611893612bd8565b5b60058111156118a6576118a5612bd8565b5b8260058111156118b9576118b8612bd8565b5b146118f9576040517f08c379a00000000000000000000000000000000000000000000000000000000081526004016118f0906144f2565b60405180910390fd5b5b84600581111561190d5761190c612bd8565b5b60036000868152602001908152602001600020828154811061193257611931613900565b5b906000526020600020906002020160010160146101000a81548160ff0219169083600581111561196557611964612bd8565b5b021790555084600581111561197d5761197c612bd8565b5b600581111561198f5761198e612bd8565b5b6003600086815260200190815260200160002082815481106119b4576119b3613900565b5b906000526020600020906002020160010160149054906101000a900460ff1660058111156119e5576119e4612bd8565b5b03611a1757600260008581526020019081526020016000206008016000815480929190611a1190614512565b91905055505b7f0421a47b502e9e668f50677138fda90f09a5ab4133e9449f4218d291450356ce858585604051611a4a9392919061453b565b60405180910390a15050505050565b611a6161298e565b60005b6003600084815260200190815260200160002080549050811015611cd9578473ffffffffffffffffffffffffffffffffffffffff16600360008581526020019081526020016000208281548110611abe57611abd613900565b5b906000526020600020906002020160000160009054906101000a900473ffffffffffffffffffffffffffffffffffffffff1673ffffffffffffffffffffffffffffffffffffffff16148015611b9457508373ffffffffffffffffffffffffffffffffffffffff16600360008581526020019081526020016000208281548110611b4a57611b49613900565b5b906000526020600020906002020160010160009054906101000a900473ffffffffffffffffffffffffffffffffffffffff1673ffffffffffffffffffffffffffffffffffffffff16145b15611cc657600360008481526020019081526020016000208181548110611bbe57611bbd613900565b5b90600052602060002090600202016040518060600160405290816000820160009054906101000a900473ffffffffffffffffffffffffffffffffffffffff1673ffffffffffffffffffffffffffffffffffffffff1673ffffffffffffffffffffffffffffffffffffffff1681526020016001820160009054906101000a900473ffffffffffffffffffffffffffffffffffffffff1673ffffffffffffffffffffffffffffffffffffffff1673ffffffffffffffffffffffffffffffffffffffff1681526020016001820160149054906101000a900460ff166005811115611ca857611ca7612bd8565b5b6005811115611cba57611cb9612bd8565b5b81525050915050611d4b565b8080611cd1906139be565b915050611a64565b506040518060600160405280600073ffffffffffffffffffffffffffffffffffffffff168152602001600073ffffffffffffffffffffffffffffffffffffffff16815260200160006005811115611d3357611d32612bd8565b5b6005811115611d4557611d44612bd8565b5b81525090505b9392505050565b606060005b6003600084815260200190815260200160002080549050811015611e4c573373ffffffffffffffffffffffffffffffffffffffff16600360008581526020019081526020016000208281548110611db157611db0613900565b5b906000526020600020906002020160010160009054906101000a900473ffffffffffffffffffffffffffffffffffffffff1673ffffffffffffffffffffffffffffffffffffffff1614611e39576040517f08c379a0000000000000000000000000000000000000000000000000000000008152600401611e30906145be565b60405180910390fd5b8080611e44906139be565b915050611d57565b5060036000838152602001908152602001600020805480602002602001604051908101604052809291908181526020016000905b82821015611f9957838290600052602060002090600202016040518060600160405290816000820160009054906101000a900473ffffffffffffffffffffffffffffffffffffffff1673ffffffffffffffffffffffffffffffffffffffff1673ffffffffffffffffffffffffffffffffffffffff1681526020016001820160009054906101000a900473ffffffffffffffffffffffffffffffffffffffff1673ffffffffffffffffffffffffffffffffffffffff1673ffffffffffffffffffffffffffffffffffffffff1681526020016001820160149054906101000a900460ff166005811115611f7457611f73612bd8565b5b6005811115611f8657611f85612bd8565b5b8152505081526020019060010190611e80565b505050509050919050565b606060405180602001604052806000815250805190602001206005600084815260200190815260200160002060003373ffffffffffffffffffffffffffffffffffffffff1673ffffffffffffffffffffffffffffffffffffffff16815260200190815260200160002060405161201a9190614681565b604051809103902003612062576040517f08c379a0000000000000000000000000000000000000000000000000000000008152600401612059906146e4565b60405180910390fd5b6005600083815260200190815260200160002060003373ffffffffffffffffffffffffffffffffffffffff1673ffffffffffffffffffffffffffffffffffffffff16815260200190815260200160002080546120bd9061395e565b80601f01602080910402602001604051908101604052809291908181526020018280546120e99061395e565b80156121365780601f1061210b57610100808354040283529160200191612136565b820191906000526020600020905b81548152906001019060200180831161211957829003601f168201915b50505050509050919050565b600060036000858152602001908152602001600020838154811061216957612168613900565b5b90600052602060002090600202016040518060600160405290816000820160009054906101000a900473ffffffffffffffffffffffffffffffffffffffff1673ffffffffffffffffffffffffffffffffffffffff1673ffffffffffffffffffffffffffffffffffffffff1681526020016001820160009054906101000a900473ffffffffffffffffffffffffffffffffffffffff1673ffffffffffffffffffffffffffffffffffffffff1673ffffffffffffffffffffffffffffffffffffffff1681526020016001820160149054906101000a900460ff16600581111561225357612252612bd8565b5b600581111561226557612264612bd8565b5b8152505090506004600581111561227f5761227e612bd8565b5b8160400151600581111561229657612295612bd8565b5b146122d6576040517f08c379a00000000000000000000000000000000000000000000000000000000081526004016122cd90614750565b60405180910390fd5b6040518060200160405280600081525080519060200120600560008681526020019081526020016000206000836000015173ffffffffffffffffffffffffffffffffffffffff1673ffffffffffffffffffffffffffffffffffffffff16815260200190815260200160002060405161234e9190614681565b604051809103902014612396576040517f08c379a000000000000000000000000000000000000000000000000000000000815260040161238d906147bc565b60405180910390fd5b81600560008681526020019081526020016000206000836000015173ffffffffffffffffffffffffffffffffffffffff1673ffffffffffffffffffffffffffffffffffffffff16815260200190815260200160002090816123f791906140e2565b507f1e6d93c98cd6b6c7b4a33a227eef3933c5138167dcd65699f31fa7f9b5db26e5816000015133848760405161243194939291906147dc565b60405180910390a150505050565b60006002600083815260200190815260200160002090508273ffffffffffffffffffffffffffffffffffffffff168160000160009054906101000a900473ffffffffffffffffffffffffffffffffffffffff1673ffffffffffffffffffffffffffffffffffffffff16146124e8576040517f08c379a00000000000000000000000000000000000000000000000000000000081526004016124df90613a52565b60405180910390fd5b8373ffffffffffffffffffffffffffffffffffffffff168160000160009054906101000a900473ffffffffffffffffffffffffffffffffffffffff1673ffffffffffffffffffffffffffffffffffffffff160361257a576040517f08c379a00000000000000000000000000000000000000000000000000000000081526004016125719061489a565b60405180910390fd5b8060040160009054906101000a900460ff166125cb576040517f08c379a00000000000000000000000000000000000000000000000000000000081526004016125c290614906565b60405180910390fd5b60005b60036000848152602001908152602001600020805490508110156126c3578473ffffffffffffffffffffffffffffffffffffffff1660036000858152602001908152602001600020828154811061262857612627613900565b5b906000526020600020906002020160000160009054906101000a900473ffffffffffffffffffffffffffffffffffffffff1673ffffffffffffffffffffffffffffffffffffffff16036126b0576040517f08c379a00000000000000000000000000000000000000000000000000000000081526004016126a790614998565b60405180910390fd5b80806126bb906139be565b9150506125ce565b506003600083815260200190815260200160002060405180606001604052808673ffffffffffffffffffffffffffffffffffffffff1681526020018573ffffffffffffffffffffffffffffffffffffffff1681526020016001600581111561272e5761272d612bd8565b5b60058111156127405761273f612bd8565b5b815250908060018154018082558091505060019003906000526020600020906002020160009091909190915060008201518160000160006101000a81548173ffffffffffffffffffffffffffffffffffffffff021916908373ffffffffffffffffffffffffffffffffffffffff16021790555060208201518160010160006101000a81548173ffffffffffffffffffffffffffffffffffffffff021916908373ffffffffffffffffffffffffffffffffffffffff16021790555060408201518160010160146101000a81548160ff0219169083600581111561282557612824612bd8565b5b021790555050507f1adc25cb20cfba1e9e216619ccb6a35b753f0aacc9f60f5bc03128b2d99a915984848460405161285f939291906149b8565b60405180910390a150505050565b604051806101a00160405280600073ffffffffffffffffffffffffffffffffffffffff16815260200160608152602001600060038111156128b1576128b0612bd8565b5b81526020016060815260200160001515815260200160608152602001600060018111156128e1576128e0612bd8565b5b8152602001600060018111156128fa576128f9612bd8565b5b81526020016000600181111561291357612912612bd8565b5b8152602001606081526020016000815260200160608152602001600081525090565b82805482825590600052602060002090810192821561297d579160200282015b8281111561297c57825182908161296c91906140e2565b5091602001919060010190612955565b5b50905061298a91906129ed565b5090565b6040518060600160405280600073ffffffffffffffffffffffffffffffffffffffff168152602001600073ffffffffffffffffffffffffffffffffffffffff168152602001600060058111156129e7576129e6612bd8565b5b81525090565b5b80821115612a0d5760008181612a049190612a11565b506001016129ee565b5090565b508054612a1d9061395e565b6000825580601f10612a2f5750612a4e565b601f016020900490600052602060002090810190612a4d9190612a51565b5b50565b5b80821115612a6a576000816000905550600101612a52565b5090565b6000604051905090565b600080fd5b600080fd5b600073ffffffffffffffffffffffffffffffffffffffff82169050919050565b6000612aad82612a82565b9050919050565b612abd81612aa2565b8114612ac857600080fd5b50565b600081359050612ada81612ab4565b92915050565b600060208284031215612af657612af5612a78565b5b6000612b0484828501612acb565b91505092915050565b600081519050919050565b600082825260208201905092915050565b6000819050602082019050919050565b612b4281612aa2565b82525050565b600081519050919050565b600082825260208201905092915050565b60005b83811015612b82578082015181840152602081019050612b67565b60008484015250505050565b6000601f19601f8301169050919050565b6000612baa82612b48565b612bb48185612b53565b9350612bc4818560208601612b64565b612bcd81612b8e565b840191505092915050565b7f4e487b7100000000000000000000000000000000000000000000000000000000600052602160045260246000fd5b60048110612c1857612c17612bd8565b5b50565b6000819050612c2982612c07565b919050565b6000612c3982612c1b565b9050919050565b612c4981612c2e565b82525050565b600081519050919050565b600082825260208201905092915050565b6000819050602082019050919050565b6000612c878383612b9f565b905092915050565b6000602082019050919050565b6000612ca782612c4f565b612cb18185612c5a565b935083602082028501612cc385612c6b565b8060005b85811015612cff5784840389528151612ce08582612c7b565b9450612ceb83612c8f565b925060208a01995050600181019050612cc7565b50829750879550505050505092915050565b60008115159050919050565b612d2681612d11565b82525050565b60028110612d3d57612d3c612bd8565b5b50565b6000819050612d4e82612d2c565b919050565b6000612d5e82612d40565b9050919050565b612d6e81612d53565b82525050565b60028110612d8557612d84612bd8565b5b50565b6000819050612d9682612d74565b919050565b6000612da682612d88565b9050919050565b612db681612d9b565b82525050565b60028110612dcd57612dcc612bd8565b5b50565b6000819050612dde82612dbc565b919050565b6000612dee82612dd0565b9050919050565b612dfe81612de3565b82525050565b6000819050919050565b612e1781612e04565b82525050565b60006101a083016000830151612e366000860182612b39565b5060208301518482036020860152612e4e8282612b9f565b9150506040830151612e636040860182612c40565b5060608301518482036060860152612e7b8282612c9c565b9150506080830151612e906080860182612d1d565b5060a083015184820360a0860152612ea88282612b9f565b91505060c0830151612ebd60c0860182612d65565b5060e0830151612ed060e0860182612dad565b50610100830151612ee5610100860182612df5565b50610120830151848203610120860152612eff8282612c9c565b915050610140830151612f16610140860182612e0e565b50610160830151848203610160860152612f308282612b9f565b915050610180830151612f47610180860182612e0e565b508091505092915050565b6000612f5e8383612e1d565b905092915050565b6000602082019050919050565b6000612f7e82612b0d565b612f888185612b18565b935083602082028501612f9a85612b29565b8060005b85811015612fd65784840389528151612fb78582612f52565b9450612fc283612f66565b925060208a01995050600181019050612f9e565b50829750879550505050505092915050565b600060208201905081810360008301526130028184612f73565b905092915050565b61301381612e04565b811461301e57600080fd5b50565b6000813590506130308161300a565b92915050565b60008060006060848603121561304f5761304e612a78565b5b600061305d86828701612acb565b935050602061306e86828701612acb565b925050604061307f86828701613021565b9150509250925092565b6006811061309a57613099612bd8565b5b50565b60008190506130ab82613089565b919050565b60006130bb8261309d565b9050919050565b6130cb816130b0565b82525050565b6130da81612e04565b82525050565b60006040820190506130f560008301856130c2565b61310260208301846130d1565b9392505050565b60006020828403121561311f5761311e612a78565b5b600061312d84828501613021565b91505092915050565b600080fd5b600080fd5b7f4e487b7100000000000000000000000000000000000000000000000000000000600052604160045260246000fd5b61317882612b8e565b810181811067ffffffffffffffff8211171561319757613196613140565b5b80604052505050565b60006131aa612a6e565b90506131b6828261316f565b919050565b600067ffffffffffffffff8211156131d6576131d5613140565b5b6131df82612b8e565b9050602081019050919050565b82818337600083830152505050565b600061320e613209846131bb565b6131a0565b90508281526020810184848401111561322a5761322961313b565b5b6132358482856131ec565b509392505050565b600082601f83011261325257613251613136565b5b81356132628482602086016131fb565b91505092915050565b600067ffffffffffffffff82111561328657613285613140565b5b602082029050602081019050919050565b600080fd5b60006132af6132aa8461326b565b6131a0565b905080838252602082019050602084028301858111156132d2576132d1613297565b5b835b8181101561331957803567ffffffffffffffff8111156132f7576132f6613136565b5b808601613304898261323d565b855260208501945050506020810190506132d4565b5050509392505050565b600082601f83011261333857613337613136565b5b813561334884826020860161329c565b91505092915050565b6000806000806000806000806000806101408b8d03121561337557613374612a78565b5b60008b013567ffffffffffffffff81111561339357613392612a7d565b5b61339f8d828e0161323d565b9a505060206133b08d828e01613021565b99505060408b013567ffffffffffffffff8111156133d1576133d0612a7d565b5b6133dd8d828e01613323565b98505060608b013567ffffffffffffffff8111156133fe576133fd612a7d565b5b61340a8d828e0161323d565b975050608061341b8d828e01613021565b96505060a061342c8d828e01613021565b95505060c061343d8d828e01613021565b94505060e08b013567ffffffffffffffff81111561345e5761345d612a7d565b5b61346a8d828e01613323565b93505061010061347c8d828e01613021565b9250506101208b013567ffffffffffffffff81111561349e5761349d612a7d565b5b6134aa8d828e0161323d565b9150509295989b9194979a5092959850565b600080604083850312156134d3576134d2612a78565b5b60006134e185828601612acb565b92505060206134f285828601613021565b9150509250929050565b60006101a0830160008301516135156000860182612b39565b506020830151848203602086015261352d8282612b9f565b91505060408301516135426040860182612c40565b506060830151848203606086015261355a8282612c9c565b915050608083015161356f6080860182612d1d565b5060a083015184820360a08601526135878282612b9f565b91505060c083015161359c60c0860182612d65565b5060e08301516135af60e0860182612dad565b506101008301516135c4610100860182612df5565b506101208301518482036101208601526135de8282612c9c565b9150506101408301516135f5610140860182612e0e565b5061016083015184820361016086015261360f8282612b9f565b915050610180830151613626610180860182612e0e565b508091505092915050565b6000602082019050818103600083015261364b81846134fc565b905092915050565b60008060006060848603121561366c5761366b612a78565b5b600061367a86828701613021565b935050602061368b86828701613021565b925050604061369c86828701612acb565b9150509250925092565b6136af816130b0565b82525050565b6060820160008201516136cb6000850182612b39565b5060208201516136de6020850182612b39565b5060408201516136f160408501826136a6565b50505050565b600060608201905061370c60008301846136b5565b92915050565b600081519050919050565b600082825260208201905092915050565b6000819050602082019050919050565b6060820160008201516137546000850182612b39565b5060208201516137676020850182612b39565b50604082015161377a60408501826136a6565b50505050565b600061378c838361373e565b60608301905092915050565b6000602082019050919050565b60006137b082613712565b6137ba818561371d565b93506137c58361372e565b8060005b838110156137f65781516137dd8882613780565b97506137e883613798565b9250506001810190506137c9565b5085935050505092915050565b6000602082019050818103600083015261381d81846137a5565b905092915050565b600082825260208201905092915050565b600061384182612b48565b61384b8185613825565b935061385b818560208601612b64565b61386481612b8e565b840191505092915050565b600060208201905081810360008301526138898184613836565b905092915050565b6000806000606084860312156138aa576138a9612a78565b5b60006138b886828701613021565b93505060206138c986828701613021565b925050604084013567ffffffffffffffff8111156138ea576138e9612a7d565b5b6138f68682870161323d565b9150509250925092565b7f4e487b7100000000000000000000000000000000000000000000000000000000600052603260045260246000fd5b7f4e487b7100000000000000000000000000000000000000000000000000000000600052602260045260246000fd5b6000600282049050600182168061397657607f821691505b6020821081036139895761398861392f565b5b50919050565b7f4e487b7100000000000000000000000000000000000000000000000000000000600052601160045260246000fd5b60006139c982612e04565b91507fffffffffffffffffffffffffffffffffffffffffffffffffffffffffffffffff82036139fb576139fa61398f565b5b600182019050919050565b7f436f6d70616e792061646472657373206973206e6f742076616c696400000000600082015250565b6000613a3c601c83613825565b9150613a4782613a06565b602082019050919050565b60006020820190508181036000830152613a6b81613a2f565b9050919050565b7f596f7520646f6e2774206861766520616e206163636573730000000000000000600082015250565b6000613aa8601883613825565b9150613ab382613a72565b602082019050919050565b60006020820190508181036000830152613ad781613a9b565b9050919050565b7f4a6f6220697320616c726561647920636c6f7365000000000000000000000000600082015250565b6000613b14601483613825565b9150613b1f82613ade565b602082019050919050565b60006020820190508181036000830152613b4381613b07565b9050919050565b613b5381612aa2565b82525050565b613b6281612d11565b82525050565b6000604082019050613b7d6000830185613b4a565b613b8a6020830184613b59565b9392505050565b6000602082019050613ba66000830184613b4a565b92915050565b600080fd5b600080fd5b600081519050613bc581612ab4565b92915050565b6000613bde613bd9846131bb565b6131a0565b905082815260208101848484011115613bfa57613bf961313b565b5b613c05848285612b64565b509392505050565b600082601f830112613c2257613c21613136565b5b8151613c32848260208601613bcb565b91505092915050565b600081519050613c4a8161300a565b92915050565b6000613c63613c5e8461326b565b6131a0565b90508083825260208201905060208402830185811115613c8657613c85613297565b5b835b81811015613ccd57805167ffffffffffffffff811115613cab57613caa613136565b5b808601613cb88982613c0d565b85526020850194505050602081019050613c88565b5050509392505050565b600082601f830112613cec57613ceb613136565b5b8151613cfc848260208601613c50565b91505092915050565b60006101008284031215613d1c57613d1b613bac565b5b613d276101006131a0565b90506000613d3784828501613bb6565b600083015250602082015167ffffffffffffffff811115613d5b57613d5a613bb1565b5b613d6784828501613c0d565b6020830152506040613d7b84828501613c3b565b604083015250606082015167ffffffffffffffff811115613d9f57613d9e613bb1565b5b613dab84828501613c0d565b606083015250608082015167ffffffffffffffff811115613dcf57613dce613bb1565b5b613ddb84828501613c0d565b60808301525060a082015167ffffffffffffffff811115613dff57613dfe613bb1565b5b613e0b84828501613cd7565b60a08301525060c0613e1f84828501613c3b565b60c08301525060e082015167ffffffffffffffff811115613e4357613e42613bb1565b5b613e4f84828501613c0d565b60e08301525092915050565b600060208284031215613e7157613e70612a78565b5b600082015167ffffffffffffffff811115613e8f57613e8e612a7d565b5b613e9b84828501613d05565b91505092915050565b7f596f7520646f6e277420686176652061636365737320746f20706f737420612060008201527f6a6f62206f6e207468697320636f6d70616e7900000000000000000000000000602082015250565b6000613f00603383613825565b9150613f0b82613ea4565b604082019050919050565b60006020820190508181036000830152613f2f81613ef3565b9050919050565b60008190508160005260206000209050919050565b60006020601f8301049050919050565b600082821b905092915050565b600060088302613f987fffffffffffffffffffffffffffffffffffffffffffffffffffffffffffffffff82613f5b565b613fa28683613f5b565b95508019841693508086168417925050509392505050565b6000819050919050565b6000613fdf613fda613fd584612e04565b613fba565b612e04565b9050919050565b6000819050919050565b613ff983613fc4565b61400d61400582613fe6565b848454613f68565b825550505050565b600090565b614022614015565b61402d818484613ff0565b505050565b5b818110156140515761404660008261401a565b600181019050614033565b5050565b601f8211156140965761406781613f36565b61407084613f4b565b8101602085101561407f578190505b61409361408b85613f4b565b830182614032565b50505b505050565b600082821c905092915050565b60006140b96000198460080261409b565b1980831691505092915050565b60006140d283836140a8565b9150826002028217905092915050565b6140eb82612b48565b67ffffffffffffffff81111561410457614103613140565b5b61410e825461395e565b614119828285614055565b600060209050601f83116001811461414c576000841561413a578287015190505b61414485826140c6565b8655506141ac565b601f19841661415a86613f36565b60005b828110156141825784890151825560018201915060208501945060208101905061415d565b8683101561419f578489015161419b601f8916826140a8565b8355505b6001600288020188555050505b505050505050565b6141bd81612c2e565b82525050565b600082825260208201905092915050565b60006141df82612c4f565b6141e981856141c3565b9350836020820285016141fb85612c6b565b8060005b8581101561423757848403895281516142188582612c7b565b945061422383612c8f565b925060208a019950506001810190506141ff565b50829750879550505050505092915050565b600060808201905061425e6000830187613b4a565b81810360208301526142708186613836565b905061427f60408301856141b4565b818103606083015261429181846141d4565b905095945050505050565b7f416c6c20766163616e63792066756c6c6669656c640000000000000000000000600082015250565b60006142d2601583613825565b91506142dd8261429c565b602082019050919050565b60006020820190508181036000830152614301816142c5565b9050919050565b7f496e76616c696420737461747573000000000000000000000000000000000000600082015250565b600061433e600e83613825565b915061434982614308565b602082019050919050565b6000602082019050818103600083015261436d81614331565b9050919050565b7f5468697320757365722069732073656c65637465640000000000000000000000600082015250565b60006143aa601583613825565b91506143b582614374565b602082019050919050565b600060208201905081810360008301526143d98161439d565b9050919050565b7f5468697320757365722069732072656a65637465640000000000000000000000600082015250565b6000614416601583613825565b9150614421826143e0565b602082019050919050565b6000602082019050818103600083015261444581614409565b9050919050565b600061445782612e04565b915061446283612e04565b925082820390508181111561447a5761447961398f565b5b92915050565b7f5269676874206e6f77206170706c69636174696f6e2063616e6e6f742062652060008201527f6368616e676520746f20676976656e2073746174757300000000000000000000602082015250565b60006144dc603683613825565b91506144e782614480565b604082019050919050565b6000602082019050818103600083015261450b816144cf565b9050919050565b600061451d82612e04565b9150600082036145305761452f61398f565b5b600182039050919050565b600060608201905061455060008301866130d1565b61455d60208301856130d1565b61456a6040830184613b4a565b949350505050565b7f436f6d70616e792041646472657373204e6f74204d6174636865640000000000600082015250565b60006145a8601b83613825565b91506145b382614572565b602082019050919050565b600060208201905081810360008301526145d78161459b565b9050919050565b600081905092915050565b60008190508160005260206000209050919050565b6000815461460b8161395e565b61461581866145de565b94506001821660008114614630576001811461464557614678565b60ff1983168652811515820286019350614678565b61464e856145e9565b60005b8381101561467057815481890152600182019150602081019050614651565b838801955050505b50505092915050565b600061468d82846145fe565b915081905092915050565b7f596f7520617265206e6f742073656c6563746564207965742e00000000000000600082015250565b60006146ce601983613825565b91506146d982614698565b602082019050919050565b600060208201905081810360008301526146fd816146c1565b9050919050565b7f546869732075736572206973206e6f742073656c656374656400000000000000600082015250565b600061473a601983613825565b915061474582614704565b602082019050919050565b600060208201905081810360008301526147698161472d565b9050919050565b7f4f66666572206c6574746572207761732070726f766964656400000000000000600082015250565b60006147a6601983613825565b91506147b182614770565b602082019050919050565b600060208201905081810360008301526147d581614799565b9050919050565b60006080820190506147f16000830187613b4a565b6147fe6020830186613b4a565b81810360408301526148108185613836565b905061481f60608301846130d1565b95945050505050565b7f596f752063616e6e6f74206170706c7920696e20796f7572206f776e20636f6d60008201527f70616e7900000000000000000000000000000000000000000000000000000000602082015250565b6000614884602483613825565b915061488f82614828565b604082019050919050565b600060208201905081810360008301526148b381614877565b9050919050565b7f4a6f6220697320636c6f73656400000000000000000000000000000000000000600082015250565b60006148f0600d83613825565b91506148fb826148ba565b602082019050919050565b6000602082019050818103600083015261491f816148e3565b9050919050565b7f596f7520616c7265616479206170706c79656420666f722074686973206a6f6260008201527f2e00000000000000000000000000000000000000000000000000000000000000602082015250565b6000614982602183613825565b915061498d82614926565b604082019050919050565b600060208201905081810360008301526149b181614975565b9050919050565b60006060820190506149cd6000830186613b4a565b6149da6020830185613b4a565b6149e760408301846130d1565b94935050505056fea2646970667358221220de69e4fe65a24fde1fc85d1ea1acf7fdb15f5ee319b93a79452530da52e2069864736f6c63430008120033",
			"opcodes": "PUSH1 0x80 PUSH1 0x40 MSTORE CALLVALUE DUP1 ISZERO PUSH3 0x11 JUMPI PUSH1 0x0 DUP1 REVERT JUMPDEST POP PUSH1 0x40 MLOAD PUSH3 0x4B64 CODESIZE SUB DUP1 PUSH3 0x4B64 DUP4 CODECOPY DUP2 DUP2 ADD PUSH1 0x40 MSTORE DUP2 ADD SWAP1 PUSH3 0x37 SWAP2 SWAP1 PUSH3 0xFD JUMP JUMPDEST DUP1 PUSH1 0x1 PUSH1 0x0 PUSH2 0x100 EXP DUP2 SLOAD DUP2 PUSH20 0xFFFFFFFFFFFFFFFFFFFFFFFFFFFFFFFFFFFFFFFF MUL NOT AND SWAP1 DUP4 PUSH20 0xFFFFFFFFFFFFFFFFFFFFFFFFFFFFFFFFFFFFFFFF AND MUL OR SWAP1 SSTORE POP POP PUSH3 0x12F JUMP JUMPDEST PUSH1 0x0 DUP1 REVERT JUMPDEST PUSH1 0x0 PUSH20 0xFFFFFFFFFFFFFFFFFFFFFFFFFFFFFFFFFFFFFFFF DUP3 AND SWAP1 POP SWAP2 SWAP1 POP JUMP JUMPDEST PUSH1 0x0 PUSH3 0xB1 DUP3 PUSH3 0x84 JUMP JUMPDEST SWAP1 POP SWAP2 SWAP1 POP JUMP JUMPDEST PUSH1 0x0 PUSH3 0xC5 DUP3 PUSH3 0xA4 JUMP JUMPDEST SWAP1 POP SWAP2 SWAP1 POP JUMP JUMPDEST PUSH3 0xD7 DUP2 PUSH3 0xB8 JUMP JUMPDEST DUP2 EQ PUSH3 0xE3 JUMPI PUSH1 0x0 DUP1 REVERT JUMPDEST POP JUMP JUMPDEST PUSH1 0x0 DUP2 MLOAD SWAP1 POP PUSH3 0xF7 DUP2 PUSH3 0xCC JUMP JUMPDEST SWAP3 SWAP2 POP POP JUMP JUMPDEST PUSH1 0x0 PUSH1 0x20 DUP3 DUP5 SUB SLT ISZERO PUSH3 0x116 JUMPI PUSH3 0x115 PUSH3 0x7F JUMP JUMPDEST JUMPDEST PUSH1 0x0 PUSH3 0x126 DUP5 DUP3 DUP6 ADD PUSH3 0xE6 JUMP JUMPDEST SWAP2 POP POP SWAP3 SWAP2 POP POP JUMP JUMPDEST PUSH2 0x4A25 DUP1 PUSH3 0x13F PUSH1 0x0 CODECOPY PUSH1 0x0 RETURN INVALID PUSH1 0x80 PUSH1 0x40 MSTORE CALLVALUE DUP1 ISZERO PUSH2 0x10 JUMPI PUSH1 0x0 DUP1 REVERT JUMPDEST POP PUSH1 0x4 CALLDATASIZE LT PUSH2 0xA9 JUMPI PUSH1 0x0 CALLDATALOAD PUSH1 0xE0 SHR DUP1 PUSH4 0x745D4130 GT PUSH2 0x71 JUMPI DUP1 PUSH4 0x745D4130 EQ PUSH2 0x177 JUMPI DUP1 PUSH4 0x87648187 EQ PUSH2 0x193 JUMPI DUP1 PUSH4 0xAFBE627B EQ PUSH2 0x1C3 JUMPI DUP1 PUSH4 0xB8054BC1 EQ PUSH2 0x1F3 JUMPI DUP1 PUSH4 0xE7E25D17 EQ PUSH2 0x223 JUMPI DUP1 PUSH4 0xEC6D2B0E EQ PUSH2 0x23F JUMPI PUSH2 0xA9 JUMP JUMPDEST DUP1 PUSH4 0xDEC01EA EQ PUSH2 0xAE JUMPI DUP1 PUSH4 0x15EF38E7 EQ PUSH2 0xDE JUMPI DUP1 PUSH4 0x1E01ABCA EQ PUSH2 0x10F JUMPI DUP1 PUSH4 0x647CAA7B EQ PUSH2 0x12B JUMPI DUP1 PUSH4 0x69AFCAB1 EQ PUSH2 0x147 JUMPI JUMPDEST PUSH1 0x0 DUP1 REVERT JUMPDEST PUSH2 0xC8 PUSH1 0x4 DUP1 CALLDATASIZE SUB DUP2 ADD SWAP1 PUSH2 0xC3 SWAP2 SWAP1 PUSH2 0x2AE0 JUMP JUMPDEST PUSH2 0x25B JUMP JUMPDEST PUSH1 0x40 MLOAD PUSH2 0xD5 SWAP2 SWAP1 PUSH2 0x2FE8 JUMP JUMPDEST PUSH1 0x40 MLOAD DUP1 SWAP2 SUB SWAP1 RETURN JUMPDEST PUSH2 0xF8 PUSH1 0x4 DUP1 CALLDATASIZE SUB DUP2 ADD SWAP1 PUSH2 0xF3 SWAP2 SWAP1 PUSH2 0x3036 JUMP JUMPDEST PUSH2 0x8D2 JUMP JUMPDEST PUSH1 0x40 MLOAD PUSH2 0x106 SWAP3 SWAP2 SWAP1 PUSH2 0x30E0 JUMP JUMPDEST PUSH1 0x40 MLOAD DUP1 SWAP2 SUB SWAP1 RETURN JUMPDEST PUSH2 0x129 PUSH1 0x4 DUP1 CALLDATASIZE SUB DUP2 ADD SWAP1 PUSH2 0x124 SWAP2 SWAP1 PUSH2 0x3109 JUMP JUMPDEST PUSH2 0xAB6 JUMP JUMPDEST STOP JUMPDEST PUSH2 0x145 PUSH1 0x4 DUP1 CALLDATASIZE SUB DUP2 ADD SWAP1 PUSH2 0x140 SWAP2 SWAP1 PUSH2 0x3351 JUMP JUMPDEST PUSH2 0xC4B JUMP JUMPDEST STOP JUMPDEST PUSH2 0x161 PUSH1 0x4 DUP1 CALLDATASIZE SUB DUP2 ADD SWAP1 PUSH2 0x15C SWAP2 SWAP1 PUSH2 0x34BC JUMP JUMPDEST PUSH2 0x1111 JUMP JUMPDEST PUSH1 0x40 MLOAD PUSH2 0x16E SWAP2 SWAP1 PUSH2 0x3631 JUMP JUMPDEST PUSH1 0x40 MLOAD DUP1 SWAP2 SUB SWAP1 RETURN JUMPDEST PUSH2 0x191 PUSH1 0x4 DUP1 CALLDATASIZE SUB DUP2 ADD SWAP1 PUSH2 0x18C SWAP2 SWAP1 PUSH2 0x3653 JUMP JUMPDEST PUSH2 0x16BD JUMP JUMPDEST STOP JUMPDEST PUSH2 0x1AD PUSH1 0x4 DUP1 CALLDATASIZE SUB DUP2 ADD SWAP1 PUSH2 0x1A8 SWAP2 SWAP1 PUSH2 0x3036 JUMP JUMPDEST PUSH2 0x1A59 JUMP JUMPDEST PUSH1 0x40 MLOAD PUSH2 0x1BA SWAP2 SWAP1 PUSH2 0x36F7 JUMP JUMPDEST PUSH1 0x40 MLOAD DUP1 SWAP2 SUB SWAP1 RETURN JUMPDEST PUSH2 0x1DD PUSH1 0x4 DUP1 CALLDATASIZE SUB DUP2 ADD SWAP1 PUSH2 0x1D8 SWAP2 SWAP1 PUSH2 0x3109 JUMP JUMPDEST PUSH2 0x1D52 JUMP JUMPDEST PUSH1 0x40 MLOAD PUSH2 0x1EA SWAP2 SWAP1 PUSH2 0x3803 JUMP JUMPDEST PUSH1 0x40 MLOAD DUP1 SWAP2 SUB SWAP1 RETURN JUMPDEST PUSH2 0x20D PUSH1 0x4 DUP1 CALLDATASIZE SUB DUP2 ADD SWAP1 PUSH2 0x208 SWAP2 SWAP1 PUSH2 0x3109 JUMP JUMPDEST PUSH2 0x1FA4 JUMP JUMPDEST PUSH1 0x40 MLOAD PUSH2 0x21A SWAP2 SWAP1 PUSH2 0x386F JUMP JUMPDEST PUSH1 0x40 MLOAD DUP1 SWAP2 SUB SWAP1 RETURN JUMPDEST PUSH2 0x23D PUSH1 0x4 DUP1 CALLDATASIZE SUB DUP2 ADD SWAP1 PUSH2 0x238 SWAP2 SWAP1 PUSH2 0x3891 JUMP JUMPDEST PUSH2 0x2142 JUMP JUMPDEST STOP JUMPDEST PUSH2 0x259 PUSH1 0x4 DUP1 CALLDATASIZE SUB DUP2 ADD SWAP1 PUSH2 0x254 SWAP2 SWAP1 PUSH2 0x3036 JUMP JUMPDEST PUSH2 0x243F JUMP JUMPDEST STOP JUMPDEST PUSH1 0x60 PUSH1 0x0 PUSH1 0x4 PUSH1 0x0 DUP5 PUSH20 0xFFFFFFFFFFFFFFFFFFFFFFFFFFFFFFFFFFFFFFFF AND PUSH20 0xFFFFFFFFFFFFFFFFFFFFFFFFFFFFFFFFFFFFFFFF AND DUP2 MSTORE PUSH1 0x20 ADD SWAP1 DUP2 MSTORE PUSH1 0x20 ADD PUSH1 0x0 KECCAK256 DUP1 SLOAD SWAP1 POP PUSH8 0xFFFFFFFFFFFFFFFF DUP2 GT ISZERO PUSH2 0x2BB JUMPI PUSH2 0x2BA PUSH2 0x3140 JUMP JUMPDEST JUMPDEST PUSH1 0x40 MLOAD SWAP1 DUP1 DUP3 MSTORE DUP1 PUSH1 0x20 MUL PUSH1 0x20 ADD DUP3 ADD PUSH1 0x40 MSTORE DUP1 ISZERO PUSH2 0x2F4 JUMPI DUP2 PUSH1 0x20 ADD JUMPDEST PUSH2 0x2E1 PUSH2 0x286D JUMP JUMPDEST DUP2 MSTORE PUSH1 0x20 ADD SWAP1 PUSH1 0x1 SWAP1 SUB SWAP1 DUP2 PUSH2 0x2D9 JUMPI SWAP1 POP JUMPDEST POP SWAP1 POP PUSH1 0x0 JUMPDEST PUSH1 0x4 PUSH1 0x0 DUP6 PUSH20 0xFFFFFFFFFFFFFFFFFFFFFFFFFFFFFFFFFFFFFFFF AND PUSH20 0xFFFFFFFFFFFFFFFFFFFFFFFFFFFFFFFFFFFFFFFF AND DUP2 MSTORE PUSH1 0x20 ADD SWAP1 DUP2 MSTORE PUSH1 0x20 ADD PUSH1 0x0 KECCAK256 DUP1 SLOAD SWAP1 POP DUP2 LT ISZERO PUSH2 0x8C8 JUMPI PUSH1 0x2 PUSH1 0x0 PUSH1 0x4 PUSH1 0x0 DUP8 PUSH20 0xFFFFFFFFFFFFFFFFFFFFFFFFFFFFFFFFFFFFFFFF AND PUSH20 0xFFFFFFFFFFFFFFFFFFFFFFFFFFFFFFFFFFFFFFFF AND DUP2 MSTORE PUSH1 0x20 ADD SWAP1 DUP2 MSTORE PUSH1 0x20 ADD PUSH1 0x0 KECCAK256 DUP4 DUP2 SLOAD DUP2 LT PUSH2 0x399 JUMPI PUSH2 0x398 PUSH2 0x3900 JUMP JUMPDEST JUMPDEST SWAP1 PUSH1 0x0 MSTORE PUSH1 0x20 PUSH1 0x0 KECCAK256 ADD SLOAD DUP2 MSTORE PUSH1 0x20 ADD SWAP1 DUP2 MSTORE PUSH1 0x20 ADD PUSH1 0x0 KECCAK256 PUSH1 0x40 MLOAD DUP1 PUSH2 0x1A0 ADD PUSH1 0x40 MSTORE SWAP1 DUP2 PUSH1 0x0 DUP3 ADD PUSH1 0x0 SWAP1 SLOAD SWAP1 PUSH2 0x100 EXP SWAP1 DIV PUSH20 0xFFFFFFFFFFFFFFFFFFFFFFFFFFFFFFFFFFFFFFFF AND PUSH20 0xFFFFFFFFFFFFFFFFFFFFFFFFFFFFFFFFFFFFFFFF AND PUSH20 0xFFFFFFFFFFFFFFFFFFFFFFFFFFFFFFFFFFFFFFFF AND DUP2 MSTORE PUSH1 0x20 ADD PUSH1 0x1 DUP3 ADD DUP1 SLOAD PUSH2 0x424 SWAP1 PUSH2 0x395E JUMP JUMPDEST DUP1 PUSH1 0x1F ADD PUSH1 0x20 DUP1 SWAP2 DIV MUL PUSH1 0x20 ADD PUSH1 0x40 MLOAD SWAP1 DUP2 ADD PUSH1 0x40 MSTORE DUP1 SWAP3 SWAP2 SWAP1 DUP2 DUP2 MSTORE PUSH1 0x20 ADD DUP3 DUP1 SLOAD PUSH2 0x450 SWAP1 PUSH2 0x395E JUMP JUMPDEST DUP1 ISZERO PUSH2 0x49D JUMPI DUP1 PUSH1 0x1F LT PUSH2 0x472 JUMPI PUSH2 0x100 DUP1 DUP4 SLOAD DIV MUL DUP4 MSTORE SWAP2 PUSH1 0x20 ADD SWAP2 PUSH2 0x49D JUMP JUMPDEST DUP3 ADD SWAP2 SWAP1 PUSH1 0x0 MSTORE PUSH1 0x20 PUSH1 0x0 KECCAK256 SWAP1 JUMPDEST DUP2 SLOAD DUP2 MSTORE SWAP1 PUSH1 0x1 ADD SWAP1 PUSH1 0x20 ADD DUP1 DUP4 GT PUSH2 0x480 JUMPI DUP3 SWAP1 SUB PUSH1 0x1F AND DUP3 ADD SWAP2 JUMPDEST POP POP POP POP POP DUP2 MSTORE PUSH1 0x20 ADD PUSH1 0x2 DUP3 ADD PUSH1 0x0 SWAP1 SLOAD SWAP1 PUSH2 0x100 EXP SWAP1 DIV PUSH1 0xFF AND PUSH1 0x3 DUP2 GT ISZERO PUSH2 0x4CB JUMPI PUSH2 0x4CA PUSH2 0x2BD8 JUMP JUMPDEST JUMPDEST PUSH1 0x3 DUP2 GT ISZERO PUSH2 0x4DD JUMPI PUSH2 0x4DC PUSH2 0x2BD8 JUMP JUMPDEST JUMPDEST DUP2 MSTORE PUSH1 0x20 ADD PUSH1 0x3 DUP3 ADD DUP1 SLOAD DUP1 PUSH1 0x20 MUL PUSH1 0x20 ADD PUSH1 0x40 MLOAD SWAP1 DUP2 ADD PUSH1 0x40 MSTORE DUP1 SWAP3 SWAP2 SWAP1 DUP2 DUP2 MSTORE PUSH1 0x20 ADD PUSH1 0x0 SWAP1 JUMPDEST DUP3 DUP3 LT ISZERO PUSH2 0x5B2 JUMPI DUP4 DUP3 SWAP1 PUSH1 0x0 MSTORE PUSH1 0x20 PUSH1 0x0 KECCAK256 ADD DUP1 SLOAD PUSH2 0x525 SWAP1 PUSH2 0x395E JUMP JUMPDEST DUP1 PUSH1 0x1F ADD PUSH1 0x20 DUP1 SWAP2 DIV MUL PUSH1 0x20 ADD PUSH1 0x40 MLOAD SWAP1 DUP2 ADD PUSH1 0x40 MSTORE DUP1 SWAP3 SWAP2 SWAP1 DUP2 DUP2 MSTORE PUSH1 0x20 ADD DUP3 DUP1 SLOAD PUSH2 0x551 SWAP1 PUSH2 0x395E JUMP JUMPDEST DUP1 ISZERO PUSH2 0x59E JUMPI DUP1 PUSH1 0x1F LT PUSH2 0x573 JUMPI PUSH2 0x100 DUP1 DUP4 SLOAD DIV MUL DUP4 MSTORE SWAP2 PUSH1 0x20 ADD SWAP2 PUSH2 0x59E JUMP JUMPDEST DUP3 ADD SWAP2 SWAP1 PUSH1 0x0 MSTORE PUSH1 0x20 PUSH1 0x0 KECCAK256 SWAP1 JUMPDEST DUP2 SLOAD DUP2 MSTORE SWAP1 PUSH1 0x1 ADD SWAP1 PUSH1 0x20 ADD DUP1 DUP4 GT PUSH2 0x581 JUMPI DUP3 SWAP1 SUB PUSH1 0x1F AND DUP3 ADD SWAP2 JUMPDEST POP POP POP POP POP DUP2 MSTORE PUSH1 0x20 ADD SWAP1 PUSH1 0x1 ADD SWAP1 PUSH2 0x506 JUMP JUMPDEST POP POP POP POP DUP2 MSTORE PUSH1 0x20 ADD PUSH1 0x4 DUP3 ADD PUSH1 0x0 SWAP1 SLOAD SWAP1 PUSH2 0x100 EXP SWAP1 DIV PUSH1 0xFF AND ISZERO ISZERO ISZERO ISZERO DUP2 MSTORE PUSH1 0x20 ADD PUSH1 0x5 DUP3 ADD DUP1 SLOAD PUSH2 0x5E5 SWAP1 PUSH2 0x395E JUMP JUMPDEST DUP1 PUSH1 0x1F ADD PUSH1 0x20 DUP1 SWAP2 DIV MUL PUSH1 0x20 ADD PUSH1 0x40 MLOAD SWAP1 DUP2 ADD PUSH1 0x40 MSTORE DUP1 SWAP3 SWAP2 SWAP1 DUP2 DUP2 MSTORE PUSH1 0x20 ADD DUP3 DUP1 SLOAD PUSH2 0x611 SWAP1 PUSH2 0x395E JUMP JUMPDEST DUP1 ISZERO PUSH2 0x65E JUMPI DUP1 PUSH1 0x1F LT PUSH2 0x633 JUMPI PUSH2 0x100 DUP1 DUP4 SLOAD DIV MUL DUP4 MSTORE SWAP2 PUSH1 0x20 ADD SWAP2 PUSH2 0x65E JUMP JUMPDEST DUP3 ADD SWAP2 SWAP1 PUSH1 0x0 MSTORE PUSH1 0x20 PUSH1 0x0 KECCAK256 SWAP1 JUMPDEST DUP2 SLOAD DUP2 MSTORE SWAP1 PUSH1 0x1 ADD SWAP1 PUSH1 0x20 ADD DUP1 DUP4 GT PUSH2 0x641 JUMPI DUP3 SWAP1 SUB PUSH1 0x1F AND DUP3 ADD SWAP2 JUMPDEST POP POP POP POP POP DUP2 MSTORE PUSH1 0x20 ADD PUSH1 0x6 DUP3 ADD PUSH1 0x0 SWAP1 SLOAD SWAP1 PUSH2 0x100 EXP SWAP1 DIV PUSH1 0xFF AND PUSH1 0x1 DUP2 GT ISZERO PUSH2 0x68C JUMPI PUSH2 0x68B PUSH2 0x2BD8 JUMP JUMPDEST JUMPDEST PUSH1 0x1 DUP2 GT ISZERO PUSH2 0x69E JUMPI PUSH2 0x69D PUSH2 0x2BD8 JUMP JUMPDEST JUMPDEST DUP2 MSTORE PUSH1 0x20 ADD PUSH1 0x6 DUP3 ADD PUSH1 0x1 SWAP1 SLOAD SWAP1 PUSH2 0x100 EXP SWAP1 DIV PUSH1 0xFF AND PUSH1 0x1 DUP2 GT ISZERO PUSH2 0x6C7 JUMPI PUSH2 0x6C6 PUSH2 0x2BD8 JUMP JUMPDEST JUMPDEST PUSH1 0x1 DUP2 GT ISZERO PUSH2 0x6D9 JUMPI PUSH2 0x6D8 PUSH2 0x2BD8 JUMP JUMPDEST JUMPDEST DUP2 MSTORE PUSH1 0x20 ADD PUSH1 0x6 DUP3 ADD PUSH1 0x2 SWAP1 SLOAD SWAP1 PUSH2 0x100 EXP SWAP1 DIV PUSH1 0xFF AND PUSH1 0x1 DUP2 GT ISZERO PUSH2 0x702 JUMPI PUSH2 0x701 PUSH2 0x2BD8 JUMP JUMPDEST JUMPDEST PUSH1 0x1 DUP2 GT ISZERO PUSH2 0x714 JUMPI PUSH2 0x713 PUSH2 0x2BD8 JUMP JUMPDEST JUMPDEST DUP2 MSTORE PUSH1 0x20 ADD PUSH1 0x7 DUP3 ADD DUP1 SLOAD DUP1 PUSH1 0x20 MUL PUSH1 0x20 ADD PUSH1 0x40 MLOAD SWAP1 DUP2 ADD PUSH1 0x40 MSTORE DUP1 SWAP3 SWAP2 SWAP1 DUP2 DUP2 MSTORE PUSH1 0x20 ADD PUSH1 0x0 SWAP1 JUMPDEST DUP3 DUP3 LT ISZERO PUSH2 0x7E9 JUMPI DUP4 DUP3 SWAP1 PUSH1 0x0 MSTORE PUSH1 0x20 PUSH1 0x0 KECCAK256 ADD DUP1 SLOAD PUSH2 0x75C SWAP1 PUSH2 0x395E JUMP JUMPDEST DUP1 PUSH1 0x1F ADD PUSH1 0x20 DUP1 SWAP2 DIV MUL PUSH1 0x20 ADD PUSH1 0x40 MLOAD SWAP1 DUP2 ADD PUSH1 0x40 MSTORE DUP1 SWAP3 SWAP2 SWAP1 DUP2 DUP2 MSTORE PUSH1 0x20 ADD DUP3 DUP1 SLOAD PUSH2 0x788 SWAP1 PUSH2 0x395E JUMP JUMPDEST DUP1 ISZERO PUSH2 0x7D5 JUMPI DUP1 PUSH1 0x1F LT PUSH2 0x7AA JUMPI PUSH2 0x100 DUP1 DUP4 SLOAD DIV MUL DUP4 MSTORE SWAP2 PUSH1 0x20 ADD SWAP2 PUSH2 0x7D5 JUMP JUMPDEST DUP3 ADD SWAP2 SWAP1 PUSH1 0x0 MSTORE PUSH1 0x20 PUSH1 0x0 KECCAK256 SWAP1 JUMPDEST DUP2 SLOAD DUP2 MSTORE SWAP1 PUSH1 0x1 ADD SWAP1 PUSH1 0x20 ADD DUP1 DUP4 GT PUSH2 0x7B8 JUMPI DUP3 SWAP1 SUB PUSH1 0x1F AND DUP3 ADD SWAP2 JUMPDEST POP POP POP POP POP DUP2 MSTORE PUSH1 0x20 ADD SWAP1 PUSH1 0x1 ADD SWAP1 PUSH2 0x73D JUMP JUMPDEST POP POP POP POP DUP2 MSTORE PUSH1 0x20 ADD PUSH1 0x8 DUP3 ADD SLOAD DUP2 MSTORE PUSH1 0x20 ADD PUSH1 0x9 DUP3 ADD DUP1 SLOAD PUSH2 0x80B SWAP1 PUSH2 0x395E JUMP JUMPDEST DUP1 PUSH1 0x1F ADD PUSH1 0x20 DUP1 SWAP2 DIV MUL PUSH1 0x20 ADD PUSH1 0x40 MLOAD SWAP1 DUP2 ADD PUSH1 0x40 MSTORE DUP1 SWAP3 SWAP2 SWAP1 DUP2 DUP2 MSTORE PUSH1 0x20 ADD DUP3 DUP1 SLOAD PUSH2 0x837 SWAP1 PUSH2 0x395E JUMP JUMPDEST DUP1 ISZERO PUSH2 0x884 JUMPI DUP1 PUSH1 0x1F LT PUSH2 0x859 JUMPI PUSH2 0x100 DUP1 DUP4 SLOAD DIV MUL DUP4 MSTORE SWAP2 PUSH1 0x20 ADD SWAP2 PUSH2 0x884 JUMP JUMPDEST DUP3 ADD SWAP2 SWAP1 PUSH1 0x0 MSTORE PUSH1 0x20 PUSH1 0x0 KECCAK256 SWAP1 JUMPDEST DUP2 SLOAD DUP2 MSTORE SWAP1 PUSH1 0x1 ADD SWAP1 PUSH1 0x20 ADD DUP1 DUP4 GT PUSH2 0x867 JUMPI DUP3 SWAP1 SUB PUSH1 0x1F AND DUP3 ADD SWAP2 JUMPDEST POP POP POP POP POP DUP2 MSTORE PUSH1 0x20 ADD PUSH1 0xA DUP3 ADD SLOAD DUP2 MSTORE POP POP DUP3 DUP3 DUP2 MLOAD DUP2 LT PUSH2 0x8AA JUMPI PUSH2 0x8A9 PUSH2 0x3900 JUMP JUMPDEST JUMPDEST PUSH1 0x20 MUL PUSH1 0x20 ADD ADD DUP2 SWAP1 MSTORE POP DUP1 DUP1 PUSH2 0x8C0 SWAP1 PUSH2 0x39BE JUMP JUMPDEST SWAP2 POP POP PUSH2 0x2FA JUMP JUMPDEST POP DUP1 SWAP2 POP POP SWAP2 SWAP1 POP JUMP JUMPDEST PUSH1 0x0 DUP1 PUSH1 0x0 JUMPDEST PUSH1 0x3 PUSH1 0x0 DUP6 DUP2 MSTORE PUSH1 0x20 ADD SWAP1 DUP2 MSTORE PUSH1 0x20 ADD PUSH1 0x0 KECCAK256 DUP1 SLOAD SWAP1 POP DUP2 LT ISZERO PUSH2 0xAA5 JUMPI DUP6 PUSH20 0xFFFFFFFFFFFFFFFFFFFFFFFFFFFFFFFFFFFFFFFF AND PUSH1 0x3 PUSH1 0x0 DUP7 DUP2 MSTORE PUSH1 0x20 ADD SWAP1 DUP2 MSTORE PUSH1 0x20 ADD PUSH1 0x0 KECCAK256 DUP3 DUP2 SLOAD DUP2 LT PUSH2 0x932 JUMPI PUSH2 0x931 PUSH2 0x3900 JUMP JUMPDEST JUMPDEST SWAP1 PUSH1 0x0 MSTORE PUSH1 0x20 PUSH1 0x0 KECCAK256 SWAP1 PUSH1 0x2 MUL ADD PUSH1 0x0 ADD PUSH1 0x0 SWAP1 SLOAD SWAP1 PUSH2 0x100 EXP SWAP1 DIV PUSH20 0xFFFFFFFFFFFFFFFFFFFFFFFFFFFFFFFFFFFFFFFF AND PUSH20 0xFFFFFFFFFFFFFFFFFFFFFFFFFFFFFFFFFFFFFFFF AND SUB PUSH2 0xA92 JUMPI DUP5 PUSH20 0xFFFFFFFFFFFFFFFFFFFFFFFFFFFFFFFFFFFFFFFF AND PUSH1 0x3 PUSH1 0x0 DUP7 DUP2 MSTORE PUSH1 0x20 ADD SWAP1 DUP2 MSTORE PUSH1 0x20 ADD PUSH1 0x0 KECCAK256 DUP3 DUP2 SLOAD DUP2 LT PUSH2 0x9BB JUMPI PUSH2 0x9BA PUSH2 0x3900 JUMP JUMPDEST JUMPDEST SWAP1 PUSH1 0x0 MSTORE PUSH1 0x20 PUSH1 0x0 KECCAK256 SWAP1 PUSH1 0x2 MUL ADD PUSH1 0x1 ADD PUSH1 0x0 SWAP1 SLOAD SWAP1 PUSH2 0x100 EXP SWAP1 DIV PUSH20 0xFFFFFFFFFFFFFFFFFFFFFFFFFFFFFFFFFFFFFFFF AND PUSH20 0xFFFFFFFFFFFFFFFFFFFFFFFFFFFFFFFFFFFFFFFF AND EQ PUSH2 0xA43 JUMPI PUSH1 0x40 MLOAD PUSH32 0x8C379A000000000000000000000000000000000000000000000000000000000 DUP2 MSTORE PUSH1 0x4 ADD PUSH2 0xA3A SWAP1 PUSH2 0x3A52 JUMP JUMPDEST PUSH1 0x40 MLOAD DUP1 SWAP2 SUB SWAP1 REVERT JUMPDEST PUSH1 0x3 PUSH1 0x0 DUP6 DUP2 MSTORE PUSH1 0x20 ADD SWAP1 DUP2 MSTORE PUSH1 0x20 ADD PUSH1 0x0 KECCAK256 DUP2 DUP2 SLOAD DUP2 LT PUSH2 0xA68 JUMPI PUSH2 0xA67 PUSH2 0x3900 JUMP JUMPDEST JUMPDEST SWAP1 PUSH1 0x0 MSTORE PUSH1 0x20 PUSH1 0x0 KECCAK256 SWAP1 PUSH1 0x2 MUL ADD PUSH1 0x1 ADD PUSH1 0x14 SWAP1 SLOAD SWAP1 PUSH2 0x100 EXP SWAP1 DIV PUSH1 0xFF AND DUP2 SWAP3 POP SWAP3 POP POP PUSH2 0xAAE JUMP JUMPDEST DUP1 DUP1 PUSH2 0xA9D SWAP1 PUSH2 0x39BE JUMP JUMPDEST SWAP2 POP POP PUSH2 0x8D8 JUMP JUMPDEST POP PUSH1 0x0 DUP1 SWAP2 POP SWAP2 POP JUMPDEST SWAP4 POP SWAP4 SWAP2 POP POP JUMP JUMPDEST CALLER PUSH20 0xFFFFFFFFFFFFFFFFFFFFFFFFFFFFFFFFFFFFFFFF AND PUSH1 0x2 PUSH1 0x0 DUP4 DUP2 MSTORE PUSH1 0x20 ADD SWAP1 DUP2 MSTORE PUSH1 0x20 ADD PUSH1 0x0 KECCAK256 PUSH1 0x0 ADD PUSH1 0x0 SWAP1 SLOAD SWAP1 PUSH2 0x100 EXP SWAP1 DIV PUSH20 0xFFFFFFFFFFFFFFFFFFFFFFFFFFFFFFFFFFFFFFFF AND PUSH20 0xFFFFFFFFFFFFFFFFFFFFFFFFFFFFFFFFFFFFFFFF AND EQ PUSH2 0xB5A JUMPI PUSH1 0x40 MLOAD PUSH32 0x8C379A000000000000000000000000000000000000000000000000000000000 DUP2 MSTORE PUSH1 0x4 ADD PUSH2 0xB51 SWAP1 PUSH2 0x3ABE JUMP JUMPDEST PUSH1 0x40 MLOAD DUP1 SWAP2 SUB SWAP1 REVERT JUMPDEST PUSH1 0x2 PUSH1 0x0 DUP3 DUP2 MSTORE PUSH1 0x20 ADD SWAP1 DUP2 MSTORE PUSH1 0x20 ADD PUSH1 0x0 KECCAK256 PUSH1 0x4 ADD PUSH1 0x0 SWAP1 SLOAD SWAP1 PUSH2 0x100 EXP SWAP1 DIV PUSH1 0xFF AND PUSH2 0xBBD JUMPI PUSH1 0x40 MLOAD PUSH32 0x8C379A000000000000000000000000000000000000000000000000000000000 DUP2 MSTORE PUSH1 0x4 ADD PUSH2 0xBB4 SWAP1 PUSH2 0x3B2A JUMP JUMPDEST PUSH1 0x40 MLOAD DUP1 SWAP2 SUB SWAP1 REVERT JUMPDEST PUSH1 0x0 PUSH1 0x2 PUSH1 0x0 DUP4 DUP2 MSTORE PUSH1 0x20 ADD SWAP1 DUP2 MSTORE PUSH1 0x20 ADD PUSH1 0x0 KECCAK256 PUSH1 0x4 ADD PUSH1 0x0 PUSH2 0x100 EXP DUP2 SLOAD DUP2 PUSH1 0xFF MUL NOT AND SWAP1 DUP4 ISZERO ISZERO MUL OR SWAP1 SSTORE POP PUSH32 0xCA2949CCAB8A139045D9F4E02712861B2E53D7E0F97CEC15655799445C20B1CC CALLER PUSH1 0x2 PUSH1 0x0 DUP5 DUP2 MSTORE PUSH1 0x20 ADD SWAP1 DUP2 MSTORE PUSH1 0x20 ADD PUSH1 0x0 KECCAK256 PUSH1 0x4 ADD PUSH1 0x0 SWAP1 SLOAD SWAP1 PUSH2 0x100 EXP SWAP1 DIV PUSH1 0xFF AND PUSH1 0x40 MLOAD PUSH2 0xC40 SWAP3 SWAP2 SWAP1 PUSH2 0x3B68 JUMP JUMPDEST PUSH1 0x40 MLOAD DUP1 SWAP2 SUB SWAP1 LOG1 POP JUMP JUMPDEST PUSH1 0x0 PUSH1 0x1 PUSH1 0x0 SWAP1 SLOAD SWAP1 PUSH2 0x100 EXP SWAP1 DIV PUSH20 0xFFFFFFFFFFFFFFFFFFFFFFFFFFFFFFFFFFFFFFFF AND PUSH20 0xFFFFFFFFFFFFFFFFFFFFFFFFFFFFFFFFFFFFFFFF AND PUSH4 0x62BC56E6 CALLER PUSH1 0x40 MLOAD DUP3 PUSH4 0xFFFFFFFF AND PUSH1 0xE0 SHL DUP2 MSTORE PUSH1 0x4 ADD PUSH2 0xCA8 SWAP2 SWAP1 PUSH2 0x3B91 JUMP JUMPDEST PUSH1 0x0 PUSH1 0x40 MLOAD DUP1 DUP4 SUB DUP2 DUP7 GAS STATICCALL ISZERO DUP1 ISZERO PUSH2 0xCC5 JUMPI RETURNDATASIZE PUSH1 0x0 DUP1 RETURNDATACOPY RETURNDATASIZE PUSH1 0x0 REVERT JUMPDEST POP POP POP POP PUSH1 0x40 MLOAD RETURNDATASIZE PUSH1 0x0 DUP3 RETURNDATACOPY RETURNDATASIZE PUSH1 0x1F NOT PUSH1 0x1F DUP3 ADD AND DUP3 ADD DUP1 PUSH1 0x40 MSTORE POP DUP2 ADD SWAP1 PUSH2 0xCEE SWAP2 SWAP1 PUSH2 0x3E5B JUMP JUMPDEST PUSH1 0x0 ADD MLOAD SWAP1 POP CALLER PUSH20 0xFFFFFFFFFFFFFFFFFFFFFFFFFFFFFFFFFFFFFFFF AND DUP2 PUSH20 0xFFFFFFFFFFFFFFFFFFFFFFFFFFFFFFFFFFFFFFFF AND EQ PUSH2 0xD62 JUMPI PUSH1 0x40 MLOAD PUSH32 0x8C379A000000000000000000000000000000000000000000000000000000000 DUP2 MSTORE PUSH1 0x4 ADD PUSH2 0xD59 SWAP1 PUSH2 0x3F16 JUMP JUMPDEST PUSH1 0x40 MLOAD DUP1 SWAP2 SUB SWAP1 REVERT JUMPDEST PUSH1 0x0 DUP1 DUP2 SLOAD DUP1 SWAP3 SWAP2 SWAP1 PUSH2 0xD74 SWAP1 PUSH2 0x39BE JUMP JUMPDEST SWAP2 SWAP1 POP SSTORE POP PUSH1 0x40 MLOAD DUP1 PUSH2 0x1A0 ADD PUSH1 0x40 MSTORE DUP1 DUP3 PUSH20 0xFFFFFFFFFFFFFFFFFFFFFFFFFFFFFFFFFFFFFFFF AND DUP2 MSTORE PUSH1 0x20 ADD DUP13 DUP2 MSTORE PUSH1 0x20 ADD DUP12 PUSH1 0x3 DUP2 GT ISZERO PUSH2 0xDBA JUMPI PUSH2 0xDB9 PUSH2 0x2BD8 JUMP JUMPDEST JUMPDEST PUSH1 0x3 DUP2 GT ISZERO PUSH2 0xDCC JUMPI PUSH2 0xDCB PUSH2 0x2BD8 JUMP JUMPDEST JUMPDEST DUP2 MSTORE PUSH1 0x20 ADD DUP11 DUP2 MSTORE PUSH1 0x20 ADD PUSH1 0x1 ISZERO ISZERO DUP2 MSTORE PUSH1 0x20 ADD DUP10 DUP2 MSTORE PUSH1 0x20 ADD DUP9 PUSH1 0x1 DUP2 GT ISZERO PUSH2 0xDF9 JUMPI PUSH2 0xDF8 PUSH2 0x2BD8 JUMP JUMPDEST JUMPDEST PUSH1 0x1 DUP2 GT ISZERO PUSH2 0xE0B JUMPI PUSH2 0xE0A PUSH2 0x2BD8 JUMP JUMPDEST JUMPDEST DUP2 MSTORE PUSH1 0x20 ADD DUP8 PUSH1 0x1 DUP2 GT ISZERO PUSH2 0xE23 JUMPI PUSH2 0xE22 PUSH2 0x2BD8 JUMP JUMPDEST JUMPDEST PUSH1 0x1 DUP2 GT ISZERO PUSH2 0xE35 JUMPI PUSH2 0xE34 PUSH2 0x2BD8 JUMP JUMPDEST JUMPDEST DUP2 MSTORE PUSH1 0x20 ADD DUP7 PUSH1 0x1 DUP2 GT ISZERO PUSH2 0xE4D JUMPI PUSH2 0xE4C PUSH2 0x2BD8 JUMP JUMPDEST JUMPDEST PUSH1 0x1 DUP2 GT ISZERO PUSH2 0xE5F JUMPI PUSH2 0xE5E PUSH2 0x2BD8 JUMP JUMPDEST JUMPDEST DUP2 MSTORE PUSH1 0x20 ADD DUP6 DUP2 MSTORE PUSH1 0x20 ADD DUP5 DUP2 MSTORE PUSH1 0x20 ADD DUP4 DUP2 MSTORE PUSH1 0x20 ADD TIMESTAMP DUP2 MSTORE POP PUSH1 0x2 PUSH1 0x0 DUP1 SLOAD DUP2 MSTORE PUSH1 0x20 ADD SWAP1 DUP2 MSTORE PUSH1 0x20 ADD PUSH1 0x0 KECCAK256 PUSH1 0x0 DUP3 ADD MLOAD DUP2 PUSH1 0x0 ADD PUSH1 0x0 PUSH2 0x100 EXP DUP2 SLOAD DUP2 PUSH20 0xFFFFFFFFFFFFFFFFFFFFFFFFFFFFFFFFFFFFFFFF MUL NOT AND SWAP1 DUP4 PUSH20 0xFFFFFFFFFFFFFFFFFFFFFFFFFFFFFFFFFFFFFFFF AND MUL OR SWAP1 SSTORE POP PUSH1 0x20 DUP3 ADD MLOAD DUP2 PUSH1 0x1 ADD SWAP1 DUP2 PUSH2 0xEEA SWAP2 SWAP1 PUSH2 0x40E2 JUMP JUMPDEST POP PUSH1 0x40 DUP3 ADD MLOAD DUP2 PUSH1 0x2 ADD PUSH1 0x0 PUSH2 0x100 EXP DUP2 SLOAD DUP2 PUSH1 0xFF MUL NOT AND SWAP1 DUP4 PUSH1 0x3 DUP2 GT ISZERO PUSH2 0xF16 JUMPI PUSH2 0xF15 PUSH2 0x2BD8 JUMP JUMPDEST JUMPDEST MUL OR SWAP1 SSTORE POP PUSH1 0x60 DUP3 ADD MLOAD DUP2 PUSH1 0x3 ADD SWAP1 DUP1 MLOAD SWAP1 PUSH1 0x20 ADD SWAP1 PUSH2 0xF37 SWAP3 SWAP2 SWAP1 PUSH2 0x2935 JUMP JUMPDEST POP PUSH1 0x80 DUP3 ADD MLOAD DUP2 PUSH1 0x4 ADD PUSH1 0x0 PUSH2 0x100 EXP DUP2 SLOAD DUP2 PUSH1 0xFF MUL NOT AND SWAP1 DUP4 ISZERO ISZERO MUL OR SWAP1 SSTORE POP PUSH1 0xA0 DUP3 ADD MLOAD DUP2 PUSH1 0x5 ADD SWAP1 DUP2 PUSH2 0xF6D SWAP2 SWAP1 PUSH2 0x40E2 JUMP JUMPDEST POP PUSH1 0xC0 DUP3 ADD MLOAD DUP2 PUSH1 0x6 ADD PUSH1 0x0 PUSH2 0x100 EXP DUP2 SLOAD DUP2 PUSH1 0xFF MUL NOT AND SWAP1 DUP4 PUSH1 0x1 DUP2 GT ISZERO PUSH2 0xF99 JUMPI PUSH2 0xF98 PUSH2 0x2BD8 JUMP JUMPDEST JUMPDEST MUL OR SWAP1 SSTORE POP PUSH1 0xE0 DUP3 ADD MLOAD DUP2 PUSH1 0x6 ADD PUSH1 0x1 PUSH2 0x100 EXP DUP2 SLOAD DUP2 PUSH1 0xFF MUL NOT AND SWAP1 DUP4 PUSH1 0x1 DUP2 GT ISZERO PUSH2 0xFC9 JUMPI PUSH2 0xFC8 PUSH2 0x2BD8 JUMP JUMPDEST JUMPDEST MUL OR SWAP1 SSTORE POP PUSH2 0x100 DUP3 ADD MLOAD DUP2 PUSH1 0x6 ADD PUSH1 0x2 PUSH2 0x100 EXP DUP2 SLOAD DUP2 PUSH1 0xFF MUL NOT AND SWAP1 DUP4 PUSH1 0x1 DUP2 GT ISZERO PUSH2 0xFFA JUMPI PUSH2 0xFF9 PUSH2 0x2BD8 JUMP JUMPDEST JUMPDEST MUL OR SWAP1 SSTORE POP PUSH2 0x120 DUP3 ADD MLOAD DUP2 PUSH1 0x7 ADD SWAP1 DUP1 MLOAD SWAP1 PUSH1 0x20 ADD SWAP1 PUSH2 0x101C SWAP3 SWAP2 SWAP1 PUSH2 0x2935 JUMP JUMPDEST POP PUSH2 0x140 DUP3 ADD MLOAD DUP2 PUSH1 0x8 ADD SSTORE PUSH2 0x160 DUP3 ADD MLOAD DUP2 PUSH1 0x9 ADD SWAP1 DUP2 PUSH2 0x103E SWAP2 SWAP1 PUSH2 0x40E2 JUMP JUMPDEST POP PUSH2 0x180 DUP3 ADD MLOAD DUP2 PUSH1 0xA ADD SSTORE SWAP1 POP POP PUSH1 0x4 PUSH1 0x0 DUP3 PUSH20 0xFFFFFFFFFFFFFFFFFFFFFFFFFFFFFFFFFFFFFFFF AND PUSH20 0xFFFFFFFFFFFFFFFFFFFFFFFFFFFFFFFFFFFFFFFF AND DUP2 MSTORE PUSH1 0x20 ADD SWAP1 DUP2 MSTORE PUSH1 0x20 ADD PUSH1 0x0 KECCAK256 PUSH1 0x0 SLOAD SWAP1 DUP1 PUSH1 0x1 DUP2 SLOAD ADD DUP1 DUP3 SSTORE DUP1 SWAP2 POP POP PUSH1 0x1 SWAP1 SUB SWAP1 PUSH1 0x0 MSTORE PUSH1 0x20 PUSH1 0x0 KECCAK256 ADD PUSH1 0x0 SWAP1 SWAP2 SWAP1 SWAP2 SWAP1 SWAP2 POP SSTORE PUSH32 0xB59AB3EDA203D25D3F7F9C2B2CC9833111775C1193B6ECDD3EB7184BFCA6ED7D DUP2 DUP13 DUP13 PUSH1 0x3 DUP2 GT ISZERO PUSH2 0x10EB JUMPI PUSH2 0x10EA PUSH2 0x2BD8 JUMP JUMPDEST JUMPDEST DUP13 PUSH1 0x40 MLOAD PUSH2 0x10FC SWAP5 SWAP4 SWAP3 SWAP2 SWAP1 PUSH2 0x4249 JUMP JUMPDEST PUSH1 0x40 MLOAD DUP1 SWAP2 SUB SWAP1 LOG1 POP POP POP POP POP POP POP POP POP POP POP JUMP JUMPDEST PUSH2 0x1119 PUSH2 0x286D JUMP JUMPDEST DUP3 PUSH20 0xFFFFFFFFFFFFFFFFFFFFFFFFFFFFFFFFFFFFFFFF AND PUSH1 0x2 PUSH1 0x0 DUP5 DUP2 MSTORE PUSH1 0x20 ADD SWAP1 DUP2 MSTORE PUSH1 0x20 ADD PUSH1 0x0 KECCAK256 PUSH1 0x0 ADD PUSH1 0x0 SWAP1 SLOAD SWAP1 PUSH2 0x100 EXP SWAP1 DIV PUSH20 0xFFFFFFFFFFFFFFFFFFFFFFFFFFFFFFFFFFFFFFFF AND PUSH20 0xFFFFFFFFFFFFFFFFFFFFFFFFFFFFFFFFFFFFFFFF AND EQ PUSH2 0x11BD JUMPI PUSH1 0x40 MLOAD PUSH32 0x8C379A000000000000000000000000000000000000000000000000000000000 DUP2 MSTORE PUSH1 0x4 ADD PUSH2 0x11B4 SWAP1 PUSH2 0x3A52 JUMP JUMPDEST PUSH1 0x40 MLOAD DUP1 SWAP2 SUB SWAP1 REVERT JUMPDEST PUSH1 0x2 PUSH1 0x0 DUP4 DUP2 MSTORE PUSH1 0x20 ADD SWAP1 DUP2 MSTORE PUSH1 0x20 ADD PUSH1 0x0 KECCAK256 PUSH1 0x40 MLOAD DUP1 PUSH2 0x1A0 ADD PUSH1 0x40 MSTORE SWAP1 DUP2 PUSH1 0x0 DUP3 ADD PUSH1 0x0 SWAP1 SLOAD SWAP1 PUSH2 0x100 EXP SWAP1 DIV PUSH20 0xFFFFFFFFFFFFFFFFFFFFFFFFFFFFFFFFFFFFFFFF AND PUSH20 0xFFFFFFFFFFFFFFFFFFFFFFFFFFFFFFFFFFFFFFFF AND PUSH20 0xFFFFFFFFFFFFFFFFFFFFFFFFFFFFFFFFFFFFFFFF AND DUP2 MSTORE PUSH1 0x20 ADD PUSH1 0x1 DUP3 ADD DUP1 SLOAD PUSH2 0x1242 SWAP1 PUSH2 0x395E JUMP JUMPDEST DUP1 PUSH1 0x1F ADD PUSH1 0x20 DUP1 SWAP2 DIV MUL PUSH1 0x20 ADD PUSH1 0x40 MLOAD SWAP1 DUP2 ADD PUSH1 0x40 MSTORE DUP1 SWAP3 SWAP2 SWAP1 DUP2 DUP2 MSTORE PUSH1 0x20 ADD DUP3 DUP1 SLOAD PUSH2 0x126E SWAP1 PUSH2 0x395E JUMP JUMPDEST DUP1 ISZERO PUSH2 0x12BB JUMPI DUP1 PUSH1 0x1F LT PUSH2 0x1290 JUMPI PUSH2 0x100 DUP1 DUP4 SLOAD DIV MUL DUP4 MSTORE SWAP2 PUSH1 0x20 ADD SWAP2 PUSH2 0x12BB JUMP JUMPDEST DUP3 ADD SWAP2 SWAP1 PUSH1 0x0 MSTORE PUSH1 0x20 PUSH1 0x0 KECCAK256 SWAP1 JUMPDEST DUP2 SLOAD DUP2 MSTORE SWAP1 PUSH1 0x1 ADD SWAP1 PUSH1 0x20 ADD DUP1 DUP4 GT PUSH2 0x129E JUMPI DUP3 SWAP1 SUB PUSH1 0x1F AND DUP3 ADD SWAP2 JUMPDEST POP POP POP POP POP DUP2 MSTORE PUSH1 0x20 ADD PUSH1 0x2 DUP3 ADD PUSH1 0x0 SWAP1 SLOAD SWAP1 PUSH2 0x100 EXP SWAP1 DIV PUSH1 0xFF AND PUSH1 0x3 DUP2 GT ISZERO PUSH2 0x12E9 JUMPI PUSH2 0x12E8 PUSH2 0x2BD8 JUMP JUMPDEST JUMPDEST PUSH1 0x3 DUP2 GT ISZERO PUSH2 0x12FB JUMPI PUSH2 0x12FA PUSH2 0x2BD8 JUMP JUMPDEST JUMPDEST DUP2 MSTORE PUSH1 0x20 ADD PUSH1 0x3 DUP3 ADD DUP1 SLOAD DUP1 PUSH1 0x20 MUL PUSH1 0x20 ADD PUSH1 0x40 MLOAD SWAP1 DUP2 ADD PUSH1 0x40 MSTORE DUP1 SWAP3 SWAP2 SWAP1 DUP2 DUP2 MSTORE PUSH1 0x20 ADD PUSH1 0x0 SWAP1 JUMPDEST DUP3 DUP3 LT ISZERO PUSH2 0x13D0 JUMPI DUP4 DUP3 SWAP1 PUSH1 0x0 MSTORE PUSH1 0x20 PUSH1 0x0 KECCAK256 ADD DUP1 SLOAD PUSH2 0x1343 SWAP1 PUSH2 0x395E JUMP JUMPDEST DUP1 PUSH1 0x1F ADD PUSH1 0x20 DUP1 SWAP2 DIV MUL PUSH1 0x20 ADD PUSH1 0x40 MLOAD SWAP1 DUP2 ADD PUSH1 0x40 MSTORE DUP1 SWAP3 SWAP2 SWAP1 DUP2 DUP2 MSTORE PUSH1 0x20 ADD DUP3 DUP1 SLOAD PUSH2 0x136F SWAP1 PUSH2 0x395E JUMP JUMPDEST DUP1 ISZERO PUSH2 0x13BC JUMPI DUP1 PUSH1 0x1F LT PUSH2 0x1391 JUMPI PUSH2 0x100 DUP1 DUP4 SLOAD DIV MUL DUP4 MSTORE SWAP2 PUSH1 0x20 ADD SWAP2 PUSH2 0x13BC JUMP JUMPDEST DUP3 ADD SWAP2 SWAP1 PUSH1 0x0 MSTORE PUSH1 0x20 PUSH1 0x0 KECCAK256 SWAP1 JUMPDEST DUP2 SLOAD DUP2 MSTORE SWAP1 PUSH1 0x1 ADD SWAP1 PUSH1 0x20 ADD DUP1 DUP4 GT PUSH2 0x139F JUMPI DUP3 SWAP1 SUB PUSH1 0x1F AND DUP3 ADD SWAP2 JUMPDEST POP POP POP POP POP DUP2 MSTORE PUSH1 0x20 ADD SWAP1 PUSH1 0x1 ADD SWAP1 PUSH2 0x1324 JUMP JUMPDEST POP POP POP POP DUP2 MSTORE PUSH1 0x20 ADD PUSH1 0x4 DUP3 ADD PUSH1 0x0 SWAP1 SLOAD SWAP1 PUSH2 0x100 EXP SWAP1 DIV PUSH1 0xFF AND ISZERO ISZERO ISZERO ISZERO DUP2 MSTORE PUSH1 0x20 ADD PUSH1 0x5 DUP3 ADD DUP1 SLOAD PUSH2 0x1403 SWAP1 PUSH2 0x395E JUMP JUMPDEST DUP1 PUSH1 0x1F ADD PUSH1 0x20 DUP1 SWAP2 DIV MUL PUSH1 0x20 ADD PUSH1 0x40 MLOAD SWAP1 DUP2 ADD PUSH1 0x40 MSTORE DUP1 SWAP3 SWAP2 SWAP1 DUP2 DUP2 MSTORE PUSH1 0x20 ADD DUP3 DUP1 SLOAD PUSH2 0x142F SWAP1 PUSH2 0x395E JUMP JUMPDEST DUP1 ISZERO PUSH2 0x147C JUMPI DUP1 PUSH1 0x1F LT PUSH2 0x1451 JUMPI PUSH2 0x100 DUP1 DUP4 SLOAD DIV MUL DUP4 MSTORE SWAP2 PUSH1 0x20 ADD SWAP2 PUSH2 0x147C JUMP JUMPDEST DUP3 ADD SWAP2 SWAP1 PUSH1 0x0 MSTORE PUSH1 0x20 PUSH1 0x0 KECCAK256 SWAP1 JUMPDEST DUP2 SLOAD DUP2 MSTORE SWAP1 PUSH1 0x1 ADD SWAP1 PUSH1 0x20 ADD DUP1 DUP4 GT PUSH2 0x145F JUMPI DUP3 SWAP1 SUB PUSH1 0x1F AND DUP3 ADD SWAP2 JUMPDEST POP POP POP POP POP DUP2 MSTORE PUSH1 0x20 ADD PUSH1 0x6 DUP3 ADD PUSH1 0x0 SWAP1 SLOAD SWAP1 PUSH2 0x100 EXP SWAP1 DIV PUSH1 0xFF AND PUSH1 0x1 DUP2 GT ISZERO PUSH2 0x14AA JUMPI PUSH2 0x14A9 PUSH2 0x2BD8 JUMP JUMPDEST JUMPDEST PUSH1 0x1 DUP2 GT ISZERO PUSH2 0x14BC JUMPI PUSH2 0x14BB PUSH2 0x2BD8 JUMP JUMPDEST JUMPDEST DUP2 MSTORE PUSH1 0x20 ADD PUSH1 0x6 DUP3 ADD PUSH1 0x1 SWAP1 SLOAD SWAP1 PUSH2 0x100 EXP SWAP1 DIV PUSH1 0xFF AND PUSH1 0x1 DUP2 GT ISZERO PUSH2 0x14E5 JUMPI PUSH2 0x14E4 PUSH2 0x2BD8 JUMP JUMPDEST JUMPDEST PUSH1 0x1 DUP2 GT ISZERO PUSH2 0x14F7 JUMPI PUSH2 0x14F6 PUSH2 0x2BD8 JUMP JUMPDEST JUMPDEST DUP2 MSTORE PUSH1 0x20 ADD PUSH1 0x6 DUP3 ADD PUSH1 0x2 SWAP1 SLOAD SWAP1 PUSH2 0x100 EXP SWAP1 DIV PUSH1 0xFF AND PUSH1 0x1 DUP2 GT ISZERO PUSH2 0x1520 JUMPI PUSH2 0x151F PUSH2 0x2BD8 JUMP JUMPDEST JUMPDEST PUSH1 0x1 DUP2 GT ISZERO PUSH2 0x1532 JUMPI PUSH2 0x1531 PUSH2 0x2BD8 JUMP JUMPDEST JUMPDEST DUP2 MSTORE PUSH1 0x20 ADD PUSH1 0x7 DUP3 ADD DUP1 SLOAD DUP1 PUSH1 0x20 MUL PUSH1 0x20 ADD PUSH1 0x40 MLOAD SWAP1 DUP2 ADD PUSH1 0x40 MSTORE DUP1 SWAP3 SWAP2 SWAP1 DUP2 DUP2 MSTORE PUSH1 0x20 ADD PUSH1 0x0 SWAP1 JUMPDEST DUP3 DUP3 LT ISZERO PUSH2 0x1607 JUMPI DUP4 DUP3 SWAP1 PUSH1 0x0 MSTORE PUSH1 0x20 PUSH1 0x0 KECCAK256 ADD DUP1 SLOAD PUSH2 0x157A SWAP1 PUSH2 0x395E JUMP JUMPDEST DUP1 PUSH1 0x1F ADD PUSH1 0x20 DUP1 SWAP2 DIV MUL PUSH1 0x20 ADD PUSH1 0x40 MLOAD SWAP1 DUP2 ADD PUSH1 0x40 MSTORE DUP1 SWAP3 SWAP2 SWAP1 DUP2 DUP2 MSTORE PUSH1 0x20 ADD DUP3 DUP1 SLOAD PUSH2 0x15A6 SWAP1 PUSH2 0x395E JUMP JUMPDEST DUP1 ISZERO PUSH2 0x15F3 JUMPI DUP1 PUSH1 0x1F LT PUSH2 0x15C8 JUMPI PUSH2 0x100 DUP1 DUP4 SLOAD DIV MUL DUP4 MSTORE SWAP2 PUSH1 0x20 ADD SWAP2 PUSH2 0x15F3 JUMP JUMPDEST DUP3 ADD SWAP2 SWAP1 PUSH1 0x0 MSTORE PUSH1 0x20 PUSH1 0x0 KECCAK256 SWAP1 JUMPDEST DUP2 SLOAD DUP2 MSTORE SWAP1 PUSH1 0x1 ADD SWAP1 PUSH1 0x20 ADD DUP1 DUP4 GT PUSH2 0x15D6 JUMPI DUP3 SWAP1 SUB PUSH1 0x1F AND DUP3 ADD SWAP2 JUMPDEST POP POP POP POP POP DUP2 MSTORE PUSH1 0x20 ADD SWAP1 PUSH1 0x1 ADD SWAP1 PUSH2 0x155B JUMP JUMPDEST POP POP POP POP DUP2 MSTORE PUSH1 0x20 ADD PUSH1 0x8 DUP3 ADD SLOAD DUP2 MSTORE PUSH1 0x20 ADD PUSH1 0x9 DUP3 ADD DUP1 SLOAD PUSH2 0x1629 SWAP1 PUSH2 0x395E JUMP JUMPDEST DUP1 PUSH1 0x1F ADD PUSH1 0x20 DUP1 SWAP2 DIV MUL PUSH1 0x20 ADD PUSH1 0x40 MLOAD SWAP1 DUP2 ADD PUSH1 0x40 MSTORE DUP1 SWAP3 SWAP2 SWAP1 DUP2 DUP2 MSTORE PUSH1 0x20 ADD DUP3 DUP1 SLOAD PUSH2 0x1655 SWAP1 PUSH2 0x395E JUMP JUMPDEST DUP1 ISZERO PUSH2 0x16A2 JUMPI DUP1 PUSH1 0x1F LT PUSH2 0x1677 JUMPI PUSH2 0x100 DUP1 DUP4 SLOAD DIV MUL DUP4 MSTORE SWAP2 PUSH1 0x20 ADD SWAP2 PUSH2 0x16A2 JUMP JUMPDEST DUP3 ADD SWAP2 SWAP1 PUSH1 0x0 MSTORE PUSH1 0x20 PUSH1 0x0 KECCAK256 SWAP1 JUMPDEST DUP2 SLOAD DUP2 MSTORE SWAP1 PUSH1 0x1 ADD SWAP1 PUSH1 0x20 ADD DUP1 DUP4 GT PUSH2 0x1685 JUMPI DUP3 SWAP1 SUB PUSH1 0x1F AND DUP3 ADD SWAP2 JUMPDEST POP POP POP POP POP DUP2 MSTORE PUSH1 0x20 ADD PUSH1 0xA DUP3 ADD SLOAD DUP2 MSTORE POP POP SWAP1 POP SWAP3 SWAP2 POP POP JUMP JUMPDEST PUSH1 0x0 PUSH1 0x2 PUSH1 0x0 DUP5 DUP2 MSTORE PUSH1 0x20 ADD SWAP1 DUP2 MSTORE PUSH1 0x20 ADD PUSH1 0x0 KECCAK256 PUSH1 0x8 ADD SLOAD SUB PUSH2 0x1716 JUMPI PUSH1 0x40 MLOAD PUSH32 0x8C379A000000000000000000000000000000000000000000000000000000000 DUP2 MSTORE PUSH1 0x4 ADD PUSH2 0x170D SWAP1 PUSH2 0x42E8 JUMP JUMPDEST PUSH1 0x40 MLOAD DUP1 SWAP2 SUB SWAP1 REVERT JUMPDEST PUSH1 0x0 DUP4 SUB PUSH2 0x1759 JUMPI PUSH1 0x40 MLOAD PUSH32 0x8C379A000000000000000000000000000000000000000000000000000000000 DUP2 MSTORE PUSH1 0x4 ADD PUSH2 0x1750 SWAP1 PUSH2 0x4354 JUMP JUMPDEST PUSH1 0x40 MLOAD DUP1 SWAP2 SUB SWAP1 REVERT JUMPDEST PUSH1 0x0 DUP1 PUSH2 0x1767 DUP4 CALLER DUP7 PUSH2 0x8D2 JUMP JUMPDEST SWAP2 POP SWAP2 POP PUSH1 0x4 PUSH1 0x5 DUP2 GT ISZERO PUSH2 0x177F JUMPI PUSH2 0x177E PUSH2 0x2BD8 JUMP JUMPDEST JUMPDEST DUP3 PUSH1 0x5 DUP2 GT ISZERO PUSH2 0x1792 JUMPI PUSH2 0x1791 PUSH2 0x2BD8 JUMP JUMPDEST JUMPDEST SUB PUSH2 0x17D2 JUMPI PUSH1 0x40 MLOAD PUSH32 0x8C379A000000000000000000000000000000000000000000000000000000000 DUP2 MSTORE PUSH1 0x4 ADD PUSH2 0x17C9 SWAP1 PUSH2 0x43C0 JUMP JUMPDEST PUSH1 0x40 MLOAD DUP1 SWAP2 SUB SWAP1 REVERT JUMPDEST PUSH1 0x5 DUP1 DUP2 GT ISZERO PUSH2 0x17E5 JUMPI PUSH2 0x17E4 PUSH2 0x2BD8 JUMP JUMPDEST JUMPDEST DUP3 PUSH1 0x5 DUP2 GT ISZERO PUSH2 0x17F8 JUMPI PUSH2 0x17F7 PUSH2 0x2BD8 JUMP JUMPDEST JUMPDEST SUB PUSH2 0x1838 JUMPI PUSH1 0x40 MLOAD PUSH32 0x8C379A000000000000000000000000000000000000000000000000000000000 DUP2 MSTORE PUSH1 0x4 ADD PUSH2 0x182F SWAP1 PUSH2 0x442C JUMP JUMPDEST PUSH1 0x40 MLOAD DUP1 SWAP2 SUB SWAP1 REVERT JUMPDEST PUSH1 0x5 DUP1 DUP2 GT ISZERO PUSH2 0x184B JUMPI PUSH2 0x184A PUSH2 0x2BD8 JUMP JUMPDEST JUMPDEST DUP6 PUSH1 0x5 DUP2 GT ISZERO PUSH2 0x185E JUMPI PUSH2 0x185D PUSH2 0x2BD8 JUMP JUMPDEST JUMPDEST PUSH1 0x5 DUP2 GT ISZERO PUSH2 0x1870 JUMPI PUSH2 0x186F PUSH2 0x2BD8 JUMP JUMPDEST JUMPDEST EQ PUSH2 0x18FA JUMPI PUSH1 0x1 DUP6 PUSH2 0x1882 SWAP2 SWAP1 PUSH2 0x444C JUMP JUMPDEST PUSH1 0x5 DUP2 GT ISZERO PUSH2 0x1894 JUMPI PUSH2 0x1893 PUSH2 0x2BD8 JUMP JUMPDEST JUMPDEST PUSH1 0x5 DUP2 GT ISZERO PUSH2 0x18A6 JUMPI PUSH2 0x18A5 PUSH2 0x2BD8 JUMP JUMPDEST JUMPDEST DUP3 PUSH1 0x5 DUP2 GT ISZERO PUSH2 0x18B9 JUMPI PUSH2 0x18B8 PUSH2 0x2BD8 JUMP JUMPDEST JUMPDEST EQ PUSH2 0x18F9 JUMPI PUSH1 0x40 MLOAD PUSH32 0x8C379A000000000000000000000000000000000000000000000000000000000 DUP2 MSTORE PUSH1 0x4 ADD PUSH2 0x18F0 SWAP1 PUSH2 0x44F2 JUMP JUMPDEST PUSH1 0x40 MLOAD DUP1 SWAP2 SUB SWAP1 REVERT JUMPDEST JUMPDEST DUP5 PUSH1 0x5 DUP2 GT ISZERO PUSH2 0x190D JUMPI PUSH2 0x190C PUSH2 0x2BD8 JUMP JUMPDEST JUMPDEST PUSH1 0x3 PUSH1 0x0 DUP7 DUP2 MSTORE PUSH1 0x20 ADD SWAP1 DUP2 MSTORE PUSH1 0x20 ADD PUSH1 0x0 KECCAK256 DUP3 DUP2 SLOAD DUP2 LT PUSH2 0x1932 JUMPI PUSH2 0x1931 PUSH2 0x3900 JUMP JUMPDEST JUMPDEST SWAP1 PUSH1 0x0 MSTORE PUSH1 0x20 PUSH1 0x0 KECCAK256 SWAP1 PUSH1 0x2 MUL ADD PUSH1 0x1 ADD PUSH1 0x14 PUSH2 0x100 EXP DUP2 SLOAD DUP2 PUSH1 0xFF MUL NOT AND SWAP1 DUP4 PUSH1 0x5 DUP2 GT ISZERO PUSH2 0x1965 JUMPI PUSH2 0x1964 PUSH2 0x2BD8 JUMP JUMPDEST JUMPDEST MUL OR SWAP1 SSTORE POP DUP5 PUSH1 0x5 DUP2 GT ISZERO PUSH2 0x197D JUMPI PUSH2 0x197C PUSH2 0x2BD8 JUMP JUMPDEST JUMPDEST PUSH1 0x5 DUP2 GT ISZERO PUSH2 0x198F JUMPI PUSH2 0x198E PUSH2 0x2BD8 JUMP JUMPDEST JUMPDEST PUSH1 0x3 PUSH1 0x0 DUP7 DUP2 MSTORE PUSH1 0x20 ADD SWAP1 DUP2 MSTORE PUSH1 0x20 ADD PUSH1 0x0 KECCAK256 DUP3 DUP2 SLOAD DUP2 LT PUSH2 0x19B4 JUMPI PUSH2 0x19B3 PUSH2 0x3900 JUMP JUMPDEST JUMPDEST SWAP1 PUSH1 0x0 MSTORE PUSH1 0x20 PUSH1 0x0 KECCAK256 SWAP1 PUSH1 0x2 MUL ADD PUSH1 0x1 ADD PUSH1 0x14 SWAP1 SLOAD SWAP1 PUSH2 0x100 EXP SWAP1 DIV PUSH1 0xFF AND PUSH1 0x5 DUP2 GT ISZERO PUSH2 0x19E5 JUMPI PUSH2 0x19E4 PUSH2 0x2BD8 JUMP JUMPDEST JUMPDEST SUB PUSH2 0x1A17 JUMPI PUSH1 0x2 PUSH1 0x0 DUP6 DUP2 MSTORE PUSH1 0x20 ADD SWAP1 DUP2 MSTORE PUSH1 0x20 ADD PUSH1 0x0 KECCAK256 PUSH1 0x8 ADD PUSH1 0x0 DUP2 SLOAD DUP1 SWAP3 SWAP2 SWAP1 PUSH2 0x1A11 SWAP1 PUSH2 0x4512 JUMP JUMPDEST SWAP2 SWAP1 POP SSTORE POP JUMPDEST PUSH32 0x421A47B502E9E668F50677138FDA90F09A5AB4133E9449F4218D291450356CE DUP6 DUP6 DUP6 PUSH1 0x40 MLOAD PUSH2 0x1A4A SWAP4 SWAP3 SWAP2 SWAP1 PUSH2 0x453B JUMP JUMPDEST PUSH1 0x40 MLOAD DUP1 SWAP2 SUB SWAP1 LOG1 POP POP POP POP POP JUMP JUMPDEST PUSH2 0x1A61 PUSH2 0x298E JUMP JUMPDEST PUSH1 0x0 JUMPDEST PUSH1 0x3 PUSH1 0x0 DUP5 DUP2 MSTORE PUSH1 0x20 ADD SWAP1 DUP2 MSTORE PUSH1 0x20 ADD PUSH1 0x0 KECCAK256 DUP1 SLOAD SWAP1 POP DUP2 LT ISZERO PUSH2 0x1CD9 JUMPI DUP5 PUSH20 0xFFFFFFFFFFFFFFFFFFFFFFFFFFFFFFFFFFFFFFFF AND PUSH1 0x3 PUSH1 0x0 DUP6 DUP2 MSTORE PUSH1 0x20 ADD SWAP1 DUP2 MSTORE PUSH1 0x20 ADD PUSH1 0x0 KECCAK256 DUP3 DUP2 SLOAD DUP2 LT PUSH2 0x1ABE JUMPI PUSH2 0x1ABD PUSH2 0x3900 JUMP JUMPDEST JUMPDEST SWAP1 PUSH1 0x0 MSTORE PUSH1 0x20 PUSH1 0x0 KECCAK256 SWAP1 PUSH1 0x2 MUL ADD PUSH1 0x0 ADD PUSH1 0x0 SWAP1 SLOAD SWAP1 PUSH2 0x100 EXP SWAP1 DIV PUSH20 0xFFFFFFFFFFFFFFFFFFFFFFFFFFFFFFFFFFFFFFFF AND PUSH20 0xFFFFFFFFFFFFFFFFFFFFFFFFFFFFFFFFFFFFFFFF AND EQ DUP1 ISZERO PUSH2 0x1B94 JUMPI POP DUP4 PUSH20 0xFFFFFFFFFFFFFFFFFFFFFFFFFFFFFFFFFFFFFFFF AND PUSH1 0x3 PUSH1 0x0 DUP6 DUP2 MSTORE PUSH1 0x20 ADD SWAP1 DUP2 MSTORE PUSH1 0x20 ADD PUSH1 0x0 KECCAK256 DUP3 DUP2 SLOAD DUP2 LT PUSH2 0x1B4A JUMPI PUSH2 0x1B49 PUSH2 0x3900 JUMP JUMPDEST JUMPDEST SWAP1 PUSH1 0x0 MSTORE PUSH1 0x20 PUSH1 0x0 KECCAK256 SWAP1 PUSH1 0x2 MUL ADD PUSH1 0x1 ADD PUSH1 0x0 SWAP1 SLOAD SWAP1 PUSH2 0x100 EXP SWAP1 DIV PUSH20 0xFFFFFFFFFFFFFFFFFFFFFFFFFFFFFFFFFFFFFFFF AND PUSH20 0xFFFFFFFFFFFFFFFFFFFFFFFFFFFFFFFFFFFFFFFF AND EQ JUMPDEST ISZERO PUSH2 0x1CC6 JUMPI PUSH1 0x3 PUSH1 0x0 DUP5 DUP2 MSTORE PUSH1 0x20 ADD SWAP1 DUP2 MSTORE PUSH1 0x20 ADD PUSH1 0x0 KECCAK256 DUP2 DUP2 SLOAD DUP2 LT PUSH2 0x1BBE JUMPI PUSH2 0x1BBD PUSH2 0x3900 JUMP JUMPDEST JUMPDEST SWAP1 PUSH1 0x0 MSTORE PUSH1 0x20 PUSH1 0x0 KECCAK256 SWAP1 PUSH1 0x2 MUL ADD PUSH1 0x40 MLOAD DUP1 PUSH1 0x60 ADD PUSH1 0x40 MSTORE SWAP1 DUP2 PUSH1 0x0 DUP3 ADD PUSH1 0x0 SWAP1 SLOAD SWAP1 PUSH2 0x100 EXP SWAP1 DIV PUSH20 0xFFFFFFFFFFFFFFFFFFFFFFFFFFFFFFFFFFFFFFFF AND PUSH20 0xFFFFFFFFFFFFFFFFFFFFFFFFFFFFFFFFFFFFFFFF AND PUSH20 0xFFFFFFFFFFFFFFFFFFFFFFFFFFFFFFFFFFFFFFFF AND DUP2 MSTORE PUSH1 0x20 ADD PUSH1 0x1 DUP3 ADD PUSH1 0x0 SWAP1 SLOAD SWAP1 PUSH2 0x100 EXP SWAP1 DIV PUSH20 0xFFFFFFFFFFFFFFFFFFFFFFFFFFFFFFFFFFFFFFFF AND PUSH20 0xFFFFFFFFFFFFFFFFFFFFFFFFFFFFFFFFFFFFFFFF AND PUSH20 0xFFFFFFFFFFFFFFFFFFFFFFFFFFFFFFFFFFFFFFFF AND DUP2 MSTORE PUSH1 0x20 ADD PUSH1 0x1 DUP3 ADD PUSH1 0x14 SWAP1 SLOAD SWAP1 PUSH2 0x100 EXP SWAP1 DIV PUSH1 0xFF AND PUSH1 0x5 DUP2 GT ISZERO PUSH2 0x1CA8 JUMPI PUSH2 0x1CA7 PUSH2 0x2BD8 JUMP JUMPDEST JUMPDEST PUSH1 0x5 DUP2 GT ISZERO PUSH2 0x1CBA JUMPI PUSH2 0x1CB9 PUSH2 0x2BD8 JUMP JUMPDEST JUMPDEST DUP2 MSTORE POP POP SWAP2 POP POP PUSH2 0x1D4B JUMP JUMPDEST DUP1 DUP1 PUSH2 0x1CD1 SWAP1 PUSH2 0x39BE JUMP JUMPDEST SWAP2 POP POP PUSH2 0x1A64 JUMP JUMPDEST POP PUSH1 0x40 MLOAD DUP1 PUSH1 0x60 ADD PUSH1 0x40 MSTORE DUP1 PUSH1 0x0 PUSH20 0xFFFFFFFFFFFFFFFFFFFFFFFFFFFFFFFFFFFFFFFF AND DUP2 MSTORE PUSH1 0x20 ADD PUSH1 0x0 PUSH20 0xFFFFFFFFFFFFFFFFFFFFFFFFFFFFFFFFFFFFFFFF AND DUP2 MSTORE PUSH1 0x20 ADD PUSH1 0x0 PUSH1 0x5 DUP2 GT ISZERO PUSH2 0x1D33 JUMPI PUSH2 0x1D32 PUSH2 0x2BD8 JUMP JUMPDEST JUMPDEST PUSH1 0x5 DUP2 GT ISZERO PUSH2 0x1D45 JUMPI PUSH2 0x1D44 PUSH2 0x2BD8 JUMP JUMPDEST JUMPDEST DUP2 MSTORE POP SWAP1 POP JUMPDEST SWAP4 SWAP3 POP POP POP JUMP JUMPDEST PUSH1 0x60 PUSH1 0x0 JUMPDEST PUSH1 0x3 PUSH1 0x0 DUP5 DUP2 MSTORE PUSH1 0x20 ADD SWAP1 DUP2 MSTORE PUSH1 0x20 ADD PUSH1 0x0 KECCAK256 DUP1 SLOAD SWAP1 POP DUP2 LT ISZERO PUSH2 0x1E4C JUMPI CALLER PUSH20 0xFFFFFFFFFFFFFFFFFFFFFFFFFFFFFFFFFFFFFFFF AND PUSH1 0x3 PUSH1 0x0 DUP6 DUP2 MSTORE PUSH1 0x20 ADD SWAP1 DUP2 MSTORE PUSH1 0x20 ADD PUSH1 0x0 KECCAK256 DUP3 DUP2 SLOAD DUP2 LT PUSH2 0x1DB1 JUMPI PUSH2 0x1DB0 PUSH2 0x3900 JUMP JUMPDEST JUMPDEST SWAP1 PUSH1 0x0 MSTORE PUSH1 0x20 PUSH1 0x0 KECCAK256 SWAP1 PUSH1 0x2 MUL ADD PUSH1 0x1 ADD PUSH1 0x0 SWAP1 SLOAD SWAP1 PUSH2 0x100 EXP SWAP1 DIV PUSH20 0xFFFFFFFFFFFFFFFFFFFFFFFFFFFFFFFFFFFFFFFF AND PUSH20 0xFFFFFFFFFFFFFFFFFFFFFFFFFFFFFFFFFFFFFFFF AND EQ PUSH2 0x1E39 JUMPI PUSH1 0x40 MLOAD PUSH32 0x8C379A000000000000000000000000000000000000000000000000000000000 DUP2 MSTORE PUSH1 0x4 ADD PUSH2 0x1E30 SWAP1 PUSH2 0x45BE JUMP JUMPDEST PUSH1 0x40 MLOAD DUP1 SWAP2 SUB SWAP1 REVERT JUMPDEST DUP1 DUP1 PUSH2 0x1E44 SWAP1 PUSH2 0x39BE JUMP JUMPDEST SWAP2 POP POP PUSH2 0x1D57 JUMP JUMPDEST POP PUSH1 0x3 PUSH1 0x0 DUP4 DUP2 MSTORE PUSH1 0x20 ADD SWAP1 DUP2 MSTORE PUSH1 0x20 ADD PUSH1 0x0 KECCAK256 DUP1 SLOAD DUP1 PUSH1 0x20 MUL PUSH1 0x20 ADD PUSH1 0x40 MLOAD SWAP1 DUP2 ADD PUSH1 0x40 MSTORE DUP1 SWAP3 SWAP2 SWAP1 DUP2 DUP2 MSTORE PUSH1 0x20 ADD PUSH1 0x0 SWAP1 JUMPDEST DUP3 DUP3 LT ISZERO PUSH2 0x1F99 JUMPI DUP4 DUP3 SWAP1 PUSH1 0x0 MSTORE PUSH1 0x20 PUSH1 0x0 KECCAK256 SWAP1 PUSH1 0x2 MUL ADD PUSH1 0x40 MLOAD DUP1 PUSH1 0x60 ADD PUSH1 0x40 MSTORE SWAP1 DUP2 PUSH1 0x0 DUP3 ADD PUSH1 0x0 SWAP1 SLOAD SWAP1 PUSH2 0x100 EXP SWAP1 DIV PUSH20 0xFFFFFFFFFFFFFFFFFFFFFFFFFFFFFFFFFFFFFFFF AND PUSH20 0xFFFFFFFFFFFFFFFFFFFFFFFFFFFFFFFFFFFFFFFF AND PUSH20 0xFFFFFFFFFFFFFFFFFFFFFFFFFFFFFFFFFFFFFFFF AND DUP2 MSTORE PUSH1 0x20 ADD PUSH1 0x1 DUP3 ADD PUSH1 0x0 SWAP1 SLOAD SWAP1 PUSH2 0x100 EXP SWAP1 DIV PUSH20 0xFFFFFFFFFFFFFFFFFFFFFFFFFFFFFFFFFFFFFFFF AND PUSH20 0xFFFFFFFFFFFFFFFFFFFFFFFFFFFFFFFFFFFFFFFF AND PUSH20 0xFFFFFFFFFFFFFFFFFFFFFFFFFFFFFFFFFFFFFFFF AND DUP2 MSTORE PUSH1 0x20 ADD PUSH1 0x1 DUP3 ADD PUSH1 0x14 SWAP1 SLOAD SWAP1 PUSH2 0x100 EXP SWAP1 DIV PUSH1 0xFF AND PUSH1 0x5 DUP2 GT ISZERO PUSH2 0x1F74 JUMPI PUSH2 0x1F73 PUSH2 0x2BD8 JUMP JUMPDEST JUMPDEST PUSH1 0x5 DUP2 GT ISZERO PUSH2 0x1F86 JUMPI PUSH2 0x1F85 PUSH2 0x2BD8 JUMP JUMPDEST JUMPDEST DUP2 MSTORE POP POP DUP2 MSTORE PUSH1 0x20 ADD SWAP1 PUSH1 0x1 ADD SWAP1 PUSH2 0x1E80 JUMP JUMPDEST POP POP POP POP SWAP1 POP SWAP2 SWAP1 POP JUMP JUMPDEST PUSH1 0x60 PUSH1 0x40 MLOAD DUP1 PUSH1 0x20 ADD PUSH1 0x40 MSTORE DUP1 PUSH1 0x0 DUP2 MSTORE POP DUP1 MLOAD SWAP1 PUSH1 0x20 ADD KECCAK256 PUSH1 0x5 PUSH1 0x0 DUP5 DUP2 MSTORE PUSH1 0x20 ADD SWAP1 DUP2 MSTORE PUSH1 0x20 ADD PUSH1 0x0 KECCAK256 PUSH1 0x0 CALLER PUSH20 0xFFFFFFFFFFFFFFFFFFFFFFFFFFFFFFFFFFFFFFFF AND PUSH20 0xFFFFFFFFFFFFFFFFFFFFFFFFFFFFFFFFFFFFFFFF AND DUP2 MSTORE PUSH1 0x20 ADD SWAP1 DUP2 MSTORE PUSH1 0x20 ADD PUSH1 0x0 KECCAK256 PUSH1 0x40 MLOAD PUSH2 0x201A SWAP2 SWAP1 PUSH2 0x4681 JUMP JUMPDEST PUSH1 0x40 MLOAD DUP1 SWAP2 SUB SWAP1 KECCAK256 SUB PUSH2 0x2062 JUMPI PUSH1 0x40 MLOAD PUSH32 0x8C379A000000000000000000000000000000000000000000000000000000000 DUP2 MSTORE PUSH1 0x4 ADD PUSH2 0x2059 SWAP1 PUSH2 0x46E4 JUMP JUMPDEST PUSH1 0x40 MLOAD DUP1 SWAP2 SUB SWAP1 REVERT JUMPDEST PUSH1 0x5 PUSH1 0x0 DUP4 DUP2 MSTORE PUSH1 0x20 ADD SWAP1 DUP2 MSTORE PUSH1 0x20 ADD PUSH1 0x0 KECCAK256 PUSH1 0x0 CALLER PUSH20 0xFFFFFFFFFFFFFFFFFFFFFFFFFFFFFFFFFFFFFFFF AND PUSH20 0xFFFFFFFFFFFFFFFFFFFFFFFFFFFFFFFFFFFFFFFF AND DUP2 MSTORE PUSH1 0x20 ADD SWAP1 DUP2 MSTORE PUSH1 0x20 ADD PUSH1 0x0 KECCAK256 DUP1 SLOAD PUSH2 0x20BD SWAP1 PUSH2 0x395E JUMP JUMPDEST DUP1 PUSH1 0x1F ADD PUSH1 0x20 DUP1 SWAP2 DIV MUL PUSH1 0x20 ADD PUSH1 0x40 MLOAD SWAP1 DUP2 ADD PUSH1 0x40 MSTORE DUP1 SWAP3 SWAP2 SWAP1 DUP2 DUP2 MSTORE PUSH1 0x20 ADD DUP3 DUP1 SLOAD PUSH2 0x20E9 SWAP1 PUSH2 0x395E JUMP JUMPDEST DUP1 ISZERO PUSH2 0x2136 JUMPI DUP1 PUSH1 0x1F LT PUSH2 0x210B JUMPI PUSH2 0x100 DUP1 DUP4 SLOAD DIV MUL DUP4 MSTORE SWAP2 PUSH1 0x20 ADD SWAP2 PUSH2 0x2136 JUMP JUMPDEST DUP3 ADD SWAP2 SWAP1 PUSH1 0x0 MSTORE PUSH1 0x20 PUSH1 0x0 KECCAK256 SWAP1 JUMPDEST DUP2 SLOAD DUP2 MSTORE SWAP1 PUSH1 0x1 ADD SWAP1 PUSH1 0x20 ADD DUP1 DUP4 GT PUSH2 0x2119 JUMPI DUP3 SWAP1 SUB PUSH1 0x1F AND DUP3 ADD SWAP2 JUMPDEST POP POP POP POP POP SWAP1 POP SWAP2 SWAP1 POP JUMP JUMPDEST PUSH1 0x0 PUSH1 0x3 PUSH1 0x0 DUP6 DUP2 MSTORE PUSH1 0x20 ADD SWAP1 DUP2 MSTORE PUSH1 0x20 ADD PUSH1 0x0 KECCAK256 DUP4 DUP2 SLOAD DUP2 LT PUSH2 0x2169 JUMPI PUSH2 0x2168 PUSH2 0x3900 JUMP JUMPDEST JUMPDEST SWAP1 PUSH1 0x0 MSTORE PUSH1 0x20 PUSH1 0x0 KECCAK256 SWAP1 PUSH1 0x2 MUL ADD PUSH1 0x40 MLOAD DUP1 PUSH1 0x60 ADD PUSH1 0x40 MSTORE SWAP1 DUP2 PUSH1 0x0 DUP3 ADD PUSH1 0x0 SWAP1 SLOAD SWAP1 PUSH2 0x100 EXP SWAP1 DIV PUSH20 0xFFFFFFFFFFFFFFFFFFFFFFFFFFFFFFFFFFFFFFFF AND PUSH20 0xFFFFFFFFFFFFFFFFFFFFFFFFFFFFFFFFFFFFFFFF AND PUSH20 0xFFFFFFFFFFFFFFFFFFFFFFFFFFFFFFFFFFFFFFFF AND DUP2 MSTORE PUSH1 0x20 ADD PUSH1 0x1 DUP3 ADD PUSH1 0x0 SWAP1 SLOAD SWAP1 PUSH2 0x100 EXP SWAP1 DIV PUSH20 0xFFFFFFFFFFFFFFFFFFFFFFFFFFFFFFFFFFFFFFFF AND PUSH20 0xFFFFFFFFFFFFFFFFFFFFFFFFFFFFFFFFFFFFFFFF AND PUSH20 0xFFFFFFFFFFFFFFFFFFFFFFFFFFFFFFFFFFFFFFFF AND DUP2 MSTORE PUSH1 0x20 ADD PUSH1 0x1 DUP3 ADD PUSH1 0x14 SWAP1 SLOAD SWAP1 PUSH2 0x100 EXP SWAP1 DIV PUSH1 0xFF AND PUSH1 0x5 DUP2 GT ISZERO PUSH2 0x2253 JUMPI PUSH2 0x2252 PUSH2 0x2BD8 JUMP JUMPDEST JUMPDEST PUSH1 0x5 DUP2 GT ISZERO PUSH2 0x2265 JUMPI PUSH2 0x2264 PUSH2 0x2BD8 JUMP JUMPDEST JUMPDEST DUP2 MSTORE POP POP SWAP1 POP PUSH1 0x4 PUSH1 0x5 DUP2 GT ISZERO PUSH2 0x227F JUMPI PUSH2 0x227E PUSH2 0x2BD8 JUMP JUMPDEST JUMPDEST DUP2 PUSH1 0x40 ADD MLOAD PUSH1 0x5 DUP2 GT ISZERO PUSH2 0x2296 JUMPI PUSH2 0x2295 PUSH2 0x2BD8 JUMP JUMPDEST JUMPDEST EQ PUSH2 0x22D6 JUMPI PUSH1 0x40 MLOAD PUSH32 0x8C379A000000000000000000000000000000000000000000000000000000000 DUP2 MSTORE PUSH1 0x4 ADD PUSH2 0x22CD SWAP1 PUSH2 0x4750 JUMP JUMPDEST PUSH1 0x40 MLOAD DUP1 SWAP2 SUB SWAP1 REVERT JUMPDEST PUSH1 0x40 MLOAD DUP1 PUSH1 0x20 ADD PUSH1 0x40 MSTORE DUP1 PUSH1 0x0 DUP2 MSTORE POP DUP1 MLOAD SWAP1 PUSH1 0x20 ADD KECCAK256 PUSH1 0x5 PUSH1 0x0 DUP7 DUP2 MSTORE PUSH1 0x20 ADD SWAP1 DUP2 MSTORE PUSH1 0x20 ADD PUSH1 0x0 KECCAK256 PUSH1 0x0 DUP4 PUSH1 0x0 ADD MLOAD PUSH20 0xFFFFFFFFFFFFFFFFFFFFFFFFFFFFFFFFFFFFFFFF AND PUSH20 0xFFFFFFFFFFFFFFFFFFFFFFFFFFFFFFFFFFFFFFFF AND DUP2 MSTORE PUSH1 0x20 ADD SWAP1 DUP2 MSTORE PUSH1 0x20 ADD PUSH1 0x0 KECCAK256 PUSH1 0x40 MLOAD PUSH2 0x234E SWAP2 SWAP1 PUSH2 0x4681 JUMP JUMPDEST PUSH1 0x40 MLOAD DUP1 SWAP2 SUB SWAP1 KECCAK256 EQ PUSH2 0x2396 JUMPI PUSH1 0x40 MLOAD PUSH32 0x8C379A000000000000000000000000000000000000000000000000000000000 DUP2 MSTORE PUSH1 0x4 ADD PUSH2 0x238D SWAP1 PUSH2 0x47BC JUMP JUMPDEST PUSH1 0x40 MLOAD DUP1 SWAP2 SUB SWAP1 REVERT JUMPDEST DUP2 PUSH1 0x5 PUSH1 0x0 DUP7 DUP2 MSTORE PUSH1 0x20 ADD SWAP1 DUP2 MSTORE PUSH1 0x20 ADD PUSH1 0x0 KECCAK256 PUSH1 0x0 DUP4 PUSH1 0x0 ADD MLOAD PUSH20 0xFFFFFFFFFFFFFFFFFFFFFFFFFFFFFFFFFFFFFFFF AND PUSH20 0xFFFFFFFFFFFFFFFFFFFFFFFFFFFFFFFFFFFFFFFF AND DUP2 MSTORE PUSH1 0x20 ADD SWAP1 DUP2 MSTORE PUSH1 0x20 ADD PUSH1 0x0 KECCAK256 SWAP1 DUP2 PUSH2 0x23F7 SWAP2 SWAP1 PUSH2 0x40E2 JUMP JUMPDEST POP PUSH32 0x1E6D93C98CD6B6C7B4A33A227EEF3933C5138167DCD65699F31FA7F9B5DB26E5 DUP2 PUSH1 0x0 ADD MLOAD CALLER DUP5 DUP8 PUSH1 0x40 MLOAD PUSH2 0x2431 SWAP5 SWAP4 SWAP3 SWAP2 SWAP1 PUSH2 0x47DC JUMP JUMPDEST PUSH1 0x40 MLOAD DUP1 SWAP2 SUB SWAP1 LOG1 POP POP POP POP JUMP JUMPDEST PUSH1 0x0 PUSH1 0x2 PUSH1 0x0 DUP4 DUP2 MSTORE PUSH1 0x20 ADD SWAP1 DUP2 MSTORE PUSH1 0x20 ADD PUSH1 0x0 KECCAK256 SWAP1 POP DUP3 PUSH20 0xFFFFFFFFFFFFFFFFFFFFFFFFFFFFFFFFFFFFFFFF AND DUP2 PUSH1 0x0 ADD PUSH1 0x0 SWAP1 SLOAD SWAP1 PUSH2 0x100 EXP SWAP1 DIV PUSH20 0xFFFFFFFFFFFFFFFFFFFFFFFFFFFFFFFFFFFFFFFF AND PUSH20 0xFFFFFFFFFFFFFFFFFFFFFFFFFFFFFFFFFFFFFFFF AND EQ PUSH2 0x24E8 JUMPI PUSH1 0x40 MLOAD PUSH32 0x8C379A000000000000000000000000000000000000000000000000000000000 DUP2 MSTORE PUSH1 0x4 ADD PUSH2 0x24DF SWAP1 PUSH2 0x3A52 JUMP JUMPDEST PUSH1 0x40 MLOAD DUP1 SWAP2 SUB SWAP1 REVERT JUMPDEST DUP4 PUSH20 0xFFFFFFFFFFFFFFFFFFFFFFFFFFFFFFFFFFFFFFFF AND DUP2 PUSH1 0x0 ADD PUSH1 0x0 SWAP1 SLOAD SWAP1 PUSH2 0x100 EXP SWAP1 DIV PUSH20 0xFFFFFFFFFFFFFFFFFFFFFFFFFFFFFFFFFFFFFFFF AND PUSH20 0xFFFFFFFFFFFFFFFFFFFFFFFFFFFFFFFFFFFFFFFF AND SUB PUSH2 0x257A JUMPI PUSH1 0x40 MLOAD PUSH32 0x8C379A000000000000000000000000000000000000000000000000000000000 DUP2 MSTORE PUSH1 0x4 ADD PUSH2 0x2571 SWAP1 PUSH2 0x489A JUMP JUMPDEST PUSH1 0x40 MLOAD DUP1 SWAP2 SUB SWAP1 REVERT JUMPDEST DUP1 PUSH1 0x4 ADD PUSH1 0x0 SWAP1 SLOAD SWAP1 PUSH2 0x100 EXP SWAP1 DIV PUSH1 0xFF AND PUSH2 0x25CB JUMPI PUSH1 0x40 MLOAD PUSH32 0x8C379A000000000000000000000000000000000000000000000000000000000 DUP2 MSTORE PUSH1 0x4 ADD PUSH2 0x25C2 SWAP1 PUSH2 0x4906 JUMP JUMPDEST PUSH1 0x40 MLOAD DUP1 SWAP2 SUB SWAP1 REVERT JUMPDEST PUSH1 0x0 JUMPDEST PUSH1 0x3 PUSH1 0x0 DUP5 DUP2 MSTORE PUSH1 0x20 ADD SWAP1 DUP2 MSTORE PUSH1 0x20 ADD PUSH1 0x0 KECCAK256 DUP1 SLOAD SWAP1 POP DUP2 LT ISZERO PUSH2 0x26C3 JUMPI DUP5 PUSH20 0xFFFFFFFFFFFFFFFFFFFFFFFFFFFFFFFFFFFFFFFF AND PUSH1 0x3 PUSH1 0x0 DUP6 DUP2 MSTORE PUSH1 0x20 ADD SWAP1 DUP2 MSTORE PUSH1 0x20 ADD PUSH1 0x0 KECCAK256 DUP3 DUP2 SLOAD DUP2 LT PUSH2 0x2628 JUMPI PUSH2 0x2627 PUSH2 0x3900 JUMP JUMPDEST JUMPDEST SWAP1 PUSH1 0x0 MSTORE PUSH1 0x20 PUSH1 0x0 KECCAK256 SWAP1 PUSH1 0x2 MUL ADD PUSH1 0x0 ADD PUSH1 0x0 SWAP1 SLOAD SWAP1 PUSH2 0x100 EXP SWAP1 DIV PUSH20 0xFFFFFFFFFFFFFFFFFFFFFFFFFFFFFFFFFFFFFFFF AND PUSH20 0xFFFFFFFFFFFFFFFFFFFFFFFFFFFFFFFFFFFFFFFF AND SUB PUSH2 0x26B0 JUMPI PUSH1 0x40 MLOAD PUSH32 0x8C379A000000000000000000000000000000000000000000000000000000000 DUP2 MSTORE PUSH1 0x4 ADD PUSH2 0x26A7 SWAP1 PUSH2 0x4998 JUMP JUMPDEST PUSH1 0x40 MLOAD DUP1 SWAP2 SUB SWAP1 REVERT JUMPDEST DUP1 DUP1 PUSH2 0x26BB SWAP1 PUSH2 0x39BE JUMP JUMPDEST SWAP2 POP POP PUSH2 0x25CE JUMP JUMPDEST POP PUSH1 0x3 PUSH1 0x0 DUP4 DUP2 MSTORE PUSH1 0x20 ADD SWAP1 DUP2 MSTORE PUSH1 0x20 ADD PUSH1 0x0 KECCAK256 PUSH1 0x40 MLOAD DUP1 PUSH1 0x60 ADD PUSH1 0x40 MSTORE DUP1 DUP7 PUSH20 0xFFFFFFFFFFFFFFFFFFFFFFFFFFFFFFFFFFFFFFFF AND DUP2 MSTORE PUSH1 0x20 ADD DUP6 PUSH20 0xFFFFFFFFFFFFFFFFFFFFFFFFFFFFFFFFFFFFFFFF AND DUP2 MSTORE PUSH1 0x20 ADD PUSH1 0x1 PUSH1 0x5 DUP2 GT ISZERO PUSH2 0x272E JUMPI PUSH2 0x272D PUSH2 0x2BD8 JUMP JUMPDEST JUMPDEST PUSH1 0x5 DUP2 GT ISZERO PUSH2 0x2740 JUMPI PUSH2 0x273F PUSH2 0x2BD8 JUMP JUMPDEST JUMPDEST DUP2 MSTORE POP SWAP1 DUP1 PUSH1 0x1 DUP2 SLOAD ADD DUP1 DUP3 SSTORE DUP1 SWAP2 POP POP PUSH1 0x1 SWAP1 SUB SWAP1 PUSH1 0x0 MSTORE PUSH1 0x20 PUSH1 0x0 KECCAK256 SWAP1 PUSH1 0x2 MUL ADD PUSH1 0x0 SWAP1 SWAP2 SWAP1 SWAP2 SWAP1 SWAP2 POP PUSH1 0x0 DUP3 ADD MLOAD DUP2 PUSH1 0x0 ADD PUSH1 0x0 PUSH2 0x100 EXP DUP2 SLOAD DUP2 PUSH20 0xFFFFFFFFFFFFFFFFFFFFFFFFFFFFFFFFFFFFFFFF MUL NOT AND SWAP1 DUP4 PUSH20 0xFFFFFFFFFFFFFFFFFFFFFFFFFFFFFFFFFFFFFFFF AND MUL OR SWAP1 SSTORE POP PUSH1 0x20 DUP3 ADD MLOAD DUP2 PUSH1 0x1 ADD PUSH1 0x0 PUSH2 0x100 EXP DUP2 SLOAD DUP2 PUSH20 0xFFFFFFFFFFFFFFFFFFFFFFFFFFFFFFFFFFFFFFFF MUL NOT AND SWAP1 DUP4 PUSH20 0xFFFFFFFFFFFFFFFFFFFFFFFFFFFFFFFFFFFFFFFF AND MUL OR SWAP1 SSTORE POP PUSH1 0x40 DUP3 ADD MLOAD DUP2 PUSH1 0x1 ADD PUSH1 0x14 PUSH2 0x100 EXP DUP2 SLOAD DUP2 PUSH1 0xFF MUL NOT AND SWAP1 DUP4 PUSH1 0x5 DUP2 GT ISZERO PUSH2 0x2825 JUMPI PUSH2 0x2824 PUSH2 0x2BD8 JUMP JUMPDEST JUMPDEST MUL OR SWAP1 SSTORE POP POP POP PUSH32 0x1ADC25CB20CFBA1E9E216619CCB6A35B753F0AACC9F60F5BC03128B2D99A9159 DUP5 DUP5 DUP5 PUSH1 0x40 MLOAD PUSH2 0x285F SWAP4 SWAP3 SWAP2 SWAP1 PUSH2 0x49B8 JUMP JUMPDEST PUSH1 0x40 MLOAD DUP1 SWAP2 SUB SWAP1 LOG1 POP POP POP POP JUMP JUMPDEST PUSH1 0x40 MLOAD DUP1 PUSH2 0x1A0 ADD PUSH1 0x40 MSTORE DUP1 PUSH1 0x0 PUSH20 0xFFFFFFFFFFFFFFFFFFFFFFFFFFFFFFFFFFFFFFFF AND DUP2 MSTORE PUSH1 0x20 ADD PUSH1 0x60 DUP2 MSTORE PUSH1 0x20 ADD PUSH1 0x0 PUSH1 0x3 DUP2 GT ISZERO PUSH2 0x28B1 JUMPI PUSH2 0x28B0 PUSH2 0x2BD8 JUMP JUMPDEST JUMPDEST DUP2 MSTORE PUSH1 0x20 ADD PUSH1 0x60 DUP2 MSTORE PUSH1 0x20 ADD PUSH1 0x0 ISZERO ISZERO DUP2 MSTORE PUSH1 0x20 ADD PUSH1 0x60 DUP2 MSTORE PUSH1 0x20 ADD PUSH1 0x0 PUSH1 0x1 DUP2 GT ISZERO PUSH2 0x28E1 JUMPI PUSH2 0x28E0 PUSH2 0x2BD8 JUMP JUMPDEST JUMPDEST DUP2 MSTORE PUSH1 0x20 ADD PUSH1 0x0 PUSH1 0x1 DUP2 GT ISZERO PUSH2 0x28FA JUMPI PUSH2 0x28F9 PUSH2 0x2BD8 JUMP JUMPDEST JUMPDEST DUP2 MSTORE PUSH1 0x20 ADD PUSH1 0x0 PUSH1 0x1 DUP2 GT ISZERO PUSH2 0x2913 JUMPI PUSH2 0x2912 PUSH2 0x2BD8 JUMP JUMPDEST JUMPDEST DUP2 MSTORE PUSH1 0x20 ADD PUSH1 0x60 DUP2 MSTORE PUSH1 0x20 ADD PUSH1 0x0 DUP2 MSTORE PUSH1 0x20 ADD PUSH1 0x60 DUP2 MSTORE PUSH1 0x20 ADD PUSH1 0x0 DUP2 MSTORE POP SWAP1 JUMP JUMPDEST DUP3 DUP1 SLOAD DUP3 DUP3 SSTORE SWAP1 PUSH1 0x0 MSTORE PUSH1 0x20 PUSH1 0x0 KECCAK256 SWAP1 DUP2 ADD SWAP3 DUP3 ISZERO PUSH2 0x297D JUMPI SWAP2 PUSH1 0x20 MUL DUP3 ADD JUMPDEST DUP3 DUP2 GT ISZERO PUSH2 0x297C JUMPI DUP3 MLOAD DUP3 SWAP1 DUP2 PUSH2 0x296C SWAP2 SWAP1 PUSH2 0x40E2 JUMP JUMPDEST POP SWAP2 PUSH1 0x20 ADD SWAP2 SWAP1 PUSH1 0x1 ADD SWAP1 PUSH2 0x2955 JUMP JUMPDEST JUMPDEST POP SWAP1 POP PUSH2 0x298A SWAP2 SWAP1 PUSH2 0x29ED JUMP JUMPDEST POP SWAP1 JUMP JUMPDEST PUSH1 0x40 MLOAD DUP1 PUSH1 0x60 ADD PUSH1 0x40 MSTORE DUP1 PUSH1 0x0 PUSH20 0xFFFFFFFFFFFFFFFFFFFFFFFFFFFFFFFFFFFFFFFF AND DUP2 MSTORE PUSH1 0x20 ADD PUSH1 0x0 PUSH20 0xFFFFFFFFFFFFFFFFFFFFFFFFFFFFFFFFFFFFFFFF AND DUP2 MSTORE PUSH1 0x20 ADD PUSH1 0x0 PUSH1 0x5 DUP2 GT ISZERO PUSH2 0x29E7 JUMPI PUSH2 0x29E6 PUSH2 0x2BD8 JUMP JUMPDEST JUMPDEST DUP2 MSTORE POP SWAP1 JUMP JUMPDEST JUMPDEST DUP1 DUP3 GT ISZERO PUSH2 0x2A0D JUMPI PUSH1 0x0 DUP2 DUP2 PUSH2 0x2A04 SWAP2 SWAP1 PUSH2 0x2A11 JUMP JUMPDEST POP PUSH1 0x1 ADD PUSH2 0x29EE JUMP JUMPDEST POP SWAP1 JUMP JUMPDEST POP DUP1 SLOAD PUSH2 0x2A1D SWAP1 PUSH2 0x395E JUMP JUMPDEST PUSH1 0x0 DUP3 SSTORE DUP1 PUSH1 0x1F LT PUSH2 0x2A2F JUMPI POP PUSH2 0x2A4E JUMP JUMPDEST PUSH1 0x1F ADD PUSH1 0x20 SWAP1 DIV SWAP1 PUSH1 0x0 MSTORE PUSH1 0x20 PUSH1 0x0 KECCAK256 SWAP1 DUP2 ADD SWAP1 PUSH2 0x2A4D SWAP2 SWAP1 PUSH2 0x2A51 JUMP JUMPDEST JUMPDEST POP JUMP JUMPDEST JUMPDEST DUP1 DUP3 GT ISZERO PUSH2 0x2A6A JUMPI PUSH1 0x0 DUP2 PUSH1 0x0 SWAP1 SSTORE POP PUSH1 0x1 ADD PUSH2 0x2A52 JUMP JUMPDEST POP SWAP1 JUMP JUMPDEST PUSH1 0x0 PUSH1 0x40 MLOAD SWAP1 POP SWAP1 JUMP JUMPDEST PUSH1 0x0 DUP1 REVERT JUMPDEST PUSH1 0x0 DUP1 REVERT JUMPDEST PUSH1 0x0 PUSH20 0xFFFFFFFFFFFFFFFFFFFFFFFFFFFFFFFFFFFFFFFF DUP3 AND SWAP1 POP SWAP2 SWAP1 POP JUMP JUMPDEST PUSH1 0x0 PUSH2 0x2AAD DUP3 PUSH2 0x2A82 JUMP JUMPDEST SWAP1 POP SWAP2 SWAP1 POP JUMP JUMPDEST PUSH2 0x2ABD DUP2 PUSH2 0x2AA2 JUMP JUMPDEST DUP2 EQ PUSH2 0x2AC8 JUMPI PUSH1 0x0 DUP1 REVERT JUMPDEST POP JUMP JUMPDEST PUSH1 0x0 DUP2 CALLDATALOAD SWAP1 POP PUSH2 0x2ADA DUP2 PUSH2 0x2AB4 JUMP JUMPDEST SWAP3 SWAP2 POP POP JUMP JUMPDEST PUSH1 0x0 PUSH1 0x20 DUP3 DUP5 SUB SLT ISZERO PUSH2 0x2AF6 JUMPI PUSH2 0x2AF5 PUSH2 0x2A78 JUMP JUMPDEST JUMPDEST PUSH1 0x0 PUSH2 0x2B04 DUP5 DUP3 DUP6 ADD PUSH2 0x2ACB JUMP JUMPDEST SWAP2 POP POP SWAP3 SWAP2 POP POP JUMP JUMPDEST PUSH1 0x0 DUP2 MLOAD SWAP1 POP SWAP2 SWAP1 POP JUMP JUMPDEST PUSH1 0x0 DUP3 DUP3 MSTORE PUSH1 0x20 DUP3 ADD SWAP1 POP SWAP3 SWAP2 POP POP JUMP JUMPDEST PUSH1 0x0 DUP2 SWAP1 POP PUSH1 0x20 DUP3 ADD SWAP1 POP SWAP2 SWAP1 POP JUMP JUMPDEST PUSH2 0x2B42 DUP2 PUSH2 0x2AA2 JUMP JUMPDEST DUP3 MSTORE POP POP JUMP JUMPDEST PUSH1 0x0 DUP2 MLOAD SWAP1 POP SWAP2 SWAP1 POP JUMP JUMPDEST PUSH1 0x0 DUP3 DUP3 MSTORE PUSH1 0x20 DUP3 ADD SWAP1 POP SWAP3 SWAP2 POP POP JUMP JUMPDEST PUSH1 0x0 JUMPDEST DUP4 DUP2 LT ISZERO PUSH2 0x2B82 JUMPI DUP1 DUP3 ADD MLOAD DUP2 DUP5 ADD MSTORE PUSH1 0x20 DUP2 ADD SWAP1 POP PUSH2 0x2B67 JUMP JUMPDEST PUSH1 0x0 DUP5 DUP5 ADD MSTORE POP POP POP POP JUMP JUMPDEST PUSH1 0x0 PUSH1 0x1F NOT PUSH1 0x1F DUP4 ADD AND SWAP1 POP SWAP2 SWAP1 POP JUMP JUMPDEST PUSH1 0x0 PUSH2 0x2BAA DUP3 PUSH2 0x2B48 JUMP JUMPDEST PUSH2 0x2BB4 DUP2 DUP6 PUSH2 0x2B53 JUMP JUMPDEST SWAP4 POP PUSH2 0x2BC4 DUP2 DUP6 PUSH1 0x20 DUP7 ADD PUSH2 0x2B64 JUMP JUMPDEST PUSH2 0x2BCD DUP2 PUSH2 0x2B8E JUMP JUMPDEST DUP5 ADD SWAP2 POP POP SWAP3 SWAP2 POP POP JUMP JUMPDEST PUSH32 0x4E487B7100000000000000000000000000000000000000000000000000000000 PUSH1 0x0 MSTORE PUSH1 0x21 PUSH1 0x4 MSTORE PUSH1 0x24 PUSH1 0x0 REVERT JUMPDEST PUSH1 0x4 DUP2 LT PUSH2 0x2C18 JUMPI PUSH2 0x2C17 PUSH2 0x2BD8 JUMP JUMPDEST JUMPDEST POP JUMP JUMPDEST PUSH1 0x0 DUP2 SWAP1 POP PUSH2 0x2C29 DUP3 PUSH2 0x2C07 JUMP JUMPDEST SWAP2 SWAP1 POP JUMP JUMPDEST PUSH1 0x0 PUSH2 0x2C39 DUP3 PUSH2 0x2C1B JUMP JUMPDEST SWAP1 POP SWAP2 SWAP1 POP JUMP JUMPDEST PUSH2 0x2C49 DUP2 PUSH2 0x2C2E JUMP JUMPDEST DUP3 MSTORE POP POP JUMP JUMPDEST PUSH1 0x0 DUP2 MLOAD SWAP1 POP SWAP2 SWAP1 POP JUMP JUMPDEST PUSH1 0x0 DUP3 DUP3 MSTORE PUSH1 0x20 DUP3 ADD SWAP1 POP SWAP3 SWAP2 POP POP JUMP JUMPDEST PUSH1 0x0 DUP2 SWAP1 POP PUSH1 0x20 DUP3 ADD SWAP1 POP SWAP2 SWAP1 POP JUMP JUMPDEST PUSH1 0x0 PUSH2 0x2C87 DUP4 DUP4 PUSH2 0x2B9F JUMP JUMPDEST SWAP1 POP SWAP3 SWAP2 POP POP JUMP JUMPDEST PUSH1 0x0 PUSH1 0x20 DUP3 ADD SWAP1 POP SWAP2 SWAP1 POP JUMP JUMPDEST PUSH1 0x0 PUSH2 0x2CA7 DUP3 PUSH2 0x2C4F JUMP JUMPDEST PUSH2 0x2CB1 DUP2 DUP6 PUSH2 0x2C5A JUMP JUMPDEST SWAP4 POP DUP4 PUSH1 0x20 DUP3 MUL DUP6 ADD PUSH2 0x2CC3 DUP6 PUSH2 0x2C6B JUMP JUMPDEST DUP1 PUSH1 0x0 JUMPDEST DUP6 DUP2 LT ISZERO PUSH2 0x2CFF JUMPI DUP5 DUP5 SUB DUP10 MSTORE DUP2 MLOAD PUSH2 0x2CE0 DUP6 DUP3 PUSH2 0x2C7B JUMP JUMPDEST SWAP5 POP PUSH2 0x2CEB DUP4 PUSH2 0x2C8F JUMP JUMPDEST SWAP3 POP PUSH1 0x20 DUP11 ADD SWAP10 POP POP PUSH1 0x1 DUP2 ADD SWAP1 POP PUSH2 0x2CC7 JUMP JUMPDEST POP DUP3 SWAP8 POP DUP8 SWAP6 POP POP POP POP POP POP SWAP3 SWAP2 POP POP JUMP JUMPDEST PUSH1 0x0 DUP2 ISZERO ISZERO SWAP1 POP SWAP2 SWAP1 POP JUMP JUMPDEST PUSH2 0x2D26 DUP2 PUSH2 0x2D11 JUMP JUMPDEST DUP3 MSTORE POP POP JUMP JUMPDEST PUSH1 0x2 DUP2 LT PUSH2 0x2D3D JUMPI PUSH2 0x2D3C PUSH2 0x2BD8 JUMP JUMPDEST JUMPDEST POP JUMP JUMPDEST PUSH1 0x0 DUP2 SWAP1 POP PUSH2 0x2D4E DUP3 PUSH2 0x2D2C JUMP JUMPDEST SWAP2 SWAP1 POP JUMP JUMPDEST PUSH1 0x0 PUSH2 0x2D5E DUP3 PUSH2 0x2D40 JUMP JUMPDEST SWAP1 POP SWAP2 SWAP1 POP JUMP JUMPDEST PUSH2 0x2D6E DUP2 PUSH2 0x2D53 JUMP JUMPDEST DUP3 MSTORE POP POP JUMP JUMPDEST PUSH1 0x2 DUP2 LT PUSH2 0x2D85 JUMPI PUSH2 0x2D84 PUSH2 0x2BD8 JUMP JUMPDEST JUMPDEST POP JUMP JUMPDEST PUSH1 0x0 DUP2 SWAP1 POP PUSH2 0x2D96 DUP3 PUSH2 0x2D74 JUMP JUMPDEST SWAP2 SWAP1 POP JUMP JUMPDEST PUSH1 0x0 PUSH2 0x2DA6 DUP3 PUSH2 0x2D88 JUMP JUMPDEST SWAP1 POP SWAP2 SWAP1 POP JUMP JUMPDEST PUSH2 0x2DB6 DUP2 PUSH2 0x2D9B JUMP JUMPDEST DUP3 MSTORE POP POP JUMP JUMPDEST PUSH1 0x2 DUP2 LT PUSH2 0x2DCD JUMPI PUSH2 0x2DCC PUSH2 0x2BD8 JUMP JUMPDEST JUMPDEST POP JUMP JUMPDEST PUSH1 0x0 DUP2 SWAP1 POP PUSH2 0x2DDE DUP3 PUSH2 0x2DBC JUMP JUMPDEST SWAP2 SWAP1 POP JUMP JUMPDEST PUSH1 0x0 PUSH2 0x2DEE DUP3 PUSH2 0x2DD0 JUMP JUMPDEST SWAP1 POP SWAP2 SWAP1 POP JUMP JUMPDEST PUSH2 0x2DFE DUP2 PUSH2 0x2DE3 JUMP JUMPDEST DUP3 MSTORE POP POP JUMP JUMPDEST PUSH1 0x0 DUP2 SWAP1 POP SWAP2 SWAP1 POP JUMP JUMPDEST PUSH2 0x2E17 DUP2 PUSH2 0x2E04 JUMP JUMPDEST DUP3 MSTORE POP POP JUMP JUMPDEST PUSH1 0x0 PUSH2 0x1A0 DUP4 ADD PUSH1 0x0 DUP4 ADD MLOAD PUSH2 0x2E36 PUSH1 0x0 DUP7 ADD DUP3 PUSH2 0x2B39 JUMP JUMPDEST POP PUSH1 0x20 DUP4 ADD MLOAD DUP5 DUP3 SUB PUSH1 0x20 DUP7 ADD MSTORE PUSH2 0x2E4E DUP3 DUP3 PUSH2 0x2B9F JUMP JUMPDEST SWAP2 POP POP PUSH1 0x40 DUP4 ADD MLOAD PUSH2 0x2E63 PUSH1 0x40 DUP7 ADD DUP3 PUSH2 0x2C40 JUMP JUMPDEST POP PUSH1 0x60 DUP4 ADD MLOAD DUP5 DUP3 SUB PUSH1 0x60 DUP7 ADD MSTORE PUSH2 0x2E7B DUP3 DUP3 PUSH2 0x2C9C JUMP JUMPDEST SWAP2 POP POP PUSH1 0x80 DUP4 ADD MLOAD PUSH2 0x2E90 PUSH1 0x80 DUP7 ADD DUP3 PUSH2 0x2D1D JUMP JUMPDEST POP PUSH1 0xA0 DUP4 ADD MLOAD DUP5 DUP3 SUB PUSH1 0xA0 DUP7 ADD MSTORE PUSH2 0x2EA8 DUP3 DUP3 PUSH2 0x2B9F JUMP JUMPDEST SWAP2 POP POP PUSH1 0xC0 DUP4 ADD MLOAD PUSH2 0x2EBD PUSH1 0xC0 DUP7 ADD DUP3 PUSH2 0x2D65 JUMP JUMPDEST POP PUSH1 0xE0 DUP4 ADD MLOAD PUSH2 0x2ED0 PUSH1 0xE0 DUP7 ADD DUP3 PUSH2 0x2DAD JUMP JUMPDEST POP PUSH2 0x100 DUP4 ADD MLOAD PUSH2 0x2EE5 PUSH2 0x100 DUP7 ADD DUP3 PUSH2 0x2DF5 JUMP JUMPDEST POP PUSH2 0x120 DUP4 ADD MLOAD DUP5 DUP3 SUB PUSH2 0x120 DUP7 ADD MSTORE PUSH2 0x2EFF DUP3 DUP3 PUSH2 0x2C9C JUMP JUMPDEST SWAP2 POP POP PUSH2 0x140 DUP4 ADD MLOAD PUSH2 0x2F16 PUSH2 0x140 DUP7 ADD DUP3 PUSH2 0x2E0E JUMP JUMPDEST POP PUSH2 0x160 DUP4 ADD MLOAD DUP5 DUP3 SUB PUSH2 0x160 DUP7 ADD MSTORE PUSH2 0x2F30 DUP3 DUP3 PUSH2 0x2B9F JUMP JUMPDEST SWAP2 POP POP PUSH2 0x180 DUP4 ADD MLOAD PUSH2 0x2F47 PUSH2 0x180 DUP7 ADD DUP3 PUSH2 0x2E0E JUMP JUMPDEST POP DUP1 SWAP2 POP POP SWAP3 SWAP2 POP POP JUMP JUMPDEST PUSH1 0x0 PUSH2 0x2F5E DUP4 DUP4 PUSH2 0x2E1D JUMP JUMPDEST SWAP1 POP SWAP3 SWAP2 POP POP JUMP JUMPDEST PUSH1 0x0 PUSH1 0x20 DUP3 ADD SWAP1 POP SWAP2 SWAP1 POP JUMP JUMPDEST PUSH1 0x0 PUSH2 0x2F7E DUP3 PUSH2 0x2B0D JUMP JUMPDEST PUSH2 0x2F88 DUP2 DUP6 PUSH2 0x2B18 JUMP JUMPDEST SWAP4 POP DUP4 PUSH1 0x20 DUP3 MUL DUP6 ADD PUSH2 0x2F9A DUP6 PUSH2 0x2B29 JUMP JUMPDEST DUP1 PUSH1 0x0 JUMPDEST DUP6 DUP2 LT ISZERO PUSH2 0x2FD6 JUMPI DUP5 DUP5 SUB DUP10 MSTORE DUP2 MLOAD PUSH2 0x2FB7 DUP6 DUP3 PUSH2 0x2F52 JUMP JUMPDEST SWAP5 POP PUSH2 0x2FC2 DUP4 PUSH2 0x2F66 JUMP JUMPDEST SWAP3 POP PUSH1 0x20 DUP11 ADD SWAP10 POP POP PUSH1 0x1 DUP2 ADD SWAP1 POP PUSH2 0x2F9E JUMP JUMPDEST POP DUP3 SWAP8 POP DUP8 SWAP6 POP POP POP POP POP POP SWAP3 SWAP2 POP POP JUMP JUMPDEST PUSH1 0x0 PUSH1 0x20 DUP3 ADD SWAP1 POP DUP2 DUP2 SUB PUSH1 0x0 DUP4 ADD MSTORE PUSH2 0x3002 DUP2 DUP5 PUSH2 0x2F73 JUMP JUMPDEST SWAP1 POP SWAP3 SWAP2 POP POP JUMP JUMPDEST PUSH2 0x3013 DUP2 PUSH2 0x2E04 JUMP JUMPDEST DUP2 EQ PUSH2 0x301E JUMPI PUSH1 0x0 DUP1 REVERT JUMPDEST POP JUMP JUMPDEST PUSH1 0x0 DUP2 CALLDATALOAD SWAP1 POP PUSH2 0x3030 DUP2 PUSH2 0x300A JUMP JUMPDEST SWAP3 SWAP2 POP POP JUMP JUMPDEST PUSH1 0x0 DUP1 PUSH1 0x0 PUSH1 0x60 DUP5 DUP7 SUB SLT ISZERO PUSH2 0x304F JUMPI PUSH2 0x304E PUSH2 0x2A78 JUMP JUMPDEST JUMPDEST PUSH1 0x0 PUSH2 0x305D DUP7 DUP3 DUP8 ADD PUSH2 0x2ACB JUMP JUMPDEST SWAP4 POP POP PUSH1 0x20 PUSH2 0x306E DUP7 DUP3 DUP8 ADD PUSH2 0x2ACB JUMP JUMPDEST SWAP3 POP POP PUSH1 0x40 PUSH2 0x307F DUP7 DUP3 DUP8 ADD PUSH2 0x3021 JUMP JUMPDEST SWAP2 POP POP SWAP3 POP SWAP3 POP SWAP3 JUMP JUMPDEST PUSH1 0x6 DUP2 LT PUSH2 0x309A JUMPI PUSH2 0x3099 PUSH2 0x2BD8 JUMP JUMPDEST JUMPDEST POP JUMP JUMPDEST PUSH1 0x0 DUP2 SWAP1 POP PUSH2 0x30AB DUP3 PUSH2 0x3089 JUMP JUMPDEST SWAP2 SWAP1 POP JUMP JUMPDEST PUSH1 0x0 PUSH2 0x30BB DUP3 PUSH2 0x309D JUMP JUMPDEST SWAP1 POP SWAP2 SWAP1 POP JUMP JUMPDEST PUSH2 0x30CB DUP2 PUSH2 0x30B0 JUMP JUMPDEST DUP3 MSTORE POP POP JUMP JUMPDEST PUSH2 0x30DA DUP2 PUSH2 0x2E04 JUMP JUMPDEST DUP3 MSTORE POP POP JUMP JUMPDEST PUSH1 0x0 PUSH1 0x40 DUP3 ADD SWAP1 POP PUSH2 0x30F5 PUSH1 0x0 DUP4 ADD DUP6 PUSH2 0x30C2 JUMP JUMPDEST PUSH2 0x3102 PUSH1 0x20 DUP4 ADD DUP5 PUSH2 0x30D1 JUMP JUMPDEST SWAP4 SWAP3 POP POP POP JUMP JUMPDEST PUSH1 0x0 PUSH1 0x20 DUP3 DUP5 SUB SLT ISZERO PUSH2 0x311F JUMPI PUSH2 0x311E PUSH2 0x2A78 JUMP JUMPDEST JUMPDEST PUSH1 0x0 PUSH2 0x312D DUP5 DUP3 DUP6 ADD PUSH2 0x3021 JUMP JUMPDEST SWAP2 POP POP SWAP3 SWAP2 POP POP JUMP JUMPDEST PUSH1 0x0 DUP1 REVERT JUMPDEST PUSH1 0x0 DUP1 REVERT JUMPDEST PUSH32 0x4E487B7100000000000000000000000000000000000000000000000000000000 PUSH1 0x0 MSTORE PUSH1 0x41 PUSH1 0x4 MSTORE PUSH1 0x24 PUSH1 0x0 REVERT JUMPDEST PUSH2 0x3178 DUP3 PUSH2 0x2B8E JUMP JUMPDEST DUP2 ADD DUP2 DUP2 LT PUSH8 0xFFFFFFFFFFFFFFFF DUP3 GT OR ISZERO PUSH2 0x3197 JUMPI PUSH2 0x3196 PUSH2 0x3140 JUMP JUMPDEST JUMPDEST DUP1 PUSH1 0x40 MSTORE POP POP POP JUMP JUMPDEST PUSH1 0x0 PUSH2 0x31AA PUSH2 0x2A6E JUMP JUMPDEST SWAP1 POP PUSH2 0x31B6 DUP3 DUP3 PUSH2 0x316F JUMP JUMPDEST SWAP2 SWAP1 POP JUMP JUMPDEST PUSH1 0x0 PUSH8 0xFFFFFFFFFFFFFFFF DUP3 GT ISZERO PUSH2 0x31D6 JUMPI PUSH2 0x31D5 PUSH2 0x3140 JUMP JUMPDEST JUMPDEST PUSH2 0x31DF DUP3 PUSH2 0x2B8E JUMP JUMPDEST SWAP1 POP PUSH1 0x20 DUP2 ADD SWAP1 POP SWAP2 SWAP1 POP JUMP JUMPDEST DUP3 DUP2 DUP4 CALLDATACOPY PUSH1 0x0 DUP4 DUP4 ADD MSTORE POP POP POP JUMP JUMPDEST PUSH1 0x0 PUSH2 0x320E PUSH2 0x3209 DUP5 PUSH2 0x31BB JUMP JUMPDEST PUSH2 0x31A0 JUMP JUMPDEST SWAP1 POP DUP3 DUP2 MSTORE PUSH1 0x20 DUP2 ADD DUP5 DUP5 DUP5 ADD GT ISZERO PUSH2 0x322A JUMPI PUSH2 0x3229 PUSH2 0x313B JUMP JUMPDEST JUMPDEST PUSH2 0x3235 DUP5 DUP3 DUP6 PUSH2 0x31EC JUMP JUMPDEST POP SWAP4 SWAP3 POP POP POP JUMP JUMPDEST PUSH1 0x0 DUP3 PUSH1 0x1F DUP4 ADD SLT PUSH2 0x3252 JUMPI PUSH2 0x3251 PUSH2 0x3136 JUMP JUMPDEST JUMPDEST DUP2 CALLDATALOAD PUSH2 0x3262 DUP5 DUP3 PUSH1 0x20 DUP7 ADD PUSH2 0x31FB JUMP JUMPDEST SWAP2 POP POP SWAP3 SWAP2 POP POP JUMP JUMPDEST PUSH1 0x0 PUSH8 0xFFFFFFFFFFFFFFFF DUP3 GT ISZERO PUSH2 0x3286 JUMPI PUSH2 0x3285 PUSH2 0x3140 JUMP JUMPDEST JUMPDEST PUSH1 0x20 DUP3 MUL SWAP1 POP PUSH1 0x20 DUP2 ADD SWAP1 POP SWAP2 SWAP1 POP JUMP JUMPDEST PUSH1 0x0 DUP1 REVERT JUMPDEST PUSH1 0x0 PUSH2 0x32AF PUSH2 0x32AA DUP5 PUSH2 0x326B JUMP JUMPDEST PUSH2 0x31A0 JUMP JUMPDEST SWAP1 POP DUP1 DUP4 DUP3 MSTORE PUSH1 0x20 DUP3 ADD SWAP1 POP PUSH1 0x20 DUP5 MUL DUP4 ADD DUP6 DUP2 GT ISZERO PUSH2 0x32D2 JUMPI PUSH2 0x32D1 PUSH2 0x3297 JUMP JUMPDEST JUMPDEST DUP4 JUMPDEST DUP2 DUP2 LT ISZERO PUSH2 0x3319 JUMPI DUP1 CALLDATALOAD PUSH8 0xFFFFFFFFFFFFFFFF DUP2 GT ISZERO PUSH2 0x32F7 JUMPI PUSH2 0x32F6 PUSH2 0x3136 JUMP JUMPDEST JUMPDEST DUP1 DUP7 ADD PUSH2 0x3304 DUP10 DUP3 PUSH2 0x323D JUMP JUMPDEST DUP6 MSTORE PUSH1 0x20 DUP6 ADD SWAP5 POP POP POP PUSH1 0x20 DUP2 ADD SWAP1 POP PUSH2 0x32D4 JUMP JUMPDEST POP POP POP SWAP4 SWAP3 POP POP POP JUMP JUMPDEST PUSH1 0x0 DUP3 PUSH1 0x1F DUP4 ADD SLT PUSH2 0x3338 JUMPI PUSH2 0x3337 PUSH2 0x3136 JUMP JUMPDEST JUMPDEST DUP2 CALLDATALOAD PUSH2 0x3348 DUP5 DUP3 PUSH1 0x20 DUP7 ADD PUSH2 0x329C JUMP JUMPDEST SWAP2 POP POP SWAP3 SWAP2 POP POP JUMP JUMPDEST PUSH1 0x0 DUP1 PUSH1 0x0 DUP1 PUSH1 0x0 DUP1 PUSH1 0x0 DUP1 PUSH1 0x0 DUP1 PUSH2 0x140 DUP12 DUP14 SUB SLT ISZERO PUSH2 0x3375 JUMPI PUSH2 0x3374 PUSH2 0x2A78 JUMP JUMPDEST JUMPDEST PUSH1 0x0 DUP12 ADD CALLDATALOAD PUSH8 0xFFFFFFFFFFFFFFFF DUP2 GT ISZERO PUSH2 0x3393 JUMPI PUSH2 0x3392 PUSH2 0x2A7D JUMP JUMPDEST JUMPDEST PUSH2 0x339F DUP14 DUP3 DUP15 ADD PUSH2 0x323D JUMP JUMPDEST SWAP11 POP POP PUSH1 0x20 PUSH2 0x33B0 DUP14 DUP3 DUP15 ADD PUSH2 0x3021 JUMP JUMPDEST SWAP10 POP POP PUSH1 0x40 DUP12 ADD CALLDATALOAD PUSH8 0xFFFFFFFFFFFFFFFF DUP2 GT ISZERO PUSH2 0x33D1 JUMPI PUSH2 0x33D0 PUSH2 0x2A7D JUMP JUMPDEST JUMPDEST PUSH2 0x33DD DUP14 DUP3 DUP15 ADD PUSH2 0x3323 JUMP JUMPDEST SWAP9 POP POP PUSH1 0x60 DUP12 ADD CALLDATALOAD PUSH8 0xFFFFFFFFFFFFFFFF DUP2 GT ISZERO PUSH2 0x33FE JUMPI PUSH2 0x33FD PUSH2 0x2A7D JUMP JUMPDEST JUMPDEST PUSH2 0x340A DUP14 DUP3 DUP15 ADD PUSH2 0x323D JUMP JUMPDEST SWAP8 POP POP PUSH1 0x80 PUSH2 0x341B DUP14 DUP3 DUP15 ADD PUSH2 0x3021 JUMP JUMPDEST SWAP7 POP POP PUSH1 0xA0 PUSH2 0x342C DUP14 DUP3 DUP15 ADD PUSH2 0x3021 JUMP JUMPDEST SWAP6 POP POP PUSH1 0xC0 PUSH2 0x343D DUP14 DUP3 DUP15 ADD PUSH2 0x3021 JUMP JUMPDEST SWAP5 POP POP PUSH1 0xE0 DUP12 ADD CALLDATALOAD PUSH8 0xFFFFFFFFFFFFFFFF DUP2 GT ISZERO PUSH2 0x345E JUMPI PUSH2 0x345D PUSH2 0x2A7D JUMP JUMPDEST JUMPDEST PUSH2 0x346A DUP14 DUP3 DUP15 ADD PUSH2 0x3323 JUMP JUMPDEST SWAP4 POP POP PUSH2 0x100 PUSH2 0x347C DUP14 DUP3 DUP15 ADD PUSH2 0x3021 JUMP JUMPDEST SWAP3 POP POP PUSH2 0x120 DUP12 ADD CALLDATALOAD PUSH8 0xFFFFFFFFFFFFFFFF DUP2 GT ISZERO PUSH2 0x349E JUMPI PUSH2 0x349D PUSH2 0x2A7D JUMP JUMPDEST JUMPDEST PUSH2 0x34AA DUP14 DUP3 DUP15 ADD PUSH2 0x323D JUMP JUMPDEST SWAP2 POP POP SWAP3 SWAP6 SWAP9 SWAP12 SWAP2 SWAP5 SWAP8 SWAP11 POP SWAP3 SWAP6 SWAP9 POP JUMP JUMPDEST PUSH1 0x0 DUP1 PUSH1 0x40 DUP4 DUP6 SUB SLT ISZERO PUSH2 0x34D3 JUMPI PUSH2 0x34D2 PUSH2 0x2A78 JUMP JUMPDEST JUMPDEST PUSH1 0x0 PUSH2 0x34E1 DUP6 DUP3 DUP7 ADD PUSH2 0x2ACB JUMP JUMPDEST SWAP3 POP POP PUSH1 0x20 PUSH2 0x34F2 DUP6 DUP3 DUP7 ADD PUSH2 0x3021 JUMP JUMPDEST SWAP2 POP POP SWAP3 POP SWAP3 SWAP1 POP JUMP JUMPDEST PUSH1 0x0 PUSH2 0x1A0 DUP4 ADD PUSH1 0x0 DUP4 ADD MLOAD PUSH2 0x3515 PUSH1 0x0 DUP7 ADD DUP3 PUSH2 0x2B39 JUMP JUMPDEST POP PUSH1 0x20 DUP4 ADD MLOAD DUP5 DUP3 SUB PUSH1 0x20 DUP7 ADD MSTORE PUSH2 0x352D DUP3 DUP3 PUSH2 0x2B9F JUMP JUMPDEST SWAP2 POP POP PUSH1 0x40 DUP4 ADD MLOAD PUSH2 0x3542 PUSH1 0x40 DUP7 ADD DUP3 PUSH2 0x2C40 JUMP JUMPDEST POP PUSH1 0x60 DUP4 ADD MLOAD DUP5 DUP3 SUB PUSH1 0x60 DUP7 ADD MSTORE PUSH2 0x355A DUP3 DUP3 PUSH2 0x2C9C JUMP JUMPDEST SWAP2 POP POP PUSH1 0x80 DUP4 ADD MLOAD PUSH2 0x356F PUSH1 0x80 DUP7 ADD DUP3 PUSH2 0x2D1D JUMP JUMPDEST POP PUSH1 0xA0 DUP4 ADD MLOAD DUP5 DUP3 SUB PUSH1 0xA0 DUP7 ADD MSTORE PUSH2 0x3587 DUP3 DUP3 PUSH2 0x2B9F JUMP JUMPDEST SWAP2 POP POP PUSH1 0xC0 DUP4 ADD MLOAD PUSH2 0x359C PUSH1 0xC0 DUP7 ADD DUP3 PUSH2 0x2D65 JUMP JUMPDEST POP PUSH1 0xE0 DUP4 ADD MLOAD PUSH2 0x35AF PUSH1 0xE0 DUP7 ADD DUP3 PUSH2 0x2DAD JUMP JUMPDEST POP PUSH2 0x100 DUP4 ADD MLOAD PUSH2 0x35C4 PUSH2 0x100 DUP7 ADD DUP3 PUSH2 0x2DF5 JUMP JUMPDEST POP PUSH2 0x120 DUP4 ADD MLOAD DUP5 DUP3 SUB PUSH2 0x120 DUP7 ADD MSTORE PUSH2 0x35DE DUP3 DUP3 PUSH2 0x2C9C JUMP JUMPDEST SWAP2 POP POP PUSH2 0x140 DUP4 ADD MLOAD PUSH2 0x35F5 PUSH2 0x140 DUP7 ADD DUP3 PUSH2 0x2E0E JUMP JUMPDEST POP PUSH2 0x160 DUP4 ADD MLOAD DUP5 DUP3 SUB PUSH2 0x160 DUP7 ADD MSTORE PUSH2 0x360F DUP3 DUP3 PUSH2 0x2B9F JUMP JUMPDEST SWAP2 POP POP PUSH2 0x180 DUP4 ADD MLOAD PUSH2 0x3626 PUSH2 0x180 DUP7 ADD DUP3 PUSH2 0x2E0E JUMP JUMPDEST POP DUP1 SWAP2 POP POP SWAP3 SWAP2 POP POP JUMP JUMPDEST PUSH1 0x0 PUSH1 0x20 DUP3 ADD SWAP1 POP DUP2 DUP2 SUB PUSH1 0x0 DUP4 ADD MSTORE PUSH2 0x364B DUP2 DUP5 PUSH2 0x34FC JUMP JUMPDEST SWAP1 POP SWAP3 SWAP2 POP POP JUMP JUMPDEST PUSH1 0x0 DUP1 PUSH1 0x0 PUSH1 0x60 DUP5 DUP7 SUB SLT ISZERO PUSH2 0x366C JUMPI PUSH2 0x366B PUSH2 0x2A78 JUMP JUMPDEST JUMPDEST PUSH1 0x0 PUSH2 0x367A DUP7 DUP3 DUP8 ADD PUSH2 0x3021 JUMP JUMPDEST SWAP4 POP POP PUSH1 0x20 PUSH2 0x368B DUP7 DUP3 DUP8 ADD PUSH2 0x3021 JUMP JUMPDEST SWAP3 POP POP PUSH1 0x40 PUSH2 0x369C DUP7 DUP3 DUP8 ADD PUSH2 0x2ACB JUMP JUMPDEST SWAP2 POP POP SWAP3 POP SWAP3 POP SWAP3 JUMP JUMPDEST PUSH2 0x36AF DUP2 PUSH2 0x30B0 JUMP JUMPDEST DUP3 MSTORE POP POP JUMP JUMPDEST PUSH1 0x60 DUP3 ADD PUSH1 0x0 DUP3 ADD MLOAD PUSH2 0x36CB PUSH1 0x0 DUP6 ADD DUP3 PUSH2 0x2B39 JUMP JUMPDEST POP PUSH1 0x20 DUP3 ADD MLOAD PUSH2 0x36DE PUSH1 0x20 DUP6 ADD DUP3 PUSH2 0x2B39 JUMP JUMPDEST POP PUSH1 0x40 DUP3 ADD MLOAD PUSH2 0x36F1 PUSH1 0x40 DUP6 ADD DUP3 PUSH2 0x36A6 JUMP JUMPDEST POP POP POP POP JUMP JUMPDEST PUSH1 0x0 PUSH1 0x60 DUP3 ADD SWAP1 POP PUSH2 0x370C PUSH1 0x0 DUP4 ADD DUP5 PUSH2 0x36B5 JUMP JUMPDEST SWAP3 SWAP2 POP POP JUMP JUMPDEST PUSH1 0x0 DUP2 MLOAD SWAP1 POP SWAP2 SWAP1 POP JUMP JUMPDEST PUSH1 0x0 DUP3 DUP3 MSTORE PUSH1 0x20 DUP3 ADD SWAP1 POP SWAP3 SWAP2 POP POP JUMP JUMPDEST PUSH1 0x0 DUP2 SWAP1 POP PUSH1 0x20 DUP3 ADD SWAP1 POP SWAP2 SWAP1 POP JUMP JUMPDEST PUSH1 0x60 DUP3 ADD PUSH1 0x0 DUP3 ADD MLOAD PUSH2 0x3754 PUSH1 0x0 DUP6 ADD DUP3 PUSH2 0x2B39 JUMP JUMPDEST POP PUSH1 0x20 DUP3 ADD MLOAD PUSH2 0x3767 PUSH1 0x20 DUP6 ADD DUP3 PUSH2 0x2B39 JUMP JUMPDEST POP PUSH1 0x40 DUP3 ADD MLOAD PUSH2 0x377A PUSH1 0x40 DUP6 ADD DUP3 PUSH2 0x36A6 JUMP JUMPDEST POP POP POP POP JUMP JUMPDEST PUSH1 0x0 PUSH2 0x378C DUP4 DUP4 PUSH2 0x373E JUMP JUMPDEST PUSH1 0x60 DUP4 ADD SWAP1 POP SWAP3 SWAP2 POP POP JUMP JUMPDEST PUSH1 0x0 PUSH1 0x20 DUP3 ADD SWAP1 POP SWAP2 SWAP1 POP JUMP JUMPDEST PUSH1 0x0 PUSH2 0x37B0 DUP3 PUSH2 0x3712 JUMP JUMPDEST PUSH2 0x37BA DUP2 DUP6 PUSH2 0x371D JUMP JUMPDEST SWAP4 POP PUSH2 0x37C5 DUP4 PUSH2 0x372E JUMP JUMPDEST DUP1 PUSH1 0x0 JUMPDEST DUP4 DUP2 LT ISZERO PUSH2 0x37F6 JUMPI DUP2 MLOAD PUSH2 0x37DD DUP9 DUP3 PUSH2 0x3780 JUMP JUMPDEST SWAP8 POP PUSH2 0x37E8 DUP4 PUSH2 0x3798 JUMP JUMPDEST SWAP3 POP POP PUSH1 0x1 DUP2 ADD SWAP1 POP PUSH2 0x37C9 JUMP JUMPDEST POP DUP6 SWAP4 POP POP POP POP SWAP3 SWAP2 POP POP JUMP JUMPDEST PUSH1 0x0 PUSH1 0x20 DUP3 ADD SWAP1 POP DUP2 DUP2 SUB PUSH1 0x0 DUP4 ADD MSTORE PUSH2 0x381D DUP2 DUP5 PUSH2 0x37A5 JUMP JUMPDEST SWAP1 POP SWAP3 SWAP2 POP POP JUMP JUMPDEST PUSH1 0x0 DUP3 DUP3 MSTORE PUSH1 0x20 DUP3 ADD SWAP1 POP SWAP3 SWAP2 POP POP JUMP JUMPDEST PUSH1 0x0 PUSH2 0x3841 DUP3 PUSH2 0x2B48 JUMP JUMPDEST PUSH2 0x384B DUP2 DUP6 PUSH2 0x3825 JUMP JUMPDEST SWAP4 POP PUSH2 0x385B DUP2 DUP6 PUSH1 0x20 DUP7 ADD PUSH2 0x2B64 JUMP JUMPDEST PUSH2 0x3864 DUP2 PUSH2 0x2B8E JUMP JUMPDEST DUP5 ADD SWAP2 POP POP SWAP3 SWAP2 POP POP JUMP JUMPDEST PUSH1 0x0 PUSH1 0x20 DUP3 ADD SWAP1 POP DUP2 DUP2 SUB PUSH1 0x0 DUP4 ADD MSTORE PUSH2 0x3889 DUP2 DUP5 PUSH2 0x3836 JUMP JUMPDEST SWAP1 POP SWAP3 SWAP2 POP POP JUMP JUMPDEST PUSH1 0x0 DUP1 PUSH1 0x0 PUSH1 0x60 DUP5 DUP7 SUB SLT ISZERO PUSH2 0x38AA JUMPI PUSH2 0x38A9 PUSH2 0x2A78 JUMP JUMPDEST JUMPDEST PUSH1 0x0 PUSH2 0x38B8 DUP7 DUP3 DUP8 ADD PUSH2 0x3021 JUMP JUMPDEST SWAP4 POP POP PUSH1 0x20 PUSH2 0x38C9 DUP7 DUP3 DUP8 ADD PUSH2 0x3021 JUMP JUMPDEST SWAP3 POP POP PUSH1 0x40 DUP5 ADD CALLDATALOAD PUSH8 0xFFFFFFFFFFFFFFFF DUP2 GT ISZERO PUSH2 0x38EA JUMPI PUSH2 0x38E9 PUSH2 0x2A7D JUMP JUMPDEST JUMPDEST PUSH2 0x38F6 DUP7 DUP3 DUP8 ADD PUSH2 0x323D JUMP JUMPDEST SWAP2 POP POP SWAP3 POP SWAP3 POP SWAP3 JUMP JUMPDEST PUSH32 0x4E487B7100000000000000000000000000000000000000000000000000000000 PUSH1 0x0 MSTORE PUSH1 0x32 PUSH1 0x4 MSTORE PUSH1 0x24 PUSH1 0x0 REVERT JUMPDEST PUSH32 0x4E487B7100000000000000000000000000000000000000000000000000000000 PUSH1 0x0 MSTORE PUSH1 0x22 PUSH1 0x4 MSTORE PUSH1 0x24 PUSH1 0x0 REVERT JUMPDEST PUSH1 0x0 PUSH1 0x2 DUP3 DIV SWAP1 POP PUSH1 0x1 DUP3 AND DUP1 PUSH2 0x3976 JUMPI PUSH1 0x7F DUP3 AND SWAP2 POP JUMPDEST PUSH1 0x20 DUP3 LT DUP2 SUB PUSH2 0x3989 JUMPI PUSH2 0x3988 PUSH2 0x392F JUMP JUMPDEST JUMPDEST POP SWAP2 SWAP1 POP JUMP JUMPDEST PUSH32 0x4E487B7100000000000000000000000000000000000000000000000000000000 PUSH1 0x0 MSTORE PUSH1 0x11 PUSH1 0x4 MSTORE PUSH1 0x24 PUSH1 0x0 REVERT JUMPDEST PUSH1 0x0 PUSH2 0x39C9 DUP3 PUSH2 0x2E04 JUMP JUMPDEST SWAP2 POP PUSH32 0xFFFFFFFFFFFFFFFFFFFFFFFFFFFFFFFFFFFFFFFFFFFFFFFFFFFFFFFFFFFFFFFF DUP3 SUB PUSH2 0x39FB JUMPI PUSH2 0x39FA PUSH2 0x398F JUMP JUMPDEST JUMPDEST PUSH1 0x1 DUP3 ADD SWAP1 POP SWAP2 SWAP1 POP JUMP JUMPDEST PUSH32 0x436F6D70616E792061646472657373206973206E6F742076616C696400000000 PUSH1 0x0 DUP3 ADD MSTORE POP JUMP JUMPDEST PUSH1 0x0 PUSH2 0x3A3C PUSH1 0x1C DUP4 PUSH2 0x3825 JUMP JUMPDEST SWAP2 POP PUSH2 0x3A47 DUP3 PUSH2 0x3A06 JUMP JUMPDEST PUSH1 0x20 DUP3 ADD SWAP1 POP SWAP2 SWAP1 POP JUMP JUMPDEST PUSH1 0x0 PUSH1 0x20 DUP3 ADD SWAP1 POP DUP2 DUP2 SUB PUSH1 0x0 DUP4 ADD MSTORE PUSH2 0x3A6B DUP2 PUSH2 0x3A2F JUMP JUMPDEST SWAP1 POP SWAP2 SWAP1 POP JUMP JUMPDEST PUSH32 0x596F7520646F6E2774206861766520616E206163636573730000000000000000 PUSH1 0x0 DUP3 ADD MSTORE POP JUMP JUMPDEST PUSH1 0x0 PUSH2 0x3AA8 PUSH1 0x18 DUP4 PUSH2 0x3825 JUMP JUMPDEST SWAP2 POP PUSH2 0x3AB3 DUP3 PUSH2 0x3A72 JUMP JUMPDEST PUSH1 0x20 DUP3 ADD SWAP1 POP SWAP2 SWAP1 POP JUMP JUMPDEST PUSH1 0x0 PUSH1 0x20 DUP3 ADD SWAP1 POP DUP2 DUP2 SUB PUSH1 0x0 DUP4 ADD MSTORE PUSH2 0x3AD7 DUP2 PUSH2 0x3A9B JUMP JUMPDEST SWAP1 POP SWAP2 SWAP1 POP JUMP JUMPDEST PUSH32 0x4A6F6220697320616C726561647920636C6F7365000000000000000000000000 PUSH1 0x0 DUP3 ADD MSTORE POP JUMP JUMPDEST PUSH1 0x0 PUSH2 0x3B14 PUSH1 0x14 DUP4 PUSH2 0x3825 JUMP JUMPDEST SWAP2 POP PUSH2 0x3B1F DUP3 PUSH2 0x3ADE JUMP JUMPDEST PUSH1 0x20 DUP3 ADD SWAP1 POP SWAP2 SWAP1 POP JUMP JUMPDEST PUSH1 0x0 PUSH1 0x20 DUP3 ADD SWAP1 POP DUP2 DUP2 SUB PUSH1 0x0 DUP4 ADD MSTORE PUSH2 0x3B43 DUP2 PUSH2 0x3B07 JUMP JUMPDEST SWAP1 POP SWAP2 SWAP1 POP JUMP JUMPDEST PUSH2 0x3B53 DUP2 PUSH2 0x2AA2 JUMP JUMPDEST DUP3 MSTORE POP POP JUMP JUMPDEST PUSH2 0x3B62 DUP2 PUSH2 0x2D11 JUMP JUMPDEST DUP3 MSTORE POP POP JUMP JUMPDEST PUSH1 0x0 PUSH1 0x40 DUP3 ADD SWAP1 POP PUSH2 0x3B7D PUSH1 0x0 DUP4 ADD DUP6 PUSH2 0x3B4A JUMP JUMPDEST PUSH2 0x3B8A PUSH1 0x20 DUP4 ADD DUP5 PUSH2 0x3B59 JUMP JUMPDEST SWAP4 SWAP3 POP POP POP JUMP JUMPDEST PUSH1 0x0 PUSH1 0x20 DUP3 ADD SWAP1 POP PUSH2 0x3BA6 PUSH1 0x0 DUP4 ADD DUP5 PUSH2 0x3B4A JUMP JUMPDEST SWAP3 SWAP2 POP POP JUMP JUMPDEST PUSH1 0x0 DUP1 REVERT JUMPDEST PUSH1 0x0 DUP1 REVERT JUMPDEST PUSH1 0x0 DUP2 MLOAD SWAP1 POP PUSH2 0x3BC5 DUP2 PUSH2 0x2AB4 JUMP JUMPDEST SWAP3 SWAP2 POP POP JUMP JUMPDEST PUSH1 0x0 PUSH2 0x3BDE PUSH2 0x3BD9 DUP5 PUSH2 0x31BB JUMP JUMPDEST PUSH2 0x31A0 JUMP JUMPDEST SWAP1 POP DUP3 DUP2 MSTORE PUSH1 0x20 DUP2 ADD DUP5 DUP5 DUP5 ADD GT ISZERO PUSH2 0x3BFA JUMPI PUSH2 0x3BF9 PUSH2 0x313B JUMP JUMPDEST JUMPDEST PUSH2 0x3C05 DUP5 DUP3 DUP6 PUSH2 0x2B64 JUMP JUMPDEST POP SWAP4 SWAP3 POP POP POP JUMP JUMPDEST PUSH1 0x0 DUP3 PUSH1 0x1F DUP4 ADD SLT PUSH2 0x3C22 JUMPI PUSH2 0x3C21 PUSH2 0x3136 JUMP JUMPDEST JUMPDEST DUP2 MLOAD PUSH2 0x3C32 DUP5 DUP3 PUSH1 0x20 DUP7 ADD PUSH2 0x3BCB JUMP JUMPDEST SWAP2 POP POP SWAP3 SWAP2 POP POP JUMP JUMPDEST PUSH1 0x0 DUP2 MLOAD SWAP1 POP PUSH2 0x3C4A DUP2 PUSH2 0x300A JUMP JUMPDEST SWAP3 SWAP2 POP POP JUMP JUMPDEST PUSH1 0x0 PUSH2 0x3C63 PUSH2 0x3C5E DUP5 PUSH2 0x326B JUMP JUMPDEST PUSH2 0x31A0 JUMP JUMPDEST SWAP1 POP DUP1 DUP4 DUP3 MSTORE PUSH1 0x20 DUP3 ADD SWAP1 POP PUSH1 0x20 DUP5 MUL DUP4 ADD DUP6 DUP2 GT ISZERO PUSH2 0x3C86 JUMPI PUSH2 0x3C85 PUSH2 0x3297 JUMP JUMPDEST JUMPDEST DUP4 JUMPDEST DUP2 DUP2 LT ISZERO PUSH2 0x3CCD JUMPI DUP1 MLOAD PUSH8 0xFFFFFFFFFFFFFFFF DUP2 GT ISZERO PUSH2 0x3CAB JUMPI PUSH2 0x3CAA PUSH2 0x3136 JUMP JUMPDEST JUMPDEST DUP1 DUP7 ADD PUSH2 0x3CB8 DUP10 DUP3 PUSH2 0x3C0D JUMP JUMPDEST DUP6 MSTORE PUSH1 0x20 DUP6 ADD SWAP5 POP POP POP PUSH1 0x20 DUP2 ADD SWAP1 POP PUSH2 0x3C88 JUMP JUMPDEST POP POP POP SWAP4 SWAP3 POP POP POP JUMP JUMPDEST PUSH1 0x0 DUP3 PUSH1 0x1F DUP4 ADD SLT PUSH2 0x3CEC JUMPI PUSH2 0x3CEB PUSH2 0x3136 JUMP JUMPDEST JUMPDEST DUP2 MLOAD PUSH2 0x3CFC DUP5 DUP3 PUSH1 0x20 DUP7 ADD PUSH2 0x3C50 JUMP JUMPDEST SWAP2 POP POP SWAP3 SWAP2 POP POP JUMP JUMPDEST PUSH1 0x0 PUSH2 0x100 DUP3 DUP5 SUB SLT ISZERO PUSH2 0x3D1C JUMPI PUSH2 0x3D1B PUSH2 0x3BAC JUMP JUMPDEST JUMPDEST PUSH2 0x3D27 PUSH2 0x100 PUSH2 0x31A0 JUMP JUMPDEST SWAP1 POP PUSH1 0x0 PUSH2 0x3D37 DUP5 DUP3 DUP6 ADD PUSH2 0x3BB6 JUMP JUMPDEST PUSH1 0x0 DUP4 ADD MSTORE POP PUSH1 0x20 DUP3 ADD MLOAD PUSH8 0xFFFFFFFFFFFFFFFF DUP2 GT ISZERO PUSH2 0x3D5B JUMPI PUSH2 0x3D5A PUSH2 0x3BB1 JUMP JUMPDEST JUMPDEST PUSH2 0x3D67 DUP5 DUP3 DUP6 ADD PUSH2 0x3C0D JUMP JUMPDEST PUSH1 0x20 DUP4 ADD MSTORE POP PUSH1 0x40 PUSH2 0x3D7B DUP5 DUP3 DUP6 ADD PUSH2 0x3C3B JUMP JUMPDEST PUSH1 0x40 DUP4 ADD MSTORE POP PUSH1 0x60 DUP3 ADD MLOAD PUSH8 0xFFFFFFFFFFFFFFFF DUP2 GT ISZERO PUSH2 0x3D9F JUMPI PUSH2 0x3D9E PUSH2 0x3BB1 JUMP JUMPDEST JUMPDEST PUSH2 0x3DAB DUP5 DUP3 DUP6 ADD PUSH2 0x3C0D JUMP JUMPDEST PUSH1 0x60 DUP4 ADD MSTORE POP PUSH1 0x80 DUP3 ADD MLOAD PUSH8 0xFFFFFFFFFFFFFFFF DUP2 GT ISZERO PUSH2 0x3DCF JUMPI PUSH2 0x3DCE PUSH2 0x3BB1 JUMP JUMPDEST JUMPDEST PUSH2 0x3DDB DUP5 DUP3 DUP6 ADD PUSH2 0x3C0D JUMP JUMPDEST PUSH1 0x80 DUP4 ADD MSTORE POP PUSH1 0xA0 DUP3 ADD MLOAD PUSH8 0xFFFFFFFFFFFFFFFF DUP2 GT ISZERO PUSH2 0x3DFF JUMPI PUSH2 0x3DFE PUSH2 0x3BB1 JUMP JUMPDEST JUMPDEST PUSH2 0x3E0B DUP5 DUP3 DUP6 ADD PUSH2 0x3CD7 JUMP JUMPDEST PUSH1 0xA0 DUP4 ADD MSTORE POP PUSH1 0xC0 PUSH2 0x3E1F DUP5 DUP3 DUP6 ADD PUSH2 0x3C3B JUMP JUMPDEST PUSH1 0xC0 DUP4 ADD MSTORE POP PUSH1 0xE0 DUP3 ADD MLOAD PUSH8 0xFFFFFFFFFFFFFFFF DUP2 GT ISZERO PUSH2 0x3E43 JUMPI PUSH2 0x3E42 PUSH2 0x3BB1 JUMP JUMPDEST JUMPDEST PUSH2 0x3E4F DUP5 DUP3 DUP6 ADD PUSH2 0x3C0D JUMP JUMPDEST PUSH1 0xE0 DUP4 ADD MSTORE POP SWAP3 SWAP2 POP POP JUMP JUMPDEST PUSH1 0x0 PUSH1 0x20 DUP3 DUP5 SUB SLT ISZERO PUSH2 0x3E71 JUMPI PUSH2 0x3E70 PUSH2 0x2A78 JUMP JUMPDEST JUMPDEST PUSH1 0x0 DUP3 ADD MLOAD PUSH8 0xFFFFFFFFFFFFFFFF DUP2 GT ISZERO PUSH2 0x3E8F JUMPI PUSH2 0x3E8E PUSH2 0x2A7D JUMP JUMPDEST JUMPDEST PUSH2 0x3E9B DUP5 DUP3 DUP6 ADD PUSH2 0x3D05 JUMP JUMPDEST SWAP2 POP POP SWAP3 SWAP2 POP POP JUMP JUMPDEST PUSH32 0x596F7520646F6E277420686176652061636365737320746F20706F7374206120 PUSH1 0x0 DUP3 ADD MSTORE PUSH32 0x6A6F62206F6E207468697320636F6D70616E7900000000000000000000000000 PUSH1 0x20 DUP3 ADD MSTORE POP JUMP JUMPDEST PUSH1 0x0 PUSH2 0x3F00 PUSH1 0x33 DUP4 PUSH2 0x3825 JUMP JUMPDEST SWAP2 POP PUSH2 0x3F0B DUP3 PUSH2 0x3EA4 JUMP JUMPDEST PUSH1 0x40 DUP3 ADD SWAP1 POP SWAP2 SWAP1 POP JUMP JUMPDEST PUSH1 0x0 PUSH1 0x20 DUP3 ADD SWAP1 POP DUP2 DUP2 SUB PUSH1 0x0 DUP4 ADD MSTORE PUSH2 0x3F2F DUP2 PUSH2 0x3EF3 JUMP JUMPDEST SWAP1 POP SWAP2 SWAP1 POP JUMP JUMPDEST PUSH1 0x0 DUP2 SWAP1 POP DUP2 PUSH1 0x0 MSTORE PUSH1 0x20 PUSH1 0x0 KECCAK256 SWAP1 POP SWAP2 SWAP1 POP JUMP JUMPDEST PUSH1 0x0 PUSH1 0x20 PUSH1 0x1F DUP4 ADD DIV SWAP1 POP SWAP2 SWAP1 POP JUMP JUMPDEST PUSH1 0x0 DUP3 DUP3 SHL SWAP1 POP SWAP3 SWAP2 POP POP JUMP JUMPDEST PUSH1 0x0 PUSH1 0x8 DUP4 MUL PUSH2 0x3F98 PUSH32 0xFFFFFFFFFFFFFFFFFFFFFFFFFFFFFFFFFFFFFFFFFFFFFFFFFFFFFFFFFFFFFFFF DUP3 PUSH2 0x3F5B JUMP JUMPDEST PUSH2 0x3FA2 DUP7 DUP4 PUSH2 0x3F5B JUMP JUMPDEST SWAP6 POP DUP1 NOT DUP5 AND SWAP4 POP DUP1 DUP7 AND DUP5 OR SWAP3 POP POP POP SWAP4 SWAP3 POP POP POP JUMP JUMPDEST PUSH1 0x0 DUP2 SWAP1 POP SWAP2 SWAP1 POP JUMP JUMPDEST PUSH1 0x0 PUSH2 0x3FDF PUSH2 0x3FDA PUSH2 0x3FD5 DUP5 PUSH2 0x2E04 JUMP JUMPDEST PUSH2 0x3FBA JUMP JUMPDEST PUSH2 0x2E04 JUMP JUMPDEST SWAP1 POP SWAP2 SWAP1 POP JUMP JUMPDEST PUSH1 0x0 DUP2 SWAP1 POP SWAP2 SWAP1 POP JUMP JUMPDEST PUSH2 0x3FF9 DUP4 PUSH2 0x3FC4 JUMP JUMPDEST PUSH2 0x400D PUSH2 0x4005 DUP3 PUSH2 0x3FE6 JUMP JUMPDEST DUP5 DUP5 SLOAD PUSH2 0x3F68 JUMP JUMPDEST DUP3 SSTORE POP POP POP POP JUMP JUMPDEST PUSH1 0x0 SWAP1 JUMP JUMPDEST PUSH2 0x4022 PUSH2 0x4015 JUMP JUMPDEST PUSH2 0x402D DUP2 DUP5 DUP5 PUSH2 0x3FF0 JUMP JUMPDEST POP POP POP JUMP JUMPDEST JUMPDEST DUP2 DUP2 LT ISZERO PUSH2 0x4051 JUMPI PUSH2 0x4046 PUSH1 0x0 DUP3 PUSH2 0x401A JUMP JUMPDEST PUSH1 0x1 DUP2 ADD SWAP1 POP PUSH2 0x4033 JUMP JUMPDEST POP POP JUMP JUMPDEST PUSH1 0x1F DUP3 GT ISZERO PUSH2 0x4096 JUMPI PUSH2 0x4067 DUP2 PUSH2 0x3F36 JUMP JUMPDEST PUSH2 0x4070 DUP5 PUSH2 0x3F4B JUMP JUMPDEST DUP2 ADD PUSH1 0x20 DUP6 LT ISZERO PUSH2 0x407F JUMPI DUP2 SWAP1 POP JUMPDEST PUSH2 0x4093 PUSH2 0x408B DUP6 PUSH2 0x3F4B JUMP JUMPDEST DUP4 ADD DUP3 PUSH2 0x4032 JUMP JUMPDEST POP POP JUMPDEST POP POP POP JUMP JUMPDEST PUSH1 0x0 DUP3 DUP3 SHR SWAP1 POP SWAP3 SWAP2 POP POP JUMP JUMPDEST PUSH1 0x0 PUSH2 0x40B9 PUSH1 0x0 NOT DUP5 PUSH1 0x8 MUL PUSH2 0x409B JUMP JUMPDEST NOT DUP1 DUP4 AND SWAP2 POP POP SWAP3 SWAP2 POP POP JUMP JUMPDEST PUSH1 0x0 PUSH2 0x40D2 DUP4 DUP4 PUSH2 0x40A8 JUMP JUMPDEST SWAP2 POP DUP3 PUSH1 0x2 MUL DUP3 OR SWAP1 POP SWAP3 SWAP2 POP POP JUMP JUMPDEST PUSH2 0x40EB DUP3 PUSH2 0x2B48 JUMP JUMPDEST PUSH8 0xFFFFFFFFFFFFFFFF DUP2 GT ISZERO PUSH2 0x4104 JUMPI PUSH2 0x4103 PUSH2 0x3140 JUMP JUMPDEST JUMPDEST PUSH2 0x410E DUP3 SLOAD PUSH2 0x395E JUMP JUMPDEST PUSH2 0x4119 DUP3 DUP3 DUP6 PUSH2 0x4055 JUMP JUMPDEST PUSH1 0x0 PUSH1 0x20 SWAP1 POP PUSH1 0x1F DUP4 GT PUSH1 0x1 DUP2 EQ PUSH2 0x414C JUMPI PUSH1 0x0 DUP5 ISZERO PUSH2 0x413A JUMPI DUP3 DUP8 ADD MLOAD SWAP1 POP JUMPDEST PUSH2 0x4144 DUP6 DUP3 PUSH2 0x40C6 JUMP JUMPDEST DUP7 SSTORE POP PUSH2 0x41AC JUMP JUMPDEST PUSH1 0x1F NOT DUP5 AND PUSH2 0x415A DUP7 PUSH2 0x3F36 JUMP JUMPDEST PUSH1 0x0 JUMPDEST DUP3 DUP2 LT ISZERO PUSH2 0x4182 JUMPI DUP5 DUP10 ADD MLOAD DUP3 SSTORE PUSH1 0x1 DUP3 ADD SWAP2 POP PUSH1 0x20 DUP6 ADD SWAP5 POP PUSH1 0x20 DUP2 ADD SWAP1 POP PUSH2 0x415D JUMP JUMPDEST DUP7 DUP4 LT ISZERO PUSH2 0x419F JUMPI DUP5 DUP10 ADD MLOAD PUSH2 0x419B PUSH1 0x1F DUP10 AND DUP3 PUSH2 0x40A8 JUMP JUMPDEST DUP4 SSTORE POP JUMPDEST PUSH1 0x1 PUSH1 0x2 DUP9 MUL ADD DUP9 SSTORE POP POP POP JUMPDEST POP POP POP POP POP POP JUMP JUMPDEST PUSH2 0x41BD DUP2 PUSH2 0x2C2E JUMP JUMPDEST DUP3 MSTORE POP POP JUMP JUMPDEST PUSH1 0x0 DUP3 DUP3 MSTORE PUSH1 0x20 DUP3 ADD SWAP1 POP SWAP3 SWAP2 POP POP JUMP JUMPDEST PUSH1 0x0 PUSH2 0x41DF DUP3 PUSH2 0x2C4F JUMP JUMPDEST PUSH2 0x41E9 DUP2 DUP6 PUSH2 0x41C3 JUMP JUMPDEST SWAP4 POP DUP4 PUSH1 0x20 DUP3 MUL DUP6 ADD PUSH2 0x41FB DUP6 PUSH2 0x2C6B JUMP JUMPDEST DUP1 PUSH1 0x0 JUMPDEST DUP6 DUP2 LT ISZERO PUSH2 0x4237 JUMPI DUP5 DUP5 SUB DUP10 MSTORE DUP2 MLOAD PUSH2 0x4218 DUP6 DUP3 PUSH2 0x2C7B JUMP JUMPDEST SWAP5 POP PUSH2 0x4223 DUP4 PUSH2 0x2C8F JUMP JUMPDEST SWAP3 POP PUSH1 0x20 DUP11 ADD SWAP10 POP POP PUSH1 0x1 DUP2 ADD SWAP1 POP PUSH2 0x41FF JUMP JUMPDEST POP DUP3 SWAP8 POP DUP8 SWAP6 POP POP POP POP POP POP SWAP3 SWAP2 POP POP JUMP JUMPDEST PUSH1 0x0 PUSH1 0x80 DUP3 ADD SWAP1 POP PUSH2 0x425E PUSH1 0x0 DUP4 ADD DUP8 PUSH2 0x3B4A JUMP JUMPDEST DUP2 DUP2 SUB PUSH1 0x20 DUP4 ADD MSTORE PUSH2 0x4270 DUP2 DUP7 PUSH2 0x3836 JUMP JUMPDEST SWAP1 POP PUSH2 0x427F PUSH1 0x40 DUP4 ADD DUP6 PUSH2 0x41B4 JUMP JUMPDEST DUP2 DUP2 SUB PUSH1 0x60 DUP4 ADD MSTORE PUSH2 0x4291 DUP2 DUP5 PUSH2 0x41D4 JUMP JUMPDEST SWAP1 POP SWAP6 SWAP5 POP POP POP POP POP JUMP JUMPDEST PUSH32 0x416C6C20766163616E63792066756C6C6669656C640000000000000000000000 PUSH1 0x0 DUP3 ADD MSTORE POP JUMP JUMPDEST PUSH1 0x0 PUSH2 0x42D2 PUSH1 0x15 DUP4 PUSH2 0x3825 JUMP JUMPDEST SWAP2 POP PUSH2 0x42DD DUP3 PUSH2 0x429C JUMP JUMPDEST PUSH1 0x20 DUP3 ADD SWAP1 POP SWAP2 SWAP1 POP JUMP JUMPDEST PUSH1 0x0 PUSH1 0x20 DUP3 ADD SWAP1 POP DUP2 DUP2 SUB PUSH1 0x0 DUP4 ADD MSTORE PUSH2 0x4301 DUP2 PUSH2 0x42C5 JUMP JUMPDEST SWAP1 POP SWAP2 SWAP1 POP JUMP JUMPDEST PUSH32 0x496E76616C696420737461747573000000000000000000000000000000000000 PUSH1 0x0 DUP3 ADD MSTORE POP JUMP JUMPDEST PUSH1 0x0 PUSH2 0x433E PUSH1 0xE DUP4 PUSH2 0x3825 JUMP JUMPDEST SWAP2 POP PUSH2 0x4349 DUP3 PUSH2 0x4308 JUMP JUMPDEST PUSH1 0x20 DUP3 ADD SWAP1 POP SWAP2 SWAP1 POP JUMP JUMPDEST PUSH1 0x0 PUSH1 0x20 DUP3 ADD SWAP1 POP DUP2 DUP2 SUB PUSH1 0x0 DUP4 ADD MSTORE PUSH2 0x436D DUP2 PUSH2 0x4331 JUMP JUMPDEST SWAP1 POP SWAP2 SWAP1 POP JUMP JUMPDEST PUSH32 0x5468697320757365722069732073656C65637465640000000000000000000000 PUSH1 0x0 DUP3 ADD MSTORE POP JUMP JUMPDEST PUSH1 0x0 PUSH2 0x43AA PUSH1 0x15 DUP4 PUSH2 0x3825 JUMP JUMPDEST SWAP2 POP PUSH2 0x43B5 DUP3 PUSH2 0x4374 JUMP JUMPDEST PUSH1 0x20 DUP3 ADD SWAP1 POP SWAP2 SWAP1 POP JUMP JUMPDEST PUSH1 0x0 PUSH1 0x20 DUP3 ADD SWAP1 POP DUP2 DUP2 SUB PUSH1 0x0 DUP4 ADD MSTORE PUSH2 0x43D9 DUP2 PUSH2 0x439D JUMP JUMPDEST SWAP1 POP SWAP2 SWAP1 POP JUMP JUMPDEST PUSH32 0x5468697320757365722069732072656A65637465640000000000000000000000 PUSH1 0x0 DUP3 ADD MSTORE POP JUMP JUMPDEST PUSH1 0x0 PUSH2 0x4416 PUSH1 0x15 DUP4 PUSH2 0x3825 JUMP JUMPDEST SWAP2 POP PUSH2 0x4421 DUP3 PUSH2 0x43E0 JUMP JUMPDEST PUSH1 0x20 DUP3 ADD SWAP1 POP SWAP2 SWAP1 POP JUMP JUMPDEST PUSH1 0x0 PUSH1 0x20 DUP3 ADD SWAP1 POP DUP2 DUP2 SUB PUSH1 0x0 DUP4 ADD MSTORE PUSH2 0x4445 DUP2 PUSH2 0x4409 JUMP JUMPDEST SWAP1 POP SWAP2 SWAP1 POP JUMP JUMPDEST PUSH1 0x0 PUSH2 0x4457 DUP3 PUSH2 0x2E04 JUMP JUMPDEST SWAP2 POP PUSH2 0x4462 DUP4 PUSH2 0x2E04 JUMP JUMPDEST SWAP3 POP DUP3 DUP3 SUB SWAP1 POP DUP2 DUP2 GT ISZERO PUSH2 0x447A JUMPI PUSH2 0x4479 PUSH2 0x398F JUMP JUMPDEST JUMPDEST SWAP3 SWAP2 POP POP JUMP JUMPDEST PUSH32 0x5269676874206E6F77206170706C69636174696F6E2063616E6E6F7420626520 PUSH1 0x0 DUP3 ADD MSTORE PUSH32 0x6368616E676520746F20676976656E2073746174757300000000000000000000 PUSH1 0x20 DUP3 ADD MSTORE POP JUMP JUMPDEST PUSH1 0x0 PUSH2 0x44DC PUSH1 0x36 DUP4 PUSH2 0x3825 JUMP JUMPDEST SWAP2 POP PUSH2 0x44E7 DUP3 PUSH2 0x4480 JUMP JUMPDEST PUSH1 0x40 DUP3 ADD SWAP1 POP SWAP2 SWAP1 POP JUMP JUMPDEST PUSH1 0x0 PUSH1 0x20 DUP3 ADD SWAP1 POP DUP2 DUP2 SUB PUSH1 0x0 DUP4 ADD MSTORE PUSH2 0x450B DUP2 PUSH2 0x44CF JUMP JUMPDEST SWAP1 POP SWAP2 SWAP1 POP JUMP JUMPDEST PUSH1 0x0 PUSH2 0x451D DUP3 PUSH2 0x2E04 JUMP JUMPDEST SWAP2 POP PUSH1 0x0 DUP3 SUB PUSH2 0x4530 JUMPI PUSH2 0x452F PUSH2 0x398F JUMP JUMPDEST JUMPDEST PUSH1 0x1 DUP3 SUB SWAP1 POP SWAP2 SWAP1 POP JUMP JUMPDEST PUSH1 0x0 PUSH1 0x60 DUP3 ADD SWAP1 POP PUSH2 0x4550 PUSH1 0x0 DUP4 ADD DUP7 PUSH2 0x30D1 JUMP JUMPDEST PUSH2 0x455D PUSH1 0x20 DUP4 ADD DUP6 PUSH2 0x30D1 JUMP JUMPDEST PUSH2 0x456A PUSH1 0x40 DUP4 ADD DUP5 PUSH2 0x3B4A JUMP JUMPDEST SWAP5 SWAP4 POP POP POP POP JUMP JUMPDEST PUSH32 0x436F6D70616E792041646472657373204E6F74204D6174636865640000000000 PUSH1 0x0 DUP3 ADD MSTORE POP JUMP JUMPDEST PUSH1 0x0 PUSH2 0x45A8 PUSH1 0x1B DUP4 PUSH2 0x3825 JUMP JUMPDEST SWAP2 POP PUSH2 0x45B3 DUP3 PUSH2 0x4572 JUMP JUMPDEST PUSH1 0x20 DUP3 ADD SWAP1 POP SWAP2 SWAP1 POP JUMP JUMPDEST PUSH1 0x0 PUSH1 0x20 DUP3 ADD SWAP1 POP DUP2 DUP2 SUB PUSH1 0x0 DUP4 ADD MSTORE PUSH2 0x45D7 DUP2 PUSH2 0x459B JUMP JUMPDEST SWAP1 POP SWAP2 SWAP1 POP JUMP JUMPDEST PUSH1 0x0 DUP2 SWAP1 POP SWAP3 SWAP2 POP POP JUMP JUMPDEST PUSH1 0x0 DUP2 SWAP1 POP DUP2 PUSH1 0x0 MSTORE PUSH1 0x20 PUSH1 0x0 KECCAK256 SWAP1 POP SWAP2 SWAP1 POP JUMP JUMPDEST PUSH1 0x0 DUP2 SLOAD PUSH2 0x460B DUP2 PUSH2 0x395E JUMP JUMPDEST PUSH2 0x4615 DUP2 DUP7 PUSH2 0x45DE JUMP JUMPDEST SWAP5 POP PUSH1 0x1 DUP3 AND PUSH1 0x0 DUP2 EQ PUSH2 0x4630 JUMPI PUSH1 0x1 DUP2 EQ PUSH2 0x4645 JUMPI PUSH2 0x4678 JUMP JUMPDEST PUSH1 0xFF NOT DUP4 AND DUP7 MSTORE DUP2 ISZERO ISZERO DUP3 MUL DUP7 ADD SWAP4 POP PUSH2 0x4678 JUMP JUMPDEST PUSH2 0x464E DUP6 PUSH2 0x45E9 JUMP JUMPDEST PUSH1 0x0 JUMPDEST DUP4 DUP2 LT ISZERO PUSH2 0x4670 JUMPI DUP2 SLOAD DUP2 DUP10 ADD MSTORE PUSH1 0x1 DUP3 ADD SWAP2 POP PUSH1 0x20 DUP2 ADD SWAP1 POP PUSH2 0x4651 JUMP JUMPDEST DUP4 DUP9 ADD SWAP6 POP POP POP JUMPDEST POP POP POP SWAP3 SWAP2 POP POP JUMP JUMPDEST PUSH1 0x0 PUSH2 0x468D DUP3 DUP5 PUSH2 0x45FE JUMP JUMPDEST SWAP2 POP DUP2 SWAP1 POP SWAP3 SWAP2 POP POP JUMP JUMPDEST PUSH32 0x596F7520617265206E6F742073656C6563746564207965742E00000000000000 PUSH1 0x0 DUP3 ADD MSTORE POP JUMP JUMPDEST PUSH1 0x0 PUSH2 0x46CE PUSH1 0x19 DUP4 PUSH2 0x3825 JUMP JUMPDEST SWAP2 POP PUSH2 0x46D9 DUP3 PUSH2 0x4698 JUMP JUMPDEST PUSH1 0x20 DUP3 ADD SWAP1 POP SWAP2 SWAP1 POP JUMP JUMPDEST PUSH1 0x0 PUSH1 0x20 DUP3 ADD SWAP1 POP DUP2 DUP2 SUB PUSH1 0x0 DUP4 ADD MSTORE PUSH2 0x46FD DUP2 PUSH2 0x46C1 JUMP JUMPDEST SWAP1 POP SWAP2 SWAP1 POP JUMP JUMPDEST PUSH32 0x546869732075736572206973206E6F742073656C656374656400000000000000 PUSH1 0x0 DUP3 ADD MSTORE POP JUMP JUMPDEST PUSH1 0x0 PUSH2 0x473A PUSH1 0x19 DUP4 PUSH2 0x3825 JUMP JUMPDEST SWAP2 POP PUSH2 0x4745 DUP3 PUSH2 0x4704 JUMP JUMPDEST PUSH1 0x20 DUP3 ADD SWAP1 POP SWAP2 SWAP1 POP JUMP JUMPDEST PUSH1 0x0 PUSH1 0x20 DUP3 ADD SWAP1 POP DUP2 DUP2 SUB PUSH1 0x0 DUP4 ADD MSTORE PUSH2 0x4769 DUP2 PUSH2 0x472D JUMP JUMPDEST SWAP1 POP SWAP2 SWAP1 POP JUMP JUMPDEST PUSH32 0x4F66666572206C6574746572207761732070726F766964656400000000000000 PUSH1 0x0 DUP3 ADD MSTORE POP JUMP JUMPDEST PUSH1 0x0 PUSH2 0x47A6 PUSH1 0x19 DUP4 PUSH2 0x3825 JUMP JUMPDEST SWAP2 POP PUSH2 0x47B1 DUP3 PUSH2 0x4770 JUMP JUMPDEST PUSH1 0x20 DUP3 ADD SWAP1 POP SWAP2 SWAP1 POP JUMP JUMPDEST PUSH1 0x0 PUSH1 0x20 DUP3 ADD SWAP1 POP DUP2 DUP2 SUB PUSH1 0x0 DUP4 ADD MSTORE PUSH2 0x47D5 DUP2 PUSH2 0x4799 JUMP JUMPDEST SWAP1 POP SWAP2 SWAP1 POP JUMP JUMPDEST PUSH1 0x0 PUSH1 0x80 DUP3 ADD SWAP1 POP PUSH2 0x47F1 PUSH1 0x0 DUP4 ADD DUP8 PUSH2 0x3B4A JUMP JUMPDEST PUSH2 0x47FE PUSH1 0x20 DUP4 ADD DUP7 PUSH2 0x3B4A JUMP JUMPDEST DUP2 DUP2 SUB PUSH1 0x40 DUP4 ADD MSTORE PUSH2 0x4810 DUP2 DUP6 PUSH2 0x3836 JUMP JUMPDEST SWAP1 POP PUSH2 0x481F PUSH1 0x60 DUP4 ADD DUP5 PUSH2 0x30D1 JUMP JUMPDEST SWAP6 SWAP5 POP POP POP POP POP JUMP JUMPDEST PUSH32 0x596F752063616E6E6F74206170706C7920696E20796F7572206F776E20636F6D PUSH1 0x0 DUP3 ADD MSTORE PUSH32 0x70616E7900000000000000000000000000000000000000000000000000000000 PUSH1 0x20 DUP3 ADD MSTORE POP JUMP JUMPDEST PUSH1 0x0 PUSH2 0x4884 PUSH1 0x24 DUP4 PUSH2 0x3825 JUMP JUMPDEST SWAP2 POP PUSH2 0x488F DUP3 PUSH2 0x4828 JUMP JUMPDEST PUSH1 0x40 DUP3 ADD SWAP1 POP SWAP2 SWAP1 POP JUMP JUMPDEST PUSH1 0x0 PUSH1 0x20 DUP3 ADD SWAP1 POP DUP2 DUP2 SUB PUSH1 0x0 DUP4 ADD MSTORE PUSH2 0x48B3 DUP2 PUSH2 0x4877 JUMP JUMPDEST SWAP1 POP SWAP2 SWAP1 POP JUMP JUMPDEST PUSH32 0x4A6F6220697320636C6F73656400000000000000000000000000000000000000 PUSH1 0x0 DUP3 ADD MSTORE POP JUMP JUMPDEST PUSH1 0x0 PUSH2 0x48F0 PUSH1 0xD DUP4 PUSH2 0x3825 JUMP JUMPDEST SWAP2 POP PUSH2 0x48FB DUP3 PUSH2 0x48BA JUMP JUMPDEST PUSH1 0x20 DUP3 ADD SWAP1 POP SWAP2 SWAP1 POP JUMP JUMPDEST PUSH1 0x0 PUSH1 0x20 DUP3 ADD SWAP1 POP DUP2 DUP2 SUB PUSH1 0x0 DUP4 ADD MSTORE PUSH2 0x491F DUP2 PUSH2 0x48E3 JUMP JUMPDEST SWAP1 POP SWAP2 SWAP1 POP JUMP JUMPDEST PUSH32 0x596F7520616C7265616479206170706C79656420666F722074686973206A6F62 PUSH1 0x0 DUP3 ADD MSTORE PUSH32 0x2E00000000000000000000000000000000000000000000000000000000000000 PUSH1 0x20 DUP3 ADD MSTORE POP JUMP JUMPDEST PUSH1 0x0 PUSH2 0x4982 PUSH1 0x21 DUP4 PUSH2 0x3825 JUMP JUMPDEST SWAP2 POP PUSH2 0x498D DUP3 PUSH2 0x4926 JUMP JUMPDEST PUSH1 0x40 DUP3 ADD SWAP1 POP SWAP2 SWAP1 POP JUMP JUMPDEST PUSH1 0x0 PUSH1 0x20 DUP3 ADD SWAP1 POP DUP2 DUP2 SUB PUSH1 0x0 DUP4 ADD MSTORE PUSH2 0x49B1 DUP2 PUSH2 0x4975 JUMP JUMPDEST SWAP1 POP SWAP2 SWAP1 POP JUMP JUMPDEST PUSH1 0x0 PUSH1 0x60 DUP3 ADD SWAP1 POP PUSH2 0x49CD PUSH1 0x0 DUP4 ADD DUP7 PUSH2 0x3B4A JUMP JUMPDEST PUSH2 0x49DA PUSH1 0x20 DUP4 ADD DUP6 PUSH2 0x3B4A JUMP JUMPDEST PUSH2 0x49E7 PUSH1 0x40 DUP4 ADD DUP5 PUSH2 0x30D1 JUMP JUMPDEST SWAP5 SWAP4 POP POP POP POP JUMP INVALID LOG2 PUSH5 0x6970667358 0x22 SLT KECCAK256 0xDE PUSH10 0xE4FE65A24FDE1FC85D1E LOG1 0xAC 0xF7 REVERT 0xB1 0x5F 0x5E 0xE3 NOT 0xB9 GASPRICE PUSH26 0x452530DA52E2069864736F6C6343000812003300000000000000 "
		},
		"gasEstimates": {
			"creation": {
				"codeDepositCost": "3796200",
				"executionCost": "infinite",
				"totalCost": "infinite"
			},
			"external": {
				"applicationStatus(uint256,uint256,address)": "infinite",
				"applyNow(address,address,uint256)": "infinite",
				"closeJob(uint256)": "33117",
				"generateOfferLetter(uint256,uint256,string)": "infinite",
				"getAllApplicationsByJobId(uint256)": "infinite",
				"getAllJobs(address)": "infinite",
				"getApplicationByJobId(address,address,uint256)": "infinite",
				"getApplicationStatus(address,address,uint256)": "infinite",
				"getJobById(address,uint256)": "infinite",
				"getOfferLetter(uint256)": "infinite",
				"postJob(string,uint256,string[],string,uint256,uint256,uint256,string[],uint256,string)": "infinite"
			}
		},
		"methodIdentifiers": {
			"applicationStatus(uint256,uint256,address)": "745d4130",
			"applyNow(address,address,uint256)": "ec6d2b0e",
			"closeJob(uint256)": "1e01abca",
			"generateOfferLetter(uint256,uint256,string)": "e7e25d17",
			"getAllApplicationsByJobId(uint256)": "afbe627b",
			"getAllJobs(address)": "0dec01ea",
			"getApplicationByJobId(address,address,uint256)": "87648187",
			"getApplicationStatus(address,address,uint256)": "15ef38e7",
			"getJobById(address,uint256)": "69afcab1",
			"getOfferLetter(uint256)": "b8054bc1",
			"postJob(string,uint256,string[],string,uint256,uint256,uint256,string[],uint256,string)": "647caa7b"
		}
	},
	"abi": [
		{
			"inputs": [
				{
					"internalType": "contract Controller",
					"name": "controllerAddress",
					"type": "address"
				}
			],
			"stateMutability": "nonpayable",
			"type": "constructor"
		},
		{
			"anonymous": false,
			"inputs": [
				{
					"indexed": false,
					"internalType": "uint256",
					"name": "status",
					"type": "uint256"
				},
				{
					"indexed": false,
					"internalType": "uint256",
					"name": "jobId",
					"type": "uint256"
				},
				{
					"indexed": false,
					"internalType": "address",
					"name": "applier",
					"type": "address"
				}
			],
			"name": "ApplicationStatus",
			"type": "event"
		},
		{
			"anonymous": false,
			"inputs": [
				{
					"indexed": false,
					"internalType": "address",
					"name": "applier",
					"type": "address"
				},
				{
					"indexed": false,
					"internalType": "address",
					"name": "companyAddress",
					"type": "address"
				},
				{
					"indexed": false,
					"internalType": "uint256",
					"name": "jobId",
					"type": "uint256"
				}
			],
			"name": "ApplyNow",
			"type": "event"
		},
		{
			"anonymous": false,
			"inputs": [
				{
					"indexed": false,
					"internalType": "address",
					"name": "companyAddress",
					"type": "address"
				},
				{
					"indexed": false,
					"internalType": "bool",
					"name": "isOpen",
					"type": "bool"
				}
			],
			"name": "CloseJob",
			"type": "event"
		},
		{
			"anonymous": false,
			"inputs": [
				{
					"indexed": false,
					"internalType": "address",
					"name": "applier",
					"type": "address"
				},
				{
					"indexed": false,
					"internalType": "address",
					"name": "companyAddress",
					"type": "address"
				},
				{
					"indexed": false,
					"internalType": "string",
					"name": "url",
					"type": "string"
				},
				{
					"indexed": false,
					"internalType": "uint256",
					"name": "jobId",
					"type": "uint256"
				}
			],
			"name": "GenerateOfferLetter",
			"type": "event"
		},
		{
			"anonymous": false,
			"inputs": [
				{
					"indexed": false,
					"internalType": "address",
					"name": "companyAddress",
					"type": "address"
				},
				{
					"indexed": false,
					"internalType": "string",
					"name": "title",
					"type": "string"
				},
				{
					"indexed": false,
					"internalType": "enum JobHandler.Experience",
					"name": "experience",
					"type": "uint8"
				},
				{
					"indexed": false,
					"internalType": "string[]",
					"name": "technologies",
					"type": "string[]"
				}
			],
			"name": "PostJob",
			"type": "event"
		},
		{
			"inputs": [
				{
					"internalType": "uint256",
					"name": "status",
					"type": "uint256"
				},
				{
					"internalType": "uint256",
					"name": "jobId",
					"type": "uint256"
				},
				{
					"internalType": "address",
					"name": "applier",
					"type": "address"
				}
			],
			"name": "applicationStatus",
			"outputs": [],
			"stateMutability": "nonpayable",
			"type": "function"
		},
		{
			"inputs": [
				{
					"internalType": "address",
					"name": "applier",
					"type": "address"
				},
				{
					"internalType": "address",
					"name": "companyAddress",
					"type": "address"
				},
				{
					"internalType": "uint256",
					"name": "jobId",
					"type": "uint256"
				}
			],
			"name": "applyNow",
			"outputs": [],
			"stateMutability": "nonpayable",
			"type": "function"
		},
		{
			"inputs": [
				{
					"internalType": "uint256",
					"name": "jobId",
					"type": "uint256"
				}
			],
			"name": "closeJob",
			"outputs": [],
			"stateMutability": "nonpayable",
			"type": "function"
		},
		{
			"inputs": [
				{
					"internalType": "uint256",
					"name": "jobId",
					"type": "uint256"
				},
				{
					"internalType": "uint256",
					"name": "_index",
					"type": "uint256"
				},
				{
					"internalType": "string",
					"name": "url",
					"type": "string"
				}
			],
			"name": "generateOfferLetter",
			"outputs": [],
			"stateMutability": "nonpayable",
			"type": "function"
		},
		{
			"inputs": [
				{
					"internalType": "uint256",
					"name": "jobId",
					"type": "uint256"
				}
			],
			"name": "getAllApplicationsByJobId",
			"outputs": [
				{
					"components": [
						{
							"internalType": "address",
							"name": "applierAddress",
							"type": "address"
						},
						{
							"internalType": "address",
							"name": "companyAddress",
							"type": "address"
						},
						{
							"internalType": "enum JobHandler.Status",
							"name": "status",
							"type": "uint8"
						}
					],
					"internalType": "struct JobHandler.ApplicationData[]",
					"name": "",
					"type": "tuple[]"
				}
			],
			"stateMutability": "view",
			"type": "function"
		},
		{
			"inputs": [
				{
					"internalType": "address",
					"name": "companyAddress",
					"type": "address"
				}
			],
			"name": "getAllJobs",
			"outputs": [
				{
					"components": [
						{
							"internalType": "address",
							"name": "companyAddress",
							"type": "address"
						},
						{
							"internalType": "string",
							"name": "title",
							"type": "string"
						},
						{
							"internalType": "enum JobHandler.Experience",
							"name": "experience",
							"type": "uint8"
						},
						{
							"internalType": "string[]",
							"name": "technologies",
							"type": "string[]"
						},
						{
							"internalType": "bool",
							"name": "isOpen",
							"type": "bool"
						},
						{
							"internalType": "string",
							"name": "salary",
							"type": "string"
						},
						{
							"internalType": "enum JobHandler.Schedule",
							"name": "schedule",
							"type": "uint8"
						},
						{
							"internalType": "enum JobHandler.JobType",
							"name": "jobType",
							"type": "uint8"
						},
						{
							"internalType": "enum JobHandler.JobMode",
							"name": "jobMode",
							"type": "uint8"
						},
						{
							"internalType": "string[]",
							"name": "qualifications",
							"type": "string[]"
						},
						{
							"internalType": "uint256",
							"name": "vacancy",
							"type": "uint256"
						},
						{
							"internalType": "string",
							"name": "highestEducation",
							"type": "string"
						},
						{
							"internalType": "uint256",
							"name": "timestamp",
							"type": "uint256"
						}
					],
					"internalType": "struct JobHandler.JobData[]",
					"name": "",
					"type": "tuple[]"
				}
			],
			"stateMutability": "view",
			"type": "function"
		},
		{
			"inputs": [
				{
					"internalType": "address",
					"name": "applierAddress",
					"type": "address"
				},
				{
					"internalType": "address",
					"name": "companyAddress",
					"type": "address"
				},
				{
					"internalType": "uint256",
					"name": "jobId",
					"type": "uint256"
				}
			],
			"name": "getApplicationByJobId",
			"outputs": [
				{
					"components": [
						{
							"internalType": "address",
							"name": "applierAddress",
							"type": "address"
						},
						{
							"internalType": "address",
							"name": "companyAddress",
							"type": "address"
						},
						{
							"internalType": "enum JobHandler.Status",
							"name": "status",
							"type": "uint8"
						}
					],
					"internalType": "struct JobHandler.ApplicationData",
					"name": "",
					"type": "tuple"
				}
			],
			"stateMutability": "view",
			"type": "function"
		},
		{
			"inputs": [
				{
					"internalType": "address",
					"name": "applierAddress",
					"type": "address"
				},
				{
					"internalType": "address",
					"name": "companyAddress",
					"type": "address"
				},
				{
					"internalType": "uint256",
					"name": "jobId",
					"type": "uint256"
				}
			],
			"name": "getApplicationStatus",
			"outputs": [
				{
					"internalType": "enum JobHandler.Status",
					"name": "",
					"type": "uint8"
				},
				{
					"internalType": "uint256",
					"name": "",
					"type": "uint256"
				}
			],
			"stateMutability": "view",
			"type": "function"
		},
		{
			"inputs": [
				{
					"internalType": "address",
					"name": "companyAddress",
					"type": "address"
				},
				{
					"internalType": "uint256",
					"name": "jobId",
					"type": "uint256"
				}
			],
			"name": "getJobById",
			"outputs": [
				{
					"components": [
						{
							"internalType": "address",
							"name": "companyAddress",
							"type": "address"
						},
						{
							"internalType": "string",
							"name": "title",
							"type": "string"
						},
						{
							"internalType": "enum JobHandler.Experience",
							"name": "experience",
							"type": "uint8"
						},
						{
							"internalType": "string[]",
							"name": "technologies",
							"type": "string[]"
						},
						{
							"internalType": "bool",
							"name": "isOpen",
							"type": "bool"
						},
						{
							"internalType": "string",
							"name": "salary",
							"type": "string"
						},
						{
							"internalType": "enum JobHandler.Schedule",
							"name": "schedule",
							"type": "uint8"
						},
						{
							"internalType": "enum JobHandler.JobType",
							"name": "jobType",
							"type": "uint8"
						},
						{
							"internalType": "enum JobHandler.JobMode",
							"name": "jobMode",
							"type": "uint8"
						},
						{
							"internalType": "string[]",
							"name": "qualifications",
							"type": "string[]"
						},
						{
							"internalType": "uint256",
							"name": "vacancy",
							"type": "uint256"
						},
						{
							"internalType": "string",
							"name": "highestEducation",
							"type": "string"
						},
						{
							"internalType": "uint256",
							"name": "timestamp",
							"type": "uint256"
						}
					],
					"internalType": "struct JobHandler.JobData",
					"name": "",
					"type": "tuple"
				}
			],
			"stateMutability": "view",
			"type": "function"
		},
		{
			"inputs": [
				{
					"internalType": "uint256",
					"name": "jobId",
					"type": "uint256"
				}
			],
			"name": "getOfferLetter",
			"outputs": [
				{
					"internalType": "string",
					"name": "",
					"type": "string"
				}
			],
			"stateMutability": "view",
			"type": "function"
		},
		{
			"inputs": [
				{
					"internalType": "string",
					"name": "title",
					"type": "string"
				},
				{
					"internalType": "uint256",
					"name": "experience",
					"type": "uint256"
				},
				{
					"internalType": "string[]",
					"name": "technologies",
					"type": "string[]"
				},
				{
					"internalType": "string",
					"name": "salary",
					"type": "string"
				},
				{
					"internalType": "uint256",
					"name": "schedule",
					"type": "uint256"
				},
				{
					"internalType": "uint256",
					"name": "jobType",
					"type": "uint256"
				},
				{
					"internalType": "uint256",
					"name": "jobMode",
					"type": "uint256"
				},
				{
					"internalType": "string[]",
					"name": "qualifications",
					"type": "string[]"
				},
				{
					"internalType": "uint256",
					"name": "vacancy",
					"type": "uint256"
				},
				{
					"internalType": "string",
					"name": "highestEducation",
					"type": "string"
				}
			],
			"name": "postJob",
			"outputs": [],
			"stateMutability": "nonpayable",
			"type": "function"
		}
	]
}