{
	"contracts/122.sol": {
		"MultiSign": {
			"abi": [
				{
					"inputs": [],
					"stateMutability": "nonpayable",
					"type": "constructor"
				},
				{
					"anonymous": false,
					"inputs": [
						{
							"indexed": false,
							"internalType": "address",
							"name": "from",
							"type": "address"
						},
						{
							"indexed": false,
							"internalType": "uint256",
							"name": "amount",
							"type": "uint256"
						}
					],
					"name": "DepositFunds",
					"type": "event"
				},
				{
					"anonymous": false,
					"inputs": [
						{
							"indexed": false,
							"internalType": "address",
							"name": "from",
							"type": "address"
						},
						{
							"indexed": false,
							"internalType": "address",
							"name": "to",
							"type": "address"
						},
						{
							"indexed": false,
							"internalType": "uint256",
							"name": "amount",
							"type": "uint256"
						},
						{
							"indexed": false,
							"internalType": "uint256",
							"name": "transactionId",
							"type": "uint256"
						}
					],
					"name": "TransactionCompleted",
					"type": "event"
				},
				{
					"anonymous": false,
					"inputs": [
						{
							"indexed": false,
							"internalType": "address",
							"name": "from",
							"type": "address"
						},
						{
							"indexed": false,
							"internalType": "address",
							"name": "to",
							"type": "address"
						},
						{
							"indexed": false,
							"internalType": "uint256",
							"name": "amount",
							"type": "uint256"
						}
					],
					"name": "TransactionCreated",
					"type": "event"
				},
				{
					"anonymous": false,
					"inputs": [
						{
							"indexed": false,
							"internalType": "address",
							"name": "by",
							"type": "address"
						},
						{
							"indexed": false,
							"internalType": "uint256",
							"name": "transactionId",
							"type": "uint256"
						}
					],
					"name": "TransactionSigned",
					"type": "event"
				},
				{
					"anonymous": false,
					"inputs": [
						{
							"indexed": false,
							"internalType": "address",
							"name": "from",
							"type": "address"
						},
						{
							"indexed": false,
							"internalType": "uint256",
							"name": "amount",
							"type": "uint256"
						}
					],
					"name": "WithdrawFunds",
					"type": "event"
				},
				{
					"inputs": [
						{
							"internalType": "address",
							"name": "_owner",
							"type": "address"
						}
					],
					"name": "addOwner",
					"outputs": [],
					"stateMutability": "nonpayable",
					"type": "function"
				},
				{
					"inputs": [
						{
							"internalType": "address",
							"name": "",
							"type": "address"
						}
					],
					"name": "funds",
					"outputs": [
						{
							"internalType": "uint256",
							"name": "",
							"type": "uint256"
						}
					],
					"stateMutability": "view",
					"type": "function"
				},
				{
					"inputs": [
						{
							"internalType": "uint256",
							"name": "_transactionId",
							"type": "uint256"
						}
					],
					"name": "getPendingTransaction",
					"outputs": [
						{
							"components": [
								{
									"internalType": "address",
									"name": "from",
									"type": "address"
								},
								{
									"internalType": "address",
									"name": "to",
									"type": "address"
								},
								{
									"internalType": "uint256",
									"name": "amount",
									"type": "uint256"
								},
								{
									"internalType": "bool",
									"name": "isConfirm",
									"type": "bool"
								},
								{
									"internalType": "uint256",
									"name": "signatureCount",
									"type": "uint256"
								},
								{
									"internalType": "uint256",
									"name": "numOfSignatureRequired",
									"type": "uint256"
								}
							],
							"internalType": "struct MultiSign.Transaction",
							"name": "",
							"type": "tuple"
						}
					],
					"stateMutability": "view",
					"type": "function"
				},
				{
					"inputs": [],
					"name": "getPendingTransactions",
					"outputs": [
						{
							"internalType": "uint256[]",
							"name": "",
							"type": "uint256[]"
						}
					],
					"stateMutability": "view",
					"type": "function"
				},
				{
					"inputs": [],
					"name": "owner",
					"outputs": [
						{
							"internalType": "address",
							"name": "",
							"type": "address"
						}
					],
					"stateMutability": "view",
					"type": "function"
				},
				{
					"inputs": [
						{
							"internalType": "address",
							"name": "",
							"type": "address"
						}
					],
					"name": "owners",
					"outputs": [
						{
							"internalType": "bool",
							"name": "",
							"type": "bool"
						}
					],
					"stateMutability": "view",
					"type": "function"
				},
				{
					"inputs": [
						{
							"internalType": "uint256",
							"name": "",
							"type": "uint256"
						}
					],
					"name": "pendingTransactions",
					"outputs": [
						{
							"internalType": "uint256",
							"name": "",
							"type": "uint256"
						}
					],
					"stateMutability": "view",
					"type": "function"
				},
				{
					"inputs": [
						{
							"internalType": "address",
							"name": "_owner",
							"type": "address"
						}
					],
					"name": "removeOwner",
					"outputs": [],
					"stateMutability": "nonpayable",
					"type": "function"
				},
				{
					"inputs": [
						{
							"internalType": "uint256",
							"name": "_transactionId",
							"type": "uint256"
						}
					],
					"name": "signTransaction",
					"outputs": [],
					"stateMutability": "nonpayable",
					"type": "function"
				},
				{
					"inputs": [
						{
							"internalType": "address",
							"name": "_to",
							"type": "address"
						},
						{
							"internalType": "uint256",
							"name": "_amount",
							"type": "uint256"
						},
						{
							"internalType": "uint256",
							"name": "_numOfSignatureRequired",
							"type": "uint256"
						}
					],
					"name": "tranferTo",
					"outputs": [],
					"stateMutability": "nonpayable",
					"type": "function"
				},
				{
					"inputs": [
						{
							"internalType": "uint256",
							"name": "",
							"type": "uint256"
						}
					],
					"name": "transactions",
					"outputs": [
						{
							"internalType": "address",
							"name": "from",
							"type": "address"
						},
						{
							"internalType": "address",
							"name": "to",
							"type": "address"
						},
						{
							"internalType": "uint256",
							"name": "amount",
							"type": "uint256"
						},
						{
							"internalType": "bool",
							"name": "isConfirm",
							"type": "bool"
						},
						{
							"internalType": "uint256",
							"name": "signatureCount",
							"type": "uint256"
						},
						{
							"internalType": "uint256",
							"name": "numOfSignatureRequired",
							"type": "uint256"
						}
					],
					"stateMutability": "view",
					"type": "function"
				},
				{
					"stateMutability": "payable",
					"type": "receive"
				}
			],
			"devdoc": {
				"kind": "dev",
				"methods": {},
				"version": 1
			},
			"evm": {
				"assembly": "    /* \"contracts/122.sol\":199:4757  contract MultiSign {... */\n  mstore(0x40, 0x80)\n    /* \"contracts/122.sol\":1148:1197  constructor() {... */\n  callvalue\n  dup1\n  iszero\n  tag_1\n  jumpi\n  0x00\n  dup1\n  revert\ntag_1:\n  pop\n    /* \"contracts/122.sol\":1180:1190  msg.sender */\n  caller\n    /* \"contracts/122.sol\":1172:1177  owner */\n  0x00\n  dup1\n    /* \"contracts/122.sol\":1172:1190  owner = msg.sender */\n  0x0100\n  exp\n  dup2\n  sload\n  dup2\n  0xffffffffffffffffffffffffffffffffffffffff\n  mul\n  not\n  and\n  swap1\n  dup4\n  0xffffffffffffffffffffffffffffffffffffffff\n  and\n  mul\n  or\n  swap1\n  sstore\n  pop\n    /* \"contracts/122.sol\":199:4757  contract MultiSign {... */\n  dataSize(sub_0)\n  dup1\n  dataOffset(sub_0)\n  0x00\n  codecopy\n  0x00\n  return\nstop\n\nsub_0: assembly {\n        /* \"contracts/122.sol\":199:4757  contract MultiSign {... */\n      mstore(0x40, 0x80)\n      jumpi(tag_1, lt(calldatasize, 0x04))\n      shr(0xe0, calldataload(0x00))\n      dup1\n      0x7065cb48\n      gt\n      tag_14\n      jumpi\n      dup1\n      0x7065cb48\n      eq\n      tag_8\n      jumpi\n      dup1\n      0x8da5cb5b\n      eq\n      tag_9\n      jumpi\n      dup1\n      0x9ace38c2\n      eq\n      tag_10\n      jumpi\n      dup1\n      0xb1973bcc\n      eq\n      tag_11\n      jumpi\n      dup1\n      0xd11db83f\n      eq\n      tag_12\n      jumpi\n      dup1\n      0xe2ae93fb\n      eq\n      tag_13\n      jumpi\n      jump(tag_2)\n    tag_14:\n      dup1\n      0x022914a7\n      eq\n      tag_3\n      jumpi\n      dup1\n      0x173825d9\n      eq\n      tag_4\n      jumpi\n      dup1\n      0x23fbae41\n      eq\n      tag_5\n      jumpi\n      dup1\n      0x5d9ec210\n      eq\n      tag_6\n      jumpi\n      dup1\n      0x63a8374d\n      eq\n      tag_7\n      jumpi\n      jump(tag_2)\n    tag_1:\n      jumpi(tag_2, calldatasize)\n        /* \"contracts/122.sol\":1819:1828  msg.value */\n      callvalue\n        /* \"contracts/122.sol\":1798:1803  funds */\n      0x04\n        /* \"contracts/122.sol\":1798:1815  funds[msg.sender] */\n      0x00\n        /* \"contracts/122.sol\":1804:1814  msg.sender */\n      caller\n        /* \"contracts/122.sol\":1798:1815  funds[msg.sender] */\n      0xffffffffffffffffffffffffffffffffffffffff\n      and\n      0xffffffffffffffffffffffffffffffffffffffff\n      and\n      dup2\n      mstore\n      0x20\n      add\n      swap1\n      dup2\n      mstore\n      0x20\n      add\n      0x00\n      keccak256\n      0x00\n        /* \"contracts/122.sol\":1798:1828  funds[msg.sender] += msg.value */\n      dup3\n      dup3\n      sload\n      tag_17\n      swap2\n      swap1\n      tag_18\n      jump\t// in\n    tag_17:\n      swap3\n      pop\n      pop\n      dup2\n      swap1\n      sstore\n      pop\n        /* \"contracts/122.sol\":1843:1878  DepositFunds(msg.sender, msg.value) */\n      0xd241e73300212f6df233a8e6d3146b88a9d4964e06621d54b5ff6afeba7b1b88\n        /* \"contracts/122.sol\":1856:1866  msg.sender */\n      caller\n        /* \"contracts/122.sol\":1868:1877  msg.value */\n      callvalue\n        /* \"contracts/122.sol\":1843:1878  DepositFunds(msg.sender, msg.value) */\n      mload(0x40)\n      tag_19\n      swap3\n      swap2\n      swap1\n      tag_20\n      jump\t// in\n    tag_19:\n      mload(0x40)\n      dup1\n      swap2\n      sub\n      swap1\n      log1\n        /* \"contracts/122.sol\":199:4757  contract MultiSign {... */\n      stop\n    tag_2:\n      0x00\n      dup1\n      revert\n        /* \"contracts/122.sol\":330:368  mapping(address => bool) public owners */\n    tag_3:\n      callvalue\n      dup1\n      iszero\n      tag_21\n      jumpi\n      0x00\n      dup1\n      revert\n    tag_21:\n      pop\n      tag_22\n      0x04\n      dup1\n      calldatasize\n      sub\n      dup2\n      add\n      swap1\n      tag_23\n      swap2\n      swap1\n      tag_24\n      jump\t// in\n    tag_23:\n      tag_25\n      jump\t// in\n    tag_22:\n      mload(0x40)\n      tag_26\n      swap2\n      swap1\n      tag_27\n      jump\t// in\n    tag_26:\n      mload(0x40)\n      dup1\n      swap2\n      sub\n      swap1\n      return\n        /* \"contracts/122.sol\":1643:1734  function removeOwner(address _owner) public isOwner {... */\n    tag_4:\n      callvalue\n      dup1\n      iszero\n      tag_28\n      jumpi\n      0x00\n      dup1\n      revert\n    tag_28:\n      pop\n      tag_29\n      0x04\n      dup1\n      calldatasize\n      sub\n      dup2\n      add\n      swap1\n      tag_30\n      swap2\n      swap1\n      tag_24\n      jump\t// in\n    tag_30:\n      tag_31\n      jump\t// in\n    tag_29:\n      stop\n        /* \"contracts/122.sol\":2789:2984  function getPendingTransaction(uint256 _transactionId)... */\n    tag_5:\n      callvalue\n      dup1\n      iszero\n      tag_32\n      jumpi\n      0x00\n      dup1\n      revert\n    tag_32:\n      pop\n      tag_33\n      0x04\n      dup1\n      calldatasize\n      sub\n      dup2\n      add\n      swap1\n      tag_34\n      swap2\n      swap1\n      tag_35\n      jump\t// in\n    tag_34:\n      tag_36\n      jump\t// in\n    tag_33:\n      mload(0x40)\n      tag_37\n      swap2\n      swap1\n      tag_38\n      jump\t// in\n    tag_37:\n      mload(0x40)\n      dup1\n      swap2\n      sub\n      swap1\n      return\n        /* \"contracts/122.sol\":3034:4430  function signTransaction(uint256 _transactionId) public validOwner {... */\n    tag_6:\n      callvalue\n      dup1\n      iszero\n      tag_39\n      jumpi\n      0x00\n      dup1\n      revert\n    tag_39:\n      pop\n      tag_40\n      0x04\n      dup1\n      calldatasize\n      sub\n      dup2\n      add\n      swap1\n      tag_41\n      swap2\n      swap1\n      tag_35\n      jump\t// in\n    tag_41:\n      tag_42\n      jump\t// in\n    tag_40:\n      stop\n        /* \"contracts/122.sol\":287:323  uint256[] public pendingTransactions */\n    tag_7:\n      callvalue\n      dup1\n      iszero\n      tag_43\n      jumpi\n      0x00\n      dup1\n      revert\n    tag_43:\n      pop\n      tag_44\n      0x04\n      dup1\n      calldatasize\n      sub\n      dup2\n      add\n      swap1\n      tag_45\n      swap2\n      swap1\n      tag_35\n      jump\t// in\n    tag_45:\n      tag_46\n      jump\t// in\n    tag_44:\n      mload(0x40)\n      tag_47\n      swap2\n      swap1\n      tag_48\n      jump\t// in\n    tag_47:\n      mload(0x40)\n      dup1\n      swap2\n      sub\n      swap1\n      return\n        /* \"contracts/122.sol\":1530:1617  function addOwner(address _owner) public isOwner {... */\n    tag_8:\n      callvalue\n      dup1\n      iszero\n      tag_49\n      jumpi\n      0x00\n      dup1\n      revert\n    tag_49:\n      pop\n      tag_50\n      0x04\n      dup1\n      calldatasize\n      sub\n      dup2\n      add\n      swap1\n      tag_51\n      swap2\n      swap1\n      tag_24\n      jump\t// in\n    tag_51:\n      tag_52\n      jump\t// in\n    tag_50:\n      stop\n        /* \"contracts/122.sol\":224:244  address public owner */\n    tag_9:\n      callvalue\n      dup1\n      iszero\n      tag_53\n      jumpi\n      0x00\n      dup1\n      revert\n    tag_53:\n      pop\n      tag_54\n      tag_55\n      jump\t// in\n    tag_54:\n      mload(0x40)\n      tag_56\n      swap2\n      swap1\n      tag_57\n      jump\t// in\n    tag_56:\n      mload(0x40)\n      dup1\n      swap2\n      sub\n      swap1\n      return\n        /* \"contracts/122.sol\":676:727  mapping(uint256 => Transaction) public transactions */\n    tag_10:\n      callvalue\n      dup1\n      iszero\n      tag_58\n      jumpi\n      0x00\n      dup1\n      revert\n    tag_58:\n      pop\n      tag_59\n      0x04\n      dup1\n      calldatasize\n      sub\n      dup2\n      add\n      swap1\n      tag_60\n      swap2\n      swap1\n      tag_35\n      jump\t// in\n    tag_60:\n      tag_61\n      jump\t// in\n    tag_59:\n      mload(0x40)\n      tag_62\n      swap7\n      swap6\n      swap5\n      swap4\n      swap3\n      swap2\n      swap1\n      tag_63\n      jump\t// in\n    tag_62:\n      mload(0x40)\n      dup1\n      swap2\n      sub\n      swap1\n      return\n        /* \"contracts/122.sol\":1917:2551  function tranferTo(... */\n    tag_11:\n      callvalue\n      dup1\n      iszero\n      tag_64\n      jumpi\n      0x00\n      dup1\n      revert\n    tag_64:\n      pop\n      tag_65\n      0x04\n      dup1\n      calldatasize\n      sub\n      dup2\n      add\n      swap1\n      tag_66\n      swap2\n      swap1\n      tag_67\n      jump\t// in\n    tag_66:\n      tag_68\n      jump\t// in\n    tag_65:\n      stop\n        /* \"contracts/122.sol\":2589:2752  function getPendingTransactions()... */\n    tag_12:\n      callvalue\n      dup1\n      iszero\n      tag_69\n      jumpi\n      0x00\n      dup1\n      revert\n    tag_69:\n      pop\n      tag_70\n      tag_71\n      jump\t// in\n    tag_70:\n      mload(0x40)\n      tag_72\n      swap2\n      swap1\n      tag_73\n      jump\t// in\n    tag_72:\n      mload(0x40)\n      dup1\n      swap2\n      sub\n      swap1\n      return\n        /* \"contracts/122.sol\":374:414  mapping(address => uint256) public funds */\n    tag_13:\n      callvalue\n      dup1\n      iszero\n      tag_74\n      jumpi\n      0x00\n      dup1\n      revert\n    tag_74:\n      pop\n      tag_75\n      0x04\n      dup1\n      calldatasize\n      sub\n      dup2\n      add\n      swap1\n      tag_76\n      swap2\n      swap1\n      tag_24\n      jump\t// in\n    tag_76:\n      tag_77\n      jump\t// in\n    tag_75:\n      mload(0x40)\n      tag_78\n      swap2\n      swap1\n      tag_48\n      jump\t// in\n    tag_78:\n      mload(0x40)\n      dup1\n      swap2\n      sub\n      swap1\n      return\n        /* \"contracts/122.sol\":330:368  mapping(address => bool) public owners */\n    tag_25:\n      mstore(0x20, 0x03)\n      dup1\n      0x00\n      mstore\n      keccak256(0x00, 0x40)\n      0x00\n      swap2\n      pop\n      sload\n      swap1\n      0x0100\n      exp\n      swap1\n      div\n      0xff\n      and\n      dup2\n      jump\t// out\n        /* \"contracts/122.sol\":1643:1734  function removeOwner(address _owner) public isOwner {... */\n    tag_31:\n        /* \"contracts/122.sol\":1271:1276  owner */\n      0x00\n      dup1\n      sload\n      swap1\n      0x0100\n      exp\n      swap1\n      div\n      0xffffffffffffffffffffffffffffffffffffffff\n      and\n        /* \"contracts/122.sol\":1257:1276  msg.sender == owner */\n      0xffffffffffffffffffffffffffffffffffffffff\n      and\n        /* \"contracts/122.sol\":1257:1267  msg.sender */\n      caller\n        /* \"contracts/122.sol\":1257:1276  msg.sender == owner */\n      0xffffffffffffffffffffffffffffffffffffffff\n      and\n      eq\n        /* \"contracts/122.sol\":1249:1298  require(msg.sender == owner, \"You can't access!\") */\n      tag_80\n      jumpi\n      mload(0x40)\n      0x08c379a000000000000000000000000000000000000000000000000000000000\n      dup2\n      mstore\n      0x04\n      add\n      tag_81\n      swap1\n      tag_82\n      jump\t// in\n    tag_81:\n      mload(0x40)\n      dup1\n      swap2\n      sub\n      swap1\n      revert\n    tag_80:\n        /* \"contracts/122.sol\":1722:1727  false */\n      0x00\n        /* \"contracts/122.sol\":1705:1711  owners */\n      0x03\n        /* \"contracts/122.sol\":1705:1719  owners[_owner] */\n      0x00\n        /* \"contracts/122.sol\":1712:1718  _owner */\n      dup4\n        /* \"contracts/122.sol\":1705:1719  owners[_owner] */\n      0xffffffffffffffffffffffffffffffffffffffff\n      and\n      0xffffffffffffffffffffffffffffffffffffffff\n      and\n      dup2\n      mstore\n      0x20\n      add\n      swap1\n      dup2\n      mstore\n      0x20\n      add\n      0x00\n      keccak256\n      0x00\n        /* \"contracts/122.sol\":1705:1727  owners[_owner] = false */\n      0x0100\n      exp\n      dup2\n      sload\n      dup2\n      0xff\n      mul\n      not\n      and\n      swap1\n      dup4\n      iszero\n      iszero\n      mul\n      or\n      swap1\n      sstore\n      pop\n        /* \"contracts/122.sol\":1643:1734  function removeOwner(address _owner) public isOwner {... */\n      pop\n      jump\t// out\n        /* \"contracts/122.sol\":2789:2984  function getPendingTransaction(uint256 _transactionId)... */\n    tag_36:\n        /* \"contracts/122.sol\":2908:2926  Transaction memory */\n      tag_84\n      tag_85\n      jump\t// in\n    tag_84:\n        /* \"contracts/122.sol\":1389:1394  owner */\n      0x00\n      dup1\n      sload\n      swap1\n      0x0100\n      exp\n      swap1\n      div\n      0xffffffffffffffffffffffffffffffffffffffff\n      and\n        /* \"contracts/122.sol\":1375:1394  msg.sender == owner */\n      0xffffffffffffffffffffffffffffffffffffffff\n      and\n        /* \"contracts/122.sol\":1375:1385  msg.sender */\n      caller\n        /* \"contracts/122.sol\":1375:1394  msg.sender == owner */\n      0xffffffffffffffffffffffffffffffffffffffff\n      and\n      eq\n        /* \"contracts/122.sol\":1375:1424  msg.sender == owner || owners[msg.sender] == true */\n      dup1\n      tag_87\n      jumpi\n      pop\n        /* \"contracts/122.sol\":1420:1424  true */\n      0x01\n        /* \"contracts/122.sol\":1398:1424  owners[msg.sender] == true */\n      iszero\n      iszero\n        /* \"contracts/122.sol\":1398:1404  owners */\n      0x03\n        /* \"contracts/122.sol\":1398:1416  owners[msg.sender] */\n      0x00\n        /* \"contracts/122.sol\":1405:1415  msg.sender */\n      caller\n        /* \"contracts/122.sol\":1398:1416  owners[msg.sender] */\n      0xffffffffffffffffffffffffffffffffffffffff\n      and\n      0xffffffffffffffffffffffffffffffffffffffff\n      and\n      dup2\n      mstore\n      0x20\n      add\n      swap1\n      dup2\n      mstore\n      0x20\n      add\n      0x00\n      keccak256\n      0x00\n      swap1\n      sload\n      swap1\n      0x0100\n      exp\n      swap1\n      div\n      0xff\n      and\n        /* \"contracts/122.sol\":1398:1424  owners[msg.sender] == true */\n      iszero\n      iszero\n      eq\n        /* \"contracts/122.sol\":1375:1424  msg.sender == owner || owners[msg.sender] == true */\n    tag_87:\n        /* \"contracts/122.sol\":1354:1468  require(... */\n      tag_88\n      jumpi\n      mload(0x40)\n      0x08c379a000000000000000000000000000000000000000000000000000000000\n      dup2\n      mstore\n      0x04\n      add\n      tag_89\n      swap1\n      tag_90\n      jump\t// in\n    tag_89:\n      mload(0x40)\n      dup1\n      swap2\n      sub\n      swap1\n      revert\n    tag_88:\n        /* \"contracts/122.sol\":2949:2961  transactions */\n      0x06\n        /* \"contracts/122.sol\":2949:2977  transactions[_transactionId] */\n      0x00\n        /* \"contracts/122.sol\":2962:2976  _transactionId */\n      dup4\n        /* \"contracts/122.sol\":2949:2977  transactions[_transactionId] */\n      dup2\n      mstore\n      0x20\n      add\n      swap1\n      dup2\n      mstore\n      0x20\n      add\n      0x00\n      keccak256\n        /* \"contracts/122.sol\":2942:2977  return transactions[_transactionId] */\n      mload(0x40)\n      dup1\n      0xc0\n      add\n      0x40\n      mstore\n      swap1\n      dup2\n      0x00\n      dup3\n      add\n      0x00\n      swap1\n      sload\n      swap1\n      0x0100\n      exp\n      swap1\n      div\n      0xffffffffffffffffffffffffffffffffffffffff\n      and\n      0xffffffffffffffffffffffffffffffffffffffff\n      and\n      0xffffffffffffffffffffffffffffffffffffffff\n      and\n      dup2\n      mstore\n      0x20\n      add\n      0x01\n      dup3\n      add\n      0x00\n      swap1\n      sload\n      swap1\n      0x0100\n      exp\n      swap1\n      div\n      0xffffffffffffffffffffffffffffffffffffffff\n      and\n      0xffffffffffffffffffffffffffffffffffffffff\n      and\n      0xffffffffffffffffffffffffffffffffffffffff\n      and\n      dup2\n      mstore\n      0x20\n      add\n      0x02\n      dup3\n      add\n      sload\n      dup2\n      mstore\n      0x20\n      add\n      0x03\n      dup3\n      add\n      0x00\n      swap1\n      sload\n      swap1\n      0x0100\n      exp\n      swap1\n      div\n      0xff\n      and\n      iszero\n      iszero\n      iszero\n      iszero\n      dup2\n      mstore\n      0x20\n      add\n      0x04\n      dup3\n      add\n      sload\n      dup2\n      mstore\n      0x20\n      add\n      0x05\n      dup3\n      add\n      sload\n      dup2\n      mstore\n      pop\n      pop\n      swap1\n      pop\n        /* \"contracts/122.sol\":2789:2984  function getPendingTransaction(uint256 _transactionId)... */\n      swap2\n      swap1\n      pop\n      jump\t// out\n        /* \"contracts/122.sol\":3034:4430  function signTransaction(uint256 _transactionId) public validOwner {... */\n    tag_42:\n        /* \"contracts/122.sol\":1389:1394  owner */\n      0x00\n      dup1\n      sload\n      swap1\n      0x0100\n      exp\n      swap1\n      div\n      0xffffffffffffffffffffffffffffffffffffffff\n      and\n        /* \"contracts/122.sol\":1375:1394  msg.sender == owner */\n      0xffffffffffffffffffffffffffffffffffffffff\n      and\n        /* \"contracts/122.sol\":1375:1385  msg.sender */\n      caller\n        /* \"contracts/122.sol\":1375:1394  msg.sender == owner */\n      0xffffffffffffffffffffffffffffffffffffffff\n      and\n      eq\n        /* \"contracts/122.sol\":1375:1424  msg.sender == owner || owners[msg.sender] == true */\n      dup1\n      tag_93\n      jumpi\n      pop\n        /* \"contracts/122.sol\":1420:1424  true */\n      0x01\n        /* \"contracts/122.sol\":1398:1424  owners[msg.sender] == true */\n      iszero\n      iszero\n        /* \"contracts/122.sol\":1398:1404  owners */\n      0x03\n        /* \"contracts/122.sol\":1398:1416  owners[msg.sender] */\n      0x00\n        /* \"contracts/122.sol\":1405:1415  msg.sender */\n      caller\n        /* \"contracts/122.sol\":1398:1416  owners[msg.sender] */\n      0xffffffffffffffffffffffffffffffffffffffff\n      and\n      0xffffffffffffffffffffffffffffffffffffffff\n      and\n      dup2\n      mstore\n      0x20\n      add\n      swap1\n      dup2\n      mstore\n      0x20\n      add\n      0x00\n      keccak256\n      0x00\n      swap1\n      sload\n      swap1\n      0x0100\n      exp\n      swap1\n      div\n      0xff\n      and\n        /* \"contracts/122.sol\":1398:1424  owners[msg.sender] == true */\n      iszero\n      iszero\n      eq\n        /* \"contracts/122.sol\":1375:1424  msg.sender == owner || owners[msg.sender] == true */\n    tag_93:\n        /* \"contracts/122.sol\":1354:1468  require(... */\n      tag_94\n      jumpi\n      mload(0x40)\n      0x08c379a000000000000000000000000000000000000000000000000000000000\n      dup2\n      mstore\n      0x04\n      add\n      tag_95\n      swap1\n      tag_90\n      jump\t// in\n    tag_95:\n      mload(0x40)\n      dup1\n      swap2\n      sub\n      swap1\n      revert\n    tag_94:\n        /* \"contracts/122.sol\":3111:3142  Transaction storage transaction */\n      0x00\n        /* \"contracts/122.sol\":3145:3157  transactions */\n      0x06\n        /* \"contracts/122.sol\":3145:3173  transactions[_transactionId] */\n      0x00\n        /* \"contracts/122.sol\":3158:3172  _transactionId */\n      dup4\n        /* \"contracts/122.sol\":3145:3173  transactions[_transactionId] */\n      dup2\n      mstore\n      0x20\n      add\n      swap1\n      dup2\n      mstore\n      0x20\n      add\n      0x00\n      keccak256\n        /* \"contracts/122.sol\":3111:3173  Transaction storage transaction = transactions[_transactionId] */\n      swap1\n      pop\n        /* \"contracts/122.sol\":3225:3267  0x0000000000000000000000000000000000000000 */\n      0x00\n        /* \"contracts/122.sol\":3205:3267  transaction.from != 0x0000000000000000000000000000000000000000 */\n      0xffffffffffffffffffffffffffffffffffffffff\n      and\n        /* \"contracts/122.sol\":3205:3216  transaction */\n      dup2\n        /* \"contracts/122.sol\":3205:3221  transaction.from */\n      0x00\n      add\n      0x00\n      swap1\n      sload\n      swap1\n      0x0100\n      exp\n      swap1\n      div\n      0xffffffffffffffffffffffffffffffffffffffff\n      and\n        /* \"contracts/122.sol\":3205:3267  transaction.from != 0x0000000000000000000000000000000000000000 */\n      0xffffffffffffffffffffffffffffffffffffffff\n      and\n      sub\n        /* \"contracts/122.sol\":3184:3315  require(... */\n      tag_97\n      jumpi\n      mload(0x40)\n      0x08c379a000000000000000000000000000000000000000000000000000000000\n      dup2\n      mstore\n      0x04\n      add\n      tag_98\n      swap1\n      tag_99\n      jump\t// in\n    tag_98:\n      mload(0x40)\n      dup1\n      swap2\n      sub\n      swap1\n      revert\n    tag_97:\n        /* \"contracts/122.sol\":3366:3376  msg.sender */\n      caller\n        /* \"contracts/122.sol\":3346:3376  transaction.from != msg.sender */\n      0xffffffffffffffffffffffffffffffffffffffff\n      and\n        /* \"contracts/122.sol\":3346:3357  transaction */\n      dup2\n        /* \"contracts/122.sol\":3346:3362  transaction.from */\n      0x00\n      add\n      0x00\n      swap1\n      sload\n      swap1\n      0x0100\n      exp\n      swap1\n      div\n      0xffffffffffffffffffffffffffffffffffffffff\n      and\n        /* \"contracts/122.sol\":3346:3376  transaction.from != msg.sender */\n      0xffffffffffffffffffffffffffffffffffffffff\n      and\n      sub\n        /* \"contracts/122.sol\":3325:3437  require(... */\n      tag_100\n      jumpi\n      mload(0x40)\n      0x08c379a000000000000000000000000000000000000000000000000000000000\n      dup2\n      mstore\n      0x04\n      add\n      tag_101\n      swap1\n      tag_102\n      jump\t// in\n    tag_101:\n      mload(0x40)\n      dup1\n      swap2\n      sub\n      swap1\n      revert\n    tag_100:\n        /* \"contracts/122.sol\":3469:3479  signatures */\n      0x05\n        /* \"contracts/122.sol\":3469:3495  signatures[_transactionId] */\n      0x00\n        /* \"contracts/122.sol\":3480:3494  _transactionId */\n      dup4\n        /* \"contracts/122.sol\":3469:3495  signatures[_transactionId] */\n      dup2\n      mstore\n      0x20\n      add\n      swap1\n      dup2\n      mstore\n      0x20\n      add\n      0x00\n      keccak256\n        /* \"contracts/122.sol\":3469:3507  signatures[_transactionId][msg.sender] */\n      0x00\n        /* \"contracts/122.sol\":3496:3506  msg.sender */\n      caller\n        /* \"contracts/122.sol\":3469:3507  signatures[_transactionId][msg.sender] */\n      0xffffffffffffffffffffffffffffffffffffffff\n      and\n      0xffffffffffffffffffffffffffffffffffffffff\n      and\n      dup2\n      mstore\n      0x20\n      add\n      swap1\n      dup2\n      mstore\n      0x20\n      add\n      0x00\n      keccak256\n      0x00\n      swap1\n      sload\n      swap1\n      0x0100\n      exp\n      swap1\n      div\n      0xff\n      and\n        /* \"contracts/122.sol\":3468:3507  !signatures[_transactionId][msg.sender] */\n      iszero\n        /* \"contracts/122.sol\":3447:3579  require(... */\n      tag_103\n      jumpi\n      mload(0x40)\n      0x08c379a000000000000000000000000000000000000000000000000000000000\n      dup2\n      mstore\n      0x04\n      add\n      tag_104\n      swap1\n      tag_105\n      jump\t// in\n    tag_104:\n      mload(0x40)\n      dup1\n      swap2\n      sub\n      swap1\n      revert\n    tag_103:\n        /* \"contracts/122.sol\":3648:3649  1 */\n      0x01\n        /* \"contracts/122.sol\":3619:3630  transaction */\n      dup2\n        /* \"contracts/122.sol\":3619:3645  transaction.signatureCount */\n      0x04\n      add\n      sload\n        /* \"contracts/122.sol\":3619:3649  transaction.signatureCount + 1 */\n      tag_106\n      swap2\n      swap1\n      tag_18\n      jump\t// in\n    tag_106:\n        /* \"contracts/122.sol\":3590:3601  transaction */\n      dup2\n        /* \"contracts/122.sol\":3590:3616  transaction.signatureCount */\n      0x04\n      add\n        /* \"contracts/122.sol\":3590:3649  transaction.signatureCount = transaction.signatureCount + 1 */\n      dup2\n      swap1\n      sstore\n      pop\n        /* \"contracts/122.sol\":3701:3705  true */\n      0x01\n        /* \"contracts/122.sol\":3660:3670  signatures */\n      0x05\n        /* \"contracts/122.sol\":3660:3686  signatures[_transactionId] */\n      0x00\n        /* \"contracts/122.sol\":3671:3685  _transactionId */\n      dup5\n        /* \"contracts/122.sol\":3660:3686  signatures[_transactionId] */\n      dup2\n      mstore\n      0x20\n      add\n      swap1\n      dup2\n      mstore\n      0x20\n      add\n      0x00\n      keccak256\n        /* \"contracts/122.sol\":3660:3698  signatures[_transactionId][msg.sender] */\n      0x00\n        /* \"contracts/122.sol\":3687:3697  msg.sender */\n      caller\n        /* \"contracts/122.sol\":3660:3698  signatures[_transactionId][msg.sender] */\n      0xffffffffffffffffffffffffffffffffffffffff\n      and\n      0xffffffffffffffffffffffffffffffffffffffff\n      and\n      dup2\n      mstore\n      0x20\n      add\n      swap1\n      dup2\n      mstore\n      0x20\n      add\n      0x00\n      keccak256\n      0x00\n        /* \"contracts/122.sol\":3660:3705  signatures[_transactionId][msg.sender] = true */\n      0x0100\n      exp\n      dup2\n      sload\n      dup2\n      0xff\n      mul\n      not\n      and\n      swap1\n      dup4\n      iszero\n      iszero\n      mul\n      or\n      swap1\n      sstore\n      pop\n        /* \"contracts/122.sol\":3721:3766  TransactionSigned(msg.sender, _transactionId) */\n      0xac63e7e1dc16bccf900879686e74ca33eeb175b670e3aaa9d7e4ccf3781b7a7a\n        /* \"contracts/122.sol\":3739:3749  msg.sender */\n      caller\n        /* \"contracts/122.sol\":3751:3765  _transactionId */\n      dup4\n        /* \"contracts/122.sol\":3721:3766  TransactionSigned(msg.sender, _transactionId) */\n      mload(0x40)\n      tag_107\n      swap3\n      swap2\n      swap1\n      tag_20\n      jump\t// in\n    tag_107:\n      mload(0x40)\n      dup1\n      swap2\n      sub\n      swap1\n      log1\n        /* \"contracts/122.sol\":3838:3849  transaction */\n      dup1\n        /* \"contracts/122.sol\":3838:3872  transaction.numOfSignatureRequired */\n      0x05\n      add\n      sload\n        /* \"contracts/122.sol\":3808:3819  transaction */\n      dup2\n        /* \"contracts/122.sol\":3808:3834  transaction.signatureCount */\n      0x04\n      add\n      sload\n        /* \"contracts/122.sol\":3808:3872  transaction.signatureCount >= transaction.numOfSignatureRequired */\n      lt\n        /* \"contracts/122.sol\":3804:4424  if (transaction.signatureCount >= transaction.numOfSignatureRequired) {... */\n      tag_108\n      jumpi\n        /* \"contracts/122.sol\":3940:3951  transaction */\n      dup1\n        /* \"contracts/122.sol\":3940:3958  transaction.amount */\n      0x02\n      add\n      sload\n        /* \"contracts/122.sol\":3913:3918  funds */\n      0x04\n        /* \"contracts/122.sol\":3913:3936  funds[transaction.from] */\n      0x00\n        /* \"contracts/122.sol\":3919:3930  transaction */\n      dup4\n        /* \"contracts/122.sol\":3919:3935  transaction.from */\n      0x00\n      add\n      0x00\n      swap1\n      sload\n      swap1\n      0x0100\n      exp\n      swap1\n      div\n      0xffffffffffffffffffffffffffffffffffffffff\n      and\n        /* \"contracts/122.sol\":3913:3936  funds[transaction.from] */\n      0xffffffffffffffffffffffffffffffffffffffff\n      and\n      0xffffffffffffffffffffffffffffffffffffffff\n      and\n      dup2\n      mstore\n      0x20\n      add\n      swap1\n      dup2\n      mstore\n      0x20\n      add\n      0x00\n      keccak256\n      sload\n        /* \"contracts/122.sol\":3913:3958  funds[transaction.from] >= transaction.amount */\n      lt\n      iszero\n        /* \"contracts/122.sol\":3888:4008  require(... */\n      tag_109\n      jumpi\n      mload(0x40)\n      0x08c379a000000000000000000000000000000000000000000000000000000000\n      dup2\n      mstore\n      0x04\n      add\n      tag_110\n      swap1\n      tag_111\n      jump\t// in\n    tag_110:\n      mload(0x40)\n      dup1\n      swap2\n      sub\n      swap1\n      revert\n    tag_109:\n        /* \"contracts/122.sol\":4031:4042  transaction */\n      dup1\n        /* \"contracts/122.sol\":4031:4045  transaction.to */\n      0x01\n      add\n      0x00\n      swap1\n      sload\n      swap1\n      0x0100\n      exp\n      swap1\n      div\n      0xffffffffffffffffffffffffffffffffffffffff\n      and\n        /* \"contracts/122.sol\":4023:4055  payable(transaction.to).transfer */\n      0xffffffffffffffffffffffffffffffffffffffff\n      and\n        /* \"contracts/122.sol\":4023:4075  payable(transaction.to).transfer(transaction.amount) */\n      0x08fc\n        /* \"contracts/122.sol\":4056:4067  transaction */\n      dup3\n        /* \"contracts/122.sol\":4056:4074  transaction.amount */\n      0x02\n      add\n      sload\n        /* \"contracts/122.sol\":4023:4075  payable(transaction.to).transfer(transaction.amount) */\n      swap1\n      dup2\n      iszero\n      mul\n      swap1\n      mload(0x40)\n      0x00\n      mload(0x40)\n      dup1\n      dup4\n      sub\n      dup2\n      dup6\n      dup9\n      dup9\n      call\n      swap4\n      pop\n      pop\n      pop\n      pop\n      iszero\n      dup1\n      iszero\n      tag_113\n      jumpi\n      returndatasize\n      0x00\n      dup1\n      returndatacopy\n      revert(0x00, returndatasize)\n    tag_113:\n      pop\n        /* \"contracts/122.sol\":4131:4135  true */\n      0x01\n        /* \"contracts/122.sol\":4090:4102  transactions */\n      0x06\n        /* \"contracts/122.sol\":4090:4118  transactions[_transactionId] */\n      0x00\n        /* \"contracts/122.sol\":4103:4117  _transactionId */\n      dup5\n        /* \"contracts/122.sol\":4090:4118  transactions[_transactionId] */\n      dup2\n      mstore\n      0x20\n      add\n      swap1\n      dup2\n      mstore\n      0x20\n      add\n      0x00\n      keccak256\n        /* \"contracts/122.sol\":4090:4128  transactions[_transactionId].isConfirm */\n      0x03\n      add\n      0x00\n        /* \"contracts/122.sol\":4090:4135  transactions[_transactionId].isConfirm = true */\n      0x0100\n      exp\n      dup2\n      sload\n      dup2\n      0xff\n      mul\n      not\n      and\n      swap1\n      dup4\n      iszero\n      iszero\n      mul\n      or\n      swap1\n      sstore\n      pop\n        /* \"contracts/122.sol\":4176:4177  0 */\n      0x00\n        /* \"contracts/122.sol\":4150:4155  funds */\n      0x04\n        /* \"contracts/122.sol\":4150:4173  funds[transaction.from] */\n      0x00\n        /* \"contracts/122.sol\":4156:4167  transaction */\n      dup4\n        /* \"contracts/122.sol\":4156:4172  transaction.from */\n      0x00\n      add\n      0x00\n      swap1\n      sload\n      swap1\n      0x0100\n      exp\n      swap1\n      div\n      0xffffffffffffffffffffffffffffffffffffffff\n      and\n        /* \"contracts/122.sol\":4150:4173  funds[transaction.from] */\n      0xffffffffffffffffffffffffffffffffffffffff\n      and\n      0xffffffffffffffffffffffffffffffffffffffff\n      and\n      dup2\n      mstore\n      0x20\n      add\n      swap1\n      dup2\n      mstore\n      0x20\n      add\n      0x00\n      keccak256\n        /* \"contracts/122.sol\":4150:4177  funds[transaction.from] = 0 */\n      dup2\n      swap1\n      sstore\n      pop\n        /* \"contracts/122.sol\":4197:4365  TransactionCompleted(... */\n      0x394c4e679790fab24fd86614fd812811c9c835e4c475bdfc3d26fd0d6f7ca6fd\n        /* \"contracts/122.sol\":4235:4246  transaction */\n      dup2\n        /* \"contracts/122.sol\":4235:4251  transaction.from */\n      0x00\n      add\n      0x00\n      swap1\n      sload\n      swap1\n      0x0100\n      exp\n      swap1\n      div\n      0xffffffffffffffffffffffffffffffffffffffff\n      and\n        /* \"contracts/122.sol\":4269:4280  transaction */\n      dup3\n        /* \"contracts/122.sol\":4269:4283  transaction.to */\n      0x01\n      add\n      0x00\n      swap1\n      sload\n      swap1\n      0x0100\n      exp\n      swap1\n      div\n      0xffffffffffffffffffffffffffffffffffffffff\n      and\n        /* \"contracts/122.sol\":4301:4312  transaction */\n      dup4\n        /* \"contracts/122.sol\":4301:4319  transaction.amount */\n      0x02\n      add\n      sload\n        /* \"contracts/122.sol\":4337:4351  _transactionId */\n      dup6\n        /* \"contracts/122.sol\":4197:4365  TransactionCompleted(... */\n      mload(0x40)\n      tag_114\n      swap5\n      swap4\n      swap3\n      swap2\n      swap1\n      tag_115\n      jump\t// in\n    tag_114:\n      mload(0x40)\n      dup1\n      swap2\n      sub\n      swap1\n      log1\n        /* \"contracts/122.sol\":4380:4413  deleteTransaction(_transactionId) */\n      tag_116\n        /* \"contracts/122.sol\":4398:4412  _transactionId */\n      dup3\n        /* \"contracts/122.sol\":4380:4397  deleteTransaction */\n      tag_117\n        /* \"contracts/122.sol\":4380:4413  deleteTransaction(_transactionId) */\n      jump\t// in\n    tag_116:\n        /* \"contracts/122.sol\":3804:4424  if (transaction.signatureCount >= transaction.numOfSignatureRequired) {... */\n    tag_108:\n        /* \"contracts/122.sol\":3101:4430  {... */\n      pop\n        /* \"contracts/122.sol\":3034:4430  function signTransaction(uint256 _transactionId) public validOwner {... */\n      pop\n      jump\t// out\n        /* \"contracts/122.sol\":287:323  uint256[] public pendingTransactions */\n    tag_46:\n      0x02\n      dup2\n      dup2\n      sload\n      dup2\n      lt\n      tag_118\n      jumpi\n      0x00\n      dup1\n      revert\n    tag_118:\n      swap1\n      0x00\n      mstore\n      keccak256(0x00, 0x20)\n      add\n      0x00\n      swap2\n      pop\n      swap1\n      pop\n      sload\n      dup2\n      jump\t// out\n        /* \"contracts/122.sol\":1530:1617  function addOwner(address _owner) public isOwner {... */\n    tag_52:\n        /* \"contracts/122.sol\":1271:1276  owner */\n      0x00\n      dup1\n      sload\n      swap1\n      0x0100\n      exp\n      swap1\n      div\n      0xffffffffffffffffffffffffffffffffffffffff\n      and\n        /* \"contracts/122.sol\":1257:1276  msg.sender == owner */\n      0xffffffffffffffffffffffffffffffffffffffff\n      and\n        /* \"contracts/122.sol\":1257:1267  msg.sender */\n      caller\n        /* \"contracts/122.sol\":1257:1276  msg.sender == owner */\n      0xffffffffffffffffffffffffffffffffffffffff\n      and\n      eq\n        /* \"contracts/122.sol\":1249:1298  require(msg.sender == owner, \"You can't access!\") */\n      tag_121\n      jumpi\n      mload(0x40)\n      0x08c379a000000000000000000000000000000000000000000000000000000000\n      dup2\n      mstore\n      0x04\n      add\n      tag_122\n      swap1\n      tag_82\n      jump\t// in\n    tag_122:\n      mload(0x40)\n      dup1\n      swap2\n      sub\n      swap1\n      revert\n    tag_121:\n        /* \"contracts/122.sol\":1606:1610  true */\n      0x01\n        /* \"contracts/122.sol\":1589:1595  owners */\n      0x03\n        /* \"contracts/122.sol\":1589:1603  owners[_owner] */\n      0x00\n        /* \"contracts/122.sol\":1596:1602  _owner */\n      dup4\n        /* \"contracts/122.sol\":1589:1603  owners[_owner] */\n      0xffffffffffffffffffffffffffffffffffffffff\n      and\n      0xffffffffffffffffffffffffffffffffffffffff\n      and\n      dup2\n      mstore\n      0x20\n      add\n      swap1\n      dup2\n      mstore\n      0x20\n      add\n      0x00\n      keccak256\n      0x00\n        /* \"contracts/122.sol\":1589:1610  owners[_owner] = true */\n      0x0100\n      exp\n      dup2\n      sload\n      dup2\n      0xff\n      mul\n      not\n      and\n      swap1\n      dup4\n      iszero\n      iszero\n      mul\n      or\n      swap1\n      sstore\n      pop\n        /* \"contracts/122.sol\":1530:1617  function addOwner(address _owner) public isOwner {... */\n      pop\n      jump\t// out\n        /* \"contracts/122.sol\":224:244  address public owner */\n    tag_55:\n      0x00\n      dup1\n      sload\n      swap1\n      0x0100\n      exp\n      swap1\n      div\n      0xffffffffffffffffffffffffffffffffffffffff\n      and\n      dup2\n      jump\t// out\n        /* \"contracts/122.sol\":676:727  mapping(uint256 => Transaction) public transactions */\n    tag_61:\n      mstore(0x20, 0x06)\n      dup1\n      0x00\n      mstore\n      keccak256(0x00, 0x40)\n      0x00\n      swap2\n      pop\n      swap1\n      pop\n      dup1\n      0x00\n      add\n      0x00\n      swap1\n      sload\n      swap1\n      0x0100\n      exp\n      swap1\n      div\n      0xffffffffffffffffffffffffffffffffffffffff\n      and\n      swap1\n      dup1\n      0x01\n      add\n      0x00\n      swap1\n      sload\n      swap1\n      0x0100\n      exp\n      swap1\n      div\n      0xffffffffffffffffffffffffffffffffffffffff\n      and\n      swap1\n      dup1\n      0x02\n      add\n      sload\n      swap1\n      dup1\n      0x03\n      add\n      0x00\n      swap1\n      sload\n      swap1\n      0x0100\n      exp\n      swap1\n      div\n      0xff\n      and\n      swap1\n      dup1\n      0x04\n      add\n      sload\n      swap1\n      dup1\n      0x05\n      add\n      sload\n      swap1\n      pop\n      dup7\n      jump\t// out\n        /* \"contracts/122.sol\":1917:2551  function tranferTo(... */\n    tag_68:\n        /* \"contracts/122.sol\":1389:1394  owner */\n      0x00\n      dup1\n      sload\n      swap1\n      0x0100\n      exp\n      swap1\n      div\n      0xffffffffffffffffffffffffffffffffffffffff\n      and\n        /* \"contracts/122.sol\":1375:1394  msg.sender == owner */\n      0xffffffffffffffffffffffffffffffffffffffff\n      and\n        /* \"contracts/122.sol\":1375:1385  msg.sender */\n      caller\n        /* \"contracts/122.sol\":1375:1394  msg.sender == owner */\n      0xffffffffffffffffffffffffffffffffffffffff\n      and\n      eq\n        /* \"contracts/122.sol\":1375:1424  msg.sender == owner || owners[msg.sender] == true */\n      dup1\n      tag_125\n      jumpi\n      pop\n        /* \"contracts/122.sol\":1420:1424  true */\n      0x01\n        /* \"contracts/122.sol\":1398:1424  owners[msg.sender] == true */\n      iszero\n      iszero\n        /* \"contracts/122.sol\":1398:1404  owners */\n      0x03\n        /* \"contracts/122.sol\":1398:1416  owners[msg.sender] */\n      0x00\n        /* \"contracts/122.sol\":1405:1415  msg.sender */\n      caller\n        /* \"contracts/122.sol\":1398:1416  owners[msg.sender] */\n      0xffffffffffffffffffffffffffffffffffffffff\n      and\n      0xffffffffffffffffffffffffffffffffffffffff\n      and\n      dup2\n      mstore\n      0x20\n      add\n      swap1\n      dup2\n      mstore\n      0x20\n      add\n      0x00\n      keccak256\n      0x00\n      swap1\n      sload\n      swap1\n      0x0100\n      exp\n      swap1\n      div\n      0xff\n      and\n        /* \"contracts/122.sol\":1398:1424  owners[msg.sender] == true */\n      iszero\n      iszero\n      eq\n        /* \"contracts/122.sol\":1375:1424  msg.sender == owner || owners[msg.sender] == true */\n    tag_125:\n        /* \"contracts/122.sol\":1354:1468  require(... */\n      tag_126\n      jumpi\n      mload(0x40)\n      0x08c379a000000000000000000000000000000000000000000000000000000000\n      dup2\n      mstore\n      0x04\n      add\n      tag_127\n      swap1\n      tag_90\n      jump\t// in\n    tag_127:\n      mload(0x40)\n      dup1\n      swap2\n      sub\n      swap1\n      revert\n    tag_126:\n        /* \"contracts/122.sol\":2086:2093  _amount */\n      dup2\n        /* \"contracts/122.sol\":2065:2070  funds */\n      0x04\n        /* \"contracts/122.sol\":2065:2082  funds[msg.sender] */\n      0x00\n        /* \"contracts/122.sol\":2071:2081  msg.sender */\n      caller\n        /* \"contracts/122.sol\":2065:2082  funds[msg.sender] */\n      0xffffffffffffffffffffffffffffffffffffffff\n      and\n      0xffffffffffffffffffffffffffffffffffffffff\n      and\n      dup2\n      mstore\n      0x20\n      add\n      swap1\n      dup2\n      mstore\n      0x20\n      add\n      0x00\n      keccak256\n      sload\n        /* \"contracts/122.sol\":2065:2093  funds[msg.sender] >= _amount */\n      lt\n      iszero\n        /* \"contracts/122.sol\":2057:2117  require(funds[msg.sender] >= _amount, \"Not enought balance\") */\n      tag_129\n      jumpi\n      mload(0x40)\n      0x08c379a000000000000000000000000000000000000000000000000000000000\n      dup2\n      mstore\n      0x04\n      add\n      tag_130\n      swap1\n      tag_131\n      jump\t// in\n    tag_130:\n      mload(0x40)\n      dup1\n      swap2\n      sub\n      swap1\n      revert\n    tag_129:\n        /* \"contracts/122.sol\":2128:2149  uint256 transactionId */\n      0x00\n        /* \"contracts/122.sol\":2152:2166  transactionIdx */\n      0x01\n      0x00\n        /* \"contracts/122.sol\":2152:2168  transactionIdx++ */\n      dup2\n      sload\n      dup1\n      swap3\n      swap2\n      swap1\n      tag_132\n      swap1\n      tag_133\n      jump\t// in\n    tag_132:\n      swap2\n      swap1\n      pop\n      sstore\n        /* \"contracts/122.sol\":2128:2168  uint256 transactionId = transactionIdx++ */\n      swap1\n      pop\n        /* \"contracts/122.sol\":2209:2434  Transaction({... */\n      mload(0x40)\n      dup1\n      0xc0\n      add\n      0x40\n      mstore\n      dup1\n        /* \"contracts/122.sol\":2241:2251  msg.sender */\n      caller\n        /* \"contracts/122.sol\":2209:2434  Transaction({... */\n      0xffffffffffffffffffffffffffffffffffffffff\n      and\n      dup2\n      mstore\n      0x20\n      add\n        /* \"contracts/122.sol\":2269:2272  _to */\n      dup6\n        /* \"contracts/122.sol\":2209:2434  Transaction({... */\n      0xffffffffffffffffffffffffffffffffffffffff\n      and\n      dup2\n      mstore\n      0x20\n      add\n        /* \"contracts/122.sol\":2294:2301  _amount */\n      dup5\n        /* \"contracts/122.sol\":2209:2434  Transaction({... */\n      dup2\n      mstore\n      0x20\n      add\n        /* \"contracts/122.sol\":2326:2331  false */\n      0x00\n        /* \"contracts/122.sol\":2209:2434  Transaction({... */\n      iszero\n      iszero\n      dup2\n      mstore\n      0x20\n      add\n        /* \"contracts/122.sol\":2361:2362  0 */\n      0x00\n        /* \"contracts/122.sol\":2209:2434  Transaction({... */\n      dup2\n      mstore\n      0x20\n      add\n        /* \"contracts/122.sol\":2400:2423  _numOfSignatureRequired */\n      dup4\n        /* \"contracts/122.sol\":2209:2434  Transaction({... */\n      dup2\n      mstore\n      pop\n        /* \"contracts/122.sol\":2179:2191  transactions */\n      0x06\n        /* \"contracts/122.sol\":2179:2206  transactions[transactionId] */\n      0x00\n        /* \"contracts/122.sol\":2192:2205  transactionId */\n      dup4\n        /* \"contracts/122.sol\":2179:2206  transactions[transactionId] */\n      dup2\n      mstore\n      0x20\n      add\n      swap1\n      dup2\n      mstore\n      0x20\n      add\n      0x00\n      keccak256\n        /* \"contracts/122.sol\":2179:2434  transactions[transactionId] = Transaction({... */\n      0x00\n      dup3\n      add\n      mload\n      dup2\n      0x00\n      add\n      exp(0x0100, 0x00)\n      dup2\n      sload\n      dup2\n      0xffffffffffffffffffffffffffffffffffffffff\n      mul\n      not\n      and\n      swap1\n      dup4\n      0xffffffffffffffffffffffffffffffffffffffff\n      and\n      mul\n      or\n      swap1\n      sstore\n      pop\n      0x20\n      dup3\n      add\n      mload\n      dup2\n      0x01\n      add\n      exp(0x0100, 0x00)\n      dup2\n      sload\n      dup2\n      0xffffffffffffffffffffffffffffffffffffffff\n      mul\n      not\n      and\n      swap1\n      dup4\n      0xffffffffffffffffffffffffffffffffffffffff\n      and\n      mul\n      or\n      swap1\n      sstore\n      pop\n      0x40\n      dup3\n      add\n      mload\n      dup2\n      0x02\n      add\n      sstore\n      0x60\n      dup3\n      add\n      mload\n      dup2\n      0x03\n      add\n      exp(0x0100, 0x00)\n      dup2\n      sload\n      dup2\n      0xff\n      mul\n      not\n      and\n      swap1\n      dup4\n      iszero\n      iszero\n      mul\n      or\n      swap1\n      sstore\n      pop\n      0x80\n      dup3\n      add\n      mload\n      dup2\n      0x04\n      add\n      sstore\n      0xa0\n      dup3\n      add\n      mload\n      dup2\n      0x05\n      add\n      sstore\n      swap1\n      pop\n      pop\n        /* \"contracts/122.sol\":2445:2464  pendingTransactions */\n      0x02\n        /* \"contracts/122.sol\":2470:2483  transactionId */\n      dup2\n        /* \"contracts/122.sol\":2445:2484  pendingTransactions.push(transactionId) */\n      swap1\n      dup1\n      0x01\n      dup2\n      sload\n      add\n      dup1\n      dup3\n      sstore\n      dup1\n      swap2\n      pop\n      pop\n      0x01\n      swap1\n      sub\n      swap1\n      0x00\n      mstore\n      keccak256(0x00, 0x20)\n      add\n      0x00\n      swap1\n      swap2\n      swap1\n      swap2\n      swap1\n      swap2\n      pop\n      sstore\n        /* \"contracts/122.sol\":2500:2544  TransactionCreated(msg.sender, _to, _amount) */\n      0x878e1a8a7ee638d3050b311026ea6730c31a9bf9c4d0dc6ea2a3922927fabd62\n        /* \"contracts/122.sol\":2519:2529  msg.sender */\n      caller\n        /* \"contracts/122.sol\":2531:2534  _to */\n      dup6\n        /* \"contracts/122.sol\":2536:2543  _amount */\n      dup6\n        /* \"contracts/122.sol\":2500:2544  TransactionCreated(msg.sender, _to, _amount) */\n      mload(0x40)\n      tag_135\n      swap4\n      swap3\n      swap2\n      swap1\n      tag_136\n      jump\t// in\n    tag_135:\n      mload(0x40)\n      dup1\n      swap2\n      sub\n      swap1\n      log1\n        /* \"contracts/122.sol\":2047:2551  {... */\n      pop\n        /* \"contracts/122.sol\":1917:2551  function tranferTo(... */\n      pop\n      pop\n      pop\n      jump\t// out\n        /* \"contracts/122.sol\":2589:2752  function getPendingTransactions()... */\n    tag_71:\n        /* \"contracts/122.sol\":2687:2703  uint256[] memory */\n      0x60\n        /* \"contracts/122.sol\":1389:1394  owner */\n      0x00\n      dup1\n      sload\n      swap1\n      0x0100\n      exp\n      swap1\n      div\n      0xffffffffffffffffffffffffffffffffffffffff\n      and\n        /* \"contracts/122.sol\":1375:1394  msg.sender == owner */\n      0xffffffffffffffffffffffffffffffffffffffff\n      and\n        /* \"contracts/122.sol\":1375:1385  msg.sender */\n      caller\n        /* \"contracts/122.sol\":1375:1394  msg.sender == owner */\n      0xffffffffffffffffffffffffffffffffffffffff\n      and\n      eq\n        /* \"contracts/122.sol\":1375:1424  msg.sender == owner || owners[msg.sender] == true */\n      dup1\n      tag_138\n      jumpi\n      pop\n        /* \"contracts/122.sol\":1420:1424  true */\n      0x01\n        /* \"contracts/122.sol\":1398:1424  owners[msg.sender] == true */\n      iszero\n      iszero\n        /* \"contracts/122.sol\":1398:1404  owners */\n      0x03\n        /* \"contracts/122.sol\":1398:1416  owners[msg.sender] */\n      0x00\n        /* \"contracts/122.sol\":1405:1415  msg.sender */\n      caller\n        /* \"contracts/122.sol\":1398:1416  owners[msg.sender] */\n      0xffffffffffffffffffffffffffffffffffffffff\n      and\n      0xffffffffffffffffffffffffffffffffffffffff\n      and\n      dup2\n      mstore\n      0x20\n      add\n      swap1\n      dup2\n      mstore\n      0x20\n      add\n      0x00\n      keccak256\n      0x00\n      swap1\n      sload\n      swap1\n      0x0100\n      exp\n      swap1\n      div\n      0xff\n      and\n        /* \"contracts/122.sol\":1398:1424  owners[msg.sender] == true */\n      iszero\n      iszero\n      eq\n        /* \"contracts/122.sol\":1375:1424  msg.sender == owner || owners[msg.sender] == true */\n    tag_138:\n        /* \"contracts/122.sol\":1354:1468  require(... */\n      tag_139\n      jumpi\n      mload(0x40)\n      0x08c379a000000000000000000000000000000000000000000000000000000000\n      dup2\n      mstore\n      0x04\n      add\n      tag_140\n      swap1\n      tag_90\n      jump\t// in\n    tag_140:\n      mload(0x40)\n      dup1\n      swap2\n      sub\n      swap1\n      revert\n    tag_139:\n        /* \"contracts/122.sol\":2726:2745  pendingTransactions */\n      0x02\n        /* \"contracts/122.sol\":2719:2745  return pendingTransactions */\n      dup1\n      sload\n      dup1\n      0x20\n      mul\n      0x20\n      add\n      mload(0x40)\n      swap1\n      dup2\n      add\n      0x40\n      mstore\n      dup1\n      swap3\n      swap2\n      swap1\n      dup2\n      dup2\n      mstore\n      0x20\n      add\n      dup3\n      dup1\n      sload\n      dup1\n      iszero\n      tag_142\n      jumpi\n      0x20\n      mul\n      dup3\n      add\n      swap2\n      swap1\n      0x00\n      mstore\n      keccak256(0x00, 0x20)\n      swap1\n    tag_143:\n      dup2\n      sload\n      dup2\n      mstore\n      0x20\n      add\n      swap1\n      0x01\n      add\n      swap1\n      dup1\n      dup4\n      gt\n      tag_143\n      jumpi\n    tag_142:\n      pop\n      pop\n      pop\n      pop\n      pop\n      swap1\n      pop\n        /* \"contracts/122.sol\":2589:2752  function getPendingTransactions()... */\n      swap1\n      jump\t// out\n        /* \"contracts/122.sol\":374:414  mapping(address => uint256) public funds */\n    tag_77:\n      mstore(0x20, 0x04)\n      dup1\n      0x00\n      mstore\n      keccak256(0x00, 0x40)\n      0x00\n      swap2\n      pop\n      swap1\n      pop\n      sload\n      dup2\n      jump\t// out\n        /* \"contracts/122.sol\":4462:4755  function deleteTransaction(uint256 _transactionId) private validOwner {... */\n    tag_117:\n        /* \"contracts/122.sol\":1389:1394  owner */\n      0x00\n      dup1\n      sload\n      swap1\n      0x0100\n      exp\n      swap1\n      div\n      0xffffffffffffffffffffffffffffffffffffffff\n      and\n        /* \"contracts/122.sol\":1375:1394  msg.sender == owner */\n      0xffffffffffffffffffffffffffffffffffffffff\n      and\n        /* \"contracts/122.sol\":1375:1385  msg.sender */\n      caller\n        /* \"contracts/122.sol\":1375:1394  msg.sender == owner */\n      0xffffffffffffffffffffffffffffffffffffffff\n      and\n      eq\n        /* \"contracts/122.sol\":1375:1424  msg.sender == owner || owners[msg.sender] == true */\n      dup1\n      tag_145\n      jumpi\n      pop\n        /* \"contracts/122.sol\":1420:1424  true */\n      0x01\n        /* \"contracts/122.sol\":1398:1424  owners[msg.sender] == true */\n      iszero\n      iszero\n        /* \"contracts/122.sol\":1398:1404  owners */\n      0x03\n        /* \"contracts/122.sol\":1398:1416  owners[msg.sender] */\n      0x00\n        /* \"contracts/122.sol\":1405:1415  msg.sender */\n      caller\n        /* \"contracts/122.sol\":1398:1416  owners[msg.sender] */\n      0xffffffffffffffffffffffffffffffffffffffff\n      and\n      0xffffffffffffffffffffffffffffffffffffffff\n      and\n      dup2\n      mstore\n      0x20\n      add\n      swap1\n      dup2\n      mstore\n      0x20\n      add\n      0x00\n      keccak256\n      0x00\n      swap1\n      sload\n      swap1\n      0x0100\n      exp\n      swap1\n      div\n      0xff\n      and\n        /* \"contracts/122.sol\":1398:1424  owners[msg.sender] == true */\n      iszero\n      iszero\n      eq\n        /* \"contracts/122.sol\":1375:1424  msg.sender == owner || owners[msg.sender] == true */\n    tag_145:\n        /* \"contracts/122.sol\":1354:1468  require(... */\n      tag_146\n      jumpi\n      mload(0x40)\n      0x08c379a000000000000000000000000000000000000000000000000000000000\n      dup2\n      mstore\n      0x04\n      add\n      tag_147\n      swap1\n      tag_90\n      jump\t// in\n    tag_147:\n      mload(0x40)\n      dup1\n      swap2\n      sub\n      swap1\n      revert\n    tag_146:\n        /* \"contracts/122.sol\":4563:4575  transactions */\n      0x06\n        /* \"contracts/122.sol\":4563:4591  transactions[_transactionId] */\n      0x00\n        /* \"contracts/122.sol\":4576:4590  _transactionId */\n      dup3\n        /* \"contracts/122.sol\":4563:4591  transactions[_transactionId] */\n      dup2\n      mstore\n      0x20\n      add\n      swap1\n      dup2\n      mstore\n      0x20\n      add\n      0x00\n      keccak256\n        /* \"contracts/122.sol\":4563:4601  transactions[_transactionId].isConfirm */\n      0x03\n      add\n      0x00\n      swap1\n      sload\n      swap1\n      0x0100\n      exp\n      swap1\n      div\n      0xff\n      and\n        /* \"contracts/122.sol\":4542:4649  require(... */\n      tag_149\n      jumpi\n      mload(0x40)\n      0x08c379a000000000000000000000000000000000000000000000000000000000\n      dup2\n      mstore\n      0x04\n      add\n      tag_150\n      swap1\n      tag_99\n      jump\t// in\n    tag_150:\n      mload(0x40)\n      dup1\n      swap2\n      sub\n      swap1\n      revert\n    tag_149:\n        /* \"contracts/122.sol\":4667:4686  pendingTransactions */\n      0x02\n        /* \"contracts/122.sol\":4687:4701  _transactionId */\n      dup2\n        /* \"contracts/122.sol\":4667:4702  pendingTransactions[_transactionId] */\n      dup2\n      sload\n      dup2\n      lt\n      tag_151\n      jumpi\n      tag_152\n      tag_153\n      jump\t// in\n    tag_152:\n    tag_151:\n      swap1\n      0x00\n      mstore\n      keccak256(0x00, 0x20)\n      add\n        /* \"contracts/122.sol\":4660:4702  delete pendingTransactions[_transactionId] */\n      0x00\n      swap1\n      sstore\n        /* \"contracts/122.sol\":4720:4732  transactions */\n      0x06\n        /* \"contracts/122.sol\":4720:4748  transactions[_transactionId] */\n      0x00\n        /* \"contracts/122.sol\":4733:4747  _transactionId */\n      dup3\n        /* \"contracts/122.sol\":4720:4748  transactions[_transactionId] */\n      dup2\n      mstore\n      0x20\n      add\n      swap1\n      dup2\n      mstore\n      0x20\n      add\n      0x00\n      keccak256\n      0x00\n        /* \"contracts/122.sol\":4713:4748  delete transactions[_transactionId] */\n      dup1\n      dup3\n      add\n      exp(0x0100, 0x00)\n      dup2\n      sload\n      swap1\n      0xffffffffffffffffffffffffffffffffffffffff\n      mul\n      not\n      and\n      swap1\n      sstore\n      0x01\n      dup3\n      add\n      exp(0x0100, 0x00)\n      dup2\n      sload\n      swap1\n      0xffffffffffffffffffffffffffffffffffffffff\n      mul\n      not\n      and\n      swap1\n      sstore\n      0x02\n      dup3\n      add\n      0x00\n      swap1\n      sstore\n      0x03\n      dup3\n      add\n      exp(0x0100, 0x00)\n      dup2\n      sload\n      swap1\n      0xff\n      mul\n      not\n      and\n      swap1\n      sstore\n      0x04\n      dup3\n      add\n      0x00\n      swap1\n      sstore\n      0x05\n      dup3\n      add\n      0x00\n      swap1\n      sstore\n      pop\n      pop\n        /* \"contracts/122.sol\":4462:4755  function deleteTransaction(uint256 _transactionId) private validOwner {... */\n      pop\n      jump\t// out\n    tag_85:\n      mload(0x40)\n      dup1\n      0xc0\n      add\n      0x40\n      mstore\n      dup1\n      and(0xffffffffffffffffffffffffffffffffffffffff, 0x00)\n      dup2\n      mstore\n      0x20\n      add\n      and(0xffffffffffffffffffffffffffffffffffffffff, 0x00)\n      dup2\n      mstore\n      0x20\n      add\n      0x00\n      dup2\n      mstore\n      0x20\n      add\n      iszero(iszero(0x00))\n      dup2\n      mstore\n      0x20\n      add\n      0x00\n      dup2\n      mstore\n      0x20\n      add\n      0x00\n      dup2\n      mstore\n      pop\n      swap1\n      jump\t// out\n        /* \"#utility.yul\":7:84   */\n    tag_155:\n        /* \"#utility.yul\":44:51   */\n      0x00\n        /* \"#utility.yul\":73:78   */\n      dup2\n        /* \"#utility.yul\":62:78   */\n      swap1\n      pop\n        /* \"#utility.yul\":7:84   */\n      swap2\n      swap1\n      pop\n      jump\t// out\n        /* \"#utility.yul\":90:270   */\n    tag_156:\n        /* \"#utility.yul\":138:215   */\n      0x4e487b7100000000000000000000000000000000000000000000000000000000\n        /* \"#utility.yul\":135:136   */\n      0x00\n        /* \"#utility.yul\":128:216   */\n      mstore\n        /* \"#utility.yul\":235:239   */\n      0x11\n        /* \"#utility.yul\":232:233   */\n      0x04\n        /* \"#utility.yul\":225:240   */\n      mstore\n        /* \"#utility.yul\":259:263   */\n      0x24\n        /* \"#utility.yul\":256:257   */\n      0x00\n        /* \"#utility.yul\":249:264   */\n      revert\n        /* \"#utility.yul\":276:467   */\n    tag_18:\n        /* \"#utility.yul\":316:319   */\n      0x00\n        /* \"#utility.yul\":335:355   */\n      tag_199\n        /* \"#utility.yul\":353:354   */\n      dup3\n        /* \"#utility.yul\":335:355   */\n      tag_155\n      jump\t// in\n    tag_199:\n        /* \"#utility.yul\":330:355   */\n      swap2\n      pop\n        /* \"#utility.yul\":369:389   */\n      tag_200\n        /* \"#utility.yul\":387:388   */\n      dup4\n        /* \"#utility.yul\":369:389   */\n      tag_155\n      jump\t// in\n    tag_200:\n        /* \"#utility.yul\":364:389   */\n      swap3\n      pop\n        /* \"#utility.yul\":412:413   */\n      dup3\n        /* \"#utility.yul\":409:410   */\n      dup3\n        /* \"#utility.yul\":405:414   */\n      add\n        /* \"#utility.yul\":398:414   */\n      swap1\n      pop\n        /* \"#utility.yul\":433:436   */\n      dup1\n        /* \"#utility.yul\":430:431   */\n      dup3\n        /* \"#utility.yul\":427:437   */\n      gt\n        /* \"#utility.yul\":424:460   */\n      iszero\n      tag_201\n      jumpi\n        /* \"#utility.yul\":440:458   */\n      tag_202\n      tag_156\n      jump\t// in\n    tag_202:\n        /* \"#utility.yul\":424:460   */\n    tag_201:\n        /* \"#utility.yul\":276:467   */\n      swap3\n      swap2\n      pop\n      pop\n      jump\t// out\n        /* \"#utility.yul\":473:599   */\n    tag_157:\n        /* \"#utility.yul\":510:517   */\n      0x00\n        /* \"#utility.yul\":550:592   */\n      0xffffffffffffffffffffffffffffffffffffffff\n        /* \"#utility.yul\":543:548   */\n      dup3\n        /* \"#utility.yul\":539:593   */\n      and\n        /* \"#utility.yul\":528:593   */\n      swap1\n      pop\n        /* \"#utility.yul\":473:599   */\n      swap2\n      swap1\n      pop\n      jump\t// out\n        /* \"#utility.yul\":605:701   */\n    tag_158:\n        /* \"#utility.yul\":642:649   */\n      0x00\n        /* \"#utility.yul\":671:695   */\n      tag_205\n        /* \"#utility.yul\":689:694   */\n      dup3\n        /* \"#utility.yul\":671:695   */\n      tag_157\n      jump\t// in\n    tag_205:\n        /* \"#utility.yul\":660:695   */\n      swap1\n      pop\n        /* \"#utility.yul\":605:701   */\n      swap2\n      swap1\n      pop\n      jump\t// out\n        /* \"#utility.yul\":707:825   */\n    tag_159:\n        /* \"#utility.yul\":794:818   */\n      tag_207\n        /* \"#utility.yul\":812:817   */\n      dup2\n        /* \"#utility.yul\":794:818   */\n      tag_158\n      jump\t// in\n    tag_207:\n        /* \"#utility.yul\":789:792   */\n      dup3\n        /* \"#utility.yul\":782:819   */\n      mstore\n        /* \"#utility.yul\":707:825   */\n      pop\n      pop\n      jump\t// out\n        /* \"#utility.yul\":831:949   */\n    tag_160:\n        /* \"#utility.yul\":918:942   */\n      tag_209\n        /* \"#utility.yul\":936:941   */\n      dup2\n        /* \"#utility.yul\":918:942   */\n      tag_155\n      jump\t// in\n    tag_209:\n        /* \"#utility.yul\":913:916   */\n      dup3\n        /* \"#utility.yul\":906:943   */\n      mstore\n        /* \"#utility.yul\":831:949   */\n      pop\n      pop\n      jump\t// out\n        /* \"#utility.yul\":955:1287   */\n    tag_20:\n        /* \"#utility.yul\":1076:1080   */\n      0x00\n        /* \"#utility.yul\":1114:1116   */\n      0x40\n        /* \"#utility.yul\":1103:1112   */\n      dup3\n        /* \"#utility.yul\":1099:1117   */\n      add\n        /* \"#utility.yul\":1091:1117   */\n      swap1\n      pop\n        /* \"#utility.yul\":1127:1198   */\n      tag_211\n        /* \"#utility.yul\":1195:1196   */\n      0x00\n        /* \"#utility.yul\":1184:1193   */\n      dup4\n        /* \"#utility.yul\":1180:1197   */\n      add\n        /* \"#utility.yul\":1171:1177   */\n      dup6\n        /* \"#utility.yul\":1127:1198   */\n      tag_159\n      jump\t// in\n    tag_211:\n        /* \"#utility.yul\":1208:1280   */\n      tag_212\n        /* \"#utility.yul\":1276:1278   */\n      0x20\n        /* \"#utility.yul\":1265:1274   */\n      dup4\n        /* \"#utility.yul\":1261:1279   */\n      add\n        /* \"#utility.yul\":1252:1258   */\n      dup5\n        /* \"#utility.yul\":1208:1280   */\n      tag_160\n      jump\t// in\n    tag_212:\n        /* \"#utility.yul\":955:1287   */\n      swap4\n      swap3\n      pop\n      pop\n      pop\n      jump\t// out\n        /* \"#utility.yul\":1374:1491   */\n    tag_162:\n        /* \"#utility.yul\":1483:1484   */\n      0x00\n        /* \"#utility.yul\":1480:1481   */\n      dup1\n        /* \"#utility.yul\":1473:1485   */\n      revert\n        /* \"#utility.yul\":1620:1742   */\n    tag_164:\n        /* \"#utility.yul\":1693:1717   */\n      tag_217\n        /* \"#utility.yul\":1711:1716   */\n      dup2\n        /* \"#utility.yul\":1693:1717   */\n      tag_158\n      jump\t// in\n    tag_217:\n        /* \"#utility.yul\":1686:1691   */\n      dup2\n        /* \"#utility.yul\":1683:1718   */\n      eq\n        /* \"#utility.yul\":1673:1736   */\n      tag_218\n      jumpi\n        /* \"#utility.yul\":1732:1733   */\n      0x00\n        /* \"#utility.yul\":1729:1730   */\n      dup1\n        /* \"#utility.yul\":1722:1734   */\n      revert\n        /* \"#utility.yul\":1673:1736   */\n    tag_218:\n        /* \"#utility.yul\":1620:1742   */\n      pop\n      jump\t// out\n        /* \"#utility.yul\":1748:1887   */\n    tag_165:\n        /* \"#utility.yul\":1794:1799   */\n      0x00\n        /* \"#utility.yul\":1832:1838   */\n      dup2\n        /* \"#utility.yul\":1819:1839   */\n      calldataload\n        /* \"#utility.yul\":1810:1839   */\n      swap1\n      pop\n        /* \"#utility.yul\":1848:1881   */\n      tag_220\n        /* \"#utility.yul\":1875:1880   */\n      dup2\n        /* \"#utility.yul\":1848:1881   */\n      tag_164\n      jump\t// in\n    tag_220:\n        /* \"#utility.yul\":1748:1887   */\n      swap3\n      swap2\n      pop\n      pop\n      jump\t// out\n        /* \"#utility.yul\":1893:2222   */\n    tag_24:\n        /* \"#utility.yul\":1952:1958   */\n      0x00\n        /* \"#utility.yul\":2001:2003   */\n      0x20\n        /* \"#utility.yul\":1989:1998   */\n      dup3\n        /* \"#utility.yul\":1980:1987   */\n      dup5\n        /* \"#utility.yul\":1976:1999   */\n      sub\n        /* \"#utility.yul\":1972:2004   */\n      slt\n        /* \"#utility.yul\":1969:2088   */\n      iszero\n      tag_222\n      jumpi\n        /* \"#utility.yul\":2007:2086   */\n      tag_223\n      tag_162\n      jump\t// in\n    tag_223:\n        /* \"#utility.yul\":1969:2088   */\n    tag_222:\n        /* \"#utility.yul\":2127:2128   */\n      0x00\n        /* \"#utility.yul\":2152:2205   */\n      tag_224\n        /* \"#utility.yul\":2197:2204   */\n      dup5\n        /* \"#utility.yul\":2188:2194   */\n      dup3\n        /* \"#utility.yul\":2177:2186   */\n      dup6\n        /* \"#utility.yul\":2173:2195   */\n      add\n        /* \"#utility.yul\":2152:2205   */\n      tag_165\n      jump\t// in\n    tag_224:\n        /* \"#utility.yul\":2142:2205   */\n      swap2\n      pop\n        /* \"#utility.yul\":2098:2215   */\n      pop\n        /* \"#utility.yul\":1893:2222   */\n      swap3\n      swap2\n      pop\n      pop\n      jump\t// out\n        /* \"#utility.yul\":2228:2318   */\n    tag_166:\n        /* \"#utility.yul\":2262:2269   */\n      0x00\n        /* \"#utility.yul\":2305:2310   */\n      dup2\n        /* \"#utility.yul\":2298:2311   */\n      iszero\n        /* \"#utility.yul\":2291:2312   */\n      iszero\n        /* \"#utility.yul\":2280:2312   */\n      swap1\n      pop\n        /* \"#utility.yul\":2228:2318   */\n      swap2\n      swap1\n      pop\n      jump\t// out\n        /* \"#utility.yul\":2324:2433   */\n    tag_167:\n        /* \"#utility.yul\":2405:2426   */\n      tag_227\n        /* \"#utility.yul\":2420:2425   */\n      dup2\n        /* \"#utility.yul\":2405:2426   */\n      tag_166\n      jump\t// in\n    tag_227:\n        /* \"#utility.yul\":2400:2403   */\n      dup3\n        /* \"#utility.yul\":2393:2427   */\n      mstore\n        /* \"#utility.yul\":2324:2433   */\n      pop\n      pop\n      jump\t// out\n        /* \"#utility.yul\":2439:2649   */\n    tag_27:\n        /* \"#utility.yul\":2526:2530   */\n      0x00\n        /* \"#utility.yul\":2564:2566   */\n      0x20\n        /* \"#utility.yul\":2553:2562   */\n      dup3\n        /* \"#utility.yul\":2549:2567   */\n      add\n        /* \"#utility.yul\":2541:2567   */\n      swap1\n      pop\n        /* \"#utility.yul\":2577:2642   */\n      tag_229\n        /* \"#utility.yul\":2639:2640   */\n      0x00\n        /* \"#utility.yul\":2628:2637   */\n      dup4\n        /* \"#utility.yul\":2624:2641   */\n      add\n        /* \"#utility.yul\":2615:2621   */\n      dup5\n        /* \"#utility.yul\":2577:2642   */\n      tag_167\n      jump\t// in\n    tag_229:\n        /* \"#utility.yul\":2439:2649   */\n      swap3\n      swap2\n      pop\n      pop\n      jump\t// out\n        /* \"#utility.yul\":2655:2777   */\n    tag_168:\n        /* \"#utility.yul\":2728:2752   */\n      tag_231\n        /* \"#utility.yul\":2746:2751   */\n      dup2\n        /* \"#utility.yul\":2728:2752   */\n      tag_155\n      jump\t// in\n    tag_231:\n        /* \"#utility.yul\":2721:2726   */\n      dup2\n        /* \"#utility.yul\":2718:2753   */\n      eq\n        /* \"#utility.yul\":2708:2771   */\n      tag_232\n      jumpi\n        /* \"#utility.yul\":2767:2768   */\n      0x00\n        /* \"#utility.yul\":2764:2765   */\n      dup1\n        /* \"#utility.yul\":2757:2769   */\n      revert\n        /* \"#utility.yul\":2708:2771   */\n    tag_232:\n        /* \"#utility.yul\":2655:2777   */\n      pop\n      jump\t// out\n        /* \"#utility.yul\":2783:2922   */\n    tag_169:\n        /* \"#utility.yul\":2829:2834   */\n      0x00\n        /* \"#utility.yul\":2867:2873   */\n      dup2\n        /* \"#utility.yul\":2854:2874   */\n      calldataload\n        /* \"#utility.yul\":2845:2874   */\n      swap1\n      pop\n        /* \"#utility.yul\":2883:2916   */\n      tag_234\n        /* \"#utility.yul\":2910:2915   */\n      dup2\n        /* \"#utility.yul\":2883:2916   */\n      tag_168\n      jump\t// in\n    tag_234:\n        /* \"#utility.yul\":2783:2922   */\n      swap3\n      swap2\n      pop\n      pop\n      jump\t// out\n        /* \"#utility.yul\":2928:3257   */\n    tag_35:\n        /* \"#utility.yul\":2987:2993   */\n      0x00\n        /* \"#utility.yul\":3036:3038   */\n      0x20\n        /* \"#utility.yul\":3024:3033   */\n      dup3\n        /* \"#utility.yul\":3015:3022   */\n      dup5\n        /* \"#utility.yul\":3011:3034   */\n      sub\n        /* \"#utility.yul\":3007:3039   */\n      slt\n        /* \"#utility.yul\":3004:3123   */\n      iszero\n      tag_236\n      jumpi\n        /* \"#utility.yul\":3042:3121   */\n      tag_237\n      tag_162\n      jump\t// in\n    tag_237:\n        /* \"#utility.yul\":3004:3123   */\n    tag_236:\n        /* \"#utility.yul\":3162:3163   */\n      0x00\n        /* \"#utility.yul\":3187:3240   */\n      tag_238\n        /* \"#utility.yul\":3232:3239   */\n      dup5\n        /* \"#utility.yul\":3223:3229   */\n      dup3\n        /* \"#utility.yul\":3212:3221   */\n      dup6\n        /* \"#utility.yul\":3208:3230   */\n      add\n        /* \"#utility.yul\":3187:3240   */\n      tag_169\n      jump\t// in\n    tag_238:\n        /* \"#utility.yul\":3177:3240   */\n      swap2\n      pop\n        /* \"#utility.yul\":3133:3250   */\n      pop\n        /* \"#utility.yul\":2928:3257   */\n      swap3\n      swap2\n      pop\n      pop\n      jump\t// out\n        /* \"#utility.yul\":3263:3371   */\n    tag_170:\n        /* \"#utility.yul\":3340:3364   */\n      tag_240\n        /* \"#utility.yul\":3358:3363   */\n      dup2\n        /* \"#utility.yul\":3340:3364   */\n      tag_158\n      jump\t// in\n    tag_240:\n        /* \"#utility.yul\":3335:3338   */\n      dup3\n        /* \"#utility.yul\":3328:3365   */\n      mstore\n        /* \"#utility.yul\":3263:3371   */\n      pop\n      pop\n      jump\t// out\n        /* \"#utility.yul\":3377:3485   */\n    tag_171:\n        /* \"#utility.yul\":3454:3478   */\n      tag_242\n        /* \"#utility.yul\":3472:3477   */\n      dup2\n        /* \"#utility.yul\":3454:3478   */\n      tag_155\n      jump\t// in\n    tag_242:\n        /* \"#utility.yul\":3449:3452   */\n      dup3\n        /* \"#utility.yul\":3442:3479   */\n      mstore\n        /* \"#utility.yul\":3377:3485   */\n      pop\n      pop\n      jump\t// out\n        /* \"#utility.yul\":3491:3590   */\n    tag_172:\n        /* \"#utility.yul\":3562:3583   */\n      tag_244\n        /* \"#utility.yul\":3577:3582   */\n      dup2\n        /* \"#utility.yul\":3562:3583   */\n      tag_166\n      jump\t// in\n    tag_244:\n        /* \"#utility.yul\":3557:3560   */\n      dup3\n        /* \"#utility.yul\":3550:3584   */\n      mstore\n        /* \"#utility.yul\":3491:3590   */\n      pop\n      pop\n      jump\t// out\n        /* \"#utility.yul\":3664:4898   */\n    tag_173:\n        /* \"#utility.yul\":3815:3819   */\n      0xc0\n        /* \"#utility.yul\":3810:3813   */\n      dup3\n        /* \"#utility.yul\":3806:3820   */\n      add\n        /* \"#utility.yul\":3902:3906   */\n      0x00\n        /* \"#utility.yul\":3895:3900   */\n      dup3\n        /* \"#utility.yul\":3891:3907   */\n      add\n        /* \"#utility.yul\":3885:3908   */\n      mload\n        /* \"#utility.yul\":3921:3984   */\n      tag_246\n        /* \"#utility.yul\":3978:3982   */\n      0x00\n        /* \"#utility.yul\":3973:3976   */\n      dup6\n        /* \"#utility.yul\":3969:3983   */\n      add\n        /* \"#utility.yul\":3955:3967   */\n      dup3\n        /* \"#utility.yul\":3921:3984   */\n      tag_170\n      jump\t// in\n    tag_246:\n        /* \"#utility.yul\":3830:3994   */\n      pop\n        /* \"#utility.yul\":4074:4078   */\n      0x20\n        /* \"#utility.yul\":4067:4072   */\n      dup3\n        /* \"#utility.yul\":4063:4079   */\n      add\n        /* \"#utility.yul\":4057:4080   */\n      mload\n        /* \"#utility.yul\":4093:4156   */\n      tag_247\n        /* \"#utility.yul\":4150:4154   */\n      0x20\n        /* \"#utility.yul\":4145:4148   */\n      dup6\n        /* \"#utility.yul\":4141:4155   */\n      add\n        /* \"#utility.yul\":4127:4139   */\n      dup3\n        /* \"#utility.yul\":4093:4156   */\n      tag_170\n      jump\t// in\n    tag_247:\n        /* \"#utility.yul\":4004:4166   */\n      pop\n        /* \"#utility.yul\":4250:4254   */\n      0x40\n        /* \"#utility.yul\":4243:4248   */\n      dup3\n        /* \"#utility.yul\":4239:4255   */\n      add\n        /* \"#utility.yul\":4233:4256   */\n      mload\n        /* \"#utility.yul\":4269:4332   */\n      tag_248\n        /* \"#utility.yul\":4326:4330   */\n      0x40\n        /* \"#utility.yul\":4321:4324   */\n      dup6\n        /* \"#utility.yul\":4317:4331   */\n      add\n        /* \"#utility.yul\":4303:4315   */\n      dup3\n        /* \"#utility.yul\":4269:4332   */\n      tag_171\n      jump\t// in\n    tag_248:\n        /* \"#utility.yul\":4176:4342   */\n      pop\n        /* \"#utility.yul\":4429:4433   */\n      0x60\n        /* \"#utility.yul\":4422:4427   */\n      dup3\n        /* \"#utility.yul\":4418:4434   */\n      add\n        /* \"#utility.yul\":4412:4435   */\n      mload\n        /* \"#utility.yul\":4448:4505   */\n      tag_249\n        /* \"#utility.yul\":4499:4503   */\n      0x60\n        /* \"#utility.yul\":4494:4497   */\n      dup6\n        /* \"#utility.yul\":4490:4504   */\n      add\n        /* \"#utility.yul\":4476:4488   */\n      dup3\n        /* \"#utility.yul\":4448:4505   */\n      tag_172\n      jump\t// in\n    tag_249:\n        /* \"#utility.yul\":4352:4515   */\n      pop\n        /* \"#utility.yul\":4607:4611   */\n      0x80\n        /* \"#utility.yul\":4600:4605   */\n      dup3\n        /* \"#utility.yul\":4596:4612   */\n      add\n        /* \"#utility.yul\":4590:4613   */\n      mload\n        /* \"#utility.yul\":4626:4689   */\n      tag_250\n        /* \"#utility.yul\":4683:4687   */\n      0x80\n        /* \"#utility.yul\":4678:4681   */\n      dup6\n        /* \"#utility.yul\":4674:4688   */\n      add\n        /* \"#utility.yul\":4660:4672   */\n      dup3\n        /* \"#utility.yul\":4626:4689   */\n      tag_171\n      jump\t// in\n    tag_250:\n        /* \"#utility.yul\":4525:4699   */\n      pop\n        /* \"#utility.yul\":4799:4803   */\n      0xa0\n        /* \"#utility.yul\":4792:4797   */\n      dup3\n        /* \"#utility.yul\":4788:4804   */\n      add\n        /* \"#utility.yul\":4782:4805   */\n      mload\n        /* \"#utility.yul\":4818:4881   */\n      tag_251\n        /* \"#utility.yul\":4875:4879   */\n      0xa0\n        /* \"#utility.yul\":4870:4873   */\n      dup6\n        /* \"#utility.yul\":4866:4880   */\n      add\n        /* \"#utility.yul\":4852:4864   */\n      dup3\n        /* \"#utility.yul\":4818:4881   */\n      tag_171\n      jump\t// in\n    tag_251:\n        /* \"#utility.yul\":4709:4891   */\n      pop\n        /* \"#utility.yul\":3784:4898   */\n      pop\n        /* \"#utility.yul\":3664:4898   */\n      pop\n      pop\n      jump\t// out\n        /* \"#utility.yul\":4904:5235   */\n    tag_38:\n        /* \"#utility.yul\":5051:5055   */\n      0x00\n        /* \"#utility.yul\":5089:5092   */\n      0xc0\n        /* \"#utility.yul\":5078:5087   */\n      dup3\n        /* \"#utility.yul\":5074:5093   */\n      add\n        /* \"#utility.yul\":5066:5093   */\n      swap1\n      pop\n        /* \"#utility.yul\":5103:5228   */\n      tag_253\n        /* \"#utility.yul\":5225:5226   */\n      0x00\n        /* \"#utility.yul\":5214:5223   */\n      dup4\n        /* \"#utility.yul\":5210:5227   */\n      add\n        /* \"#utility.yul\":5201:5207   */\n      dup5\n        /* \"#utility.yul\":5103:5228   */\n      tag_173\n      jump\t// in\n    tag_253:\n        /* \"#utility.yul\":4904:5235   */\n      swap3\n      swap2\n      pop\n      pop\n      jump\t// out\n        /* \"#utility.yul\":5241:5463   */\n    tag_48:\n        /* \"#utility.yul\":5334:5338   */\n      0x00\n        /* \"#utility.yul\":5372:5374   */\n      0x20\n        /* \"#utility.yul\":5361:5370   */\n      dup3\n        /* \"#utility.yul\":5357:5375   */\n      add\n        /* \"#utility.yul\":5349:5375   */\n      swap1\n      pop\n        /* \"#utility.yul\":5385:5456   */\n      tag_255\n        /* \"#utility.yul\":5453:5454   */\n      0x00\n        /* \"#utility.yul\":5442:5451   */\n      dup4\n        /* \"#utility.yul\":5438:5455   */\n      add\n        /* \"#utility.yul\":5429:5435   */\n      dup5\n        /* \"#utility.yul\":5385:5456   */\n      tag_160\n      jump\t// in\n    tag_255:\n        /* \"#utility.yul\":5241:5463   */\n      swap3\n      swap2\n      pop\n      pop\n      jump\t// out\n        /* \"#utility.yul\":5469:5691   */\n    tag_57:\n        /* \"#utility.yul\":5562:5566   */\n      0x00\n        /* \"#utility.yul\":5600:5602   */\n      0x20\n        /* \"#utility.yul\":5589:5598   */\n      dup3\n        /* \"#utility.yul\":5585:5603   */\n      add\n        /* \"#utility.yul\":5577:5603   */\n      swap1\n      pop\n        /* \"#utility.yul\":5613:5684   */\n      tag_257\n        /* \"#utility.yul\":5681:5682   */\n      0x00\n        /* \"#utility.yul\":5670:5679   */\n      dup4\n        /* \"#utility.yul\":5666:5683   */\n      add\n        /* \"#utility.yul\":5657:5663   */\n      dup5\n        /* \"#utility.yul\":5613:5684   */\n      tag_159\n      jump\t// in\n    tag_257:\n        /* \"#utility.yul\":5469:5691   */\n      swap3\n      swap2\n      pop\n      pop\n      jump\t// out\n        /* \"#utility.yul\":5697:6460   */\n    tag_63:\n        /* \"#utility.yul\":5924:5928   */\n      0x00\n        /* \"#utility.yul\":5962:5965   */\n      0xc0\n        /* \"#utility.yul\":5951:5960   */\n      dup3\n        /* \"#utility.yul\":5947:5966   */\n      add\n        /* \"#utility.yul\":5939:5966   */\n      swap1\n      pop\n        /* \"#utility.yul\":5976:6047   */\n      tag_259\n        /* \"#utility.yul\":6044:6045   */\n      0x00\n        /* \"#utility.yul\":6033:6042   */\n      dup4\n        /* \"#utility.yul\":6029:6046   */\n      add\n        /* \"#utility.yul\":6020:6026   */\n      dup10\n        /* \"#utility.yul\":5976:6047   */\n      tag_159\n      jump\t// in\n    tag_259:\n        /* \"#utility.yul\":6057:6129   */\n      tag_260\n        /* \"#utility.yul\":6125:6127   */\n      0x20\n        /* \"#utility.yul\":6114:6123   */\n      dup4\n        /* \"#utility.yul\":6110:6128   */\n      add\n        /* \"#utility.yul\":6101:6107   */\n      dup9\n        /* \"#utility.yul\":6057:6129   */\n      tag_159\n      jump\t// in\n    tag_260:\n        /* \"#utility.yul\":6139:6211   */\n      tag_261\n        /* \"#utility.yul\":6207:6209   */\n      0x40\n        /* \"#utility.yul\":6196:6205   */\n      dup4\n        /* \"#utility.yul\":6192:6210   */\n      add\n        /* \"#utility.yul\":6183:6189   */\n      dup8\n        /* \"#utility.yul\":6139:6211   */\n      tag_160\n      jump\t// in\n    tag_261:\n        /* \"#utility.yul\":6221:6287   */\n      tag_262\n        /* \"#utility.yul\":6283:6285   */\n      0x60\n        /* \"#utility.yul\":6272:6281   */\n      dup4\n        /* \"#utility.yul\":6268:6286   */\n      add\n        /* \"#utility.yul\":6259:6265   */\n      dup7\n        /* \"#utility.yul\":6221:6287   */\n      tag_167\n      jump\t// in\n    tag_262:\n        /* \"#utility.yul\":6297:6370   */\n      tag_263\n        /* \"#utility.yul\":6365:6368   */\n      0x80\n        /* \"#utility.yul\":6354:6363   */\n      dup4\n        /* \"#utility.yul\":6350:6369   */\n      add\n        /* \"#utility.yul\":6341:6347   */\n      dup6\n        /* \"#utility.yul\":6297:6370   */\n      tag_160\n      jump\t// in\n    tag_263:\n        /* \"#utility.yul\":6380:6453   */\n      tag_264\n        /* \"#utility.yul\":6448:6451   */\n      0xa0\n        /* \"#utility.yul\":6437:6446   */\n      dup4\n        /* \"#utility.yul\":6433:6452   */\n      add\n        /* \"#utility.yul\":6424:6430   */\n      dup5\n        /* \"#utility.yul\":6380:6453   */\n      tag_160\n      jump\t// in\n    tag_264:\n        /* \"#utility.yul\":5697:6460   */\n      swap8\n      swap7\n      pop\n      pop\n      pop\n      pop\n      pop\n      pop\n      pop\n      jump\t// out\n        /* \"#utility.yul\":6466:7085   */\n    tag_67:\n        /* \"#utility.yul\":6543:6549   */\n      0x00\n        /* \"#utility.yul\":6551:6557   */\n      dup1\n        /* \"#utility.yul\":6559:6565   */\n      0x00\n        /* \"#utility.yul\":6608:6610   */\n      0x60\n        /* \"#utility.yul\":6596:6605   */\n      dup5\n        /* \"#utility.yul\":6587:6594   */\n      dup7\n        /* \"#utility.yul\":6583:6606   */\n      sub\n        /* \"#utility.yul\":6579:6611   */\n      slt\n        /* \"#utility.yul\":6576:6695   */\n      iszero\n      tag_266\n      jumpi\n        /* \"#utility.yul\":6614:6693   */\n      tag_267\n      tag_162\n      jump\t// in\n    tag_267:\n        /* \"#utility.yul\":6576:6695   */\n    tag_266:\n        /* \"#utility.yul\":6734:6735   */\n      0x00\n        /* \"#utility.yul\":6759:6812   */\n      tag_268\n        /* \"#utility.yul\":6804:6811   */\n      dup7\n        /* \"#utility.yul\":6795:6801   */\n      dup3\n        /* \"#utility.yul\":6784:6793   */\n      dup8\n        /* \"#utility.yul\":6780:6802   */\n      add\n        /* \"#utility.yul\":6759:6812   */\n      tag_165\n      jump\t// in\n    tag_268:\n        /* \"#utility.yul\":6749:6812   */\n      swap4\n      pop\n        /* \"#utility.yul\":6705:6822   */\n      pop\n        /* \"#utility.yul\":6861:6863   */\n      0x20\n        /* \"#utility.yul\":6887:6940   */\n      tag_269\n        /* \"#utility.yul\":6932:6939   */\n      dup7\n        /* \"#utility.yul\":6923:6929   */\n      dup3\n        /* \"#utility.yul\":6912:6921   */\n      dup8\n        /* \"#utility.yul\":6908:6930   */\n      add\n        /* \"#utility.yul\":6887:6940   */\n      tag_169\n      jump\t// in\n    tag_269:\n        /* \"#utility.yul\":6877:6940   */\n      swap3\n      pop\n        /* \"#utility.yul\":6832:6950   */\n      pop\n        /* \"#utility.yul\":6989:6991   */\n      0x40\n        /* \"#utility.yul\":7015:7068   */\n      tag_270\n        /* \"#utility.yul\":7060:7067   */\n      dup7\n        /* \"#utility.yul\":7051:7057   */\n      dup3\n        /* \"#utility.yul\":7040:7049   */\n      dup8\n        /* \"#utility.yul\":7036:7058   */\n      add\n        /* \"#utility.yul\":7015:7068   */\n      tag_169\n      jump\t// in\n    tag_270:\n        /* \"#utility.yul\":7005:7068   */\n      swap2\n      pop\n        /* \"#utility.yul\":6960:7078   */\n      pop\n        /* \"#utility.yul\":6466:7085   */\n      swap3\n      pop\n      swap3\n      pop\n      swap3\n      jump\t// out\n        /* \"#utility.yul\":7091:7205   */\n    tag_174:\n        /* \"#utility.yul\":7158:7164   */\n      0x00\n        /* \"#utility.yul\":7192:7197   */\n      dup2\n        /* \"#utility.yul\":7186:7198   */\n      mload\n        /* \"#utility.yul\":7176:7198   */\n      swap1\n      pop\n        /* \"#utility.yul\":7091:7205   */\n      swap2\n      swap1\n      pop\n      jump\t// out\n        /* \"#utility.yul\":7211:7395   */\n    tag_175:\n        /* \"#utility.yul\":7310:7321   */\n      0x00\n        /* \"#utility.yul\":7344:7350   */\n      dup3\n        /* \"#utility.yul\":7339:7342   */\n      dup3\n        /* \"#utility.yul\":7332:7351   */\n      mstore\n        /* \"#utility.yul\":7384:7388   */\n      0x20\n        /* \"#utility.yul\":7379:7382   */\n      dup3\n        /* \"#utility.yul\":7375:7389   */\n      add\n        /* \"#utility.yul\":7360:7389   */\n      swap1\n      pop\n        /* \"#utility.yul\":7211:7395   */\n      swap3\n      swap2\n      pop\n      pop\n      jump\t// out\n        /* \"#utility.yul\":7401:7533   */\n    tag_176:\n        /* \"#utility.yul\":7468:7472   */\n      0x00\n        /* \"#utility.yul\":7491:7494   */\n      dup2\n        /* \"#utility.yul\":7483:7494   */\n      swap1\n      pop\n        /* \"#utility.yul\":7521:7525   */\n      0x20\n        /* \"#utility.yul\":7516:7519   */\n      dup3\n        /* \"#utility.yul\":7512:7526   */\n      add\n        /* \"#utility.yul\":7504:7526   */\n      swap1\n      pop\n        /* \"#utility.yul\":7401:7533   */\n      swap2\n      swap1\n      pop\n      jump\t// out\n        /* \"#utility.yul\":7539:7718   */\n    tag_177:\n        /* \"#utility.yul\":7608:7618   */\n      0x00\n        /* \"#utility.yul\":7629:7675   */\n      tag_275\n        /* \"#utility.yul\":7671:7674   */\n      dup4\n        /* \"#utility.yul\":7663:7669   */\n      dup4\n        /* \"#utility.yul\":7629:7675   */\n      tag_171\n      jump\t// in\n    tag_275:\n        /* \"#utility.yul\":7707:7711   */\n      0x20\n        /* \"#utility.yul\":7702:7705   */\n      dup4\n        /* \"#utility.yul\":7698:7712   */\n      add\n        /* \"#utility.yul\":7684:7712   */\n      swap1\n      pop\n        /* \"#utility.yul\":7539:7718   */\n      swap3\n      swap2\n      pop\n      pop\n      jump\t// out\n        /* \"#utility.yul\":7724:7837   */\n    tag_178:\n        /* \"#utility.yul\":7794:7798   */\n      0x00\n        /* \"#utility.yul\":7826:7830   */\n      0x20\n        /* \"#utility.yul\":7821:7824   */\n      dup3\n        /* \"#utility.yul\":7817:7831   */\n      add\n        /* \"#utility.yul\":7809:7831   */\n      swap1\n      pop\n        /* \"#utility.yul\":7724:7837   */\n      swap2\n      swap1\n      pop\n      jump\t// out\n        /* \"#utility.yul\":7873:8605   */\n    tag_179:\n        /* \"#utility.yul\":7992:7995   */\n      0x00\n        /* \"#utility.yul\":8021:8075   */\n      tag_278\n        /* \"#utility.yul\":8069:8074   */\n      dup3\n        /* \"#utility.yul\":8021:8075   */\n      tag_174\n      jump\t// in\n    tag_278:\n        /* \"#utility.yul\":8091:8177   */\n      tag_279\n        /* \"#utility.yul\":8170:8176   */\n      dup2\n        /* \"#utility.yul\":8165:8168   */\n      dup6\n        /* \"#utility.yul\":8091:8177   */\n      tag_175\n      jump\t// in\n    tag_279:\n        /* \"#utility.yul\":8084:8177   */\n      swap4\n      pop\n        /* \"#utility.yul\":8201:8257   */\n      tag_280\n        /* \"#utility.yul\":8251:8256   */\n      dup4\n        /* \"#utility.yul\":8201:8257   */\n      tag_176\n      jump\t// in\n    tag_280:\n        /* \"#utility.yul\":8280:8287   */\n      dup1\n        /* \"#utility.yul\":8311:8312   */\n      0x00\n        /* \"#utility.yul\":8296:8580   */\n    tag_281:\n        /* \"#utility.yul\":8321:8327   */\n      dup4\n        /* \"#utility.yul\":8318:8319   */\n      dup2\n        /* \"#utility.yul\":8315:8328   */\n      lt\n        /* \"#utility.yul\":8296:8580   */\n      iszero\n      tag_283\n      jumpi\n        /* \"#utility.yul\":8397:8403   */\n      dup2\n        /* \"#utility.yul\":8391:8404   */\n      mload\n        /* \"#utility.yul\":8424:8487   */\n      tag_284\n        /* \"#utility.yul\":8483:8486   */\n      dup9\n        /* \"#utility.yul\":8468:8481   */\n      dup3\n        /* \"#utility.yul\":8424:8487   */\n      tag_177\n      jump\t// in\n    tag_284:\n        /* \"#utility.yul\":8417:8487   */\n      swap8\n      pop\n        /* \"#utility.yul\":8510:8570   */\n      tag_285\n        /* \"#utility.yul\":8563:8569   */\n      dup4\n        /* \"#utility.yul\":8510:8570   */\n      tag_178\n      jump\t// in\n    tag_285:\n        /* \"#utility.yul\":8500:8570   */\n      swap3\n      pop\n        /* \"#utility.yul\":8356:8580   */\n      pop\n        /* \"#utility.yul\":8343:8344   */\n      0x01\n        /* \"#utility.yul\":8340:8341   */\n      dup2\n        /* \"#utility.yul\":8336:8345   */\n      add\n        /* \"#utility.yul\":8331:8345   */\n      swap1\n      pop\n        /* \"#utility.yul\":8296:8580   */\n      jump(tag_281)\n    tag_283:\n        /* \"#utility.yul\":8300:8314   */\n      pop\n        /* \"#utility.yul\":8596:8599   */\n      dup6\n        /* \"#utility.yul\":8589:8599   */\n      swap4\n      pop\n        /* \"#utility.yul\":7997:8605   */\n      pop\n      pop\n      pop\n        /* \"#utility.yul\":7873:8605   */\n      swap3\n      swap2\n      pop\n      pop\n      jump\t// out\n        /* \"#utility.yul\":8611:8984   */\n    tag_73:\n        /* \"#utility.yul\":8754:8758   */\n      0x00\n        /* \"#utility.yul\":8792:8794   */\n      0x20\n        /* \"#utility.yul\":8781:8790   */\n      dup3\n        /* \"#utility.yul\":8777:8795   */\n      add\n        /* \"#utility.yul\":8769:8795   */\n      swap1\n      pop\n        /* \"#utility.yul\":8841:8850   */\n      dup2\n        /* \"#utility.yul\":8835:8839   */\n      dup2\n        /* \"#utility.yul\":8831:8851   */\n      sub\n        /* \"#utility.yul\":8827:8828   */\n      0x00\n        /* \"#utility.yul\":8816:8825   */\n      dup4\n        /* \"#utility.yul\":8812:8829   */\n      add\n        /* \"#utility.yul\":8805:8852   */\n      mstore\n        /* \"#utility.yul\":8869:8977   */\n      tag_287\n        /* \"#utility.yul\":8972:8976   */\n      dup2\n        /* \"#utility.yul\":8963:8969   */\n      dup5\n        /* \"#utility.yul\":8869:8977   */\n      tag_179\n      jump\t// in\n    tag_287:\n        /* \"#utility.yul\":8861:8977   */\n      swap1\n      pop\n        /* \"#utility.yul\":8611:8984   */\n      swap3\n      swap2\n      pop\n      pop\n      jump\t// out\n        /* \"#utility.yul\":8990:9159   */\n    tag_180:\n        /* \"#utility.yul\":9074:9085   */\n      0x00\n        /* \"#utility.yul\":9108:9114   */\n      dup3\n        /* \"#utility.yul\":9103:9106   */\n      dup3\n        /* \"#utility.yul\":9096:9115   */\n      mstore\n        /* \"#utility.yul\":9148:9152   */\n      0x20\n        /* \"#utility.yul\":9143:9146   */\n      dup3\n        /* \"#utility.yul\":9139:9153   */\n      add\n        /* \"#utility.yul\":9124:9153   */\n      swap1\n      pop\n        /* \"#utility.yul\":8990:9159   */\n      swap3\n      swap2\n      pop\n      pop\n      jump\t// out\n        /* \"#utility.yul\":9165:9332   */\n    tag_181:\n        /* \"#utility.yul\":9305:9324   */\n      0x596f752063616e27742061636365737321000000000000000000000000000000\n        /* \"#utility.yul\":9301:9302   */\n      0x00\n        /* \"#utility.yul\":9293:9299   */\n      dup3\n        /* \"#utility.yul\":9289:9303   */\n      add\n        /* \"#utility.yul\":9282:9325   */\n      mstore\n        /* \"#utility.yul\":9165:9332   */\n      pop\n      jump\t// out\n        /* \"#utility.yul\":9338:9704   */\n    tag_182:\n        /* \"#utility.yul\":9480:9483   */\n      0x00\n        /* \"#utility.yul\":9501:9568   */\n      tag_291\n        /* \"#utility.yul\":9565:9567   */\n      0x11\n        /* \"#utility.yul\":9560:9563   */\n      dup4\n        /* \"#utility.yul\":9501:9568   */\n      tag_180\n      jump\t// in\n    tag_291:\n        /* \"#utility.yul\":9494:9568   */\n      swap2\n      pop\n        /* \"#utility.yul\":9577:9670   */\n      tag_292\n        /* \"#utility.yul\":9666:9669   */\n      dup3\n        /* \"#utility.yul\":9577:9670   */\n      tag_181\n      jump\t// in\n    tag_292:\n        /* \"#utility.yul\":9695:9697   */\n      0x20\n        /* \"#utility.yul\":9690:9693   */\n      dup3\n        /* \"#utility.yul\":9686:9698   */\n      add\n        /* \"#utility.yul\":9679:9698   */\n      swap1\n      pop\n        /* \"#utility.yul\":9338:9704   */\n      swap2\n      swap1\n      pop\n      jump\t// out\n        /* \"#utility.yul\":9710:10129   */\n    tag_82:\n        /* \"#utility.yul\":9876:9880   */\n      0x00\n        /* \"#utility.yul\":9914:9916   */\n      0x20\n        /* \"#utility.yul\":9903:9912   */\n      dup3\n        /* \"#utility.yul\":9899:9917   */\n      add\n        /* \"#utility.yul\":9891:9917   */\n      swap1\n      pop\n        /* \"#utility.yul\":9963:9972   */\n      dup2\n        /* \"#utility.yul\":9957:9961   */\n      dup2\n        /* \"#utility.yul\":9953:9973   */\n      sub\n        /* \"#utility.yul\":9949:9950   */\n      0x00\n        /* \"#utility.yul\":9938:9947   */\n      dup4\n        /* \"#utility.yul\":9934:9951   */\n      add\n        /* \"#utility.yul\":9927:9974   */\n      mstore\n        /* \"#utility.yul\":9991:10122   */\n      tag_294\n        /* \"#utility.yul\":10117:10121   */\n      dup2\n        /* \"#utility.yul\":9991:10122   */\n      tag_182\n      jump\t// in\n    tag_294:\n        /* \"#utility.yul\":9983:10122   */\n      swap1\n      pop\n        /* \"#utility.yul\":9710:10129   */\n      swap2\n      swap1\n      pop\n      jump\t// out\n        /* \"#utility.yul\":10135:10303   */\n    tag_183:\n        /* \"#utility.yul\":10275:10295   */\n      0x596f7520617265206e6f74206f776e6572210000000000000000000000000000\n        /* \"#utility.yul\":10271:10272   */\n      0x00\n        /* \"#utility.yul\":10263:10269   */\n      dup3\n        /* \"#utility.yul\":10259:10273   */\n      add\n        /* \"#utility.yul\":10252:10296   */\n      mstore\n        /* \"#utility.yul\":10135:10303   */\n      pop\n      jump\t// out\n        /* \"#utility.yul\":10309:10675   */\n    tag_184:\n        /* \"#utility.yul\":10451:10454   */\n      0x00\n        /* \"#utility.yul\":10472:10539   */\n      tag_297\n        /* \"#utility.yul\":10536:10538   */\n      0x12\n        /* \"#utility.yul\":10531:10534   */\n      dup4\n        /* \"#utility.yul\":10472:10539   */\n      tag_180\n      jump\t// in\n    tag_297:\n        /* \"#utility.yul\":10465:10539   */\n      swap2\n      pop\n        /* \"#utility.yul\":10548:10641   */\n      tag_298\n        /* \"#utility.yul\":10637:10640   */\n      dup3\n        /* \"#utility.yul\":10548:10641   */\n      tag_183\n      jump\t// in\n    tag_298:\n        /* \"#utility.yul\":10666:10668   */\n      0x20\n        /* \"#utility.yul\":10661:10664   */\n      dup3\n        /* \"#utility.yul\":10657:10669   */\n      add\n        /* \"#utility.yul\":10650:10669   */\n      swap1\n      pop\n        /* \"#utility.yul\":10309:10675   */\n      swap2\n      swap1\n      pop\n      jump\t// out\n        /* \"#utility.yul\":10681:11100   */\n    tag_90:\n        /* \"#utility.yul\":10847:10851   */\n      0x00\n        /* \"#utility.yul\":10885:10887   */\n      0x20\n        /* \"#utility.yul\":10874:10883   */\n      dup3\n        /* \"#utility.yul\":10870:10888   */\n      add\n        /* \"#utility.yul\":10862:10888   */\n      swap1\n      pop\n        /* \"#utility.yul\":10934:10943   */\n      dup2\n        /* \"#utility.yul\":10928:10932   */\n      dup2\n        /* \"#utility.yul\":10924:10944   */\n      sub\n        /* \"#utility.yul\":10920:10921   */\n      0x00\n        /* \"#utility.yul\":10909:10918   */\n      dup4\n        /* \"#utility.yul\":10905:10922   */\n      add\n        /* \"#utility.yul\":10898:10945   */\n      mstore\n        /* \"#utility.yul\":10962:11093   */\n      tag_300\n        /* \"#utility.yul\":11088:11092   */\n      dup2\n        /* \"#utility.yul\":10962:11093   */\n      tag_184\n      jump\t// in\n    tag_300:\n        /* \"#utility.yul\":10954:11093   */\n      swap1\n      pop\n        /* \"#utility.yul\":10681:11100   */\n      swap2\n      swap1\n      pop\n      jump\t// out\n        /* \"#utility.yul\":11106:11278   */\n    tag_185:\n        /* \"#utility.yul\":11246:11270   */\n      0x5472616e73616374696f6e206d75737420657869737400000000000000000000\n        /* \"#utility.yul\":11242:11243   */\n      0x00\n        /* \"#utility.yul\":11234:11240   */\n      dup3\n        /* \"#utility.yul\":11230:11244   */\n      add\n        /* \"#utility.yul\":11223:11271   */\n      mstore\n        /* \"#utility.yul\":11106:11278   */\n      pop\n      jump\t// out\n        /* \"#utility.yul\":11284:11650   */\n    tag_186:\n        /* \"#utility.yul\":11426:11429   */\n      0x00\n        /* \"#utility.yul\":11447:11514   */\n      tag_303\n        /* \"#utility.yul\":11511:11513   */\n      0x16\n        /* \"#utility.yul\":11506:11509   */\n      dup4\n        /* \"#utility.yul\":11447:11514   */\n      tag_180\n      jump\t// in\n    tag_303:\n        /* \"#utility.yul\":11440:11514   */\n      swap2\n      pop\n        /* \"#utility.yul\":11523:11616   */\n      tag_304\n        /* \"#utility.yul\":11612:11615   */\n      dup3\n        /* \"#utility.yul\":11523:11616   */\n      tag_185\n      jump\t// in\n    tag_304:\n        /* \"#utility.yul\":11641:11643   */\n      0x20\n        /* \"#utility.yul\":11636:11639   */\n      dup3\n        /* \"#utility.yul\":11632:11644   */\n      add\n        /* \"#utility.yul\":11625:11644   */\n      swap1\n      pop\n        /* \"#utility.yul\":11284:11650   */\n      swap2\n      swap1\n      pop\n      jump\t// out\n        /* \"#utility.yul\":11656:12075   */\n    tag_99:\n        /* \"#utility.yul\":11822:11826   */\n      0x00\n        /* \"#utility.yul\":11860:11862   */\n      0x20\n        /* \"#utility.yul\":11849:11858   */\n      dup3\n        /* \"#utility.yul\":11845:11863   */\n      add\n        /* \"#utility.yul\":11837:11863   */\n      swap1\n      pop\n        /* \"#utility.yul\":11909:11918   */\n      dup2\n        /* \"#utility.yul\":11903:11907   */\n      dup2\n        /* \"#utility.yul\":11899:11919   */\n      sub\n        /* \"#utility.yul\":11895:11896   */\n      0x00\n        /* \"#utility.yul\":11884:11893   */\n      dup4\n        /* \"#utility.yul\":11880:11897   */\n      add\n        /* \"#utility.yul\":11873:11920   */\n      mstore\n        /* \"#utility.yul\":11937:12068   */\n      tag_306\n        /* \"#utility.yul\":12063:12067   */\n      dup2\n        /* \"#utility.yul\":11937:12068   */\n      tag_186\n      jump\t// in\n    tag_306:\n        /* \"#utility.yul\":11929:12068   */\n      swap1\n      pop\n        /* \"#utility.yul\":11656:12075   */\n      swap2\n      swap1\n      pop\n      jump\t// out\n        /* \"#utility.yul\":12081:12303   */\n    tag_187:\n        /* \"#utility.yul\":12221:12255   */\n      0x43726561746f722063616e6e6f74207369676e20746865207472616e73616374\n        /* \"#utility.yul\":12217:12218   */\n      0x00\n        /* \"#utility.yul\":12209:12215   */\n      dup3\n        /* \"#utility.yul\":12205:12219   */\n      add\n        /* \"#utility.yul\":12198:12256   */\n      mstore\n        /* \"#utility.yul\":12290:12295   */\n      0x696f6e0000000000000000000000000000000000000000000000000000000000\n        /* \"#utility.yul\":12285:12287   */\n      0x20\n        /* \"#utility.yul\":12277:12283   */\n      dup3\n        /* \"#utility.yul\":12273:12288   */\n      add\n        /* \"#utility.yul\":12266:12296   */\n      mstore\n        /* \"#utility.yul\":12081:12303   */\n      pop\n      jump\t// out\n        /* \"#utility.yul\":12309:12675   */\n    tag_188:\n        /* \"#utility.yul\":12451:12454   */\n      0x00\n        /* \"#utility.yul\":12472:12539   */\n      tag_309\n        /* \"#utility.yul\":12536:12538   */\n      0x23\n        /* \"#utility.yul\":12531:12534   */\n      dup4\n        /* \"#utility.yul\":12472:12539   */\n      tag_180\n      jump\t// in\n    tag_309:\n        /* \"#utility.yul\":12465:12539   */\n      swap2\n      pop\n        /* \"#utility.yul\":12548:12641   */\n      tag_310\n        /* \"#utility.yul\":12637:12640   */\n      dup3\n        /* \"#utility.yul\":12548:12641   */\n      tag_187\n      jump\t// in\n    tag_310:\n        /* \"#utility.yul\":12666:12668   */\n      0x40\n        /* \"#utility.yul\":12661:12664   */\n      dup3\n        /* \"#utility.yul\":12657:12669   */\n      add\n        /* \"#utility.yul\":12650:12669   */\n      swap1\n      pop\n        /* \"#utility.yul\":12309:12675   */\n      swap2\n      swap1\n      pop\n      jump\t// out\n        /* \"#utility.yul\":12681:13100   */\n    tag_102:\n        /* \"#utility.yul\":12847:12851   */\n      0x00\n        /* \"#utility.yul\":12885:12887   */\n      0x20\n        /* \"#utility.yul\":12874:12883   */\n      dup3\n        /* \"#utility.yul\":12870:12888   */\n      add\n        /* \"#utility.yul\":12862:12888   */\n      swap1\n      pop\n        /* \"#utility.yul\":12934:12943   */\n      dup2\n        /* \"#utility.yul\":12928:12932   */\n      dup2\n        /* \"#utility.yul\":12924:12944   */\n      sub\n        /* \"#utility.yul\":12920:12921   */\n      0x00\n        /* \"#utility.yul\":12909:12918   */\n      dup4\n        /* \"#utility.yul\":12905:12922   */\n      add\n        /* \"#utility.yul\":12898:12945   */\n      mstore\n        /* \"#utility.yul\":12962:13093   */\n      tag_312\n        /* \"#utility.yul\":13088:13092   */\n      dup2\n        /* \"#utility.yul\":12962:13093   */\n      tag_188\n      jump\t// in\n    tag_312:\n        /* \"#utility.yul\":12954:13093   */\n      swap1\n      pop\n        /* \"#utility.yul\":12681:13100   */\n      swap2\n      swap1\n      pop\n      jump\t// out\n        /* \"#utility.yul\":13106:13339   */\n    tag_189:\n        /* \"#utility.yul\":13246:13280   */\n      0x596f752063616e6e6f74207369676e20746865207472616e73616374696f6e20\n        /* \"#utility.yul\":13242:13243   */\n      0x00\n        /* \"#utility.yul\":13234:13240   */\n      dup3\n        /* \"#utility.yul\":13230:13244   */\n      add\n        /* \"#utility.yul\":13223:13281   */\n      mstore\n        /* \"#utility.yul\":13315:13331   */\n      0x6d6f7265207468616e206f6e6365000000000000000000000000000000000000\n        /* \"#utility.yul\":13310:13312   */\n      0x20\n        /* \"#utility.yul\":13302:13308   */\n      dup3\n        /* \"#utility.yul\":13298:13313   */\n      add\n        /* \"#utility.yul\":13291:13332   */\n      mstore\n        /* \"#utility.yul\":13106:13339   */\n      pop\n      jump\t// out\n        /* \"#utility.yul\":13345:13711   */\n    tag_190:\n        /* \"#utility.yul\":13487:13490   */\n      0x00\n        /* \"#utility.yul\":13508:13575   */\n      tag_315\n        /* \"#utility.yul\":13572:13574   */\n      0x2e\n        /* \"#utility.yul\":13567:13570   */\n      dup4\n        /* \"#utility.yul\":13508:13575   */\n      tag_180\n      jump\t// in\n    tag_315:\n        /* \"#utility.yul\":13501:13575   */\n      swap2\n      pop\n        /* \"#utility.yul\":13584:13677   */\n      tag_316\n        /* \"#utility.yul\":13673:13676   */\n      dup3\n        /* \"#utility.yul\":13584:13677   */\n      tag_189\n      jump\t// in\n    tag_316:\n        /* \"#utility.yul\":13702:13704   */\n      0x40\n        /* \"#utility.yul\":13697:13700   */\n      dup3\n        /* \"#utility.yul\":13693:13705   */\n      add\n        /* \"#utility.yul\":13686:13705   */\n      swap1\n      pop\n        /* \"#utility.yul\":13345:13711   */\n      swap2\n      swap1\n      pop\n      jump\t// out\n        /* \"#utility.yul\":13717:14136   */\n    tag_105:\n        /* \"#utility.yul\":13883:13887   */\n      0x00\n        /* \"#utility.yul\":13921:13923   */\n      0x20\n        /* \"#utility.yul\":13910:13919   */\n      dup3\n        /* \"#utility.yul\":13906:13924   */\n      add\n        /* \"#utility.yul\":13898:13924   */\n      swap1\n      pop\n        /* \"#utility.yul\":13970:13979   */\n      dup2\n        /* \"#utility.yul\":13964:13968   */\n      dup2\n        /* \"#utility.yul\":13960:13980   */\n      sub\n        /* \"#utility.yul\":13956:13957   */\n      0x00\n        /* \"#utility.yul\":13945:13954   */\n      dup4\n        /* \"#utility.yul\":13941:13958   */\n      add\n        /* \"#utility.yul\":13934:13981   */\n      mstore\n        /* \"#utility.yul\":13998:14129   */\n      tag_318\n        /* \"#utility.yul\":14124:14128   */\n      dup2\n        /* \"#utility.yul\":13998:14129   */\n      tag_190\n      jump\t// in\n    tag_318:\n        /* \"#utility.yul\":13990:14129   */\n      swap1\n      pop\n        /* \"#utility.yul\":13717:14136   */\n      swap2\n      swap1\n      pop\n      jump\t// out\n        /* \"#utility.yul\":14142:14308   */\n    tag_191:\n        /* \"#utility.yul\":14282:14300   */\n      0x4e6f7420656e6f756768742066756e6400000000000000000000000000000000\n        /* \"#utility.yul\":14278:14279   */\n      0x00\n        /* \"#utility.yul\":14270:14276   */\n      dup3\n        /* \"#utility.yul\":14266:14280   */\n      add\n        /* \"#utility.yul\":14259:14301   */\n      mstore\n        /* \"#utility.yul\":14142:14308   */\n      pop\n      jump\t// out\n        /* \"#utility.yul\":14314:14680   */\n    tag_192:\n        /* \"#utility.yul\":14456:14459   */\n      0x00\n        /* \"#utility.yul\":14477:14544   */\n      tag_321\n        /* \"#utility.yul\":14541:14543   */\n      0x10\n        /* \"#utility.yul\":14536:14539   */\n      dup4\n        /* \"#utility.yul\":14477:14544   */\n      tag_180\n      jump\t// in\n    tag_321:\n        /* \"#utility.yul\":14470:14544   */\n      swap2\n      pop\n        /* \"#utility.yul\":14553:14646   */\n      tag_322\n        /* \"#utility.yul\":14642:14645   */\n      dup3\n        /* \"#utility.yul\":14553:14646   */\n      tag_191\n      jump\t// in\n    tag_322:\n        /* \"#utility.yul\":14671:14673   */\n      0x20\n        /* \"#utility.yul\":14666:14669   */\n      dup3\n        /* \"#utility.yul\":14662:14674   */\n      add\n        /* \"#utility.yul\":14655:14674   */\n      swap1\n      pop\n        /* \"#utility.yul\":14314:14680   */\n      swap2\n      swap1\n      pop\n      jump\t// out\n        /* \"#utility.yul\":14686:15105   */\n    tag_111:\n        /* \"#utility.yul\":14852:14856   */\n      0x00\n        /* \"#utility.yul\":14890:14892   */\n      0x20\n        /* \"#utility.yul\":14879:14888   */\n      dup3\n        /* \"#utility.yul\":14875:14893   */\n      add\n        /* \"#utility.yul\":14867:14893   */\n      swap1\n      pop\n        /* \"#utility.yul\":14939:14948   */\n      dup2\n        /* \"#utility.yul\":14933:14937   */\n      dup2\n        /* \"#utility.yul\":14929:14949   */\n      sub\n        /* \"#utility.yul\":14925:14926   */\n      0x00\n        /* \"#utility.yul\":14914:14923   */\n      dup4\n        /* \"#utility.yul\":14910:14927   */\n      add\n        /* \"#utility.yul\":14903:14950   */\n      mstore\n        /* \"#utility.yul\":14967:15098   */\n      tag_324\n        /* \"#utility.yul\":15093:15097   */\n      dup2\n        /* \"#utility.yul\":14967:15098   */\n      tag_192\n      jump\t// in\n    tag_324:\n        /* \"#utility.yul\":14959:15098   */\n      swap1\n      pop\n        /* \"#utility.yul\":14686:15105   */\n      swap2\n      swap1\n      pop\n      jump\t// out\n        /* \"#utility.yul\":15111:15664   */\n    tag_115:\n        /* \"#utility.yul\":15288:15292   */\n      0x00\n        /* \"#utility.yul\":15326:15329   */\n      0x80\n        /* \"#utility.yul\":15315:15324   */\n      dup3\n        /* \"#utility.yul\":15311:15330   */\n      add\n        /* \"#utility.yul\":15303:15330   */\n      swap1\n      pop\n        /* \"#utility.yul\":15340:15411   */\n      tag_326\n        /* \"#utility.yul\":15408:15409   */\n      0x00\n        /* \"#utility.yul\":15397:15406   */\n      dup4\n        /* \"#utility.yul\":15393:15410   */\n      add\n        /* \"#utility.yul\":15384:15390   */\n      dup8\n        /* \"#utility.yul\":15340:15411   */\n      tag_159\n      jump\t// in\n    tag_326:\n        /* \"#utility.yul\":15421:15493   */\n      tag_327\n        /* \"#utility.yul\":15489:15491   */\n      0x20\n        /* \"#utility.yul\":15478:15487   */\n      dup4\n        /* \"#utility.yul\":15474:15492   */\n      add\n        /* \"#utility.yul\":15465:15471   */\n      dup7\n        /* \"#utility.yul\":15421:15493   */\n      tag_159\n      jump\t// in\n    tag_327:\n        /* \"#utility.yul\":15503:15575   */\n      tag_328\n        /* \"#utility.yul\":15571:15573   */\n      0x40\n        /* \"#utility.yul\":15560:15569   */\n      dup4\n        /* \"#utility.yul\":15556:15574   */\n      add\n        /* \"#utility.yul\":15547:15553   */\n      dup6\n        /* \"#utility.yul\":15503:15575   */\n      tag_160\n      jump\t// in\n    tag_328:\n        /* \"#utility.yul\":15585:15657   */\n      tag_329\n        /* \"#utility.yul\":15653:15655   */\n      0x60\n        /* \"#utility.yul\":15642:15651   */\n      dup4\n        /* \"#utility.yul\":15638:15656   */\n      add\n        /* \"#utility.yul\":15629:15635   */\n      dup5\n        /* \"#utility.yul\":15585:15657   */\n      tag_160\n      jump\t// in\n    tag_329:\n        /* \"#utility.yul\":15111:15664   */\n      swap6\n      swap5\n      pop\n      pop\n      pop\n      pop\n      pop\n      jump\t// out\n        /* \"#utility.yul\":15670:15839   */\n    tag_193:\n        /* \"#utility.yul\":15810:15831   */\n      0x4e6f7420656e6f756768742062616c616e636500000000000000000000000000\n        /* \"#utility.yul\":15806:15807   */\n      0x00\n        /* \"#utility.yul\":15798:15804   */\n      dup3\n        /* \"#utility.yul\":15794:15808   */\n      add\n        /* \"#utility.yul\":15787:15832   */\n      mstore\n        /* \"#utility.yul\":15670:15839   */\n      pop\n      jump\t// out\n        /* \"#utility.yul\":15845:16211   */\n    tag_194:\n        /* \"#utility.yul\":15987:15990   */\n      0x00\n        /* \"#utility.yul\":16008:16075   */\n      tag_332\n        /* \"#utility.yul\":16072:16074   */\n      0x13\n        /* \"#utility.yul\":16067:16070   */\n      dup4\n        /* \"#utility.yul\":16008:16075   */\n      tag_180\n      jump\t// in\n    tag_332:\n        /* \"#utility.yul\":16001:16075   */\n      swap2\n      pop\n        /* \"#utility.yul\":16084:16177   */\n      tag_333\n        /* \"#utility.yul\":16173:16176   */\n      dup3\n        /* \"#utility.yul\":16084:16177   */\n      tag_193\n      jump\t// in\n    tag_333:\n        /* \"#utility.yul\":16202:16204   */\n      0x20\n        /* \"#utility.yul\":16197:16200   */\n      dup3\n        /* \"#utility.yul\":16193:16205   */\n      add\n        /* \"#utility.yul\":16186:16205   */\n      swap1\n      pop\n        /* \"#utility.yul\":15845:16211   */\n      swap2\n      swap1\n      pop\n      jump\t// out\n        /* \"#utility.yul\":16217:16636   */\n    tag_131:\n        /* \"#utility.yul\":16383:16387   */\n      0x00\n        /* \"#utility.yul\":16421:16423   */\n      0x20\n        /* \"#utility.yul\":16410:16419   */\n      dup3\n        /* \"#utility.yul\":16406:16424   */\n      add\n        /* \"#utility.yul\":16398:16424   */\n      swap1\n      pop\n        /* \"#utility.yul\":16470:16479   */\n      dup2\n        /* \"#utility.yul\":16464:16468   */\n      dup2\n        /* \"#utility.yul\":16460:16480   */\n      sub\n        /* \"#utility.yul\":16456:16457   */\n      0x00\n        /* \"#utility.yul\":16445:16454   */\n      dup4\n        /* \"#utility.yul\":16441:16458   */\n      add\n        /* \"#utility.yul\":16434:16481   */\n      mstore\n        /* \"#utility.yul\":16498:16629   */\n      tag_335\n        /* \"#utility.yul\":16624:16628   */\n      dup2\n        /* \"#utility.yul\":16498:16629   */\n      tag_194\n      jump\t// in\n    tag_335:\n        /* \"#utility.yul\":16490:16629   */\n      swap1\n      pop\n        /* \"#utility.yul\":16217:16636   */\n      swap2\n      swap1\n      pop\n      jump\t// out\n        /* \"#utility.yul\":16642:16875   */\n    tag_133:\n        /* \"#utility.yul\":16681:16684   */\n      0x00\n        /* \"#utility.yul\":16704:16728   */\n      tag_337\n        /* \"#utility.yul\":16722:16727   */\n      dup3\n        /* \"#utility.yul\":16704:16728   */\n      tag_155\n      jump\t// in\n    tag_337:\n        /* \"#utility.yul\":16695:16728   */\n      swap2\n      pop\n        /* \"#utility.yul\":16750:16816   */\n      0xffffffffffffffffffffffffffffffffffffffffffffffffffffffffffffffff\n        /* \"#utility.yul\":16743:16748   */\n      dup3\n        /* \"#utility.yul\":16740:16817   */\n      sub\n        /* \"#utility.yul\":16737:16840   */\n      tag_338\n      jumpi\n        /* \"#utility.yul\":16820:16838   */\n      tag_339\n      tag_156\n      jump\t// in\n    tag_339:\n        /* \"#utility.yul\":16737:16840   */\n    tag_338:\n        /* \"#utility.yul\":16867:16868   */\n      0x01\n        /* \"#utility.yul\":16860:16865   */\n      dup3\n        /* \"#utility.yul\":16856:16869   */\n      add\n        /* \"#utility.yul\":16849:16869   */\n      swap1\n      pop\n        /* \"#utility.yul\":16642:16875   */\n      swap2\n      swap1\n      pop\n      jump\t// out\n        /* \"#utility.yul\":16881:17323   */\n    tag_136:\n        /* \"#utility.yul\":17030:17034   */\n      0x00\n        /* \"#utility.yul\":17068:17070   */\n      0x60\n        /* \"#utility.yul\":17057:17066   */\n      dup3\n        /* \"#utility.yul\":17053:17071   */\n      add\n        /* \"#utility.yul\":17045:17071   */\n      swap1\n      pop\n        /* \"#utility.yul\":17081:17152   */\n      tag_341\n        /* \"#utility.yul\":17149:17150   */\n      0x00\n        /* \"#utility.yul\":17138:17147   */\n      dup4\n        /* \"#utility.yul\":17134:17151   */\n      add\n        /* \"#utility.yul\":17125:17131   */\n      dup7\n        /* \"#utility.yul\":17081:17152   */\n      tag_159\n      jump\t// in\n    tag_341:\n        /* \"#utility.yul\":17162:17234   */\n      tag_342\n        /* \"#utility.yul\":17230:17232   */\n      0x20\n        /* \"#utility.yul\":17219:17228   */\n      dup4\n        /* \"#utility.yul\":17215:17233   */\n      add\n        /* \"#utility.yul\":17206:17212   */\n      dup6\n        /* \"#utility.yul\":17162:17234   */\n      tag_159\n      jump\t// in\n    tag_342:\n        /* \"#utility.yul\":17244:17316   */\n      tag_343\n        /* \"#utility.yul\":17312:17314   */\n      0x40\n        /* \"#utility.yul\":17301:17310   */\n      dup4\n        /* \"#utility.yul\":17297:17315   */\n      add\n        /* \"#utility.yul\":17288:17294   */\n      dup5\n        /* \"#utility.yul\":17244:17316   */\n      tag_160\n      jump\t// in\n    tag_343:\n        /* \"#utility.yul\":16881:17323   */\n      swap5\n      swap4\n      pop\n      pop\n      pop\n      pop\n      jump\t// out\n        /* \"#utility.yul\":17329:17509   */\n    tag_153:\n        /* \"#utility.yul\":17377:17454   */\n      0x4e487b7100000000000000000000000000000000000000000000000000000000\n        /* \"#utility.yul\":17374:17375   */\n      0x00\n        /* \"#utility.yul\":17367:17455   */\n      mstore\n        /* \"#utility.yul\":17474:17478   */\n      0x32\n        /* \"#utility.yul\":17471:17472   */\n      0x04\n        /* \"#utility.yul\":17464:17479   */\n      mstore\n        /* \"#utility.yul\":17498:17502   */\n      0x24\n        /* \"#utility.yul\":17495:17496   */\n      0x00\n        /* \"#utility.yul\":17488:17503   */\n      revert\n\n    auxdata: 0xa2646970667358221220a76dd7928803b989ad7ab09eefd27e52658a402df7e758a9e088d9bc49e90b3164736f6c63430008120033\n}\n",
				"bytecode": {
					"linkReferences": {},
					"object": "608060405234801561001057600080fd5b50336000806101000a81548173ffffffffffffffffffffffffffffffffffffffff021916908373ffffffffffffffffffffffffffffffffffffffff160217905550611db6806100606000396000f3fe6080604052600436106100a05760003560e01c80637065cb48116100645780637065cb48146102445780638da5cb5b1461026d5780639ace38c214610298578063b1973bcc146102da578063d11db83f14610303578063e2ae93fb1461032e57610136565b8063022914a71461013b578063173825d91461017857806323fbae41146101a15780635d9ec210146101de57806363a8374d1461020757610136565b366101365734600460003373ffffffffffffffffffffffffffffffffffffffff1673ffffffffffffffffffffffffffffffffffffffff16815260200190815260200160002060008282546100f49190611524565b925050819055507fd241e73300212f6df233a8e6d3146b88a9d4964e06621d54b5ff6afeba7b1b88333460405161012c9291906115a8565b60405180910390a1005b600080fd5b34801561014757600080fd5b50610162600480360381019061015d9190611602565b61036b565b60405161016f919061164a565b60405180910390f35b34801561018457600080fd5b5061019f600480360381019061019a9190611602565b61038b565b005b3480156101ad57600080fd5b506101c860048036038101906101c39190611691565b610474565b6040516101d59190611766565b60405180910390f35b3480156101ea57600080fd5b5061020560048036038101906102009190611691565b61066f565b005b34801561021357600080fd5b5061022e60048036038101906102299190611691565b610c44565b60405161023b9190611781565b60405180910390f35b34801561025057600080fd5b5061026b60048036038101906102669190611602565b610c68565b005b34801561027957600080fd5b50610282610d51565b60405161028f919061179c565b60405180910390f35b3480156102a457600080fd5b506102bf60048036038101906102ba9190611691565b610d75565b6040516102d1969594939291906117b7565b60405180910390f35b3480156102e657600080fd5b5061030160048036038101906102fc9190611818565b610dfe565b005b34801561030f57600080fd5b5061031861112d565b604051610325919061191a565b60405180910390f35b34801561033a57600080fd5b5061035560048036038101906103509190611602565b61126e565b6040516103629190611781565b60405180910390f35b60036020528060005260406000206000915054906101000a900460ff1681565b60008054906101000a900473ffffffffffffffffffffffffffffffffffffffff1673ffffffffffffffffffffffffffffffffffffffff163373ffffffffffffffffffffffffffffffffffffffff1614610419576040517f08c379a000000000000000000000000000000000000000000000000000000000815260040161041090611999565b60405180910390fd5b6000600360008373ffffffffffffffffffffffffffffffffffffffff1673ffffffffffffffffffffffffffffffffffffffff16815260200190815260200160002060006101000a81548160ff02191690831515021790555050565b61047c611487565b60008054906101000a900473ffffffffffffffffffffffffffffffffffffffff1673ffffffffffffffffffffffffffffffffffffffff163373ffffffffffffffffffffffffffffffffffffffff161480610526575060011515600360003373ffffffffffffffffffffffffffffffffffffffff1673ffffffffffffffffffffffffffffffffffffffff16815260200190815260200160002060009054906101000a900460ff161515145b610565576040517f08c379a000000000000000000000000000000000000000000000000000000000815260040161055c90611a05565b60405180910390fd5b600660008381526020019081526020016000206040518060c00160405290816000820160009054906101000a900473ffffffffffffffffffffffffffffffffffffffff1673ffffffffffffffffffffffffffffffffffffffff1673ffffffffffffffffffffffffffffffffffffffff1681526020016001820160009054906101000a900473ffffffffffffffffffffffffffffffffffffffff1673ffffffffffffffffffffffffffffffffffffffff1673ffffffffffffffffffffffffffffffffffffffff168152602001600282015481526020016003820160009054906101000a900460ff16151515158152602001600482015481526020016005820154815250509050919050565b60008054906101000a900473ffffffffffffffffffffffffffffffffffffffff1673ffffffffffffffffffffffffffffffffffffffff163373ffffffffffffffffffffffffffffffffffffffff161480610719575060011515600360003373ffffffffffffffffffffffffffffffffffffffff1673ffffffffffffffffffffffffffffffffffffffff16815260200190815260200160002060009054906101000a900460ff161515145b610758576040517f08c379a000000000000000000000000000000000000000000000000000000000815260040161074f90611a05565b60405180910390fd5b6000600660008381526020019081526020016000209050600073ffffffffffffffffffffffffffffffffffffffff168160000160009054906101000a900473ffffffffffffffffffffffffffffffffffffffff1673ffffffffffffffffffffffffffffffffffffffff1603610802576040517f08c379a00000000000000000000000000000000000000000000000000000000081526004016107f990611a71565b60405180910390fd5b3373ffffffffffffffffffffffffffffffffffffffff168160000160009054906101000a900473ffffffffffffffffffffffffffffffffffffffff1673ffffffffffffffffffffffffffffffffffffffff1603610894576040517f08c379a000000000000000000000000000000000000000000000000000000000815260040161088b90611b03565b60405180910390fd5b6005600083815260200190815260200160002060003373ffffffffffffffffffffffffffffffffffffffff1673ffffffffffffffffffffffffffffffffffffffff16815260200190815260200160002060009054906101000a900460ff1615610932576040517f08c379a000000000000000000000000000000000000000000000000000000000815260040161092990611b95565b60405180910390fd5b600181600401546109439190611524565b816004018190555060016005600084815260200190815260200160002060003373ffffffffffffffffffffffffffffffffffffffff1673ffffffffffffffffffffffffffffffffffffffff16815260200190815260200160002060006101000a81548160ff0219169083151502179055507fac63e7e1dc16bccf900879686e74ca33eeb175b670e3aaa9d7e4ccf3781b7a7a33836040516109e59291906115a8565b60405180910390a18060050154816004015410610c40578060020154600460008360000160009054906101000a900473ffffffffffffffffffffffffffffffffffffffff1673ffffffffffffffffffffffffffffffffffffffff1673ffffffffffffffffffffffffffffffffffffffff168152602001908152602001600020541015610aa6576040517f08c379a0000000000000000000000000000000000000000000000000000000008152600401610a9d90611c01565b60405180910390fd5b8060010160009054906101000a900473ffffffffffffffffffffffffffffffffffffffff1673ffffffffffffffffffffffffffffffffffffffff166108fc82600201549081150290604051600060405180830381858888f19350505050158015610b14573d6000803e3d6000fd5b5060016006600084815260200190815260200160002060030160006101000a81548160ff0219169083151502179055506000600460008360000160009054906101000a900473ffffffffffffffffffffffffffffffffffffffff1673ffffffffffffffffffffffffffffffffffffffff1673ffffffffffffffffffffffffffffffffffffffff168152602001908152602001600020819055507f394c4e679790fab24fd86614fd812811c9c835e4c475bdfc3d26fd0d6f7ca6fd8160000160009054906101000a900473ffffffffffffffffffffffffffffffffffffffff168260010160009054906101000a900473ffffffffffffffffffffffffffffffffffffffff16836002015485604051610c2e9493929190611c21565b60405180910390a1610c3f82611286565b5b5050565b60028181548110610c5457600080fd5b906000526020600020016000915090505481565b60008054906101000a900473ffffffffffffffffffffffffffffffffffffffff1673ffffffffffffffffffffffffffffffffffffffff163373ffffffffffffffffffffffffffffffffffffffff1614610cf6576040517f08c379a0000000000000000000000000000000000000000000000000000000008152600401610ced90611999565b60405180910390fd5b6001600360008373ffffffffffffffffffffffffffffffffffffffff1673ffffffffffffffffffffffffffffffffffffffff16815260200190815260200160002060006101000a81548160ff02191690831515021790555050565b60008054906101000a900473ffffffffffffffffffffffffffffffffffffffff1681565b60066020528060005260406000206000915090508060000160009054906101000a900473ffffffffffffffffffffffffffffffffffffffff16908060010160009054906101000a900473ffffffffffffffffffffffffffffffffffffffff16908060020154908060030160009054906101000a900460ff16908060040154908060050154905086565b60008054906101000a900473ffffffffffffffffffffffffffffffffffffffff1673ffffffffffffffffffffffffffffffffffffffff163373ffffffffffffffffffffffffffffffffffffffff161480610ea8575060011515600360003373ffffffffffffffffffffffffffffffffffffffff1673ffffffffffffffffffffffffffffffffffffffff16815260200190815260200160002060009054906101000a900460ff161515145b610ee7576040517f08c379a0000000000000000000000000000000000000000000000000000000008152600401610ede90611a05565b60405180910390fd5b81600460003373ffffffffffffffffffffffffffffffffffffffff1673ffffffffffffffffffffffffffffffffffffffff168152602001908152602001600020541015610f69576040517f08c379a0000000000000000000000000000000000000000000000000000000008152600401610f6090611cb2565b60405180910390fd5b600060016000815480929190610f7e90611cd2565b9190505590506040518060c001604052803373ffffffffffffffffffffffffffffffffffffffff1681526020018573ffffffffffffffffffffffffffffffffffffffff16815260200184815260200160001515815260200160008152602001838152506006600083815260200190815260200160002060008201518160000160006101000a81548173ffffffffffffffffffffffffffffffffffffffff021916908373ffffffffffffffffffffffffffffffffffffffff16021790555060208201518160010160006101000a81548173ffffffffffffffffffffffffffffffffffffffff021916908373ffffffffffffffffffffffffffffffffffffffff1602179055506040820151816002015560608201518160030160006101000a81548160ff0219169083151502179055506080820151816004015560a0820151816005015590505060028190806001815401808255809150506001900390600052602060002001600090919091909150557f878e1a8a7ee638d3050b311026ea6730c31a9bf9c4d0dc6ea2a3922927fabd6233858560405161111f93929190611d1a565b60405180910390a150505050565b606060008054906101000a900473ffffffffffffffffffffffffffffffffffffffff1673ffffffffffffffffffffffffffffffffffffffff163373ffffffffffffffffffffffffffffffffffffffff1614806111d9575060011515600360003373ffffffffffffffffffffffffffffffffffffffff1673ffffffffffffffffffffffffffffffffffffffff16815260200190815260200160002060009054906101000a900460ff161515145b611218576040517f08c379a000000000000000000000000000000000000000000000000000000000815260040161120f90611a05565b60405180910390fd5b600280548060200260200160405190810160405280929190818152602001828054801561126457602002820191906000526020600020905b815481526020019060010190808311611250575b5050505050905090565b60046020528060005260406000206000915090505481565b60008054906101000a900473ffffffffffffffffffffffffffffffffffffffff1673ffffffffffffffffffffffffffffffffffffffff163373ffffffffffffffffffffffffffffffffffffffff161480611330575060011515600360003373ffffffffffffffffffffffffffffffffffffffff1673ffffffffffffffffffffffffffffffffffffffff16815260200190815260200160002060009054906101000a900460ff161515145b61136f576040517f08c379a000000000000000000000000000000000000000000000000000000000815260040161136690611a05565b60405180910390fd5b6006600082815260200190815260200160002060030160009054906101000a900460ff166113d2576040517f08c379a00000000000000000000000000000000000000000000000000000000081526004016113c990611a71565b60405180910390fd5b600281815481106113e6576113e5611d51565b5b906000526020600020016000905560066000828152602001908152602001600020600080820160006101000a81549073ffffffffffffffffffffffffffffffffffffffff02191690556001820160006101000a81549073ffffffffffffffffffffffffffffffffffffffff021916905560028201600090556003820160006101000a81549060ff021916905560048201600090556005820160009055505050565b6040518060c00160405280600073ffffffffffffffffffffffffffffffffffffffff168152602001600073ffffffffffffffffffffffffffffffffffffffff1681526020016000815260200160001515815260200160008152602001600081525090565b6000819050919050565b7f4e487b7100000000000000000000000000000000000000000000000000000000600052601160045260246000fd5b600061152f826114eb565b915061153a836114eb565b9250828201905080821115611552576115516114f5565b5b92915050565b600073ffffffffffffffffffffffffffffffffffffffff82169050919050565b600061158382611558565b9050919050565b61159381611578565b82525050565b6115a2816114eb565b82525050565b60006040820190506115bd600083018561158a565b6115ca6020830184611599565b9392505050565b600080fd5b6115df81611578565b81146115ea57600080fd5b50565b6000813590506115fc816115d6565b92915050565b600060208284031215611618576116176115d1565b5b6000611626848285016115ed565b91505092915050565b60008115159050919050565b6116448161162f565b82525050565b600060208201905061165f600083018461163b565b92915050565b61166e816114eb565b811461167957600080fd5b50565b60008135905061168b81611665565b92915050565b6000602082840312156116a7576116a66115d1565b5b60006116b58482850161167c565b91505092915050565b6116c781611578565b82525050565b6116d6816114eb565b82525050565b6116e58161162f565b82525050565b60c08201600082015161170160008501826116be565b50602082015161171460208501826116be565b50604082015161172760408501826116cd565b50606082015161173a60608501826116dc565b50608082015161174d60808501826116cd565b5060a082015161176060a08501826116cd565b50505050565b600060c08201905061177b60008301846116eb565b92915050565b60006020820190506117966000830184611599565b92915050565b60006020820190506117b1600083018461158a565b92915050565b600060c0820190506117cc600083018961158a565b6117d9602083018861158a565b6117e66040830187611599565b6117f3606083018661163b565b6118006080830185611599565b61180d60a0830184611599565b979650505050505050565b600080600060608486031215611831576118306115d1565b5b600061183f868287016115ed565b93505060206118508682870161167c565b92505060406118618682870161167c565b9150509250925092565b600081519050919050565b600082825260208201905092915050565b6000819050602082019050919050565b60006118a383836116cd565b60208301905092915050565b6000602082019050919050565b60006118c78261186b565b6118d18185611876565b93506118dc83611887565b8060005b8381101561190d5781516118f48882611897565b97506118ff836118af565b9250506001810190506118e0565b5085935050505092915050565b6000602082019050818103600083015261193481846118bc565b905092915050565b600082825260208201905092915050565b7f596f752063616e27742061636365737321000000000000000000000000000000600082015250565b600061198360118361193c565b915061198e8261194d565b602082019050919050565b600060208201905081810360008301526119b281611976565b9050919050565b7f596f7520617265206e6f74206f776e6572210000000000000000000000000000600082015250565b60006119ef60128361193c565b91506119fa826119b9565b602082019050919050565b60006020820190508181036000830152611a1e816119e2565b9050919050565b7f5472616e73616374696f6e206d75737420657869737400000000000000000000600082015250565b6000611a5b60168361193c565b9150611a6682611a25565b602082019050919050565b60006020820190508181036000830152611a8a81611a4e565b9050919050565b7f43726561746f722063616e6e6f74207369676e20746865207472616e7361637460008201527f696f6e0000000000000000000000000000000000000000000000000000000000602082015250565b6000611aed60238361193c565b9150611af882611a91565b604082019050919050565b60006020820190508181036000830152611b1c81611ae0565b9050919050565b7f596f752063616e6e6f74207369676e20746865207472616e73616374696f6e2060008201527f6d6f7265207468616e206f6e6365000000000000000000000000000000000000602082015250565b6000611b7f602e8361193c565b9150611b8a82611b23565b604082019050919050565b60006020820190508181036000830152611bae81611b72565b9050919050565b7f4e6f7420656e6f756768742066756e6400000000000000000000000000000000600082015250565b6000611beb60108361193c565b9150611bf682611bb5565b602082019050919050565b60006020820190508181036000830152611c1a81611bde565b9050919050565b6000608082019050611c36600083018761158a565b611c43602083018661158a565b611c506040830185611599565b611c5d6060830184611599565b95945050505050565b7f4e6f7420656e6f756768742062616c616e636500000000000000000000000000600082015250565b6000611c9c60138361193c565b9150611ca782611c66565b602082019050919050565b60006020820190508181036000830152611ccb81611c8f565b9050919050565b6000611cdd826114eb565b91507fffffffffffffffffffffffffffffffffffffffffffffffffffffffffffffffff8203611d0f57611d0e6114f5565b5b600182019050919050565b6000606082019050611d2f600083018661158a565b611d3c602083018561158a565b611d496040830184611599565b949350505050565b7f4e487b7100000000000000000000000000000000000000000000000000000000600052603260045260246000fdfea2646970667358221220a76dd7928803b989ad7ab09eefd27e52658a402df7e758a9e088d9bc49e90b3164736f6c63430008120033",
					"opcodes": "PUSH1 0x80 PUSH1 0x40 MSTORE CALLVALUE DUP1 ISZERO PUSH2 0x10 JUMPI PUSH1 0x0 DUP1 REVERT JUMPDEST POP CALLER PUSH1 0x0 DUP1 PUSH2 0x100 EXP DUP2 SLOAD DUP2 PUSH20 0xFFFFFFFFFFFFFFFFFFFFFFFFFFFFFFFFFFFFFFFF MUL NOT AND SWAP1 DUP4 PUSH20 0xFFFFFFFFFFFFFFFFFFFFFFFFFFFFFFFFFFFFFFFF AND MUL OR SWAP1 SSTORE POP PUSH2 0x1DB6 DUP1 PUSH2 0x60 PUSH1 0x0 CODECOPY PUSH1 0x0 RETURN INVALID PUSH1 0x80 PUSH1 0x40 MSTORE PUSH1 0x4 CALLDATASIZE LT PUSH2 0xA0 JUMPI PUSH1 0x0 CALLDATALOAD PUSH1 0xE0 SHR DUP1 PUSH4 0x7065CB48 GT PUSH2 0x64 JUMPI DUP1 PUSH4 0x7065CB48 EQ PUSH2 0x244 JUMPI DUP1 PUSH4 0x8DA5CB5B EQ PUSH2 0x26D JUMPI DUP1 PUSH4 0x9ACE38C2 EQ PUSH2 0x298 JUMPI DUP1 PUSH4 0xB1973BCC EQ PUSH2 0x2DA JUMPI DUP1 PUSH4 0xD11DB83F EQ PUSH2 0x303 JUMPI DUP1 PUSH4 0xE2AE93FB EQ PUSH2 0x32E JUMPI PUSH2 0x136 JUMP JUMPDEST DUP1 PUSH4 0x22914A7 EQ PUSH2 0x13B JUMPI DUP1 PUSH4 0x173825D9 EQ PUSH2 0x178 JUMPI DUP1 PUSH4 0x23FBAE41 EQ PUSH2 0x1A1 JUMPI DUP1 PUSH4 0x5D9EC210 EQ PUSH2 0x1DE JUMPI DUP1 PUSH4 0x63A8374D EQ PUSH2 0x207 JUMPI PUSH2 0x136 JUMP JUMPDEST CALLDATASIZE PUSH2 0x136 JUMPI CALLVALUE PUSH1 0x4 PUSH1 0x0 CALLER PUSH20 0xFFFFFFFFFFFFFFFFFFFFFFFFFFFFFFFFFFFFFFFF AND PUSH20 0xFFFFFFFFFFFFFFFFFFFFFFFFFFFFFFFFFFFFFFFF AND DUP2 MSTORE PUSH1 0x20 ADD SWAP1 DUP2 MSTORE PUSH1 0x20 ADD PUSH1 0x0 KECCAK256 PUSH1 0x0 DUP3 DUP3 SLOAD PUSH2 0xF4 SWAP2 SWAP1 PUSH2 0x1524 JUMP JUMPDEST SWAP3 POP POP DUP2 SWAP1 SSTORE POP PUSH32 0xD241E73300212F6DF233A8E6D3146B88A9D4964E06621D54B5FF6AFEBA7B1B88 CALLER CALLVALUE PUSH1 0x40 MLOAD PUSH2 0x12C SWAP3 SWAP2 SWAP1 PUSH2 0x15A8 JUMP JUMPDEST PUSH1 0x40 MLOAD DUP1 SWAP2 SUB SWAP1 LOG1 STOP JUMPDEST PUSH1 0x0 DUP1 REVERT JUMPDEST CALLVALUE DUP1 ISZERO PUSH2 0x147 JUMPI PUSH1 0x0 DUP1 REVERT JUMPDEST POP PUSH2 0x162 PUSH1 0x4 DUP1 CALLDATASIZE SUB DUP2 ADD SWAP1 PUSH2 0x15D SWAP2 SWAP1 PUSH2 0x1602 JUMP JUMPDEST PUSH2 0x36B JUMP JUMPDEST PUSH1 0x40 MLOAD PUSH2 0x16F SWAP2 SWAP1 PUSH2 0x164A JUMP JUMPDEST PUSH1 0x40 MLOAD DUP1 SWAP2 SUB SWAP1 RETURN JUMPDEST CALLVALUE DUP1 ISZERO PUSH2 0x184 JUMPI PUSH1 0x0 DUP1 REVERT JUMPDEST POP PUSH2 0x19F PUSH1 0x4 DUP1 CALLDATASIZE SUB DUP2 ADD SWAP1 PUSH2 0x19A SWAP2 SWAP1 PUSH2 0x1602 JUMP JUMPDEST PUSH2 0x38B JUMP JUMPDEST STOP JUMPDEST CALLVALUE DUP1 ISZERO PUSH2 0x1AD JUMPI PUSH1 0x0 DUP1 REVERT JUMPDEST POP PUSH2 0x1C8 PUSH1 0x4 DUP1 CALLDATASIZE SUB DUP2 ADD SWAP1 PUSH2 0x1C3 SWAP2 SWAP1 PUSH2 0x1691 JUMP JUMPDEST PUSH2 0x474 JUMP JUMPDEST PUSH1 0x40 MLOAD PUSH2 0x1D5 SWAP2 SWAP1 PUSH2 0x1766 JUMP JUMPDEST PUSH1 0x40 MLOAD DUP1 SWAP2 SUB SWAP1 RETURN JUMPDEST CALLVALUE DUP1 ISZERO PUSH2 0x1EA JUMPI PUSH1 0x0 DUP1 REVERT JUMPDEST POP PUSH2 0x205 PUSH1 0x4 DUP1 CALLDATASIZE SUB DUP2 ADD SWAP1 PUSH2 0x200 SWAP2 SWAP1 PUSH2 0x1691 JUMP JUMPDEST PUSH2 0x66F JUMP JUMPDEST STOP JUMPDEST CALLVALUE DUP1 ISZERO PUSH2 0x213 JUMPI PUSH1 0x0 DUP1 REVERT JUMPDEST POP PUSH2 0x22E PUSH1 0x4 DUP1 CALLDATASIZE SUB DUP2 ADD SWAP1 PUSH2 0x229 SWAP2 SWAP1 PUSH2 0x1691 JUMP JUMPDEST PUSH2 0xC44 JUMP JUMPDEST PUSH1 0x40 MLOAD PUSH2 0x23B SWAP2 SWAP1 PUSH2 0x1781 JUMP JUMPDEST PUSH1 0x40 MLOAD DUP1 SWAP2 SUB SWAP1 RETURN JUMPDEST CALLVALUE DUP1 ISZERO PUSH2 0x250 JUMPI PUSH1 0x0 DUP1 REVERT JUMPDEST POP PUSH2 0x26B PUSH1 0x4 DUP1 CALLDATASIZE SUB DUP2 ADD SWAP1 PUSH2 0x266 SWAP2 SWAP1 PUSH2 0x1602 JUMP JUMPDEST PUSH2 0xC68 JUMP JUMPDEST STOP JUMPDEST CALLVALUE DUP1 ISZERO PUSH2 0x279 JUMPI PUSH1 0x0 DUP1 REVERT JUMPDEST POP PUSH2 0x282 PUSH2 0xD51 JUMP JUMPDEST PUSH1 0x40 MLOAD PUSH2 0x28F SWAP2 SWAP1 PUSH2 0x179C JUMP JUMPDEST PUSH1 0x40 MLOAD DUP1 SWAP2 SUB SWAP1 RETURN JUMPDEST CALLVALUE DUP1 ISZERO PUSH2 0x2A4 JUMPI PUSH1 0x0 DUP1 REVERT JUMPDEST POP PUSH2 0x2BF PUSH1 0x4 DUP1 CALLDATASIZE SUB DUP2 ADD SWAP1 PUSH2 0x2BA SWAP2 SWAP1 PUSH2 0x1691 JUMP JUMPDEST PUSH2 0xD75 JUMP JUMPDEST PUSH1 0x40 MLOAD PUSH2 0x2D1 SWAP7 SWAP6 SWAP5 SWAP4 SWAP3 SWAP2 SWAP1 PUSH2 0x17B7 JUMP JUMPDEST PUSH1 0x40 MLOAD DUP1 SWAP2 SUB SWAP1 RETURN JUMPDEST CALLVALUE DUP1 ISZERO PUSH2 0x2E6 JUMPI PUSH1 0x0 DUP1 REVERT JUMPDEST POP PUSH2 0x301 PUSH1 0x4 DUP1 CALLDATASIZE SUB DUP2 ADD SWAP1 PUSH2 0x2FC SWAP2 SWAP1 PUSH2 0x1818 JUMP JUMPDEST PUSH2 0xDFE JUMP JUMPDEST STOP JUMPDEST CALLVALUE DUP1 ISZERO PUSH2 0x30F JUMPI PUSH1 0x0 DUP1 REVERT JUMPDEST POP PUSH2 0x318 PUSH2 0x112D JUMP JUMPDEST PUSH1 0x40 MLOAD PUSH2 0x325 SWAP2 SWAP1 PUSH2 0x191A JUMP JUMPDEST PUSH1 0x40 MLOAD DUP1 SWAP2 SUB SWAP1 RETURN JUMPDEST CALLVALUE DUP1 ISZERO PUSH2 0x33A JUMPI PUSH1 0x0 DUP1 REVERT JUMPDEST POP PUSH2 0x355 PUSH1 0x4 DUP1 CALLDATASIZE SUB DUP2 ADD SWAP1 PUSH2 0x350 SWAP2 SWAP1 PUSH2 0x1602 JUMP JUMPDEST PUSH2 0x126E JUMP JUMPDEST PUSH1 0x40 MLOAD PUSH2 0x362 SWAP2 SWAP1 PUSH2 0x1781 JUMP JUMPDEST PUSH1 0x40 MLOAD DUP1 SWAP2 SUB SWAP1 RETURN JUMPDEST PUSH1 0x3 PUSH1 0x20 MSTORE DUP1 PUSH1 0x0 MSTORE PUSH1 0x40 PUSH1 0x0 KECCAK256 PUSH1 0x0 SWAP2 POP SLOAD SWAP1 PUSH2 0x100 EXP SWAP1 DIV PUSH1 0xFF AND DUP2 JUMP JUMPDEST PUSH1 0x0 DUP1 SLOAD SWAP1 PUSH2 0x100 EXP SWAP1 DIV PUSH20 0xFFFFFFFFFFFFFFFFFFFFFFFFFFFFFFFFFFFFFFFF AND PUSH20 0xFFFFFFFFFFFFFFFFFFFFFFFFFFFFFFFFFFFFFFFF AND CALLER PUSH20 0xFFFFFFFFFFFFFFFFFFFFFFFFFFFFFFFFFFFFFFFF AND EQ PUSH2 0x419 JUMPI PUSH1 0x40 MLOAD PUSH32 0x8C379A000000000000000000000000000000000000000000000000000000000 DUP2 MSTORE PUSH1 0x4 ADD PUSH2 0x410 SWAP1 PUSH2 0x1999 JUMP JUMPDEST PUSH1 0x40 MLOAD DUP1 SWAP2 SUB SWAP1 REVERT JUMPDEST PUSH1 0x0 PUSH1 0x3 PUSH1 0x0 DUP4 PUSH20 0xFFFFFFFFFFFFFFFFFFFFFFFFFFFFFFFFFFFFFFFF AND PUSH20 0xFFFFFFFFFFFFFFFFFFFFFFFFFFFFFFFFFFFFFFFF AND DUP2 MSTORE PUSH1 0x20 ADD SWAP1 DUP2 MSTORE PUSH1 0x20 ADD PUSH1 0x0 KECCAK256 PUSH1 0x0 PUSH2 0x100 EXP DUP2 SLOAD DUP2 PUSH1 0xFF MUL NOT AND SWAP1 DUP4 ISZERO ISZERO MUL OR SWAP1 SSTORE POP POP JUMP JUMPDEST PUSH2 0x47C PUSH2 0x1487 JUMP JUMPDEST PUSH1 0x0 DUP1 SLOAD SWAP1 PUSH2 0x100 EXP SWAP1 DIV PUSH20 0xFFFFFFFFFFFFFFFFFFFFFFFFFFFFFFFFFFFFFFFF AND PUSH20 0xFFFFFFFFFFFFFFFFFFFFFFFFFFFFFFFFFFFFFFFF AND CALLER PUSH20 0xFFFFFFFFFFFFFFFFFFFFFFFFFFFFFFFFFFFFFFFF AND EQ DUP1 PUSH2 0x526 JUMPI POP PUSH1 0x1 ISZERO ISZERO PUSH1 0x3 PUSH1 0x0 CALLER PUSH20 0xFFFFFFFFFFFFFFFFFFFFFFFFFFFFFFFFFFFFFFFF AND PUSH20 0xFFFFFFFFFFFFFFFFFFFFFFFFFFFFFFFFFFFFFFFF AND DUP2 MSTORE PUSH1 0x20 ADD SWAP1 DUP2 MSTORE PUSH1 0x20 ADD PUSH1 0x0 KECCAK256 PUSH1 0x0 SWAP1 SLOAD SWAP1 PUSH2 0x100 EXP SWAP1 DIV PUSH1 0xFF AND ISZERO ISZERO EQ JUMPDEST PUSH2 0x565 JUMPI PUSH1 0x40 MLOAD PUSH32 0x8C379A000000000000000000000000000000000000000000000000000000000 DUP2 MSTORE PUSH1 0x4 ADD PUSH2 0x55C SWAP1 PUSH2 0x1A05 JUMP JUMPDEST PUSH1 0x40 MLOAD DUP1 SWAP2 SUB SWAP1 REVERT JUMPDEST PUSH1 0x6 PUSH1 0x0 DUP4 DUP2 MSTORE PUSH1 0x20 ADD SWAP1 DUP2 MSTORE PUSH1 0x20 ADD PUSH1 0x0 KECCAK256 PUSH1 0x40 MLOAD DUP1 PUSH1 0xC0 ADD PUSH1 0x40 MSTORE SWAP1 DUP2 PUSH1 0x0 DUP3 ADD PUSH1 0x0 SWAP1 SLOAD SWAP1 PUSH2 0x100 EXP SWAP1 DIV PUSH20 0xFFFFFFFFFFFFFFFFFFFFFFFFFFFFFFFFFFFFFFFF AND PUSH20 0xFFFFFFFFFFFFFFFFFFFFFFFFFFFFFFFFFFFFFFFF AND PUSH20 0xFFFFFFFFFFFFFFFFFFFFFFFFFFFFFFFFFFFFFFFF AND DUP2 MSTORE PUSH1 0x20 ADD PUSH1 0x1 DUP3 ADD PUSH1 0x0 SWAP1 SLOAD SWAP1 PUSH2 0x100 EXP SWAP1 DIV PUSH20 0xFFFFFFFFFFFFFFFFFFFFFFFFFFFFFFFFFFFFFFFF AND PUSH20 0xFFFFFFFFFFFFFFFFFFFFFFFFFFFFFFFFFFFFFFFF AND PUSH20 0xFFFFFFFFFFFFFFFFFFFFFFFFFFFFFFFFFFFFFFFF AND DUP2 MSTORE PUSH1 0x20 ADD PUSH1 0x2 DUP3 ADD SLOAD DUP2 MSTORE PUSH1 0x20 ADD PUSH1 0x3 DUP3 ADD PUSH1 0x0 SWAP1 SLOAD SWAP1 PUSH2 0x100 EXP SWAP1 DIV PUSH1 0xFF AND ISZERO ISZERO ISZERO ISZERO DUP2 MSTORE PUSH1 0x20 ADD PUSH1 0x4 DUP3 ADD SLOAD DUP2 MSTORE PUSH1 0x20 ADD PUSH1 0x5 DUP3 ADD SLOAD DUP2 MSTORE POP POP SWAP1 POP SWAP2 SWAP1 POP JUMP JUMPDEST PUSH1 0x0 DUP1 SLOAD SWAP1 PUSH2 0x100 EXP SWAP1 DIV PUSH20 0xFFFFFFFFFFFFFFFFFFFFFFFFFFFFFFFFFFFFFFFF AND PUSH20 0xFFFFFFFFFFFFFFFFFFFFFFFFFFFFFFFFFFFFFFFF AND CALLER PUSH20 0xFFFFFFFFFFFFFFFFFFFFFFFFFFFFFFFFFFFFFFFF AND EQ DUP1 PUSH2 0x719 JUMPI POP PUSH1 0x1 ISZERO ISZERO PUSH1 0x3 PUSH1 0x0 CALLER PUSH20 0xFFFFFFFFFFFFFFFFFFFFFFFFFFFFFFFFFFFFFFFF AND PUSH20 0xFFFFFFFFFFFFFFFFFFFFFFFFFFFFFFFFFFFFFFFF AND DUP2 MSTORE PUSH1 0x20 ADD SWAP1 DUP2 MSTORE PUSH1 0x20 ADD PUSH1 0x0 KECCAK256 PUSH1 0x0 SWAP1 SLOAD SWAP1 PUSH2 0x100 EXP SWAP1 DIV PUSH1 0xFF AND ISZERO ISZERO EQ JUMPDEST PUSH2 0x758 JUMPI PUSH1 0x40 MLOAD PUSH32 0x8C379A000000000000000000000000000000000000000000000000000000000 DUP2 MSTORE PUSH1 0x4 ADD PUSH2 0x74F SWAP1 PUSH2 0x1A05 JUMP JUMPDEST PUSH1 0x40 MLOAD DUP1 SWAP2 SUB SWAP1 REVERT JUMPDEST PUSH1 0x0 PUSH1 0x6 PUSH1 0x0 DUP4 DUP2 MSTORE PUSH1 0x20 ADD SWAP1 DUP2 MSTORE PUSH1 0x20 ADD PUSH1 0x0 KECCAK256 SWAP1 POP PUSH1 0x0 PUSH20 0xFFFFFFFFFFFFFFFFFFFFFFFFFFFFFFFFFFFFFFFF AND DUP2 PUSH1 0x0 ADD PUSH1 0x0 SWAP1 SLOAD SWAP1 PUSH2 0x100 EXP SWAP1 DIV PUSH20 0xFFFFFFFFFFFFFFFFFFFFFFFFFFFFFFFFFFFFFFFF AND PUSH20 0xFFFFFFFFFFFFFFFFFFFFFFFFFFFFFFFFFFFFFFFF AND SUB PUSH2 0x802 JUMPI PUSH1 0x40 MLOAD PUSH32 0x8C379A000000000000000000000000000000000000000000000000000000000 DUP2 MSTORE PUSH1 0x4 ADD PUSH2 0x7F9 SWAP1 PUSH2 0x1A71 JUMP JUMPDEST PUSH1 0x40 MLOAD DUP1 SWAP2 SUB SWAP1 REVERT JUMPDEST CALLER PUSH20 0xFFFFFFFFFFFFFFFFFFFFFFFFFFFFFFFFFFFFFFFF AND DUP2 PUSH1 0x0 ADD PUSH1 0x0 SWAP1 SLOAD SWAP1 PUSH2 0x100 EXP SWAP1 DIV PUSH20 0xFFFFFFFFFFFFFFFFFFFFFFFFFFFFFFFFFFFFFFFF AND PUSH20 0xFFFFFFFFFFFFFFFFFFFFFFFFFFFFFFFFFFFFFFFF AND SUB PUSH2 0x894 JUMPI PUSH1 0x40 MLOAD PUSH32 0x8C379A000000000000000000000000000000000000000000000000000000000 DUP2 MSTORE PUSH1 0x4 ADD PUSH2 0x88B SWAP1 PUSH2 0x1B03 JUMP JUMPDEST PUSH1 0x40 MLOAD DUP1 SWAP2 SUB SWAP1 REVERT JUMPDEST PUSH1 0x5 PUSH1 0x0 DUP4 DUP2 MSTORE PUSH1 0x20 ADD SWAP1 DUP2 MSTORE PUSH1 0x20 ADD PUSH1 0x0 KECCAK256 PUSH1 0x0 CALLER PUSH20 0xFFFFFFFFFFFFFFFFFFFFFFFFFFFFFFFFFFFFFFFF AND PUSH20 0xFFFFFFFFFFFFFFFFFFFFFFFFFFFFFFFFFFFFFFFF AND DUP2 MSTORE PUSH1 0x20 ADD SWAP1 DUP2 MSTORE PUSH1 0x20 ADD PUSH1 0x0 KECCAK256 PUSH1 0x0 SWAP1 SLOAD SWAP1 PUSH2 0x100 EXP SWAP1 DIV PUSH1 0xFF AND ISZERO PUSH2 0x932 JUMPI PUSH1 0x40 MLOAD PUSH32 0x8C379A000000000000000000000000000000000000000000000000000000000 DUP2 MSTORE PUSH1 0x4 ADD PUSH2 0x929 SWAP1 PUSH2 0x1B95 JUMP JUMPDEST PUSH1 0x40 MLOAD DUP1 SWAP2 SUB SWAP1 REVERT JUMPDEST PUSH1 0x1 DUP2 PUSH1 0x4 ADD SLOAD PUSH2 0x943 SWAP2 SWAP1 PUSH2 0x1524 JUMP JUMPDEST DUP2 PUSH1 0x4 ADD DUP2 SWAP1 SSTORE POP PUSH1 0x1 PUSH1 0x5 PUSH1 0x0 DUP5 DUP2 MSTORE PUSH1 0x20 ADD SWAP1 DUP2 MSTORE PUSH1 0x20 ADD PUSH1 0x0 KECCAK256 PUSH1 0x0 CALLER PUSH20 0xFFFFFFFFFFFFFFFFFFFFFFFFFFFFFFFFFFFFFFFF AND PUSH20 0xFFFFFFFFFFFFFFFFFFFFFFFFFFFFFFFFFFFFFFFF AND DUP2 MSTORE PUSH1 0x20 ADD SWAP1 DUP2 MSTORE PUSH1 0x20 ADD PUSH1 0x0 KECCAK256 PUSH1 0x0 PUSH2 0x100 EXP DUP2 SLOAD DUP2 PUSH1 0xFF MUL NOT AND SWAP1 DUP4 ISZERO ISZERO MUL OR SWAP1 SSTORE POP PUSH32 0xAC63E7E1DC16BCCF900879686E74CA33EEB175B670E3AAA9D7E4CCF3781B7A7A CALLER DUP4 PUSH1 0x40 MLOAD PUSH2 0x9E5 SWAP3 SWAP2 SWAP1 PUSH2 0x15A8 JUMP JUMPDEST PUSH1 0x40 MLOAD DUP1 SWAP2 SUB SWAP1 LOG1 DUP1 PUSH1 0x5 ADD SLOAD DUP2 PUSH1 0x4 ADD SLOAD LT PUSH2 0xC40 JUMPI DUP1 PUSH1 0x2 ADD SLOAD PUSH1 0x4 PUSH1 0x0 DUP4 PUSH1 0x0 ADD PUSH1 0x0 SWAP1 SLOAD SWAP1 PUSH2 0x100 EXP SWAP1 DIV PUSH20 0xFFFFFFFFFFFFFFFFFFFFFFFFFFFFFFFFFFFFFFFF AND PUSH20 0xFFFFFFFFFFFFFFFFFFFFFFFFFFFFFFFFFFFFFFFF AND PUSH20 0xFFFFFFFFFFFFFFFFFFFFFFFFFFFFFFFFFFFFFFFF AND DUP2 MSTORE PUSH1 0x20 ADD SWAP1 DUP2 MSTORE PUSH1 0x20 ADD PUSH1 0x0 KECCAK256 SLOAD LT ISZERO PUSH2 0xAA6 JUMPI PUSH1 0x40 MLOAD PUSH32 0x8C379A000000000000000000000000000000000000000000000000000000000 DUP2 MSTORE PUSH1 0x4 ADD PUSH2 0xA9D SWAP1 PUSH2 0x1C01 JUMP JUMPDEST PUSH1 0x40 MLOAD DUP1 SWAP2 SUB SWAP1 REVERT JUMPDEST DUP1 PUSH1 0x1 ADD PUSH1 0x0 SWAP1 SLOAD SWAP1 PUSH2 0x100 EXP SWAP1 DIV PUSH20 0xFFFFFFFFFFFFFFFFFFFFFFFFFFFFFFFFFFFFFFFF AND PUSH20 0xFFFFFFFFFFFFFFFFFFFFFFFFFFFFFFFFFFFFFFFF AND PUSH2 0x8FC DUP3 PUSH1 0x2 ADD SLOAD SWAP1 DUP2 ISZERO MUL SWAP1 PUSH1 0x40 MLOAD PUSH1 0x0 PUSH1 0x40 MLOAD DUP1 DUP4 SUB DUP2 DUP6 DUP9 DUP9 CALL SWAP4 POP POP POP POP ISZERO DUP1 ISZERO PUSH2 0xB14 JUMPI RETURNDATASIZE PUSH1 0x0 DUP1 RETURNDATACOPY RETURNDATASIZE PUSH1 0x0 REVERT JUMPDEST POP PUSH1 0x1 PUSH1 0x6 PUSH1 0x0 DUP5 DUP2 MSTORE PUSH1 0x20 ADD SWAP1 DUP2 MSTORE PUSH1 0x20 ADD PUSH1 0x0 KECCAK256 PUSH1 0x3 ADD PUSH1 0x0 PUSH2 0x100 EXP DUP2 SLOAD DUP2 PUSH1 0xFF MUL NOT AND SWAP1 DUP4 ISZERO ISZERO MUL OR SWAP1 SSTORE POP PUSH1 0x0 PUSH1 0x4 PUSH1 0x0 DUP4 PUSH1 0x0 ADD PUSH1 0x0 SWAP1 SLOAD SWAP1 PUSH2 0x100 EXP SWAP1 DIV PUSH20 0xFFFFFFFFFFFFFFFFFFFFFFFFFFFFFFFFFFFFFFFF AND PUSH20 0xFFFFFFFFFFFFFFFFFFFFFFFFFFFFFFFFFFFFFFFF AND PUSH20 0xFFFFFFFFFFFFFFFFFFFFFFFFFFFFFFFFFFFFFFFF AND DUP2 MSTORE PUSH1 0x20 ADD SWAP1 DUP2 MSTORE PUSH1 0x20 ADD PUSH1 0x0 KECCAK256 DUP2 SWAP1 SSTORE POP PUSH32 0x394C4E679790FAB24FD86614FD812811C9C835E4C475BDFC3D26FD0D6F7CA6FD DUP2 PUSH1 0x0 ADD PUSH1 0x0 SWAP1 SLOAD SWAP1 PUSH2 0x100 EXP SWAP1 DIV PUSH20 0xFFFFFFFFFFFFFFFFFFFFFFFFFFFFFFFFFFFFFFFF AND DUP3 PUSH1 0x1 ADD PUSH1 0x0 SWAP1 SLOAD SWAP1 PUSH2 0x100 EXP SWAP1 DIV PUSH20 0xFFFFFFFFFFFFFFFFFFFFFFFFFFFFFFFFFFFFFFFF AND DUP4 PUSH1 0x2 ADD SLOAD DUP6 PUSH1 0x40 MLOAD PUSH2 0xC2E SWAP5 SWAP4 SWAP3 SWAP2 SWAP1 PUSH2 0x1C21 JUMP JUMPDEST PUSH1 0x40 MLOAD DUP1 SWAP2 SUB SWAP1 LOG1 PUSH2 0xC3F DUP3 PUSH2 0x1286 JUMP JUMPDEST JUMPDEST POP POP JUMP JUMPDEST PUSH1 0x2 DUP2 DUP2 SLOAD DUP2 LT PUSH2 0xC54 JUMPI PUSH1 0x0 DUP1 REVERT JUMPDEST SWAP1 PUSH1 0x0 MSTORE PUSH1 0x20 PUSH1 0x0 KECCAK256 ADD PUSH1 0x0 SWAP2 POP SWAP1 POP SLOAD DUP2 JUMP JUMPDEST PUSH1 0x0 DUP1 SLOAD SWAP1 PUSH2 0x100 EXP SWAP1 DIV PUSH20 0xFFFFFFFFFFFFFFFFFFFFFFFFFFFFFFFFFFFFFFFF AND PUSH20 0xFFFFFFFFFFFFFFFFFFFFFFFFFFFFFFFFFFFFFFFF AND CALLER PUSH20 0xFFFFFFFFFFFFFFFFFFFFFFFFFFFFFFFFFFFFFFFF AND EQ PUSH2 0xCF6 JUMPI PUSH1 0x40 MLOAD PUSH32 0x8C379A000000000000000000000000000000000000000000000000000000000 DUP2 MSTORE PUSH1 0x4 ADD PUSH2 0xCED SWAP1 PUSH2 0x1999 JUMP JUMPDEST PUSH1 0x40 MLOAD DUP1 SWAP2 SUB SWAP1 REVERT JUMPDEST PUSH1 0x1 PUSH1 0x3 PUSH1 0x0 DUP4 PUSH20 0xFFFFFFFFFFFFFFFFFFFFFFFFFFFFFFFFFFFFFFFF AND PUSH20 0xFFFFFFFFFFFFFFFFFFFFFFFFFFFFFFFFFFFFFFFF AND DUP2 MSTORE PUSH1 0x20 ADD SWAP1 DUP2 MSTORE PUSH1 0x20 ADD PUSH1 0x0 KECCAK256 PUSH1 0x0 PUSH2 0x100 EXP DUP2 SLOAD DUP2 PUSH1 0xFF MUL NOT AND SWAP1 DUP4 ISZERO ISZERO MUL OR SWAP1 SSTORE POP POP JUMP JUMPDEST PUSH1 0x0 DUP1 SLOAD SWAP1 PUSH2 0x100 EXP SWAP1 DIV PUSH20 0xFFFFFFFFFFFFFFFFFFFFFFFFFFFFFFFFFFFFFFFF AND DUP2 JUMP JUMPDEST PUSH1 0x6 PUSH1 0x20 MSTORE DUP1 PUSH1 0x0 MSTORE PUSH1 0x40 PUSH1 0x0 KECCAK256 PUSH1 0x0 SWAP2 POP SWAP1 POP DUP1 PUSH1 0x0 ADD PUSH1 0x0 SWAP1 SLOAD SWAP1 PUSH2 0x100 EXP SWAP1 DIV PUSH20 0xFFFFFFFFFFFFFFFFFFFFFFFFFFFFFFFFFFFFFFFF AND SWAP1 DUP1 PUSH1 0x1 ADD PUSH1 0x0 SWAP1 SLOAD SWAP1 PUSH2 0x100 EXP SWAP1 DIV PUSH20 0xFFFFFFFFFFFFFFFFFFFFFFFFFFFFFFFFFFFFFFFF AND SWAP1 DUP1 PUSH1 0x2 ADD SLOAD SWAP1 DUP1 PUSH1 0x3 ADD PUSH1 0x0 SWAP1 SLOAD SWAP1 PUSH2 0x100 EXP SWAP1 DIV PUSH1 0xFF AND SWAP1 DUP1 PUSH1 0x4 ADD SLOAD SWAP1 DUP1 PUSH1 0x5 ADD SLOAD SWAP1 POP DUP7 JUMP JUMPDEST PUSH1 0x0 DUP1 SLOAD SWAP1 PUSH2 0x100 EXP SWAP1 DIV PUSH20 0xFFFFFFFFFFFFFFFFFFFFFFFFFFFFFFFFFFFFFFFF AND PUSH20 0xFFFFFFFFFFFFFFFFFFFFFFFFFFFFFFFFFFFFFFFF AND CALLER PUSH20 0xFFFFFFFFFFFFFFFFFFFFFFFFFFFFFFFFFFFFFFFF AND EQ DUP1 PUSH2 0xEA8 JUMPI POP PUSH1 0x1 ISZERO ISZERO PUSH1 0x3 PUSH1 0x0 CALLER PUSH20 0xFFFFFFFFFFFFFFFFFFFFFFFFFFFFFFFFFFFFFFFF AND PUSH20 0xFFFFFFFFFFFFFFFFFFFFFFFFFFFFFFFFFFFFFFFF AND DUP2 MSTORE PUSH1 0x20 ADD SWAP1 DUP2 MSTORE PUSH1 0x20 ADD PUSH1 0x0 KECCAK256 PUSH1 0x0 SWAP1 SLOAD SWAP1 PUSH2 0x100 EXP SWAP1 DIV PUSH1 0xFF AND ISZERO ISZERO EQ JUMPDEST PUSH2 0xEE7 JUMPI PUSH1 0x40 MLOAD PUSH32 0x8C379A000000000000000000000000000000000000000000000000000000000 DUP2 MSTORE PUSH1 0x4 ADD PUSH2 0xEDE SWAP1 PUSH2 0x1A05 JUMP JUMPDEST PUSH1 0x40 MLOAD DUP1 SWAP2 SUB SWAP1 REVERT JUMPDEST DUP2 PUSH1 0x4 PUSH1 0x0 CALLER PUSH20 0xFFFFFFFFFFFFFFFFFFFFFFFFFFFFFFFFFFFFFFFF AND PUSH20 0xFFFFFFFFFFFFFFFFFFFFFFFFFFFFFFFFFFFFFFFF AND DUP2 MSTORE PUSH1 0x20 ADD SWAP1 DUP2 MSTORE PUSH1 0x20 ADD PUSH1 0x0 KECCAK256 SLOAD LT ISZERO PUSH2 0xF69 JUMPI PUSH1 0x40 MLOAD PUSH32 0x8C379A000000000000000000000000000000000000000000000000000000000 DUP2 MSTORE PUSH1 0x4 ADD PUSH2 0xF60 SWAP1 PUSH2 0x1CB2 JUMP JUMPDEST PUSH1 0x40 MLOAD DUP1 SWAP2 SUB SWAP1 REVERT JUMPDEST PUSH1 0x0 PUSH1 0x1 PUSH1 0x0 DUP2 SLOAD DUP1 SWAP3 SWAP2 SWAP1 PUSH2 0xF7E SWAP1 PUSH2 0x1CD2 JUMP JUMPDEST SWAP2 SWAP1 POP SSTORE SWAP1 POP PUSH1 0x40 MLOAD DUP1 PUSH1 0xC0 ADD PUSH1 0x40 MSTORE DUP1 CALLER PUSH20 0xFFFFFFFFFFFFFFFFFFFFFFFFFFFFFFFFFFFFFFFF AND DUP2 MSTORE PUSH1 0x20 ADD DUP6 PUSH20 0xFFFFFFFFFFFFFFFFFFFFFFFFFFFFFFFFFFFFFFFF AND DUP2 MSTORE PUSH1 0x20 ADD DUP5 DUP2 MSTORE PUSH1 0x20 ADD PUSH1 0x0 ISZERO ISZERO DUP2 MSTORE PUSH1 0x20 ADD PUSH1 0x0 DUP2 MSTORE PUSH1 0x20 ADD DUP4 DUP2 MSTORE POP PUSH1 0x6 PUSH1 0x0 DUP4 DUP2 MSTORE PUSH1 0x20 ADD SWAP1 DUP2 MSTORE PUSH1 0x20 ADD PUSH1 0x0 KECCAK256 PUSH1 0x0 DUP3 ADD MLOAD DUP2 PUSH1 0x0 ADD PUSH1 0x0 PUSH2 0x100 EXP DUP2 SLOAD DUP2 PUSH20 0xFFFFFFFFFFFFFFFFFFFFFFFFFFFFFFFFFFFFFFFF MUL NOT AND SWAP1 DUP4 PUSH20 0xFFFFFFFFFFFFFFFFFFFFFFFFFFFFFFFFFFFFFFFF AND MUL OR SWAP1 SSTORE POP PUSH1 0x20 DUP3 ADD MLOAD DUP2 PUSH1 0x1 ADD PUSH1 0x0 PUSH2 0x100 EXP DUP2 SLOAD DUP2 PUSH20 0xFFFFFFFFFFFFFFFFFFFFFFFFFFFFFFFFFFFFFFFF MUL NOT AND SWAP1 DUP4 PUSH20 0xFFFFFFFFFFFFFFFFFFFFFFFFFFFFFFFFFFFFFFFF AND MUL OR SWAP1 SSTORE POP PUSH1 0x40 DUP3 ADD MLOAD DUP2 PUSH1 0x2 ADD SSTORE PUSH1 0x60 DUP3 ADD MLOAD DUP2 PUSH1 0x3 ADD PUSH1 0x0 PUSH2 0x100 EXP DUP2 SLOAD DUP2 PUSH1 0xFF MUL NOT AND SWAP1 DUP4 ISZERO ISZERO MUL OR SWAP1 SSTORE POP PUSH1 0x80 DUP3 ADD MLOAD DUP2 PUSH1 0x4 ADD SSTORE PUSH1 0xA0 DUP3 ADD MLOAD DUP2 PUSH1 0x5 ADD SSTORE SWAP1 POP POP PUSH1 0x2 DUP2 SWAP1 DUP1 PUSH1 0x1 DUP2 SLOAD ADD DUP1 DUP3 SSTORE DUP1 SWAP2 POP POP PUSH1 0x1 SWAP1 SUB SWAP1 PUSH1 0x0 MSTORE PUSH1 0x20 PUSH1 0x0 KECCAK256 ADD PUSH1 0x0 SWAP1 SWAP2 SWAP1 SWAP2 SWAP1 SWAP2 POP SSTORE PUSH32 0x878E1A8A7EE638D3050B311026EA6730C31A9BF9C4D0DC6EA2A3922927FABD62 CALLER DUP6 DUP6 PUSH1 0x40 MLOAD PUSH2 0x111F SWAP4 SWAP3 SWAP2 SWAP1 PUSH2 0x1D1A JUMP JUMPDEST PUSH1 0x40 MLOAD DUP1 SWAP2 SUB SWAP1 LOG1 POP POP POP POP JUMP JUMPDEST PUSH1 0x60 PUSH1 0x0 DUP1 SLOAD SWAP1 PUSH2 0x100 EXP SWAP1 DIV PUSH20 0xFFFFFFFFFFFFFFFFFFFFFFFFFFFFFFFFFFFFFFFF AND PUSH20 0xFFFFFFFFFFFFFFFFFFFFFFFFFFFFFFFFFFFFFFFF AND CALLER PUSH20 0xFFFFFFFFFFFFFFFFFFFFFFFFFFFFFFFFFFFFFFFF AND EQ DUP1 PUSH2 0x11D9 JUMPI POP PUSH1 0x1 ISZERO ISZERO PUSH1 0x3 PUSH1 0x0 CALLER PUSH20 0xFFFFFFFFFFFFFFFFFFFFFFFFFFFFFFFFFFFFFFFF AND PUSH20 0xFFFFFFFFFFFFFFFFFFFFFFFFFFFFFFFFFFFFFFFF AND DUP2 MSTORE PUSH1 0x20 ADD SWAP1 DUP2 MSTORE PUSH1 0x20 ADD PUSH1 0x0 KECCAK256 PUSH1 0x0 SWAP1 SLOAD SWAP1 PUSH2 0x100 EXP SWAP1 DIV PUSH1 0xFF AND ISZERO ISZERO EQ JUMPDEST PUSH2 0x1218 JUMPI PUSH1 0x40 MLOAD PUSH32 0x8C379A000000000000000000000000000000000000000000000000000000000 DUP2 MSTORE PUSH1 0x4 ADD PUSH2 0x120F SWAP1 PUSH2 0x1A05 JUMP JUMPDEST PUSH1 0x40 MLOAD DUP1 SWAP2 SUB SWAP1 REVERT JUMPDEST PUSH1 0x2 DUP1 SLOAD DUP1 PUSH1 0x20 MUL PUSH1 0x20 ADD PUSH1 0x40 MLOAD SWAP1 DUP2 ADD PUSH1 0x40 MSTORE DUP1 SWAP3 SWAP2 SWAP1 DUP2 DUP2 MSTORE PUSH1 0x20 ADD DUP3 DUP1 SLOAD DUP1 ISZERO PUSH2 0x1264 JUMPI PUSH1 0x20 MUL DUP3 ADD SWAP2 SWAP1 PUSH1 0x0 MSTORE PUSH1 0x20 PUSH1 0x0 KECCAK256 SWAP1 JUMPDEST DUP2 SLOAD DUP2 MSTORE PUSH1 0x20 ADD SWAP1 PUSH1 0x1 ADD SWAP1 DUP1 DUP4 GT PUSH2 0x1250 JUMPI JUMPDEST POP POP POP POP POP SWAP1 POP SWAP1 JUMP JUMPDEST PUSH1 0x4 PUSH1 0x20 MSTORE DUP1 PUSH1 0x0 MSTORE PUSH1 0x40 PUSH1 0x0 KECCAK256 PUSH1 0x0 SWAP2 POP SWAP1 POP SLOAD DUP2 JUMP JUMPDEST PUSH1 0x0 DUP1 SLOAD SWAP1 PUSH2 0x100 EXP SWAP1 DIV PUSH20 0xFFFFFFFFFFFFFFFFFFFFFFFFFFFFFFFFFFFFFFFF AND PUSH20 0xFFFFFFFFFFFFFFFFFFFFFFFFFFFFFFFFFFFFFFFF AND CALLER PUSH20 0xFFFFFFFFFFFFFFFFFFFFFFFFFFFFFFFFFFFFFFFF AND EQ DUP1 PUSH2 0x1330 JUMPI POP PUSH1 0x1 ISZERO ISZERO PUSH1 0x3 PUSH1 0x0 CALLER PUSH20 0xFFFFFFFFFFFFFFFFFFFFFFFFFFFFFFFFFFFFFFFF AND PUSH20 0xFFFFFFFFFFFFFFFFFFFFFFFFFFFFFFFFFFFFFFFF AND DUP2 MSTORE PUSH1 0x20 ADD SWAP1 DUP2 MSTORE PUSH1 0x20 ADD PUSH1 0x0 KECCAK256 PUSH1 0x0 SWAP1 SLOAD SWAP1 PUSH2 0x100 EXP SWAP1 DIV PUSH1 0xFF AND ISZERO ISZERO EQ JUMPDEST PUSH2 0x136F JUMPI PUSH1 0x40 MLOAD PUSH32 0x8C379A000000000000000000000000000000000000000000000000000000000 DUP2 MSTORE PUSH1 0x4 ADD PUSH2 0x1366 SWAP1 PUSH2 0x1A05 JUMP JUMPDEST PUSH1 0x40 MLOAD DUP1 SWAP2 SUB SWAP1 REVERT JUMPDEST PUSH1 0x6 PUSH1 0x0 DUP3 DUP2 MSTORE PUSH1 0x20 ADD SWAP1 DUP2 MSTORE PUSH1 0x20 ADD PUSH1 0x0 KECCAK256 PUSH1 0x3 ADD PUSH1 0x0 SWAP1 SLOAD SWAP1 PUSH2 0x100 EXP SWAP1 DIV PUSH1 0xFF AND PUSH2 0x13D2 JUMPI PUSH1 0x40 MLOAD PUSH32 0x8C379A000000000000000000000000000000000000000000000000000000000 DUP2 MSTORE PUSH1 0x4 ADD PUSH2 0x13C9 SWAP1 PUSH2 0x1A71 JUMP JUMPDEST PUSH1 0x40 MLOAD DUP1 SWAP2 SUB SWAP1 REVERT JUMPDEST PUSH1 0x2 DUP2 DUP2 SLOAD DUP2 LT PUSH2 0x13E6 JUMPI PUSH2 0x13E5 PUSH2 0x1D51 JUMP JUMPDEST JUMPDEST SWAP1 PUSH1 0x0 MSTORE PUSH1 0x20 PUSH1 0x0 KECCAK256 ADD PUSH1 0x0 SWAP1 SSTORE PUSH1 0x6 PUSH1 0x0 DUP3 DUP2 MSTORE PUSH1 0x20 ADD SWAP1 DUP2 MSTORE PUSH1 0x20 ADD PUSH1 0x0 KECCAK256 PUSH1 0x0 DUP1 DUP3 ADD PUSH1 0x0 PUSH2 0x100 EXP DUP2 SLOAD SWAP1 PUSH20 0xFFFFFFFFFFFFFFFFFFFFFFFFFFFFFFFFFFFFFFFF MUL NOT AND SWAP1 SSTORE PUSH1 0x1 DUP3 ADD PUSH1 0x0 PUSH2 0x100 EXP DUP2 SLOAD SWAP1 PUSH20 0xFFFFFFFFFFFFFFFFFFFFFFFFFFFFFFFFFFFFFFFF MUL NOT AND SWAP1 SSTORE PUSH1 0x2 DUP3 ADD PUSH1 0x0 SWAP1 SSTORE PUSH1 0x3 DUP3 ADD PUSH1 0x0 PUSH2 0x100 EXP DUP2 SLOAD SWAP1 PUSH1 0xFF MUL NOT AND SWAP1 SSTORE PUSH1 0x4 DUP3 ADD PUSH1 0x0 SWAP1 SSTORE PUSH1 0x5 DUP3 ADD PUSH1 0x0 SWAP1 SSTORE POP POP POP JUMP JUMPDEST PUSH1 0x40 MLOAD DUP1 PUSH1 0xC0 ADD PUSH1 0x40 MSTORE DUP1 PUSH1 0x0 PUSH20 0xFFFFFFFFFFFFFFFFFFFFFFFFFFFFFFFFFFFFFFFF AND DUP2 MSTORE PUSH1 0x20 ADD PUSH1 0x0 PUSH20 0xFFFFFFFFFFFFFFFFFFFFFFFFFFFFFFFFFFFFFFFF AND DUP2 MSTORE PUSH1 0x20 ADD PUSH1 0x0 DUP2 MSTORE PUSH1 0x20 ADD PUSH1 0x0 ISZERO ISZERO DUP2 MSTORE PUSH1 0x20 ADD PUSH1 0x0 DUP2 MSTORE PUSH1 0x20 ADD PUSH1 0x0 DUP2 MSTORE POP SWAP1 JUMP JUMPDEST PUSH1 0x0 DUP2 SWAP1 POP SWAP2 SWAP1 POP JUMP JUMPDEST PUSH32 0x4E487B7100000000000000000000000000000000000000000000000000000000 PUSH1 0x0 MSTORE PUSH1 0x11 PUSH1 0x4 MSTORE PUSH1 0x24 PUSH1 0x0 REVERT JUMPDEST PUSH1 0x0 PUSH2 0x152F DUP3 PUSH2 0x14EB JUMP JUMPDEST SWAP2 POP PUSH2 0x153A DUP4 PUSH2 0x14EB JUMP JUMPDEST SWAP3 POP DUP3 DUP3 ADD SWAP1 POP DUP1 DUP3 GT ISZERO PUSH2 0x1552 JUMPI PUSH2 0x1551 PUSH2 0x14F5 JUMP JUMPDEST JUMPDEST SWAP3 SWAP2 POP POP JUMP JUMPDEST PUSH1 0x0 PUSH20 0xFFFFFFFFFFFFFFFFFFFFFFFFFFFFFFFFFFFFFFFF DUP3 AND SWAP1 POP SWAP2 SWAP1 POP JUMP JUMPDEST PUSH1 0x0 PUSH2 0x1583 DUP3 PUSH2 0x1558 JUMP JUMPDEST SWAP1 POP SWAP2 SWAP1 POP JUMP JUMPDEST PUSH2 0x1593 DUP2 PUSH2 0x1578 JUMP JUMPDEST DUP3 MSTORE POP POP JUMP JUMPDEST PUSH2 0x15A2 DUP2 PUSH2 0x14EB JUMP JUMPDEST DUP3 MSTORE POP POP JUMP JUMPDEST PUSH1 0x0 PUSH1 0x40 DUP3 ADD SWAP1 POP PUSH2 0x15BD PUSH1 0x0 DUP4 ADD DUP6 PUSH2 0x158A JUMP JUMPDEST PUSH2 0x15CA PUSH1 0x20 DUP4 ADD DUP5 PUSH2 0x1599 JUMP JUMPDEST SWAP4 SWAP3 POP POP POP JUMP JUMPDEST PUSH1 0x0 DUP1 REVERT JUMPDEST PUSH2 0x15DF DUP2 PUSH2 0x1578 JUMP JUMPDEST DUP2 EQ PUSH2 0x15EA JUMPI PUSH1 0x0 DUP1 REVERT JUMPDEST POP JUMP JUMPDEST PUSH1 0x0 DUP2 CALLDATALOAD SWAP1 POP PUSH2 0x15FC DUP2 PUSH2 0x15D6 JUMP JUMPDEST SWAP3 SWAP2 POP POP JUMP JUMPDEST PUSH1 0x0 PUSH1 0x20 DUP3 DUP5 SUB SLT ISZERO PUSH2 0x1618 JUMPI PUSH2 0x1617 PUSH2 0x15D1 JUMP JUMPDEST JUMPDEST PUSH1 0x0 PUSH2 0x1626 DUP5 DUP3 DUP6 ADD PUSH2 0x15ED JUMP JUMPDEST SWAP2 POP POP SWAP3 SWAP2 POP POP JUMP JUMPDEST PUSH1 0x0 DUP2 ISZERO ISZERO SWAP1 POP SWAP2 SWAP1 POP JUMP JUMPDEST PUSH2 0x1644 DUP2 PUSH2 0x162F JUMP JUMPDEST DUP3 MSTORE POP POP JUMP JUMPDEST PUSH1 0x0 PUSH1 0x20 DUP3 ADD SWAP1 POP PUSH2 0x165F PUSH1 0x0 DUP4 ADD DUP5 PUSH2 0x163B JUMP JUMPDEST SWAP3 SWAP2 POP POP JUMP JUMPDEST PUSH2 0x166E DUP2 PUSH2 0x14EB JUMP JUMPDEST DUP2 EQ PUSH2 0x1679 JUMPI PUSH1 0x0 DUP1 REVERT JUMPDEST POP JUMP JUMPDEST PUSH1 0x0 DUP2 CALLDATALOAD SWAP1 POP PUSH2 0x168B DUP2 PUSH2 0x1665 JUMP JUMPDEST SWAP3 SWAP2 POP POP JUMP JUMPDEST PUSH1 0x0 PUSH1 0x20 DUP3 DUP5 SUB SLT ISZERO PUSH2 0x16A7 JUMPI PUSH2 0x16A6 PUSH2 0x15D1 JUMP JUMPDEST JUMPDEST PUSH1 0x0 PUSH2 0x16B5 DUP5 DUP3 DUP6 ADD PUSH2 0x167C JUMP JUMPDEST SWAP2 POP POP SWAP3 SWAP2 POP POP JUMP JUMPDEST PUSH2 0x16C7 DUP2 PUSH2 0x1578 JUMP JUMPDEST DUP3 MSTORE POP POP JUMP JUMPDEST PUSH2 0x16D6 DUP2 PUSH2 0x14EB JUMP JUMPDEST DUP3 MSTORE POP POP JUMP JUMPDEST PUSH2 0x16E5 DUP2 PUSH2 0x162F JUMP JUMPDEST DUP3 MSTORE POP POP JUMP JUMPDEST PUSH1 0xC0 DUP3 ADD PUSH1 0x0 DUP3 ADD MLOAD PUSH2 0x1701 PUSH1 0x0 DUP6 ADD DUP3 PUSH2 0x16BE JUMP JUMPDEST POP PUSH1 0x20 DUP3 ADD MLOAD PUSH2 0x1714 PUSH1 0x20 DUP6 ADD DUP3 PUSH2 0x16BE JUMP JUMPDEST POP PUSH1 0x40 DUP3 ADD MLOAD PUSH2 0x1727 PUSH1 0x40 DUP6 ADD DUP3 PUSH2 0x16CD JUMP JUMPDEST POP PUSH1 0x60 DUP3 ADD MLOAD PUSH2 0x173A PUSH1 0x60 DUP6 ADD DUP3 PUSH2 0x16DC JUMP JUMPDEST POP PUSH1 0x80 DUP3 ADD MLOAD PUSH2 0x174D PUSH1 0x80 DUP6 ADD DUP3 PUSH2 0x16CD JUMP JUMPDEST POP PUSH1 0xA0 DUP3 ADD MLOAD PUSH2 0x1760 PUSH1 0xA0 DUP6 ADD DUP3 PUSH2 0x16CD JUMP JUMPDEST POP POP POP POP JUMP JUMPDEST PUSH1 0x0 PUSH1 0xC0 DUP3 ADD SWAP1 POP PUSH2 0x177B PUSH1 0x0 DUP4 ADD DUP5 PUSH2 0x16EB JUMP JUMPDEST SWAP3 SWAP2 POP POP JUMP JUMPDEST PUSH1 0x0 PUSH1 0x20 DUP3 ADD SWAP1 POP PUSH2 0x1796 PUSH1 0x0 DUP4 ADD DUP5 PUSH2 0x1599 JUMP JUMPDEST SWAP3 SWAP2 POP POP JUMP JUMPDEST PUSH1 0x0 PUSH1 0x20 DUP3 ADD SWAP1 POP PUSH2 0x17B1 PUSH1 0x0 DUP4 ADD DUP5 PUSH2 0x158A JUMP JUMPDEST SWAP3 SWAP2 POP POP JUMP JUMPDEST PUSH1 0x0 PUSH1 0xC0 DUP3 ADD SWAP1 POP PUSH2 0x17CC PUSH1 0x0 DUP4 ADD DUP10 PUSH2 0x158A JUMP JUMPDEST PUSH2 0x17D9 PUSH1 0x20 DUP4 ADD DUP9 PUSH2 0x158A JUMP JUMPDEST PUSH2 0x17E6 PUSH1 0x40 DUP4 ADD DUP8 PUSH2 0x1599 JUMP JUMPDEST PUSH2 0x17F3 PUSH1 0x60 DUP4 ADD DUP7 PUSH2 0x163B JUMP JUMPDEST PUSH2 0x1800 PUSH1 0x80 DUP4 ADD DUP6 PUSH2 0x1599 JUMP JUMPDEST PUSH2 0x180D PUSH1 0xA0 DUP4 ADD DUP5 PUSH2 0x1599 JUMP JUMPDEST SWAP8 SWAP7 POP POP POP POP POP POP POP JUMP JUMPDEST PUSH1 0x0 DUP1 PUSH1 0x0 PUSH1 0x60 DUP5 DUP7 SUB SLT ISZERO PUSH2 0x1831 JUMPI PUSH2 0x1830 PUSH2 0x15D1 JUMP JUMPDEST JUMPDEST PUSH1 0x0 PUSH2 0x183F DUP7 DUP3 DUP8 ADD PUSH2 0x15ED JUMP JUMPDEST SWAP4 POP POP PUSH1 0x20 PUSH2 0x1850 DUP7 DUP3 DUP8 ADD PUSH2 0x167C JUMP JUMPDEST SWAP3 POP POP PUSH1 0x40 PUSH2 0x1861 DUP7 DUP3 DUP8 ADD PUSH2 0x167C JUMP JUMPDEST SWAP2 POP POP SWAP3 POP SWAP3 POP SWAP3 JUMP JUMPDEST PUSH1 0x0 DUP2 MLOAD SWAP1 POP SWAP2 SWAP1 POP JUMP JUMPDEST PUSH1 0x0 DUP3 DUP3 MSTORE PUSH1 0x20 DUP3 ADD SWAP1 POP SWAP3 SWAP2 POP POP JUMP JUMPDEST PUSH1 0x0 DUP2 SWAP1 POP PUSH1 0x20 DUP3 ADD SWAP1 POP SWAP2 SWAP1 POP JUMP JUMPDEST PUSH1 0x0 PUSH2 0x18A3 DUP4 DUP4 PUSH2 0x16CD JUMP JUMPDEST PUSH1 0x20 DUP4 ADD SWAP1 POP SWAP3 SWAP2 POP POP JUMP JUMPDEST PUSH1 0x0 PUSH1 0x20 DUP3 ADD SWAP1 POP SWAP2 SWAP1 POP JUMP JUMPDEST PUSH1 0x0 PUSH2 0x18C7 DUP3 PUSH2 0x186B JUMP JUMPDEST PUSH2 0x18D1 DUP2 DUP6 PUSH2 0x1876 JUMP JUMPDEST SWAP4 POP PUSH2 0x18DC DUP4 PUSH2 0x1887 JUMP JUMPDEST DUP1 PUSH1 0x0 JUMPDEST DUP4 DUP2 LT ISZERO PUSH2 0x190D JUMPI DUP2 MLOAD PUSH2 0x18F4 DUP9 DUP3 PUSH2 0x1897 JUMP JUMPDEST SWAP8 POP PUSH2 0x18FF DUP4 PUSH2 0x18AF JUMP JUMPDEST SWAP3 POP POP PUSH1 0x1 DUP2 ADD SWAP1 POP PUSH2 0x18E0 JUMP JUMPDEST POP DUP6 SWAP4 POP POP POP POP SWAP3 SWAP2 POP POP JUMP JUMPDEST PUSH1 0x0 PUSH1 0x20 DUP3 ADD SWAP1 POP DUP2 DUP2 SUB PUSH1 0x0 DUP4 ADD MSTORE PUSH2 0x1934 DUP2 DUP5 PUSH2 0x18BC JUMP JUMPDEST SWAP1 POP SWAP3 SWAP2 POP POP JUMP JUMPDEST PUSH1 0x0 DUP3 DUP3 MSTORE PUSH1 0x20 DUP3 ADD SWAP1 POP SWAP3 SWAP2 POP POP JUMP JUMPDEST PUSH32 0x596F752063616E27742061636365737321000000000000000000000000000000 PUSH1 0x0 DUP3 ADD MSTORE POP JUMP JUMPDEST PUSH1 0x0 PUSH2 0x1983 PUSH1 0x11 DUP4 PUSH2 0x193C JUMP JUMPDEST SWAP2 POP PUSH2 0x198E DUP3 PUSH2 0x194D JUMP JUMPDEST PUSH1 0x20 DUP3 ADD SWAP1 POP SWAP2 SWAP1 POP JUMP JUMPDEST PUSH1 0x0 PUSH1 0x20 DUP3 ADD SWAP1 POP DUP2 DUP2 SUB PUSH1 0x0 DUP4 ADD MSTORE PUSH2 0x19B2 DUP2 PUSH2 0x1976 JUMP JUMPDEST SWAP1 POP SWAP2 SWAP1 POP JUMP JUMPDEST PUSH32 0x596F7520617265206E6F74206F776E6572210000000000000000000000000000 PUSH1 0x0 DUP3 ADD MSTORE POP JUMP JUMPDEST PUSH1 0x0 PUSH2 0x19EF PUSH1 0x12 DUP4 PUSH2 0x193C JUMP JUMPDEST SWAP2 POP PUSH2 0x19FA DUP3 PUSH2 0x19B9 JUMP JUMPDEST PUSH1 0x20 DUP3 ADD SWAP1 POP SWAP2 SWAP1 POP JUMP JUMPDEST PUSH1 0x0 PUSH1 0x20 DUP3 ADD SWAP1 POP DUP2 DUP2 SUB PUSH1 0x0 DUP4 ADD MSTORE PUSH2 0x1A1E DUP2 PUSH2 0x19E2 JUMP JUMPDEST SWAP1 POP SWAP2 SWAP1 POP JUMP JUMPDEST PUSH32 0x5472616E73616374696F6E206D75737420657869737400000000000000000000 PUSH1 0x0 DUP3 ADD MSTORE POP JUMP JUMPDEST PUSH1 0x0 PUSH2 0x1A5B PUSH1 0x16 DUP4 PUSH2 0x193C JUMP JUMPDEST SWAP2 POP PUSH2 0x1A66 DUP3 PUSH2 0x1A25 JUMP JUMPDEST PUSH1 0x20 DUP3 ADD SWAP1 POP SWAP2 SWAP1 POP JUMP JUMPDEST PUSH1 0x0 PUSH1 0x20 DUP3 ADD SWAP1 POP DUP2 DUP2 SUB PUSH1 0x0 DUP4 ADD MSTORE PUSH2 0x1A8A DUP2 PUSH2 0x1A4E JUMP JUMPDEST SWAP1 POP SWAP2 SWAP1 POP JUMP JUMPDEST PUSH32 0x43726561746F722063616E6E6F74207369676E20746865207472616E73616374 PUSH1 0x0 DUP3 ADD MSTORE PUSH32 0x696F6E0000000000000000000000000000000000000000000000000000000000 PUSH1 0x20 DUP3 ADD MSTORE POP JUMP JUMPDEST PUSH1 0x0 PUSH2 0x1AED PUSH1 0x23 DUP4 PUSH2 0x193C JUMP JUMPDEST SWAP2 POP PUSH2 0x1AF8 DUP3 PUSH2 0x1A91 JUMP JUMPDEST PUSH1 0x40 DUP3 ADD SWAP1 POP SWAP2 SWAP1 POP JUMP JUMPDEST PUSH1 0x0 PUSH1 0x20 DUP3 ADD SWAP1 POP DUP2 DUP2 SUB PUSH1 0x0 DUP4 ADD MSTORE PUSH2 0x1B1C DUP2 PUSH2 0x1AE0 JUMP JUMPDEST SWAP1 POP SWAP2 SWAP1 POP JUMP JUMPDEST PUSH32 0x596F752063616E6E6F74207369676E20746865207472616E73616374696F6E20 PUSH1 0x0 DUP3 ADD MSTORE PUSH32 0x6D6F7265207468616E206F6E6365000000000000000000000000000000000000 PUSH1 0x20 DUP3 ADD MSTORE POP JUMP JUMPDEST PUSH1 0x0 PUSH2 0x1B7F PUSH1 0x2E DUP4 PUSH2 0x193C JUMP JUMPDEST SWAP2 POP PUSH2 0x1B8A DUP3 PUSH2 0x1B23 JUMP JUMPDEST PUSH1 0x40 DUP3 ADD SWAP1 POP SWAP2 SWAP1 POP JUMP JUMPDEST PUSH1 0x0 PUSH1 0x20 DUP3 ADD SWAP1 POP DUP2 DUP2 SUB PUSH1 0x0 DUP4 ADD MSTORE PUSH2 0x1BAE DUP2 PUSH2 0x1B72 JUMP JUMPDEST SWAP1 POP SWAP2 SWAP1 POP JUMP JUMPDEST PUSH32 0x4E6F7420656E6F756768742066756E6400000000000000000000000000000000 PUSH1 0x0 DUP3 ADD MSTORE POP JUMP JUMPDEST PUSH1 0x0 PUSH2 0x1BEB PUSH1 0x10 DUP4 PUSH2 0x193C JUMP JUMPDEST SWAP2 POP PUSH2 0x1BF6 DUP3 PUSH2 0x1BB5 JUMP JUMPDEST PUSH1 0x20 DUP3 ADD SWAP1 POP SWAP2 SWAP1 POP JUMP JUMPDEST PUSH1 0x0 PUSH1 0x20 DUP3 ADD SWAP1 POP DUP2 DUP2 SUB PUSH1 0x0 DUP4 ADD MSTORE PUSH2 0x1C1A DUP2 PUSH2 0x1BDE JUMP JUMPDEST SWAP1 POP SWAP2 SWAP1 POP JUMP JUMPDEST PUSH1 0x0 PUSH1 0x80 DUP3 ADD SWAP1 POP PUSH2 0x1C36 PUSH1 0x0 DUP4 ADD DUP8 PUSH2 0x158A JUMP JUMPDEST PUSH2 0x1C43 PUSH1 0x20 DUP4 ADD DUP7 PUSH2 0x158A JUMP JUMPDEST PUSH2 0x1C50 PUSH1 0x40 DUP4 ADD DUP6 PUSH2 0x1599 JUMP JUMPDEST PUSH2 0x1C5D PUSH1 0x60 DUP4 ADD DUP5 PUSH2 0x1599 JUMP JUMPDEST SWAP6 SWAP5 POP POP POP POP POP JUMP JUMPDEST PUSH32 0x4E6F7420656E6F756768742062616C616E636500000000000000000000000000 PUSH1 0x0 DUP3 ADD MSTORE POP JUMP JUMPDEST PUSH1 0x0 PUSH2 0x1C9C PUSH1 0x13 DUP4 PUSH2 0x193C JUMP JUMPDEST SWAP2 POP PUSH2 0x1CA7 DUP3 PUSH2 0x1C66 JUMP JUMPDEST PUSH1 0x20 DUP3 ADD SWAP1 POP SWAP2 SWAP1 POP JUMP JUMPDEST PUSH1 0x0 PUSH1 0x20 DUP3 ADD SWAP1 POP DUP2 DUP2 SUB PUSH1 0x0 DUP4 ADD MSTORE PUSH2 0x1CCB DUP2 PUSH2 0x1C8F JUMP JUMPDEST SWAP1 POP SWAP2 SWAP1 POP JUMP JUMPDEST PUSH1 0x0 PUSH2 0x1CDD DUP3 PUSH2 0x14EB JUMP JUMPDEST SWAP2 POP PUSH32 0xFFFFFFFFFFFFFFFFFFFFFFFFFFFFFFFFFFFFFFFFFFFFFFFFFFFFFFFFFFFFFFFF DUP3 SUB PUSH2 0x1D0F JUMPI PUSH2 0x1D0E PUSH2 0x14F5 JUMP JUMPDEST JUMPDEST PUSH1 0x1 DUP3 ADD SWAP1 POP SWAP2 SWAP1 POP JUMP JUMPDEST PUSH1 0x0 PUSH1 0x60 DUP3 ADD SWAP1 POP PUSH2 0x1D2F PUSH1 0x0 DUP4 ADD DUP7 PUSH2 0x158A JUMP JUMPDEST PUSH2 0x1D3C PUSH1 0x20 DUP4 ADD DUP6 PUSH2 0x158A JUMP JUMPDEST PUSH2 0x1D49 PUSH1 0x40 DUP4 ADD DUP5 PUSH2 0x1599 JUMP JUMPDEST SWAP5 SWAP4 POP POP POP POP JUMP JUMPDEST PUSH32 0x4E487B7100000000000000000000000000000000000000000000000000000000 PUSH1 0x0 MSTORE PUSH1 0x32 PUSH1 0x4 MSTORE PUSH1 0x24 PUSH1 0x0 REVERT INVALID LOG2 PUSH5 0x6970667358 0x22 SLT KECCAK256 0xA7 PUSH14 0xD7928803B989AD7AB09EEFD27E52 PUSH6 0x8A402DF7E758 0xA9 0xE0 DUP9 0xD9 0xBC 0x49 0xE9 SIGNEXTEND BALANCE PUSH5 0x736F6C6343 STOP ADDMOD SLT STOP CALLER "
				},
				"gasEstimates": {
					"creation": {
						"codeDepositCost": "1521200",
						"executionCost": "25855",
						"totalCost": "1547055"
					},
					"external": {
						"addOwner(address)": "26979",
						"funds(address)": "2924",
						"getPendingTransaction(uint256)": "infinite",
						"getPendingTransactions()": "infinite",
						"owner()": "2533",
						"owners(address)": "2846",
						"pendingTransactions(uint256)": "infinite",
						"removeOwner(address)": "27002",
						"signTransaction(uint256)": "infinite",
						"tranferTo(address,uint256,uint256)": "infinite",
						"transactions(uint256)": "infinite"
					},
					"internal": {
						"deleteTransaction(uint256)": "infinite"
					}
				},
				"methodIdentifiers": {
					"addOwner(address)": "7065cb48",
					"funds(address)": "e2ae93fb",
					"getPendingTransaction(uint256)": "23fbae41",
					"getPendingTransactions()": "d11db83f",
					"owner()": "8da5cb5b",
					"owners(address)": "022914a7",
					"pendingTransactions(uint256)": "63a8374d",
					"removeOwner(address)": "173825d9",
					"signTransaction(uint256)": "5d9ec210",
					"tranferTo(address,uint256,uint256)": "b1973bcc",
					"transactions(uint256)": "9ace38c2"
				}
			},
			"storageLayout": {
				"storage": [
					{
						"astId": 3,
						"contract": "contracts/122.sol:MultiSign",
						"label": "owner",
						"offset": 0,
						"slot": "0",
						"type": "t_address"
					},
					{
						"astId": 5,
						"contract": "contracts/122.sol:MultiSign",
						"label": "transactionIdx",
						"offset": 0,
						"slot": "1",
						"type": "t_uint256"
					},
					{
						"astId": 8,
						"contract": "contracts/122.sol:MultiSign",
						"label": "pendingTransactions",
						"offset": 0,
						"slot": "2",
						"type": "t_array(t_uint256)dyn_storage"
					},
					{
						"astId": 12,
						"contract": "contracts/122.sol:MultiSign",
						"label": "owners",
						"offset": 0,
						"slot": "3",
						"type": "t_mapping(t_address,t_bool)"
					},
					{
						"astId": 16,
						"contract": "contracts/122.sol:MultiSign",
						"label": "funds",
						"offset": 0,
						"slot": "4",
						"type": "t_mapping(t_address,t_uint256)"
					},
					{
						"astId": 35,
						"contract": "contracts/122.sol:MultiSign",
						"label": "signatures",
						"offset": 0,
						"slot": "5",
						"type": "t_mapping(t_uint256,t_mapping(t_address,t_bool))"
					},
					{
						"astId": 40,
						"contract": "contracts/122.sol:MultiSign",
						"label": "transactions",
						"offset": 0,
						"slot": "6",
						"type": "t_mapping(t_uint256,t_struct(Transaction)29_storage)"
					}
				],
				"types": {
					"t_address": {
						"encoding": "inplace",
						"label": "address",
						"numberOfBytes": "20"
					},
					"t_array(t_uint256)dyn_storage": {
						"base": "t_uint256",
						"encoding": "dynamic_array",
						"label": "uint256[]",
						"numberOfBytes": "32"
					},
					"t_bool": {
						"encoding": "inplace",
						"label": "bool",
						"numberOfBytes": "1"
					},
					"t_mapping(t_address,t_bool)": {
						"encoding": "mapping",
						"key": "t_address",
						"label": "mapping(address => bool)",
						"numberOfBytes": "32",
						"value": "t_bool"
					},
					"t_mapping(t_address,t_uint256)": {
						"encoding": "mapping",
						"key": "t_address",
						"label": "mapping(address => uint256)",
						"numberOfBytes": "32",
						"value": "t_uint256"
					},
					"t_mapping(t_uint256,t_mapping(t_address,t_bool))": {
						"encoding": "mapping",
						"key": "t_uint256",
						"label": "mapping(uint256 => mapping(address => bool))",
						"numberOfBytes": "32",
						"value": "t_mapping(t_address,t_bool)"
					},
					"t_mapping(t_uint256,t_struct(Transaction)29_storage)": {
						"encoding": "mapping",
						"key": "t_uint256",
						"label": "mapping(uint256 => struct MultiSign.Transaction)",
						"numberOfBytes": "32",
						"value": "t_struct(Transaction)29_storage"
					},
					"t_struct(Transaction)29_storage": {
						"encoding": "inplace",
						"label": "struct MultiSign.Transaction",
						"members": [
							{
								"astId": 18,
								"contract": "contracts/122.sol:MultiSign",
								"label": "from",
								"offset": 0,
								"slot": "0",
								"type": "t_address"
							},
							{
								"astId": 20,
								"contract": "contracts/122.sol:MultiSign",
								"label": "to",
								"offset": 0,
								"slot": "1",
								"type": "t_address"
							},
							{
								"astId": 22,
								"contract": "contracts/122.sol:MultiSign",
								"label": "amount",
								"offset": 0,
								"slot": "2",
								"type": "t_uint256"
							},
							{
								"astId": 24,
								"contract": "contracts/122.sol:MultiSign",
								"label": "isConfirm",
								"offset": 0,
								"slot": "3",
								"type": "t_bool"
							},
							{
								"astId": 26,
								"contract": "contracts/122.sol:MultiSign",
								"label": "signatureCount",
								"offset": 0,
								"slot": "4",
								"type": "t_uint256"
							},
							{
								"astId": 28,
								"contract": "contracts/122.sol:MultiSign",
								"label": "numOfSignatureRequired",
								"offset": 0,
								"slot": "5",
								"type": "t_uint256"
							}
						],
						"numberOfBytes": "192"
					},
					"t_uint256": {
						"encoding": "inplace",
						"label": "uint256",
						"numberOfBytes": "32"
					}
				}
			},
			"userdoc": {
				"kind": "user",
				"methods": {},
				"version": 1
			}
		}
	}
}