{
	"contracts/113.sol": {
		"Main": {
			"abi": [
				{
					"anonymous": false,
					"inputs": [
						{
							"indexed": false,
							"internalType": "uint256",
							"name": "size",
							"type": "uint256"
						}
					],
					"name": "Console",
					"type": "event"
				},
				{
					"inputs": [
						{
							"internalType": "address",
							"name": "_addr",
							"type": "address"
						}
					],
					"name": "checkContract",
					"outputs": [
						{
							"internalType": "bool",
							"name": "",
							"type": "bool"
						}
					],
					"stateMutability": "view",
					"type": "function"
				},
				{
					"inputs": [
						{
							"internalType": "address",
							"name": "_addr",
							"type": "address"
						}
					],
					"name": "isContract",
					"outputs": [
						{
							"internalType": "bool",
							"name": "",
							"type": "bool"
						}
					],
					"stateMutability": "view",
					"type": "function"
				},
				{
					"inputs": [
						{
							"internalType": "address",
							"name": "_addr",
							"type": "address"
						}
					],
					"name": "isContractFun",
					"outputs": [
						{
							"internalType": "bool",
							"name": "",
							"type": "bool"
						}
					],
					"stateMutability": "view",
					"type": "function"
				}
			],
			"devdoc": {
				"kind": "dev",
				"methods": {},
				"version": 1
			},
			"evm": {
				"assembly": "    /* \"contracts/113.sol\":143:896  contract Main{ ... */\n  mstore(0x40, 0x80)\n  callvalue\n  dup1\n  iszero\n  tag_1\n  jumpi\n  0x00\n  dup1\n  revert\ntag_1:\n  pop\n  dataSize(sub_0)\n  dup1\n  dataOffset(sub_0)\n  0x00\n  codecopy\n  0x00\n  return\nstop\n\nsub_0: assembly {\n        /* \"contracts/113.sol\":143:896  contract Main{ ... */\n      mstore(0x40, 0x80)\n      callvalue\n      dup1\n      iszero\n      tag_1\n      jumpi\n      0x00\n      dup1\n      revert\n    tag_1:\n      pop\n      jumpi(tag_2, lt(calldatasize, 0x04))\n      shr(0xe0, calldataload(0x00))\n      dup1\n      0x16279055\n      eq\n      tag_3\n      jumpi\n      dup1\n      0xd7b12454\n      eq\n      tag_4\n      jumpi\n      dup1\n      0xda757c3a\n      eq\n      tag_5\n      jumpi\n    tag_2:\n      0x00\n      dup1\n      revert\n        /* \"contracts/113.sol\":573:758  function isContract(address _addr) public view returns(bool){... */\n    tag_3:\n      tag_6\n      0x04\n      dup1\n      calldatasize\n      sub\n      dup2\n      add\n      swap1\n      tag_7\n      swap2\n      swap1\n      tag_8\n      jump\t// in\n    tag_7:\n      tag_9\n      jump\t// in\n    tag_6:\n      mload(0x40)\n      tag_10\n      swap2\n      swap1\n      tag_11\n      jump\t// in\n    tag_10:\n      mload(0x40)\n      dup1\n      swap2\n      sub\n      swap1\n      return\n        /* \"contracts/113.sol\":214:548  function checkContract(address _addr) public view returns(bool){... */\n    tag_4:\n      tag_12\n      0x04\n      dup1\n      calldatasize\n      sub\n      dup2\n      add\n      swap1\n      tag_13\n      swap2\n      swap1\n      tag_8\n      jump\t// in\n    tag_13:\n      tag_14\n      jump\t// in\n    tag_12:\n      mload(0x40)\n      tag_15\n      swap2\n      swap1\n      tag_11\n      jump\t// in\n    tag_15:\n      mload(0x40)\n      dup1\n      swap2\n      sub\n      swap1\n      return\n        /* \"contracts/113.sol\":783:893  function isContractFun(address _addr) public view returns(bool){... */\n    tag_5:\n      tag_16\n      0x04\n      dup1\n      calldatasize\n      sub\n      dup2\n      add\n      swap1\n      tag_17\n      swap2\n      swap1\n      tag_8\n      jump\t// in\n    tag_17:\n      tag_18\n      jump\t// in\n    tag_16:\n      mload(0x40)\n      tag_19\n      swap2\n      swap1\n      tag_11\n      jump\t// in\n    tag_19:\n      mload(0x40)\n      dup1\n      swap2\n      sub\n      swap1\n      return\n        /* \"contracts/113.sol\":573:758  function isContract(address _addr) public view returns(bool){... */\n    tag_9:\n        /* \"contracts/113.sol\":628:632  bool */\n      0x00\n        /* \"contracts/113.sol\":644:653  uint size */\n      dup1\n        /* \"contracts/113.sol\":708:713  _addr */\n      dup3\n        /* \"contracts/113.sol\":696:714  extcodesize(_addr) */\n      extcodesize\n        /* \"contracts/113.sol\":688:714  size := extcodesize(_addr) */\n      swap1\n      pop\n        /* \"contracts/113.sol\":749:750  0 */\n      0x00\n        /* \"contracts/113.sol\":742:746  size */\n      dup2\n        /* \"contracts/113.sol\":742:750  size > 0 */\n      gt\n        /* \"contracts/113.sol\":735:750  return size > 0 */\n      swap2\n      pop\n      pop\n        /* \"contracts/113.sol\":573:758  function isContract(address _addr) public view returns(bool){... */\n      swap2\n      swap1\n      pop\n      jump\t// out\n        /* \"contracts/113.sol\":214:548  function checkContract(address _addr) public view returns(bool){... */\n    tag_14:\n        /* \"contracts/113.sol\":272:276  bool */\n      0x00\n        /* \"contracts/113.sol\":288:307  bytes32 accountHash */\n      dup1\n        /* \"contracts/113.sol\":310:376  0xc5d2460186f7233c927e7db2dcc703c0e500b653ca82273b7bfad8045d85a470 */\n      0xc5d2460186f7233c927e7db2dcc703c0e500b653ca82273b7bfad8045d85a470\n        /* \"contracts/113.sol\":288:376  bytes32 accountHash = 0xc5d2460186f7233c927e7db2dcc703c0e500b653ca82273b7bfad8045d85a470 */\n      0x00\n      shl\n      swap1\n      pop\n        /* \"contracts/113.sol\":387:403  bytes32 codehash */\n      0x00\n        /* \"contracts/113.sol\":463:468  _addr */\n      dup4\n        /* \"contracts/113.sol\":451:469  extcodehash(_addr) */\n      extcodehash\n        /* \"contracts/113.sol\":439:469  codehash := extcodehash(_addr) */\n      swap1\n      pop\n        /* \"contracts/113.sol\":509:512  0x0 */\n      0x00\n        /* \"contracts/113.sol\":497:512  codehash != 0x0 */\n      dup1\n      shl\n        /* \"contracts/113.sol\":497:505  codehash */\n      dup2\n        /* \"contracts/113.sol\":497:512  codehash != 0x0 */\n      eq\n      iszero\n        /* \"contracts/113.sol\":497:539  codehash != 0x0 && codehash != accountHash */\n      dup1\n      iszero\n      tag_22\n      jumpi\n      pop\n        /* \"contracts/113.sol\":528:539  accountHash */\n      dup2\n        /* \"contracts/113.sol\":516:524  codehash */\n      dup2\n        /* \"contracts/113.sol\":516:539  codehash != accountHash */\n      eq\n      iszero\n        /* \"contracts/113.sol\":497:539  codehash != 0x0 && codehash != accountHash */\n    tag_22:\n        /* \"contracts/113.sol\":490:540  return(codehash != 0x0 && codehash != accountHash) */\n      swap3\n      pop\n      pop\n      pop\n        /* \"contracts/113.sol\":214:548  function checkContract(address _addr) public view returns(bool){... */\n      swap2\n      swap1\n      pop\n      jump\t// out\n        /* \"contracts/113.sol\":783:893  function isContractFun(address _addr) public view returns(bool){... */\n    tag_18:\n        /* \"contracts/113.sol\":841:845  bool */\n      0x00\n        /* \"contracts/113.sol\":884:885  0 */\n      dup1\n        /* \"contracts/113.sol\":864:869  _addr */\n      dup3\n        /* \"contracts/113.sol\":864:881  _addr.code.length */\n      0xffffffffffffffffffffffffffffffffffffffff\n      and\n      extcodesize\n        /* \"contracts/113.sol\":864:885  _addr.code.length > 0 */\n      gt\n        /* \"contracts/113.sol\":857:885  return _addr.code.length > 0 */\n      swap1\n      pop\n        /* \"contracts/113.sol\":783:893  function isContractFun(address _addr) public view returns(bool){... */\n      swap2\n      swap1\n      pop\n      jump\t// out\n        /* \"#utility.yul\":88:205   */\n    tag_25:\n        /* \"#utility.yul\":197:198   */\n      0x00\n        /* \"#utility.yul\":194:195   */\n      dup1\n        /* \"#utility.yul\":187:199   */\n      revert\n        /* \"#utility.yul\":334:460   */\n    tag_27:\n        /* \"#utility.yul\":371:378   */\n      0x00\n        /* \"#utility.yul\":411:453   */\n      0xffffffffffffffffffffffffffffffffffffffff\n        /* \"#utility.yul\":404:409   */\n      dup3\n        /* \"#utility.yul\":400:454   */\n      and\n        /* \"#utility.yul\":389:454   */\n      swap1\n      pop\n        /* \"#utility.yul\":334:460   */\n      swap2\n      swap1\n      pop\n      jump\t// out\n        /* \"#utility.yul\":466:562   */\n    tag_28:\n        /* \"#utility.yul\":503:510   */\n      0x00\n        /* \"#utility.yul\":532:556   */\n      tag_39\n        /* \"#utility.yul\":550:555   */\n      dup3\n        /* \"#utility.yul\":532:556   */\n      tag_27\n      jump\t// in\n    tag_39:\n        /* \"#utility.yul\":521:556   */\n      swap1\n      pop\n        /* \"#utility.yul\":466:562   */\n      swap2\n      swap1\n      pop\n      jump\t// out\n        /* \"#utility.yul\":568:690   */\n    tag_29:\n        /* \"#utility.yul\":641:665   */\n      tag_41\n        /* \"#utility.yul\":659:664   */\n      dup2\n        /* \"#utility.yul\":641:665   */\n      tag_28\n      jump\t// in\n    tag_41:\n        /* \"#utility.yul\":634:639   */\n      dup2\n        /* \"#utility.yul\":631:666   */\n      eq\n        /* \"#utility.yul\":621:684   */\n      tag_42\n      jumpi\n        /* \"#utility.yul\":680:681   */\n      0x00\n        /* \"#utility.yul\":677:678   */\n      dup1\n        /* \"#utility.yul\":670:682   */\n      revert\n        /* \"#utility.yul\":621:684   */\n    tag_42:\n        /* \"#utility.yul\":568:690   */\n      pop\n      jump\t// out\n        /* \"#utility.yul\":696:835   */\n    tag_30:\n        /* \"#utility.yul\":742:747   */\n      0x00\n        /* \"#utility.yul\":780:786   */\n      dup2\n        /* \"#utility.yul\":767:787   */\n      calldataload\n        /* \"#utility.yul\":758:787   */\n      swap1\n      pop\n        /* \"#utility.yul\":796:829   */\n      tag_44\n        /* \"#utility.yul\":823:828   */\n      dup2\n        /* \"#utility.yul\":796:829   */\n      tag_29\n      jump\t// in\n    tag_44:\n        /* \"#utility.yul\":696:835   */\n      swap3\n      swap2\n      pop\n      pop\n      jump\t// out\n        /* \"#utility.yul\":841:1170   */\n    tag_8:\n        /* \"#utility.yul\":900:906   */\n      0x00\n        /* \"#utility.yul\":949:951   */\n      0x20\n        /* \"#utility.yul\":937:946   */\n      dup3\n        /* \"#utility.yul\":928:935   */\n      dup5\n        /* \"#utility.yul\":924:947   */\n      sub\n        /* \"#utility.yul\":920:952   */\n      slt\n        /* \"#utility.yul\":917:1036   */\n      iszero\n      tag_46\n      jumpi\n        /* \"#utility.yul\":955:1034   */\n      tag_47\n      tag_25\n      jump\t// in\n    tag_47:\n        /* \"#utility.yul\":917:1036   */\n    tag_46:\n        /* \"#utility.yul\":1075:1076   */\n      0x00\n        /* \"#utility.yul\":1100:1153   */\n      tag_48\n        /* \"#utility.yul\":1145:1152   */\n      dup5\n        /* \"#utility.yul\":1136:1142   */\n      dup3\n        /* \"#utility.yul\":1125:1134   */\n      dup6\n        /* \"#utility.yul\":1121:1143   */\n      add\n        /* \"#utility.yul\":1100:1153   */\n      tag_30\n      jump\t// in\n    tag_48:\n        /* \"#utility.yul\":1090:1153   */\n      swap2\n      pop\n        /* \"#utility.yul\":1046:1163   */\n      pop\n        /* \"#utility.yul\":841:1170   */\n      swap3\n      swap2\n      pop\n      pop\n      jump\t// out\n        /* \"#utility.yul\":1176:1266   */\n    tag_31:\n        /* \"#utility.yul\":1210:1217   */\n      0x00\n        /* \"#utility.yul\":1253:1258   */\n      dup2\n        /* \"#utility.yul\":1246:1259   */\n      iszero\n        /* \"#utility.yul\":1239:1260   */\n      iszero\n        /* \"#utility.yul\":1228:1260   */\n      swap1\n      pop\n        /* \"#utility.yul\":1176:1266   */\n      swap2\n      swap1\n      pop\n      jump\t// out\n        /* \"#utility.yul\":1272:1381   */\n    tag_32:\n        /* \"#utility.yul\":1353:1374   */\n      tag_51\n        /* \"#utility.yul\":1368:1373   */\n      dup2\n        /* \"#utility.yul\":1353:1374   */\n      tag_31\n      jump\t// in\n    tag_51:\n        /* \"#utility.yul\":1348:1351   */\n      dup3\n        /* \"#utility.yul\":1341:1375   */\n      mstore\n        /* \"#utility.yul\":1272:1381   */\n      pop\n      pop\n      jump\t// out\n        /* \"#utility.yul\":1387:1597   */\n    tag_11:\n        /* \"#utility.yul\":1474:1478   */\n      0x00\n        /* \"#utility.yul\":1512:1514   */\n      0x20\n        /* \"#utility.yul\":1501:1510   */\n      dup3\n        /* \"#utility.yul\":1497:1515   */\n      add\n        /* \"#utility.yul\":1489:1515   */\n      swap1\n      pop\n        /* \"#utility.yul\":1525:1590   */\n      tag_53\n        /* \"#utility.yul\":1587:1588   */\n      0x00\n        /* \"#utility.yul\":1576:1585   */\n      dup4\n        /* \"#utility.yul\":1572:1589   */\n      add\n        /* \"#utility.yul\":1563:1569   */\n      dup5\n        /* \"#utility.yul\":1525:1590   */\n      tag_32\n      jump\t// in\n    tag_53:\n        /* \"#utility.yul\":1387:1597   */\n      swap3\n      swap2\n      pop\n      pop\n      jump\t// out\n\n    auxdata: 0xa2646970667358221220ad941c0ee4b217d45be55d3d6bdc74cc8867e5264b0ecb666f02f069915db2e264736f6c63430008110033\n}\n",
				"bytecode": {
					"linkReferences": {},
					"object": "608060405234801561001057600080fd5b50610253806100206000396000f3fe608060405234801561001057600080fd5b50600436106100415760003560e01c80631627905514610046578063d7b1245414610076578063da757c3a146100a6575b600080fd5b610060600480360381019061005b91906101ba565b6100d6565b60405161006d9190610202565b60405180910390f35b610090600480360381019061008b91906101ba565b6100e9565b60405161009d9190610202565b60405180910390f35b6100c060048036038101906100bb91906101ba565b610134565b6040516100cd9190610202565b60405180910390f35b600080823b905060008111915050919050565b6000807fc5d2460186f7233c927e7db2dcc703c0e500b653ca82273b7bfad8045d85a47060001b90506000833f90506000801b811415801561012b5750818114155b92505050919050565b6000808273ffffffffffffffffffffffffffffffffffffffff163b119050919050565b600080fd5b600073ffffffffffffffffffffffffffffffffffffffff82169050919050565b60006101878261015c565b9050919050565b6101978161017c565b81146101a257600080fd5b50565b6000813590506101b48161018e565b92915050565b6000602082840312156101d0576101cf610157565b5b60006101de848285016101a5565b91505092915050565b60008115159050919050565b6101fc816101e7565b82525050565b600060208201905061021760008301846101f3565b9291505056fea2646970667358221220ad941c0ee4b217d45be55d3d6bdc74cc8867e5264b0ecb666f02f069915db2e264736f6c63430008110033",
					"opcodes": "PUSH1 0x80 PUSH1 0x40 MSTORE CALLVALUE DUP1 ISZERO PUSH2 0x10 JUMPI PUSH1 0x0 DUP1 REVERT JUMPDEST POP PUSH2 0x253 DUP1 PUSH2 0x20 PUSH1 0x0 CODECOPY PUSH1 0x0 RETURN INVALID PUSH1 0x80 PUSH1 0x40 MSTORE CALLVALUE DUP1 ISZERO PUSH2 0x10 JUMPI PUSH1 0x0 DUP1 REVERT JUMPDEST POP PUSH1 0x4 CALLDATASIZE LT PUSH2 0x41 JUMPI PUSH1 0x0 CALLDATALOAD PUSH1 0xE0 SHR DUP1 PUSH4 0x16279055 EQ PUSH2 0x46 JUMPI DUP1 PUSH4 0xD7B12454 EQ PUSH2 0x76 JUMPI DUP1 PUSH4 0xDA757C3A EQ PUSH2 0xA6 JUMPI JUMPDEST PUSH1 0x0 DUP1 REVERT JUMPDEST PUSH2 0x60 PUSH1 0x4 DUP1 CALLDATASIZE SUB DUP2 ADD SWAP1 PUSH2 0x5B SWAP2 SWAP1 PUSH2 0x1BA JUMP JUMPDEST PUSH2 0xD6 JUMP JUMPDEST PUSH1 0x40 MLOAD PUSH2 0x6D SWAP2 SWAP1 PUSH2 0x202 JUMP JUMPDEST PUSH1 0x40 MLOAD DUP1 SWAP2 SUB SWAP1 RETURN JUMPDEST PUSH2 0x90 PUSH1 0x4 DUP1 CALLDATASIZE SUB DUP2 ADD SWAP1 PUSH2 0x8B SWAP2 SWAP1 PUSH2 0x1BA JUMP JUMPDEST PUSH2 0xE9 JUMP JUMPDEST PUSH1 0x40 MLOAD PUSH2 0x9D SWAP2 SWAP1 PUSH2 0x202 JUMP JUMPDEST PUSH1 0x40 MLOAD DUP1 SWAP2 SUB SWAP1 RETURN JUMPDEST PUSH2 0xC0 PUSH1 0x4 DUP1 CALLDATASIZE SUB DUP2 ADD SWAP1 PUSH2 0xBB SWAP2 SWAP1 PUSH2 0x1BA JUMP JUMPDEST PUSH2 0x134 JUMP JUMPDEST PUSH1 0x40 MLOAD PUSH2 0xCD SWAP2 SWAP1 PUSH2 0x202 JUMP JUMPDEST PUSH1 0x40 MLOAD DUP1 SWAP2 SUB SWAP1 RETURN JUMPDEST PUSH1 0x0 DUP1 DUP3 EXTCODESIZE SWAP1 POP PUSH1 0x0 DUP2 GT SWAP2 POP POP SWAP2 SWAP1 POP JUMP JUMPDEST PUSH1 0x0 DUP1 PUSH32 0xC5D2460186F7233C927E7DB2DCC703C0E500B653CA82273B7BFAD8045D85A470 PUSH1 0x0 SHL SWAP1 POP PUSH1 0x0 DUP4 EXTCODEHASH SWAP1 POP PUSH1 0x0 DUP1 SHL DUP2 EQ ISZERO DUP1 ISZERO PUSH2 0x12B JUMPI POP DUP2 DUP2 EQ ISZERO JUMPDEST SWAP3 POP POP POP SWAP2 SWAP1 POP JUMP JUMPDEST PUSH1 0x0 DUP1 DUP3 PUSH20 0xFFFFFFFFFFFFFFFFFFFFFFFFFFFFFFFFFFFFFFFF AND EXTCODESIZE GT SWAP1 POP SWAP2 SWAP1 POP JUMP JUMPDEST PUSH1 0x0 DUP1 REVERT JUMPDEST PUSH1 0x0 PUSH20 0xFFFFFFFFFFFFFFFFFFFFFFFFFFFFFFFFFFFFFFFF DUP3 AND SWAP1 POP SWAP2 SWAP1 POP JUMP JUMPDEST PUSH1 0x0 PUSH2 0x187 DUP3 PUSH2 0x15C JUMP JUMPDEST SWAP1 POP SWAP2 SWAP1 POP JUMP JUMPDEST PUSH2 0x197 DUP2 PUSH2 0x17C JUMP JUMPDEST DUP2 EQ PUSH2 0x1A2 JUMPI PUSH1 0x0 DUP1 REVERT JUMPDEST POP JUMP JUMPDEST PUSH1 0x0 DUP2 CALLDATALOAD SWAP1 POP PUSH2 0x1B4 DUP2 PUSH2 0x18E JUMP JUMPDEST SWAP3 SWAP2 POP POP JUMP JUMPDEST PUSH1 0x0 PUSH1 0x20 DUP3 DUP5 SUB SLT ISZERO PUSH2 0x1D0 JUMPI PUSH2 0x1CF PUSH2 0x157 JUMP JUMPDEST JUMPDEST PUSH1 0x0 PUSH2 0x1DE DUP5 DUP3 DUP6 ADD PUSH2 0x1A5 JUMP JUMPDEST SWAP2 POP POP SWAP3 SWAP2 POP POP JUMP JUMPDEST PUSH1 0x0 DUP2 ISZERO ISZERO SWAP1 POP SWAP2 SWAP1 POP JUMP JUMPDEST PUSH2 0x1FC DUP2 PUSH2 0x1E7 JUMP JUMPDEST DUP3 MSTORE POP POP JUMP JUMPDEST PUSH1 0x0 PUSH1 0x20 DUP3 ADD SWAP1 POP PUSH2 0x217 PUSH1 0x0 DUP4 ADD DUP5 PUSH2 0x1F3 JUMP JUMPDEST SWAP3 SWAP2 POP POP JUMP INVALID LOG2 PUSH5 0x6970667358 0x22 SLT KECCAK256 0xAD SWAP5 SHR 0xE 0xE4 0xB2 OR 0xD4 JUMPDEST 0xE5 0x5D RETURNDATASIZE PUSH12 0xDC74CC8867E5264B0ECB666F MUL CREATE PUSH10 0x915DB2E264736F6C6343 STOP ADDMOD GT STOP CALLER "
				},
				"gasEstimates": {
					"creation": {
						"codeDepositCost": "119000",
						"executionCost": "165",
						"totalCost": "119165"
					},
					"external": {
						"checkContract(address)": "3338",
						"isContract(address)": "3254",
						"isContractFun(address)": "3291"
					}
				},
				"methodIdentifiers": {
					"checkContract(address)": "d7b12454",
					"isContract(address)": "16279055",
					"isContractFun(address)": "da757c3a"
				}
			},
			"storageLayout": {
				"storage": [],
				"types": null
			},
			"userdoc": {
				"kind": "user",
				"methods": {},
				"version": 1
			}
		}
	}
}