{
	"contracts/118.sol": {
		"Main": {
			"abi": [
				{
					"inputs": [
						{
							"internalType": "address",
							"name": "",
							"type": "address"
						}
					],
					"name": "voters",
					"outputs": [
						{
							"internalType": "bool",
							"name": "voted",
							"type": "bool"
						},
						{
							"internalType": "address",
							"name": "delegate",
							"type": "address"
						}
					],
					"stateMutability": "view",
					"type": "function"
				},
				{
					"inputs": [],
					"name": "voting",
					"outputs": [],
					"stateMutability": "nonpayable",
					"type": "function"
				}
			],
			"devdoc": {
				"kind": "dev",
				"methods": {},
				"version": 1
			},
			"evm": {
				"assembly": "    /* \"contracts/118.sol\":162:517  contract Main {... */\n  mstore(0x40, 0x80)\n  callvalue\n  dup1\n  iszero\n  tag_1\n  jumpi\n  0x00\n  dup1\n  revert\ntag_1:\n  pop\n  dataSize(sub_0)\n  dup1\n  dataOffset(sub_0)\n  0x00\n  codecopy\n  0x00\n  return\nstop\n\nsub_0: assembly {\n        /* \"contracts/118.sol\":162:517  contract Main {... */\n      mstore(0x40, 0x80)\n      callvalue\n      dup1\n      iszero\n      tag_1\n      jumpi\n      0x00\n      dup1\n      revert\n    tag_1:\n      pop\n      jumpi(tag_2, lt(calldatasize, 0x04))\n      shr(0xe0, calldataload(0x00))\n      dup1\n      0xa3ec138d\n      eq\n      tag_3\n      jumpi\n      dup1\n      0xfce1ccca\n      eq\n      tag_4\n      jumpi\n    tag_2:\n      0x00\n      dup1\n      revert\n        /* \"contracts/118.sol\":262:301  mapping(address => Voter) public voters */\n    tag_3:\n      tag_5\n      0x04\n      dup1\n      calldatasize\n      sub\n      dup2\n      add\n      swap1\n      tag_6\n      swap2\n      swap1\n      tag_7\n      jump\t// in\n    tag_6:\n      tag_8\n      jump\t// in\n    tag_5:\n      mload(0x40)\n      tag_9\n      swap3\n      swap2\n      swap1\n      tag_10\n      jump\t// in\n    tag_9:\n      mload(0x40)\n      dup1\n      swap2\n      sub\n      swap1\n      return\n        /* \"contracts/118.sol\":310:512  function voting() public {... */\n    tag_4:\n      tag_11\n      tag_12\n      jump\t// in\n    tag_11:\n      stop\n        /* \"contracts/118.sol\":262:301  mapping(address => Voter) public voters */\n    tag_8:\n      mstore(0x20, 0x00)\n      dup1\n      0x00\n      mstore\n      keccak256(0x00, 0x40)\n      0x00\n      swap2\n      pop\n      swap1\n      pop\n      dup1\n      0x00\n      add\n      0x00\n      swap1\n      sload\n      swap1\n      0x0100\n      exp\n      swap1\n      div\n      0xff\n      and\n      swap1\n      dup1\n      0x00\n      add\n      0x01\n      swap1\n      sload\n      swap1\n      0x0100\n      exp\n      swap1\n      div\n      0xffffffffffffffffffffffffffffffffffffffff\n      and\n      swap1\n      pop\n      dup3\n      jump\t// out\n        /* \"contracts/118.sol\":310:512  function voting() public {... */\n    tag_12:\n        /* \"contracts/118.sol\":355:361  voters */\n      0x00\n        /* \"contracts/118.sol\":355:373  voters[msg.sender] */\n      dup1\n        /* \"contracts/118.sol\":362:372  msg.sender */\n      caller\n        /* \"contracts/118.sol\":355:373  voters[msg.sender] */\n      0xffffffffffffffffffffffffffffffffffffffff\n      and\n      0xffffffffffffffffffffffffffffffffffffffff\n      and\n      dup2\n      mstore\n      0x20\n      add\n      swap1\n      dup2\n      mstore\n      0x20\n      add\n      0x00\n      keccak256\n        /* \"contracts/118.sol\":355:379  voters[msg.sender].voted */\n      0x00\n      add\n      0x00\n      swap1\n      sload\n      swap1\n      0x0100\n      exp\n      swap1\n      div\n      0xff\n      and\n        /* \"contracts/118.sol\":354:379  !voters[msg.sender].voted */\n      iszero\n        /* \"contracts/118.sol\":346:411  require(!voters[msg.sender].voted, \"You already give your vote.\") */\n      tag_14\n      jumpi\n      mload(0x40)\n      0x08c379a000000000000000000000000000000000000000000000000000000000\n      dup2\n      mstore\n      0x04\n      add\n      tag_15\n      swap1\n      tag_16\n      jump\t// in\n    tag_15:\n      mload(0x40)\n      dup1\n      swap2\n      sub\n      swap1\n      revert\n    tag_14:\n        /* \"contracts/118.sol\":449:453  true */\n      0x01\n        /* \"contracts/118.sol\":422:428  voters */\n      0x00\n        /* \"contracts/118.sol\":422:440  voters[msg.sender] */\n      dup1\n        /* \"contracts/118.sol\":429:439  msg.sender */\n      caller\n        /* \"contracts/118.sol\":422:440  voters[msg.sender] */\n      0xffffffffffffffffffffffffffffffffffffffff\n      and\n      0xffffffffffffffffffffffffffffffffffffffff\n      and\n      dup2\n      mstore\n      0x20\n      add\n      swap1\n      dup2\n      mstore\n      0x20\n      add\n      0x00\n      keccak256\n        /* \"contracts/118.sol\":422:446  voters[msg.sender].voted */\n      0x00\n      add\n      0x00\n        /* \"contracts/118.sol\":422:453  voters[msg.sender].voted = true */\n      0x0100\n      exp\n      dup2\n      sload\n      dup2\n      0xff\n      mul\n      not\n      and\n      swap1\n      dup4\n      iszero\n      iszero\n      mul\n      or\n      swap1\n      sstore\n      pop\n        /* \"contracts/118.sol\":494:504  msg.sender */\n      caller\n        /* \"contracts/118.sol\":464:470  voters */\n      0x00\n        /* \"contracts/118.sol\":464:482  voters[msg.sender] */\n      dup1\n        /* \"contracts/118.sol\":471:481  msg.sender */\n      caller\n        /* \"contracts/118.sol\":464:482  voters[msg.sender] */\n      0xffffffffffffffffffffffffffffffffffffffff\n      and\n      0xffffffffffffffffffffffffffffffffffffffff\n      and\n      dup2\n      mstore\n      0x20\n      add\n      swap1\n      dup2\n      mstore\n      0x20\n      add\n      0x00\n      keccak256\n        /* \"contracts/118.sol\":464:491  voters[msg.sender].delegate */\n      0x00\n      add\n      0x01\n        /* \"contracts/118.sol\":464:504  voters[msg.sender].delegate = msg.sender */\n      0x0100\n      exp\n      dup2\n      sload\n      dup2\n      0xffffffffffffffffffffffffffffffffffffffff\n      mul\n      not\n      and\n      swap1\n      dup4\n      0xffffffffffffffffffffffffffffffffffffffff\n      and\n      mul\n      or\n      swap1\n      sstore\n      pop\n        /* \"contracts/118.sol\":310:512  function voting() public {... */\n      jump\t// out\n        /* \"#utility.yul\":88:205   */\n    tag_18:\n        /* \"#utility.yul\":197:198   */\n      0x00\n        /* \"#utility.yul\":194:195   */\n      dup1\n        /* \"#utility.yul\":187:199   */\n      revert\n        /* \"#utility.yul\":334:460   */\n    tag_20:\n        /* \"#utility.yul\":371:378   */\n      0x00\n        /* \"#utility.yul\":411:453   */\n      0xffffffffffffffffffffffffffffffffffffffff\n        /* \"#utility.yul\":404:409   */\n      dup3\n        /* \"#utility.yul\":400:454   */\n      and\n        /* \"#utility.yul\":389:454   */\n      swap1\n      pop\n        /* \"#utility.yul\":334:460   */\n      swap2\n      swap1\n      pop\n      jump\t// out\n        /* \"#utility.yul\":466:562   */\n    tag_21:\n        /* \"#utility.yul\":503:510   */\n      0x00\n        /* \"#utility.yul\":532:556   */\n      tag_36\n        /* \"#utility.yul\":550:555   */\n      dup3\n        /* \"#utility.yul\":532:556   */\n      tag_20\n      jump\t// in\n    tag_36:\n        /* \"#utility.yul\":521:556   */\n      swap1\n      pop\n        /* \"#utility.yul\":466:562   */\n      swap2\n      swap1\n      pop\n      jump\t// out\n        /* \"#utility.yul\":568:690   */\n    tag_22:\n        /* \"#utility.yul\":641:665   */\n      tag_38\n        /* \"#utility.yul\":659:664   */\n      dup2\n        /* \"#utility.yul\":641:665   */\n      tag_21\n      jump\t// in\n    tag_38:\n        /* \"#utility.yul\":634:639   */\n      dup2\n        /* \"#utility.yul\":631:666   */\n      eq\n        /* \"#utility.yul\":621:684   */\n      tag_39\n      jumpi\n        /* \"#utility.yul\":680:681   */\n      0x00\n        /* \"#utility.yul\":677:678   */\n      dup1\n        /* \"#utility.yul\":670:682   */\n      revert\n        /* \"#utility.yul\":621:684   */\n    tag_39:\n        /* \"#utility.yul\":568:690   */\n      pop\n      jump\t// out\n        /* \"#utility.yul\":696:835   */\n    tag_23:\n        /* \"#utility.yul\":742:747   */\n      0x00\n        /* \"#utility.yul\":780:786   */\n      dup2\n        /* \"#utility.yul\":767:787   */\n      calldataload\n        /* \"#utility.yul\":758:787   */\n      swap1\n      pop\n        /* \"#utility.yul\":796:829   */\n      tag_41\n        /* \"#utility.yul\":823:828   */\n      dup2\n        /* \"#utility.yul\":796:829   */\n      tag_22\n      jump\t// in\n    tag_41:\n        /* \"#utility.yul\":696:835   */\n      swap3\n      swap2\n      pop\n      pop\n      jump\t// out\n        /* \"#utility.yul\":841:1170   */\n    tag_7:\n        /* \"#utility.yul\":900:906   */\n      0x00\n        /* \"#utility.yul\":949:951   */\n      0x20\n        /* \"#utility.yul\":937:946   */\n      dup3\n        /* \"#utility.yul\":928:935   */\n      dup5\n        /* \"#utility.yul\":924:947   */\n      sub\n        /* \"#utility.yul\":920:952   */\n      slt\n        /* \"#utility.yul\":917:1036   */\n      iszero\n      tag_43\n      jumpi\n        /* \"#utility.yul\":955:1034   */\n      tag_44\n      tag_18\n      jump\t// in\n    tag_44:\n        /* \"#utility.yul\":917:1036   */\n    tag_43:\n        /* \"#utility.yul\":1075:1076   */\n      0x00\n        /* \"#utility.yul\":1100:1153   */\n      tag_45\n        /* \"#utility.yul\":1145:1152   */\n      dup5\n        /* \"#utility.yul\":1136:1142   */\n      dup3\n        /* \"#utility.yul\":1125:1134   */\n      dup6\n        /* \"#utility.yul\":1121:1143   */\n      add\n        /* \"#utility.yul\":1100:1153   */\n      tag_23\n      jump\t// in\n    tag_45:\n        /* \"#utility.yul\":1090:1153   */\n      swap2\n      pop\n        /* \"#utility.yul\":1046:1163   */\n      pop\n        /* \"#utility.yul\":841:1170   */\n      swap3\n      swap2\n      pop\n      pop\n      jump\t// out\n        /* \"#utility.yul\":1176:1266   */\n    tag_24:\n        /* \"#utility.yul\":1210:1217   */\n      0x00\n        /* \"#utility.yul\":1253:1258   */\n      dup2\n        /* \"#utility.yul\":1246:1259   */\n      iszero\n        /* \"#utility.yul\":1239:1260   */\n      iszero\n        /* \"#utility.yul\":1228:1260   */\n      swap1\n      pop\n        /* \"#utility.yul\":1176:1266   */\n      swap2\n      swap1\n      pop\n      jump\t// out\n        /* \"#utility.yul\":1272:1381   */\n    tag_25:\n        /* \"#utility.yul\":1353:1374   */\n      tag_48\n        /* \"#utility.yul\":1368:1373   */\n      dup2\n        /* \"#utility.yul\":1353:1374   */\n      tag_24\n      jump\t// in\n    tag_48:\n        /* \"#utility.yul\":1348:1351   */\n      dup3\n        /* \"#utility.yul\":1341:1375   */\n      mstore\n        /* \"#utility.yul\":1272:1381   */\n      pop\n      pop\n      jump\t// out\n        /* \"#utility.yul\":1387:1505   */\n    tag_26:\n        /* \"#utility.yul\":1474:1498   */\n      tag_50\n        /* \"#utility.yul\":1492:1497   */\n      dup2\n        /* \"#utility.yul\":1474:1498   */\n      tag_21\n      jump\t// in\n    tag_50:\n        /* \"#utility.yul\":1469:1472   */\n      dup3\n        /* \"#utility.yul\":1462:1499   */\n      mstore\n        /* \"#utility.yul\":1387:1505   */\n      pop\n      pop\n      jump\t// out\n        /* \"#utility.yul\":1511:1831   */\n    tag_10:\n        /* \"#utility.yul\":1626:1630   */\n      0x00\n        /* \"#utility.yul\":1664:1666   */\n      0x40\n        /* \"#utility.yul\":1653:1662   */\n      dup3\n        /* \"#utility.yul\":1649:1667   */\n      add\n        /* \"#utility.yul\":1641:1667   */\n      swap1\n      pop\n        /* \"#utility.yul\":1677:1742   */\n      tag_52\n        /* \"#utility.yul\":1739:1740   */\n      0x00\n        /* \"#utility.yul\":1728:1737   */\n      dup4\n        /* \"#utility.yul\":1724:1741   */\n      add\n        /* \"#utility.yul\":1715:1721   */\n      dup6\n        /* \"#utility.yul\":1677:1742   */\n      tag_25\n      jump\t// in\n    tag_52:\n        /* \"#utility.yul\":1752:1824   */\n      tag_53\n        /* \"#utility.yul\":1820:1822   */\n      0x20\n        /* \"#utility.yul\":1809:1818   */\n      dup4\n        /* \"#utility.yul\":1805:1823   */\n      add\n        /* \"#utility.yul\":1796:1802   */\n      dup5\n        /* \"#utility.yul\":1752:1824   */\n      tag_26\n      jump\t// in\n    tag_53:\n        /* \"#utility.yul\":1511:1831   */\n      swap4\n      swap3\n      pop\n      pop\n      pop\n      jump\t// out\n        /* \"#utility.yul\":1837:2006   */\n    tag_27:\n        /* \"#utility.yul\":1921:1932   */\n      0x00\n        /* \"#utility.yul\":1955:1961   */\n      dup3\n        /* \"#utility.yul\":1950:1953   */\n      dup3\n        /* \"#utility.yul\":1943:1962   */\n      mstore\n        /* \"#utility.yul\":1995:1999   */\n      0x20\n        /* \"#utility.yul\":1990:1993   */\n      dup3\n        /* \"#utility.yul\":1986:2000   */\n      add\n        /* \"#utility.yul\":1971:2000   */\n      swap1\n      pop\n        /* \"#utility.yul\":1837:2006   */\n      swap3\n      swap2\n      pop\n      pop\n      jump\t// out\n        /* \"#utility.yul\":2012:2189   */\n    tag_28:\n        /* \"#utility.yul\":2152:2181   */\n      0x596f7520616c7265616479206769766520796f757220766f74652e0000000000\n        /* \"#utility.yul\":2148:2149   */\n      0x00\n        /* \"#utility.yul\":2140:2146   */\n      dup3\n        /* \"#utility.yul\":2136:2150   */\n      add\n        /* \"#utility.yul\":2129:2182   */\n      mstore\n        /* \"#utility.yul\":2012:2189   */\n      pop\n      jump\t// out\n        /* \"#utility.yul\":2195:2561   */\n    tag_29:\n        /* \"#utility.yul\":2337:2340   */\n      0x00\n        /* \"#utility.yul\":2358:2425   */\n      tag_57\n        /* \"#utility.yul\":2422:2424   */\n      0x1b\n        /* \"#utility.yul\":2417:2420   */\n      dup4\n        /* \"#utility.yul\":2358:2425   */\n      tag_27\n      jump\t// in\n    tag_57:\n        /* \"#utility.yul\":2351:2425   */\n      swap2\n      pop\n        /* \"#utility.yul\":2434:2527   */\n      tag_58\n        /* \"#utility.yul\":2523:2526   */\n      dup3\n        /* \"#utility.yul\":2434:2527   */\n      tag_28\n      jump\t// in\n    tag_58:\n        /* \"#utility.yul\":2552:2554   */\n      0x20\n        /* \"#utility.yul\":2547:2550   */\n      dup3\n        /* \"#utility.yul\":2543:2555   */\n      add\n        /* \"#utility.yul\":2536:2555   */\n      swap1\n      pop\n        /* \"#utility.yul\":2195:2561   */\n      swap2\n      swap1\n      pop\n      jump\t// out\n        /* \"#utility.yul\":2567:2986   */\n    tag_16:\n        /* \"#utility.yul\":2733:2737   */\n      0x00\n        /* \"#utility.yul\":2771:2773   */\n      0x20\n        /* \"#utility.yul\":2760:2769   */\n      dup3\n        /* \"#utility.yul\":2756:2774   */\n      add\n        /* \"#utility.yul\":2748:2774   */\n      swap1\n      pop\n        /* \"#utility.yul\":2820:2829   */\n      dup2\n        /* \"#utility.yul\":2814:2818   */\n      dup2\n        /* \"#utility.yul\":2810:2830   */\n      sub\n        /* \"#utility.yul\":2806:2807   */\n      0x00\n        /* \"#utility.yul\":2795:2804   */\n      dup4\n        /* \"#utility.yul\":2791:2808   */\n      add\n        /* \"#utility.yul\":2784:2831   */\n      mstore\n        /* \"#utility.yul\":2848:2979   */\n      tag_60\n        /* \"#utility.yul\":2974:2978   */\n      dup2\n        /* \"#utility.yul\":2848:2979   */\n      tag_29\n      jump\t// in\n    tag_60:\n        /* \"#utility.yul\":2840:2979   */\n      swap1\n      pop\n        /* \"#utility.yul\":2567:2986   */\n      swap2\n      swap1\n      pop\n      jump\t// out\n\n    auxdata: 0xa2646970667358221220c12d1528e1ec52d7d745a60520e8bd53f88dda0981701549475907692b3da1ad64736f6c63430008110033\n}\n",
				"bytecode": {
					"linkReferences": {},
					"object": "608060405234801561001057600080fd5b506103c8806100206000396000f3fe608060405234801561001057600080fd5b50600436106100365760003560e01c8063a3ec138d1461003b578063fce1ccca1461006c575b600080fd5b61005560048036038101906100509190610295565b610076565b6040516100639291906102ec565b60405180910390f35b6100746100c7565b005b60006020528060005260406000206000915090508060000160009054906101000a900460ff16908060000160019054906101000a900473ffffffffffffffffffffffffffffffffffffffff16905082565b6000803373ffffffffffffffffffffffffffffffffffffffff1673ffffffffffffffffffffffffffffffffffffffff16815260200190815260200160002060000160009054906101000a900460ff1615610156576040517f08c379a000000000000000000000000000000000000000000000000000000000815260040161014d90610372565b60405180910390fd5b60016000803373ffffffffffffffffffffffffffffffffffffffff1673ffffffffffffffffffffffffffffffffffffffff16815260200190815260200160002060000160006101000a81548160ff021916908315150217905550336000803373ffffffffffffffffffffffffffffffffffffffff1673ffffffffffffffffffffffffffffffffffffffff16815260200190815260200160002060000160016101000a81548173ffffffffffffffffffffffffffffffffffffffff021916908373ffffffffffffffffffffffffffffffffffffffff160217905550565b600080fd5b600073ffffffffffffffffffffffffffffffffffffffff82169050919050565b600061026282610237565b9050919050565b61027281610257565b811461027d57600080fd5b50565b60008135905061028f81610269565b92915050565b6000602082840312156102ab576102aa610232565b5b60006102b984828501610280565b91505092915050565b60008115159050919050565b6102d7816102c2565b82525050565b6102e681610257565b82525050565b600060408201905061030160008301856102ce565b61030e60208301846102dd565b9392505050565b600082825260208201905092915050565b7f596f7520616c7265616479206769766520796f757220766f74652e0000000000600082015250565b600061035c601b83610315565b915061036782610326565b602082019050919050565b6000602082019050818103600083015261038b8161034f565b905091905056fea2646970667358221220c12d1528e1ec52d7d745a60520e8bd53f88dda0981701549475907692b3da1ad64736f6c63430008110033",
					"opcodes": "PUSH1 0x80 PUSH1 0x40 MSTORE CALLVALUE DUP1 ISZERO PUSH2 0x10 JUMPI PUSH1 0x0 DUP1 REVERT JUMPDEST POP PUSH2 0x3C8 DUP1 PUSH2 0x20 PUSH1 0x0 CODECOPY PUSH1 0x0 RETURN INVALID PUSH1 0x80 PUSH1 0x40 MSTORE CALLVALUE DUP1 ISZERO PUSH2 0x10 JUMPI PUSH1 0x0 DUP1 REVERT JUMPDEST POP PUSH1 0x4 CALLDATASIZE LT PUSH2 0x36 JUMPI PUSH1 0x0 CALLDATALOAD PUSH1 0xE0 SHR DUP1 PUSH4 0xA3EC138D EQ PUSH2 0x3B JUMPI DUP1 PUSH4 0xFCE1CCCA EQ PUSH2 0x6C JUMPI JUMPDEST PUSH1 0x0 DUP1 REVERT JUMPDEST PUSH2 0x55 PUSH1 0x4 DUP1 CALLDATASIZE SUB DUP2 ADD SWAP1 PUSH2 0x50 SWAP2 SWAP1 PUSH2 0x295 JUMP JUMPDEST PUSH2 0x76 JUMP JUMPDEST PUSH1 0x40 MLOAD PUSH2 0x63 SWAP3 SWAP2 SWAP1 PUSH2 0x2EC JUMP JUMPDEST PUSH1 0x40 MLOAD DUP1 SWAP2 SUB SWAP1 RETURN JUMPDEST PUSH2 0x74 PUSH2 0xC7 JUMP JUMPDEST STOP JUMPDEST PUSH1 0x0 PUSH1 0x20 MSTORE DUP1 PUSH1 0x0 MSTORE PUSH1 0x40 PUSH1 0x0 KECCAK256 PUSH1 0x0 SWAP2 POP SWAP1 POP DUP1 PUSH1 0x0 ADD PUSH1 0x0 SWAP1 SLOAD SWAP1 PUSH2 0x100 EXP SWAP1 DIV PUSH1 0xFF AND SWAP1 DUP1 PUSH1 0x0 ADD PUSH1 0x1 SWAP1 SLOAD SWAP1 PUSH2 0x100 EXP SWAP1 DIV PUSH20 0xFFFFFFFFFFFFFFFFFFFFFFFFFFFFFFFFFFFFFFFF AND SWAP1 POP DUP3 JUMP JUMPDEST PUSH1 0x0 DUP1 CALLER PUSH20 0xFFFFFFFFFFFFFFFFFFFFFFFFFFFFFFFFFFFFFFFF AND PUSH20 0xFFFFFFFFFFFFFFFFFFFFFFFFFFFFFFFFFFFFFFFF AND DUP2 MSTORE PUSH1 0x20 ADD SWAP1 DUP2 MSTORE PUSH1 0x20 ADD PUSH1 0x0 KECCAK256 PUSH1 0x0 ADD PUSH1 0x0 SWAP1 SLOAD SWAP1 PUSH2 0x100 EXP SWAP1 DIV PUSH1 0xFF AND ISZERO PUSH2 0x156 JUMPI PUSH1 0x40 MLOAD PUSH32 0x8C379A000000000000000000000000000000000000000000000000000000000 DUP2 MSTORE PUSH1 0x4 ADD PUSH2 0x14D SWAP1 PUSH2 0x372 JUMP JUMPDEST PUSH1 0x40 MLOAD DUP1 SWAP2 SUB SWAP1 REVERT JUMPDEST PUSH1 0x1 PUSH1 0x0 DUP1 CALLER PUSH20 0xFFFFFFFFFFFFFFFFFFFFFFFFFFFFFFFFFFFFFFFF AND PUSH20 0xFFFFFFFFFFFFFFFFFFFFFFFFFFFFFFFFFFFFFFFF AND DUP2 MSTORE PUSH1 0x20 ADD SWAP1 DUP2 MSTORE PUSH1 0x20 ADD PUSH1 0x0 KECCAK256 PUSH1 0x0 ADD PUSH1 0x0 PUSH2 0x100 EXP DUP2 SLOAD DUP2 PUSH1 0xFF MUL NOT AND SWAP1 DUP4 ISZERO ISZERO MUL OR SWAP1 SSTORE POP CALLER PUSH1 0x0 DUP1 CALLER PUSH20 0xFFFFFFFFFFFFFFFFFFFFFFFFFFFFFFFFFFFFFFFF AND PUSH20 0xFFFFFFFFFFFFFFFFFFFFFFFFFFFFFFFFFFFFFFFF AND DUP2 MSTORE PUSH1 0x20 ADD SWAP1 DUP2 MSTORE PUSH1 0x20 ADD PUSH1 0x0 KECCAK256 PUSH1 0x0 ADD PUSH1 0x1 PUSH2 0x100 EXP DUP2 SLOAD DUP2 PUSH20 0xFFFFFFFFFFFFFFFFFFFFFFFFFFFFFFFFFFFFFFFF MUL NOT AND SWAP1 DUP4 PUSH20 0xFFFFFFFFFFFFFFFFFFFFFFFFFFFFFFFFFFFFFFFF AND MUL OR SWAP1 SSTORE POP JUMP JUMPDEST PUSH1 0x0 DUP1 REVERT JUMPDEST PUSH1 0x0 PUSH20 0xFFFFFFFFFFFFFFFFFFFFFFFFFFFFFFFFFFFFFFFF DUP3 AND SWAP1 POP SWAP2 SWAP1 POP JUMP JUMPDEST PUSH1 0x0 PUSH2 0x262 DUP3 PUSH2 0x237 JUMP JUMPDEST SWAP1 POP SWAP2 SWAP1 POP JUMP JUMPDEST PUSH2 0x272 DUP2 PUSH2 0x257 JUMP JUMPDEST DUP2 EQ PUSH2 0x27D JUMPI PUSH1 0x0 DUP1 REVERT JUMPDEST POP JUMP JUMPDEST PUSH1 0x0 DUP2 CALLDATALOAD SWAP1 POP PUSH2 0x28F DUP2 PUSH2 0x269 JUMP JUMPDEST SWAP3 SWAP2 POP POP JUMP JUMPDEST PUSH1 0x0 PUSH1 0x20 DUP3 DUP5 SUB SLT ISZERO PUSH2 0x2AB JUMPI PUSH2 0x2AA PUSH2 0x232 JUMP JUMPDEST JUMPDEST PUSH1 0x0 PUSH2 0x2B9 DUP5 DUP3 DUP6 ADD PUSH2 0x280 JUMP JUMPDEST SWAP2 POP POP SWAP3 SWAP2 POP POP JUMP JUMPDEST PUSH1 0x0 DUP2 ISZERO ISZERO SWAP1 POP SWAP2 SWAP1 POP JUMP JUMPDEST PUSH2 0x2D7 DUP2 PUSH2 0x2C2 JUMP JUMPDEST DUP3 MSTORE POP POP JUMP JUMPDEST PUSH2 0x2E6 DUP2 PUSH2 0x257 JUMP JUMPDEST DUP3 MSTORE POP POP JUMP JUMPDEST PUSH1 0x0 PUSH1 0x40 DUP3 ADD SWAP1 POP PUSH2 0x301 PUSH1 0x0 DUP4 ADD DUP6 PUSH2 0x2CE JUMP JUMPDEST PUSH2 0x30E PUSH1 0x20 DUP4 ADD DUP5 PUSH2 0x2DD JUMP JUMPDEST SWAP4 SWAP3 POP POP POP JUMP JUMPDEST PUSH1 0x0 DUP3 DUP3 MSTORE PUSH1 0x20 DUP3 ADD SWAP1 POP SWAP3 SWAP2 POP POP JUMP JUMPDEST PUSH32 0x596F7520616C7265616479206769766520796F757220766F74652E0000000000 PUSH1 0x0 DUP3 ADD MSTORE POP JUMP JUMPDEST PUSH1 0x0 PUSH2 0x35C PUSH1 0x1B DUP4 PUSH2 0x315 JUMP JUMPDEST SWAP2 POP PUSH2 0x367 DUP3 PUSH2 0x326 JUMP JUMPDEST PUSH1 0x20 DUP3 ADD SWAP1 POP SWAP2 SWAP1 POP JUMP JUMPDEST PUSH1 0x0 PUSH1 0x20 DUP3 ADD SWAP1 POP DUP2 DUP2 SUB PUSH1 0x0 DUP4 ADD MSTORE PUSH2 0x38B DUP2 PUSH2 0x34F JUMP JUMPDEST SWAP1 POP SWAP2 SWAP1 POP JUMP INVALID LOG2 PUSH5 0x6970667358 0x22 SLT KECCAK256 0xC1 0x2D ISZERO 0x28 0xE1 0xEC MSTORE 0xD7 0xD7 GASLIMIT 0xA6 SDIV KECCAK256 0xE8 0xBD MSTORE8 0xF8 DUP14 0xDA MULMOD DUP2 PUSH17 0x1549475907692B3DA1AD64736F6C634300 ADDMOD GT STOP CALLER "
				},
				"gasEstimates": {
					"creation": {
						"codeDepositCost": "193600",
						"executionCost": "238",
						"totalCost": "193838"
					},
					"external": {
						"voters(address)": "infinite",
						"voting()": "51168"
					}
				},
				"methodIdentifiers": {
					"voters(address)": "a3ec138d",
					"voting()": "fce1ccca"
				}
			},
			"storageLayout": {
				"storage": [
					{
						"astId": 11,
						"contract": "contracts/118.sol:Main",
						"label": "voters",
						"offset": 0,
						"slot": "0",
						"type": "t_mapping(t_address,t_struct(Voter)6_storage)"
					}
				],
				"types": {
					"t_address": {
						"encoding": "inplace",
						"label": "address",
						"numberOfBytes": "20"
					},
					"t_bool": {
						"encoding": "inplace",
						"label": "bool",
						"numberOfBytes": "1"
					},
					"t_mapping(t_address,t_struct(Voter)6_storage)": {
						"encoding": "mapping",
						"key": "t_address",
						"label": "mapping(address => struct Main.Voter)",
						"numberOfBytes": "32",
						"value": "t_struct(Voter)6_storage"
					},
					"t_struct(Voter)6_storage": {
						"encoding": "inplace",
						"label": "struct Main.Voter",
						"members": [
							{
								"astId": 3,
								"contract": "contracts/118.sol:Main",
								"label": "voted",
								"offset": 0,
								"slot": "0",
								"type": "t_bool"
							},
							{
								"astId": 5,
								"contract": "contracts/118.sol:Main",
								"label": "delegate",
								"offset": 1,
								"slot": "0",
								"type": "t_address"
							}
						],
						"numberOfBytes": "32"
					}
				}
			},
			"userdoc": {
				"kind": "user",
				"methods": {},
				"version": 1
			}
		}
	}
}