{
	"contracts/127.sol": {
		"AEscrow": {
			"abi": [
				{
					"inputs": [],
					"stateMutability": "nonpayable",
					"type": "constructor"
				},
				{
					"anonymous": false,
					"inputs": [
						{
							"indexed": false,
							"internalType": "address",
							"name": "buyer",
							"type": "address"
						},
						{
							"indexed": false,
							"internalType": "address",
							"name": "seller",
							"type": "address"
						}
					],
					"name": "Delivered",
					"type": "event"
				},
				{
					"anonymous": false,
					"inputs": [
						{
							"indexed": false,
							"internalType": "address",
							"name": "buyer",
							"type": "address"
						},
						{
							"indexed": false,
							"internalType": "address",
							"name": "seller",
							"type": "address"
						},
						{
							"indexed": false,
							"internalType": "uint256",
							"name": "amount",
							"type": "uint256"
						}
					],
					"name": "Lock",
					"type": "event"
				},
				{
					"anonymous": false,
					"inputs": [
						{
							"indexed": false,
							"internalType": "address",
							"name": "buyer",
							"type": "address"
						},
						{
							"indexed": false,
							"internalType": "address",
							"name": "seller",
							"type": "address"
						},
						{
							"indexed": false,
							"internalType": "uint256",
							"name": "amount",
							"type": "uint256"
						}
					],
					"name": "Refund",
					"type": "event"
				},
				{
					"anonymous": false,
					"inputs": [
						{
							"indexed": false,
							"internalType": "address",
							"name": "buyer",
							"type": "address"
						},
						{
							"indexed": false,
							"internalType": "address",
							"name": "seller",
							"type": "address"
						},
						{
							"indexed": false,
							"internalType": "uint256",
							"name": "amount",
							"type": "uint256"
						}
					],
					"name": "Release",
					"type": "event"
				},
				{
					"inputs": [
						{
							"internalType": "address",
							"name": "_buyer",
							"type": "address"
						},
						{
							"internalType": "address",
							"name": "_seller",
							"type": "address"
						}
					],
					"name": "delivered",
					"outputs": [],
					"stateMutability": "nonpayable",
					"type": "function"
				},
				{
					"inputs": [
						{
							"internalType": "address",
							"name": "_seller",
							"type": "address"
						}
					],
					"name": "lock",
					"outputs": [],
					"stateMutability": "payable",
					"type": "function"
				},
				{
					"inputs": [],
					"name": "mediator",
					"outputs": [
						{
							"internalType": "address",
							"name": "",
							"type": "address"
						}
					],
					"stateMutability": "view",
					"type": "function"
				},
				{
					"inputs": [
						{
							"internalType": "address",
							"name": "_seller",
							"type": "address"
						}
					],
					"name": "refund",
					"outputs": [],
					"stateMutability": "nonpayable",
					"type": "function"
				},
				{
					"inputs": [
						{
							"internalType": "address",
							"name": "_buyer",
							"type": "address"
						}
					],
					"name": "release",
					"outputs": [],
					"stateMutability": "nonpayable",
					"type": "function"
				},
				{
					"inputs": [
						{
							"internalType": "address",
							"name": "",
							"type": "address"
						},
						{
							"internalType": "uint256",
							"name": "",
							"type": "uint256"
						}
					],
					"name": "transactions",
					"outputs": [
						{
							"internalType": "address",
							"name": "seller",
							"type": "address"
						},
						{
							"internalType": "uint256",
							"name": "amount",
							"type": "uint256"
						},
						{
							"internalType": "enum AEscrow.situation",
							"name": "state",
							"type": "uint8"
						}
					],
					"stateMutability": "view",
					"type": "function"
				}
			],
			"devdoc": {
				"kind": "dev",
				"methods": {},
				"version": 1
			},
			"evm": {
				"assembly": "    /* \"contracts/127.sol\":193:4064  contract AEscrow {... */\n  mstore(0x40, 0x80)\n    /* \"contracts/127.sol\":725:777  constructor() {... */\n  callvalue\n  dup1\n  iszero\n  tag_1\n  jumpi\n  0x00\n  dup1\n  revert\ntag_1:\n  pop\n    /* \"contracts/127.sol\":760:770  msg.sender */\n  caller\n    /* \"contracts/127.sol\":749:757  mediator */\n  0x00\n  dup1\n    /* \"contracts/127.sol\":749:770  mediator = msg.sender */\n  0x0100\n  exp\n  dup2\n  sload\n  dup2\n  0xffffffffffffffffffffffffffffffffffffffff\n  mul\n  not\n  and\n  swap1\n  dup4\n  0xffffffffffffffffffffffffffffffffffffffff\n  and\n  mul\n  or\n  swap1\n  sstore\n  pop\n    /* \"contracts/127.sol\":193:4064  contract AEscrow {... */\n  dataSize(sub_0)\n  dup1\n  dataOffset(sub_0)\n  0x00\n  codecopy\n  0x00\n  return\nstop\n\nsub_0: assembly {\n        /* \"contracts/127.sol\":193:4064  contract AEscrow {... */\n      mstore(0x40, 0x80)\n      jumpi(tag_1, lt(calldatasize, 0x04))\n      shr(0xe0, calldataload(0x00))\n      dup1\n      0x14538128\n      eq\n      tag_2\n      jumpi\n      dup1\n      0x19165587\n      eq\n      tag_3\n      jumpi\n      dup1\n      0x6d0501f6\n      eq\n      tag_4\n      jumpi\n      dup1\n      0xb900a94a\n      eq\n      tag_5\n      jumpi\n      dup1\n      0xf435f5a7\n      eq\n      tag_6\n      jumpi\n      dup1\n      0xfa89401a\n      eq\n      tag_7\n      jumpi\n    tag_1:\n      0x00\n      dup1\n      revert\n        /* \"contracts/127.sol\":423:471  mapping(address => Seller[]) public transactions */\n    tag_2:\n      callvalue\n      dup1\n      iszero\n      tag_8\n      jumpi\n      0x00\n      dup1\n      revert\n    tag_8:\n      pop\n      tag_9\n      0x04\n      dup1\n      calldatasize\n      sub\n      dup2\n      add\n      swap1\n      tag_10\n      swap2\n      swap1\n      tag_11\n      jump\t// in\n    tag_10:\n      tag_12\n      jump\t// in\n    tag_9:\n      mload(0x40)\n      tag_13\n      swap4\n      swap3\n      swap2\n      swap1\n      tag_14\n      jump\t// in\n    tag_13:\n      mload(0x40)\n      dup1\n      swap2\n      sub\n      swap1\n      return\n        /* \"contracts/127.sol\":2446:3194  function release(address _buyer)... */\n    tag_3:\n      callvalue\n      dup1\n      iszero\n      tag_15\n      jumpi\n      0x00\n      dup1\n      revert\n    tag_15:\n      pop\n      tag_16\n      0x04\n      dup1\n      calldatasize\n      sub\n      dup2\n      add\n      swap1\n      tag_17\n      swap2\n      swap1\n      tag_18\n      jump\t// in\n    tag_17:\n      tag_19\n      jump\t// in\n    tag_16:\n      stop\n        /* \"contracts/127.sol\":216:239  address public mediator */\n    tag_4:\n      callvalue\n      dup1\n      iszero\n      tag_20\n      jumpi\n      0x00\n      dup1\n      revert\n    tag_20:\n      pop\n      tag_21\n      tag_22\n      jump\t// in\n    tag_21:\n      mload(0x40)\n      tag_23\n      swap2\n      swap1\n      tag_24\n      jump\t// in\n    tag_23:\n      mload(0x40)\n      dup1\n      swap2\n      sub\n      swap1\n      return\n        /* \"contracts/127.sol\":2097:2440  function delivered(address _buyer, address _seller) public onlyMediator {... */\n    tag_5:\n      callvalue\n      dup1\n      iszero\n      tag_25\n      jumpi\n      0x00\n      dup1\n      revert\n    tag_25:\n      pop\n      tag_26\n      0x04\n      dup1\n      calldatasize\n      sub\n      dup2\n      add\n      swap1\n      tag_27\n      swap2\n      swap1\n      tag_28\n      jump\t// in\n    tag_27:\n      tag_29\n      jump\t// in\n    tag_26:\n      stop\n        /* \"contracts/127.sol\":1265:2091  function lock(address _seller)... */\n    tag_6:\n      tag_30\n      0x04\n      dup1\n      calldatasize\n      sub\n      dup2\n      add\n      swap1\n      tag_31\n      swap2\n      swap1\n      tag_18\n      jump\t// in\n    tag_31:\n      tag_32\n      jump\t// in\n    tag_30:\n      stop\n        /* \"contracts/127.sol\":3200:4062  function refund(address _seller)... */\n    tag_7:\n      callvalue\n      dup1\n      iszero\n      tag_33\n      jumpi\n      0x00\n      dup1\n      revert\n    tag_33:\n      pop\n      tag_34\n      0x04\n      dup1\n      calldatasize\n      sub\n      dup2\n      add\n      swap1\n      tag_35\n      swap2\n      swap1\n      tag_18\n      jump\t// in\n    tag_35:\n      tag_36\n      jump\t// in\n    tag_34:\n      stop\n        /* \"contracts/127.sol\":423:471  mapping(address => Seller[]) public transactions */\n    tag_12:\n      mstore(0x20, 0x01)\n      dup2\n      0x00\n      mstore\n      keccak256(0x00, 0x40)\n      dup2\n      dup2\n      sload\n      dup2\n      lt\n      tag_37\n      jumpi\n      0x00\n      dup1\n      revert\n    tag_37:\n      swap1\n      0x00\n      mstore\n      keccak256(0x00, 0x20)\n      swap1\n      0x03\n      mul\n      add\n      0x00\n      swap2\n      pop\n      swap2\n      pop\n      pop\n      dup1\n      0x00\n      add\n      0x00\n      swap1\n      sload\n      swap1\n      0x0100\n      exp\n      swap1\n      div\n      0xffffffffffffffffffffffffffffffffffffffff\n      and\n      swap1\n      dup1\n      0x01\n      add\n      sload\n      swap1\n      dup1\n      0x02\n      add\n      0x00\n      swap1\n      sload\n      swap1\n      0x0100\n      exp\n      swap1\n      div\n      0xff\n      and\n      swap1\n      pop\n      dup4\n      jump\t// out\n        /* \"contracts/127.sol\":2446:3194  function release(address _buyer)... */\n    tag_19:\n        /* \"contracts/127.sol\":2511:2517  _buyer */\n      dup1\n        /* \"contracts/127.sol\":1207:1215  _address */\n      dup1\n        /* \"contracts/127.sol\":1193:1215  msg.sender != _address */\n      0xffffffffffffffffffffffffffffffffffffffff\n      and\n        /* \"contracts/127.sol\":1193:1203  msg.sender */\n      caller\n        /* \"contracts/127.sol\":1193:1215  msg.sender != _address */\n      0xffffffffffffffffffffffffffffffffffffffff\n      and\n      sub\n        /* \"contracts/127.sol\":1185:1241  require(msg.sender != _address, \"You don't have access\") */\n      tag_40\n      jumpi\n      mload(0x40)\n      0x08c379a000000000000000000000000000000000000000000000000000000000\n      dup2\n      mstore\n      0x04\n      add\n      tag_41\n      swap1\n      tag_42\n      jump\t// in\n    tag_41:\n      mload(0x40)\n      dup1\n      swap2\n      sub\n      swap1\n      revert\n    tag_40:\n        /* \"contracts/127.sol\":2543:2553  msg.sender */\n      caller\n        /* \"contracts/127.sol\":2555:2561  _buyer */\n      dup3\n        /* \"contracts/127.sol\":999:1013  _sellerAddress */\n      dup2\n        /* \"contracts/127.sol\":987:1013  mediator != _sellerAddress */\n      0xffffffffffffffffffffffffffffffffffffffff\n      and\n        /* \"contracts/127.sol\":987:995  mediator */\n      0x00\n      dup1\n      sload\n      swap1\n      0x0100\n      exp\n      swap1\n      div\n      0xffffffffffffffffffffffffffffffffffffffff\n      and\n        /* \"contracts/127.sol\":987:1013  mediator != _sellerAddress */\n      0xffffffffffffffffffffffffffffffffffffffff\n      and\n      sub\n        /* \"contracts/127.sol\":979:1043  require(mediator != _sellerAddress, \"Mediator cannot be seller\") */\n      tag_44\n      jumpi\n      mload(0x40)\n      0x08c379a000000000000000000000000000000000000000000000000000000000\n      dup2\n      mstore\n      0x04\n      add\n      tag_45\n      swap1\n      tag_46\n      jump\t// in\n    tag_45:\n      mload(0x40)\n      dup1\n      swap2\n      sub\n      swap1\n      revert\n    tag_44:\n        /* \"contracts/127.sol\":1073:1086  _buyerAddress */\n      dup1\n        /* \"contracts/127.sol\":1061:1086  mediator != _buyerAddress */\n      0xffffffffffffffffffffffffffffffffffffffff\n      and\n        /* \"contracts/127.sol\":1061:1069  mediator */\n      0x00\n      dup1\n      sload\n      swap1\n      0x0100\n      exp\n      swap1\n      div\n      0xffffffffffffffffffffffffffffffffffffffff\n      and\n        /* \"contracts/127.sol\":1061:1086  mediator != _buyerAddress */\n      0xffffffffffffffffffffffffffffffffffffffff\n      and\n      sub\n        /* \"contracts/127.sol\":1053:1115  require(mediator != _buyerAddress, \"Mediator cannot be buyer\") */\n      tag_47\n      jumpi\n      mload(0x40)\n      0x08c379a000000000000000000000000000000000000000000000000000000000\n      dup2\n      mstore\n      0x04\n      add\n      tag_48\n      swap1\n      tag_49\n      jump\t// in\n    tag_48:\n      mload(0x40)\n      dup1\n      swap2\n      sub\n      swap1\n      revert\n    tag_47:\n        /* \"contracts/127.sol\":2582:2591  uint256 i */\n      0x00\n        /* \"contracts/127.sol\":2577:3188  for (uint256 i = 0; i < transactions[_buyer].length; i++) {... */\n    tag_51:\n        /* \"contracts/127.sol\":2601:2613  transactions */\n      0x01\n        /* \"contracts/127.sol\":2601:2621  transactions[_buyer] */\n      0x00\n        /* \"contracts/127.sol\":2614:2620  _buyer */\n      dup7\n        /* \"contracts/127.sol\":2601:2621  transactions[_buyer] */\n      0xffffffffffffffffffffffffffffffffffffffff\n      and\n      0xffffffffffffffffffffffffffffffffffffffff\n      and\n      dup2\n      mstore\n      0x20\n      add\n      swap1\n      dup2\n      mstore\n      0x20\n      add\n      0x00\n      keccak256\n        /* \"contracts/127.sol\":2601:2628  transactions[_buyer].length */\n      dup1\n      sload\n      swap1\n      pop\n        /* \"contracts/127.sol\":2597:2598  i */\n      dup2\n        /* \"contracts/127.sol\":2597:2628  i < transactions[_buyer].length */\n      lt\n        /* \"contracts/127.sol\":2577:3188  for (uint256 i = 0; i < transactions[_buyer].length; i++) {... */\n      iszero\n      tag_52\n      jumpi\n        /* \"contracts/127.sol\":2687:2697  msg.sender */\n      caller\n        /* \"contracts/127.sol\":2653:2697  transactions[_buyer][i].seller == msg.sender */\n      0xffffffffffffffffffffffffffffffffffffffff\n      and\n        /* \"contracts/127.sol\":2653:2665  transactions */\n      0x01\n        /* \"contracts/127.sol\":2653:2673  transactions[_buyer] */\n      0x00\n        /* \"contracts/127.sol\":2666:2672  _buyer */\n      dup8\n        /* \"contracts/127.sol\":2653:2673  transactions[_buyer] */\n      0xffffffffffffffffffffffffffffffffffffffff\n      and\n      0xffffffffffffffffffffffffffffffffffffffff\n      and\n      dup2\n      mstore\n      0x20\n      add\n      swap1\n      dup2\n      mstore\n      0x20\n      add\n      0x00\n      keccak256\n        /* \"contracts/127.sol\":2674:2675  i */\n      dup3\n        /* \"contracts/127.sol\":2653:2676  transactions[_buyer][i] */\n      dup2\n      sload\n      dup2\n      lt\n      tag_54\n      jumpi\n      tag_55\n      tag_56\n      jump\t// in\n    tag_55:\n    tag_54:\n      swap1\n      0x00\n      mstore\n      keccak256(0x00, 0x20)\n      swap1\n      0x03\n      mul\n      add\n        /* \"contracts/127.sol\":2653:2683  transactions[_buyer][i].seller */\n      0x00\n      add\n      0x00\n      swap1\n      sload\n      swap1\n      0x0100\n      exp\n      swap1\n      div\n      0xffffffffffffffffffffffffffffffffffffffff\n      and\n        /* \"contracts/127.sol\":2653:2697  transactions[_buyer][i].seller == msg.sender */\n      0xffffffffffffffffffffffffffffffffffffffff\n      and\n      sub\n        /* \"contracts/127.sol\":2649:3178  if (transactions[_buyer][i].seller == msg.sender) {... */\n      tag_58\n      jumpi\n        /* \"contracts/127.sol\":2779:2798  situation.DELIVERED */\n      0x01\n        /* \"contracts/127.sol\":2746:2798  transactions[_buyer][i].state == situation.DELIVERED */\n      0x02\n      dup2\n      gt\n      iszero\n      tag_59\n      jumpi\n      tag_60\n      tag_61\n      jump\t// in\n    tag_60:\n    tag_59:\n        /* \"contracts/127.sol\":2746:2758  transactions */\n      0x01\n        /* \"contracts/127.sol\":2746:2766  transactions[_buyer] */\n      0x00\n        /* \"contracts/127.sol\":2759:2765  _buyer */\n      dup8\n        /* \"contracts/127.sol\":2746:2766  transactions[_buyer] */\n      0xffffffffffffffffffffffffffffffffffffffff\n      and\n      0xffffffffffffffffffffffffffffffffffffffff\n      and\n      dup2\n      mstore\n      0x20\n      add\n      swap1\n      dup2\n      mstore\n      0x20\n      add\n      0x00\n      keccak256\n        /* \"contracts/127.sol\":2767:2768  i */\n      dup3\n        /* \"contracts/127.sol\":2746:2769  transactions[_buyer][i] */\n      dup2\n      sload\n      dup2\n      lt\n      tag_62\n      jumpi\n      tag_63\n      tag_56\n      jump\t// in\n    tag_63:\n    tag_62:\n      swap1\n      0x00\n      mstore\n      keccak256(0x00, 0x20)\n      swap1\n      0x03\n      mul\n      add\n        /* \"contracts/127.sol\":2746:2775  transactions[_buyer][i].state */\n      0x02\n      add\n      0x00\n      swap1\n      sload\n      swap1\n      0x0100\n      exp\n      swap1\n      div\n      0xff\n      and\n        /* \"contracts/127.sol\":2746:2798  transactions[_buyer][i].state == situation.DELIVERED */\n      0x02\n      dup2\n      gt\n      iszero\n      tag_65\n      jumpi\n      tag_66\n      tag_61\n      jump\t// in\n    tag_66:\n    tag_65:\n      eq\n        /* \"contracts/127.sol\":2717:2855  require(... */\n      tag_67\n      jumpi\n      mload(0x40)\n      0x08c379a000000000000000000000000000000000000000000000000000000000\n      dup2\n      mstore\n      0x04\n      add\n      tag_68\n      swap1\n      tag_69\n      jump\t// in\n    tag_68:\n      mload(0x40)\n      dup1\n      swap2\n      sub\n      swap1\n      revert\n    tag_67:\n        /* \"contracts/127.sol\":2906:2924  situation.INACTIVE */\n      0x02\n        /* \"contracts/127.sol\":2874:2886  transactions */\n      0x01\n        /* \"contracts/127.sol\":2874:2894  transactions[_buyer] */\n      0x00\n        /* \"contracts/127.sol\":2887:2893  _buyer */\n      dup8\n        /* \"contracts/127.sol\":2874:2894  transactions[_buyer] */\n      0xffffffffffffffffffffffffffffffffffffffff\n      and\n      0xffffffffffffffffffffffffffffffffffffffff\n      and\n      dup2\n      mstore\n      0x20\n      add\n      swap1\n      dup2\n      mstore\n      0x20\n      add\n      0x00\n      keccak256\n        /* \"contracts/127.sol\":2895:2896  i */\n      dup3\n        /* \"contracts/127.sol\":2874:2897  transactions[_buyer][i] */\n      dup2\n      sload\n      dup2\n      lt\n      tag_70\n      jumpi\n      tag_71\n      tag_56\n      jump\t// in\n    tag_71:\n    tag_70:\n      swap1\n      0x00\n      mstore\n      keccak256(0x00, 0x20)\n      swap1\n      0x03\n      mul\n      add\n        /* \"contracts/127.sol\":2874:2903  transactions[_buyer][i].state */\n      0x02\n      add\n      0x00\n        /* \"contracts/127.sol\":2874:2924  transactions[_buyer][i].state = situation.INACTIVE */\n      0x0100\n      exp\n      dup2\n      sload\n      dup2\n      0xff\n      mul\n      not\n      and\n      swap1\n      dup4\n      0x02\n      dup2\n      gt\n      iszero\n      tag_73\n      jumpi\n      tag_74\n      tag_61\n      jump\t// in\n    tag_74:\n    tag_73:\n      mul\n      or\n      swap1\n      sstore\n      pop\n        /* \"contracts/127.sol\":2950:2960  msg.sender */\n      caller\n        /* \"contracts/127.sol\":2942:2970  payable(msg.sender).transfer */\n      0xffffffffffffffffffffffffffffffffffffffff\n      and\n        /* \"contracts/127.sol\":2942:3002  payable(msg.sender).transfer(transactions[_buyer][i].amount) */\n      0x08fc\n        /* \"contracts/127.sol\":2971:2983  transactions */\n      0x01\n        /* \"contracts/127.sol\":2971:2991  transactions[_buyer] */\n      0x00\n        /* \"contracts/127.sol\":2984:2990  _buyer */\n      dup9\n        /* \"contracts/127.sol\":2971:2991  transactions[_buyer] */\n      0xffffffffffffffffffffffffffffffffffffffff\n      and\n      0xffffffffffffffffffffffffffffffffffffffff\n      and\n      dup2\n      mstore\n      0x20\n      add\n      swap1\n      dup2\n      mstore\n      0x20\n      add\n      0x00\n      keccak256\n        /* \"contracts/127.sol\":2992:2993  i */\n      dup4\n        /* \"contracts/127.sol\":2971:2994  transactions[_buyer][i] */\n      dup2\n      sload\n      dup2\n      lt\n      tag_75\n      jumpi\n      tag_76\n      tag_56\n      jump\t// in\n    tag_76:\n    tag_75:\n      swap1\n      0x00\n      mstore\n      keccak256(0x00, 0x20)\n      swap1\n      0x03\n      mul\n      add\n        /* \"contracts/127.sol\":2971:3001  transactions[_buyer][i].amount */\n      0x01\n      add\n      sload\n        /* \"contracts/127.sol\":2942:3002  payable(msg.sender).transfer(transactions[_buyer][i].amount) */\n      swap1\n      dup2\n      iszero\n      mul\n      swap1\n      mload(0x40)\n      0x00\n      mload(0x40)\n      dup1\n      dup4\n      sub\n      dup2\n      dup6\n      dup9\n      dup9\n      call\n      swap4\n      pop\n      pop\n      pop\n      pop\n      iszero\n      dup1\n      iszero\n      tag_79\n      jumpi\n      returndatasize\n      0x00\n      dup1\n      returndatacopy\n      revert(0x00, returndatasize)\n    tag_79:\n      pop\n        /* \"contracts/127.sol\":3026:3163  Release(... */\n      0xcb54aad3bd772fcfe1bc124e01bd1a91a91c9d80126d8b3014c4d9e687d5ca48\n        /* \"contracts/127.sol\":3055:3061  _buyer */\n      dup6\n        /* \"contracts/127.sol\":3083:3093  msg.sender */\n      caller\n        /* \"contracts/127.sol\":3115:3127  transactions */\n      0x01\n        /* \"contracts/127.sol\":3115:3135  transactions[_buyer] */\n      0x00\n        /* \"contracts/127.sol\":3128:3134  _buyer */\n      dup10\n        /* \"contracts/127.sol\":3115:3135  transactions[_buyer] */\n      0xffffffffffffffffffffffffffffffffffffffff\n      and\n      0xffffffffffffffffffffffffffffffffffffffff\n      and\n      dup2\n      mstore\n      0x20\n      add\n      swap1\n      dup2\n      mstore\n      0x20\n      add\n      0x00\n      keccak256\n        /* \"contracts/127.sol\":3136:3137  i */\n      dup5\n        /* \"contracts/127.sol\":3115:3138  transactions[_buyer][i] */\n      dup2\n      sload\n      dup2\n      lt\n      tag_80\n      jumpi\n      tag_81\n      tag_56\n      jump\t// in\n    tag_81:\n    tag_80:\n      swap1\n      0x00\n      mstore\n      keccak256(0x00, 0x20)\n      swap1\n      0x03\n      mul\n      add\n        /* \"contracts/127.sol\":3115:3145  transactions[_buyer][i].amount */\n      0x01\n      add\n      sload\n        /* \"contracts/127.sol\":3026:3163  Release(... */\n      mload(0x40)\n      tag_83\n      swap4\n      swap3\n      swap2\n      swap1\n      tag_84\n      jump\t// in\n    tag_83:\n      mload(0x40)\n      dup1\n      swap2\n      sub\n      swap1\n      log1\n        /* \"contracts/127.sol\":2649:3178  if (transactions[_buyer][i].seller == msg.sender) {... */\n    tag_58:\n        /* \"contracts/127.sol\":2630:2633  i++ */\n      dup1\n      dup1\n      tag_85\n      swap1\n      tag_86\n      jump\t// in\n    tag_85:\n      swap2\n      pop\n      pop\n        /* \"contracts/127.sol\":2577:3188  for (uint256 i = 0; i < transactions[_buyer].length; i++) {... */\n      jump(tag_51)\n    tag_52:\n      pop\n        /* \"contracts/127.sol\":1251:1252  _ */\n      pop\n      pop\n        /* \"contracts/127.sol\":2446:3194  function release(address _buyer)... */\n      pop\n      pop\n      jump\t// out\n        /* \"contracts/127.sol\":216:239  address public mediator */\n    tag_22:\n      0x00\n      dup1\n      sload\n      swap1\n      0x0100\n      exp\n      swap1\n      div\n      0xffffffffffffffffffffffffffffffffffffffff\n      and\n      dup2\n      jump\t// out\n        /* \"contracts/127.sol\":2097:2440  function delivered(address _buyer, address _seller) public onlyMediator {... */\n    tag_29:\n        /* \"contracts/127.sol\":837:847  msg.sender */\n      caller\n        /* \"contracts/127.sol\":825:847  mediator == msg.sender */\n      0xffffffffffffffffffffffffffffffffffffffff\n      and\n        /* \"contracts/127.sol\":825:833  mediator */\n      0x00\n      dup1\n      sload\n      swap1\n      0x0100\n      exp\n      swap1\n      div\n      0xffffffffffffffffffffffffffffffffffffffff\n      and\n        /* \"contracts/127.sol\":825:847  mediator == msg.sender */\n      0xffffffffffffffffffffffffffffffffffffffff\n      and\n      eq\n        /* \"contracts/127.sol\":817:873  require(mediator == msg.sender, \"You dont have access!\") */\n      tag_88\n      jumpi\n      mload(0x40)\n      0x08c379a000000000000000000000000000000000000000000000000000000000\n      dup2\n      mstore\n      0x04\n      add\n      tag_89\n      swap1\n      tag_90\n      jump\t// in\n    tag_89:\n      mload(0x40)\n      dup1\n      swap2\n      sub\n      swap1\n      revert\n    tag_88:\n        /* \"contracts/127.sol\":2184:2193  uint256 i */\n      0x00\n        /* \"contracts/127.sol\":2179:2392  for (uint256 i = 0; i < transactions[_buyer].length; i++) {... */\n    tag_92:\n        /* \"contracts/127.sol\":2203:2215  transactions */\n      0x01\n        /* \"contracts/127.sol\":2203:2223  transactions[_buyer] */\n      0x00\n        /* \"contracts/127.sol\":2216:2222  _buyer */\n      dup5\n        /* \"contracts/127.sol\":2203:2223  transactions[_buyer] */\n      0xffffffffffffffffffffffffffffffffffffffff\n      and\n      0xffffffffffffffffffffffffffffffffffffffff\n      and\n      dup2\n      mstore\n      0x20\n      add\n      swap1\n      dup2\n      mstore\n      0x20\n      add\n      0x00\n      keccak256\n        /* \"contracts/127.sol\":2203:2230  transactions[_buyer].length */\n      dup1\n      sload\n      swap1\n      pop\n        /* \"contracts/127.sol\":2199:2200  i */\n      dup2\n        /* \"contracts/127.sol\":2199:2230  i < transactions[_buyer].length */\n      lt\n        /* \"contracts/127.sol\":2179:2392  for (uint256 i = 0; i < transactions[_buyer].length; i++) {... */\n      iszero\n      tag_93\n      jumpi\n        /* \"contracts/127.sol\":2289:2296  _seller */\n      dup2\n        /* \"contracts/127.sol\":2255:2296  transactions[_buyer][i].seller == _seller */\n      0xffffffffffffffffffffffffffffffffffffffff\n      and\n        /* \"contracts/127.sol\":2255:2267  transactions */\n      0x01\n        /* \"contracts/127.sol\":2255:2275  transactions[_buyer] */\n      0x00\n        /* \"contracts/127.sol\":2268:2274  _buyer */\n      dup6\n        /* \"contracts/127.sol\":2255:2275  transactions[_buyer] */\n      0xffffffffffffffffffffffffffffffffffffffff\n      and\n      0xffffffffffffffffffffffffffffffffffffffff\n      and\n      dup2\n      mstore\n      0x20\n      add\n      swap1\n      dup2\n      mstore\n      0x20\n      add\n      0x00\n      keccak256\n        /* \"contracts/127.sol\":2276:2277  i */\n      dup3\n        /* \"contracts/127.sol\":2255:2278  transactions[_buyer][i] */\n      dup2\n      sload\n      dup2\n      lt\n      tag_95\n      jumpi\n      tag_96\n      tag_56\n      jump\t// in\n    tag_96:\n    tag_95:\n      swap1\n      0x00\n      mstore\n      keccak256(0x00, 0x20)\n      swap1\n      0x03\n      mul\n      add\n        /* \"contracts/127.sol\":2255:2285  transactions[_buyer][i].seller */\n      0x00\n      add\n      0x00\n      swap1\n      sload\n      swap1\n      0x0100\n      exp\n      swap1\n      div\n      0xffffffffffffffffffffffffffffffffffffffff\n      and\n        /* \"contracts/127.sol\":2255:2296  transactions[_buyer][i].seller == _seller */\n      0xffffffffffffffffffffffffffffffffffffffff\n      and\n      sub\n        /* \"contracts/127.sol\":2251:2382  if (transactions[_buyer][i].seller == _seller) {... */\n      tag_98\n      jumpi\n        /* \"contracts/127.sol\":2348:2367  situation.DELIVERED */\n      0x01\n        /* \"contracts/127.sol\":2316:2328  transactions */\n      dup1\n        /* \"contracts/127.sol\":2316:2336  transactions[_buyer] */\n      0x00\n        /* \"contracts/127.sol\":2329:2335  _buyer */\n      dup6\n        /* \"contracts/127.sol\":2316:2336  transactions[_buyer] */\n      0xffffffffffffffffffffffffffffffffffffffff\n      and\n      0xffffffffffffffffffffffffffffffffffffffff\n      and\n      dup2\n      mstore\n      0x20\n      add\n      swap1\n      dup2\n      mstore\n      0x20\n      add\n      0x00\n      keccak256\n        /* \"contracts/127.sol\":2337:2338  i */\n      dup3\n        /* \"contracts/127.sol\":2316:2339  transactions[_buyer][i] */\n      dup2\n      sload\n      dup2\n      lt\n      tag_99\n      jumpi\n      tag_100\n      tag_56\n      jump\t// in\n    tag_100:\n    tag_99:\n      swap1\n      0x00\n      mstore\n      keccak256(0x00, 0x20)\n      swap1\n      0x03\n      mul\n      add\n        /* \"contracts/127.sol\":2316:2345  transactions[_buyer][i].state */\n      0x02\n      add\n      0x00\n        /* \"contracts/127.sol\":2316:2367  transactions[_buyer][i].state = situation.DELIVERED */\n      0x0100\n      exp\n      dup2\n      sload\n      dup2\n      0xff\n      mul\n      not\n      and\n      swap1\n      dup4\n      0x02\n      dup2\n      gt\n      iszero\n      tag_102\n      jumpi\n      tag_103\n      tag_61\n      jump\t// in\n    tag_103:\n    tag_102:\n      mul\n      or\n      swap1\n      sstore\n      pop\n        /* \"contracts/127.sol\":2251:2382  if (transactions[_buyer][i].seller == _seller) {... */\n    tag_98:\n        /* \"contracts/127.sol\":2232:2235  i++ */\n      dup1\n      dup1\n      tag_104\n      swap1\n      tag_86\n      jump\t// in\n    tag_104:\n      swap2\n      pop\n      pop\n        /* \"contracts/127.sol\":2179:2392  for (uint256 i = 0; i < transactions[_buyer].length; i++) {... */\n      jump(tag_92)\n    tag_93:\n      pop\n        /* \"contracts/127.sol\":2407:2433  Delivered(_buyer, _seller) */\n      0x81a8b94df9b82f8e72580f655e1d906d12f243f0b2fa5692329edd2108d59709\n        /* \"contracts/127.sol\":2417:2423  _buyer */\n      dup3\n        /* \"contracts/127.sol\":2425:2432  _seller */\n      dup3\n        /* \"contracts/127.sol\":2407:2433  Delivered(_buyer, _seller) */\n      mload(0x40)\n      tag_105\n      swap3\n      swap2\n      swap1\n      tag_106\n      jump\t// in\n    tag_105:\n      mload(0x40)\n      dup1\n      swap2\n      sub\n      swap1\n      log1\n        /* \"contracts/127.sol\":2097:2440  function delivered(address _buyer, address _seller) public onlyMediator {... */\n      pop\n      pop\n      jump\t// out\n        /* \"contracts/127.sol\":1265:2091  function lock(address _seller)... */\n    tag_32:\n        /* \"contracts/127.sol\":1344:1351  _seller */\n      dup1\n        /* \"contracts/127.sol\":1207:1215  _address */\n      dup1\n        /* \"contracts/127.sol\":1193:1215  msg.sender != _address */\n      0xffffffffffffffffffffffffffffffffffffffff\n      and\n        /* \"contracts/127.sol\":1193:1203  msg.sender */\n      caller\n        /* \"contracts/127.sol\":1193:1215  msg.sender != _address */\n      0xffffffffffffffffffffffffffffffffffffffff\n      and\n      sub\n        /* \"contracts/127.sol\":1185:1241  require(msg.sender != _address, \"You don't have access\") */\n      tag_108\n      jumpi\n      mload(0x40)\n      0x08c379a000000000000000000000000000000000000000000000000000000000\n      dup2\n      mstore\n      0x04\n      add\n      tag_109\n      swap1\n      tag_42\n      jump\t// in\n    tag_109:\n      mload(0x40)\n      dup1\n      swap2\n      sub\n      swap1\n      revert\n    tag_108:\n        /* \"contracts/127.sol\":1377:1384  _seller */\n      dup2\n        /* \"contracts/127.sol\":1386:1396  msg.sender */\n      caller\n        /* \"contracts/127.sol\":999:1013  _sellerAddress */\n      dup2\n        /* \"contracts/127.sol\":987:1013  mediator != _sellerAddress */\n      0xffffffffffffffffffffffffffffffffffffffff\n      and\n        /* \"contracts/127.sol\":987:995  mediator */\n      0x00\n      dup1\n      sload\n      swap1\n      0x0100\n      exp\n      swap1\n      div\n      0xffffffffffffffffffffffffffffffffffffffff\n      and\n        /* \"contracts/127.sol\":987:1013  mediator != _sellerAddress */\n      0xffffffffffffffffffffffffffffffffffffffff\n      and\n      sub\n        /* \"contracts/127.sol\":979:1043  require(mediator != _sellerAddress, \"Mediator cannot be seller\") */\n      tag_111\n      jumpi\n      mload(0x40)\n      0x08c379a000000000000000000000000000000000000000000000000000000000\n      dup2\n      mstore\n      0x04\n      add\n      tag_112\n      swap1\n      tag_46\n      jump\t// in\n    tag_112:\n      mload(0x40)\n      dup1\n      swap2\n      sub\n      swap1\n      revert\n    tag_111:\n        /* \"contracts/127.sol\":1073:1086  _buyerAddress */\n      dup1\n        /* \"contracts/127.sol\":1061:1086  mediator != _buyerAddress */\n      0xffffffffffffffffffffffffffffffffffffffff\n      and\n        /* \"contracts/127.sol\":1061:1069  mediator */\n      0x00\n      dup1\n      sload\n      swap1\n      0x0100\n      exp\n      swap1\n      div\n      0xffffffffffffffffffffffffffffffffffffffff\n      and\n        /* \"contracts/127.sol\":1061:1086  mediator != _buyerAddress */\n      0xffffffffffffffffffffffffffffffffffffffff\n      and\n      sub\n        /* \"contracts/127.sol\":1053:1115  require(mediator != _buyerAddress, \"Mediator cannot be buyer\") */\n      tag_113\n      jumpi\n      mload(0x40)\n      0x08c379a000000000000000000000000000000000000000000000000000000000\n      dup2\n      mstore\n      0x04\n      add\n      tag_114\n      swap1\n      tag_49\n      jump\t// in\n    tag_114:\n      mload(0x40)\n      dup1\n      swap2\n      sub\n      swap1\n      revert\n    tag_113:\n        /* \"contracts/127.sol\":1432:1433  0 */\n      0x00\n        /* \"contracts/127.sol\":1420:1429  msg.value */\n      callvalue\n        /* \"contracts/127.sol\":1420:1433  msg.value > 0 */\n      gt\n        /* \"contracts/127.sol\":1412:1452  require(msg.value > 0, \"Invalid amount\") */\n      tag_116\n      jumpi\n      mload(0x40)\n      0x08c379a000000000000000000000000000000000000000000000000000000000\n      dup2\n      mstore\n      0x04\n      add\n      tag_117\n      swap1\n      tag_118\n      jump\t// in\n    tag_117:\n      mload(0x40)\n      dup1\n      swap2\n      sub\n      swap1\n      revert\n    tag_116:\n        /* \"contracts/127.sol\":1462:1471  bool flag */\n      0x00\n        /* \"contracts/127.sol\":1495:1504  uint256 i */\n      dup1\n        /* \"contracts/127.sol\":1490:1882  for (uint256 i = 0; i < transactions[msg.sender].length; i++) {... */\n    tag_119:\n        /* \"contracts/127.sol\":1514:1526  transactions */\n      0x01\n        /* \"contracts/127.sol\":1514:1538  transactions[msg.sender] */\n      0x00\n        /* \"contracts/127.sol\":1527:1537  msg.sender */\n      caller\n        /* \"contracts/127.sol\":1514:1538  transactions[msg.sender] */\n      0xffffffffffffffffffffffffffffffffffffffff\n      and\n      0xffffffffffffffffffffffffffffffffffffffff\n      and\n      dup2\n      mstore\n      0x20\n      add\n      swap1\n      dup2\n      mstore\n      0x20\n      add\n      0x00\n      keccak256\n        /* \"contracts/127.sol\":1514:1545  transactions[msg.sender].length */\n      dup1\n      sload\n      swap1\n      pop\n        /* \"contracts/127.sol\":1510:1511  i */\n      dup2\n        /* \"contracts/127.sol\":1510:1545  i < transactions[msg.sender].length */\n      lt\n        /* \"contracts/127.sol\":1490:1882  for (uint256 i = 0; i < transactions[msg.sender].length; i++) {... */\n      iszero\n      tag_120\n      jumpi\n        /* \"contracts/127.sol\":1608:1615  _seller */\n      dup6\n        /* \"contracts/127.sol\":1570:1615  transactions[msg.sender][i].seller == _seller */\n      0xffffffffffffffffffffffffffffffffffffffff\n      and\n        /* \"contracts/127.sol\":1570:1582  transactions */\n      0x01\n        /* \"contracts/127.sol\":1570:1594  transactions[msg.sender] */\n      0x00\n        /* \"contracts/127.sol\":1583:1593  msg.sender */\n      caller\n        /* \"contracts/127.sol\":1570:1594  transactions[msg.sender] */\n      0xffffffffffffffffffffffffffffffffffffffff\n      and\n      0xffffffffffffffffffffffffffffffffffffffff\n      and\n      dup2\n      mstore\n      0x20\n      add\n      swap1\n      dup2\n      mstore\n      0x20\n      add\n      0x00\n      keccak256\n        /* \"contracts/127.sol\":1595:1596  i */\n      dup3\n        /* \"contracts/127.sol\":1570:1597  transactions[msg.sender][i] */\n      dup2\n      sload\n      dup2\n      lt\n      tag_122\n      jumpi\n      tag_123\n      tag_56\n      jump\t// in\n    tag_123:\n    tag_122:\n      swap1\n      0x00\n      mstore\n      keccak256(0x00, 0x20)\n      swap1\n      0x03\n      mul\n      add\n        /* \"contracts/127.sol\":1570:1604  transactions[msg.sender][i].seller */\n      0x00\n      add\n      0x00\n      swap1\n      sload\n      swap1\n      0x0100\n      exp\n      swap1\n      div\n      0xffffffffffffffffffffffffffffffffffffffff\n      and\n        /* \"contracts/127.sol\":1570:1615  transactions[msg.sender][i].seller == _seller */\n      0xffffffffffffffffffffffffffffffffffffffff\n      and\n      sub\n        /* \"contracts/127.sol\":1566:1872  if (transactions[msg.sender][i].seller == _seller) {... */\n      tag_125\n      jumpi\n        /* \"contracts/127.sol\":1749:1758  msg.value */\n      callvalue\n        /* \"contracts/127.sol\":1692:1704  transactions */\n      0x01\n        /* \"contracts/127.sol\":1692:1716  transactions[msg.sender] */\n      0x00\n        /* \"contracts/127.sol\":1705:1715  msg.sender */\n      caller\n        /* \"contracts/127.sol\":1692:1716  transactions[msg.sender] */\n      0xffffffffffffffffffffffffffffffffffffffff\n      and\n      0xffffffffffffffffffffffffffffffffffffffff\n      and\n      dup2\n      mstore\n      0x20\n      add\n      swap1\n      dup2\n      mstore\n      0x20\n      add\n      0x00\n      keccak256\n        /* \"contracts/127.sol\":1717:1718  i */\n      dup3\n        /* \"contracts/127.sol\":1692:1719  transactions[msg.sender][i] */\n      dup2\n      sload\n      dup2\n      lt\n      tag_126\n      jumpi\n      tag_127\n      tag_56\n      jump\t// in\n    tag_127:\n    tag_126:\n      swap1\n      0x00\n      mstore\n      keccak256(0x00, 0x20)\n      swap1\n      0x03\n      mul\n      add\n        /* \"contracts/127.sol\":1692:1726  transactions[msg.sender][i].amount */\n      0x01\n      add\n      sload\n        /* \"contracts/127.sol\":1692:1758  transactions[msg.sender][i].amount +... */\n      tag_129\n      swap2\n      swap1\n      tag_130\n      jump\t// in\n    tag_129:\n        /* \"contracts/127.sol\":1635:1647  transactions */\n      0x01\n        /* \"contracts/127.sol\":1635:1659  transactions[msg.sender] */\n      0x00\n        /* \"contracts/127.sol\":1648:1658  msg.sender */\n      caller\n        /* \"contracts/127.sol\":1635:1659  transactions[msg.sender] */\n      0xffffffffffffffffffffffffffffffffffffffff\n      and\n      0xffffffffffffffffffffffffffffffffffffffff\n      and\n      dup2\n      mstore\n      0x20\n      add\n      swap1\n      dup2\n      mstore\n      0x20\n      add\n      0x00\n      keccak256\n        /* \"contracts/127.sol\":1660:1661  i */\n      dup3\n        /* \"contracts/127.sol\":1635:1662  transactions[msg.sender][i] */\n      dup2\n      sload\n      dup2\n      lt\n      tag_131\n      jumpi\n      tag_132\n      tag_56\n      jump\t// in\n    tag_132:\n    tag_131:\n      swap1\n      0x00\n      mstore\n      keccak256(0x00, 0x20)\n      swap1\n      0x03\n      mul\n      add\n        /* \"contracts/127.sol\":1635:1669  transactions[msg.sender][i].amount */\n      0x01\n      add\n        /* \"contracts/127.sol\":1635:1758  transactions[msg.sender][i].amount =... */\n      dup2\n      swap1\n      sstore\n      pop\n        /* \"contracts/127.sol\":1812:1828  situation.LOCKED */\n      0x00\n        /* \"contracts/127.sol\":1776:1788  transactions */\n      0x01\n        /* \"contracts/127.sol\":1776:1800  transactions[msg.sender] */\n      0x00\n        /* \"contracts/127.sol\":1789:1799  msg.sender */\n      caller\n        /* \"contracts/127.sol\":1776:1800  transactions[msg.sender] */\n      0xffffffffffffffffffffffffffffffffffffffff\n      and\n      0xffffffffffffffffffffffffffffffffffffffff\n      and\n      dup2\n      mstore\n      0x20\n      add\n      swap1\n      dup2\n      mstore\n      0x20\n      add\n      0x00\n      keccak256\n        /* \"contracts/127.sol\":1801:1802  i */\n      dup3\n        /* \"contracts/127.sol\":1776:1803  transactions[msg.sender][i] */\n      dup2\n      sload\n      dup2\n      lt\n      tag_134\n      jumpi\n      tag_135\n      tag_56\n      jump\t// in\n    tag_135:\n    tag_134:\n      swap1\n      0x00\n      mstore\n      keccak256(0x00, 0x20)\n      swap1\n      0x03\n      mul\n      add\n        /* \"contracts/127.sol\":1776:1809  transactions[msg.sender][i].state */\n      0x02\n      add\n      0x00\n        /* \"contracts/127.sol\":1776:1828  transactions[msg.sender][i].state = situation.LOCKED */\n      0x0100\n      exp\n      dup2\n      sload\n      dup2\n      0xff\n      mul\n      not\n      and\n      swap1\n      dup4\n      0x02\n      dup2\n      gt\n      iszero\n      tag_137\n      jumpi\n      tag_138\n      tag_61\n      jump\t// in\n    tag_138:\n    tag_137:\n      mul\n      or\n      swap1\n      sstore\n      pop\n        /* \"contracts/127.sol\":1853:1857  true */\n      0x01\n        /* \"contracts/127.sol\":1846:1857  flag = true */\n      swap2\n      pop\n        /* \"contracts/127.sol\":1566:1872  if (transactions[msg.sender][i].seller == _seller) {... */\n    tag_125:\n        /* \"contracts/127.sol\":1547:1550  i++ */\n      dup1\n      dup1\n      tag_139\n      swap1\n      tag_86\n      jump\t// in\n    tag_139:\n      swap2\n      pop\n      pop\n        /* \"contracts/127.sol\":1490:1882  for (uint256 i = 0; i < transactions[msg.sender].length; i++) {... */\n      jump(tag_119)\n    tag_120:\n      pop\n        /* \"contracts/127.sol\":1897:1901  flag */\n      dup1\n        /* \"contracts/127.sol\":1892:2033  if (!flag) {... */\n      tag_140\n      jumpi\n        /* \"contracts/127.sol\":1917:1929  transactions */\n      0x01\n        /* \"contracts/127.sol\":1917:1941  transactions[msg.sender] */\n      0x00\n        /* \"contracts/127.sol\":1930:1940  msg.sender */\n      caller\n        /* \"contracts/127.sol\":1917:1941  transactions[msg.sender] */\n      0xffffffffffffffffffffffffffffffffffffffff\n      and\n      0xffffffffffffffffffffffffffffffffffffffff\n      and\n      dup2\n      mstore\n      0x20\n      add\n      swap1\n      dup2\n      mstore\n      0x20\n      add\n      0x00\n      keccak256\n        /* \"contracts/127.sol\":1964:2008  Seller(_seller, msg.value, situation.LOCKED) */\n      mload(0x40)\n      dup1\n      0x60\n      add\n      0x40\n      mstore\n      dup1\n        /* \"contracts/127.sol\":1971:1978  _seller */\n      dup8\n        /* \"contracts/127.sol\":1964:2008  Seller(_seller, msg.value, situation.LOCKED) */\n      0xffffffffffffffffffffffffffffffffffffffff\n      and\n      dup2\n      mstore\n      0x20\n      add\n        /* \"contracts/127.sol\":1980:1989  msg.value */\n      callvalue\n        /* \"contracts/127.sol\":1964:2008  Seller(_seller, msg.value, situation.LOCKED) */\n      dup2\n      mstore\n      0x20\n      add\n        /* \"contracts/127.sol\":1991:2007  situation.LOCKED */\n      0x00\n        /* \"contracts/127.sol\":1964:2008  Seller(_seller, msg.value, situation.LOCKED) */\n      0x02\n      dup2\n      gt\n      iszero\n      tag_141\n      jumpi\n      tag_142\n      tag_61\n      jump\t// in\n    tag_142:\n    tag_141:\n      dup2\n      mstore\n      pop\n        /* \"contracts/127.sol\":1917:2022  transactions[msg.sender].push(... */\n      swap1\n      dup1\n      0x01\n      dup2\n      sload\n      add\n      dup1\n      dup3\n      sstore\n      dup1\n      swap2\n      pop\n      pop\n      0x01\n      swap1\n      sub\n      swap1\n      0x00\n      mstore\n      keccak256(0x00, 0x20)\n      swap1\n      0x03\n      mul\n      add\n      0x00\n      swap1\n      swap2\n      swap1\n      swap2\n      swap1\n      swap2\n      pop\n      0x00\n      dup3\n      add\n      mload\n      dup2\n      0x00\n      add\n      exp(0x0100, 0x00)\n      dup2\n      sload\n      dup2\n      0xffffffffffffffffffffffffffffffffffffffff\n      mul\n      not\n      and\n      swap1\n      dup4\n      0xffffffffffffffffffffffffffffffffffffffff\n      and\n      mul\n      or\n      swap1\n      sstore\n      pop\n      0x20\n      dup3\n      add\n      mload\n      dup2\n      0x01\n      add\n      sstore\n      0x40\n      dup3\n      add\n      mload\n      dup2\n      0x02\n      add\n      exp(0x0100, 0x00)\n      dup2\n      sload\n      dup2\n      0xff\n      mul\n      not\n      and\n      swap1\n      dup4\n      0x02\n      dup2\n      gt\n      iszero\n      tag_144\n      jumpi\n      tag_145\n      tag_61\n      jump\t// in\n    tag_145:\n    tag_144:\n      mul\n      or\n      swap1\n      sstore\n      pop\n      pop\n      pop\n        /* \"contracts/127.sol\":1892:2033  if (!flag) {... */\n    tag_140:\n        /* \"contracts/127.sol\":2048:2084  Lock(msg.sender, _seller, msg.value) */\n      0xec36c0364d931187a76cf66d7eee08fad0ec2e8b7458a8d8b26b36769d4d13f3\n        /* \"contracts/127.sol\":2053:2063  msg.sender */\n      caller\n        /* \"contracts/127.sol\":2065:2072  _seller */\n      dup7\n        /* \"contracts/127.sol\":2074:2083  msg.value */\n      callvalue\n        /* \"contracts/127.sol\":2048:2084  Lock(msg.sender, _seller, msg.value) */\n      mload(0x40)\n      tag_146\n      swap4\n      swap3\n      swap2\n      swap1\n      tag_84\n      jump\t// in\n    tag_146:\n      mload(0x40)\n      dup1\n      swap2\n      sub\n      swap1\n      log1\n        /* \"contracts/127.sol\":1402:2091  {... */\n      pop\n        /* \"contracts/127.sol\":1251:1252  _ */\n      pop\n      pop\n        /* \"contracts/127.sol\":1265:2091  function lock(address _seller)... */\n      pop\n      pop\n      jump\t// out\n        /* \"contracts/127.sol\":3200:4062  function refund(address _seller)... */\n    tag_36:\n        /* \"contracts/127.sol\":3265:3272  _seller */\n      dup1\n        /* \"contracts/127.sol\":1207:1215  _address */\n      dup1\n        /* \"contracts/127.sol\":1193:1215  msg.sender != _address */\n      0xffffffffffffffffffffffffffffffffffffffff\n      and\n        /* \"contracts/127.sol\":1193:1203  msg.sender */\n      caller\n        /* \"contracts/127.sol\":1193:1215  msg.sender != _address */\n      0xffffffffffffffffffffffffffffffffffffffff\n      and\n      sub\n        /* \"contracts/127.sol\":1185:1241  require(msg.sender != _address, \"You don't have access\") */\n      tag_148\n      jumpi\n      mload(0x40)\n      0x08c379a000000000000000000000000000000000000000000000000000000000\n      dup2\n      mstore\n      0x04\n      add\n      tag_149\n      swap1\n      tag_42\n      jump\t// in\n    tag_149:\n      mload(0x40)\n      dup1\n      swap2\n      sub\n      swap1\n      revert\n    tag_148:\n        /* \"contracts/127.sol\":3298:3305  _seller */\n      dup2\n        /* \"contracts/127.sol\":3307:3317  msg.sender */\n      caller\n        /* \"contracts/127.sol\":999:1013  _sellerAddress */\n      dup2\n        /* \"contracts/127.sol\":987:1013  mediator != _sellerAddress */\n      0xffffffffffffffffffffffffffffffffffffffff\n      and\n        /* \"contracts/127.sol\":987:995  mediator */\n      0x00\n      dup1\n      sload\n      swap1\n      0x0100\n      exp\n      swap1\n      div\n      0xffffffffffffffffffffffffffffffffffffffff\n      and\n        /* \"contracts/127.sol\":987:1013  mediator != _sellerAddress */\n      0xffffffffffffffffffffffffffffffffffffffff\n      and\n      sub\n        /* \"contracts/127.sol\":979:1043  require(mediator != _sellerAddress, \"Mediator cannot be seller\") */\n      tag_151\n      jumpi\n      mload(0x40)\n      0x08c379a000000000000000000000000000000000000000000000000000000000\n      dup2\n      mstore\n      0x04\n      add\n      tag_152\n      swap1\n      tag_46\n      jump\t// in\n    tag_152:\n      mload(0x40)\n      dup1\n      swap2\n      sub\n      swap1\n      revert\n    tag_151:\n        /* \"contracts/127.sol\":1073:1086  _buyerAddress */\n      dup1\n        /* \"contracts/127.sol\":1061:1086  mediator != _buyerAddress */\n      0xffffffffffffffffffffffffffffffffffffffff\n      and\n        /* \"contracts/127.sol\":1061:1069  mediator */\n      0x00\n      dup1\n      sload\n      swap1\n      0x0100\n      exp\n      swap1\n      div\n      0xffffffffffffffffffffffffffffffffffffffff\n      and\n        /* \"contracts/127.sol\":1061:1086  mediator != _buyerAddress */\n      0xffffffffffffffffffffffffffffffffffffffff\n      and\n      sub\n        /* \"contracts/127.sol\":1053:1115  require(mediator != _buyerAddress, \"Mediator cannot be buyer\") */\n      tag_153\n      jumpi\n      mload(0x40)\n      0x08c379a000000000000000000000000000000000000000000000000000000000\n      dup2\n      mstore\n      0x04\n      add\n      tag_154\n      swap1\n      tag_49\n      jump\t// in\n    tag_154:\n      mload(0x40)\n      dup1\n      swap2\n      sub\n      swap1\n      revert\n    tag_153:\n        /* \"contracts/127.sol\":3338:3347  uint256 i */\n      0x00\n        /* \"contracts/127.sol\":3333:4056  for (uint256 i = 0; i < transactions[msg.sender].length; i++) {... */\n    tag_156:\n        /* \"contracts/127.sol\":3357:3369  transactions */\n      0x01\n        /* \"contracts/127.sol\":3357:3381  transactions[msg.sender] */\n      0x00\n        /* \"contracts/127.sol\":3370:3380  msg.sender */\n      caller\n        /* \"contracts/127.sol\":3357:3381  transactions[msg.sender] */\n      0xffffffffffffffffffffffffffffffffffffffff\n      and\n      0xffffffffffffffffffffffffffffffffffffffff\n      and\n      dup2\n      mstore\n      0x20\n      add\n      swap1\n      dup2\n      mstore\n      0x20\n      add\n      0x00\n      keccak256\n        /* \"contracts/127.sol\":3357:3388  transactions[msg.sender].length */\n      dup1\n      sload\n      swap1\n      pop\n        /* \"contracts/127.sol\":3353:3354  i */\n      dup2\n        /* \"contracts/127.sol\":3353:3388  i < transactions[msg.sender].length */\n      lt\n        /* \"contracts/127.sol\":3333:4056  for (uint256 i = 0; i < transactions[msg.sender].length; i++) {... */\n      iszero\n      tag_157\n      jumpi\n        /* \"contracts/127.sol\":3451:3458  _seller */\n      dup5\n        /* \"contracts/127.sol\":3413:3458  transactions[msg.sender][i].seller == _seller */\n      0xffffffffffffffffffffffffffffffffffffffff\n      and\n        /* \"contracts/127.sol\":3413:3425  transactions */\n      0x01\n        /* \"contracts/127.sol\":3413:3437  transactions[msg.sender] */\n      0x00\n        /* \"contracts/127.sol\":3426:3436  msg.sender */\n      caller\n        /* \"contracts/127.sol\":3413:3437  transactions[msg.sender] */\n      0xffffffffffffffffffffffffffffffffffffffff\n      and\n      0xffffffffffffffffffffffffffffffffffffffff\n      and\n      dup2\n      mstore\n      0x20\n      add\n      swap1\n      dup2\n      mstore\n      0x20\n      add\n      0x00\n      keccak256\n        /* \"contracts/127.sol\":3438:3439  i */\n      dup3\n        /* \"contracts/127.sol\":3413:3440  transactions[msg.sender][i] */\n      dup2\n      sload\n      dup2\n      lt\n      tag_159\n      jumpi\n      tag_160\n      tag_56\n      jump\t// in\n    tag_160:\n    tag_159:\n      swap1\n      0x00\n      mstore\n      keccak256(0x00, 0x20)\n      swap1\n      0x03\n      mul\n      add\n        /* \"contracts/127.sol\":3413:3447  transactions[msg.sender][i].seller */\n      0x00\n      add\n      0x00\n      swap1\n      sload\n      swap1\n      0x0100\n      exp\n      swap1\n      div\n      0xffffffffffffffffffffffffffffffffffffffff\n      and\n        /* \"contracts/127.sol\":3413:3458  transactions[msg.sender][i].seller == _seller */\n      0xffffffffffffffffffffffffffffffffffffffff\n      and\n      sub\n        /* \"contracts/127.sol\":3409:4046  if (transactions[msg.sender][i].seller == _seller) {... */\n      tag_162\n      jumpi\n        /* \"contracts/127.sol\":3544:3560  situation.LOCKED */\n      0x00\n        /* \"contracts/127.sol\":3507:3560  transactions[msg.sender][i].state == situation.LOCKED */\n      0x02\n      dup2\n      gt\n      iszero\n      tag_163\n      jumpi\n      tag_164\n      tag_61\n      jump\t// in\n    tag_164:\n    tag_163:\n        /* \"contracts/127.sol\":3507:3519  transactions */\n      0x01\n        /* \"contracts/127.sol\":3507:3531  transactions[msg.sender] */\n      0x00\n        /* \"contracts/127.sol\":3520:3530  msg.sender */\n      caller\n        /* \"contracts/127.sol\":3507:3531  transactions[msg.sender] */\n      0xffffffffffffffffffffffffffffffffffffffff\n      and\n      0xffffffffffffffffffffffffffffffffffffffff\n      and\n      dup2\n      mstore\n      0x20\n      add\n      swap1\n      dup2\n      mstore\n      0x20\n      add\n      0x00\n      keccak256\n        /* \"contracts/127.sol\":3532:3533  i */\n      dup3\n        /* \"contracts/127.sol\":3507:3534  transactions[msg.sender][i] */\n      dup2\n      sload\n      dup2\n      lt\n      tag_165\n      jumpi\n      tag_166\n      tag_56\n      jump\t// in\n    tag_166:\n    tag_165:\n      swap1\n      0x00\n      mstore\n      keccak256(0x00, 0x20)\n      swap1\n      0x03\n      mul\n      add\n        /* \"contracts/127.sol\":3507:3540  transactions[msg.sender][i].state */\n      0x02\n      add\n      0x00\n      swap1\n      sload\n      swap1\n      0x0100\n      exp\n      swap1\n      div\n      0xff\n      and\n        /* \"contracts/127.sol\":3507:3560  transactions[msg.sender][i].state == situation.LOCKED */\n      0x02\n      dup2\n      gt\n      iszero\n      tag_168\n      jumpi\n      tag_169\n      tag_61\n      jump\t// in\n    tag_169:\n    tag_168:\n      eq\n        /* \"contracts/127.sol\":3478:3617  require(... */\n      tag_170\n      jumpi\n      mload(0x40)\n      0x08c379a000000000000000000000000000000000000000000000000000000000\n      dup2\n      mstore\n      0x04\n      add\n      tag_171\n      swap1\n      tag_69\n      jump\t// in\n    tag_171:\n      mload(0x40)\n      dup1\n      swap2\n      sub\n      swap1\n      revert\n    tag_170:\n        /* \"contracts/127.sol\":3644:3654  msg.sender */\n      caller\n        /* \"contracts/127.sol\":3636:3664  payable(msg.sender).transfer */\n      0xffffffffffffffffffffffffffffffffffffffff\n      and\n        /* \"contracts/127.sol\":3636:3738  payable(msg.sender).transfer(... */\n      0x08fc\n        /* \"contracts/127.sol\":3686:3698  transactions */\n      0x01\n        /* \"contracts/127.sol\":3686:3710  transactions[msg.sender] */\n      0x00\n        /* \"contracts/127.sol\":3699:3709  msg.sender */\n      caller\n        /* \"contracts/127.sol\":3686:3710  transactions[msg.sender] */\n      0xffffffffffffffffffffffffffffffffffffffff\n      and\n      0xffffffffffffffffffffffffffffffffffffffff\n      and\n      dup2\n      mstore\n      0x20\n      add\n      swap1\n      dup2\n      mstore\n      0x20\n      add\n      0x00\n      keccak256\n        /* \"contracts/127.sol\":3711:3712  i */\n      dup4\n        /* \"contracts/127.sol\":3686:3713  transactions[msg.sender][i] */\n      dup2\n      sload\n      dup2\n      lt\n      tag_172\n      jumpi\n      tag_173\n      tag_56\n      jump\t// in\n    tag_173:\n    tag_172:\n      swap1\n      0x00\n      mstore\n      keccak256(0x00, 0x20)\n      swap1\n      0x03\n      mul\n      add\n        /* \"contracts/127.sol\":3686:3720  transactions[msg.sender][i].amount */\n      0x01\n      add\n      sload\n        /* \"contracts/127.sol\":3636:3738  payable(msg.sender).transfer(... */\n      swap1\n      dup2\n      iszero\n      mul\n      swap1\n      mload(0x40)\n      0x00\n      mload(0x40)\n      dup1\n      dup4\n      sub\n      dup2\n      dup6\n      dup9\n      dup9\n      call\n      swap4\n      pop\n      pop\n      pop\n      pop\n      iszero\n      dup1\n      iszero\n      tag_176\n      jumpi\n      returndatasize\n      0x00\n      dup1\n      returndatacopy\n      revert(0x00, returndatasize)\n    tag_176:\n      pop\n        /* \"contracts/127.sol\":3793:3794  0 */\n      0x00\n        /* \"contracts/127.sol\":3756:3768  transactions */\n      0x01\n        /* \"contracts/127.sol\":3756:3780  transactions[msg.sender] */\n      0x00\n        /* \"contracts/127.sol\":3769:3779  msg.sender */\n      caller\n        /* \"contracts/127.sol\":3756:3780  transactions[msg.sender] */\n      0xffffffffffffffffffffffffffffffffffffffff\n      and\n      0xffffffffffffffffffffffffffffffffffffffff\n      and\n      dup2\n      mstore\n      0x20\n      add\n      swap1\n      dup2\n      mstore\n      0x20\n      add\n      0x00\n      keccak256\n        /* \"contracts/127.sol\":3781:3782  i */\n      dup3\n        /* \"contracts/127.sol\":3756:3783  transactions[msg.sender][i] */\n      dup2\n      sload\n      dup2\n      lt\n      tag_177\n      jumpi\n      tag_178\n      tag_56\n      jump\t// in\n    tag_178:\n    tag_177:\n      swap1\n      0x00\n      mstore\n      keccak256(0x00, 0x20)\n      swap1\n      0x03\n      mul\n      add\n        /* \"contracts/127.sol\":3756:3790  transactions[msg.sender][i].amount */\n      0x01\n      add\n        /* \"contracts/127.sol\":3756:3794  transactions[msg.sender][i].amount = 0 */\n      dup2\n      swap1\n      sstore\n      pop\n        /* \"contracts/127.sol\":3848:3866  situation.INACTIVE */\n      0x02\n        /* \"contracts/127.sol\":3812:3824  transactions */\n      0x01\n        /* \"contracts/127.sol\":3812:3836  transactions[msg.sender] */\n      0x00\n        /* \"contracts/127.sol\":3825:3835  msg.sender */\n      caller\n        /* \"contracts/127.sol\":3812:3836  transactions[msg.sender] */\n      0xffffffffffffffffffffffffffffffffffffffff\n      and\n      0xffffffffffffffffffffffffffffffffffffffff\n      and\n      dup2\n      mstore\n      0x20\n      add\n      swap1\n      dup2\n      mstore\n      0x20\n      add\n      0x00\n      keccak256\n        /* \"contracts/127.sol\":3837:3838  i */\n      dup3\n        /* \"contracts/127.sol\":3812:3839  transactions[msg.sender][i] */\n      dup2\n      sload\n      dup2\n      lt\n      tag_180\n      jumpi\n      tag_181\n      tag_56\n      jump\t// in\n    tag_181:\n    tag_180:\n      swap1\n      0x00\n      mstore\n      keccak256(0x00, 0x20)\n      swap1\n      0x03\n      mul\n      add\n        /* \"contracts/127.sol\":3812:3845  transactions[msg.sender][i].state */\n      0x02\n      add\n      0x00\n        /* \"contracts/127.sol\":3812:3866  transactions[msg.sender][i].state = situation.INACTIVE */\n      0x0100\n      exp\n      dup2\n      sload\n      dup2\n      0xff\n      mul\n      not\n      and\n      swap1\n      dup4\n      0x02\n      dup2\n      gt\n      iszero\n      tag_183\n      jumpi\n      tag_184\n      tag_61\n      jump\t// in\n    tag_184:\n    tag_183:\n      mul\n      or\n      swap1\n      sstore\n      pop\n        /* \"contracts/127.sol\":3890:4031  Refund(... */\n      0xf40cc8c1a1d17359049ba500cfc894596a692cffc9d03943cd92ec2e159cf6ae\n        /* \"contracts/127.sol\":3918:3928  msg.sender */\n      caller\n        /* \"contracts/127.sol\":3950:3957  _seller */\n      dup7\n        /* \"contracts/127.sol\":3979:3991  transactions */\n      0x01\n        /* \"contracts/127.sol\":3979:4003  transactions[msg.sender] */\n      0x00\n        /* \"contracts/127.sol\":3992:4002  msg.sender */\n      caller\n        /* \"contracts/127.sol\":3979:4003  transactions[msg.sender] */\n      0xffffffffffffffffffffffffffffffffffffffff\n      and\n      0xffffffffffffffffffffffffffffffffffffffff\n      and\n      dup2\n      mstore\n      0x20\n      add\n      swap1\n      dup2\n      mstore\n      0x20\n      add\n      0x00\n      keccak256\n        /* \"contracts/127.sol\":4004:4005  i */\n      dup5\n        /* \"contracts/127.sol\":3979:4006  transactions[msg.sender][i] */\n      dup2\n      sload\n      dup2\n      lt\n      tag_185\n      jumpi\n      tag_186\n      tag_56\n      jump\t// in\n    tag_186:\n    tag_185:\n      swap1\n      0x00\n      mstore\n      keccak256(0x00, 0x20)\n      swap1\n      0x03\n      mul\n      add\n        /* \"contracts/127.sol\":3979:4013  transactions[msg.sender][i].amount */\n      0x01\n      add\n      sload\n        /* \"contracts/127.sol\":3890:4031  Refund(... */\n      mload(0x40)\n      tag_188\n      swap4\n      swap3\n      swap2\n      swap1\n      tag_84\n      jump\t// in\n    tag_188:\n      mload(0x40)\n      dup1\n      swap2\n      sub\n      swap1\n      log1\n        /* \"contracts/127.sol\":3409:4046  if (transactions[msg.sender][i].seller == _seller) {... */\n    tag_162:\n        /* \"contracts/127.sol\":3390:3393  i++ */\n      dup1\n      dup1\n      tag_189\n      swap1\n      tag_86\n      jump\t// in\n    tag_189:\n      swap2\n      pop\n      pop\n        /* \"contracts/127.sol\":3333:4056  for (uint256 i = 0; i < transactions[msg.sender].length; i++) {... */\n      jump(tag_156)\n    tag_157:\n      pop\n        /* \"contracts/127.sol\":1251:1252  _ */\n      pop\n      pop\n        /* \"contracts/127.sol\":3200:4062  function refund(address _seller)... */\n      pop\n      pop\n      jump\t// out\n        /* \"#utility.yul\":88:205   */\n    tag_191:\n        /* \"#utility.yul\":197:198   */\n      0x00\n        /* \"#utility.yul\":194:195   */\n      dup1\n        /* \"#utility.yul\":187:199   */\n      revert\n        /* \"#utility.yul\":334:460   */\n    tag_193:\n        /* \"#utility.yul\":371:378   */\n      0x00\n        /* \"#utility.yul\":411:453   */\n      0xffffffffffffffffffffffffffffffffffffffff\n        /* \"#utility.yul\":404:409   */\n      dup3\n        /* \"#utility.yul\":400:454   */\n      and\n        /* \"#utility.yul\":389:454   */\n      swap1\n      pop\n        /* \"#utility.yul\":334:460   */\n      swap2\n      swap1\n      pop\n      jump\t// out\n        /* \"#utility.yul\":466:562   */\n    tag_194:\n        /* \"#utility.yul\":503:510   */\n      0x00\n        /* \"#utility.yul\":532:556   */\n      tag_226\n        /* \"#utility.yul\":550:555   */\n      dup3\n        /* \"#utility.yul\":532:556   */\n      tag_193\n      jump\t// in\n    tag_226:\n        /* \"#utility.yul\":521:556   */\n      swap1\n      pop\n        /* \"#utility.yul\":466:562   */\n      swap2\n      swap1\n      pop\n      jump\t// out\n        /* \"#utility.yul\":568:690   */\n    tag_195:\n        /* \"#utility.yul\":641:665   */\n      tag_228\n        /* \"#utility.yul\":659:664   */\n      dup2\n        /* \"#utility.yul\":641:665   */\n      tag_194\n      jump\t// in\n    tag_228:\n        /* \"#utility.yul\":634:639   */\n      dup2\n        /* \"#utility.yul\":631:666   */\n      eq\n        /* \"#utility.yul\":621:684   */\n      tag_229\n      jumpi\n        /* \"#utility.yul\":680:681   */\n      0x00\n        /* \"#utility.yul\":677:678   */\n      dup1\n        /* \"#utility.yul\":670:682   */\n      revert\n        /* \"#utility.yul\":621:684   */\n    tag_229:\n        /* \"#utility.yul\":568:690   */\n      pop\n      jump\t// out\n        /* \"#utility.yul\":696:835   */\n    tag_196:\n        /* \"#utility.yul\":742:747   */\n      0x00\n        /* \"#utility.yul\":780:786   */\n      dup2\n        /* \"#utility.yul\":767:787   */\n      calldataload\n        /* \"#utility.yul\":758:787   */\n      swap1\n      pop\n        /* \"#utility.yul\":796:829   */\n      tag_231\n        /* \"#utility.yul\":823:828   */\n      dup2\n        /* \"#utility.yul\":796:829   */\n      tag_195\n      jump\t// in\n    tag_231:\n        /* \"#utility.yul\":696:835   */\n      swap3\n      swap2\n      pop\n      pop\n      jump\t// out\n        /* \"#utility.yul\":841:918   */\n    tag_197:\n        /* \"#utility.yul\":878:885   */\n      0x00\n        /* \"#utility.yul\":907:912   */\n      dup2\n        /* \"#utility.yul\":896:912   */\n      swap1\n      pop\n        /* \"#utility.yul\":841:918   */\n      swap2\n      swap1\n      pop\n      jump\t// out\n        /* \"#utility.yul\":924:1046   */\n    tag_198:\n        /* \"#utility.yul\":997:1021   */\n      tag_234\n        /* \"#utility.yul\":1015:1020   */\n      dup2\n        /* \"#utility.yul\":997:1021   */\n      tag_197\n      jump\t// in\n    tag_234:\n        /* \"#utility.yul\":990:995   */\n      dup2\n        /* \"#utility.yul\":987:1022   */\n      eq\n        /* \"#utility.yul\":977:1040   */\n      tag_235\n      jumpi\n        /* \"#utility.yul\":1036:1037   */\n      0x00\n        /* \"#utility.yul\":1033:1034   */\n      dup1\n        /* \"#utility.yul\":1026:1038   */\n      revert\n        /* \"#utility.yul\":977:1040   */\n    tag_235:\n        /* \"#utility.yul\":924:1046   */\n      pop\n      jump\t// out\n        /* \"#utility.yul\":1052:1191   */\n    tag_199:\n        /* \"#utility.yul\":1098:1103   */\n      0x00\n        /* \"#utility.yul\":1136:1142   */\n      dup2\n        /* \"#utility.yul\":1123:1143   */\n      calldataload\n        /* \"#utility.yul\":1114:1143   */\n      swap1\n      pop\n        /* \"#utility.yul\":1152:1185   */\n      tag_237\n        /* \"#utility.yul\":1179:1184   */\n      dup2\n        /* \"#utility.yul\":1152:1185   */\n      tag_198\n      jump\t// in\n    tag_237:\n        /* \"#utility.yul\":1052:1191   */\n      swap3\n      swap2\n      pop\n      pop\n      jump\t// out\n        /* \"#utility.yul\":1197:1671   */\n    tag_11:\n        /* \"#utility.yul\":1265:1271   */\n      0x00\n        /* \"#utility.yul\":1273:1279   */\n      dup1\n        /* \"#utility.yul\":1322:1324   */\n      0x40\n        /* \"#utility.yul\":1310:1319   */\n      dup4\n        /* \"#utility.yul\":1301:1308   */\n      dup6\n        /* \"#utility.yul\":1297:1320   */\n      sub\n        /* \"#utility.yul\":1293:1325   */\n      slt\n        /* \"#utility.yul\":1290:1409   */\n      iszero\n      tag_239\n      jumpi\n        /* \"#utility.yul\":1328:1407   */\n      tag_240\n      tag_191\n      jump\t// in\n    tag_240:\n        /* \"#utility.yul\":1290:1409   */\n    tag_239:\n        /* \"#utility.yul\":1448:1449   */\n      0x00\n        /* \"#utility.yul\":1473:1526   */\n      tag_241\n        /* \"#utility.yul\":1518:1525   */\n      dup6\n        /* \"#utility.yul\":1509:1515   */\n      dup3\n        /* \"#utility.yul\":1498:1507   */\n      dup7\n        /* \"#utility.yul\":1494:1516   */\n      add\n        /* \"#utility.yul\":1473:1526   */\n      tag_196\n      jump\t// in\n    tag_241:\n        /* \"#utility.yul\":1463:1526   */\n      swap3\n      pop\n        /* \"#utility.yul\":1419:1536   */\n      pop\n        /* \"#utility.yul\":1575:1577   */\n      0x20\n        /* \"#utility.yul\":1601:1654   */\n      tag_242\n        /* \"#utility.yul\":1646:1653   */\n      dup6\n        /* \"#utility.yul\":1637:1643   */\n      dup3\n        /* \"#utility.yul\":1626:1635   */\n      dup7\n        /* \"#utility.yul\":1622:1644   */\n      add\n        /* \"#utility.yul\":1601:1654   */\n      tag_199\n      jump\t// in\n    tag_242:\n        /* \"#utility.yul\":1591:1654   */\n      swap2\n      pop\n        /* \"#utility.yul\":1546:1664   */\n      pop\n        /* \"#utility.yul\":1197:1671   */\n      swap3\n      pop\n      swap3\n      swap1\n      pop\n      jump\t// out\n        /* \"#utility.yul\":1677:1795   */\n    tag_200:\n        /* \"#utility.yul\":1764:1788   */\n      tag_244\n        /* \"#utility.yul\":1782:1787   */\n      dup2\n        /* \"#utility.yul\":1764:1788   */\n      tag_194\n      jump\t// in\n    tag_244:\n        /* \"#utility.yul\":1759:1762   */\n      dup3\n        /* \"#utility.yul\":1752:1789   */\n      mstore\n        /* \"#utility.yul\":1677:1795   */\n      pop\n      pop\n      jump\t// out\n        /* \"#utility.yul\":1801:1919   */\n    tag_201:\n        /* \"#utility.yul\":1888:1912   */\n      tag_246\n        /* \"#utility.yul\":1906:1911   */\n      dup2\n        /* \"#utility.yul\":1888:1912   */\n      tag_197\n      jump\t// in\n    tag_246:\n        /* \"#utility.yul\":1883:1886   */\n      dup3\n        /* \"#utility.yul\":1876:1913   */\n      mstore\n        /* \"#utility.yul\":1801:1919   */\n      pop\n      pop\n      jump\t// out\n        /* \"#utility.yul\":1925:2105   */\n    tag_61:\n        /* \"#utility.yul\":1973:2050   */\n      0x4e487b7100000000000000000000000000000000000000000000000000000000\n        /* \"#utility.yul\":1970:1971   */\n      0x00\n        /* \"#utility.yul\":1963:2051   */\n      mstore\n        /* \"#utility.yul\":2070:2074   */\n      0x21\n        /* \"#utility.yul\":2067:2068   */\n      0x04\n        /* \"#utility.yul\":2060:2075   */\n      mstore\n        /* \"#utility.yul\":2094:2098   */\n      0x24\n        /* \"#utility.yul\":2091:2092   */\n      0x00\n        /* \"#utility.yul\":2084:2099   */\n      revert\n        /* \"#utility.yul\":2111:2227   */\n    tag_202:\n        /* \"#utility.yul\":2195:2196   */\n      0x03\n        /* \"#utility.yul\":2188:2193   */\n      dup2\n        /* \"#utility.yul\":2185:2197   */\n      lt\n        /* \"#utility.yul\":2175:2221   */\n      tag_249\n      jumpi\n        /* \"#utility.yul\":2201:2219   */\n      tag_250\n      tag_61\n      jump\t// in\n    tag_250:\n        /* \"#utility.yul\":2175:2221   */\n    tag_249:\n        /* \"#utility.yul\":2111:2227   */\n      pop\n      jump\t// out\n        /* \"#utility.yul\":2233:2366   */\n    tag_203:\n        /* \"#utility.yul\":2281:2288   */\n      0x00\n        /* \"#utility.yul\":2310:2315   */\n      dup2\n        /* \"#utility.yul\":2299:2315   */\n      swap1\n      pop\n        /* \"#utility.yul\":2316:2360   */\n      tag_252\n        /* \"#utility.yul\":2354:2359   */\n      dup3\n        /* \"#utility.yul\":2316:2360   */\n      tag_202\n      jump\t// in\n    tag_252:\n        /* \"#utility.yul\":2233:2366   */\n      swap2\n      swap1\n      pop\n      jump\t// out\n        /* \"#utility.yul\":2372:2505   */\n    tag_204:\n        /* \"#utility.yul\":2431:2440   */\n      0x00\n        /* \"#utility.yul\":2464:2499   */\n      tag_254\n        /* \"#utility.yul\":2493:2498   */\n      dup3\n        /* \"#utility.yul\":2464:2499   */\n      tag_203\n      jump\t// in\n    tag_254:\n        /* \"#utility.yul\":2451:2499   */\n      swap1\n      pop\n        /* \"#utility.yul\":2372:2505   */\n      swap2\n      swap1\n      pop\n      jump\t// out\n        /* \"#utility.yul\":2511:2660   */\n    tag_205:\n        /* \"#utility.yul\":2607:2653   */\n      tag_256\n        /* \"#utility.yul\":2647:2652   */\n      dup2\n        /* \"#utility.yul\":2607:2653   */\n      tag_204\n      jump\t// in\n    tag_256:\n        /* \"#utility.yul\":2602:2605   */\n      dup3\n        /* \"#utility.yul\":2595:2654   */\n      mstore\n        /* \"#utility.yul\":2511:2660   */\n      pop\n      pop\n      jump\t// out\n        /* \"#utility.yul\":2666:3126   */\n    tag_14:\n        /* \"#utility.yul\":2824:2828   */\n      0x00\n        /* \"#utility.yul\":2862:2864   */\n      0x60\n        /* \"#utility.yul\":2851:2860   */\n      dup3\n        /* \"#utility.yul\":2847:2865   */\n      add\n        /* \"#utility.yul\":2839:2865   */\n      swap1\n      pop\n        /* \"#utility.yul\":2875:2946   */\n      tag_258\n        /* \"#utility.yul\":2943:2944   */\n      0x00\n        /* \"#utility.yul\":2932:2941   */\n      dup4\n        /* \"#utility.yul\":2928:2945   */\n      add\n        /* \"#utility.yul\":2919:2925   */\n      dup7\n        /* \"#utility.yul\":2875:2946   */\n      tag_200\n      jump\t// in\n    tag_258:\n        /* \"#utility.yul\":2956:3028   */\n      tag_259\n        /* \"#utility.yul\":3024:3026   */\n      0x20\n        /* \"#utility.yul\":3013:3022   */\n      dup4\n        /* \"#utility.yul\":3009:3027   */\n      add\n        /* \"#utility.yul\":3000:3006   */\n      dup6\n        /* \"#utility.yul\":2956:3028   */\n      tag_201\n      jump\t// in\n    tag_259:\n        /* \"#utility.yul\":3038:3119   */\n      tag_260\n        /* \"#utility.yul\":3115:3117   */\n      0x40\n        /* \"#utility.yul\":3104:3113   */\n      dup4\n        /* \"#utility.yul\":3100:3118   */\n      add\n        /* \"#utility.yul\":3091:3097   */\n      dup5\n        /* \"#utility.yul\":3038:3119   */\n      tag_205\n      jump\t// in\n    tag_260:\n        /* \"#utility.yul\":2666:3126   */\n      swap5\n      swap4\n      pop\n      pop\n      pop\n      pop\n      jump\t// out\n        /* \"#utility.yul\":3132:3461   */\n    tag_18:\n        /* \"#utility.yul\":3191:3197   */\n      0x00\n        /* \"#utility.yul\":3240:3242   */\n      0x20\n        /* \"#utility.yul\":3228:3237   */\n      dup3\n        /* \"#utility.yul\":3219:3226   */\n      dup5\n        /* \"#utility.yul\":3215:3238   */\n      sub\n        /* \"#utility.yul\":3211:3243   */\n      slt\n        /* \"#utility.yul\":3208:3327   */\n      iszero\n      tag_262\n      jumpi\n        /* \"#utility.yul\":3246:3325   */\n      tag_263\n      tag_191\n      jump\t// in\n    tag_263:\n        /* \"#utility.yul\":3208:3327   */\n    tag_262:\n        /* \"#utility.yul\":3366:3367   */\n      0x00\n        /* \"#utility.yul\":3391:3444   */\n      tag_264\n        /* \"#utility.yul\":3436:3443   */\n      dup5\n        /* \"#utility.yul\":3427:3433   */\n      dup3\n        /* \"#utility.yul\":3416:3425   */\n      dup6\n        /* \"#utility.yul\":3412:3434   */\n      add\n        /* \"#utility.yul\":3391:3444   */\n      tag_196\n      jump\t// in\n    tag_264:\n        /* \"#utility.yul\":3381:3444   */\n      swap2\n      pop\n        /* \"#utility.yul\":3337:3454   */\n      pop\n        /* \"#utility.yul\":3132:3461   */\n      swap3\n      swap2\n      pop\n      pop\n      jump\t// out\n        /* \"#utility.yul\":3467:3689   */\n    tag_24:\n        /* \"#utility.yul\":3560:3564   */\n      0x00\n        /* \"#utility.yul\":3598:3600   */\n      0x20\n        /* \"#utility.yul\":3587:3596   */\n      dup3\n        /* \"#utility.yul\":3583:3601   */\n      add\n        /* \"#utility.yul\":3575:3601   */\n      swap1\n      pop\n        /* \"#utility.yul\":3611:3682   */\n      tag_266\n        /* \"#utility.yul\":3679:3680   */\n      0x00\n        /* \"#utility.yul\":3668:3677   */\n      dup4\n        /* \"#utility.yul\":3664:3681   */\n      add\n        /* \"#utility.yul\":3655:3661   */\n      dup5\n        /* \"#utility.yul\":3611:3682   */\n      tag_200\n      jump\t// in\n    tag_266:\n        /* \"#utility.yul\":3467:3689   */\n      swap3\n      swap2\n      pop\n      pop\n      jump\t// out\n        /* \"#utility.yul\":3695:4169   */\n    tag_28:\n        /* \"#utility.yul\":3763:3769   */\n      0x00\n        /* \"#utility.yul\":3771:3777   */\n      dup1\n        /* \"#utility.yul\":3820:3822   */\n      0x40\n        /* \"#utility.yul\":3808:3817   */\n      dup4\n        /* \"#utility.yul\":3799:3806   */\n      dup6\n        /* \"#utility.yul\":3795:3818   */\n      sub\n        /* \"#utility.yul\":3791:3823   */\n      slt\n        /* \"#utility.yul\":3788:3907   */\n      iszero\n      tag_268\n      jumpi\n        /* \"#utility.yul\":3826:3905   */\n      tag_269\n      tag_191\n      jump\t// in\n    tag_269:\n        /* \"#utility.yul\":3788:3907   */\n    tag_268:\n        /* \"#utility.yul\":3946:3947   */\n      0x00\n        /* \"#utility.yul\":3971:4024   */\n      tag_270\n        /* \"#utility.yul\":4016:4023   */\n      dup6\n        /* \"#utility.yul\":4007:4013   */\n      dup3\n        /* \"#utility.yul\":3996:4005   */\n      dup7\n        /* \"#utility.yul\":3992:4014   */\n      add\n        /* \"#utility.yul\":3971:4024   */\n      tag_196\n      jump\t// in\n    tag_270:\n        /* \"#utility.yul\":3961:4024   */\n      swap3\n      pop\n        /* \"#utility.yul\":3917:4034   */\n      pop\n        /* \"#utility.yul\":4073:4075   */\n      0x20\n        /* \"#utility.yul\":4099:4152   */\n      tag_271\n        /* \"#utility.yul\":4144:4151   */\n      dup6\n        /* \"#utility.yul\":4135:4141   */\n      dup3\n        /* \"#utility.yul\":4124:4133   */\n      dup7\n        /* \"#utility.yul\":4120:4142   */\n      add\n        /* \"#utility.yul\":4099:4152   */\n      tag_196\n      jump\t// in\n    tag_271:\n        /* \"#utility.yul\":4089:4152   */\n      swap2\n      pop\n        /* \"#utility.yul\":4044:4162   */\n      pop\n        /* \"#utility.yul\":3695:4169   */\n      swap3\n      pop\n      swap3\n      swap1\n      pop\n      jump\t// out\n        /* \"#utility.yul\":4175:4344   */\n    tag_206:\n        /* \"#utility.yul\":4259:4270   */\n      0x00\n        /* \"#utility.yul\":4293:4299   */\n      dup3\n        /* \"#utility.yul\":4288:4291   */\n      dup3\n        /* \"#utility.yul\":4281:4300   */\n      mstore\n        /* \"#utility.yul\":4333:4337   */\n      0x20\n        /* \"#utility.yul\":4328:4331   */\n      dup3\n        /* \"#utility.yul\":4324:4338   */\n      add\n        /* \"#utility.yul\":4309:4338   */\n      swap1\n      pop\n        /* \"#utility.yul\":4175:4344   */\n      swap3\n      swap2\n      pop\n      pop\n      jump\t// out\n        /* \"#utility.yul\":4350:4521   */\n    tag_207:\n        /* \"#utility.yul\":4490:4513   */\n      0x596f7520646f6e27742068617665206163636573730000000000000000000000\n        /* \"#utility.yul\":4486:4487   */\n      0x00\n        /* \"#utility.yul\":4478:4484   */\n      dup3\n        /* \"#utility.yul\":4474:4488   */\n      add\n        /* \"#utility.yul\":4467:4514   */\n      mstore\n        /* \"#utility.yul\":4350:4521   */\n      pop\n      jump\t// out\n        /* \"#utility.yul\":4527:4893   */\n    tag_208:\n        /* \"#utility.yul\":4669:4672   */\n      0x00\n        /* \"#utility.yul\":4690:4757   */\n      tag_275\n        /* \"#utility.yul\":4754:4756   */\n      0x15\n        /* \"#utility.yul\":4749:4752   */\n      dup4\n        /* \"#utility.yul\":4690:4757   */\n      tag_206\n      jump\t// in\n    tag_275:\n        /* \"#utility.yul\":4683:4757   */\n      swap2\n      pop\n        /* \"#utility.yul\":4766:4859   */\n      tag_276\n        /* \"#utility.yul\":4855:4858   */\n      dup3\n        /* \"#utility.yul\":4766:4859   */\n      tag_207\n      jump\t// in\n    tag_276:\n        /* \"#utility.yul\":4884:4886   */\n      0x20\n        /* \"#utility.yul\":4879:4882   */\n      dup3\n        /* \"#utility.yul\":4875:4887   */\n      add\n        /* \"#utility.yul\":4868:4887   */\n      swap1\n      pop\n        /* \"#utility.yul\":4527:4893   */\n      swap2\n      swap1\n      pop\n      jump\t// out\n        /* \"#utility.yul\":4899:5318   */\n    tag_42:\n        /* \"#utility.yul\":5065:5069   */\n      0x00\n        /* \"#utility.yul\":5103:5105   */\n      0x20\n        /* \"#utility.yul\":5092:5101   */\n      dup3\n        /* \"#utility.yul\":5088:5106   */\n      add\n        /* \"#utility.yul\":5080:5106   */\n      swap1\n      pop\n        /* \"#utility.yul\":5152:5161   */\n      dup2\n        /* \"#utility.yul\":5146:5150   */\n      dup2\n        /* \"#utility.yul\":5142:5162   */\n      sub\n        /* \"#utility.yul\":5138:5139   */\n      0x00\n        /* \"#utility.yul\":5127:5136   */\n      dup4\n        /* \"#utility.yul\":5123:5140   */\n      add\n        /* \"#utility.yul\":5116:5163   */\n      mstore\n        /* \"#utility.yul\":5180:5311   */\n      tag_278\n        /* \"#utility.yul\":5306:5310   */\n      dup2\n        /* \"#utility.yul\":5180:5311   */\n      tag_208\n      jump\t// in\n    tag_278:\n        /* \"#utility.yul\":5172:5311   */\n      swap1\n      pop\n        /* \"#utility.yul\":4899:5318   */\n      swap2\n      swap1\n      pop\n      jump\t// out\n        /* \"#utility.yul\":5324:5499   */\n    tag_209:\n        /* \"#utility.yul\":5464:5491   */\n      0x4d65646961746f722063616e6e6f742062652073656c6c657200000000000000\n        /* \"#utility.yul\":5460:5461   */\n      0x00\n        /* \"#utility.yul\":5452:5458   */\n      dup3\n        /* \"#utility.yul\":5448:5462   */\n      add\n        /* \"#utility.yul\":5441:5492   */\n      mstore\n        /* \"#utility.yul\":5324:5499   */\n      pop\n      jump\t// out\n        /* \"#utility.yul\":5505:5871   */\n    tag_210:\n        /* \"#utility.yul\":5647:5650   */\n      0x00\n        /* \"#utility.yul\":5668:5735   */\n      tag_281\n        /* \"#utility.yul\":5732:5734   */\n      0x19\n        /* \"#utility.yul\":5727:5730   */\n      dup4\n        /* \"#utility.yul\":5668:5735   */\n      tag_206\n      jump\t// in\n    tag_281:\n        /* \"#utility.yul\":5661:5735   */\n      swap2\n      pop\n        /* \"#utility.yul\":5744:5837   */\n      tag_282\n        /* \"#utility.yul\":5833:5836   */\n      dup3\n        /* \"#utility.yul\":5744:5837   */\n      tag_209\n      jump\t// in\n    tag_282:\n        /* \"#utility.yul\":5862:5864   */\n      0x20\n        /* \"#utility.yul\":5857:5860   */\n      dup3\n        /* \"#utility.yul\":5853:5865   */\n      add\n        /* \"#utility.yul\":5846:5865   */\n      swap1\n      pop\n        /* \"#utility.yul\":5505:5871   */\n      swap2\n      swap1\n      pop\n      jump\t// out\n        /* \"#utility.yul\":5877:6296   */\n    tag_46:\n        /* \"#utility.yul\":6043:6047   */\n      0x00\n        /* \"#utility.yul\":6081:6083   */\n      0x20\n        /* \"#utility.yul\":6070:6079   */\n      dup3\n        /* \"#utility.yul\":6066:6084   */\n      add\n        /* \"#utility.yul\":6058:6084   */\n      swap1\n      pop\n        /* \"#utility.yul\":6130:6139   */\n      dup2\n        /* \"#utility.yul\":6124:6128   */\n      dup2\n        /* \"#utility.yul\":6120:6140   */\n      sub\n        /* \"#utility.yul\":6116:6117   */\n      0x00\n        /* \"#utility.yul\":6105:6114   */\n      dup4\n        /* \"#utility.yul\":6101:6118   */\n      add\n        /* \"#utility.yul\":6094:6141   */\n      mstore\n        /* \"#utility.yul\":6158:6289   */\n      tag_284\n        /* \"#utility.yul\":6284:6288   */\n      dup2\n        /* \"#utility.yul\":6158:6289   */\n      tag_210\n      jump\t// in\n    tag_284:\n        /* \"#utility.yul\":6150:6289   */\n      swap1\n      pop\n        /* \"#utility.yul\":5877:6296   */\n      swap2\n      swap1\n      pop\n      jump\t// out\n        /* \"#utility.yul\":6302:6476   */\n    tag_211:\n        /* \"#utility.yul\":6442:6468   */\n      0x4d65646961746f722063616e6e6f742062652062757965720000000000000000\n        /* \"#utility.yul\":6438:6439   */\n      0x00\n        /* \"#utility.yul\":6430:6436   */\n      dup3\n        /* \"#utility.yul\":6426:6440   */\n      add\n        /* \"#utility.yul\":6419:6469   */\n      mstore\n        /* \"#utility.yul\":6302:6476   */\n      pop\n      jump\t// out\n        /* \"#utility.yul\":6482:6848   */\n    tag_212:\n        /* \"#utility.yul\":6624:6627   */\n      0x00\n        /* \"#utility.yul\":6645:6712   */\n      tag_287\n        /* \"#utility.yul\":6709:6711   */\n      0x18\n        /* \"#utility.yul\":6704:6707   */\n      dup4\n        /* \"#utility.yul\":6645:6712   */\n      tag_206\n      jump\t// in\n    tag_287:\n        /* \"#utility.yul\":6638:6712   */\n      swap2\n      pop\n        /* \"#utility.yul\":6721:6814   */\n      tag_288\n        /* \"#utility.yul\":6810:6813   */\n      dup3\n        /* \"#utility.yul\":6721:6814   */\n      tag_211\n      jump\t// in\n    tag_288:\n        /* \"#utility.yul\":6839:6841   */\n      0x20\n        /* \"#utility.yul\":6834:6837   */\n      dup3\n        /* \"#utility.yul\":6830:6842   */\n      add\n        /* \"#utility.yul\":6823:6842   */\n      swap1\n      pop\n        /* \"#utility.yul\":6482:6848   */\n      swap2\n      swap1\n      pop\n      jump\t// out\n        /* \"#utility.yul\":6854:7273   */\n    tag_49:\n        /* \"#utility.yul\":7020:7024   */\n      0x00\n        /* \"#utility.yul\":7058:7060   */\n      0x20\n        /* \"#utility.yul\":7047:7056   */\n      dup3\n        /* \"#utility.yul\":7043:7061   */\n      add\n        /* \"#utility.yul\":7035:7061   */\n      swap1\n      pop\n        /* \"#utility.yul\":7107:7116   */\n      dup2\n        /* \"#utility.yul\":7101:7105   */\n      dup2\n        /* \"#utility.yul\":7097:7117   */\n      sub\n        /* \"#utility.yul\":7093:7094   */\n      0x00\n        /* \"#utility.yul\":7082:7091   */\n      dup4\n        /* \"#utility.yul\":7078:7095   */\n      add\n        /* \"#utility.yul\":7071:7118   */\n      mstore\n        /* \"#utility.yul\":7135:7266   */\n      tag_290\n        /* \"#utility.yul\":7261:7265   */\n      dup2\n        /* \"#utility.yul\":7135:7266   */\n      tag_212\n      jump\t// in\n    tag_290:\n        /* \"#utility.yul\":7127:7266   */\n      swap1\n      pop\n        /* \"#utility.yul\":6854:7273   */\n      swap2\n      swap1\n      pop\n      jump\t// out\n        /* \"#utility.yul\":7279:7459   */\n    tag_56:\n        /* \"#utility.yul\":7327:7404   */\n      0x4e487b7100000000000000000000000000000000000000000000000000000000\n        /* \"#utility.yul\":7324:7325   */\n      0x00\n        /* \"#utility.yul\":7317:7405   */\n      mstore\n        /* \"#utility.yul\":7424:7428   */\n      0x32\n        /* \"#utility.yul\":7421:7422   */\n      0x04\n        /* \"#utility.yul\":7414:7429   */\n      mstore\n        /* \"#utility.yul\":7448:7452   */\n      0x24\n        /* \"#utility.yul\":7445:7446   */\n      0x00\n        /* \"#utility.yul\":7438:7453   */\n      revert\n        /* \"#utility.yul\":7465:7630   */\n    tag_213:\n        /* \"#utility.yul\":7605:7622   */\n      0x496e76616c696420726571756573740000000000000000000000000000000000\n        /* \"#utility.yul\":7601:7602   */\n      0x00\n        /* \"#utility.yul\":7593:7599   */\n      dup3\n        /* \"#utility.yul\":7589:7603   */\n      add\n        /* \"#utility.yul\":7582:7623   */\n      mstore\n        /* \"#utility.yul\":7465:7630   */\n      pop\n      jump\t// out\n        /* \"#utility.yul\":7636:8002   */\n    tag_214:\n        /* \"#utility.yul\":7778:7781   */\n      0x00\n        /* \"#utility.yul\":7799:7866   */\n      tag_294\n        /* \"#utility.yul\":7863:7865   */\n      0x0f\n        /* \"#utility.yul\":7858:7861   */\n      dup4\n        /* \"#utility.yul\":7799:7866   */\n      tag_206\n      jump\t// in\n    tag_294:\n        /* \"#utility.yul\":7792:7866   */\n      swap2\n      pop\n        /* \"#utility.yul\":7875:7968   */\n      tag_295\n        /* \"#utility.yul\":7964:7967   */\n      dup3\n        /* \"#utility.yul\":7875:7968   */\n      tag_213\n      jump\t// in\n    tag_295:\n        /* \"#utility.yul\":7993:7995   */\n      0x20\n        /* \"#utility.yul\":7988:7991   */\n      dup3\n        /* \"#utility.yul\":7984:7996   */\n      add\n        /* \"#utility.yul\":7977:7996   */\n      swap1\n      pop\n        /* \"#utility.yul\":7636:8002   */\n      swap2\n      swap1\n      pop\n      jump\t// out\n        /* \"#utility.yul\":8008:8427   */\n    tag_69:\n        /* \"#utility.yul\":8174:8178   */\n      0x00\n        /* \"#utility.yul\":8212:8214   */\n      0x20\n        /* \"#utility.yul\":8201:8210   */\n      dup3\n        /* \"#utility.yul\":8197:8215   */\n      add\n        /* \"#utility.yul\":8189:8215   */\n      swap1\n      pop\n        /* \"#utility.yul\":8261:8270   */\n      dup2\n        /* \"#utility.yul\":8255:8259   */\n      dup2\n        /* \"#utility.yul\":8251:8271   */\n      sub\n        /* \"#utility.yul\":8247:8248   */\n      0x00\n        /* \"#utility.yul\":8236:8245   */\n      dup4\n        /* \"#utility.yul\":8232:8249   */\n      add\n        /* \"#utility.yul\":8225:8272   */\n      mstore\n        /* \"#utility.yul\":8289:8420   */\n      tag_297\n        /* \"#utility.yul\":8415:8419   */\n      dup2\n        /* \"#utility.yul\":8289:8420   */\n      tag_214\n      jump\t// in\n    tag_297:\n        /* \"#utility.yul\":8281:8420   */\n      swap1\n      pop\n        /* \"#utility.yul\":8008:8427   */\n      swap2\n      swap1\n      pop\n      jump\t// out\n        /* \"#utility.yul\":8433:8875   */\n    tag_84:\n        /* \"#utility.yul\":8582:8586   */\n      0x00\n        /* \"#utility.yul\":8620:8622   */\n      0x60\n        /* \"#utility.yul\":8609:8618   */\n      dup3\n        /* \"#utility.yul\":8605:8623   */\n      add\n        /* \"#utility.yul\":8597:8623   */\n      swap1\n      pop\n        /* \"#utility.yul\":8633:8704   */\n      tag_299\n        /* \"#utility.yul\":8701:8702   */\n      0x00\n        /* \"#utility.yul\":8690:8699   */\n      dup4\n        /* \"#utility.yul\":8686:8703   */\n      add\n        /* \"#utility.yul\":8677:8683   */\n      dup7\n        /* \"#utility.yul\":8633:8704   */\n      tag_200\n      jump\t// in\n    tag_299:\n        /* \"#utility.yul\":8714:8786   */\n      tag_300\n        /* \"#utility.yul\":8782:8784   */\n      0x20\n        /* \"#utility.yul\":8771:8780   */\n      dup4\n        /* \"#utility.yul\":8767:8785   */\n      add\n        /* \"#utility.yul\":8758:8764   */\n      dup6\n        /* \"#utility.yul\":8714:8786   */\n      tag_200\n      jump\t// in\n    tag_300:\n        /* \"#utility.yul\":8796:8868   */\n      tag_301\n        /* \"#utility.yul\":8864:8866   */\n      0x40\n        /* \"#utility.yul\":8853:8862   */\n      dup4\n        /* \"#utility.yul\":8849:8867   */\n      add\n        /* \"#utility.yul\":8840:8846   */\n      dup5\n        /* \"#utility.yul\":8796:8868   */\n      tag_201\n      jump\t// in\n    tag_301:\n        /* \"#utility.yul\":8433:8875   */\n      swap5\n      swap4\n      pop\n      pop\n      pop\n      pop\n      jump\t// out\n        /* \"#utility.yul\":8881:9061   */\n    tag_215:\n        /* \"#utility.yul\":8929:9006   */\n      0x4e487b7100000000000000000000000000000000000000000000000000000000\n        /* \"#utility.yul\":8926:8927   */\n      0x00\n        /* \"#utility.yul\":8919:9007   */\n      mstore\n        /* \"#utility.yul\":9026:9030   */\n      0x11\n        /* \"#utility.yul\":9023:9024   */\n      0x04\n        /* \"#utility.yul\":9016:9031   */\n      mstore\n        /* \"#utility.yul\":9050:9054   */\n      0x24\n        /* \"#utility.yul\":9047:9048   */\n      0x00\n        /* \"#utility.yul\":9040:9055   */\n      revert\n        /* \"#utility.yul\":9067:9300   */\n    tag_86:\n        /* \"#utility.yul\":9106:9109   */\n      0x00\n        /* \"#utility.yul\":9129:9153   */\n      tag_304\n        /* \"#utility.yul\":9147:9152   */\n      dup3\n        /* \"#utility.yul\":9129:9153   */\n      tag_197\n      jump\t// in\n    tag_304:\n        /* \"#utility.yul\":9120:9153   */\n      swap2\n      pop\n        /* \"#utility.yul\":9175:9241   */\n      0xffffffffffffffffffffffffffffffffffffffffffffffffffffffffffffffff\n        /* \"#utility.yul\":9168:9173   */\n      dup3\n        /* \"#utility.yul\":9165:9242   */\n      sub\n        /* \"#utility.yul\":9162:9265   */\n      tag_305\n      jumpi\n        /* \"#utility.yul\":9245:9263   */\n      tag_306\n      tag_215\n      jump\t// in\n    tag_306:\n        /* \"#utility.yul\":9162:9265   */\n    tag_305:\n        /* \"#utility.yul\":9292:9293   */\n      0x01\n        /* \"#utility.yul\":9285:9290   */\n      dup3\n        /* \"#utility.yul\":9281:9294   */\n      add\n        /* \"#utility.yul\":9274:9294   */\n      swap1\n      pop\n        /* \"#utility.yul\":9067:9300   */\n      swap2\n      swap1\n      pop\n      jump\t// out\n        /* \"#utility.yul\":9306:9477   */\n    tag_216:\n        /* \"#utility.yul\":9446:9469   */\n      0x596f7520646f6e74206861766520616363657373210000000000000000000000\n        /* \"#utility.yul\":9442:9443   */\n      0x00\n        /* \"#utility.yul\":9434:9440   */\n      dup3\n        /* \"#utility.yul\":9430:9444   */\n      add\n        /* \"#utility.yul\":9423:9470   */\n      mstore\n        /* \"#utility.yul\":9306:9477   */\n      pop\n      jump\t// out\n        /* \"#utility.yul\":9483:9849   */\n    tag_217:\n        /* \"#utility.yul\":9625:9628   */\n      0x00\n        /* \"#utility.yul\":9646:9713   */\n      tag_309\n        /* \"#utility.yul\":9710:9712   */\n      0x15\n        /* \"#utility.yul\":9705:9708   */\n      dup4\n        /* \"#utility.yul\":9646:9713   */\n      tag_206\n      jump\t// in\n    tag_309:\n        /* \"#utility.yul\":9639:9713   */\n      swap2\n      pop\n        /* \"#utility.yul\":9722:9815   */\n      tag_310\n        /* \"#utility.yul\":9811:9814   */\n      dup3\n        /* \"#utility.yul\":9722:9815   */\n      tag_216\n      jump\t// in\n    tag_310:\n        /* \"#utility.yul\":9840:9842   */\n      0x20\n        /* \"#utility.yul\":9835:9838   */\n      dup3\n        /* \"#utility.yul\":9831:9843   */\n      add\n        /* \"#utility.yul\":9824:9843   */\n      swap1\n      pop\n        /* \"#utility.yul\":9483:9849   */\n      swap2\n      swap1\n      pop\n      jump\t// out\n        /* \"#utility.yul\":9855:10274   */\n    tag_90:\n        /* \"#utility.yul\":10021:10025   */\n      0x00\n        /* \"#utility.yul\":10059:10061   */\n      0x20\n        /* \"#utility.yul\":10048:10057   */\n      dup3\n        /* \"#utility.yul\":10044:10062   */\n      add\n        /* \"#utility.yul\":10036:10062   */\n      swap1\n      pop\n        /* \"#utility.yul\":10108:10117   */\n      dup2\n        /* \"#utility.yul\":10102:10106   */\n      dup2\n        /* \"#utility.yul\":10098:10118   */\n      sub\n        /* \"#utility.yul\":10094:10095   */\n      0x00\n        /* \"#utility.yul\":10083:10092   */\n      dup4\n        /* \"#utility.yul\":10079:10096   */\n      add\n        /* \"#utility.yul\":10072:10119   */\n      mstore\n        /* \"#utility.yul\":10136:10267   */\n      tag_312\n        /* \"#utility.yul\":10262:10266   */\n      dup2\n        /* \"#utility.yul\":10136:10267   */\n      tag_217\n      jump\t// in\n    tag_312:\n        /* \"#utility.yul\":10128:10267   */\n      swap1\n      pop\n        /* \"#utility.yul\":9855:10274   */\n      swap2\n      swap1\n      pop\n      jump\t// out\n        /* \"#utility.yul\":10280:10612   */\n    tag_106:\n        /* \"#utility.yul\":10401:10405   */\n      0x00\n        /* \"#utility.yul\":10439:10441   */\n      0x40\n        /* \"#utility.yul\":10428:10437   */\n      dup3\n        /* \"#utility.yul\":10424:10442   */\n      add\n        /* \"#utility.yul\":10416:10442   */\n      swap1\n      pop\n        /* \"#utility.yul\":10452:10523   */\n      tag_314\n        /* \"#utility.yul\":10520:10521   */\n      0x00\n        /* \"#utility.yul\":10509:10518   */\n      dup4\n        /* \"#utility.yul\":10505:10522   */\n      add\n        /* \"#utility.yul\":10496:10502   */\n      dup6\n        /* \"#utility.yul\":10452:10523   */\n      tag_200\n      jump\t// in\n    tag_314:\n        /* \"#utility.yul\":10533:10605   */\n      tag_315\n        /* \"#utility.yul\":10601:10603   */\n      0x20\n        /* \"#utility.yul\":10590:10599   */\n      dup4\n        /* \"#utility.yul\":10586:10604   */\n      add\n        /* \"#utility.yul\":10577:10583   */\n      dup5\n        /* \"#utility.yul\":10533:10605   */\n      tag_200\n      jump\t// in\n    tag_315:\n        /* \"#utility.yul\":10280:10612   */\n      swap4\n      swap3\n      pop\n      pop\n      pop\n      jump\t// out\n        /* \"#utility.yul\":10618:10782   */\n    tag_218:\n        /* \"#utility.yul\":10758:10774   */\n      0x496e76616c696420616d6f756e74000000000000000000000000000000000000\n        /* \"#utility.yul\":10754:10755   */\n      0x00\n        /* \"#utility.yul\":10746:10752   */\n      dup3\n        /* \"#utility.yul\":10742:10756   */\n      add\n        /* \"#utility.yul\":10735:10775   */\n      mstore\n        /* \"#utility.yul\":10618:10782   */\n      pop\n      jump\t// out\n        /* \"#utility.yul\":10788:11154   */\n    tag_219:\n        /* \"#utility.yul\":10930:10933   */\n      0x00\n        /* \"#utility.yul\":10951:11018   */\n      tag_318\n        /* \"#utility.yul\":11015:11017   */\n      0x0e\n        /* \"#utility.yul\":11010:11013   */\n      dup4\n        /* \"#utility.yul\":10951:11018   */\n      tag_206\n      jump\t// in\n    tag_318:\n        /* \"#utility.yul\":10944:11018   */\n      swap2\n      pop\n        /* \"#utility.yul\":11027:11120   */\n      tag_319\n        /* \"#utility.yul\":11116:11119   */\n      dup3\n        /* \"#utility.yul\":11027:11120   */\n      tag_218\n      jump\t// in\n    tag_319:\n        /* \"#utility.yul\":11145:11147   */\n      0x20\n        /* \"#utility.yul\":11140:11143   */\n      dup3\n        /* \"#utility.yul\":11136:11148   */\n      add\n        /* \"#utility.yul\":11129:11148   */\n      swap1\n      pop\n        /* \"#utility.yul\":10788:11154   */\n      swap2\n      swap1\n      pop\n      jump\t// out\n        /* \"#utility.yul\":11160:11579   */\n    tag_118:\n        /* \"#utility.yul\":11326:11330   */\n      0x00\n        /* \"#utility.yul\":11364:11366   */\n      0x20\n        /* \"#utility.yul\":11353:11362   */\n      dup3\n        /* \"#utility.yul\":11349:11367   */\n      add\n        /* \"#utility.yul\":11341:11367   */\n      swap1\n      pop\n        /* \"#utility.yul\":11413:11422   */\n      dup2\n        /* \"#utility.yul\":11407:11411   */\n      dup2\n        /* \"#utility.yul\":11403:11423   */\n      sub\n        /* \"#utility.yul\":11399:11400   */\n      0x00\n        /* \"#utility.yul\":11388:11397   */\n      dup4\n        /* \"#utility.yul\":11384:11401   */\n      add\n        /* \"#utility.yul\":11377:11424   */\n      mstore\n        /* \"#utility.yul\":11441:11572   */\n      tag_321\n        /* \"#utility.yul\":11567:11571   */\n      dup2\n        /* \"#utility.yul\":11441:11572   */\n      tag_219\n      jump\t// in\n    tag_321:\n        /* \"#utility.yul\":11433:11572   */\n      swap1\n      pop\n        /* \"#utility.yul\":11160:11579   */\n      swap2\n      swap1\n      pop\n      jump\t// out\n        /* \"#utility.yul\":11585:11776   */\n    tag_130:\n        /* \"#utility.yul\":11625:11628   */\n      0x00\n        /* \"#utility.yul\":11644:11664   */\n      tag_323\n        /* \"#utility.yul\":11662:11663   */\n      dup3\n        /* \"#utility.yul\":11644:11664   */\n      tag_197\n      jump\t// in\n    tag_323:\n        /* \"#utility.yul\":11639:11664   */\n      swap2\n      pop\n        /* \"#utility.yul\":11678:11698   */\n      tag_324\n        /* \"#utility.yul\":11696:11697   */\n      dup4\n        /* \"#utility.yul\":11678:11698   */\n      tag_197\n      jump\t// in\n    tag_324:\n        /* \"#utility.yul\":11673:11698   */\n      swap3\n      pop\n        /* \"#utility.yul\":11721:11722   */\n      dup3\n        /* \"#utility.yul\":11718:11719   */\n      dup3\n        /* \"#utility.yul\":11714:11723   */\n      add\n        /* \"#utility.yul\":11707:11723   */\n      swap1\n      pop\n        /* \"#utility.yul\":11742:11745   */\n      dup1\n        /* \"#utility.yul\":11739:11740   */\n      dup3\n        /* \"#utility.yul\":11736:11746   */\n      gt\n        /* \"#utility.yul\":11733:11769   */\n      iszero\n      tag_325\n      jumpi\n        /* \"#utility.yul\":11749:11767   */\n      tag_326\n      tag_215\n      jump\t// in\n    tag_326:\n        /* \"#utility.yul\":11733:11769   */\n    tag_325:\n        /* \"#utility.yul\":11585:11776   */\n      swap3\n      swap2\n      pop\n      pop\n      jump\t// out\n\n    auxdata: 0xa264697066735822122098020a9b39a79462ae30e94061f37c08f743572efcb2dab2b03d2a742f019f9c64736f6c63430008120033\n}\n",
				"bytecode": {
					"linkReferences": {},
					"object": "608060405234801561001057600080fd5b50336000806101000a81548173ffffffffffffffffffffffffffffffffffffffff021916908373ffffffffffffffffffffffffffffffffffffffff160217905550611b61806100606000396000f3fe6080604052600436106100555760003560e01c8063145381281461005a57806319165587146100995780636d0501f6146100c2578063b900a94a146100ed578063f435f5a714610116578063fa89401a14610132575b600080fd5b34801561006657600080fd5b50610081600480360381019061007c91906115c4565b61015b565b60405161009093929190611699565b60405180910390f35b3480156100a557600080fd5b506100c060048036038101906100bb91906116d0565b6101cf565b005b3480156100ce57600080fd5b506100d7610720565b6040516100e491906116fd565b60405180910390f35b3480156100f957600080fd5b50610114600480360381019061010f9190611718565b610744565b005b610130600480360381019061012b91906116d0565b6109b0565b005b34801561013e57600080fd5b50610159600480360381019061015491906116d0565b610f72565b005b6001602052816000526040600020818154811061017757600080fd5b9060005260206000209060030201600091509150508060000160009054906101000a900473ffffffffffffffffffffffffffffffffffffffff16908060010154908060020160009054906101000a900460ff16905083565b808073ffffffffffffffffffffffffffffffffffffffff163373ffffffffffffffffffffffffffffffffffffffff160361023e576040517f08c379a0000000000000000000000000000000000000000000000000000000008152600401610235906117b5565b60405180910390fd5b33828173ffffffffffffffffffffffffffffffffffffffff1660008054906101000a900473ffffffffffffffffffffffffffffffffffffffff1673ffffffffffffffffffffffffffffffffffffffff16036102ce576040517f08c379a00000000000000000000000000000000000000000000000000000000081526004016102c590611821565b60405180910390fd5b8073ffffffffffffffffffffffffffffffffffffffff1660008054906101000a900473ffffffffffffffffffffffffffffffffffffffff1673ffffffffffffffffffffffffffffffffffffffff160361035c576040517f08c379a00000000000000000000000000000000000000000000000000000000081526004016103539061188d565b60405180910390fd5b60005b600160008673ffffffffffffffffffffffffffffffffffffffff1673ffffffffffffffffffffffffffffffffffffffff16815260200190815260200160002080549050811015610719573373ffffffffffffffffffffffffffffffffffffffff16600160008773ffffffffffffffffffffffffffffffffffffffff1673ffffffffffffffffffffffffffffffffffffffff1681526020019081526020016000208281548110610411576104106118ad565b5b906000526020600020906003020160000160009054906101000a900473ffffffffffffffffffffffffffffffffffffffff1673ffffffffffffffffffffffffffffffffffffffff1603610706576001600281111561047257610471611622565b5b600160008773ffffffffffffffffffffffffffffffffffffffff1673ffffffffffffffffffffffffffffffffffffffff16815260200190815260200160002082815481106104c3576104c26118ad565b5b906000526020600020906003020160020160009054906101000a900460ff1660028111156104f4576104f3611622565b5b14610534576040517f08c379a000000000000000000000000000000000000000000000000000000000815260040161052b90611928565b60405180910390fd5b6002600160008773ffffffffffffffffffffffffffffffffffffffff1673ffffffffffffffffffffffffffffffffffffffff1681526020019081526020016000208281548110610587576105866118ad565b5b906000526020600020906003020160020160006101000a81548160ff021916908360028111156105ba576105b9611622565b5b02179055503373ffffffffffffffffffffffffffffffffffffffff166108fc600160008873ffffffffffffffffffffffffffffffffffffffff1673ffffffffffffffffffffffffffffffffffffffff168152602001908152602001600020838154811061062a576106296118ad565b5b9060005260206000209060030201600101549081150290604051600060405180830381858888f19350505050158015610667573d6000803e3d6000fd5b507fcb54aad3bd772fcfe1bc124e01bd1a91a91c9d80126d8b3014c4d9e687d5ca488533600160008973ffffffffffffffffffffffffffffffffffffffff1673ffffffffffffffffffffffffffffffffffffffff16815260200190815260200160002084815481106106dc576106db6118ad565b5b9060005260206000209060030201600101546040516106fd93929190611948565b60405180910390a15b8080610711906119ae565b91505061035f565b5050505050565b60008054906101000a900473ffffffffffffffffffffffffffffffffffffffff1681565b3373ffffffffffffffffffffffffffffffffffffffff1660008054906101000a900473ffffffffffffffffffffffffffffffffffffffff1673ffffffffffffffffffffffffffffffffffffffff16146107d2576040517f08c379a00000000000000000000000000000000000000000000000000000000081526004016107c990611a42565b60405180910390fd5b60005b600160008473ffffffffffffffffffffffffffffffffffffffff1673ffffffffffffffffffffffffffffffffffffffff16815260200190815260200160002080549050811015610972578173ffffffffffffffffffffffffffffffffffffffff16600160008573ffffffffffffffffffffffffffffffffffffffff1673ffffffffffffffffffffffffffffffffffffffff1681526020019081526020016000208281548110610887576108866118ad565b5b906000526020600020906003020160000160009054906101000a900473ffffffffffffffffffffffffffffffffffffffff1673ffffffffffffffffffffffffffffffffffffffff160361095f5760018060008573ffffffffffffffffffffffffffffffffffffffff1673ffffffffffffffffffffffffffffffffffffffff1681526020019081526020016000208281548110610926576109256118ad565b5b906000526020600020906003020160020160006101000a81548160ff0219169083600281111561095957610958611622565b5b02179055505b808061096a906119ae565b9150506107d5565b507f81a8b94df9b82f8e72580f655e1d906d12f243f0b2fa5692329edd2108d5970982826040516109a4929190611a62565b60405180910390a15050565b808073ffffffffffffffffffffffffffffffffffffffff163373ffffffffffffffffffffffffffffffffffffffff1603610a1f576040517f08c379a0000000000000000000000000000000000000000000000000000000008152600401610a16906117b5565b60405180910390fd5b81338173ffffffffffffffffffffffffffffffffffffffff1660008054906101000a900473ffffffffffffffffffffffffffffffffffffffff1673ffffffffffffffffffffffffffffffffffffffff1603610aaf576040517f08c379a0000000000000000000000000000000000000000000000000000000008152600401610aa690611821565b60405180910390fd5b8073ffffffffffffffffffffffffffffffffffffffff1660008054906101000a900473ffffffffffffffffffffffffffffffffffffffff1673ffffffffffffffffffffffffffffffffffffffff1603610b3d576040517f08c379a0000000000000000000000000000000000000000000000000000000008152600401610b349061188d565b60405180910390fd5b60003411610b80576040517f08c379a0000000000000000000000000000000000000000000000000000000008152600401610b7790611ad7565b60405180910390fd5b6000805b600160003373ffffffffffffffffffffffffffffffffffffffff1673ffffffffffffffffffffffffffffffffffffffff16815260200190815260200160002080549050811015610dfa578573ffffffffffffffffffffffffffffffffffffffff16600160003373ffffffffffffffffffffffffffffffffffffffff1673ffffffffffffffffffffffffffffffffffffffff1681526020019081526020016000208281548110610c3657610c356118ad565b5b906000526020600020906003020160000160009054906101000a900473ffffffffffffffffffffffffffffffffffffffff1673ffffffffffffffffffffffffffffffffffffffff1603610de75734600160003373ffffffffffffffffffffffffffffffffffffffff1673ffffffffffffffffffffffffffffffffffffffff1681526020019081526020016000208281548110610cd557610cd46118ad565b5b906000526020600020906003020160010154610cf19190611af7565b600160003373ffffffffffffffffffffffffffffffffffffffff1673ffffffffffffffffffffffffffffffffffffffff1681526020019081526020016000208281548110610d4257610d416118ad565b5b9060005260206000209060030201600101819055506000600160003373ffffffffffffffffffffffffffffffffffffffff1673ffffffffffffffffffffffffffffffffffffffff1681526020019081526020016000208281548110610daa57610da96118ad565b5b906000526020600020906003020160020160006101000a81548160ff02191690836002811115610ddd57610ddc611622565b5b0217905550600191505b8080610df2906119ae565b915050610b84565b5080610f3057600160003373ffffffffffffffffffffffffffffffffffffffff1673ffffffffffffffffffffffffffffffffffffffff16815260200190815260200160002060405180606001604052808773ffffffffffffffffffffffffffffffffffffffff16815260200134815260200160006002811115610e8057610e7f611622565b5b815250908060018154018082558091505060019003906000526020600020906003020160009091909190915060008201518160000160006101000a81548173ffffffffffffffffffffffffffffffffffffffff021916908373ffffffffffffffffffffffffffffffffffffffff1602179055506020820151816001015560408201518160020160006101000a81548160ff02191690836002811115610f2857610f27611622565b5b021790555050505b7fec36c0364d931187a76cf66d7eee08fad0ec2e8b7458a8d8b26b36769d4d13f3338634604051610f6393929190611948565b60405180910390a15050505050565b808073ffffffffffffffffffffffffffffffffffffffff163373ffffffffffffffffffffffffffffffffffffffff1603610fe1576040517f08c379a0000000000000000000000000000000000000000000000000000000008152600401610fd8906117b5565b60405180910390fd5b81338173ffffffffffffffffffffffffffffffffffffffff1660008054906101000a900473ffffffffffffffffffffffffffffffffffffffff1673ffffffffffffffffffffffffffffffffffffffff1603611071576040517f08c379a000000000000000000000000000000000000000000000000000000000815260040161106890611821565b60405180910390fd5b8073ffffffffffffffffffffffffffffffffffffffff1660008054906101000a900473ffffffffffffffffffffffffffffffffffffffff1673ffffffffffffffffffffffffffffffffffffffff16036110ff576040517f08c379a00000000000000000000000000000000000000000000000000000000081526004016110f69061188d565b60405180910390fd5b60005b600160003373ffffffffffffffffffffffffffffffffffffffff1673ffffffffffffffffffffffffffffffffffffffff16815260200190815260200160002080549050811015611524578473ffffffffffffffffffffffffffffffffffffffff16600160003373ffffffffffffffffffffffffffffffffffffffff1673ffffffffffffffffffffffffffffffffffffffff16815260200190815260200160002082815481106111b4576111b36118ad565b5b906000526020600020906003020160000160009054906101000a900473ffffffffffffffffffffffffffffffffffffffff1673ffffffffffffffffffffffffffffffffffffffff1603611511576000600281111561121557611214611622565b5b600160003373ffffffffffffffffffffffffffffffffffffffff1673ffffffffffffffffffffffffffffffffffffffff1681526020019081526020016000208281548110611266576112656118ad565b5b906000526020600020906003020160020160009054906101000a900460ff16600281111561129757611296611622565b5b146112d7576040517f08c379a00000000000000000000000000000000000000000000000000000000081526004016112ce90611928565b60405180910390fd5b3373ffffffffffffffffffffffffffffffffffffffff166108fc600160003373ffffffffffffffffffffffffffffffffffffffff1673ffffffffffffffffffffffffffffffffffffffff1681526020019081526020016000208381548110611342576113416118ad565b5b9060005260206000209060030201600101549081150290604051600060405180830381858888f1935050505015801561137f573d6000803e3d6000fd5b506000600160003373ffffffffffffffffffffffffffffffffffffffff1673ffffffffffffffffffffffffffffffffffffffff16815260200190815260200160002082815481106113d3576113d26118ad565b5b9060005260206000209060030201600101819055506002600160003373ffffffffffffffffffffffffffffffffffffffff1673ffffffffffffffffffffffffffffffffffffffff168152602001908152602001600020828154811061143b5761143a6118ad565b5b906000526020600020906003020160020160006101000a81548160ff0219169083600281111561146e5761146d611622565b5b02179055507ff40cc8c1a1d17359049ba500cfc894596a692cffc9d03943cd92ec2e159cf6ae3386600160003373ffffffffffffffffffffffffffffffffffffffff1673ffffffffffffffffffffffffffffffffffffffff16815260200190815260200160002084815481106114e7576114e66118ad565b5b90600052602060002090600302016001015460405161150893929190611948565b60405180910390a15b808061151c906119ae565b915050611102565b5050505050565b600080fd5b600073ffffffffffffffffffffffffffffffffffffffff82169050919050565b600061155b82611530565b9050919050565b61156b81611550565b811461157657600080fd5b50565b60008135905061158881611562565b92915050565b6000819050919050565b6115a18161158e565b81146115ac57600080fd5b50565b6000813590506115be81611598565b92915050565b600080604083850312156115db576115da61152b565b5b60006115e985828601611579565b92505060206115fa858286016115af565b9150509250929050565b61160d81611550565b82525050565b61161c8161158e565b82525050565b7f4e487b7100000000000000000000000000000000000000000000000000000000600052602160045260246000fd5b6003811061166257611661611622565b5b50565b600081905061167382611651565b919050565b600061168382611665565b9050919050565b61169381611678565b82525050565b60006060820190506116ae6000830186611604565b6116bb6020830185611613565b6116c8604083018461168a565b949350505050565b6000602082840312156116e6576116e561152b565b5b60006116f484828501611579565b91505092915050565b60006020820190506117126000830184611604565b92915050565b6000806040838503121561172f5761172e61152b565b5b600061173d85828601611579565b925050602061174e85828601611579565b9150509250929050565b600082825260208201905092915050565b7f596f7520646f6e27742068617665206163636573730000000000000000000000600082015250565b600061179f601583611758565b91506117aa82611769565b602082019050919050565b600060208201905081810360008301526117ce81611792565b9050919050565b7f4d65646961746f722063616e6e6f742062652073656c6c657200000000000000600082015250565b600061180b601983611758565b9150611816826117d5565b602082019050919050565b6000602082019050818103600083015261183a816117fe565b9050919050565b7f4d65646961746f722063616e6e6f742062652062757965720000000000000000600082015250565b6000611877601883611758565b915061188282611841565b602082019050919050565b600060208201905081810360008301526118a68161186a565b9050919050565b7f4e487b7100000000000000000000000000000000000000000000000000000000600052603260045260246000fd5b7f496e76616c696420726571756573740000000000000000000000000000000000600082015250565b6000611912600f83611758565b915061191d826118dc565b602082019050919050565b6000602082019050818103600083015261194181611905565b9050919050565b600060608201905061195d6000830186611604565b61196a6020830185611604565b6119776040830184611613565b949350505050565b7f4e487b7100000000000000000000000000000000000000000000000000000000600052601160045260246000fd5b60006119b98261158e565b91507fffffffffffffffffffffffffffffffffffffffffffffffffffffffffffffffff82036119eb576119ea61197f565b5b600182019050919050565b7f596f7520646f6e74206861766520616363657373210000000000000000000000600082015250565b6000611a2c601583611758565b9150611a37826119f6565b602082019050919050565b60006020820190508181036000830152611a5b81611a1f565b9050919050565b6000604082019050611a776000830185611604565b611a846020830184611604565b9392505050565b7f496e76616c696420616d6f756e74000000000000000000000000000000000000600082015250565b6000611ac1600e83611758565b9150611acc82611a8b565b602082019050919050565b60006020820190508181036000830152611af081611ab4565b9050919050565b6000611b028261158e565b9150611b0d8361158e565b9250828201905080821115611b2557611b2461197f565b5b9291505056fea264697066735822122098020a9b39a79462ae30e94061f37c08f743572efcb2dab2b03d2a742f019f9c64736f6c63430008120033",
					"opcodes": "PUSH1 0x80 PUSH1 0x40 MSTORE CALLVALUE DUP1 ISZERO PUSH2 0x10 JUMPI PUSH1 0x0 DUP1 REVERT JUMPDEST POP CALLER PUSH1 0x0 DUP1 PUSH2 0x100 EXP DUP2 SLOAD DUP2 PUSH20 0xFFFFFFFFFFFFFFFFFFFFFFFFFFFFFFFFFFFFFFFF MUL NOT AND SWAP1 DUP4 PUSH20 0xFFFFFFFFFFFFFFFFFFFFFFFFFFFFFFFFFFFFFFFF AND MUL OR SWAP1 SSTORE POP PUSH2 0x1B61 DUP1 PUSH2 0x60 PUSH1 0x0 CODECOPY PUSH1 0x0 RETURN INVALID PUSH1 0x80 PUSH1 0x40 MSTORE PUSH1 0x4 CALLDATASIZE LT PUSH2 0x55 JUMPI PUSH1 0x0 CALLDATALOAD PUSH1 0xE0 SHR DUP1 PUSH4 0x14538128 EQ PUSH2 0x5A JUMPI DUP1 PUSH4 0x19165587 EQ PUSH2 0x99 JUMPI DUP1 PUSH4 0x6D0501F6 EQ PUSH2 0xC2 JUMPI DUP1 PUSH4 0xB900A94A EQ PUSH2 0xED JUMPI DUP1 PUSH4 0xF435F5A7 EQ PUSH2 0x116 JUMPI DUP1 PUSH4 0xFA89401A EQ PUSH2 0x132 JUMPI JUMPDEST PUSH1 0x0 DUP1 REVERT JUMPDEST CALLVALUE DUP1 ISZERO PUSH2 0x66 JUMPI PUSH1 0x0 DUP1 REVERT JUMPDEST POP PUSH2 0x81 PUSH1 0x4 DUP1 CALLDATASIZE SUB DUP2 ADD SWAP1 PUSH2 0x7C SWAP2 SWAP1 PUSH2 0x15C4 JUMP JUMPDEST PUSH2 0x15B JUMP JUMPDEST PUSH1 0x40 MLOAD PUSH2 0x90 SWAP4 SWAP3 SWAP2 SWAP1 PUSH2 0x1699 JUMP JUMPDEST PUSH1 0x40 MLOAD DUP1 SWAP2 SUB SWAP1 RETURN JUMPDEST CALLVALUE DUP1 ISZERO PUSH2 0xA5 JUMPI PUSH1 0x0 DUP1 REVERT JUMPDEST POP PUSH2 0xC0 PUSH1 0x4 DUP1 CALLDATASIZE SUB DUP2 ADD SWAP1 PUSH2 0xBB SWAP2 SWAP1 PUSH2 0x16D0 JUMP JUMPDEST PUSH2 0x1CF JUMP JUMPDEST STOP JUMPDEST CALLVALUE DUP1 ISZERO PUSH2 0xCE JUMPI PUSH1 0x0 DUP1 REVERT JUMPDEST POP PUSH2 0xD7 PUSH2 0x720 JUMP JUMPDEST PUSH1 0x40 MLOAD PUSH2 0xE4 SWAP2 SWAP1 PUSH2 0x16FD JUMP JUMPDEST PUSH1 0x40 MLOAD DUP1 SWAP2 SUB SWAP1 RETURN JUMPDEST CALLVALUE DUP1 ISZERO PUSH2 0xF9 JUMPI PUSH1 0x0 DUP1 REVERT JUMPDEST POP PUSH2 0x114 PUSH1 0x4 DUP1 CALLDATASIZE SUB DUP2 ADD SWAP1 PUSH2 0x10F SWAP2 SWAP1 PUSH2 0x1718 JUMP JUMPDEST PUSH2 0x744 JUMP JUMPDEST STOP JUMPDEST PUSH2 0x130 PUSH1 0x4 DUP1 CALLDATASIZE SUB DUP2 ADD SWAP1 PUSH2 0x12B SWAP2 SWAP1 PUSH2 0x16D0 JUMP JUMPDEST PUSH2 0x9B0 JUMP JUMPDEST STOP JUMPDEST CALLVALUE DUP1 ISZERO PUSH2 0x13E JUMPI PUSH1 0x0 DUP1 REVERT JUMPDEST POP PUSH2 0x159 PUSH1 0x4 DUP1 CALLDATASIZE SUB DUP2 ADD SWAP1 PUSH2 0x154 SWAP2 SWAP1 PUSH2 0x16D0 JUMP JUMPDEST PUSH2 0xF72 JUMP JUMPDEST STOP JUMPDEST PUSH1 0x1 PUSH1 0x20 MSTORE DUP2 PUSH1 0x0 MSTORE PUSH1 0x40 PUSH1 0x0 KECCAK256 DUP2 DUP2 SLOAD DUP2 LT PUSH2 0x177 JUMPI PUSH1 0x0 DUP1 REVERT JUMPDEST SWAP1 PUSH1 0x0 MSTORE PUSH1 0x20 PUSH1 0x0 KECCAK256 SWAP1 PUSH1 0x3 MUL ADD PUSH1 0x0 SWAP2 POP SWAP2 POP POP DUP1 PUSH1 0x0 ADD PUSH1 0x0 SWAP1 SLOAD SWAP1 PUSH2 0x100 EXP SWAP1 DIV PUSH20 0xFFFFFFFFFFFFFFFFFFFFFFFFFFFFFFFFFFFFFFFF AND SWAP1 DUP1 PUSH1 0x1 ADD SLOAD SWAP1 DUP1 PUSH1 0x2 ADD PUSH1 0x0 SWAP1 SLOAD SWAP1 PUSH2 0x100 EXP SWAP1 DIV PUSH1 0xFF AND SWAP1 POP DUP4 JUMP JUMPDEST DUP1 DUP1 PUSH20 0xFFFFFFFFFFFFFFFFFFFFFFFFFFFFFFFFFFFFFFFF AND CALLER PUSH20 0xFFFFFFFFFFFFFFFFFFFFFFFFFFFFFFFFFFFFFFFF AND SUB PUSH2 0x23E JUMPI PUSH1 0x40 MLOAD PUSH32 0x8C379A000000000000000000000000000000000000000000000000000000000 DUP2 MSTORE PUSH1 0x4 ADD PUSH2 0x235 SWAP1 PUSH2 0x17B5 JUMP JUMPDEST PUSH1 0x40 MLOAD DUP1 SWAP2 SUB SWAP1 REVERT JUMPDEST CALLER DUP3 DUP2 PUSH20 0xFFFFFFFFFFFFFFFFFFFFFFFFFFFFFFFFFFFFFFFF AND PUSH1 0x0 DUP1 SLOAD SWAP1 PUSH2 0x100 EXP SWAP1 DIV PUSH20 0xFFFFFFFFFFFFFFFFFFFFFFFFFFFFFFFFFFFFFFFF AND PUSH20 0xFFFFFFFFFFFFFFFFFFFFFFFFFFFFFFFFFFFFFFFF AND SUB PUSH2 0x2CE JUMPI PUSH1 0x40 MLOAD PUSH32 0x8C379A000000000000000000000000000000000000000000000000000000000 DUP2 MSTORE PUSH1 0x4 ADD PUSH2 0x2C5 SWAP1 PUSH2 0x1821 JUMP JUMPDEST PUSH1 0x40 MLOAD DUP1 SWAP2 SUB SWAP1 REVERT JUMPDEST DUP1 PUSH20 0xFFFFFFFFFFFFFFFFFFFFFFFFFFFFFFFFFFFFFFFF AND PUSH1 0x0 DUP1 SLOAD SWAP1 PUSH2 0x100 EXP SWAP1 DIV PUSH20 0xFFFFFFFFFFFFFFFFFFFFFFFFFFFFFFFFFFFFFFFF AND PUSH20 0xFFFFFFFFFFFFFFFFFFFFFFFFFFFFFFFFFFFFFFFF AND SUB PUSH2 0x35C JUMPI PUSH1 0x40 MLOAD PUSH32 0x8C379A000000000000000000000000000000000000000000000000000000000 DUP2 MSTORE PUSH1 0x4 ADD PUSH2 0x353 SWAP1 PUSH2 0x188D JUMP JUMPDEST PUSH1 0x40 MLOAD DUP1 SWAP2 SUB SWAP1 REVERT JUMPDEST PUSH1 0x0 JUMPDEST PUSH1 0x1 PUSH1 0x0 DUP7 PUSH20 0xFFFFFFFFFFFFFFFFFFFFFFFFFFFFFFFFFFFFFFFF AND PUSH20 0xFFFFFFFFFFFFFFFFFFFFFFFFFFFFFFFFFFFFFFFF AND DUP2 MSTORE PUSH1 0x20 ADD SWAP1 DUP2 MSTORE PUSH1 0x20 ADD PUSH1 0x0 KECCAK256 DUP1 SLOAD SWAP1 POP DUP2 LT ISZERO PUSH2 0x719 JUMPI CALLER PUSH20 0xFFFFFFFFFFFFFFFFFFFFFFFFFFFFFFFFFFFFFFFF AND PUSH1 0x1 PUSH1 0x0 DUP8 PUSH20 0xFFFFFFFFFFFFFFFFFFFFFFFFFFFFFFFFFFFFFFFF AND PUSH20 0xFFFFFFFFFFFFFFFFFFFFFFFFFFFFFFFFFFFFFFFF AND DUP2 MSTORE PUSH1 0x20 ADD SWAP1 DUP2 MSTORE PUSH1 0x20 ADD PUSH1 0x0 KECCAK256 DUP3 DUP2 SLOAD DUP2 LT PUSH2 0x411 JUMPI PUSH2 0x410 PUSH2 0x18AD JUMP JUMPDEST JUMPDEST SWAP1 PUSH1 0x0 MSTORE PUSH1 0x20 PUSH1 0x0 KECCAK256 SWAP1 PUSH1 0x3 MUL ADD PUSH1 0x0 ADD PUSH1 0x0 SWAP1 SLOAD SWAP1 PUSH2 0x100 EXP SWAP1 DIV PUSH20 0xFFFFFFFFFFFFFFFFFFFFFFFFFFFFFFFFFFFFFFFF AND PUSH20 0xFFFFFFFFFFFFFFFFFFFFFFFFFFFFFFFFFFFFFFFF AND SUB PUSH2 0x706 JUMPI PUSH1 0x1 PUSH1 0x2 DUP2 GT ISZERO PUSH2 0x472 JUMPI PUSH2 0x471 PUSH2 0x1622 JUMP JUMPDEST JUMPDEST PUSH1 0x1 PUSH1 0x0 DUP8 PUSH20 0xFFFFFFFFFFFFFFFFFFFFFFFFFFFFFFFFFFFFFFFF AND PUSH20 0xFFFFFFFFFFFFFFFFFFFFFFFFFFFFFFFFFFFFFFFF AND DUP2 MSTORE PUSH1 0x20 ADD SWAP1 DUP2 MSTORE PUSH1 0x20 ADD PUSH1 0x0 KECCAK256 DUP3 DUP2 SLOAD DUP2 LT PUSH2 0x4C3 JUMPI PUSH2 0x4C2 PUSH2 0x18AD JUMP JUMPDEST JUMPDEST SWAP1 PUSH1 0x0 MSTORE PUSH1 0x20 PUSH1 0x0 KECCAK256 SWAP1 PUSH1 0x3 MUL ADD PUSH1 0x2 ADD PUSH1 0x0 SWAP1 SLOAD SWAP1 PUSH2 0x100 EXP SWAP1 DIV PUSH1 0xFF AND PUSH1 0x2 DUP2 GT ISZERO PUSH2 0x4F4 JUMPI PUSH2 0x4F3 PUSH2 0x1622 JUMP JUMPDEST JUMPDEST EQ PUSH2 0x534 JUMPI PUSH1 0x40 MLOAD PUSH32 0x8C379A000000000000000000000000000000000000000000000000000000000 DUP2 MSTORE PUSH1 0x4 ADD PUSH2 0x52B SWAP1 PUSH2 0x1928 JUMP JUMPDEST PUSH1 0x40 MLOAD DUP1 SWAP2 SUB SWAP1 REVERT JUMPDEST PUSH1 0x2 PUSH1 0x1 PUSH1 0x0 DUP8 PUSH20 0xFFFFFFFFFFFFFFFFFFFFFFFFFFFFFFFFFFFFFFFF AND PUSH20 0xFFFFFFFFFFFFFFFFFFFFFFFFFFFFFFFFFFFFFFFF AND DUP2 MSTORE PUSH1 0x20 ADD SWAP1 DUP2 MSTORE PUSH1 0x20 ADD PUSH1 0x0 KECCAK256 DUP3 DUP2 SLOAD DUP2 LT PUSH2 0x587 JUMPI PUSH2 0x586 PUSH2 0x18AD JUMP JUMPDEST JUMPDEST SWAP1 PUSH1 0x0 MSTORE PUSH1 0x20 PUSH1 0x0 KECCAK256 SWAP1 PUSH1 0x3 MUL ADD PUSH1 0x2 ADD PUSH1 0x0 PUSH2 0x100 EXP DUP2 SLOAD DUP2 PUSH1 0xFF MUL NOT AND SWAP1 DUP4 PUSH1 0x2 DUP2 GT ISZERO PUSH2 0x5BA JUMPI PUSH2 0x5B9 PUSH2 0x1622 JUMP JUMPDEST JUMPDEST MUL OR SWAP1 SSTORE POP CALLER PUSH20 0xFFFFFFFFFFFFFFFFFFFFFFFFFFFFFFFFFFFFFFFF AND PUSH2 0x8FC PUSH1 0x1 PUSH1 0x0 DUP9 PUSH20 0xFFFFFFFFFFFFFFFFFFFFFFFFFFFFFFFFFFFFFFFF AND PUSH20 0xFFFFFFFFFFFFFFFFFFFFFFFFFFFFFFFFFFFFFFFF AND DUP2 MSTORE PUSH1 0x20 ADD SWAP1 DUP2 MSTORE PUSH1 0x20 ADD PUSH1 0x0 KECCAK256 DUP4 DUP2 SLOAD DUP2 LT PUSH2 0x62A JUMPI PUSH2 0x629 PUSH2 0x18AD JUMP JUMPDEST JUMPDEST SWAP1 PUSH1 0x0 MSTORE PUSH1 0x20 PUSH1 0x0 KECCAK256 SWAP1 PUSH1 0x3 MUL ADD PUSH1 0x1 ADD SLOAD SWAP1 DUP2 ISZERO MUL SWAP1 PUSH1 0x40 MLOAD PUSH1 0x0 PUSH1 0x40 MLOAD DUP1 DUP4 SUB DUP2 DUP6 DUP9 DUP9 CALL SWAP4 POP POP POP POP ISZERO DUP1 ISZERO PUSH2 0x667 JUMPI RETURNDATASIZE PUSH1 0x0 DUP1 RETURNDATACOPY RETURNDATASIZE PUSH1 0x0 REVERT JUMPDEST POP PUSH32 0xCB54AAD3BD772FCFE1BC124E01BD1A91A91C9D80126D8B3014C4D9E687D5CA48 DUP6 CALLER PUSH1 0x1 PUSH1 0x0 DUP10 PUSH20 0xFFFFFFFFFFFFFFFFFFFFFFFFFFFFFFFFFFFFFFFF AND PUSH20 0xFFFFFFFFFFFFFFFFFFFFFFFFFFFFFFFFFFFFFFFF AND DUP2 MSTORE PUSH1 0x20 ADD SWAP1 DUP2 MSTORE PUSH1 0x20 ADD PUSH1 0x0 KECCAK256 DUP5 DUP2 SLOAD DUP2 LT PUSH2 0x6DC JUMPI PUSH2 0x6DB PUSH2 0x18AD JUMP JUMPDEST JUMPDEST SWAP1 PUSH1 0x0 MSTORE PUSH1 0x20 PUSH1 0x0 KECCAK256 SWAP1 PUSH1 0x3 MUL ADD PUSH1 0x1 ADD SLOAD PUSH1 0x40 MLOAD PUSH2 0x6FD SWAP4 SWAP3 SWAP2 SWAP1 PUSH2 0x1948 JUMP JUMPDEST PUSH1 0x40 MLOAD DUP1 SWAP2 SUB SWAP1 LOG1 JUMPDEST DUP1 DUP1 PUSH2 0x711 SWAP1 PUSH2 0x19AE JUMP JUMPDEST SWAP2 POP POP PUSH2 0x35F JUMP JUMPDEST POP POP POP POP POP JUMP JUMPDEST PUSH1 0x0 DUP1 SLOAD SWAP1 PUSH2 0x100 EXP SWAP1 DIV PUSH20 0xFFFFFFFFFFFFFFFFFFFFFFFFFFFFFFFFFFFFFFFF AND DUP2 JUMP JUMPDEST CALLER PUSH20 0xFFFFFFFFFFFFFFFFFFFFFFFFFFFFFFFFFFFFFFFF AND PUSH1 0x0 DUP1 SLOAD SWAP1 PUSH2 0x100 EXP SWAP1 DIV PUSH20 0xFFFFFFFFFFFFFFFFFFFFFFFFFFFFFFFFFFFFFFFF AND PUSH20 0xFFFFFFFFFFFFFFFFFFFFFFFFFFFFFFFFFFFFFFFF AND EQ PUSH2 0x7D2 JUMPI PUSH1 0x40 MLOAD PUSH32 0x8C379A000000000000000000000000000000000000000000000000000000000 DUP2 MSTORE PUSH1 0x4 ADD PUSH2 0x7C9 SWAP1 PUSH2 0x1A42 JUMP JUMPDEST PUSH1 0x40 MLOAD DUP1 SWAP2 SUB SWAP1 REVERT JUMPDEST PUSH1 0x0 JUMPDEST PUSH1 0x1 PUSH1 0x0 DUP5 PUSH20 0xFFFFFFFFFFFFFFFFFFFFFFFFFFFFFFFFFFFFFFFF AND PUSH20 0xFFFFFFFFFFFFFFFFFFFFFFFFFFFFFFFFFFFFFFFF AND DUP2 MSTORE PUSH1 0x20 ADD SWAP1 DUP2 MSTORE PUSH1 0x20 ADD PUSH1 0x0 KECCAK256 DUP1 SLOAD SWAP1 POP DUP2 LT ISZERO PUSH2 0x972 JUMPI DUP2 PUSH20 0xFFFFFFFFFFFFFFFFFFFFFFFFFFFFFFFFFFFFFFFF AND PUSH1 0x1 PUSH1 0x0 DUP6 PUSH20 0xFFFFFFFFFFFFFFFFFFFFFFFFFFFFFFFFFFFFFFFF AND PUSH20 0xFFFFFFFFFFFFFFFFFFFFFFFFFFFFFFFFFFFFFFFF AND DUP2 MSTORE PUSH1 0x20 ADD SWAP1 DUP2 MSTORE PUSH1 0x20 ADD PUSH1 0x0 KECCAK256 DUP3 DUP2 SLOAD DUP2 LT PUSH2 0x887 JUMPI PUSH2 0x886 PUSH2 0x18AD JUMP JUMPDEST JUMPDEST SWAP1 PUSH1 0x0 MSTORE PUSH1 0x20 PUSH1 0x0 KECCAK256 SWAP1 PUSH1 0x3 MUL ADD PUSH1 0x0 ADD PUSH1 0x0 SWAP1 SLOAD SWAP1 PUSH2 0x100 EXP SWAP1 DIV PUSH20 0xFFFFFFFFFFFFFFFFFFFFFFFFFFFFFFFFFFFFFFFF AND PUSH20 0xFFFFFFFFFFFFFFFFFFFFFFFFFFFFFFFFFFFFFFFF AND SUB PUSH2 0x95F JUMPI PUSH1 0x1 DUP1 PUSH1 0x0 DUP6 PUSH20 0xFFFFFFFFFFFFFFFFFFFFFFFFFFFFFFFFFFFFFFFF AND PUSH20 0xFFFFFFFFFFFFFFFFFFFFFFFFFFFFFFFFFFFFFFFF AND DUP2 MSTORE PUSH1 0x20 ADD SWAP1 DUP2 MSTORE PUSH1 0x20 ADD PUSH1 0x0 KECCAK256 DUP3 DUP2 SLOAD DUP2 LT PUSH2 0x926 JUMPI PUSH2 0x925 PUSH2 0x18AD JUMP JUMPDEST JUMPDEST SWAP1 PUSH1 0x0 MSTORE PUSH1 0x20 PUSH1 0x0 KECCAK256 SWAP1 PUSH1 0x3 MUL ADD PUSH1 0x2 ADD PUSH1 0x0 PUSH2 0x100 EXP DUP2 SLOAD DUP2 PUSH1 0xFF MUL NOT AND SWAP1 DUP4 PUSH1 0x2 DUP2 GT ISZERO PUSH2 0x959 JUMPI PUSH2 0x958 PUSH2 0x1622 JUMP JUMPDEST JUMPDEST MUL OR SWAP1 SSTORE POP JUMPDEST DUP1 DUP1 PUSH2 0x96A SWAP1 PUSH2 0x19AE JUMP JUMPDEST SWAP2 POP POP PUSH2 0x7D5 JUMP JUMPDEST POP PUSH32 0x81A8B94DF9B82F8E72580F655E1D906D12F243F0B2FA5692329EDD2108D59709 DUP3 DUP3 PUSH1 0x40 MLOAD PUSH2 0x9A4 SWAP3 SWAP2 SWAP1 PUSH2 0x1A62 JUMP JUMPDEST PUSH1 0x40 MLOAD DUP1 SWAP2 SUB SWAP1 LOG1 POP POP JUMP JUMPDEST DUP1 DUP1 PUSH20 0xFFFFFFFFFFFFFFFFFFFFFFFFFFFFFFFFFFFFFFFF AND CALLER PUSH20 0xFFFFFFFFFFFFFFFFFFFFFFFFFFFFFFFFFFFFFFFF AND SUB PUSH2 0xA1F JUMPI PUSH1 0x40 MLOAD PUSH32 0x8C379A000000000000000000000000000000000000000000000000000000000 DUP2 MSTORE PUSH1 0x4 ADD PUSH2 0xA16 SWAP1 PUSH2 0x17B5 JUMP JUMPDEST PUSH1 0x40 MLOAD DUP1 SWAP2 SUB SWAP1 REVERT JUMPDEST DUP2 CALLER DUP2 PUSH20 0xFFFFFFFFFFFFFFFFFFFFFFFFFFFFFFFFFFFFFFFF AND PUSH1 0x0 DUP1 SLOAD SWAP1 PUSH2 0x100 EXP SWAP1 DIV PUSH20 0xFFFFFFFFFFFFFFFFFFFFFFFFFFFFFFFFFFFFFFFF AND PUSH20 0xFFFFFFFFFFFFFFFFFFFFFFFFFFFFFFFFFFFFFFFF AND SUB PUSH2 0xAAF JUMPI PUSH1 0x40 MLOAD PUSH32 0x8C379A000000000000000000000000000000000000000000000000000000000 DUP2 MSTORE PUSH1 0x4 ADD PUSH2 0xAA6 SWAP1 PUSH2 0x1821 JUMP JUMPDEST PUSH1 0x40 MLOAD DUP1 SWAP2 SUB SWAP1 REVERT JUMPDEST DUP1 PUSH20 0xFFFFFFFFFFFFFFFFFFFFFFFFFFFFFFFFFFFFFFFF AND PUSH1 0x0 DUP1 SLOAD SWAP1 PUSH2 0x100 EXP SWAP1 DIV PUSH20 0xFFFFFFFFFFFFFFFFFFFFFFFFFFFFFFFFFFFFFFFF AND PUSH20 0xFFFFFFFFFFFFFFFFFFFFFFFFFFFFFFFFFFFFFFFF AND SUB PUSH2 0xB3D JUMPI PUSH1 0x40 MLOAD PUSH32 0x8C379A000000000000000000000000000000000000000000000000000000000 DUP2 MSTORE PUSH1 0x4 ADD PUSH2 0xB34 SWAP1 PUSH2 0x188D JUMP JUMPDEST PUSH1 0x40 MLOAD DUP1 SWAP2 SUB SWAP1 REVERT JUMPDEST PUSH1 0x0 CALLVALUE GT PUSH2 0xB80 JUMPI PUSH1 0x40 MLOAD PUSH32 0x8C379A000000000000000000000000000000000000000000000000000000000 DUP2 MSTORE PUSH1 0x4 ADD PUSH2 0xB77 SWAP1 PUSH2 0x1AD7 JUMP JUMPDEST PUSH1 0x40 MLOAD DUP1 SWAP2 SUB SWAP1 REVERT JUMPDEST PUSH1 0x0 DUP1 JUMPDEST PUSH1 0x1 PUSH1 0x0 CALLER PUSH20 0xFFFFFFFFFFFFFFFFFFFFFFFFFFFFFFFFFFFFFFFF AND PUSH20 0xFFFFFFFFFFFFFFFFFFFFFFFFFFFFFFFFFFFFFFFF AND DUP2 MSTORE PUSH1 0x20 ADD SWAP1 DUP2 MSTORE PUSH1 0x20 ADD PUSH1 0x0 KECCAK256 DUP1 SLOAD SWAP1 POP DUP2 LT ISZERO PUSH2 0xDFA JUMPI DUP6 PUSH20 0xFFFFFFFFFFFFFFFFFFFFFFFFFFFFFFFFFFFFFFFF AND PUSH1 0x1 PUSH1 0x0 CALLER PUSH20 0xFFFFFFFFFFFFFFFFFFFFFFFFFFFFFFFFFFFFFFFF AND PUSH20 0xFFFFFFFFFFFFFFFFFFFFFFFFFFFFFFFFFFFFFFFF AND DUP2 MSTORE PUSH1 0x20 ADD SWAP1 DUP2 MSTORE PUSH1 0x20 ADD PUSH1 0x0 KECCAK256 DUP3 DUP2 SLOAD DUP2 LT PUSH2 0xC36 JUMPI PUSH2 0xC35 PUSH2 0x18AD JUMP JUMPDEST JUMPDEST SWAP1 PUSH1 0x0 MSTORE PUSH1 0x20 PUSH1 0x0 KECCAK256 SWAP1 PUSH1 0x3 MUL ADD PUSH1 0x0 ADD PUSH1 0x0 SWAP1 SLOAD SWAP1 PUSH2 0x100 EXP SWAP1 DIV PUSH20 0xFFFFFFFFFFFFFFFFFFFFFFFFFFFFFFFFFFFFFFFF AND PUSH20 0xFFFFFFFFFFFFFFFFFFFFFFFFFFFFFFFFFFFFFFFF AND SUB PUSH2 0xDE7 JUMPI CALLVALUE PUSH1 0x1 PUSH1 0x0 CALLER PUSH20 0xFFFFFFFFFFFFFFFFFFFFFFFFFFFFFFFFFFFFFFFF AND PUSH20 0xFFFFFFFFFFFFFFFFFFFFFFFFFFFFFFFFFFFFFFFF AND DUP2 MSTORE PUSH1 0x20 ADD SWAP1 DUP2 MSTORE PUSH1 0x20 ADD PUSH1 0x0 KECCAK256 DUP3 DUP2 SLOAD DUP2 LT PUSH2 0xCD5 JUMPI PUSH2 0xCD4 PUSH2 0x18AD JUMP JUMPDEST JUMPDEST SWAP1 PUSH1 0x0 MSTORE PUSH1 0x20 PUSH1 0x0 KECCAK256 SWAP1 PUSH1 0x3 MUL ADD PUSH1 0x1 ADD SLOAD PUSH2 0xCF1 SWAP2 SWAP1 PUSH2 0x1AF7 JUMP JUMPDEST PUSH1 0x1 PUSH1 0x0 CALLER PUSH20 0xFFFFFFFFFFFFFFFFFFFFFFFFFFFFFFFFFFFFFFFF AND PUSH20 0xFFFFFFFFFFFFFFFFFFFFFFFFFFFFFFFFFFFFFFFF AND DUP2 MSTORE PUSH1 0x20 ADD SWAP1 DUP2 MSTORE PUSH1 0x20 ADD PUSH1 0x0 KECCAK256 DUP3 DUP2 SLOAD DUP2 LT PUSH2 0xD42 JUMPI PUSH2 0xD41 PUSH2 0x18AD JUMP JUMPDEST JUMPDEST SWAP1 PUSH1 0x0 MSTORE PUSH1 0x20 PUSH1 0x0 KECCAK256 SWAP1 PUSH1 0x3 MUL ADD PUSH1 0x1 ADD DUP2 SWAP1 SSTORE POP PUSH1 0x0 PUSH1 0x1 PUSH1 0x0 CALLER PUSH20 0xFFFFFFFFFFFFFFFFFFFFFFFFFFFFFFFFFFFFFFFF AND PUSH20 0xFFFFFFFFFFFFFFFFFFFFFFFFFFFFFFFFFFFFFFFF AND DUP2 MSTORE PUSH1 0x20 ADD SWAP1 DUP2 MSTORE PUSH1 0x20 ADD PUSH1 0x0 KECCAK256 DUP3 DUP2 SLOAD DUP2 LT PUSH2 0xDAA JUMPI PUSH2 0xDA9 PUSH2 0x18AD JUMP JUMPDEST JUMPDEST SWAP1 PUSH1 0x0 MSTORE PUSH1 0x20 PUSH1 0x0 KECCAK256 SWAP1 PUSH1 0x3 MUL ADD PUSH1 0x2 ADD PUSH1 0x0 PUSH2 0x100 EXP DUP2 SLOAD DUP2 PUSH1 0xFF MUL NOT AND SWAP1 DUP4 PUSH1 0x2 DUP2 GT ISZERO PUSH2 0xDDD JUMPI PUSH2 0xDDC PUSH2 0x1622 JUMP JUMPDEST JUMPDEST MUL OR SWAP1 SSTORE POP PUSH1 0x1 SWAP2 POP JUMPDEST DUP1 DUP1 PUSH2 0xDF2 SWAP1 PUSH2 0x19AE JUMP JUMPDEST SWAP2 POP POP PUSH2 0xB84 JUMP JUMPDEST POP DUP1 PUSH2 0xF30 JUMPI PUSH1 0x1 PUSH1 0x0 CALLER PUSH20 0xFFFFFFFFFFFFFFFFFFFFFFFFFFFFFFFFFFFFFFFF AND PUSH20 0xFFFFFFFFFFFFFFFFFFFFFFFFFFFFFFFFFFFFFFFF AND DUP2 MSTORE PUSH1 0x20 ADD SWAP1 DUP2 MSTORE PUSH1 0x20 ADD PUSH1 0x0 KECCAK256 PUSH1 0x40 MLOAD DUP1 PUSH1 0x60 ADD PUSH1 0x40 MSTORE DUP1 DUP8 PUSH20 0xFFFFFFFFFFFFFFFFFFFFFFFFFFFFFFFFFFFFFFFF AND DUP2 MSTORE PUSH1 0x20 ADD CALLVALUE DUP2 MSTORE PUSH1 0x20 ADD PUSH1 0x0 PUSH1 0x2 DUP2 GT ISZERO PUSH2 0xE80 JUMPI PUSH2 0xE7F PUSH2 0x1622 JUMP JUMPDEST JUMPDEST DUP2 MSTORE POP SWAP1 DUP1 PUSH1 0x1 DUP2 SLOAD ADD DUP1 DUP3 SSTORE DUP1 SWAP2 POP POP PUSH1 0x1 SWAP1 SUB SWAP1 PUSH1 0x0 MSTORE PUSH1 0x20 PUSH1 0x0 KECCAK256 SWAP1 PUSH1 0x3 MUL ADD PUSH1 0x0 SWAP1 SWAP2 SWAP1 SWAP2 SWAP1 SWAP2 POP PUSH1 0x0 DUP3 ADD MLOAD DUP2 PUSH1 0x0 ADD PUSH1 0x0 PUSH2 0x100 EXP DUP2 SLOAD DUP2 PUSH20 0xFFFFFFFFFFFFFFFFFFFFFFFFFFFFFFFFFFFFFFFF MUL NOT AND SWAP1 DUP4 PUSH20 0xFFFFFFFFFFFFFFFFFFFFFFFFFFFFFFFFFFFFFFFF AND MUL OR SWAP1 SSTORE POP PUSH1 0x20 DUP3 ADD MLOAD DUP2 PUSH1 0x1 ADD SSTORE PUSH1 0x40 DUP3 ADD MLOAD DUP2 PUSH1 0x2 ADD PUSH1 0x0 PUSH2 0x100 EXP DUP2 SLOAD DUP2 PUSH1 0xFF MUL NOT AND SWAP1 DUP4 PUSH1 0x2 DUP2 GT ISZERO PUSH2 0xF28 JUMPI PUSH2 0xF27 PUSH2 0x1622 JUMP JUMPDEST JUMPDEST MUL OR SWAP1 SSTORE POP POP POP JUMPDEST PUSH32 0xEC36C0364D931187A76CF66D7EEE08FAD0EC2E8B7458A8D8B26B36769D4D13F3 CALLER DUP7 CALLVALUE PUSH1 0x40 MLOAD PUSH2 0xF63 SWAP4 SWAP3 SWAP2 SWAP1 PUSH2 0x1948 JUMP JUMPDEST PUSH1 0x40 MLOAD DUP1 SWAP2 SUB SWAP1 LOG1 POP POP POP POP POP JUMP JUMPDEST DUP1 DUP1 PUSH20 0xFFFFFFFFFFFFFFFFFFFFFFFFFFFFFFFFFFFFFFFF AND CALLER PUSH20 0xFFFFFFFFFFFFFFFFFFFFFFFFFFFFFFFFFFFFFFFF AND SUB PUSH2 0xFE1 JUMPI PUSH1 0x40 MLOAD PUSH32 0x8C379A000000000000000000000000000000000000000000000000000000000 DUP2 MSTORE PUSH1 0x4 ADD PUSH2 0xFD8 SWAP1 PUSH2 0x17B5 JUMP JUMPDEST PUSH1 0x40 MLOAD DUP1 SWAP2 SUB SWAP1 REVERT JUMPDEST DUP2 CALLER DUP2 PUSH20 0xFFFFFFFFFFFFFFFFFFFFFFFFFFFFFFFFFFFFFFFF AND PUSH1 0x0 DUP1 SLOAD SWAP1 PUSH2 0x100 EXP SWAP1 DIV PUSH20 0xFFFFFFFFFFFFFFFFFFFFFFFFFFFFFFFFFFFFFFFF AND PUSH20 0xFFFFFFFFFFFFFFFFFFFFFFFFFFFFFFFFFFFFFFFF AND SUB PUSH2 0x1071 JUMPI PUSH1 0x40 MLOAD PUSH32 0x8C379A000000000000000000000000000000000000000000000000000000000 DUP2 MSTORE PUSH1 0x4 ADD PUSH2 0x1068 SWAP1 PUSH2 0x1821 JUMP JUMPDEST PUSH1 0x40 MLOAD DUP1 SWAP2 SUB SWAP1 REVERT JUMPDEST DUP1 PUSH20 0xFFFFFFFFFFFFFFFFFFFFFFFFFFFFFFFFFFFFFFFF AND PUSH1 0x0 DUP1 SLOAD SWAP1 PUSH2 0x100 EXP SWAP1 DIV PUSH20 0xFFFFFFFFFFFFFFFFFFFFFFFFFFFFFFFFFFFFFFFF AND PUSH20 0xFFFFFFFFFFFFFFFFFFFFFFFFFFFFFFFFFFFFFFFF AND SUB PUSH2 0x10FF JUMPI PUSH1 0x40 MLOAD PUSH32 0x8C379A000000000000000000000000000000000000000000000000000000000 DUP2 MSTORE PUSH1 0x4 ADD PUSH2 0x10F6 SWAP1 PUSH2 0x188D JUMP JUMPDEST PUSH1 0x40 MLOAD DUP1 SWAP2 SUB SWAP1 REVERT JUMPDEST PUSH1 0x0 JUMPDEST PUSH1 0x1 PUSH1 0x0 CALLER PUSH20 0xFFFFFFFFFFFFFFFFFFFFFFFFFFFFFFFFFFFFFFFF AND PUSH20 0xFFFFFFFFFFFFFFFFFFFFFFFFFFFFFFFFFFFFFFFF AND DUP2 MSTORE PUSH1 0x20 ADD SWAP1 DUP2 MSTORE PUSH1 0x20 ADD PUSH1 0x0 KECCAK256 DUP1 SLOAD SWAP1 POP DUP2 LT ISZERO PUSH2 0x1524 JUMPI DUP5 PUSH20 0xFFFFFFFFFFFFFFFFFFFFFFFFFFFFFFFFFFFFFFFF AND PUSH1 0x1 PUSH1 0x0 CALLER PUSH20 0xFFFFFFFFFFFFFFFFFFFFFFFFFFFFFFFFFFFFFFFF AND PUSH20 0xFFFFFFFFFFFFFFFFFFFFFFFFFFFFFFFFFFFFFFFF AND DUP2 MSTORE PUSH1 0x20 ADD SWAP1 DUP2 MSTORE PUSH1 0x20 ADD PUSH1 0x0 KECCAK256 DUP3 DUP2 SLOAD DUP2 LT PUSH2 0x11B4 JUMPI PUSH2 0x11B3 PUSH2 0x18AD JUMP JUMPDEST JUMPDEST SWAP1 PUSH1 0x0 MSTORE PUSH1 0x20 PUSH1 0x0 KECCAK256 SWAP1 PUSH1 0x3 MUL ADD PUSH1 0x0 ADD PUSH1 0x0 SWAP1 SLOAD SWAP1 PUSH2 0x100 EXP SWAP1 DIV PUSH20 0xFFFFFFFFFFFFFFFFFFFFFFFFFFFFFFFFFFFFFFFF AND PUSH20 0xFFFFFFFFFFFFFFFFFFFFFFFFFFFFFFFFFFFFFFFF AND SUB PUSH2 0x1511 JUMPI PUSH1 0x0 PUSH1 0x2 DUP2 GT ISZERO PUSH2 0x1215 JUMPI PUSH2 0x1214 PUSH2 0x1622 JUMP JUMPDEST JUMPDEST PUSH1 0x1 PUSH1 0x0 CALLER PUSH20 0xFFFFFFFFFFFFFFFFFFFFFFFFFFFFFFFFFFFFFFFF AND PUSH20 0xFFFFFFFFFFFFFFFFFFFFFFFFFFFFFFFFFFFFFFFF AND DUP2 MSTORE PUSH1 0x20 ADD SWAP1 DUP2 MSTORE PUSH1 0x20 ADD PUSH1 0x0 KECCAK256 DUP3 DUP2 SLOAD DUP2 LT PUSH2 0x1266 JUMPI PUSH2 0x1265 PUSH2 0x18AD JUMP JUMPDEST JUMPDEST SWAP1 PUSH1 0x0 MSTORE PUSH1 0x20 PUSH1 0x0 KECCAK256 SWAP1 PUSH1 0x3 MUL ADD PUSH1 0x2 ADD PUSH1 0x0 SWAP1 SLOAD SWAP1 PUSH2 0x100 EXP SWAP1 DIV PUSH1 0xFF AND PUSH1 0x2 DUP2 GT ISZERO PUSH2 0x1297 JUMPI PUSH2 0x1296 PUSH2 0x1622 JUMP JUMPDEST JUMPDEST EQ PUSH2 0x12D7 JUMPI PUSH1 0x40 MLOAD PUSH32 0x8C379A000000000000000000000000000000000000000000000000000000000 DUP2 MSTORE PUSH1 0x4 ADD PUSH2 0x12CE SWAP1 PUSH2 0x1928 JUMP JUMPDEST PUSH1 0x40 MLOAD DUP1 SWAP2 SUB SWAP1 REVERT JUMPDEST CALLER PUSH20 0xFFFFFFFFFFFFFFFFFFFFFFFFFFFFFFFFFFFFFFFF AND PUSH2 0x8FC PUSH1 0x1 PUSH1 0x0 CALLER PUSH20 0xFFFFFFFFFFFFFFFFFFFFFFFFFFFFFFFFFFFFFFFF AND PUSH20 0xFFFFFFFFFFFFFFFFFFFFFFFFFFFFFFFFFFFFFFFF AND DUP2 MSTORE PUSH1 0x20 ADD SWAP1 DUP2 MSTORE PUSH1 0x20 ADD PUSH1 0x0 KECCAK256 DUP4 DUP2 SLOAD DUP2 LT PUSH2 0x1342 JUMPI PUSH2 0x1341 PUSH2 0x18AD JUMP JUMPDEST JUMPDEST SWAP1 PUSH1 0x0 MSTORE PUSH1 0x20 PUSH1 0x0 KECCAK256 SWAP1 PUSH1 0x3 MUL ADD PUSH1 0x1 ADD SLOAD SWAP1 DUP2 ISZERO MUL SWAP1 PUSH1 0x40 MLOAD PUSH1 0x0 PUSH1 0x40 MLOAD DUP1 DUP4 SUB DUP2 DUP6 DUP9 DUP9 CALL SWAP4 POP POP POP POP ISZERO DUP1 ISZERO PUSH2 0x137F JUMPI RETURNDATASIZE PUSH1 0x0 DUP1 RETURNDATACOPY RETURNDATASIZE PUSH1 0x0 REVERT JUMPDEST POP PUSH1 0x0 PUSH1 0x1 PUSH1 0x0 CALLER PUSH20 0xFFFFFFFFFFFFFFFFFFFFFFFFFFFFFFFFFFFFFFFF AND PUSH20 0xFFFFFFFFFFFFFFFFFFFFFFFFFFFFFFFFFFFFFFFF AND DUP2 MSTORE PUSH1 0x20 ADD SWAP1 DUP2 MSTORE PUSH1 0x20 ADD PUSH1 0x0 KECCAK256 DUP3 DUP2 SLOAD DUP2 LT PUSH2 0x13D3 JUMPI PUSH2 0x13D2 PUSH2 0x18AD JUMP JUMPDEST JUMPDEST SWAP1 PUSH1 0x0 MSTORE PUSH1 0x20 PUSH1 0x0 KECCAK256 SWAP1 PUSH1 0x3 MUL ADD PUSH1 0x1 ADD DUP2 SWAP1 SSTORE POP PUSH1 0x2 PUSH1 0x1 PUSH1 0x0 CALLER PUSH20 0xFFFFFFFFFFFFFFFFFFFFFFFFFFFFFFFFFFFFFFFF AND PUSH20 0xFFFFFFFFFFFFFFFFFFFFFFFFFFFFFFFFFFFFFFFF AND DUP2 MSTORE PUSH1 0x20 ADD SWAP1 DUP2 MSTORE PUSH1 0x20 ADD PUSH1 0x0 KECCAK256 DUP3 DUP2 SLOAD DUP2 LT PUSH2 0x143B JUMPI PUSH2 0x143A PUSH2 0x18AD JUMP JUMPDEST JUMPDEST SWAP1 PUSH1 0x0 MSTORE PUSH1 0x20 PUSH1 0x0 KECCAK256 SWAP1 PUSH1 0x3 MUL ADD PUSH1 0x2 ADD PUSH1 0x0 PUSH2 0x100 EXP DUP2 SLOAD DUP2 PUSH1 0xFF MUL NOT AND SWAP1 DUP4 PUSH1 0x2 DUP2 GT ISZERO PUSH2 0x146E JUMPI PUSH2 0x146D PUSH2 0x1622 JUMP JUMPDEST JUMPDEST MUL OR SWAP1 SSTORE POP PUSH32 0xF40CC8C1A1D17359049BA500CFC894596A692CFFC9D03943CD92EC2E159CF6AE CALLER DUP7 PUSH1 0x1 PUSH1 0x0 CALLER PUSH20 0xFFFFFFFFFFFFFFFFFFFFFFFFFFFFFFFFFFFFFFFF AND PUSH20 0xFFFFFFFFFFFFFFFFFFFFFFFFFFFFFFFFFFFFFFFF AND DUP2 MSTORE PUSH1 0x20 ADD SWAP1 DUP2 MSTORE PUSH1 0x20 ADD PUSH1 0x0 KECCAK256 DUP5 DUP2 SLOAD DUP2 LT PUSH2 0x14E7 JUMPI PUSH2 0x14E6 PUSH2 0x18AD JUMP JUMPDEST JUMPDEST SWAP1 PUSH1 0x0 MSTORE PUSH1 0x20 PUSH1 0x0 KECCAK256 SWAP1 PUSH1 0x3 MUL ADD PUSH1 0x1 ADD SLOAD PUSH1 0x40 MLOAD PUSH2 0x1508 SWAP4 SWAP3 SWAP2 SWAP1 PUSH2 0x1948 JUMP JUMPDEST PUSH1 0x40 MLOAD DUP1 SWAP2 SUB SWAP1 LOG1 JUMPDEST DUP1 DUP1 PUSH2 0x151C SWAP1 PUSH2 0x19AE JUMP JUMPDEST SWAP2 POP POP PUSH2 0x1102 JUMP JUMPDEST POP POP POP POP POP JUMP JUMPDEST PUSH1 0x0 DUP1 REVERT JUMPDEST PUSH1 0x0 PUSH20 0xFFFFFFFFFFFFFFFFFFFFFFFFFFFFFFFFFFFFFFFF DUP3 AND SWAP1 POP SWAP2 SWAP1 POP JUMP JUMPDEST PUSH1 0x0 PUSH2 0x155B DUP3 PUSH2 0x1530 JUMP JUMPDEST SWAP1 POP SWAP2 SWAP1 POP JUMP JUMPDEST PUSH2 0x156B DUP2 PUSH2 0x1550 JUMP JUMPDEST DUP2 EQ PUSH2 0x1576 JUMPI PUSH1 0x0 DUP1 REVERT JUMPDEST POP JUMP JUMPDEST PUSH1 0x0 DUP2 CALLDATALOAD SWAP1 POP PUSH2 0x1588 DUP2 PUSH2 0x1562 JUMP JUMPDEST SWAP3 SWAP2 POP POP JUMP JUMPDEST PUSH1 0x0 DUP2 SWAP1 POP SWAP2 SWAP1 POP JUMP JUMPDEST PUSH2 0x15A1 DUP2 PUSH2 0x158E JUMP JUMPDEST DUP2 EQ PUSH2 0x15AC JUMPI PUSH1 0x0 DUP1 REVERT JUMPDEST POP JUMP JUMPDEST PUSH1 0x0 DUP2 CALLDATALOAD SWAP1 POP PUSH2 0x15BE DUP2 PUSH2 0x1598 JUMP JUMPDEST SWAP3 SWAP2 POP POP JUMP JUMPDEST PUSH1 0x0 DUP1 PUSH1 0x40 DUP4 DUP6 SUB SLT ISZERO PUSH2 0x15DB JUMPI PUSH2 0x15DA PUSH2 0x152B JUMP JUMPDEST JUMPDEST PUSH1 0x0 PUSH2 0x15E9 DUP6 DUP3 DUP7 ADD PUSH2 0x1579 JUMP JUMPDEST SWAP3 POP POP PUSH1 0x20 PUSH2 0x15FA DUP6 DUP3 DUP7 ADD PUSH2 0x15AF JUMP JUMPDEST SWAP2 POP POP SWAP3 POP SWAP3 SWAP1 POP JUMP JUMPDEST PUSH2 0x160D DUP2 PUSH2 0x1550 JUMP JUMPDEST DUP3 MSTORE POP POP JUMP JUMPDEST PUSH2 0x161C DUP2 PUSH2 0x158E JUMP JUMPDEST DUP3 MSTORE POP POP JUMP JUMPDEST PUSH32 0x4E487B7100000000000000000000000000000000000000000000000000000000 PUSH1 0x0 MSTORE PUSH1 0x21 PUSH1 0x4 MSTORE PUSH1 0x24 PUSH1 0x0 REVERT JUMPDEST PUSH1 0x3 DUP2 LT PUSH2 0x1662 JUMPI PUSH2 0x1661 PUSH2 0x1622 JUMP JUMPDEST JUMPDEST POP JUMP JUMPDEST PUSH1 0x0 DUP2 SWAP1 POP PUSH2 0x1673 DUP3 PUSH2 0x1651 JUMP JUMPDEST SWAP2 SWAP1 POP JUMP JUMPDEST PUSH1 0x0 PUSH2 0x1683 DUP3 PUSH2 0x1665 JUMP JUMPDEST SWAP1 POP SWAP2 SWAP1 POP JUMP JUMPDEST PUSH2 0x1693 DUP2 PUSH2 0x1678 JUMP JUMPDEST DUP3 MSTORE POP POP JUMP JUMPDEST PUSH1 0x0 PUSH1 0x60 DUP3 ADD SWAP1 POP PUSH2 0x16AE PUSH1 0x0 DUP4 ADD DUP7 PUSH2 0x1604 JUMP JUMPDEST PUSH2 0x16BB PUSH1 0x20 DUP4 ADD DUP6 PUSH2 0x1613 JUMP JUMPDEST PUSH2 0x16C8 PUSH1 0x40 DUP4 ADD DUP5 PUSH2 0x168A JUMP JUMPDEST SWAP5 SWAP4 POP POP POP POP JUMP JUMPDEST PUSH1 0x0 PUSH1 0x20 DUP3 DUP5 SUB SLT ISZERO PUSH2 0x16E6 JUMPI PUSH2 0x16E5 PUSH2 0x152B JUMP JUMPDEST JUMPDEST PUSH1 0x0 PUSH2 0x16F4 DUP5 DUP3 DUP6 ADD PUSH2 0x1579 JUMP JUMPDEST SWAP2 POP POP SWAP3 SWAP2 POP POP JUMP JUMPDEST PUSH1 0x0 PUSH1 0x20 DUP3 ADD SWAP1 POP PUSH2 0x1712 PUSH1 0x0 DUP4 ADD DUP5 PUSH2 0x1604 JUMP JUMPDEST SWAP3 SWAP2 POP POP JUMP JUMPDEST PUSH1 0x0 DUP1 PUSH1 0x40 DUP4 DUP6 SUB SLT ISZERO PUSH2 0x172F JUMPI PUSH2 0x172E PUSH2 0x152B JUMP JUMPDEST JUMPDEST PUSH1 0x0 PUSH2 0x173D DUP6 DUP3 DUP7 ADD PUSH2 0x1579 JUMP JUMPDEST SWAP3 POP POP PUSH1 0x20 PUSH2 0x174E DUP6 DUP3 DUP7 ADD PUSH2 0x1579 JUMP JUMPDEST SWAP2 POP POP SWAP3 POP SWAP3 SWAP1 POP JUMP JUMPDEST PUSH1 0x0 DUP3 DUP3 MSTORE PUSH1 0x20 DUP3 ADD SWAP1 POP SWAP3 SWAP2 POP POP JUMP JUMPDEST PUSH32 0x596F7520646F6E27742068617665206163636573730000000000000000000000 PUSH1 0x0 DUP3 ADD MSTORE POP JUMP JUMPDEST PUSH1 0x0 PUSH2 0x179F PUSH1 0x15 DUP4 PUSH2 0x1758 JUMP JUMPDEST SWAP2 POP PUSH2 0x17AA DUP3 PUSH2 0x1769 JUMP JUMPDEST PUSH1 0x20 DUP3 ADD SWAP1 POP SWAP2 SWAP1 POP JUMP JUMPDEST PUSH1 0x0 PUSH1 0x20 DUP3 ADD SWAP1 POP DUP2 DUP2 SUB PUSH1 0x0 DUP4 ADD MSTORE PUSH2 0x17CE DUP2 PUSH2 0x1792 JUMP JUMPDEST SWAP1 POP SWAP2 SWAP1 POP JUMP JUMPDEST PUSH32 0x4D65646961746F722063616E6E6F742062652073656C6C657200000000000000 PUSH1 0x0 DUP3 ADD MSTORE POP JUMP JUMPDEST PUSH1 0x0 PUSH2 0x180B PUSH1 0x19 DUP4 PUSH2 0x1758 JUMP JUMPDEST SWAP2 POP PUSH2 0x1816 DUP3 PUSH2 0x17D5 JUMP JUMPDEST PUSH1 0x20 DUP3 ADD SWAP1 POP SWAP2 SWAP1 POP JUMP JUMPDEST PUSH1 0x0 PUSH1 0x20 DUP3 ADD SWAP1 POP DUP2 DUP2 SUB PUSH1 0x0 DUP4 ADD MSTORE PUSH2 0x183A DUP2 PUSH2 0x17FE JUMP JUMPDEST SWAP1 POP SWAP2 SWAP1 POP JUMP JUMPDEST PUSH32 0x4D65646961746F722063616E6E6F742062652062757965720000000000000000 PUSH1 0x0 DUP3 ADD MSTORE POP JUMP JUMPDEST PUSH1 0x0 PUSH2 0x1877 PUSH1 0x18 DUP4 PUSH2 0x1758 JUMP JUMPDEST SWAP2 POP PUSH2 0x1882 DUP3 PUSH2 0x1841 JUMP JUMPDEST PUSH1 0x20 DUP3 ADD SWAP1 POP SWAP2 SWAP1 POP JUMP JUMPDEST PUSH1 0x0 PUSH1 0x20 DUP3 ADD SWAP1 POP DUP2 DUP2 SUB PUSH1 0x0 DUP4 ADD MSTORE PUSH2 0x18A6 DUP2 PUSH2 0x186A JUMP JUMPDEST SWAP1 POP SWAP2 SWAP1 POP JUMP JUMPDEST PUSH32 0x4E487B7100000000000000000000000000000000000000000000000000000000 PUSH1 0x0 MSTORE PUSH1 0x32 PUSH1 0x4 MSTORE PUSH1 0x24 PUSH1 0x0 REVERT JUMPDEST PUSH32 0x496E76616C696420726571756573740000000000000000000000000000000000 PUSH1 0x0 DUP3 ADD MSTORE POP JUMP JUMPDEST PUSH1 0x0 PUSH2 0x1912 PUSH1 0xF DUP4 PUSH2 0x1758 JUMP JUMPDEST SWAP2 POP PUSH2 0x191D DUP3 PUSH2 0x18DC JUMP JUMPDEST PUSH1 0x20 DUP3 ADD SWAP1 POP SWAP2 SWAP1 POP JUMP JUMPDEST PUSH1 0x0 PUSH1 0x20 DUP3 ADD SWAP1 POP DUP2 DUP2 SUB PUSH1 0x0 DUP4 ADD MSTORE PUSH2 0x1941 DUP2 PUSH2 0x1905 JUMP JUMPDEST SWAP1 POP SWAP2 SWAP1 POP JUMP JUMPDEST PUSH1 0x0 PUSH1 0x60 DUP3 ADD SWAP1 POP PUSH2 0x195D PUSH1 0x0 DUP4 ADD DUP7 PUSH2 0x1604 JUMP JUMPDEST PUSH2 0x196A PUSH1 0x20 DUP4 ADD DUP6 PUSH2 0x1604 JUMP JUMPDEST PUSH2 0x1977 PUSH1 0x40 DUP4 ADD DUP5 PUSH2 0x1613 JUMP JUMPDEST SWAP5 SWAP4 POP POP POP POP JUMP JUMPDEST PUSH32 0x4E487B7100000000000000000000000000000000000000000000000000000000 PUSH1 0x0 MSTORE PUSH1 0x11 PUSH1 0x4 MSTORE PUSH1 0x24 PUSH1 0x0 REVERT JUMPDEST PUSH1 0x0 PUSH2 0x19B9 DUP3 PUSH2 0x158E JUMP JUMPDEST SWAP2 POP PUSH32 0xFFFFFFFFFFFFFFFFFFFFFFFFFFFFFFFFFFFFFFFFFFFFFFFFFFFFFFFFFFFFFFFF DUP3 SUB PUSH2 0x19EB JUMPI PUSH2 0x19EA PUSH2 0x197F JUMP JUMPDEST JUMPDEST PUSH1 0x1 DUP3 ADD SWAP1 POP SWAP2 SWAP1 POP JUMP JUMPDEST PUSH32 0x596F7520646F6E74206861766520616363657373210000000000000000000000 PUSH1 0x0 DUP3 ADD MSTORE POP JUMP JUMPDEST PUSH1 0x0 PUSH2 0x1A2C PUSH1 0x15 DUP4 PUSH2 0x1758 JUMP JUMPDEST SWAP2 POP PUSH2 0x1A37 DUP3 PUSH2 0x19F6 JUMP JUMPDEST PUSH1 0x20 DUP3 ADD SWAP1 POP SWAP2 SWAP1 POP JUMP JUMPDEST PUSH1 0x0 PUSH1 0x20 DUP3 ADD SWAP1 POP DUP2 DUP2 SUB PUSH1 0x0 DUP4 ADD MSTORE PUSH2 0x1A5B DUP2 PUSH2 0x1A1F JUMP JUMPDEST SWAP1 POP SWAP2 SWAP1 POP JUMP JUMPDEST PUSH1 0x0 PUSH1 0x40 DUP3 ADD SWAP1 POP PUSH2 0x1A77 PUSH1 0x0 DUP4 ADD DUP6 PUSH2 0x1604 JUMP JUMPDEST PUSH2 0x1A84 PUSH1 0x20 DUP4 ADD DUP5 PUSH2 0x1604 JUMP JUMPDEST SWAP4 SWAP3 POP POP POP JUMP JUMPDEST PUSH32 0x496E76616C696420616D6F756E74000000000000000000000000000000000000 PUSH1 0x0 DUP3 ADD MSTORE POP JUMP JUMPDEST PUSH1 0x0 PUSH2 0x1AC1 PUSH1 0xE DUP4 PUSH2 0x1758 JUMP JUMPDEST SWAP2 POP PUSH2 0x1ACC DUP3 PUSH2 0x1A8B JUMP JUMPDEST PUSH1 0x20 DUP3 ADD SWAP1 POP SWAP2 SWAP1 POP JUMP JUMPDEST PUSH1 0x0 PUSH1 0x20 DUP3 ADD SWAP1 POP DUP2 DUP2 SUB PUSH1 0x0 DUP4 ADD MSTORE PUSH2 0x1AF0 DUP2 PUSH2 0x1AB4 JUMP JUMPDEST SWAP1 POP SWAP2 SWAP1 POP JUMP JUMPDEST PUSH1 0x0 PUSH2 0x1B02 DUP3 PUSH2 0x158E JUMP JUMPDEST SWAP2 POP PUSH2 0x1B0D DUP4 PUSH2 0x158E JUMP JUMPDEST SWAP3 POP DUP3 DUP3 ADD SWAP1 POP DUP1 DUP3 GT ISZERO PUSH2 0x1B25 JUMPI PUSH2 0x1B24 PUSH2 0x197F JUMP JUMPDEST JUMPDEST SWAP3 SWAP2 POP POP JUMP INVALID LOG2 PUSH5 0x6970667358 0x22 SLT KECCAK256 SWAP9 MUL EXP SWAP12 CODECOPY 0xA7 SWAP5 PUSH3 0xAE30E9 BLOCKHASH PUSH2 0xF37C ADDMOD 0xF7 NUMBER JUMPI 0x2E 0xFC 0xB2 0xDA 0xB2 0xB0 RETURNDATASIZE 0x2A PUSH21 0x2F019F9C64736F6C63430008120033000000000000 "
				},
				"gasEstimates": {
					"creation": {
						"codeDepositCost": "1401800",
						"executionCost": "25731",
						"totalCost": "1427531"
					},
					"external": {
						"delivered(address,address)": "infinite",
						"lock(address)": "infinite",
						"mediator()": "2533",
						"refund(address)": "infinite",
						"release(address)": "infinite",
						"transactions(address,uint256)": "infinite"
					}
				},
				"methodIdentifiers": {
					"delivered(address,address)": "b900a94a",
					"lock(address)": "f435f5a7",
					"mediator()": "6d0501f6",
					"refund(address)": "fa89401a",
					"release(address)": "19165587",
					"transactions(address,uint256)": "14538128"
				}
			},
			"storageLayout": {
				"storage": [
					{
						"astId": 3,
						"contract": "contracts/127.sol:AEscrow",
						"label": "mediator",
						"offset": 0,
						"slot": "0",
						"type": "t_address"
					},
					{
						"astId": 21,
						"contract": "contracts/127.sol:AEscrow",
						"label": "transactions",
						"offset": 0,
						"slot": "1",
						"type": "t_mapping(t_address,t_array(t_struct(Seller)15_storage)dyn_storage)"
					}
				],
				"types": {
					"t_address": {
						"encoding": "inplace",
						"label": "address",
						"numberOfBytes": "20"
					},
					"t_array(t_struct(Seller)15_storage)dyn_storage": {
						"base": "t_struct(Seller)15_storage",
						"encoding": "dynamic_array",
						"label": "struct AEscrow.Seller[]",
						"numberOfBytes": "32"
					},
					"t_enum(situation)7": {
						"encoding": "inplace",
						"label": "enum AEscrow.situation",
						"numberOfBytes": "1"
					},
					"t_mapping(t_address,t_array(t_struct(Seller)15_storage)dyn_storage)": {
						"encoding": "mapping",
						"key": "t_address",
						"label": "mapping(address => struct AEscrow.Seller[])",
						"numberOfBytes": "32",
						"value": "t_array(t_struct(Seller)15_storage)dyn_storage"
					},
					"t_struct(Seller)15_storage": {
						"encoding": "inplace",
						"label": "struct AEscrow.Seller",
						"members": [
							{
								"astId": 9,
								"contract": "contracts/127.sol:AEscrow",
								"label": "seller",
								"offset": 0,
								"slot": "0",
								"type": "t_address"
							},
							{
								"astId": 11,
								"contract": "contracts/127.sol:AEscrow",
								"label": "amount",
								"offset": 0,
								"slot": "1",
								"type": "t_uint256"
							},
							{
								"astId": 14,
								"contract": "contracts/127.sol:AEscrow",
								"label": "state",
								"offset": 0,
								"slot": "2",
								"type": "t_enum(situation)7"
							}
						],
						"numberOfBytes": "96"
					},
					"t_uint256": {
						"encoding": "inplace",
						"label": "uint256",
						"numberOfBytes": "32"
					}
				}
			},
			"userdoc": {
				"kind": "user",
				"methods": {},
				"version": 1
			}
		}
	}
}