{
	"data": {
		"bytecode": {
			"linkReferences": {},
			"object": "608060405234801561001057600080fd5b5061130b806100206000396000f3fe608060405234801561001057600080fd5b50600436106100575760003560e01c80630bb2e3e41461005c57806319c4793f1461008c5780632ba56834146100a85780635449e2fc146100c457806359d21ad9146100f4575b600080fd5b610076600480360381019061007191906109bc565b6100fe565b6040516100839190610a37565b60405180910390f35b6100a660048036038101906100a19190610a52565b610245565b005b6100c260048036038101906100bd9190610a9f565b610414565b005b6100de60048036038101906100d991906109bc565b610647565b6040516100eb9190610bb0565b60405180910390f35b6100fc610809565b005b6000828260405180602001604052806000815250805190602001206000803373ffffffffffffffffffffffffffffffffffffffff1673ffffffffffffffffffffffffffffffffffffffff168152602001908152602001600020600101838360405161016a929190610c11565b90815260200160405180910390206040516101859190610d2d565b6040518091039020036101cd576040517f08c379a00000000000000000000000000000000000000000000000000000000081526004016101c490610d90565b60405180910390fd5b6000808773ffffffffffffffffffffffffffffffffffffffff1673ffffffffffffffffffffffffffffffffffffffff168152602001908152602001600020600201858560405161021e929190610c11565b908152602001604051809103902060009054906101000a900460ff16925050509392505050565b60008060003373ffffffffffffffffffffffffffffffffffffffff1673ffffffffffffffffffffffffffffffffffffffff16815260200190815260200160002060000154036102c9576040517f08c379a00000000000000000000000000000000000000000000000000000000081526004016102c090610dfc565b60405180910390fd5b818160405180602001604052806000815250805190602001206000803373ffffffffffffffffffffffffffffffffffffffff1673ffffffffffffffffffffffffffffffffffffffff1681526020019081526020016000206001018383604051610333929190610c11565b908152602001604051809103902060405161034e9190610d2d565b604051809103902003610396576040517f08c379a000000000000000000000000000000000000000000000000000000000815260040161038d90610d90565b60405180910390fd5b60016000803373ffffffffffffffffffffffffffffffffffffffff1673ffffffffffffffffffffffffffffffffffffffff16815260200190815260200160002060020185856040516103e9929190610c11565b908152602001604051809103902060006101000a81548160ff02191690831515021790555050505050565b60008060003373ffffffffffffffffffffffffffffffffffffffff1673ffffffffffffffffffffffffffffffffffffffff1681526020019081526020016000206000015403610498576040517f08c379a000000000000000000000000000000000000000000000000000000000815260040161048f90610dfc565b60405180910390fd5b60405180602001604052806000815250805190602001206000803373ffffffffffffffffffffffffffffffffffffffff1673ffffffffffffffffffffffffffffffffffffffff1681526020019081526020016000206001018585604051610500929190610c11565b908152602001604051809103902060405161051b9190610d2d565b604051809103902014610563576040517f08c379a000000000000000000000000000000000000000000000000000000000815260040161055a90610e68565b60405180910390fd5b6040518060200160405280600081525080519060200120828260405161058a929190610ead565b6040518091039020036105d2576040517f08c379a00000000000000000000000000000000000000000000000000000000081526004016105c990610f12565b60405180910390fd5b81816000803373ffffffffffffffffffffffffffffffffffffffff1673ffffffffffffffffffffffffffffffffffffffff1681526020019081526020016000206001018686604051610625929190610c11565b90815260200160405180910390209182610640929190611122565b5050505050565b6060828260405180602001604052806000815250805190602001206000803373ffffffffffffffffffffffffffffffffffffffff1673ffffffffffffffffffffffffffffffffffffffff16815260200190815260200160002060010183836040516106b3929190610c11565b90815260200160405180910390206040516106ce9190610d2d565b604051809103902003610716576040517f08c379a000000000000000000000000000000000000000000000000000000000815260040161070d90610d90565b60405180910390fd5b6000808773ffffffffffffffffffffffffffffffffffffffff1673ffffffffffffffffffffffffffffffffffffffff1681526020019081526020016000206001018585604051610767929190610c11565b9081526020016040518091039020805461078090610c59565b80601f01602080910402602001604051908101604052809291908181526020018280546107ac90610c59565b80156107f95780601f106107ce576101008083540402835291602001916107f9565b820191906000526020600020905b8154815290600101906020018083116107dc57829003601f168201915b5050505050925050509392505050565b60008060003373ffffffffffffffffffffffffffffffffffffffff1673ffffffffffffffffffffffffffffffffffffffff168152602001908152602001600020600001541461088d576040517f08c379a00000000000000000000000000000000000000000000000000000000081526004016108849061123e565b60405180910390fd5b600160008154809291906108a09061128d565b91905055506001546000803373ffffffffffffffffffffffffffffffffffffffff1673ffffffffffffffffffffffffffffffffffffffff16815260200190815260200160002060000181905550565b600080fd5b600080fd5b600073ffffffffffffffffffffffffffffffffffffffff82169050919050565b6000610924826108f9565b9050919050565b61093481610919565b811461093f57600080fd5b50565b6000813590506109518161092b565b92915050565b600080fd5b600080fd5b600080fd5b60008083601f84011261097c5761097b610957565b5b8235905067ffffffffffffffff8111156109995761099861095c565b5b6020830191508360018202830111156109b5576109b4610961565b5b9250929050565b6000806000604084860312156109d5576109d46108ef565b5b60006109e386828701610942565b935050602084013567ffffffffffffffff811115610a0457610a036108f4565b5b610a1086828701610966565b92509250509250925092565b60008115159050919050565b610a3181610a1c565b82525050565b6000602082019050610a4c6000830184610a28565b92915050565b60008060208385031215610a6957610a686108ef565b5b600083013567ffffffffffffffff811115610a8757610a866108f4565b5b610a9385828601610966565b92509250509250929050565b60008060008060408587031215610ab957610ab86108ef565b5b600085013567ffffffffffffffff811115610ad757610ad66108f4565b5b610ae387828801610966565b9450945050602085013567ffffffffffffffff811115610b0657610b056108f4565b5b610b1287828801610966565b925092505092959194509250565b600081519050919050565b600082825260208201905092915050565b60005b83811015610b5a578082015181840152602081019050610b3f565b60008484015250505050565b6000601f19601f8301169050919050565b6000610b8282610b20565b610b8c8185610b2b565b9350610b9c818560208601610b3c565b610ba581610b66565b840191505092915050565b60006020820190508181036000830152610bca8184610b77565b905092915050565b600081905092915050565b82818337600083830152505050565b6000610bf88385610bd2565b9350610c05838584610bdd565b82840190509392505050565b6000610c1e828486610bec565b91508190509392505050565b7f4e487b7100000000000000000000000000000000000000000000000000000000600052602260045260246000fd5b60006002820490506001821680610c7157607f821691505b602082108103610c8457610c83610c2a565b5b50919050565b600081905092915050565b60008190508160005260206000209050919050565b60008154610cb781610c59565b610cc18186610c8a565b94506001821660008114610cdc5760018114610cf157610d24565b60ff1983168652811515820286019350610d24565b610cfa85610c95565b60005b83811015610d1c57815481890152600182019150602081019050610cfd565b838801955050505b50505092915050565b6000610d398284610caa565b915081905092915050565b7f41747472696275746520646f6573206e6f742065786973742100000000000000600082015250565b6000610d7a601983610b2b565b9150610d8582610d44565b602082019050919050565b60006020820190508181036000830152610da981610d6d565b9050919050565b7f4964656e7469747920646f6573206e6f74206578697374210000000000000000600082015250565b6000610de6601883610b2b565b9150610df182610db0565b602082019050919050565b60006020820190508181036000830152610e1581610dd9565b9050919050565b7f41747472696275746520616c7265616479206578697374210000000000000000600082015250565b6000610e52601883610b2b565b9150610e5d82610e1c565b602082019050919050565b60006020820190508181036000830152610e8181610e45565b9050919050565b6000610e948385610c8a565b9350610ea1838584610bdd565b82840190509392505050565b6000610eba828486610e88565b91508190509392505050565b7f56616c75652063616e206e6f7420626520656d70747900000000000000000000600082015250565b6000610efc601683610b2b565b9150610f0782610ec6565b602082019050919050565b60006020820190508181036000830152610f2b81610eef565b9050919050565b600082905092915050565b7f4e487b7100000000000000000000000000000000000000000000000000000000600052604160045260246000fd5b60008190508160005260206000209050919050565b60006020601f8301049050919050565b600082821b905092915050565b600060088302610fce7fffffffffffffffffffffffffffffffffffffffffffffffffffffffffffffffff82610f91565b610fd88683610f91565b95508019841693508086168417925050509392505050565b6000819050919050565b6000819050919050565b600061101f61101a61101584610ff0565b610ffa565b610ff0565b9050919050565b6000819050919050565b61103983611004565b61104d61104582611026565b848454610f9e565b825550505050565b600090565b611062611055565b61106d818484611030565b505050565b5b818110156110915761108660008261105a565b600181019050611073565b5050565b601f8211156110d6576110a781610f6c565b6110b084610f81565b810160208510156110bf578190505b6110d36110cb85610f81565b830182611072565b50505b505050565b600082821c905092915050565b60006110f9600019846008026110db565b1980831691505092915050565b600061111283836110e8565b9150826002028217905092915050565b61112c8383610f32565b67ffffffffffffffff81111561114557611144610f3d565b5b61114f8254610c59565b61115a828285611095565b6000601f8311600181146111895760008415611177578287013590505b6111818582611106565b8655506111e9565b601f19841661119786610f6c565b60005b828110156111bf5784890135825560018201915060208501945060208101905061119a565b868310156111dc57848901356111d8601f8916826110e8565b8355505b6001600288020188555050505b50505050505050565b7f4964656e7469747920616c726561647920657869737421000000000000000000600082015250565b6000611228601783610b2b565b9150611233826111f2565b602082019050919050565b600060208201905081810360008301526112578161121b565b9050919050565b7f4e487b7100000000000000000000000000000000000000000000000000000000600052601160045260246000fd5b600061129882610ff0565b91507fffffffffffffffffffffffffffffffffffffffffffffffffffffffffffffffff82036112ca576112c961125e565b5b60018201905091905056fea264697066735822122003096977ad868102f3766b91a3f0002e258179d73d377151274444addfa6d27564736f6c63430008120033",
			"opcodes": "PUSH1 0x80 PUSH1 0x40 MSTORE CALLVALUE DUP1 ISZERO PUSH2 0x10 JUMPI PUSH1 0x0 DUP1 REVERT JUMPDEST POP PUSH2 0x130B DUP1 PUSH2 0x20 PUSH1 0x0 CODECOPY PUSH1 0x0 RETURN INVALID PUSH1 0x80 PUSH1 0x40 MSTORE CALLVALUE DUP1 ISZERO PUSH2 0x10 JUMPI PUSH1 0x0 DUP1 REVERT JUMPDEST POP PUSH1 0x4 CALLDATASIZE LT PUSH2 0x57 JUMPI PUSH1 0x0 CALLDATALOAD PUSH1 0xE0 SHR DUP1 PUSH4 0xBB2E3E4 EQ PUSH2 0x5C JUMPI DUP1 PUSH4 0x19C4793F EQ PUSH2 0x8C JUMPI DUP1 PUSH4 0x2BA56834 EQ PUSH2 0xA8 JUMPI DUP1 PUSH4 0x5449E2FC EQ PUSH2 0xC4 JUMPI DUP1 PUSH4 0x59D21AD9 EQ PUSH2 0xF4 JUMPI JUMPDEST PUSH1 0x0 DUP1 REVERT JUMPDEST PUSH2 0x76 PUSH1 0x4 DUP1 CALLDATASIZE SUB DUP2 ADD SWAP1 PUSH2 0x71 SWAP2 SWAP1 PUSH2 0x9BC JUMP JUMPDEST PUSH2 0xFE JUMP JUMPDEST PUSH1 0x40 MLOAD PUSH2 0x83 SWAP2 SWAP1 PUSH2 0xA37 JUMP JUMPDEST PUSH1 0x40 MLOAD DUP1 SWAP2 SUB SWAP1 RETURN JUMPDEST PUSH2 0xA6 PUSH1 0x4 DUP1 CALLDATASIZE SUB DUP2 ADD SWAP1 PUSH2 0xA1 SWAP2 SWAP1 PUSH2 0xA52 JUMP JUMPDEST PUSH2 0x245 JUMP JUMPDEST STOP JUMPDEST PUSH2 0xC2 PUSH1 0x4 DUP1 CALLDATASIZE SUB DUP2 ADD SWAP1 PUSH2 0xBD SWAP2 SWAP1 PUSH2 0xA9F JUMP JUMPDEST PUSH2 0x414 JUMP JUMPDEST STOP JUMPDEST PUSH2 0xDE PUSH1 0x4 DUP1 CALLDATASIZE SUB DUP2 ADD SWAP1 PUSH2 0xD9 SWAP2 SWAP1 PUSH2 0x9BC JUMP JUMPDEST PUSH2 0x647 JUMP JUMPDEST PUSH1 0x40 MLOAD PUSH2 0xEB SWAP2 SWAP1 PUSH2 0xBB0 JUMP JUMPDEST PUSH1 0x40 MLOAD DUP1 SWAP2 SUB SWAP1 RETURN JUMPDEST PUSH2 0xFC PUSH2 0x809 JUMP JUMPDEST STOP JUMPDEST PUSH1 0x0 DUP3 DUP3 PUSH1 0x40 MLOAD DUP1 PUSH1 0x20 ADD PUSH1 0x40 MSTORE DUP1 PUSH1 0x0 DUP2 MSTORE POP DUP1 MLOAD SWAP1 PUSH1 0x20 ADD KECCAK256 PUSH1 0x0 DUP1 CALLER PUSH20 0xFFFFFFFFFFFFFFFFFFFFFFFFFFFFFFFFFFFFFFFF AND PUSH20 0xFFFFFFFFFFFFFFFFFFFFFFFFFFFFFFFFFFFFFFFF AND DUP2 MSTORE PUSH1 0x20 ADD SWAP1 DUP2 MSTORE PUSH1 0x20 ADD PUSH1 0x0 KECCAK256 PUSH1 0x1 ADD DUP4 DUP4 PUSH1 0x40 MLOAD PUSH2 0x16A SWAP3 SWAP2 SWAP1 PUSH2 0xC11 JUMP JUMPDEST SWAP1 DUP2 MSTORE PUSH1 0x20 ADD PUSH1 0x40 MLOAD DUP1 SWAP2 SUB SWAP1 KECCAK256 PUSH1 0x40 MLOAD PUSH2 0x185 SWAP2 SWAP1 PUSH2 0xD2D JUMP JUMPDEST PUSH1 0x40 MLOAD DUP1 SWAP2 SUB SWAP1 KECCAK256 SUB PUSH2 0x1CD JUMPI PUSH1 0x40 MLOAD PUSH32 0x8C379A000000000000000000000000000000000000000000000000000000000 DUP2 MSTORE PUSH1 0x4 ADD PUSH2 0x1C4 SWAP1 PUSH2 0xD90 JUMP JUMPDEST PUSH1 0x40 MLOAD DUP1 SWAP2 SUB SWAP1 REVERT JUMPDEST PUSH1 0x0 DUP1 DUP8 PUSH20 0xFFFFFFFFFFFFFFFFFFFFFFFFFFFFFFFFFFFFFFFF AND PUSH20 0xFFFFFFFFFFFFFFFFFFFFFFFFFFFFFFFFFFFFFFFF AND DUP2 MSTORE PUSH1 0x20 ADD SWAP1 DUP2 MSTORE PUSH1 0x20 ADD PUSH1 0x0 KECCAK256 PUSH1 0x2 ADD DUP6 DUP6 PUSH1 0x40 MLOAD PUSH2 0x21E SWAP3 SWAP2 SWAP1 PUSH2 0xC11 JUMP JUMPDEST SWAP1 DUP2 MSTORE PUSH1 0x20 ADD PUSH1 0x40 MLOAD DUP1 SWAP2 SUB SWAP1 KECCAK256 PUSH1 0x0 SWAP1 SLOAD SWAP1 PUSH2 0x100 EXP SWAP1 DIV PUSH1 0xFF AND SWAP3 POP POP POP SWAP4 SWAP3 POP POP POP JUMP JUMPDEST PUSH1 0x0 DUP1 PUSH1 0x0 CALLER PUSH20 0xFFFFFFFFFFFFFFFFFFFFFFFFFFFFFFFFFFFFFFFF AND PUSH20 0xFFFFFFFFFFFFFFFFFFFFFFFFFFFFFFFFFFFFFFFF AND DUP2 MSTORE PUSH1 0x20 ADD SWAP1 DUP2 MSTORE PUSH1 0x20 ADD PUSH1 0x0 KECCAK256 PUSH1 0x0 ADD SLOAD SUB PUSH2 0x2C9 JUMPI PUSH1 0x40 MLOAD PUSH32 0x8C379A000000000000000000000000000000000000000000000000000000000 DUP2 MSTORE PUSH1 0x4 ADD PUSH2 0x2C0 SWAP1 PUSH2 0xDFC JUMP JUMPDEST PUSH1 0x40 MLOAD DUP1 SWAP2 SUB SWAP1 REVERT JUMPDEST DUP2 DUP2 PUSH1 0x40 MLOAD DUP1 PUSH1 0x20 ADD PUSH1 0x40 MSTORE DUP1 PUSH1 0x0 DUP2 MSTORE POP DUP1 MLOAD SWAP1 PUSH1 0x20 ADD KECCAK256 PUSH1 0x0 DUP1 CALLER PUSH20 0xFFFFFFFFFFFFFFFFFFFFFFFFFFFFFFFFFFFFFFFF AND PUSH20 0xFFFFFFFFFFFFFFFFFFFFFFFFFFFFFFFFFFFFFFFF AND DUP2 MSTORE PUSH1 0x20 ADD SWAP1 DUP2 MSTORE PUSH1 0x20 ADD PUSH1 0x0 KECCAK256 PUSH1 0x1 ADD DUP4 DUP4 PUSH1 0x40 MLOAD PUSH2 0x333 SWAP3 SWAP2 SWAP1 PUSH2 0xC11 JUMP JUMPDEST SWAP1 DUP2 MSTORE PUSH1 0x20 ADD PUSH1 0x40 MLOAD DUP1 SWAP2 SUB SWAP1 KECCAK256 PUSH1 0x40 MLOAD PUSH2 0x34E SWAP2 SWAP1 PUSH2 0xD2D JUMP JUMPDEST PUSH1 0x40 MLOAD DUP1 SWAP2 SUB SWAP1 KECCAK256 SUB PUSH2 0x396 JUMPI PUSH1 0x40 MLOAD PUSH32 0x8C379A000000000000000000000000000000000000000000000000000000000 DUP2 MSTORE PUSH1 0x4 ADD PUSH2 0x38D SWAP1 PUSH2 0xD90 JUMP JUMPDEST PUSH1 0x40 MLOAD DUP1 SWAP2 SUB SWAP1 REVERT JUMPDEST PUSH1 0x1 PUSH1 0x0 DUP1 CALLER PUSH20 0xFFFFFFFFFFFFFFFFFFFFFFFFFFFFFFFFFFFFFFFF AND PUSH20 0xFFFFFFFFFFFFFFFFFFFFFFFFFFFFFFFFFFFFFFFF AND DUP2 MSTORE PUSH1 0x20 ADD SWAP1 DUP2 MSTORE PUSH1 0x20 ADD PUSH1 0x0 KECCAK256 PUSH1 0x2 ADD DUP6 DUP6 PUSH1 0x40 MLOAD PUSH2 0x3E9 SWAP3 SWAP2 SWAP1 PUSH2 0xC11 JUMP JUMPDEST SWAP1 DUP2 MSTORE PUSH1 0x20 ADD PUSH1 0x40 MLOAD DUP1 SWAP2 SUB SWAP1 KECCAK256 PUSH1 0x0 PUSH2 0x100 EXP DUP2 SLOAD DUP2 PUSH1 0xFF MUL NOT AND SWAP1 DUP4 ISZERO ISZERO MUL OR SWAP1 SSTORE POP POP POP POP POP JUMP JUMPDEST PUSH1 0x0 DUP1 PUSH1 0x0 CALLER PUSH20 0xFFFFFFFFFFFFFFFFFFFFFFFFFFFFFFFFFFFFFFFF AND PUSH20 0xFFFFFFFFFFFFFFFFFFFFFFFFFFFFFFFFFFFFFFFF AND DUP2 MSTORE PUSH1 0x20 ADD SWAP1 DUP2 MSTORE PUSH1 0x20 ADD PUSH1 0x0 KECCAK256 PUSH1 0x0 ADD SLOAD SUB PUSH2 0x498 JUMPI PUSH1 0x40 MLOAD PUSH32 0x8C379A000000000000000000000000000000000000000000000000000000000 DUP2 MSTORE PUSH1 0x4 ADD PUSH2 0x48F SWAP1 PUSH2 0xDFC JUMP JUMPDEST PUSH1 0x40 MLOAD DUP1 SWAP2 SUB SWAP1 REVERT JUMPDEST PUSH1 0x40 MLOAD DUP1 PUSH1 0x20 ADD PUSH1 0x40 MSTORE DUP1 PUSH1 0x0 DUP2 MSTORE POP DUP1 MLOAD SWAP1 PUSH1 0x20 ADD KECCAK256 PUSH1 0x0 DUP1 CALLER PUSH20 0xFFFFFFFFFFFFFFFFFFFFFFFFFFFFFFFFFFFFFFFF AND PUSH20 0xFFFFFFFFFFFFFFFFFFFFFFFFFFFFFFFFFFFFFFFF AND DUP2 MSTORE PUSH1 0x20 ADD SWAP1 DUP2 MSTORE PUSH1 0x20 ADD PUSH1 0x0 KECCAK256 PUSH1 0x1 ADD DUP6 DUP6 PUSH1 0x40 MLOAD PUSH2 0x500 SWAP3 SWAP2 SWAP1 PUSH2 0xC11 JUMP JUMPDEST SWAP1 DUP2 MSTORE PUSH1 0x20 ADD PUSH1 0x40 MLOAD DUP1 SWAP2 SUB SWAP1 KECCAK256 PUSH1 0x40 MLOAD PUSH2 0x51B SWAP2 SWAP1 PUSH2 0xD2D JUMP JUMPDEST PUSH1 0x40 MLOAD DUP1 SWAP2 SUB SWAP1 KECCAK256 EQ PUSH2 0x563 JUMPI PUSH1 0x40 MLOAD PUSH32 0x8C379A000000000000000000000000000000000000000000000000000000000 DUP2 MSTORE PUSH1 0x4 ADD PUSH2 0x55A SWAP1 PUSH2 0xE68 JUMP JUMPDEST PUSH1 0x40 MLOAD DUP1 SWAP2 SUB SWAP1 REVERT JUMPDEST PUSH1 0x40 MLOAD DUP1 PUSH1 0x20 ADD PUSH1 0x40 MSTORE DUP1 PUSH1 0x0 DUP2 MSTORE POP DUP1 MLOAD SWAP1 PUSH1 0x20 ADD KECCAK256 DUP3 DUP3 PUSH1 0x40 MLOAD PUSH2 0x58A SWAP3 SWAP2 SWAP1 PUSH2 0xEAD JUMP JUMPDEST PUSH1 0x40 MLOAD DUP1 SWAP2 SUB SWAP1 KECCAK256 SUB PUSH2 0x5D2 JUMPI PUSH1 0x40 MLOAD PUSH32 0x8C379A000000000000000000000000000000000000000000000000000000000 DUP2 MSTORE PUSH1 0x4 ADD PUSH2 0x5C9 SWAP1 PUSH2 0xF12 JUMP JUMPDEST PUSH1 0x40 MLOAD DUP1 SWAP2 SUB SWAP1 REVERT JUMPDEST DUP2 DUP2 PUSH1 0x0 DUP1 CALLER PUSH20 0xFFFFFFFFFFFFFFFFFFFFFFFFFFFFFFFFFFFFFFFF AND PUSH20 0xFFFFFFFFFFFFFFFFFFFFFFFFFFFFFFFFFFFFFFFF AND DUP2 MSTORE PUSH1 0x20 ADD SWAP1 DUP2 MSTORE PUSH1 0x20 ADD PUSH1 0x0 KECCAK256 PUSH1 0x1 ADD DUP7 DUP7 PUSH1 0x40 MLOAD PUSH2 0x625 SWAP3 SWAP2 SWAP1 PUSH2 0xC11 JUMP JUMPDEST SWAP1 DUP2 MSTORE PUSH1 0x20 ADD PUSH1 0x40 MLOAD DUP1 SWAP2 SUB SWAP1 KECCAK256 SWAP2 DUP3 PUSH2 0x640 SWAP3 SWAP2 SWAP1 PUSH2 0x1122 JUMP JUMPDEST POP POP POP POP POP JUMP JUMPDEST PUSH1 0x60 DUP3 DUP3 PUSH1 0x40 MLOAD DUP1 PUSH1 0x20 ADD PUSH1 0x40 MSTORE DUP1 PUSH1 0x0 DUP2 MSTORE POP DUP1 MLOAD SWAP1 PUSH1 0x20 ADD KECCAK256 PUSH1 0x0 DUP1 CALLER PUSH20 0xFFFFFFFFFFFFFFFFFFFFFFFFFFFFFFFFFFFFFFFF AND PUSH20 0xFFFFFFFFFFFFFFFFFFFFFFFFFFFFFFFFFFFFFFFF AND DUP2 MSTORE PUSH1 0x20 ADD SWAP1 DUP2 MSTORE PUSH1 0x20 ADD PUSH1 0x0 KECCAK256 PUSH1 0x1 ADD DUP4 DUP4 PUSH1 0x40 MLOAD PUSH2 0x6B3 SWAP3 SWAP2 SWAP1 PUSH2 0xC11 JUMP JUMPDEST SWAP1 DUP2 MSTORE PUSH1 0x20 ADD PUSH1 0x40 MLOAD DUP1 SWAP2 SUB SWAP1 KECCAK256 PUSH1 0x40 MLOAD PUSH2 0x6CE SWAP2 SWAP1 PUSH2 0xD2D JUMP JUMPDEST PUSH1 0x40 MLOAD DUP1 SWAP2 SUB SWAP1 KECCAK256 SUB PUSH2 0x716 JUMPI PUSH1 0x40 MLOAD PUSH32 0x8C379A000000000000000000000000000000000000000000000000000000000 DUP2 MSTORE PUSH1 0x4 ADD PUSH2 0x70D SWAP1 PUSH2 0xD90 JUMP JUMPDEST PUSH1 0x40 MLOAD DUP1 SWAP2 SUB SWAP1 REVERT JUMPDEST PUSH1 0x0 DUP1 DUP8 PUSH20 0xFFFFFFFFFFFFFFFFFFFFFFFFFFFFFFFFFFFFFFFF AND PUSH20 0xFFFFFFFFFFFFFFFFFFFFFFFFFFFFFFFFFFFFFFFF AND DUP2 MSTORE PUSH1 0x20 ADD SWAP1 DUP2 MSTORE PUSH1 0x20 ADD PUSH1 0x0 KECCAK256 PUSH1 0x1 ADD DUP6 DUP6 PUSH1 0x40 MLOAD PUSH2 0x767 SWAP3 SWAP2 SWAP1 PUSH2 0xC11 JUMP JUMPDEST SWAP1 DUP2 MSTORE PUSH1 0x20 ADD PUSH1 0x40 MLOAD DUP1 SWAP2 SUB SWAP1 KECCAK256 DUP1 SLOAD PUSH2 0x780 SWAP1 PUSH2 0xC59 JUMP JUMPDEST DUP1 PUSH1 0x1F ADD PUSH1 0x20 DUP1 SWAP2 DIV MUL PUSH1 0x20 ADD PUSH1 0x40 MLOAD SWAP1 DUP2 ADD PUSH1 0x40 MSTORE DUP1 SWAP3 SWAP2 SWAP1 DUP2 DUP2 MSTORE PUSH1 0x20 ADD DUP3 DUP1 SLOAD PUSH2 0x7AC SWAP1 PUSH2 0xC59 JUMP JUMPDEST DUP1 ISZERO PUSH2 0x7F9 JUMPI DUP1 PUSH1 0x1F LT PUSH2 0x7CE JUMPI PUSH2 0x100 DUP1 DUP4 SLOAD DIV MUL DUP4 MSTORE SWAP2 PUSH1 0x20 ADD SWAP2 PUSH2 0x7F9 JUMP JUMPDEST DUP3 ADD SWAP2 SWAP1 PUSH1 0x0 MSTORE PUSH1 0x20 PUSH1 0x0 KECCAK256 SWAP1 JUMPDEST DUP2 SLOAD DUP2 MSTORE SWAP1 PUSH1 0x1 ADD SWAP1 PUSH1 0x20 ADD DUP1 DUP4 GT PUSH2 0x7DC JUMPI DUP3 SWAP1 SUB PUSH1 0x1F AND DUP3 ADD SWAP2 JUMPDEST POP POP POP POP POP SWAP3 POP POP POP SWAP4 SWAP3 POP POP POP JUMP JUMPDEST PUSH1 0x0 DUP1 PUSH1 0x0 CALLER PUSH20 0xFFFFFFFFFFFFFFFFFFFFFFFFFFFFFFFFFFFFFFFF AND PUSH20 0xFFFFFFFFFFFFFFFFFFFFFFFFFFFFFFFFFFFFFFFF AND DUP2 MSTORE PUSH1 0x20 ADD SWAP1 DUP2 MSTORE PUSH1 0x20 ADD PUSH1 0x0 KECCAK256 PUSH1 0x0 ADD SLOAD EQ PUSH2 0x88D JUMPI PUSH1 0x40 MLOAD PUSH32 0x8C379A000000000000000000000000000000000000000000000000000000000 DUP2 MSTORE PUSH1 0x4 ADD PUSH2 0x884 SWAP1 PUSH2 0x123E JUMP JUMPDEST PUSH1 0x40 MLOAD DUP1 SWAP2 SUB SWAP1 REVERT JUMPDEST PUSH1 0x1 PUSH1 0x0 DUP2 SLOAD DUP1 SWAP3 SWAP2 SWAP1 PUSH2 0x8A0 SWAP1 PUSH2 0x128D JUMP JUMPDEST SWAP2 SWAP1 POP SSTORE POP PUSH1 0x1 SLOAD PUSH1 0x0 DUP1 CALLER PUSH20 0xFFFFFFFFFFFFFFFFFFFFFFFFFFFFFFFFFFFFFFFF AND PUSH20 0xFFFFFFFFFFFFFFFFFFFFFFFFFFFFFFFFFFFFFFFF AND DUP2 MSTORE PUSH1 0x20 ADD SWAP1 DUP2 MSTORE PUSH1 0x20 ADD PUSH1 0x0 KECCAK256 PUSH1 0x0 ADD DUP2 SWAP1 SSTORE POP JUMP JUMPDEST PUSH1 0x0 DUP1 REVERT JUMPDEST PUSH1 0x0 DUP1 REVERT JUMPDEST PUSH1 0x0 PUSH20 0xFFFFFFFFFFFFFFFFFFFFFFFFFFFFFFFFFFFFFFFF DUP3 AND SWAP1 POP SWAP2 SWAP1 POP JUMP JUMPDEST PUSH1 0x0 PUSH2 0x924 DUP3 PUSH2 0x8F9 JUMP JUMPDEST SWAP1 POP SWAP2 SWAP1 POP JUMP JUMPDEST PUSH2 0x934 DUP2 PUSH2 0x919 JUMP JUMPDEST DUP2 EQ PUSH2 0x93F JUMPI PUSH1 0x0 DUP1 REVERT JUMPDEST POP JUMP JUMPDEST PUSH1 0x0 DUP2 CALLDATALOAD SWAP1 POP PUSH2 0x951 DUP2 PUSH2 0x92B JUMP JUMPDEST SWAP3 SWAP2 POP POP JUMP JUMPDEST PUSH1 0x0 DUP1 REVERT JUMPDEST PUSH1 0x0 DUP1 REVERT JUMPDEST PUSH1 0x0 DUP1 REVERT JUMPDEST PUSH1 0x0 DUP1 DUP4 PUSH1 0x1F DUP5 ADD SLT PUSH2 0x97C JUMPI PUSH2 0x97B PUSH2 0x957 JUMP JUMPDEST JUMPDEST DUP3 CALLDATALOAD SWAP1 POP PUSH8 0xFFFFFFFFFFFFFFFF DUP2 GT ISZERO PUSH2 0x999 JUMPI PUSH2 0x998 PUSH2 0x95C JUMP JUMPDEST JUMPDEST PUSH1 0x20 DUP4 ADD SWAP2 POP DUP4 PUSH1 0x1 DUP3 MUL DUP4 ADD GT ISZERO PUSH2 0x9B5 JUMPI PUSH2 0x9B4 PUSH2 0x961 JUMP JUMPDEST JUMPDEST SWAP3 POP SWAP3 SWAP1 POP JUMP JUMPDEST PUSH1 0x0 DUP1 PUSH1 0x0 PUSH1 0x40 DUP5 DUP7 SUB SLT ISZERO PUSH2 0x9D5 JUMPI PUSH2 0x9D4 PUSH2 0x8EF JUMP JUMPDEST JUMPDEST PUSH1 0x0 PUSH2 0x9E3 DUP7 DUP3 DUP8 ADD PUSH2 0x942 JUMP JUMPDEST SWAP4 POP POP PUSH1 0x20 DUP5 ADD CALLDATALOAD PUSH8 0xFFFFFFFFFFFFFFFF DUP2 GT ISZERO PUSH2 0xA04 JUMPI PUSH2 0xA03 PUSH2 0x8F4 JUMP JUMPDEST JUMPDEST PUSH2 0xA10 DUP7 DUP3 DUP8 ADD PUSH2 0x966 JUMP JUMPDEST SWAP3 POP SWAP3 POP POP SWAP3 POP SWAP3 POP SWAP3 JUMP JUMPDEST PUSH1 0x0 DUP2 ISZERO ISZERO SWAP1 POP SWAP2 SWAP1 POP JUMP JUMPDEST PUSH2 0xA31 DUP2 PUSH2 0xA1C JUMP JUMPDEST DUP3 MSTORE POP POP JUMP JUMPDEST PUSH1 0x0 PUSH1 0x20 DUP3 ADD SWAP1 POP PUSH2 0xA4C PUSH1 0x0 DUP4 ADD DUP5 PUSH2 0xA28 JUMP JUMPDEST SWAP3 SWAP2 POP POP JUMP JUMPDEST PUSH1 0x0 DUP1 PUSH1 0x20 DUP4 DUP6 SUB SLT ISZERO PUSH2 0xA69 JUMPI PUSH2 0xA68 PUSH2 0x8EF JUMP JUMPDEST JUMPDEST PUSH1 0x0 DUP4 ADD CALLDATALOAD PUSH8 0xFFFFFFFFFFFFFFFF DUP2 GT ISZERO PUSH2 0xA87 JUMPI PUSH2 0xA86 PUSH2 0x8F4 JUMP JUMPDEST JUMPDEST PUSH2 0xA93 DUP6 DUP3 DUP7 ADD PUSH2 0x966 JUMP JUMPDEST SWAP3 POP SWAP3 POP POP SWAP3 POP SWAP3 SWAP1 POP JUMP JUMPDEST PUSH1 0x0 DUP1 PUSH1 0x0 DUP1 PUSH1 0x40 DUP6 DUP8 SUB SLT ISZERO PUSH2 0xAB9 JUMPI PUSH2 0xAB8 PUSH2 0x8EF JUMP JUMPDEST JUMPDEST PUSH1 0x0 DUP6 ADD CALLDATALOAD PUSH8 0xFFFFFFFFFFFFFFFF DUP2 GT ISZERO PUSH2 0xAD7 JUMPI PUSH2 0xAD6 PUSH2 0x8F4 JUMP JUMPDEST JUMPDEST PUSH2 0xAE3 DUP8 DUP3 DUP9 ADD PUSH2 0x966 JUMP JUMPDEST SWAP5 POP SWAP5 POP POP PUSH1 0x20 DUP6 ADD CALLDATALOAD PUSH8 0xFFFFFFFFFFFFFFFF DUP2 GT ISZERO PUSH2 0xB06 JUMPI PUSH2 0xB05 PUSH2 0x8F4 JUMP JUMPDEST JUMPDEST PUSH2 0xB12 DUP8 DUP3 DUP9 ADD PUSH2 0x966 JUMP JUMPDEST SWAP3 POP SWAP3 POP POP SWAP3 SWAP6 SWAP2 SWAP5 POP SWAP3 POP JUMP JUMPDEST PUSH1 0x0 DUP2 MLOAD SWAP1 POP SWAP2 SWAP1 POP JUMP JUMPDEST PUSH1 0x0 DUP3 DUP3 MSTORE PUSH1 0x20 DUP3 ADD SWAP1 POP SWAP3 SWAP2 POP POP JUMP JUMPDEST PUSH1 0x0 JUMPDEST DUP4 DUP2 LT ISZERO PUSH2 0xB5A JUMPI DUP1 DUP3 ADD MLOAD DUP2 DUP5 ADD MSTORE PUSH1 0x20 DUP2 ADD SWAP1 POP PUSH2 0xB3F JUMP JUMPDEST PUSH1 0x0 DUP5 DUP5 ADD MSTORE POP POP POP POP JUMP JUMPDEST PUSH1 0x0 PUSH1 0x1F NOT PUSH1 0x1F DUP4 ADD AND SWAP1 POP SWAP2 SWAP1 POP JUMP JUMPDEST PUSH1 0x0 PUSH2 0xB82 DUP3 PUSH2 0xB20 JUMP JUMPDEST PUSH2 0xB8C DUP2 DUP6 PUSH2 0xB2B JUMP JUMPDEST SWAP4 POP PUSH2 0xB9C DUP2 DUP6 PUSH1 0x20 DUP7 ADD PUSH2 0xB3C JUMP JUMPDEST PUSH2 0xBA5 DUP2 PUSH2 0xB66 JUMP JUMPDEST DUP5 ADD SWAP2 POP POP SWAP3 SWAP2 POP POP JUMP JUMPDEST PUSH1 0x0 PUSH1 0x20 DUP3 ADD SWAP1 POP DUP2 DUP2 SUB PUSH1 0x0 DUP4 ADD MSTORE PUSH2 0xBCA DUP2 DUP5 PUSH2 0xB77 JUMP JUMPDEST SWAP1 POP SWAP3 SWAP2 POP POP JUMP JUMPDEST PUSH1 0x0 DUP2 SWAP1 POP SWAP3 SWAP2 POP POP JUMP JUMPDEST DUP3 DUP2 DUP4 CALLDATACOPY PUSH1 0x0 DUP4 DUP4 ADD MSTORE POP POP POP JUMP JUMPDEST PUSH1 0x0 PUSH2 0xBF8 DUP4 DUP6 PUSH2 0xBD2 JUMP JUMPDEST SWAP4 POP PUSH2 0xC05 DUP4 DUP6 DUP5 PUSH2 0xBDD JUMP JUMPDEST DUP3 DUP5 ADD SWAP1 POP SWAP4 SWAP3 POP POP POP JUMP JUMPDEST PUSH1 0x0 PUSH2 0xC1E DUP3 DUP5 DUP7 PUSH2 0xBEC JUMP JUMPDEST SWAP2 POP DUP2 SWAP1 POP SWAP4 SWAP3 POP POP POP JUMP JUMPDEST PUSH32 0x4E487B7100000000000000000000000000000000000000000000000000000000 PUSH1 0x0 MSTORE PUSH1 0x22 PUSH1 0x4 MSTORE PUSH1 0x24 PUSH1 0x0 REVERT JUMPDEST PUSH1 0x0 PUSH1 0x2 DUP3 DIV SWAP1 POP PUSH1 0x1 DUP3 AND DUP1 PUSH2 0xC71 JUMPI PUSH1 0x7F DUP3 AND SWAP2 POP JUMPDEST PUSH1 0x20 DUP3 LT DUP2 SUB PUSH2 0xC84 JUMPI PUSH2 0xC83 PUSH2 0xC2A JUMP JUMPDEST JUMPDEST POP SWAP2 SWAP1 POP JUMP JUMPDEST PUSH1 0x0 DUP2 SWAP1 POP SWAP3 SWAP2 POP POP JUMP JUMPDEST PUSH1 0x0 DUP2 SWAP1 POP DUP2 PUSH1 0x0 MSTORE PUSH1 0x20 PUSH1 0x0 KECCAK256 SWAP1 POP SWAP2 SWAP1 POP JUMP JUMPDEST PUSH1 0x0 DUP2 SLOAD PUSH2 0xCB7 DUP2 PUSH2 0xC59 JUMP JUMPDEST PUSH2 0xCC1 DUP2 DUP7 PUSH2 0xC8A JUMP JUMPDEST SWAP5 POP PUSH1 0x1 DUP3 AND PUSH1 0x0 DUP2 EQ PUSH2 0xCDC JUMPI PUSH1 0x1 DUP2 EQ PUSH2 0xCF1 JUMPI PUSH2 0xD24 JUMP JUMPDEST PUSH1 0xFF NOT DUP4 AND DUP7 MSTORE DUP2 ISZERO ISZERO DUP3 MUL DUP7 ADD SWAP4 POP PUSH2 0xD24 JUMP JUMPDEST PUSH2 0xCFA DUP6 PUSH2 0xC95 JUMP JUMPDEST PUSH1 0x0 JUMPDEST DUP4 DUP2 LT ISZERO PUSH2 0xD1C JUMPI DUP2 SLOAD DUP2 DUP10 ADD MSTORE PUSH1 0x1 DUP3 ADD SWAP2 POP PUSH1 0x20 DUP2 ADD SWAP1 POP PUSH2 0xCFD JUMP JUMPDEST DUP4 DUP9 ADD SWAP6 POP POP POP JUMPDEST POP POP POP SWAP3 SWAP2 POP POP JUMP JUMPDEST PUSH1 0x0 PUSH2 0xD39 DUP3 DUP5 PUSH2 0xCAA JUMP JUMPDEST SWAP2 POP DUP2 SWAP1 POP SWAP3 SWAP2 POP POP JUMP JUMPDEST PUSH32 0x41747472696275746520646F6573206E6F742065786973742100000000000000 PUSH1 0x0 DUP3 ADD MSTORE POP JUMP JUMPDEST PUSH1 0x0 PUSH2 0xD7A PUSH1 0x19 DUP4 PUSH2 0xB2B JUMP JUMPDEST SWAP2 POP PUSH2 0xD85 DUP3 PUSH2 0xD44 JUMP JUMPDEST PUSH1 0x20 DUP3 ADD SWAP1 POP SWAP2 SWAP1 POP JUMP JUMPDEST PUSH1 0x0 PUSH1 0x20 DUP3 ADD SWAP1 POP DUP2 DUP2 SUB PUSH1 0x0 DUP4 ADD MSTORE PUSH2 0xDA9 DUP2 PUSH2 0xD6D JUMP JUMPDEST SWAP1 POP SWAP2 SWAP1 POP JUMP JUMPDEST PUSH32 0x4964656E7469747920646F6573206E6F74206578697374210000000000000000 PUSH1 0x0 DUP3 ADD MSTORE POP JUMP JUMPDEST PUSH1 0x0 PUSH2 0xDE6 PUSH1 0x18 DUP4 PUSH2 0xB2B JUMP JUMPDEST SWAP2 POP PUSH2 0xDF1 DUP3 PUSH2 0xDB0 JUMP JUMPDEST PUSH1 0x20 DUP3 ADD SWAP1 POP SWAP2 SWAP1 POP JUMP JUMPDEST PUSH1 0x0 PUSH1 0x20 DUP3 ADD SWAP1 POP DUP2 DUP2 SUB PUSH1 0x0 DUP4 ADD MSTORE PUSH2 0xE15 DUP2 PUSH2 0xDD9 JUMP JUMPDEST SWAP1 POP SWAP2 SWAP1 POP JUMP JUMPDEST PUSH32 0x41747472696275746520616C7265616479206578697374210000000000000000 PUSH1 0x0 DUP3 ADD MSTORE POP JUMP JUMPDEST PUSH1 0x0 PUSH2 0xE52 PUSH1 0x18 DUP4 PUSH2 0xB2B JUMP JUMPDEST SWAP2 POP PUSH2 0xE5D DUP3 PUSH2 0xE1C JUMP JUMPDEST PUSH1 0x20 DUP3 ADD SWAP1 POP SWAP2 SWAP1 POP JUMP JUMPDEST PUSH1 0x0 PUSH1 0x20 DUP3 ADD SWAP1 POP DUP2 DUP2 SUB PUSH1 0x0 DUP4 ADD MSTORE PUSH2 0xE81 DUP2 PUSH2 0xE45 JUMP JUMPDEST SWAP1 POP SWAP2 SWAP1 POP JUMP JUMPDEST PUSH1 0x0 PUSH2 0xE94 DUP4 DUP6 PUSH2 0xC8A JUMP JUMPDEST SWAP4 POP PUSH2 0xEA1 DUP4 DUP6 DUP5 PUSH2 0xBDD JUMP JUMPDEST DUP3 DUP5 ADD SWAP1 POP SWAP4 SWAP3 POP POP POP JUMP JUMPDEST PUSH1 0x0 PUSH2 0xEBA DUP3 DUP5 DUP7 PUSH2 0xE88 JUMP JUMPDEST SWAP2 POP DUP2 SWAP1 POP SWAP4 SWAP3 POP POP POP JUMP JUMPDEST PUSH32 0x56616C75652063616E206E6F7420626520656D70747900000000000000000000 PUSH1 0x0 DUP3 ADD MSTORE POP JUMP JUMPDEST PUSH1 0x0 PUSH2 0xEFC PUSH1 0x16 DUP4 PUSH2 0xB2B JUMP JUMPDEST SWAP2 POP PUSH2 0xF07 DUP3 PUSH2 0xEC6 JUMP JUMPDEST PUSH1 0x20 DUP3 ADD SWAP1 POP SWAP2 SWAP1 POP JUMP JUMPDEST PUSH1 0x0 PUSH1 0x20 DUP3 ADD SWAP1 POP DUP2 DUP2 SUB PUSH1 0x0 DUP4 ADD MSTORE PUSH2 0xF2B DUP2 PUSH2 0xEEF JUMP JUMPDEST SWAP1 POP SWAP2 SWAP1 POP JUMP JUMPDEST PUSH1 0x0 DUP3 SWAP1 POP SWAP3 SWAP2 POP POP JUMP JUMPDEST PUSH32 0x4E487B7100000000000000000000000000000000000000000000000000000000 PUSH1 0x0 MSTORE PUSH1 0x41 PUSH1 0x4 MSTORE PUSH1 0x24 PUSH1 0x0 REVERT JUMPDEST PUSH1 0x0 DUP2 SWAP1 POP DUP2 PUSH1 0x0 MSTORE PUSH1 0x20 PUSH1 0x0 KECCAK256 SWAP1 POP SWAP2 SWAP1 POP JUMP JUMPDEST PUSH1 0x0 PUSH1 0x20 PUSH1 0x1F DUP4 ADD DIV SWAP1 POP SWAP2 SWAP1 POP JUMP JUMPDEST PUSH1 0x0 DUP3 DUP3 SHL SWAP1 POP SWAP3 SWAP2 POP POP JUMP JUMPDEST PUSH1 0x0 PUSH1 0x8 DUP4 MUL PUSH2 0xFCE PUSH32 0xFFFFFFFFFFFFFFFFFFFFFFFFFFFFFFFFFFFFFFFFFFFFFFFFFFFFFFFFFFFFFFFF DUP3 PUSH2 0xF91 JUMP JUMPDEST PUSH2 0xFD8 DUP7 DUP4 PUSH2 0xF91 JUMP JUMPDEST SWAP6 POP DUP1 NOT DUP5 AND SWAP4 POP DUP1 DUP7 AND DUP5 OR SWAP3 POP POP POP SWAP4 SWAP3 POP POP POP JUMP JUMPDEST PUSH1 0x0 DUP2 SWAP1 POP SWAP2 SWAP1 POP JUMP JUMPDEST PUSH1 0x0 DUP2 SWAP1 POP SWAP2 SWAP1 POP JUMP JUMPDEST PUSH1 0x0 PUSH2 0x101F PUSH2 0x101A PUSH2 0x1015 DUP5 PUSH2 0xFF0 JUMP JUMPDEST PUSH2 0xFFA JUMP JUMPDEST PUSH2 0xFF0 JUMP JUMPDEST SWAP1 POP SWAP2 SWAP1 POP JUMP JUMPDEST PUSH1 0x0 DUP2 SWAP1 POP SWAP2 SWAP1 POP JUMP JUMPDEST PUSH2 0x1039 DUP4 PUSH2 0x1004 JUMP JUMPDEST PUSH2 0x104D PUSH2 0x1045 DUP3 PUSH2 0x1026 JUMP JUMPDEST DUP5 DUP5 SLOAD PUSH2 0xF9E JUMP JUMPDEST DUP3 SSTORE POP POP POP POP JUMP JUMPDEST PUSH1 0x0 SWAP1 JUMP JUMPDEST PUSH2 0x1062 PUSH2 0x1055 JUMP JUMPDEST PUSH2 0x106D DUP2 DUP5 DUP5 PUSH2 0x1030 JUMP JUMPDEST POP POP POP JUMP JUMPDEST JUMPDEST DUP2 DUP2 LT ISZERO PUSH2 0x1091 JUMPI PUSH2 0x1086 PUSH1 0x0 DUP3 PUSH2 0x105A JUMP JUMPDEST PUSH1 0x1 DUP2 ADD SWAP1 POP PUSH2 0x1073 JUMP JUMPDEST POP POP JUMP JUMPDEST PUSH1 0x1F DUP3 GT ISZERO PUSH2 0x10D6 JUMPI PUSH2 0x10A7 DUP2 PUSH2 0xF6C JUMP JUMPDEST PUSH2 0x10B0 DUP5 PUSH2 0xF81 JUMP JUMPDEST DUP2 ADD PUSH1 0x20 DUP6 LT ISZERO PUSH2 0x10BF JUMPI DUP2 SWAP1 POP JUMPDEST PUSH2 0x10D3 PUSH2 0x10CB DUP6 PUSH2 0xF81 JUMP JUMPDEST DUP4 ADD DUP3 PUSH2 0x1072 JUMP JUMPDEST POP POP JUMPDEST POP POP POP JUMP JUMPDEST PUSH1 0x0 DUP3 DUP3 SHR SWAP1 POP SWAP3 SWAP2 POP POP JUMP JUMPDEST PUSH1 0x0 PUSH2 0x10F9 PUSH1 0x0 NOT DUP5 PUSH1 0x8 MUL PUSH2 0x10DB JUMP JUMPDEST NOT DUP1 DUP4 AND SWAP2 POP POP SWAP3 SWAP2 POP POP JUMP JUMPDEST PUSH1 0x0 PUSH2 0x1112 DUP4 DUP4 PUSH2 0x10E8 JUMP JUMPDEST SWAP2 POP DUP3 PUSH1 0x2 MUL DUP3 OR SWAP1 POP SWAP3 SWAP2 POP POP JUMP JUMPDEST PUSH2 0x112C DUP4 DUP4 PUSH2 0xF32 JUMP JUMPDEST PUSH8 0xFFFFFFFFFFFFFFFF DUP2 GT ISZERO PUSH2 0x1145 JUMPI PUSH2 0x1144 PUSH2 0xF3D JUMP JUMPDEST JUMPDEST PUSH2 0x114F DUP3 SLOAD PUSH2 0xC59 JUMP JUMPDEST PUSH2 0x115A DUP3 DUP3 DUP6 PUSH2 0x1095 JUMP JUMPDEST PUSH1 0x0 PUSH1 0x1F DUP4 GT PUSH1 0x1 DUP2 EQ PUSH2 0x1189 JUMPI PUSH1 0x0 DUP5 ISZERO PUSH2 0x1177 JUMPI DUP3 DUP8 ADD CALLDATALOAD SWAP1 POP JUMPDEST PUSH2 0x1181 DUP6 DUP3 PUSH2 0x1106 JUMP JUMPDEST DUP7 SSTORE POP PUSH2 0x11E9 JUMP JUMPDEST PUSH1 0x1F NOT DUP5 AND PUSH2 0x1197 DUP7 PUSH2 0xF6C JUMP JUMPDEST PUSH1 0x0 JUMPDEST DUP3 DUP2 LT ISZERO PUSH2 0x11BF JUMPI DUP5 DUP10 ADD CALLDATALOAD DUP3 SSTORE PUSH1 0x1 DUP3 ADD SWAP2 POP PUSH1 0x20 DUP6 ADD SWAP5 POP PUSH1 0x20 DUP2 ADD SWAP1 POP PUSH2 0x119A JUMP JUMPDEST DUP7 DUP4 LT ISZERO PUSH2 0x11DC JUMPI DUP5 DUP10 ADD CALLDATALOAD PUSH2 0x11D8 PUSH1 0x1F DUP10 AND DUP3 PUSH2 0x10E8 JUMP JUMPDEST DUP4 SSTORE POP JUMPDEST PUSH1 0x1 PUSH1 0x2 DUP9 MUL ADD DUP9 SSTORE POP POP POP JUMPDEST POP POP POP POP POP POP POP JUMP JUMPDEST PUSH32 0x4964656E7469747920616C726561647920657869737421000000000000000000 PUSH1 0x0 DUP3 ADD MSTORE POP JUMP JUMPDEST PUSH1 0x0 PUSH2 0x1228 PUSH1 0x17 DUP4 PUSH2 0xB2B JUMP JUMPDEST SWAP2 POP PUSH2 0x1233 DUP3 PUSH2 0x11F2 JUMP JUMPDEST PUSH1 0x20 DUP3 ADD SWAP1 POP SWAP2 SWAP1 POP JUMP JUMPDEST PUSH1 0x0 PUSH1 0x20 DUP3 ADD SWAP1 POP DUP2 DUP2 SUB PUSH1 0x0 DUP4 ADD MSTORE PUSH2 0x1257 DUP2 PUSH2 0x121B JUMP JUMPDEST SWAP1 POP SWAP2 SWAP1 POP JUMP JUMPDEST PUSH32 0x4E487B7100000000000000000000000000000000000000000000000000000000 PUSH1 0x0 MSTORE PUSH1 0x11 PUSH1 0x4 MSTORE PUSH1 0x24 PUSH1 0x0 REVERT JUMPDEST PUSH1 0x0 PUSH2 0x1298 DUP3 PUSH2 0xFF0 JUMP JUMPDEST SWAP2 POP PUSH32 0xFFFFFFFFFFFFFFFFFFFFFFFFFFFFFFFFFFFFFFFFFFFFFFFFFFFFFFFFFFFFFFFF DUP3 SUB PUSH2 0x12CA JUMPI PUSH2 0x12C9 PUSH2 0x125E JUMP JUMPDEST JUMPDEST PUSH1 0x1 DUP3 ADD SWAP1 POP SWAP2 SWAP1 POP JUMP INVALID LOG2 PUSH5 0x6970667358 0x22 SLT KECCAK256 SUB MULMOD PUSH10 0x77AD868102F3766B91A3 CREATE STOP 0x2E 0x25 DUP2 PUSH26 0xD73D377151274444ADDFA6D27564736F6C634300081200330000 "
		},
		"gasEstimates": {
			"creation": {
				"codeDepositCost": "975000",
				"executionCost": "1014",
				"totalCost": "976014"
			},
			"external": {
				"addAttribute(string,string)": "infinite",
				"addProof(string)": "infinite",
				"createIdentity()": "51094",
				"getAttribute(address,string)": "infinite",
				"hasProof(address,string)": "infinite"
			}
		},
		"methodIdentifiers": {
			"addAttribute(string,string)": "2ba56834",
			"addProof(string)": "19c4793f",
			"createIdentity()": "59d21ad9",
			"getAttribute(address,string)": "5449e2fc",
			"hasProof(address,string)": "0bb2e3e4"
		}
	},
	"abi": [
		{
			"inputs": [
				{
					"internalType": "string",
					"name": "attribute",
					"type": "string"
				},
				{
					"internalType": "string",
					"name": "value",
					"type": "string"
				}
			],
			"name": "addAttribute",
			"outputs": [],
			"stateMutability": "nonpayable",
			"type": "function"
		},
		{
			"inputs": [
				{
					"internalType": "string",
					"name": "attribute",
					"type": "string"
				}
			],
			"name": "addProof",
			"outputs": [],
			"stateMutability": "nonpayable",
			"type": "function"
		},
		{
			"inputs": [],
			"name": "createIdentity",
			"outputs": [],
			"stateMutability": "nonpayable",
			"type": "function"
		},
		{
			"inputs": [
				{
					"internalType": "address",
					"name": "user",
					"type": "address"
				},
				{
					"internalType": "string",
					"name": "attribute",
					"type": "string"
				}
			],
			"name": "getAttribute",
			"outputs": [
				{
					"internalType": "string",
					"name": "",
					"type": "string"
				}
			],
			"stateMutability": "view",
			"type": "function"
		},
		{
			"inputs": [
				{
					"internalType": "address",
					"name": "user",
					"type": "address"
				},
				{
					"internalType": "string",
					"name": "attribute",
					"type": "string"
				}
			],
			"name": "hasProof",
			"outputs": [
				{
					"internalType": "bool",
					"name": "",
					"type": "bool"
				}
			],
			"stateMutability": "view",
			"type": "function"
		}
	]
}