{
	"data": {
		"bytecode": {
			"linkReferences": {},
			"object": "608060405234801561001057600080fd5b506111de806100206000396000f3fe608060405234801561001057600080fd5b50600436106100575760003560e01c8063afd79cbd1461005c578063b98437a714610090578063bcce66c9146100ac578063c1588e80146100b6578063c6920ef0146100e6575b600080fd5b6100766004803603810190610071919061094a565b610116565b604051610087959493929190610aa6565b60405180910390f35b6100aa60048036038101906100a59190610c68565b610289565b005b6100b46104ae565b005b6100d060048036038101906100cb919061094a565b61061f565b6040516100dd9190610dfb565b60405180910390f35b61010060048036038101906100fb919061094a565b610836565b60405161010d9190610e1d565b60405180910390f35b60006020528060005260406000206000915090508060000160009054906101000a900473ffffffffffffffffffffffffffffffffffffffff169080600101805461015f90610e67565b80601f016020809104026020016040519081016040528092919081815260200182805461018b90610e67565b80156101d85780601f106101ad576101008083540402835291602001916101d8565b820191906000526020600020905b8154815290600101906020018083116101bb57829003601f168201915b5050505050908060020180546101ed90610e67565b80601f016020809104026020016040519081016040528092919081815260200182805461021990610e67565b80156102665780601f1061023b57610100808354040283529160200191610266565b820191906000526020600020905b81548152906001019060200180831161024957829003601f168201915b5050505050908060030154908060040160009054906101000a900460ff16905085565b600073ffffffffffffffffffffffffffffffffffffffff166000803373ffffffffffffffffffffffffffffffffffffffff1673ffffffffffffffffffffffffffffffffffffffff16815260200190815260200160002060000160009054906101000a900473ffffffffffffffffffffffffffffffffffffffff1673ffffffffffffffffffffffffffffffffffffffff1614610359576040517f08c379a000000000000000000000000000000000000000000000000000000000815260040161035090610f0a565b60405180910390fd5b6040518060a001604052803373ffffffffffffffffffffffffffffffffffffffff1681526020018581526020018481526020018381526020018260088111156103a5576103a4610a2f565b5b60088111156103b7576103b6610a2f565b5b8152506000803373ffffffffffffffffffffffffffffffffffffffff1673ffffffffffffffffffffffffffffffffffffffff16815260200190815260200160002060008201518160000160006101000a81548173ffffffffffffffffffffffffffffffffffffffff021916908373ffffffffffffffffffffffffffffffffffffffff160217905550602082015181600101908161045491906110d6565b50604082015181600201908161046a91906110d6565b506060820151816003015560808201518160040160006101000a81548160ff021916908360088111156104a05761049f610a2f565b5b021790555090505050505050565b6040518060a001604052803373ffffffffffffffffffffffffffffffffffffffff168152602001604051806020016040528060008152508152602001604051806020016040528060008152508152602001600081526020016000600881111561051a57610519610a2f565b5b600881111561052c5761052b610a2f565b5b8152506000803373ffffffffffffffffffffffffffffffffffffffff1673ffffffffffffffffffffffffffffffffffffffff16815260200190815260200160002060008201518160000160006101000a81548173ffffffffffffffffffffffffffffffffffffffff021916908373ffffffffffffffffffffffffffffffffffffffff16021790555060208201518160010190816105c991906110d6565b5060408201518160020190816105df91906110d6565b506060820151816003015560808201518160040160006101000a81548160ff0219169083600881111561061557610614610a2f565b5b0217905550905050565b610627610881565b6000808373ffffffffffffffffffffffffffffffffffffffff1673ffffffffffffffffffffffffffffffffffffffff1681526020019081526020016000206040518060a00160405290816000820160009054906101000a900473ffffffffffffffffffffffffffffffffffffffff1673ffffffffffffffffffffffffffffffffffffffff1673ffffffffffffffffffffffffffffffffffffffff1681526020016001820180546106d690610e67565b80601f016020809104026020016040519081016040528092919081815260200182805461070290610e67565b801561074f5780601f106107245761010080835404028352916020019161074f565b820191906000526020600020905b81548152906001019060200180831161073257829003601f168201915b5050505050815260200160028201805461076890610e67565b80601f016020809104026020016040519081016040528092919081815260200182805461079490610e67565b80156107e15780601f106107b6576101008083540402835291602001916107e1565b820191906000526020600020905b8154815290600101906020018083116107c457829003601f168201915b50505050508152602001600382015481526020016004820160009054906101000a900460ff16600881111561081957610818610a2f565b5b600881111561082b5761082a610a2f565b5b815250509050919050565b60008060008373ffffffffffffffffffffffffffffffffffffffff1673ffffffffffffffffffffffffffffffffffffffff168152602001908152602001600020600301549050919050565b6040518060a00160405280600073ffffffffffffffffffffffffffffffffffffffff168152602001606081526020016060815260200160008152602001600060088111156108d2576108d1610a2f565b5b81525090565b6000604051905090565b600080fd5b600080fd5b600073ffffffffffffffffffffffffffffffffffffffff82169050919050565b6000610917826108ec565b9050919050565b6109278161090c565b811461093257600080fd5b50565b6000813590506109448161091e565b92915050565b6000602082840312156109605761095f6108e2565b5b600061096e84828501610935565b91505092915050565b6109808161090c565b82525050565b600081519050919050565b600082825260208201905092915050565b60005b838110156109c05780820151818401526020810190506109a5565b60008484015250505050565b6000601f19601f8301169050919050565b60006109e882610986565b6109f28185610991565b9350610a028185602086016109a2565b610a0b816109cc565b840191505092915050565b6000819050919050565b610a2981610a16565b82525050565b7f4e487b7100000000000000000000000000000000000000000000000000000000600052602160045260246000fd5b60098110610a6f57610a6e610a2f565b5b50565b6000819050610a8082610a5e565b919050565b6000610a9082610a72565b9050919050565b610aa081610a85565b82525050565b600060a082019050610abb6000830188610977565b8181036020830152610acd81876109dd565b90508181036040830152610ae181866109dd565b9050610af06060830185610a20565b610afd6080830184610a97565b9695505050505050565b600080fd5b600080fd5b7f4e487b7100000000000000000000000000000000000000000000000000000000600052604160045260246000fd5b610b49826109cc565b810181811067ffffffffffffffff82111715610b6857610b67610b11565b5b80604052505050565b6000610b7b6108d8565b9050610b878282610b40565b919050565b600067ffffffffffffffff821115610ba757610ba6610b11565b5b610bb0826109cc565b9050602081019050919050565b82818337600083830152505050565b6000610bdf610bda84610b8c565b610b71565b905082815260208101848484011115610bfb57610bfa610b0c565b5b610c06848285610bbd565b509392505050565b600082601f830112610c2357610c22610b07565b5b8135610c33848260208601610bcc565b91505092915050565b610c4581610a16565b8114610c5057600080fd5b50565b600081359050610c6281610c3c565b92915050565b60008060008060808587031215610c8257610c816108e2565b5b600085013567ffffffffffffffff811115610ca057610c9f6108e7565b5b610cac87828801610c0e565b945050602085013567ffffffffffffffff811115610ccd57610ccc6108e7565b5b610cd987828801610c0e565b9350506040610cea87828801610c53565b9250506060610cfb87828801610c53565b91505092959194509250565b610d108161090c565b82525050565b600082825260208201905092915050565b6000610d3282610986565b610d3c8185610d16565b9350610d4c8185602086016109a2565b610d55816109cc565b840191505092915050565b610d6981610a16565b82525050565b610d7881610a85565b82525050565b600060a083016000830151610d966000860182610d07565b5060208301518482036020860152610dae8282610d27565b91505060408301518482036040860152610dc88282610d27565b9150506060830151610ddd6060860182610d60565b506080830151610df06080860182610d6f565b508091505092915050565b60006020820190508181036000830152610e158184610d7e565b905092915050565b6000602082019050610e326000830184610a20565b92915050565b7f4e487b7100000000000000000000000000000000000000000000000000000000600052602260045260246000fd5b60006002820490506001821680610e7f57607f821691505b602082108103610e9257610e91610e38565b5b50919050565b7f596f75206861766520616c72656164792061646465642061206361722075736960008201527f6e672074686973206163636f756e740000000000000000000000000000000000602082015250565b6000610ef4602f83610991565b9150610eff82610e98565b604082019050919050565b60006020820190508181036000830152610f2381610ee7565b9050919050565b60008190508160005260206000209050919050565b60006020601f8301049050919050565b600082821b905092915050565b600060088302610f8c7fffffffffffffffffffffffffffffffffffffffffffffffffffffffffffffffff82610f4f565b610f968683610f4f565b95508019841693508086168417925050509392505050565b6000819050919050565b6000610fd3610fce610fc984610a16565b610fae565b610a16565b9050919050565b6000819050919050565b610fed83610fb8565b611001610ff982610fda565b848454610f5c565b825550505050565b600090565b611016611009565b611021818484610fe4565b505050565b5b818110156110455761103a60008261100e565b600181019050611027565b5050565b601f82111561108a5761105b81610f2a565b61106484610f3f565b81016020851015611073578190505b61108761107f85610f3f565b830182611026565b50505b505050565b600082821c905092915050565b60006110ad6000198460080261108f565b1980831691505092915050565b60006110c6838361109c565b9150826002028217905092915050565b6110df82610986565b67ffffffffffffffff8111156110f8576110f7610b11565b5b6111028254610e67565b61110d828285611049565b600060209050601f831160018114611140576000841561112e578287015190505b61113885826110ba565b8655506111a0565b601f19841661114e86610f2a565b60005b8281101561117657848901518255600182019150602085019450602081019050611151565b86831015611193578489015161118f601f89168261109c565b8355505b6001600288020188555050505b50505050505056fea2646970667358221220f53f461a8ed0148b10b193137c2fedbc5fe784b7c8e5b2f3742f57ae71d4093d64736f6c63430008120033",
			"opcodes": "PUSH1 0x80 PUSH1 0x40 MSTORE CALLVALUE DUP1 ISZERO PUSH2 0x10 JUMPI PUSH1 0x0 DUP1 REVERT JUMPDEST POP PUSH2 0x11DE DUP1 PUSH2 0x20 PUSH1 0x0 CODECOPY PUSH1 0x0 RETURN INVALID PUSH1 0x80 PUSH1 0x40 MSTORE CALLVALUE DUP1 ISZERO PUSH2 0x10 JUMPI PUSH1 0x0 DUP1 REVERT JUMPDEST POP PUSH1 0x4 CALLDATASIZE LT PUSH2 0x57 JUMPI PUSH1 0x0 CALLDATALOAD PUSH1 0xE0 SHR DUP1 PUSH4 0xAFD79CBD EQ PUSH2 0x5C JUMPI DUP1 PUSH4 0xB98437A7 EQ PUSH2 0x90 JUMPI DUP1 PUSH4 0xBCCE66C9 EQ PUSH2 0xAC JUMPI DUP1 PUSH4 0xC1588E80 EQ PUSH2 0xB6 JUMPI DUP1 PUSH4 0xC6920EF0 EQ PUSH2 0xE6 JUMPI JUMPDEST PUSH1 0x0 DUP1 REVERT JUMPDEST PUSH2 0x76 PUSH1 0x4 DUP1 CALLDATASIZE SUB DUP2 ADD SWAP1 PUSH2 0x71 SWAP2 SWAP1 PUSH2 0x94A JUMP JUMPDEST PUSH2 0x116 JUMP JUMPDEST PUSH1 0x40 MLOAD PUSH2 0x87 SWAP6 SWAP5 SWAP4 SWAP3 SWAP2 SWAP1 PUSH2 0xAA6 JUMP JUMPDEST PUSH1 0x40 MLOAD DUP1 SWAP2 SUB SWAP1 RETURN JUMPDEST PUSH2 0xAA PUSH1 0x4 DUP1 CALLDATASIZE SUB DUP2 ADD SWAP1 PUSH2 0xA5 SWAP2 SWAP1 PUSH2 0xC68 JUMP JUMPDEST PUSH2 0x289 JUMP JUMPDEST STOP JUMPDEST PUSH2 0xB4 PUSH2 0x4AE JUMP JUMPDEST STOP JUMPDEST PUSH2 0xD0 PUSH1 0x4 DUP1 CALLDATASIZE SUB DUP2 ADD SWAP1 PUSH2 0xCB SWAP2 SWAP1 PUSH2 0x94A JUMP JUMPDEST PUSH2 0x61F JUMP JUMPDEST PUSH1 0x40 MLOAD PUSH2 0xDD SWAP2 SWAP1 PUSH2 0xDFB JUMP JUMPDEST PUSH1 0x40 MLOAD DUP1 SWAP2 SUB SWAP1 RETURN JUMPDEST PUSH2 0x100 PUSH1 0x4 DUP1 CALLDATASIZE SUB DUP2 ADD SWAP1 PUSH2 0xFB SWAP2 SWAP1 PUSH2 0x94A JUMP JUMPDEST PUSH2 0x836 JUMP JUMPDEST PUSH1 0x40 MLOAD PUSH2 0x10D SWAP2 SWAP1 PUSH2 0xE1D JUMP JUMPDEST PUSH1 0x40 MLOAD DUP1 SWAP2 SUB SWAP1 RETURN JUMPDEST PUSH1 0x0 PUSH1 0x20 MSTORE DUP1 PUSH1 0x0 MSTORE PUSH1 0x40 PUSH1 0x0 KECCAK256 PUSH1 0x0 SWAP2 POP SWAP1 POP DUP1 PUSH1 0x0 ADD PUSH1 0x0 SWAP1 SLOAD SWAP1 PUSH2 0x100 EXP SWAP1 DIV PUSH20 0xFFFFFFFFFFFFFFFFFFFFFFFFFFFFFFFFFFFFFFFF AND SWAP1 DUP1 PUSH1 0x1 ADD DUP1 SLOAD PUSH2 0x15F SWAP1 PUSH2 0xE67 JUMP JUMPDEST DUP1 PUSH1 0x1F ADD PUSH1 0x20 DUP1 SWAP2 DIV MUL PUSH1 0x20 ADD PUSH1 0x40 MLOAD SWAP1 DUP2 ADD PUSH1 0x40 MSTORE DUP1 SWAP3 SWAP2 SWAP1 DUP2 DUP2 MSTORE PUSH1 0x20 ADD DUP3 DUP1 SLOAD PUSH2 0x18B SWAP1 PUSH2 0xE67 JUMP JUMPDEST DUP1 ISZERO PUSH2 0x1D8 JUMPI DUP1 PUSH1 0x1F LT PUSH2 0x1AD JUMPI PUSH2 0x100 DUP1 DUP4 SLOAD DIV MUL DUP4 MSTORE SWAP2 PUSH1 0x20 ADD SWAP2 PUSH2 0x1D8 JUMP JUMPDEST DUP3 ADD SWAP2 SWAP1 PUSH1 0x0 MSTORE PUSH1 0x20 PUSH1 0x0 KECCAK256 SWAP1 JUMPDEST DUP2 SLOAD DUP2 MSTORE SWAP1 PUSH1 0x1 ADD SWAP1 PUSH1 0x20 ADD DUP1 DUP4 GT PUSH2 0x1BB JUMPI DUP3 SWAP1 SUB PUSH1 0x1F AND DUP3 ADD SWAP2 JUMPDEST POP POP POP POP POP SWAP1 DUP1 PUSH1 0x2 ADD DUP1 SLOAD PUSH2 0x1ED SWAP1 PUSH2 0xE67 JUMP JUMPDEST DUP1 PUSH1 0x1F ADD PUSH1 0x20 DUP1 SWAP2 DIV MUL PUSH1 0x20 ADD PUSH1 0x40 MLOAD SWAP1 DUP2 ADD PUSH1 0x40 MSTORE DUP1 SWAP3 SWAP2 SWAP1 DUP2 DUP2 MSTORE PUSH1 0x20 ADD DUP3 DUP1 SLOAD PUSH2 0x219 SWAP1 PUSH2 0xE67 JUMP JUMPDEST DUP1 ISZERO PUSH2 0x266 JUMPI DUP1 PUSH1 0x1F LT PUSH2 0x23B JUMPI PUSH2 0x100 DUP1 DUP4 SLOAD DIV MUL DUP4 MSTORE SWAP2 PUSH1 0x20 ADD SWAP2 PUSH2 0x266 JUMP JUMPDEST DUP3 ADD SWAP2 SWAP1 PUSH1 0x0 MSTORE PUSH1 0x20 PUSH1 0x0 KECCAK256 SWAP1 JUMPDEST DUP2 SLOAD DUP2 MSTORE SWAP1 PUSH1 0x1 ADD SWAP1 PUSH1 0x20 ADD DUP1 DUP4 GT PUSH2 0x249 JUMPI DUP3 SWAP1 SUB PUSH1 0x1F AND DUP3 ADD SWAP2 JUMPDEST POP POP POP POP POP SWAP1 DUP1 PUSH1 0x3 ADD SLOAD SWAP1 DUP1 PUSH1 0x4 ADD PUSH1 0x0 SWAP1 SLOAD SWAP1 PUSH2 0x100 EXP SWAP1 DIV PUSH1 0xFF AND SWAP1 POP DUP6 JUMP JUMPDEST PUSH1 0x0 PUSH20 0xFFFFFFFFFFFFFFFFFFFFFFFFFFFFFFFFFFFFFFFF AND PUSH1 0x0 DUP1 CALLER PUSH20 0xFFFFFFFFFFFFFFFFFFFFFFFFFFFFFFFFFFFFFFFF AND PUSH20 0xFFFFFFFFFFFFFFFFFFFFFFFFFFFFFFFFFFFFFFFF AND DUP2 MSTORE PUSH1 0x20 ADD SWAP1 DUP2 MSTORE PUSH1 0x20 ADD PUSH1 0x0 KECCAK256 PUSH1 0x0 ADD PUSH1 0x0 SWAP1 SLOAD SWAP1 PUSH2 0x100 EXP SWAP1 DIV PUSH20 0xFFFFFFFFFFFFFFFFFFFFFFFFFFFFFFFFFFFFFFFF AND PUSH20 0xFFFFFFFFFFFFFFFFFFFFFFFFFFFFFFFFFFFFFFFF AND EQ PUSH2 0x359 JUMPI PUSH1 0x40 MLOAD PUSH32 0x8C379A000000000000000000000000000000000000000000000000000000000 DUP2 MSTORE PUSH1 0x4 ADD PUSH2 0x350 SWAP1 PUSH2 0xF0A JUMP JUMPDEST PUSH1 0x40 MLOAD DUP1 SWAP2 SUB SWAP1 REVERT JUMPDEST PUSH1 0x40 MLOAD DUP1 PUSH1 0xA0 ADD PUSH1 0x40 MSTORE DUP1 CALLER PUSH20 0xFFFFFFFFFFFFFFFFFFFFFFFFFFFFFFFFFFFFFFFF AND DUP2 MSTORE PUSH1 0x20 ADD DUP6 DUP2 MSTORE PUSH1 0x20 ADD DUP5 DUP2 MSTORE PUSH1 0x20 ADD DUP4 DUP2 MSTORE PUSH1 0x20 ADD DUP3 PUSH1 0x8 DUP2 GT ISZERO PUSH2 0x3A5 JUMPI PUSH2 0x3A4 PUSH2 0xA2F JUMP JUMPDEST JUMPDEST PUSH1 0x8 DUP2 GT ISZERO PUSH2 0x3B7 JUMPI PUSH2 0x3B6 PUSH2 0xA2F JUMP JUMPDEST JUMPDEST DUP2 MSTORE POP PUSH1 0x0 DUP1 CALLER PUSH20 0xFFFFFFFFFFFFFFFFFFFFFFFFFFFFFFFFFFFFFFFF AND PUSH20 0xFFFFFFFFFFFFFFFFFFFFFFFFFFFFFFFFFFFFFFFF AND DUP2 MSTORE PUSH1 0x20 ADD SWAP1 DUP2 MSTORE PUSH1 0x20 ADD PUSH1 0x0 KECCAK256 PUSH1 0x0 DUP3 ADD MLOAD DUP2 PUSH1 0x0 ADD PUSH1 0x0 PUSH2 0x100 EXP DUP2 SLOAD DUP2 PUSH20 0xFFFFFFFFFFFFFFFFFFFFFFFFFFFFFFFFFFFFFFFF MUL NOT AND SWAP1 DUP4 PUSH20 0xFFFFFFFFFFFFFFFFFFFFFFFFFFFFFFFFFFFFFFFF AND MUL OR SWAP1 SSTORE POP PUSH1 0x20 DUP3 ADD MLOAD DUP2 PUSH1 0x1 ADD SWAP1 DUP2 PUSH2 0x454 SWAP2 SWAP1 PUSH2 0x10D6 JUMP JUMPDEST POP PUSH1 0x40 DUP3 ADD MLOAD DUP2 PUSH1 0x2 ADD SWAP1 DUP2 PUSH2 0x46A SWAP2 SWAP1 PUSH2 0x10D6 JUMP JUMPDEST POP PUSH1 0x60 DUP3 ADD MLOAD DUP2 PUSH1 0x3 ADD SSTORE PUSH1 0x80 DUP3 ADD MLOAD DUP2 PUSH1 0x4 ADD PUSH1 0x0 PUSH2 0x100 EXP DUP2 SLOAD DUP2 PUSH1 0xFF MUL NOT AND SWAP1 DUP4 PUSH1 0x8 DUP2 GT ISZERO PUSH2 0x4A0 JUMPI PUSH2 0x49F PUSH2 0xA2F JUMP JUMPDEST JUMPDEST MUL OR SWAP1 SSTORE POP SWAP1 POP POP POP POP POP POP JUMP JUMPDEST PUSH1 0x40 MLOAD DUP1 PUSH1 0xA0 ADD PUSH1 0x40 MSTORE DUP1 CALLER PUSH20 0xFFFFFFFFFFFFFFFFFFFFFFFFFFFFFFFFFFFFFFFF AND DUP2 MSTORE PUSH1 0x20 ADD PUSH1 0x40 MLOAD DUP1 PUSH1 0x20 ADD PUSH1 0x40 MSTORE DUP1 PUSH1 0x0 DUP2 MSTORE POP DUP2 MSTORE PUSH1 0x20 ADD PUSH1 0x40 MLOAD DUP1 PUSH1 0x20 ADD PUSH1 0x40 MSTORE DUP1 PUSH1 0x0 DUP2 MSTORE POP DUP2 MSTORE PUSH1 0x20 ADD PUSH1 0x0 DUP2 MSTORE PUSH1 0x20 ADD PUSH1 0x0 PUSH1 0x8 DUP2 GT ISZERO PUSH2 0x51A JUMPI PUSH2 0x519 PUSH2 0xA2F JUMP JUMPDEST JUMPDEST PUSH1 0x8 DUP2 GT ISZERO PUSH2 0x52C JUMPI PUSH2 0x52B PUSH2 0xA2F JUMP JUMPDEST JUMPDEST DUP2 MSTORE POP PUSH1 0x0 DUP1 CALLER PUSH20 0xFFFFFFFFFFFFFFFFFFFFFFFFFFFFFFFFFFFFFFFF AND PUSH20 0xFFFFFFFFFFFFFFFFFFFFFFFFFFFFFFFFFFFFFFFF AND DUP2 MSTORE PUSH1 0x20 ADD SWAP1 DUP2 MSTORE PUSH1 0x20 ADD PUSH1 0x0 KECCAK256 PUSH1 0x0 DUP3 ADD MLOAD DUP2 PUSH1 0x0 ADD PUSH1 0x0 PUSH2 0x100 EXP DUP2 SLOAD DUP2 PUSH20 0xFFFFFFFFFFFFFFFFFFFFFFFFFFFFFFFFFFFFFFFF MUL NOT AND SWAP1 DUP4 PUSH20 0xFFFFFFFFFFFFFFFFFFFFFFFFFFFFFFFFFFFFFFFF AND MUL OR SWAP1 SSTORE POP PUSH1 0x20 DUP3 ADD MLOAD DUP2 PUSH1 0x1 ADD SWAP1 DUP2 PUSH2 0x5C9 SWAP2 SWAP1 PUSH2 0x10D6 JUMP JUMPDEST POP PUSH1 0x40 DUP3 ADD MLOAD DUP2 PUSH1 0x2 ADD SWAP1 DUP2 PUSH2 0x5DF SWAP2 SWAP1 PUSH2 0x10D6 JUMP JUMPDEST POP PUSH1 0x60 DUP3 ADD MLOAD DUP2 PUSH1 0x3 ADD SSTORE PUSH1 0x80 DUP3 ADD MLOAD DUP2 PUSH1 0x4 ADD PUSH1 0x0 PUSH2 0x100 EXP DUP2 SLOAD DUP2 PUSH1 0xFF MUL NOT AND SWAP1 DUP4 PUSH1 0x8 DUP2 GT ISZERO PUSH2 0x615 JUMPI PUSH2 0x614 PUSH2 0xA2F JUMP JUMPDEST JUMPDEST MUL OR SWAP1 SSTORE POP SWAP1 POP POP JUMP JUMPDEST PUSH2 0x627 PUSH2 0x881 JUMP JUMPDEST PUSH1 0x0 DUP1 DUP4 PUSH20 0xFFFFFFFFFFFFFFFFFFFFFFFFFFFFFFFFFFFFFFFF AND PUSH20 0xFFFFFFFFFFFFFFFFFFFFFFFFFFFFFFFFFFFFFFFF AND DUP2 MSTORE PUSH1 0x20 ADD SWAP1 DUP2 MSTORE PUSH1 0x20 ADD PUSH1 0x0 KECCAK256 PUSH1 0x40 MLOAD DUP1 PUSH1 0xA0 ADD PUSH1 0x40 MSTORE SWAP1 DUP2 PUSH1 0x0 DUP3 ADD PUSH1 0x0 SWAP1 SLOAD SWAP1 PUSH2 0x100 EXP SWAP1 DIV PUSH20 0xFFFFFFFFFFFFFFFFFFFFFFFFFFFFFFFFFFFFFFFF AND PUSH20 0xFFFFFFFFFFFFFFFFFFFFFFFFFFFFFFFFFFFFFFFF AND PUSH20 0xFFFFFFFFFFFFFFFFFFFFFFFFFFFFFFFFFFFFFFFF AND DUP2 MSTORE PUSH1 0x20 ADD PUSH1 0x1 DUP3 ADD DUP1 SLOAD PUSH2 0x6D6 SWAP1 PUSH2 0xE67 JUMP JUMPDEST DUP1 PUSH1 0x1F ADD PUSH1 0x20 DUP1 SWAP2 DIV MUL PUSH1 0x20 ADD PUSH1 0x40 MLOAD SWAP1 DUP2 ADD PUSH1 0x40 MSTORE DUP1 SWAP3 SWAP2 SWAP1 DUP2 DUP2 MSTORE PUSH1 0x20 ADD DUP3 DUP1 SLOAD PUSH2 0x702 SWAP1 PUSH2 0xE67 JUMP JUMPDEST DUP1 ISZERO PUSH2 0x74F JUMPI DUP1 PUSH1 0x1F LT PUSH2 0x724 JUMPI PUSH2 0x100 DUP1 DUP4 SLOAD DIV MUL DUP4 MSTORE SWAP2 PUSH1 0x20 ADD SWAP2 PUSH2 0x74F JUMP JUMPDEST DUP3 ADD SWAP2 SWAP1 PUSH1 0x0 MSTORE PUSH1 0x20 PUSH1 0x0 KECCAK256 SWAP1 JUMPDEST DUP2 SLOAD DUP2 MSTORE SWAP1 PUSH1 0x1 ADD SWAP1 PUSH1 0x20 ADD DUP1 DUP4 GT PUSH2 0x732 JUMPI DUP3 SWAP1 SUB PUSH1 0x1F AND DUP3 ADD SWAP2 JUMPDEST POP POP POP POP POP DUP2 MSTORE PUSH1 0x20 ADD PUSH1 0x2 DUP3 ADD DUP1 SLOAD PUSH2 0x768 SWAP1 PUSH2 0xE67 JUMP JUMPDEST DUP1 PUSH1 0x1F ADD PUSH1 0x20 DUP1 SWAP2 DIV MUL PUSH1 0x20 ADD PUSH1 0x40 MLOAD SWAP1 DUP2 ADD PUSH1 0x40 MSTORE DUP1 SWAP3 SWAP2 SWAP1 DUP2 DUP2 MSTORE PUSH1 0x20 ADD DUP3 DUP1 SLOAD PUSH2 0x794 SWAP1 PUSH2 0xE67 JUMP JUMPDEST DUP1 ISZERO PUSH2 0x7E1 JUMPI DUP1 PUSH1 0x1F LT PUSH2 0x7B6 JUMPI PUSH2 0x100 DUP1 DUP4 SLOAD DIV MUL DUP4 MSTORE SWAP2 PUSH1 0x20 ADD SWAP2 PUSH2 0x7E1 JUMP JUMPDEST DUP3 ADD SWAP2 SWAP1 PUSH1 0x0 MSTORE PUSH1 0x20 PUSH1 0x0 KECCAK256 SWAP1 JUMPDEST DUP2 SLOAD DUP2 MSTORE SWAP1 PUSH1 0x1 ADD SWAP1 PUSH1 0x20 ADD DUP1 DUP4 GT PUSH2 0x7C4 JUMPI DUP3 SWAP1 SUB PUSH1 0x1F AND DUP3 ADD SWAP2 JUMPDEST POP POP POP POP POP DUP2 MSTORE PUSH1 0x20 ADD PUSH1 0x3 DUP3 ADD SLOAD DUP2 MSTORE PUSH1 0x20 ADD PUSH1 0x4 DUP3 ADD PUSH1 0x0 SWAP1 SLOAD SWAP1 PUSH2 0x100 EXP SWAP1 DIV PUSH1 0xFF AND PUSH1 0x8 DUP2 GT ISZERO PUSH2 0x819 JUMPI PUSH2 0x818 PUSH2 0xA2F JUMP JUMPDEST JUMPDEST PUSH1 0x8 DUP2 GT ISZERO PUSH2 0x82B JUMPI PUSH2 0x82A PUSH2 0xA2F JUMP JUMPDEST JUMPDEST DUP2 MSTORE POP POP SWAP1 POP SWAP2 SWAP1 POP JUMP JUMPDEST PUSH1 0x0 DUP1 PUSH1 0x0 DUP4 PUSH20 0xFFFFFFFFFFFFFFFFFFFFFFFFFFFFFFFFFFFFFFFF AND PUSH20 0xFFFFFFFFFFFFFFFFFFFFFFFFFFFFFFFFFFFFFFFF AND DUP2 MSTORE PUSH1 0x20 ADD SWAP1 DUP2 MSTORE PUSH1 0x20 ADD PUSH1 0x0 KECCAK256 PUSH1 0x3 ADD SLOAD SWAP1 POP SWAP2 SWAP1 POP JUMP JUMPDEST PUSH1 0x40 MLOAD DUP1 PUSH1 0xA0 ADD PUSH1 0x40 MSTORE DUP1 PUSH1 0x0 PUSH20 0xFFFFFFFFFFFFFFFFFFFFFFFFFFFFFFFFFFFFFFFF AND DUP2 MSTORE PUSH1 0x20 ADD PUSH1 0x60 DUP2 MSTORE PUSH1 0x20 ADD PUSH1 0x60 DUP2 MSTORE PUSH1 0x20 ADD PUSH1 0x0 DUP2 MSTORE PUSH1 0x20 ADD PUSH1 0x0 PUSH1 0x8 DUP2 GT ISZERO PUSH2 0x8D2 JUMPI PUSH2 0x8D1 PUSH2 0xA2F JUMP JUMPDEST JUMPDEST DUP2 MSTORE POP SWAP1 JUMP JUMPDEST PUSH1 0x0 PUSH1 0x40 MLOAD SWAP1 POP SWAP1 JUMP JUMPDEST PUSH1 0x0 DUP1 REVERT JUMPDEST PUSH1 0x0 DUP1 REVERT JUMPDEST PUSH1 0x0 PUSH20 0xFFFFFFFFFFFFFFFFFFFFFFFFFFFFFFFFFFFFFFFF DUP3 AND SWAP1 POP SWAP2 SWAP1 POP JUMP JUMPDEST PUSH1 0x0 PUSH2 0x917 DUP3 PUSH2 0x8EC JUMP JUMPDEST SWAP1 POP SWAP2 SWAP1 POP JUMP JUMPDEST PUSH2 0x927 DUP2 PUSH2 0x90C JUMP JUMPDEST DUP2 EQ PUSH2 0x932 JUMPI PUSH1 0x0 DUP1 REVERT JUMPDEST POP JUMP JUMPDEST PUSH1 0x0 DUP2 CALLDATALOAD SWAP1 POP PUSH2 0x944 DUP2 PUSH2 0x91E JUMP JUMPDEST SWAP3 SWAP2 POP POP JUMP JUMPDEST PUSH1 0x0 PUSH1 0x20 DUP3 DUP5 SUB SLT ISZERO PUSH2 0x960 JUMPI PUSH2 0x95F PUSH2 0x8E2 JUMP JUMPDEST JUMPDEST PUSH1 0x0 PUSH2 0x96E DUP5 DUP3 DUP6 ADD PUSH2 0x935 JUMP JUMPDEST SWAP2 POP POP SWAP3 SWAP2 POP POP JUMP JUMPDEST PUSH2 0x980 DUP2 PUSH2 0x90C JUMP JUMPDEST DUP3 MSTORE POP POP JUMP JUMPDEST PUSH1 0x0 DUP2 MLOAD SWAP1 POP SWAP2 SWAP1 POP JUMP JUMPDEST PUSH1 0x0 DUP3 DUP3 MSTORE PUSH1 0x20 DUP3 ADD SWAP1 POP SWAP3 SWAP2 POP POP JUMP JUMPDEST PUSH1 0x0 JUMPDEST DUP4 DUP2 LT ISZERO PUSH2 0x9C0 JUMPI DUP1 DUP3 ADD MLOAD DUP2 DUP5 ADD MSTORE PUSH1 0x20 DUP2 ADD SWAP1 POP PUSH2 0x9A5 JUMP JUMPDEST PUSH1 0x0 DUP5 DUP5 ADD MSTORE POP POP POP POP JUMP JUMPDEST PUSH1 0x0 PUSH1 0x1F NOT PUSH1 0x1F DUP4 ADD AND SWAP1 POP SWAP2 SWAP1 POP JUMP JUMPDEST PUSH1 0x0 PUSH2 0x9E8 DUP3 PUSH2 0x986 JUMP JUMPDEST PUSH2 0x9F2 DUP2 DUP6 PUSH2 0x991 JUMP JUMPDEST SWAP4 POP PUSH2 0xA02 DUP2 DUP6 PUSH1 0x20 DUP7 ADD PUSH2 0x9A2 JUMP JUMPDEST PUSH2 0xA0B DUP2 PUSH2 0x9CC JUMP JUMPDEST DUP5 ADD SWAP2 POP POP SWAP3 SWAP2 POP POP JUMP JUMPDEST PUSH1 0x0 DUP2 SWAP1 POP SWAP2 SWAP1 POP JUMP JUMPDEST PUSH2 0xA29 DUP2 PUSH2 0xA16 JUMP JUMPDEST DUP3 MSTORE POP POP JUMP JUMPDEST PUSH32 0x4E487B7100000000000000000000000000000000000000000000000000000000 PUSH1 0x0 MSTORE PUSH1 0x21 PUSH1 0x4 MSTORE PUSH1 0x24 PUSH1 0x0 REVERT JUMPDEST PUSH1 0x9 DUP2 LT PUSH2 0xA6F JUMPI PUSH2 0xA6E PUSH2 0xA2F JUMP JUMPDEST JUMPDEST POP JUMP JUMPDEST PUSH1 0x0 DUP2 SWAP1 POP PUSH2 0xA80 DUP3 PUSH2 0xA5E JUMP JUMPDEST SWAP2 SWAP1 POP JUMP JUMPDEST PUSH1 0x0 PUSH2 0xA90 DUP3 PUSH2 0xA72 JUMP JUMPDEST SWAP1 POP SWAP2 SWAP1 POP JUMP JUMPDEST PUSH2 0xAA0 DUP2 PUSH2 0xA85 JUMP JUMPDEST DUP3 MSTORE POP POP JUMP JUMPDEST PUSH1 0x0 PUSH1 0xA0 DUP3 ADD SWAP1 POP PUSH2 0xABB PUSH1 0x0 DUP4 ADD DUP9 PUSH2 0x977 JUMP JUMPDEST DUP2 DUP2 SUB PUSH1 0x20 DUP4 ADD MSTORE PUSH2 0xACD DUP2 DUP8 PUSH2 0x9DD JUMP JUMPDEST SWAP1 POP DUP2 DUP2 SUB PUSH1 0x40 DUP4 ADD MSTORE PUSH2 0xAE1 DUP2 DUP7 PUSH2 0x9DD JUMP JUMPDEST SWAP1 POP PUSH2 0xAF0 PUSH1 0x60 DUP4 ADD DUP6 PUSH2 0xA20 JUMP JUMPDEST PUSH2 0xAFD PUSH1 0x80 DUP4 ADD DUP5 PUSH2 0xA97 JUMP JUMPDEST SWAP7 SWAP6 POP POP POP POP POP POP JUMP JUMPDEST PUSH1 0x0 DUP1 REVERT JUMPDEST PUSH1 0x0 DUP1 REVERT JUMPDEST PUSH32 0x4E487B7100000000000000000000000000000000000000000000000000000000 PUSH1 0x0 MSTORE PUSH1 0x41 PUSH1 0x4 MSTORE PUSH1 0x24 PUSH1 0x0 REVERT JUMPDEST PUSH2 0xB49 DUP3 PUSH2 0x9CC JUMP JUMPDEST DUP2 ADD DUP2 DUP2 LT PUSH8 0xFFFFFFFFFFFFFFFF DUP3 GT OR ISZERO PUSH2 0xB68 JUMPI PUSH2 0xB67 PUSH2 0xB11 JUMP JUMPDEST JUMPDEST DUP1 PUSH1 0x40 MSTORE POP POP POP JUMP JUMPDEST PUSH1 0x0 PUSH2 0xB7B PUSH2 0x8D8 JUMP JUMPDEST SWAP1 POP PUSH2 0xB87 DUP3 DUP3 PUSH2 0xB40 JUMP JUMPDEST SWAP2 SWAP1 POP JUMP JUMPDEST PUSH1 0x0 PUSH8 0xFFFFFFFFFFFFFFFF DUP3 GT ISZERO PUSH2 0xBA7 JUMPI PUSH2 0xBA6 PUSH2 0xB11 JUMP JUMPDEST JUMPDEST PUSH2 0xBB0 DUP3 PUSH2 0x9CC JUMP JUMPDEST SWAP1 POP PUSH1 0x20 DUP2 ADD SWAP1 POP SWAP2 SWAP1 POP JUMP JUMPDEST DUP3 DUP2 DUP4 CALLDATACOPY PUSH1 0x0 DUP4 DUP4 ADD MSTORE POP POP POP JUMP JUMPDEST PUSH1 0x0 PUSH2 0xBDF PUSH2 0xBDA DUP5 PUSH2 0xB8C JUMP JUMPDEST PUSH2 0xB71 JUMP JUMPDEST SWAP1 POP DUP3 DUP2 MSTORE PUSH1 0x20 DUP2 ADD DUP5 DUP5 DUP5 ADD GT ISZERO PUSH2 0xBFB JUMPI PUSH2 0xBFA PUSH2 0xB0C JUMP JUMPDEST JUMPDEST PUSH2 0xC06 DUP5 DUP3 DUP6 PUSH2 0xBBD JUMP JUMPDEST POP SWAP4 SWAP3 POP POP POP JUMP JUMPDEST PUSH1 0x0 DUP3 PUSH1 0x1F DUP4 ADD SLT PUSH2 0xC23 JUMPI PUSH2 0xC22 PUSH2 0xB07 JUMP JUMPDEST JUMPDEST DUP2 CALLDATALOAD PUSH2 0xC33 DUP5 DUP3 PUSH1 0x20 DUP7 ADD PUSH2 0xBCC JUMP JUMPDEST SWAP2 POP POP SWAP3 SWAP2 POP POP JUMP JUMPDEST PUSH2 0xC45 DUP2 PUSH2 0xA16 JUMP JUMPDEST DUP2 EQ PUSH2 0xC50 JUMPI PUSH1 0x0 DUP1 REVERT JUMPDEST POP JUMP JUMPDEST PUSH1 0x0 DUP2 CALLDATALOAD SWAP1 POP PUSH2 0xC62 DUP2 PUSH2 0xC3C JUMP JUMPDEST SWAP3 SWAP2 POP POP JUMP JUMPDEST PUSH1 0x0 DUP1 PUSH1 0x0 DUP1 PUSH1 0x80 DUP6 DUP8 SUB SLT ISZERO PUSH2 0xC82 JUMPI PUSH2 0xC81 PUSH2 0x8E2 JUMP JUMPDEST JUMPDEST PUSH1 0x0 DUP6 ADD CALLDATALOAD PUSH8 0xFFFFFFFFFFFFFFFF DUP2 GT ISZERO PUSH2 0xCA0 JUMPI PUSH2 0xC9F PUSH2 0x8E7 JUMP JUMPDEST JUMPDEST PUSH2 0xCAC DUP8 DUP3 DUP9 ADD PUSH2 0xC0E JUMP JUMPDEST SWAP5 POP POP PUSH1 0x20 DUP6 ADD CALLDATALOAD PUSH8 0xFFFFFFFFFFFFFFFF DUP2 GT ISZERO PUSH2 0xCCD JUMPI PUSH2 0xCCC PUSH2 0x8E7 JUMP JUMPDEST JUMPDEST PUSH2 0xCD9 DUP8 DUP3 DUP9 ADD PUSH2 0xC0E JUMP JUMPDEST SWAP4 POP POP PUSH1 0x40 PUSH2 0xCEA DUP8 DUP3 DUP9 ADD PUSH2 0xC53 JUMP JUMPDEST SWAP3 POP POP PUSH1 0x60 PUSH2 0xCFB DUP8 DUP3 DUP9 ADD PUSH2 0xC53 JUMP JUMPDEST SWAP2 POP POP SWAP3 SWAP6 SWAP2 SWAP5 POP SWAP3 POP JUMP JUMPDEST PUSH2 0xD10 DUP2 PUSH2 0x90C JUMP JUMPDEST DUP3 MSTORE POP POP JUMP JUMPDEST PUSH1 0x0 DUP3 DUP3 MSTORE PUSH1 0x20 DUP3 ADD SWAP1 POP SWAP3 SWAP2 POP POP JUMP JUMPDEST PUSH1 0x0 PUSH2 0xD32 DUP3 PUSH2 0x986 JUMP JUMPDEST PUSH2 0xD3C DUP2 DUP6 PUSH2 0xD16 JUMP JUMPDEST SWAP4 POP PUSH2 0xD4C DUP2 DUP6 PUSH1 0x20 DUP7 ADD PUSH2 0x9A2 JUMP JUMPDEST PUSH2 0xD55 DUP2 PUSH2 0x9CC JUMP JUMPDEST DUP5 ADD SWAP2 POP POP SWAP3 SWAP2 POP POP JUMP JUMPDEST PUSH2 0xD69 DUP2 PUSH2 0xA16 JUMP JUMPDEST DUP3 MSTORE POP POP JUMP JUMPDEST PUSH2 0xD78 DUP2 PUSH2 0xA85 JUMP JUMPDEST DUP3 MSTORE POP POP JUMP JUMPDEST PUSH1 0x0 PUSH1 0xA0 DUP4 ADD PUSH1 0x0 DUP4 ADD MLOAD PUSH2 0xD96 PUSH1 0x0 DUP7 ADD DUP3 PUSH2 0xD07 JUMP JUMPDEST POP PUSH1 0x20 DUP4 ADD MLOAD DUP5 DUP3 SUB PUSH1 0x20 DUP7 ADD MSTORE PUSH2 0xDAE DUP3 DUP3 PUSH2 0xD27 JUMP JUMPDEST SWAP2 POP POP PUSH1 0x40 DUP4 ADD MLOAD DUP5 DUP3 SUB PUSH1 0x40 DUP7 ADD MSTORE PUSH2 0xDC8 DUP3 DUP3 PUSH2 0xD27 JUMP JUMPDEST SWAP2 POP POP PUSH1 0x60 DUP4 ADD MLOAD PUSH2 0xDDD PUSH1 0x60 DUP7 ADD DUP3 PUSH2 0xD60 JUMP JUMPDEST POP PUSH1 0x80 DUP4 ADD MLOAD PUSH2 0xDF0 PUSH1 0x80 DUP7 ADD DUP3 PUSH2 0xD6F JUMP JUMPDEST POP DUP1 SWAP2 POP POP SWAP3 SWAP2 POP POP JUMP JUMPDEST PUSH1 0x0 PUSH1 0x20 DUP3 ADD SWAP1 POP DUP2 DUP2 SUB PUSH1 0x0 DUP4 ADD MSTORE PUSH2 0xE15 DUP2 DUP5 PUSH2 0xD7E JUMP JUMPDEST SWAP1 POP SWAP3 SWAP2 POP POP JUMP JUMPDEST PUSH1 0x0 PUSH1 0x20 DUP3 ADD SWAP1 POP PUSH2 0xE32 PUSH1 0x0 DUP4 ADD DUP5 PUSH2 0xA20 JUMP JUMPDEST SWAP3 SWAP2 POP POP JUMP JUMPDEST PUSH32 0x4E487B7100000000000000000000000000000000000000000000000000000000 PUSH1 0x0 MSTORE PUSH1 0x22 PUSH1 0x4 MSTORE PUSH1 0x24 PUSH1 0x0 REVERT JUMPDEST PUSH1 0x0 PUSH1 0x2 DUP3 DIV SWAP1 POP PUSH1 0x1 DUP3 AND DUP1 PUSH2 0xE7F JUMPI PUSH1 0x7F DUP3 AND SWAP2 POP JUMPDEST PUSH1 0x20 DUP3 LT DUP2 SUB PUSH2 0xE92 JUMPI PUSH2 0xE91 PUSH2 0xE38 JUMP JUMPDEST JUMPDEST POP SWAP2 SWAP1 POP JUMP JUMPDEST PUSH32 0x596F75206861766520616C726561647920616464656420612063617220757369 PUSH1 0x0 DUP3 ADD MSTORE PUSH32 0x6E672074686973206163636F756E740000000000000000000000000000000000 PUSH1 0x20 DUP3 ADD MSTORE POP JUMP JUMPDEST PUSH1 0x0 PUSH2 0xEF4 PUSH1 0x2F DUP4 PUSH2 0x991 JUMP JUMPDEST SWAP2 POP PUSH2 0xEFF DUP3 PUSH2 0xE98 JUMP JUMPDEST PUSH1 0x40 DUP3 ADD SWAP1 POP SWAP2 SWAP1 POP JUMP JUMPDEST PUSH1 0x0 PUSH1 0x20 DUP3 ADD SWAP1 POP DUP2 DUP2 SUB PUSH1 0x0 DUP4 ADD MSTORE PUSH2 0xF23 DUP2 PUSH2 0xEE7 JUMP JUMPDEST SWAP1 POP SWAP2 SWAP1 POP JUMP JUMPDEST PUSH1 0x0 DUP2 SWAP1 POP DUP2 PUSH1 0x0 MSTORE PUSH1 0x20 PUSH1 0x0 KECCAK256 SWAP1 POP SWAP2 SWAP1 POP JUMP JUMPDEST PUSH1 0x0 PUSH1 0x20 PUSH1 0x1F DUP4 ADD DIV SWAP1 POP SWAP2 SWAP1 POP JUMP JUMPDEST PUSH1 0x0 DUP3 DUP3 SHL SWAP1 POP SWAP3 SWAP2 POP POP JUMP JUMPDEST PUSH1 0x0 PUSH1 0x8 DUP4 MUL PUSH2 0xF8C PUSH32 0xFFFFFFFFFFFFFFFFFFFFFFFFFFFFFFFFFFFFFFFFFFFFFFFFFFFFFFFFFFFFFFFF DUP3 PUSH2 0xF4F JUMP JUMPDEST PUSH2 0xF96 DUP7 DUP4 PUSH2 0xF4F JUMP JUMPDEST SWAP6 POP DUP1 NOT DUP5 AND SWAP4 POP DUP1 DUP7 AND DUP5 OR SWAP3 POP POP POP SWAP4 SWAP3 POP POP POP JUMP JUMPDEST PUSH1 0x0 DUP2 SWAP1 POP SWAP2 SWAP1 POP JUMP JUMPDEST PUSH1 0x0 PUSH2 0xFD3 PUSH2 0xFCE PUSH2 0xFC9 DUP5 PUSH2 0xA16 JUMP JUMPDEST PUSH2 0xFAE JUMP JUMPDEST PUSH2 0xA16 JUMP JUMPDEST SWAP1 POP SWAP2 SWAP1 POP JUMP JUMPDEST PUSH1 0x0 DUP2 SWAP1 POP SWAP2 SWAP1 POP JUMP JUMPDEST PUSH2 0xFED DUP4 PUSH2 0xFB8 JUMP JUMPDEST PUSH2 0x1001 PUSH2 0xFF9 DUP3 PUSH2 0xFDA JUMP JUMPDEST DUP5 DUP5 SLOAD PUSH2 0xF5C JUMP JUMPDEST DUP3 SSTORE POP POP POP POP JUMP JUMPDEST PUSH1 0x0 SWAP1 JUMP JUMPDEST PUSH2 0x1016 PUSH2 0x1009 JUMP JUMPDEST PUSH2 0x1021 DUP2 DUP5 DUP5 PUSH2 0xFE4 JUMP JUMPDEST POP POP POP JUMP JUMPDEST JUMPDEST DUP2 DUP2 LT ISZERO PUSH2 0x1045 JUMPI PUSH2 0x103A PUSH1 0x0 DUP3 PUSH2 0x100E JUMP JUMPDEST PUSH1 0x1 DUP2 ADD SWAP1 POP PUSH2 0x1027 JUMP JUMPDEST POP POP JUMP JUMPDEST PUSH1 0x1F DUP3 GT ISZERO PUSH2 0x108A JUMPI PUSH2 0x105B DUP2 PUSH2 0xF2A JUMP JUMPDEST PUSH2 0x1064 DUP5 PUSH2 0xF3F JUMP JUMPDEST DUP2 ADD PUSH1 0x20 DUP6 LT ISZERO PUSH2 0x1073 JUMPI DUP2 SWAP1 POP JUMPDEST PUSH2 0x1087 PUSH2 0x107F DUP6 PUSH2 0xF3F JUMP JUMPDEST DUP4 ADD DUP3 PUSH2 0x1026 JUMP JUMPDEST POP POP JUMPDEST POP POP POP JUMP JUMPDEST PUSH1 0x0 DUP3 DUP3 SHR SWAP1 POP SWAP3 SWAP2 POP POP JUMP JUMPDEST PUSH1 0x0 PUSH2 0x10AD PUSH1 0x0 NOT DUP5 PUSH1 0x8 MUL PUSH2 0x108F JUMP JUMPDEST NOT DUP1 DUP4 AND SWAP2 POP POP SWAP3 SWAP2 POP POP JUMP JUMPDEST PUSH1 0x0 PUSH2 0x10C6 DUP4 DUP4 PUSH2 0x109C JUMP JUMPDEST SWAP2 POP DUP3 PUSH1 0x2 MUL DUP3 OR SWAP1 POP SWAP3 SWAP2 POP POP JUMP JUMPDEST PUSH2 0x10DF DUP3 PUSH2 0x986 JUMP JUMPDEST PUSH8 0xFFFFFFFFFFFFFFFF DUP2 GT ISZERO PUSH2 0x10F8 JUMPI PUSH2 0x10F7 PUSH2 0xB11 JUMP JUMPDEST JUMPDEST PUSH2 0x1102 DUP3 SLOAD PUSH2 0xE67 JUMP JUMPDEST PUSH2 0x110D DUP3 DUP3 DUP6 PUSH2 0x1049 JUMP JUMPDEST PUSH1 0x0 PUSH1 0x20 SWAP1 POP PUSH1 0x1F DUP4 GT PUSH1 0x1 DUP2 EQ PUSH2 0x1140 JUMPI PUSH1 0x0 DUP5 ISZERO PUSH2 0x112E JUMPI DUP3 DUP8 ADD MLOAD SWAP1 POP JUMPDEST PUSH2 0x1138 DUP6 DUP3 PUSH2 0x10BA JUMP JUMPDEST DUP7 SSTORE POP PUSH2 0x11A0 JUMP JUMPDEST PUSH1 0x1F NOT DUP5 AND PUSH2 0x114E DUP7 PUSH2 0xF2A JUMP JUMPDEST PUSH1 0x0 JUMPDEST DUP3 DUP2 LT ISZERO PUSH2 0x1176 JUMPI DUP5 DUP10 ADD MLOAD DUP3 SSTORE PUSH1 0x1 DUP3 ADD SWAP2 POP PUSH1 0x20 DUP6 ADD SWAP5 POP PUSH1 0x20 DUP2 ADD SWAP1 POP PUSH2 0x1151 JUMP JUMPDEST DUP7 DUP4 LT ISZERO PUSH2 0x1193 JUMPI DUP5 DUP10 ADD MLOAD PUSH2 0x118F PUSH1 0x1F DUP10 AND DUP3 PUSH2 0x109C JUMP JUMPDEST DUP4 SSTORE POP JUMPDEST PUSH1 0x1 PUSH1 0x2 DUP9 MUL ADD DUP9 SSTORE POP POP POP JUMPDEST POP POP POP POP POP POP JUMP INVALID LOG2 PUSH5 0x6970667358 0x22 SLT KECCAK256 CREATE2 EXTCODEHASH CHAINID BYTE DUP15 0xD0 EQ DUP12 LT 0xB1 SWAP4 SGT PUSH29 0x2FEDBC5FE784B7C8E5B2F3742F57AE71D4093D64736F6C634300081200 CALLER "
		},
		"gasEstimates": {
			"creation": {
				"codeDepositCost": "914800",
				"executionCost": "948",
				"totalCost": "915748"
			},
			"external": {
				"cars(address)": "infinite",
				"deleteCar()": "infinite",
				"getCarInfo(address)": "infinite",
				"getSeats(address)": "2913",
				"registerCar(string,string,uint256,uint256)": "infinite"
			}
		},
		"methodIdentifiers": {
			"cars(address)": "afd79cbd",
			"deleteCar()": "bcce66c9",
			"getCarInfo(address)": "c1588e80",
			"getSeats(address)": "c6920ef0",
			"registerCar(string,string,uint256,uint256)": "b98437a7"
		}
	},
	"abi": [
		{
			"inputs": [
				{
					"internalType": "address",
					"name": "",
					"type": "address"
				}
			],
			"name": "cars",
			"outputs": [
				{
					"internalType": "address",
					"name": "owner",
					"type": "address"
				},
				{
					"internalType": "string",
					"name": "carName",
					"type": "string"
				},
				{
					"internalType": "string",
					"name": "plateNumber",
					"type": "string"
				},
				{
					"internalType": "uint256",
					"name": "seats",
					"type": "uint256"
				},
				{
					"internalType": "enum CarManage.Car_Type",
					"name": "carType",
					"type": "uint8"
				}
			],
			"stateMutability": "view",
			"type": "function"
		},
		{
			"inputs": [],
			"name": "deleteCar",
			"outputs": [],
			"stateMutability": "nonpayable",
			"type": "function"
		},
		{
			"inputs": [
				{
					"internalType": "address",
					"name": "_address",
					"type": "address"
				}
			],
			"name": "getCarInfo",
			"outputs": [
				{
					"components": [
						{
							"internalType": "address",
							"name": "owner",
							"type": "address"
						},
						{
							"internalType": "string",
							"name": "carName",
							"type": "string"
						},
						{
							"internalType": "string",
							"name": "plateNumber",
							"type": "string"
						},
						{
							"internalType": "uint256",
							"name": "seats",
							"type": "uint256"
						},
						{
							"internalType": "enum CarManage.Car_Type",
							"name": "carType",
							"type": "uint8"
						}
					],
					"internalType": "struct CarManage.CarData",
					"name": "",
					"type": "tuple"
				}
			],
			"stateMutability": "view",
			"type": "function"
		},
		{
			"inputs": [
				{
					"internalType": "address",
					"name": "_address",
					"type": "address"
				}
			],
			"name": "getSeats",
			"outputs": [
				{
					"internalType": "uint256",
					"name": "",
					"type": "uint256"
				}
			],
			"stateMutability": "view",
			"type": "function"
		},
		{
			"inputs": [
				{
					"internalType": "string",
					"name": "_carName",
					"type": "string"
				},
				{
					"internalType": "string",
					"name": "_plateNumber",
					"type": "string"
				},
				{
					"internalType": "uint256",
					"name": "_seats",
					"type": "uint256"
				},
				{
					"internalType": "uint256",
					"name": "_carType",
					"type": "uint256"
				}
			],
			"name": "registerCar",
			"outputs": [],
			"stateMutability": "nonpayable",
			"type": "function"
		}
	]
}