{
	"data": {
		"bytecode": {
			"linkReferences": {},
			"object": "60806040523480156200001157600080fd5b506040516200353c3803806200353c8339818101604052810190620000379190620000fc565b806000806101000a81548173ffffffffffffffffffffffffffffffffffffffff021916908373ffffffffffffffffffffffffffffffffffffffff160217905550506200012e565b600080fd5b600073ffffffffffffffffffffffffffffffffffffffff82169050919050565b6000620000b08262000083565b9050919050565b6000620000c482620000a3565b9050919050565b620000d681620000b7565b8114620000e257600080fd5b50565b600081519050620000f681620000cb565b92915050565b6000602082840312156200011557620001146200007e565b5b60006200012584828501620000e5565b91505092915050565b6133fe806200013e6000396000f3fe6080604052600436106100c25760003560e01c8063a6f07b291161007f578063b17c3f9911610059578063b17c3f9914610296578063c05c5e94146102d5578063dc71297414610300578063f267a50a14610329576100c2565b8063a6f07b2914610214578063b0d928e11461023d578063b0e962e81461027a576100c2565b80631dab301e146100c7578063259c422d1461010b57806346ecb974146101485780634c85b969146101715780634e60f8301461019a5780637718f4ec146101d7575b600080fd5b3480156100d357600080fd5b506100ee60048036038101906100e9919061205b565b610366565b6040516101029897969594939291906121fa565b60405180910390f35b34801561011757600080fd5b50610132600480360381019061012d91906122b2565b6104f8565b60405161013f919061239d565b60405180910390f35b34801561015457600080fd5b5061016f600480360381019061016a919061205b565b6106a1565b005b34801561017d57600080fd5b50610198600480360381019061019391906123bf565b610ac2565b005b3480156101a657600080fd5b506101c160048036038101906101bc919061205b565b610e68565b6040516101ce919061252d565b60405180910390f35b3480156101e357600080fd5b506101fe60048036038101906101f9919061254f565b611196565b60405161020b919061258f565b60405180910390f35b34801561022057600080fd5b5061023b6004803603810190610236919061205b565b6111c7565b005b34801561024957600080fd5b50610264600480360381019061025f91906122b2565b611515565b60405161027191906125aa565b60405180910390f35b610294600480360381019061028f91906126fa565b611535565b005b3480156102a257600080fd5b506102bd60048036038101906102b8919061205b565b611980565b6040516102cc93929190612799565b60405180910390f35b3480156102e157600080fd5b506102ea6119ca565b6040516102f7919061282f565b60405180910390f35b34801561030c57600080fd5b506103276004803603810190610322919061205b565b6119ee565b005b34801561033557600080fd5b50610350600480360381019061034b91906122b2565b611f24565b60405161035d91906125aa565b60405180910390f35b600160205280600052604060002060009150905080600001549080600101805461038f90612879565b80601f01602080910402602001604051908101604052809291908181526020018280546103bb90612879565b80156104085780601f106103dd57610100808354040283529160200191610408565b820191906000526020600020905b8154815290600101906020018083116103eb57829003601f168201915b50505050509080600201805461041d90612879565b80601f016020809104026020016040519081016040528092919081815260200182805461044990612879565b80156104965780601f1061046b57610100808354040283529160200191610496565b820191906000526020600020905b81548152906001019060200180831161047957829003601f168201915b5050505050908060030154908060040154908060050160009054906101000a900473ffffffffffffffffffffffffffffffffffffffff16908060050160149054906101000a900460ff16908060050160159054906101000a900460ff16905088565b60606000600181111561050e5761050d612168565b5b60008054906101000a900473ffffffffffffffffffffffffffffffffffffffff1673ffffffffffffffffffffffffffffffffffffffff166344276733336040518263ffffffff1660e01b815260040161056791906128aa565b602060405180830381865afa158015610584573d6000803e3d6000fd5b505050506040513d601f19601f820116820180604052508101906105a891906128da565b60018111156105ba576105b9612168565b5b60018111156105cc576105cb612168565b5b1461060c576040517f08c379a000000000000000000000000000000000000000000000000000000000815260040161060390612953565b60405180910390fd5b600560008373ffffffffffffffffffffffffffffffffffffffff1673ffffffffffffffffffffffffffffffffffffffff16815260200190815260200160002080548060200260200160405190810160405280929190818152602001828054801561069557602002820191906000526020600020905b815481526020019060010190808311610681575b50505050509050919050565b6001808111156106b4576106b3612168565b5b60008054906101000a900473ffffffffffffffffffffffffffffffffffffffff1673ffffffffffffffffffffffffffffffffffffffff166344276733336040518263ffffffff1660e01b815260040161070d91906128aa565b602060405180830381865afa15801561072a573d6000803e3d6000fd5b505050506040513d601f19601f8201168201806040525081019061074e91906128da565b60018111156107605761075f612168565b5b600181111561077257610771612168565b5b146107b2576040517f08c379a00000000000000000000000000000000000000000000000000000000081526004016107a9906129bf565b60405180910390fd5b80600360006001600084815260200190815260200160002060050160009054906101000a900473ffffffffffffffffffffffffffffffffffffffff1673ffffffffffffffffffffffffffffffffffffffff1673ffffffffffffffffffffffffffffffffffffffff16815260200190815260200160002060009054906101000a900460ff16610875576040517f08c379a000000000000000000000000000000000000000000000000000000000815260040161086c90612a51565b60405180910390fd5b813373ffffffffffffffffffffffffffffffffffffffff166002600083815260200190815260200160002060010160009054906101000a900473ffffffffffffffffffffffffffffffffffffffff1673ffffffffffffffffffffffffffffffffffffffff161461091a576040517f08c379a000000000000000000000000000000000000000000000000000000000815260040161091190612abd565b60405180910390fd5b60006001600085815260200190815260200160002090506002600481111561094557610944612168565b5b8160050160149054906101000a900460ff16600481111561096957610968612168565b5b146109a9576040517f08c379a00000000000000000000000000000000000000000000000000000000081526004016109a090612b29565b60405180910390fd5b600360048111156109bd576109bc612168565b5b8160050160146101000a81548160ff021916908360048111156109e3576109e2612168565b5b02179055506000600360008360050160009054906101000a900473ffffffffffffffffffffffffffffffffffffffff1673ffffffffffffffffffffffffffffffffffffffff1673ffffffffffffffffffffffffffffffffffffffff16815260200190815260200160002060006101000a81548160ff0219169083151502179055506000600460003373ffffffffffffffffffffffffffffffffffffffff1673ffffffffffffffffffffffffffffffffffffffff16815260200190815260200160002060006101000a81548160ff02191690831515021790555050505050565b600180811115610ad557610ad4612168565b5b60008054906101000a900473ffffffffffffffffffffffffffffffffffffffff1673ffffffffffffffffffffffffffffffffffffffff166344276733336040518263ffffffff1660e01b8152600401610b2e91906128aa565b602060405180830381865afa158015610b4b573d6000803e3d6000fd5b505050506040513d601f19601f82011682018060405250810190610b6f91906128da565b6001811115610b8157610b80612168565b5b6001811115610b9357610b92612168565b5b14610bd3576040517f08c379a0000000000000000000000000000000000000000000000000000000008152600401610bca906129bf565b60405180910390fd5b80600360006001600084815260200190815260200160002060050160009054906101000a900473ffffffffffffffffffffffffffffffffffffffff1673ffffffffffffffffffffffffffffffffffffffff1673ffffffffffffffffffffffffffffffffffffffff16815260200190815260200160002060009054906101000a900460ff16610c96576040517f08c379a0000000000000000000000000000000000000000000000000000000008152600401610c8d90612a51565b60405180910390fd5b813373ffffffffffffffffffffffffffffffffffffffff166002600083815260200190815260200160002060010160009054906101000a900473ffffffffffffffffffffffffffffffffffffffff1673ffffffffffffffffffffffffffffffffffffffff1614610d3b576040517f08c379a0000000000000000000000000000000000000000000000000000000008152600401610d3290612abd565b60405180910390fd5b600060016000858152602001908152602001600020905060016004811115610d6657610d65612168565b5b8160050160149054906101000a900460ff166004811115610d8a57610d89612168565b5b14610dca576040517f08c379a0000000000000000000000000000000000000000000000000000000008152600401610dc190612b95565b60405180910390fd5b84600260008681526020019081526020016000206000015414610e22576040517f08c379a0000000000000000000000000000000000000000000000000000000008152600401610e1990612c01565b60405180910390fd5b60026004811115610e3657610e35612168565b5b8160050160146101000a81548160ff02191690836004811115610e5c57610e5b612168565b5b02179055505050505050565b610e70611fa2565b60006001811115610e8457610e83612168565b5b60008054906101000a900473ffffffffffffffffffffffffffffffffffffffff1673ffffffffffffffffffffffffffffffffffffffff166344276733336040518263ffffffff1660e01b8152600401610edd91906128aa565b602060405180830381865afa158015610efa573d6000803e3d6000fd5b505050506040513d601f19601f82011682018060405250810190610f1e91906128da565b6001811115610f3057610f2f612168565b5b6001811115610f4257610f41612168565b5b14610f82576040517f08c379a0000000000000000000000000000000000000000000000000000000008152600401610f7990612953565b60405180910390fd5b600160008381526020019081526020016000206040518061010001604052908160008201548152602001600182018054610fbb90612879565b80601f0160208091040260200160405190810160405280929190818152602001828054610fe790612879565b80156110345780601f1061100957610100808354040283529160200191611034565b820191906000526020600020905b81548152906001019060200180831161101757829003601f168201915b5050505050815260200160028201805461104d90612879565b80601f016020809104026020016040519081016040528092919081815260200182805461107990612879565b80156110c65780601f1061109b576101008083540402835291602001916110c6565b820191906000526020600020905b8154815290600101906020018083116110a957829003601f168201915b5050505050815260200160038201548152602001600482015481526020016005820160009054906101000a900473ffffffffffffffffffffffffffffffffffffffff1673ffffffffffffffffffffffffffffffffffffffff1673ffffffffffffffffffffffffffffffffffffffff1681526020016005820160149054906101000a900460ff16600481111561115e5761115d612168565b5b60048111156111705761116f612168565b5b81526020016005820160159054906101000a900460ff1615151515815250509050919050565b600560205281600052604060002081815481106111b257600080fd5b90600052602060002001600091509150505481565b80600360006001600084815260200190815260200160002060050160009054906101000a900473ffffffffffffffffffffffffffffffffffffffff1673ffffffffffffffffffffffffffffffffffffffff1673ffffffffffffffffffffffffffffffffffffffff16815260200190815260200160002060009054906101000a900460ff1661128a576040517f08c379a000000000000000000000000000000000000000000000000000000000815260040161128190612a51565b60405180910390fd5b6000600160008481526020019081526020016000209050600160048111156112b5576112b4612168565b5b8160050160149054906101000a900460ff1660048111156112d9576112d8612168565b5b148061131a5750600060048111156112f4576112f3612168565b5b8160050160149054906101000a900460ff16600481111561131857611317612168565b5b145b611359576040517f08c379a000000000000000000000000000000000000000000000000000000000815260040161135090612c6d565b60405180910390fd5b60048081111561136c5761136b612168565b5b8160050160146101000a81548160ff0219169083600481111561139257611391612168565b5b02179055508060050160009054906101000a900473ffffffffffffffffffffffffffffffffffffffff1673ffffffffffffffffffffffffffffffffffffffff166108fc82600401549081150290604051600060405180830381858888f19350505050158015611405573d6000803e3d6000fd5b506000600360008360050160009054906101000a900473ffffffffffffffffffffffffffffffffffffffff1673ffffffffffffffffffffffffffffffffffffffff1673ffffffffffffffffffffffffffffffffffffffff16815260200190815260200160002060006101000a81548160ff0219169083151502179055506000600460006002600087815260200190815260200160002060010160009054906101000a900473ffffffffffffffffffffffffffffffffffffffff1673ffffffffffffffffffffffffffffffffffffffff1673ffffffffffffffffffffffffffffffffffffffff16815260200190815260200160002060006101000a81548160ff021916908315150217905550505050565b60036020528060005260406000206000915054906101000a900460ff1681565b6000600181111561154957611548612168565b5b60008054906101000a900473ffffffffffffffffffffffffffffffffffffffff1673ffffffffffffffffffffffffffffffffffffffff166344276733336040518263ffffffff1660e01b81526004016115a291906128aa565b602060405180830381865afa1580156115bf573d6000803e3d6000fd5b505050506040513d601f19601f820116820180604052508101906115e391906128da565b60018111156115f5576115f4612168565b5b600181111561160757611606612168565b5b14611647576040517f08c379a000000000000000000000000000000000000000000000000000000000815260040161163e90612953565b60405180910390fd5b600360008573ffffffffffffffffffffffffffffffffffffffff1673ffffffffffffffffffffffffffffffffffffffff16815260200190815260200160002060009054906101000a900460ff16156116d4576040517f08c379a00000000000000000000000000000000000000000000000000000000081526004016116cb90612cff565b60405180910390fd5b600081670de0b6b3a76400006116ea9190612d4e565b905080341461172e576040517f08c379a000000000000000000000000000000000000000000000000000000000815260040161172590612ddc565b60405180910390fd5b6006600081548092919061174190612dfc565b919050555060405180610100016040528060065481526020018581526020018481526020018381526020018281526020018673ffffffffffffffffffffffffffffffffffffffff168152602001600060048111156117a2576117a1612168565b5b60048111156117b4576117b3612168565b5b8152602001600015158152506001600060065481526020019081526020016000206000820151816000015560208201518160010190816117f49190612fe6565b50604082015181600201908161180a9190612fe6565b50606082015181600301556080820151816004015560a08201518160050160006101000a81548173ffffffffffffffffffffffffffffffffffffffff021916908373ffffffffffffffffffffffffffffffffffffffff16021790555060c08201518160050160146101000a81548160ff0219169083600481111561189157611890612168565b5b021790555060e08201518160050160156101000a81548160ff0219169083151502179055509050506001600360008773ffffffffffffffffffffffffffffffffffffffff1673ffffffffffffffffffffffffffffffffffffffff16815260200190815260200160002060006101000a81548160ff021916908315150217905550600560003373ffffffffffffffffffffffffffffffffffffffff1673ffffffffffffffffffffffffffffffffffffffff16815260200190815260200160002060065490806001815401808255809150506001900390600052602060002001600090919091909150555050505050565b60026020528060005260406000206000915090508060000154908060010160009054906101000a900473ffffffffffffffffffffffffffffffffffffffff16908060020154905083565b60008054906101000a900473ffffffffffffffffffffffffffffffffffffffff1681565b600180811115611a0157611a00612168565b5b60008054906101000a900473ffffffffffffffffffffffffffffffffffffffff1673ffffffffffffffffffffffffffffffffffffffff166344276733336040518263ffffffff1660e01b8152600401611a5a91906128aa565b602060405180830381865afa158015611a77573d6000803e3d6000fd5b505050506040513d601f19601f82011682018060405250810190611a9b91906128da565b6001811115611aad57611aac612168565b5b6001811115611abf57611abe612168565b5b14611aff576040517f08c379a0000000000000000000000000000000000000000000000000000000008152600401611af6906129bf565b60405180910390fd5b80600360006001600084815260200190815260200160002060050160009054906101000a900473ffffffffffffffffffffffffffffffffffffffff1673ffffffffffffffffffffffffffffffffffffffff1673ffffffffffffffffffffffffffffffffffffffff16815260200190815260200160002060009054906101000a900460ff16611bc2576040517f08c379a0000000000000000000000000000000000000000000000000000000008152600401611bb990612a51565b60405180910390fd5b600060016000848152602001908152602001600020905060006004811115611bed57611bec612168565b5b8160050160149054906101000a900460ff166004811115611c1157611c10612168565b5b14611c51576040517f08c379a0000000000000000000000000000000000000000000000000000000008152600401611c4890613104565b60405180910390fd5b8060050160159054906101000a900460ff1615611ca3576040517f08c379a0000000000000000000000000000000000000000000000000000000008152600401611c9a90613170565b60405180910390fd5b600460003373ffffffffffffffffffffffffffffffffffffffff1673ffffffffffffffffffffffffffffffffffffffff16815260200190815260200160002060009054906101000a900460ff1615611d30576040517f08c379a0000000000000000000000000000000000000000000000000000000008152600401611d27906131dc565b60405180910390fd5b8060050160009054906101000a900473ffffffffffffffffffffffffffffffffffffffff1673ffffffffffffffffffffffffffffffffffffffff163373ffffffffffffffffffffffffffffffffffffffff1603611dc2576040517f08c379a0000000000000000000000000000000000000000000000000000000008152600401611db99061326e565b60405180910390fd5b6040518060600160405280611dd5611f44565b81526020013373ffffffffffffffffffffffffffffffffffffffff16815260200142815250600260008581526020019081526020016000206000820151816000015560208201518160010160006101000a81548173ffffffffffffffffffffffffffffffffffffffff021916908373ffffffffffffffffffffffffffffffffffffffff1602179055506040820151816002015590505060018160050160156101000a81548160ff02191690831515021790555060016004811115611e9c57611e9b612168565b5b8160050160146101000a81548160ff02191690836004811115611ec257611ec1612168565b5b02179055506001600460003373ffffffffffffffffffffffffffffffffffffffff1673ffffffffffffffffffffffffffffffffffffffff16815260200190815260200160002060006101000a81548160ff021916908315150217905550505050565b60046020528060005260406000206000915054906101000a900460ff1681565b6000600160076000828254611f59919061328e565b925050819055506127104233600754604051602001611f7a9392919061332b565b6040516020818303038152906040528051906020012060001c611f9d9190613397565b905090565b6040518061010001604052806000815260200160608152602001606081526020016000815260200160008152602001600073ffffffffffffffffffffffffffffffffffffffff1681526020016000600481111561200257612001612168565b5b81526020016000151581525090565b6000604051905090565b600080fd5b600080fd5b6000819050919050565b61203881612025565b811461204357600080fd5b50565b6000813590506120558161202f565b92915050565b6000602082840312156120715761207061201b565b5b600061207f84828501612046565b91505092915050565b61209181612025565b82525050565b600081519050919050565b600082825260208201905092915050565b60005b838110156120d15780820151818401526020810190506120b6565b60008484015250505050565b6000601f19601f8301169050919050565b60006120f982612097565b61210381856120a2565b93506121138185602086016120b3565b61211c816120dd565b840191505092915050565b600073ffffffffffffffffffffffffffffffffffffffff82169050919050565b600061215282612127565b9050919050565b61216281612147565b82525050565b7f4e487b7100000000000000000000000000000000000000000000000000000000600052602160045260246000fd5b600581106121a8576121a7612168565b5b50565b60008190506121b982612197565b919050565b60006121c9826121ab565b9050919050565b6121d9816121be565b82525050565b60008115159050919050565b6121f4816121df565b82525050565b600061010082019050612210600083018b612088565b8181036020830152612222818a6120ee565b9050818103604083015261223681896120ee565b90506122456060830188612088565b6122526080830187612088565b61225f60a0830186612159565b61226c60c08301856121d0565b61227960e08301846121eb565b9998505050505050505050565b61228f81612147565b811461229a57600080fd5b50565b6000813590506122ac81612286565b92915050565b6000602082840312156122c8576122c761201b565b5b60006122d68482850161229d565b91505092915050565b600081519050919050565b600082825260208201905092915050565b6000819050602082019050919050565b61231481612025565b82525050565b6000612326838361230b565b60208301905092915050565b6000602082019050919050565b600061234a826122df565b61235481856122ea565b935061235f836122fb565b8060005b83811015612390578151612377888261231a565b975061238283612332565b925050600181019050612363565b5085935050505092915050565b600060208201905081810360008301526123b7818461233f565b905092915050565b600080604083850312156123d6576123d561201b565b5b60006123e485828601612046565b92505060206123f585828601612046565b9150509250929050565b600082825260208201905092915050565b600061241b82612097565b61242581856123ff565b93506124358185602086016120b3565b61243e816120dd565b840191505092915050565b61245281612147565b82525050565b612461816121be565b82525050565b612470816121df565b82525050565b60006101008301600083015161248f600086018261230b565b50602083015184820360208601526124a78282612410565b915050604083015184820360408601526124c18282612410565b91505060608301516124d6606086018261230b565b5060808301516124e9608086018261230b565b5060a08301516124fc60a0860182612449565b5060c083015161250f60c0860182612458565b5060e083015161252260e0860182612467565b508091505092915050565b600060208201905081810360008301526125478184612476565b905092915050565b600080604083850312156125665761256561201b565b5b60006125748582860161229d565b925050602061258585828601612046565b9150509250929050565b60006020820190506125a46000830184612088565b92915050565b60006020820190506125bf60008301846121eb565b92915050565b600080fd5b600080fd5b7f4e487b7100000000000000000000000000000000000000000000000000000000600052604160045260246000fd5b612607826120dd565b810181811067ffffffffffffffff82111715612626576126256125cf565b5b80604052505050565b6000612639612011565b905061264582826125fe565b919050565b600067ffffffffffffffff821115612665576126646125cf565b5b61266e826120dd565b9050602081019050919050565b82818337600083830152505050565b600061269d6126988461264a565b61262f565b9050828152602081018484840111156126b9576126b86125ca565b5b6126c484828561267b565b509392505050565b600082601f8301126126e1576126e06125c5565b5b81356126f184826020860161268a565b91505092915050565b600080600080608085870312156127145761271361201b565b5b60006127228782880161229d565b945050602085013567ffffffffffffffff81111561274357612742612020565b5b61274f878288016126cc565b935050604085013567ffffffffffffffff8111156127705761276f612020565b5b61277c878288016126cc565b925050606061278d87828801612046565b91505092959194509250565b60006060820190506127ae6000830186612088565b6127bb6020830185612159565b6127c86040830184612088565b949350505050565b6000819050919050565b60006127f56127f06127eb84612127565b6127d0565b612127565b9050919050565b6000612807826127da565b9050919050565b6000612819826127fc565b9050919050565b6128298161280e565b82525050565b60006020820190506128446000830184612820565b92915050565b7f4e487b7100000000000000000000000000000000000000000000000000000000600052602260045260246000fd5b6000600282049050600182168061289157607f821691505b6020821081036128a4576128a361284a565b5b50919050565b60006020820190506128bf6000830184612159565b92915050565b6000815190506128d48161202f565b92915050565b6000602082840312156128f0576128ef61201b565b5b60006128fe848285016128c5565b91505092915050565b7f4f6e6c7920726964657273206861732061636365737300000000000000000000600082015250565b600061293d6016836120a2565b915061294882612907565b602082019050919050565b6000602082019050818103600083015261296c81612930565b9050919050565b7f4f6e6c79206f70657261746f7273206861732061636365737300000000000000600082015250565b60006129a96019836120a2565b91506129b482612973565b602082019050919050565b600060208201905081810360008301526129d88161299c565b9050919050565b7f546869732070617373656e67657220646f6e2774206861766520616e7920726960008201527f646520666f72206e6f7700000000000000000000000000000000000000000000602082015250565b6000612a3b602a836120a2565b9150612a46826129df565b604082019050919050565b60006020820190508181036000830152612a6a81612a2e565b9050919050565b7f596f7520617265206e6f7420647269766572206f662074686973207269646500600082015250565b6000612aa7601f836120a2565b9150612ab282612a71565b602082019050919050565b60006020820190508181036000830152612ad681612a9a565b9050919050565b7f50617373656e676572206973206e6f74207069636b6564207965740000000000600082015250565b6000612b13601b836120a2565b9150612b1e82612add565b602082019050919050565b60006020820190508181036000830152612b4281612b06565b9050919050565b7f426f6f6b696e67206973206e6f7420636f6e6669726d65642079657400000000600082015250565b6000612b7f601c836120a2565b9150612b8a82612b49565b602082019050919050565b60006020820190508181036000830152612bae81612b72565b9050919050565b7f496e76616c6964204f5450000000000000000000000000000000000000000000600082015250565b6000612beb600b836120a2565b9150612bf682612bb5565b602082019050919050565b60006020820190508181036000830152612c1a81612bde565b9050919050565b7f4e6f7720796f752063616e6e6f742063616e63656c2074686973207269646500600082015250565b6000612c57601f836120a2565b9150612c6282612c21565b602082019050919050565b60006020820190508181036000830152612c8681612c4a565b9050919050565b7f4b696e646c7920636f6d706c65746520796f75722063757272656e742072696460008201527f6500000000000000000000000000000000000000000000000000000000000000602082015250565b6000612ce96021836120a2565b9150612cf482612c8d565b604082019050919050565b60006020820190508181036000830152612d1881612cdc565b9050919050565b7f4e487b7100000000000000000000000000000000000000000000000000000000600052601160045260246000fd5b6000612d5982612025565b9150612d6483612025565b9250828202612d7281612025565b91508282048414831517612d8957612d88612d1f565b5b5092915050565b7f5061796d656e7420616d6f756e74206973206e6f742076616c69640000000000600082015250565b6000612dc6601b836120a2565b9150612dd182612d90565b602082019050919050565b60006020820190508181036000830152612df581612db9565b9050919050565b6000612e0782612025565b91507fffffffffffffffffffffffffffffffffffffffffffffffffffffffffffffffff8203612e3957612e38612d1f565b5b600182019050919050565b60008190508160005260206000209050919050565b60006020601f8301049050919050565b600082821b905092915050565b600060088302612ea67fffffffffffffffffffffffffffffffffffffffffffffffffffffffffffffffff82612e69565b612eb08683612e69565b95508019841693508086168417925050509392505050565b6000612ee3612ede612ed984612025565b6127d0565b612025565b9050919050565b6000819050919050565b612efd83612ec8565b612f11612f0982612eea565b848454612e76565b825550505050565b600090565b612f26612f19565b612f31818484612ef4565b505050565b5b81811015612f5557612f4a600082612f1e565b600181019050612f37565b5050565b601f821115612f9a57612f6b81612e44565b612f7484612e59565b81016020851015612f83578190505b612f97612f8f85612e59565b830182612f36565b50505b505050565b600082821c905092915050565b6000612fbd60001984600802612f9f565b1980831691505092915050565b6000612fd68383612fac565b9150826002028217905092915050565b612fef82612097565b67ffffffffffffffff811115613008576130076125cf565b5b6130128254612879565b61301d828285612f59565b600060209050601f831160018114613050576000841561303e578287015190505b6130488582612fca565b8655506130b0565b601f19841661305e86612e44565b60005b8281101561308657848901518255600182019150602085019450602081019050613061565b868310156130a3578489015161309f601f891682612fac565b8355505b6001600288020188555050505b505050505050565b7f496e76616c696420426f6f6b696e670000000000000000000000000000000000600082015250565b60006130ee600f836120a2565b91506130f9826130b8565b602082019050919050565b6000602082019050818103600083015261311d816130e1565b9050919050565b7f416c726561647920746865207269646520697320636f6e6669726d6564000000600082015250565b600061315a601d836120a2565b915061316582613124565b602082019050919050565b600060208201905081810360008301526131898161314d565b9050919050565b7f506c656173652066696e69736820796f75722063757272656e74207269646500600082015250565b60006131c6601f836120a2565b91506131d182613190565b602082019050919050565b600060208201905081810360008301526131f5816131b9565b9050919050565b7f50617373656e67657220616e6420447269766572206d757374206e6f7420626560008201527f2073616d65000000000000000000000000000000000000000000000000000000602082015250565b60006132586025836120a2565b9150613263826131fc565b604082019050919050565b600060208201905081810360008301526132878161324b565b9050919050565b600061329982612025565b91506132a483612025565b92508282019050808211156132bc576132bb612d1f565b5b92915050565b6000819050919050565b6132dd6132d882612025565b6132c2565b82525050565b60008160601b9050919050565b60006132fb826132e3565b9050919050565b600061330d826132f0565b9050919050565b61332561332082612147565b613302565b82525050565b600061333782866132cc565b6020820191506133478285613314565b60148201915061335782846132cc565b602082019150819050949350505050565b7f4e487b7100000000000000000000000000000000000000000000000000000000600052601260045260246000fd5b60006133a282612025565b91506133ad83612025565b9250826133bd576133bc613368565b5b82820690509291505056fea2646970667358221220f15266ecf503b881c234835df4a62ea4527de868efd51f688d805cb209c315da64736f6c63430008120033",
			"opcodes": "PUSH1 0x80 PUSH1 0x40 MSTORE CALLVALUE DUP1 ISZERO PUSH3 0x11 JUMPI PUSH1 0x0 DUP1 REVERT JUMPDEST POP PUSH1 0x40 MLOAD PUSH3 0x353C CODESIZE SUB DUP1 PUSH3 0x353C DUP4 CODECOPY DUP2 DUP2 ADD PUSH1 0x40 MSTORE DUP2 ADD SWAP1 PUSH3 0x37 SWAP2 SWAP1 PUSH3 0xFC JUMP JUMPDEST DUP1 PUSH1 0x0 DUP1 PUSH2 0x100 EXP DUP2 SLOAD DUP2 PUSH20 0xFFFFFFFFFFFFFFFFFFFFFFFFFFFFFFFFFFFFFFFF MUL NOT AND SWAP1 DUP4 PUSH20 0xFFFFFFFFFFFFFFFFFFFFFFFFFFFFFFFFFFFFFFFF AND MUL OR SWAP1 SSTORE POP POP PUSH3 0x12E JUMP JUMPDEST PUSH1 0x0 DUP1 REVERT JUMPDEST PUSH1 0x0 PUSH20 0xFFFFFFFFFFFFFFFFFFFFFFFFFFFFFFFFFFFFFFFF DUP3 AND SWAP1 POP SWAP2 SWAP1 POP JUMP JUMPDEST PUSH1 0x0 PUSH3 0xB0 DUP3 PUSH3 0x83 JUMP JUMPDEST SWAP1 POP SWAP2 SWAP1 POP JUMP JUMPDEST PUSH1 0x0 PUSH3 0xC4 DUP3 PUSH3 0xA3 JUMP JUMPDEST SWAP1 POP SWAP2 SWAP1 POP JUMP JUMPDEST PUSH3 0xD6 DUP2 PUSH3 0xB7 JUMP JUMPDEST DUP2 EQ PUSH3 0xE2 JUMPI PUSH1 0x0 DUP1 REVERT JUMPDEST POP JUMP JUMPDEST PUSH1 0x0 DUP2 MLOAD SWAP1 POP PUSH3 0xF6 DUP2 PUSH3 0xCB JUMP JUMPDEST SWAP3 SWAP2 POP POP JUMP JUMPDEST PUSH1 0x0 PUSH1 0x20 DUP3 DUP5 SUB SLT ISZERO PUSH3 0x115 JUMPI PUSH3 0x114 PUSH3 0x7E JUMP JUMPDEST JUMPDEST PUSH1 0x0 PUSH3 0x125 DUP5 DUP3 DUP6 ADD PUSH3 0xE5 JUMP JUMPDEST SWAP2 POP POP SWAP3 SWAP2 POP POP JUMP JUMPDEST PUSH2 0x33FE DUP1 PUSH3 0x13E PUSH1 0x0 CODECOPY PUSH1 0x0 RETURN INVALID PUSH1 0x80 PUSH1 0x40 MSTORE PUSH1 0x4 CALLDATASIZE LT PUSH2 0xC2 JUMPI PUSH1 0x0 CALLDATALOAD PUSH1 0xE0 SHR DUP1 PUSH4 0xA6F07B29 GT PUSH2 0x7F JUMPI DUP1 PUSH4 0xB17C3F99 GT PUSH2 0x59 JUMPI DUP1 PUSH4 0xB17C3F99 EQ PUSH2 0x296 JUMPI DUP1 PUSH4 0xC05C5E94 EQ PUSH2 0x2D5 JUMPI DUP1 PUSH4 0xDC712974 EQ PUSH2 0x300 JUMPI DUP1 PUSH4 0xF267A50A EQ PUSH2 0x329 JUMPI PUSH2 0xC2 JUMP JUMPDEST DUP1 PUSH4 0xA6F07B29 EQ PUSH2 0x214 JUMPI DUP1 PUSH4 0xB0D928E1 EQ PUSH2 0x23D JUMPI DUP1 PUSH4 0xB0E962E8 EQ PUSH2 0x27A JUMPI PUSH2 0xC2 JUMP JUMPDEST DUP1 PUSH4 0x1DAB301E EQ PUSH2 0xC7 JUMPI DUP1 PUSH4 0x259C422D EQ PUSH2 0x10B JUMPI DUP1 PUSH4 0x46ECB974 EQ PUSH2 0x148 JUMPI DUP1 PUSH4 0x4C85B969 EQ PUSH2 0x171 JUMPI DUP1 PUSH4 0x4E60F830 EQ PUSH2 0x19A JUMPI DUP1 PUSH4 0x7718F4EC EQ PUSH2 0x1D7 JUMPI JUMPDEST PUSH1 0x0 DUP1 REVERT JUMPDEST CALLVALUE DUP1 ISZERO PUSH2 0xD3 JUMPI PUSH1 0x0 DUP1 REVERT JUMPDEST POP PUSH2 0xEE PUSH1 0x4 DUP1 CALLDATASIZE SUB DUP2 ADD SWAP1 PUSH2 0xE9 SWAP2 SWAP1 PUSH2 0x205B JUMP JUMPDEST PUSH2 0x366 JUMP JUMPDEST PUSH1 0x40 MLOAD PUSH2 0x102 SWAP9 SWAP8 SWAP7 SWAP6 SWAP5 SWAP4 SWAP3 SWAP2 SWAP1 PUSH2 0x21FA JUMP JUMPDEST PUSH1 0x40 MLOAD DUP1 SWAP2 SUB SWAP1 RETURN JUMPDEST CALLVALUE DUP1 ISZERO PUSH2 0x117 JUMPI PUSH1 0x0 DUP1 REVERT JUMPDEST POP PUSH2 0x132 PUSH1 0x4 DUP1 CALLDATASIZE SUB DUP2 ADD SWAP1 PUSH2 0x12D SWAP2 SWAP1 PUSH2 0x22B2 JUMP JUMPDEST PUSH2 0x4F8 JUMP JUMPDEST PUSH1 0x40 MLOAD PUSH2 0x13F SWAP2 SWAP1 PUSH2 0x239D JUMP JUMPDEST PUSH1 0x40 MLOAD DUP1 SWAP2 SUB SWAP1 RETURN JUMPDEST CALLVALUE DUP1 ISZERO PUSH2 0x154 JUMPI PUSH1 0x0 DUP1 REVERT JUMPDEST POP PUSH2 0x16F PUSH1 0x4 DUP1 CALLDATASIZE SUB DUP2 ADD SWAP1 PUSH2 0x16A SWAP2 SWAP1 PUSH2 0x205B JUMP JUMPDEST PUSH2 0x6A1 JUMP JUMPDEST STOP JUMPDEST CALLVALUE DUP1 ISZERO PUSH2 0x17D JUMPI PUSH1 0x0 DUP1 REVERT JUMPDEST POP PUSH2 0x198 PUSH1 0x4 DUP1 CALLDATASIZE SUB DUP2 ADD SWAP1 PUSH2 0x193 SWAP2 SWAP1 PUSH2 0x23BF JUMP JUMPDEST PUSH2 0xAC2 JUMP JUMPDEST STOP JUMPDEST CALLVALUE DUP1 ISZERO PUSH2 0x1A6 JUMPI PUSH1 0x0 DUP1 REVERT JUMPDEST POP PUSH2 0x1C1 PUSH1 0x4 DUP1 CALLDATASIZE SUB DUP2 ADD SWAP1 PUSH2 0x1BC SWAP2 SWAP1 PUSH2 0x205B JUMP JUMPDEST PUSH2 0xE68 JUMP JUMPDEST PUSH1 0x40 MLOAD PUSH2 0x1CE SWAP2 SWAP1 PUSH2 0x252D JUMP JUMPDEST PUSH1 0x40 MLOAD DUP1 SWAP2 SUB SWAP1 RETURN JUMPDEST CALLVALUE DUP1 ISZERO PUSH2 0x1E3 JUMPI PUSH1 0x0 DUP1 REVERT JUMPDEST POP PUSH2 0x1FE PUSH1 0x4 DUP1 CALLDATASIZE SUB DUP2 ADD SWAP1 PUSH2 0x1F9 SWAP2 SWAP1 PUSH2 0x254F JUMP JUMPDEST PUSH2 0x1196 JUMP JUMPDEST PUSH1 0x40 MLOAD PUSH2 0x20B SWAP2 SWAP1 PUSH2 0x258F JUMP JUMPDEST PUSH1 0x40 MLOAD DUP1 SWAP2 SUB SWAP1 RETURN JUMPDEST CALLVALUE DUP1 ISZERO PUSH2 0x220 JUMPI PUSH1 0x0 DUP1 REVERT JUMPDEST POP PUSH2 0x23B PUSH1 0x4 DUP1 CALLDATASIZE SUB DUP2 ADD SWAP1 PUSH2 0x236 SWAP2 SWAP1 PUSH2 0x205B JUMP JUMPDEST PUSH2 0x11C7 JUMP JUMPDEST STOP JUMPDEST CALLVALUE DUP1 ISZERO PUSH2 0x249 JUMPI PUSH1 0x0 DUP1 REVERT JUMPDEST POP PUSH2 0x264 PUSH1 0x4 DUP1 CALLDATASIZE SUB DUP2 ADD SWAP1 PUSH2 0x25F SWAP2 SWAP1 PUSH2 0x22B2 JUMP JUMPDEST PUSH2 0x1515 JUMP JUMPDEST PUSH1 0x40 MLOAD PUSH2 0x271 SWAP2 SWAP1 PUSH2 0x25AA JUMP JUMPDEST PUSH1 0x40 MLOAD DUP1 SWAP2 SUB SWAP1 RETURN JUMPDEST PUSH2 0x294 PUSH1 0x4 DUP1 CALLDATASIZE SUB DUP2 ADD SWAP1 PUSH2 0x28F SWAP2 SWAP1 PUSH2 0x26FA JUMP JUMPDEST PUSH2 0x1535 JUMP JUMPDEST STOP JUMPDEST CALLVALUE DUP1 ISZERO PUSH2 0x2A2 JUMPI PUSH1 0x0 DUP1 REVERT JUMPDEST POP PUSH2 0x2BD PUSH1 0x4 DUP1 CALLDATASIZE SUB DUP2 ADD SWAP1 PUSH2 0x2B8 SWAP2 SWAP1 PUSH2 0x205B JUMP JUMPDEST PUSH2 0x1980 JUMP JUMPDEST PUSH1 0x40 MLOAD PUSH2 0x2CC SWAP4 SWAP3 SWAP2 SWAP1 PUSH2 0x2799 JUMP JUMPDEST PUSH1 0x40 MLOAD DUP1 SWAP2 SUB SWAP1 RETURN JUMPDEST CALLVALUE DUP1 ISZERO PUSH2 0x2E1 JUMPI PUSH1 0x0 DUP1 REVERT JUMPDEST POP PUSH2 0x2EA PUSH2 0x19CA JUMP JUMPDEST PUSH1 0x40 MLOAD PUSH2 0x2F7 SWAP2 SWAP1 PUSH2 0x282F JUMP JUMPDEST PUSH1 0x40 MLOAD DUP1 SWAP2 SUB SWAP1 RETURN JUMPDEST CALLVALUE DUP1 ISZERO PUSH2 0x30C JUMPI PUSH1 0x0 DUP1 REVERT JUMPDEST POP PUSH2 0x327 PUSH1 0x4 DUP1 CALLDATASIZE SUB DUP2 ADD SWAP1 PUSH2 0x322 SWAP2 SWAP1 PUSH2 0x205B JUMP JUMPDEST PUSH2 0x19EE JUMP JUMPDEST STOP JUMPDEST CALLVALUE DUP1 ISZERO PUSH2 0x335 JUMPI PUSH1 0x0 DUP1 REVERT JUMPDEST POP PUSH2 0x350 PUSH1 0x4 DUP1 CALLDATASIZE SUB DUP2 ADD SWAP1 PUSH2 0x34B SWAP2 SWAP1 PUSH2 0x22B2 JUMP JUMPDEST PUSH2 0x1F24 JUMP JUMPDEST PUSH1 0x40 MLOAD PUSH2 0x35D SWAP2 SWAP1 PUSH2 0x25AA JUMP JUMPDEST PUSH1 0x40 MLOAD DUP1 SWAP2 SUB SWAP1 RETURN JUMPDEST PUSH1 0x1 PUSH1 0x20 MSTORE DUP1 PUSH1 0x0 MSTORE PUSH1 0x40 PUSH1 0x0 KECCAK256 PUSH1 0x0 SWAP2 POP SWAP1 POP DUP1 PUSH1 0x0 ADD SLOAD SWAP1 DUP1 PUSH1 0x1 ADD DUP1 SLOAD PUSH2 0x38F SWAP1 PUSH2 0x2879 JUMP JUMPDEST DUP1 PUSH1 0x1F ADD PUSH1 0x20 DUP1 SWAP2 DIV MUL PUSH1 0x20 ADD PUSH1 0x40 MLOAD SWAP1 DUP2 ADD PUSH1 0x40 MSTORE DUP1 SWAP3 SWAP2 SWAP1 DUP2 DUP2 MSTORE PUSH1 0x20 ADD DUP3 DUP1 SLOAD PUSH2 0x3BB SWAP1 PUSH2 0x2879 JUMP JUMPDEST DUP1 ISZERO PUSH2 0x408 JUMPI DUP1 PUSH1 0x1F LT PUSH2 0x3DD JUMPI PUSH2 0x100 DUP1 DUP4 SLOAD DIV MUL DUP4 MSTORE SWAP2 PUSH1 0x20 ADD SWAP2 PUSH2 0x408 JUMP JUMPDEST DUP3 ADD SWAP2 SWAP1 PUSH1 0x0 MSTORE PUSH1 0x20 PUSH1 0x0 KECCAK256 SWAP1 JUMPDEST DUP2 SLOAD DUP2 MSTORE SWAP1 PUSH1 0x1 ADD SWAP1 PUSH1 0x20 ADD DUP1 DUP4 GT PUSH2 0x3EB JUMPI DUP3 SWAP1 SUB PUSH1 0x1F AND DUP3 ADD SWAP2 JUMPDEST POP POP POP POP POP SWAP1 DUP1 PUSH1 0x2 ADD DUP1 SLOAD PUSH2 0x41D SWAP1 PUSH2 0x2879 JUMP JUMPDEST DUP1 PUSH1 0x1F ADD PUSH1 0x20 DUP1 SWAP2 DIV MUL PUSH1 0x20 ADD PUSH1 0x40 MLOAD SWAP1 DUP2 ADD PUSH1 0x40 MSTORE DUP1 SWAP3 SWAP2 SWAP1 DUP2 DUP2 MSTORE PUSH1 0x20 ADD DUP3 DUP1 SLOAD PUSH2 0x449 SWAP1 PUSH2 0x2879 JUMP JUMPDEST DUP1 ISZERO PUSH2 0x496 JUMPI DUP1 PUSH1 0x1F LT PUSH2 0x46B JUMPI PUSH2 0x100 DUP1 DUP4 SLOAD DIV MUL DUP4 MSTORE SWAP2 PUSH1 0x20 ADD SWAP2 PUSH2 0x496 JUMP JUMPDEST DUP3 ADD SWAP2 SWAP1 PUSH1 0x0 MSTORE PUSH1 0x20 PUSH1 0x0 KECCAK256 SWAP1 JUMPDEST DUP2 SLOAD DUP2 MSTORE SWAP1 PUSH1 0x1 ADD SWAP1 PUSH1 0x20 ADD DUP1 DUP4 GT PUSH2 0x479 JUMPI DUP3 SWAP1 SUB PUSH1 0x1F AND DUP3 ADD SWAP2 JUMPDEST POP POP POP POP POP SWAP1 DUP1 PUSH1 0x3 ADD SLOAD SWAP1 DUP1 PUSH1 0x4 ADD SLOAD SWAP1 DUP1 PUSH1 0x5 ADD PUSH1 0x0 SWAP1 SLOAD SWAP1 PUSH2 0x100 EXP SWAP1 DIV PUSH20 0xFFFFFFFFFFFFFFFFFFFFFFFFFFFFFFFFFFFFFFFF AND SWAP1 DUP1 PUSH1 0x5 ADD PUSH1 0x14 SWAP1 SLOAD SWAP1 PUSH2 0x100 EXP SWAP1 DIV PUSH1 0xFF AND SWAP1 DUP1 PUSH1 0x5 ADD PUSH1 0x15 SWAP1 SLOAD SWAP1 PUSH2 0x100 EXP SWAP1 DIV PUSH1 0xFF AND SWAP1 POP DUP9 JUMP JUMPDEST PUSH1 0x60 PUSH1 0x0 PUSH1 0x1 DUP2 GT ISZERO PUSH2 0x50E JUMPI PUSH2 0x50D PUSH2 0x2168 JUMP JUMPDEST JUMPDEST PUSH1 0x0 DUP1 SLOAD SWAP1 PUSH2 0x100 EXP SWAP1 DIV PUSH20 0xFFFFFFFFFFFFFFFFFFFFFFFFFFFFFFFFFFFFFFFF AND PUSH20 0xFFFFFFFFFFFFFFFFFFFFFFFFFFFFFFFFFFFFFFFF AND PUSH4 0x44276733 CALLER PUSH1 0x40 MLOAD DUP3 PUSH4 0xFFFFFFFF AND PUSH1 0xE0 SHL DUP2 MSTORE PUSH1 0x4 ADD PUSH2 0x567 SWAP2 SWAP1 PUSH2 0x28AA JUMP JUMPDEST PUSH1 0x20 PUSH1 0x40 MLOAD DUP1 DUP4 SUB DUP2 DUP7 GAS STATICCALL ISZERO DUP1 ISZERO PUSH2 0x584 JUMPI RETURNDATASIZE PUSH1 0x0 DUP1 RETURNDATACOPY RETURNDATASIZE PUSH1 0x0 REVERT JUMPDEST POP POP POP POP PUSH1 0x40 MLOAD RETURNDATASIZE PUSH1 0x1F NOT PUSH1 0x1F DUP3 ADD AND DUP3 ADD DUP1 PUSH1 0x40 MSTORE POP DUP2 ADD SWAP1 PUSH2 0x5A8 SWAP2 SWAP1 PUSH2 0x28DA JUMP JUMPDEST PUSH1 0x1 DUP2 GT ISZERO PUSH2 0x5BA JUMPI PUSH2 0x5B9 PUSH2 0x2168 JUMP JUMPDEST JUMPDEST PUSH1 0x1 DUP2 GT ISZERO PUSH2 0x5CC JUMPI PUSH2 0x5CB PUSH2 0x2168 JUMP JUMPDEST JUMPDEST EQ PUSH2 0x60C JUMPI PUSH1 0x40 MLOAD PUSH32 0x8C379A000000000000000000000000000000000000000000000000000000000 DUP2 MSTORE PUSH1 0x4 ADD PUSH2 0x603 SWAP1 PUSH2 0x2953 JUMP JUMPDEST PUSH1 0x40 MLOAD DUP1 SWAP2 SUB SWAP1 REVERT JUMPDEST PUSH1 0x5 PUSH1 0x0 DUP4 PUSH20 0xFFFFFFFFFFFFFFFFFFFFFFFFFFFFFFFFFFFFFFFF AND PUSH20 0xFFFFFFFFFFFFFFFFFFFFFFFFFFFFFFFFFFFFFFFF AND DUP2 MSTORE PUSH1 0x20 ADD SWAP1 DUP2 MSTORE PUSH1 0x20 ADD PUSH1 0x0 KECCAK256 DUP1 SLOAD DUP1 PUSH1 0x20 MUL PUSH1 0x20 ADD PUSH1 0x40 MLOAD SWAP1 DUP2 ADD PUSH1 0x40 MSTORE DUP1 SWAP3 SWAP2 SWAP1 DUP2 DUP2 MSTORE PUSH1 0x20 ADD DUP3 DUP1 SLOAD DUP1 ISZERO PUSH2 0x695 JUMPI PUSH1 0x20 MUL DUP3 ADD SWAP2 SWAP1 PUSH1 0x0 MSTORE PUSH1 0x20 PUSH1 0x0 KECCAK256 SWAP1 JUMPDEST DUP2 SLOAD DUP2 MSTORE PUSH1 0x20 ADD SWAP1 PUSH1 0x1 ADD SWAP1 DUP1 DUP4 GT PUSH2 0x681 JUMPI JUMPDEST POP POP POP POP POP SWAP1 POP SWAP2 SWAP1 POP JUMP JUMPDEST PUSH1 0x1 DUP1 DUP2 GT ISZERO PUSH2 0x6B4 JUMPI PUSH2 0x6B3 PUSH2 0x2168 JUMP JUMPDEST JUMPDEST PUSH1 0x0 DUP1 SLOAD SWAP1 PUSH2 0x100 EXP SWAP1 DIV PUSH20 0xFFFFFFFFFFFFFFFFFFFFFFFFFFFFFFFFFFFFFFFF AND PUSH20 0xFFFFFFFFFFFFFFFFFFFFFFFFFFFFFFFFFFFFFFFF AND PUSH4 0x44276733 CALLER PUSH1 0x40 MLOAD DUP3 PUSH4 0xFFFFFFFF AND PUSH1 0xE0 SHL DUP2 MSTORE PUSH1 0x4 ADD PUSH2 0x70D SWAP2 SWAP1 PUSH2 0x28AA JUMP JUMPDEST PUSH1 0x20 PUSH1 0x40 MLOAD DUP1 DUP4 SUB DUP2 DUP7 GAS STATICCALL ISZERO DUP1 ISZERO PUSH2 0x72A JUMPI RETURNDATASIZE PUSH1 0x0 DUP1 RETURNDATACOPY RETURNDATASIZE PUSH1 0x0 REVERT JUMPDEST POP POP POP POP PUSH1 0x40 MLOAD RETURNDATASIZE PUSH1 0x1F NOT PUSH1 0x1F DUP3 ADD AND DUP3 ADD DUP1 PUSH1 0x40 MSTORE POP DUP2 ADD SWAP1 PUSH2 0x74E SWAP2 SWAP1 PUSH2 0x28DA JUMP JUMPDEST PUSH1 0x1 DUP2 GT ISZERO PUSH2 0x760 JUMPI PUSH2 0x75F PUSH2 0x2168 JUMP JUMPDEST JUMPDEST PUSH1 0x1 DUP2 GT ISZERO PUSH2 0x772 JUMPI PUSH2 0x771 PUSH2 0x2168 JUMP JUMPDEST JUMPDEST EQ PUSH2 0x7B2 JUMPI PUSH1 0x40 MLOAD PUSH32 0x8C379A000000000000000000000000000000000000000000000000000000000 DUP2 MSTORE PUSH1 0x4 ADD PUSH2 0x7A9 SWAP1 PUSH2 0x29BF JUMP JUMPDEST PUSH1 0x40 MLOAD DUP1 SWAP2 SUB SWAP1 REVERT JUMPDEST DUP1 PUSH1 0x3 PUSH1 0x0 PUSH1 0x1 PUSH1 0x0 DUP5 DUP2 MSTORE PUSH1 0x20 ADD SWAP1 DUP2 MSTORE PUSH1 0x20 ADD PUSH1 0x0 KECCAK256 PUSH1 0x5 ADD PUSH1 0x0 SWAP1 SLOAD SWAP1 PUSH2 0x100 EXP SWAP1 DIV PUSH20 0xFFFFFFFFFFFFFFFFFFFFFFFFFFFFFFFFFFFFFFFF AND PUSH20 0xFFFFFFFFFFFFFFFFFFFFFFFFFFFFFFFFFFFFFFFF AND PUSH20 0xFFFFFFFFFFFFFFFFFFFFFFFFFFFFFFFFFFFFFFFF AND DUP2 MSTORE PUSH1 0x20 ADD SWAP1 DUP2 MSTORE PUSH1 0x20 ADD PUSH1 0x0 KECCAK256 PUSH1 0x0 SWAP1 SLOAD SWAP1 PUSH2 0x100 EXP SWAP1 DIV PUSH1 0xFF AND PUSH2 0x875 JUMPI PUSH1 0x40 MLOAD PUSH32 0x8C379A000000000000000000000000000000000000000000000000000000000 DUP2 MSTORE PUSH1 0x4 ADD PUSH2 0x86C SWAP1 PUSH2 0x2A51 JUMP JUMPDEST PUSH1 0x40 MLOAD DUP1 SWAP2 SUB SWAP1 REVERT JUMPDEST DUP2 CALLER PUSH20 0xFFFFFFFFFFFFFFFFFFFFFFFFFFFFFFFFFFFFFFFF AND PUSH1 0x2 PUSH1 0x0 DUP4 DUP2 MSTORE PUSH1 0x20 ADD SWAP1 DUP2 MSTORE PUSH1 0x20 ADD PUSH1 0x0 KECCAK256 PUSH1 0x1 ADD PUSH1 0x0 SWAP1 SLOAD SWAP1 PUSH2 0x100 EXP SWAP1 DIV PUSH20 0xFFFFFFFFFFFFFFFFFFFFFFFFFFFFFFFFFFFFFFFF AND PUSH20 0xFFFFFFFFFFFFFFFFFFFFFFFFFFFFFFFFFFFFFFFF AND EQ PUSH2 0x91A JUMPI PUSH1 0x40 MLOAD PUSH32 0x8C379A000000000000000000000000000000000000000000000000000000000 DUP2 MSTORE PUSH1 0x4 ADD PUSH2 0x911 SWAP1 PUSH2 0x2ABD JUMP JUMPDEST PUSH1 0x40 MLOAD DUP1 SWAP2 SUB SWAP1 REVERT JUMPDEST PUSH1 0x0 PUSH1 0x1 PUSH1 0x0 DUP6 DUP2 MSTORE PUSH1 0x20 ADD SWAP1 DUP2 MSTORE PUSH1 0x20 ADD PUSH1 0x0 KECCAK256 SWAP1 POP PUSH1 0x2 PUSH1 0x4 DUP2 GT ISZERO PUSH2 0x945 JUMPI PUSH2 0x944 PUSH2 0x2168 JUMP JUMPDEST JUMPDEST DUP2 PUSH1 0x5 ADD PUSH1 0x14 SWAP1 SLOAD SWAP1 PUSH2 0x100 EXP SWAP1 DIV PUSH1 0xFF AND PUSH1 0x4 DUP2 GT ISZERO PUSH2 0x969 JUMPI PUSH2 0x968 PUSH2 0x2168 JUMP JUMPDEST JUMPDEST EQ PUSH2 0x9A9 JUMPI PUSH1 0x40 MLOAD PUSH32 0x8C379A000000000000000000000000000000000000000000000000000000000 DUP2 MSTORE PUSH1 0x4 ADD PUSH2 0x9A0 SWAP1 PUSH2 0x2B29 JUMP JUMPDEST PUSH1 0x40 MLOAD DUP1 SWAP2 SUB SWAP1 REVERT JUMPDEST PUSH1 0x3 PUSH1 0x4 DUP2 GT ISZERO PUSH2 0x9BD JUMPI PUSH2 0x9BC PUSH2 0x2168 JUMP JUMPDEST JUMPDEST DUP2 PUSH1 0x5 ADD PUSH1 0x14 PUSH2 0x100 EXP DUP2 SLOAD DUP2 PUSH1 0xFF MUL NOT AND SWAP1 DUP4 PUSH1 0x4 DUP2 GT ISZERO PUSH2 0x9E3 JUMPI PUSH2 0x9E2 PUSH2 0x2168 JUMP JUMPDEST JUMPDEST MUL OR SWAP1 SSTORE POP PUSH1 0x0 PUSH1 0x3 PUSH1 0x0 DUP4 PUSH1 0x5 ADD PUSH1 0x0 SWAP1 SLOAD SWAP1 PUSH2 0x100 EXP SWAP1 DIV PUSH20 0xFFFFFFFFFFFFFFFFFFFFFFFFFFFFFFFFFFFFFFFF AND PUSH20 0xFFFFFFFFFFFFFFFFFFFFFFFFFFFFFFFFFFFFFFFF AND PUSH20 0xFFFFFFFFFFFFFFFFFFFFFFFFFFFFFFFFFFFFFFFF AND DUP2 MSTORE PUSH1 0x20 ADD SWAP1 DUP2 MSTORE PUSH1 0x20 ADD PUSH1 0x0 KECCAK256 PUSH1 0x0 PUSH2 0x100 EXP DUP2 SLOAD DUP2 PUSH1 0xFF MUL NOT AND SWAP1 DUP4 ISZERO ISZERO MUL OR SWAP1 SSTORE POP PUSH1 0x0 PUSH1 0x4 PUSH1 0x0 CALLER PUSH20 0xFFFFFFFFFFFFFFFFFFFFFFFFFFFFFFFFFFFFFFFF AND PUSH20 0xFFFFFFFFFFFFFFFFFFFFFFFFFFFFFFFFFFFFFFFF AND DUP2 MSTORE PUSH1 0x20 ADD SWAP1 DUP2 MSTORE PUSH1 0x20 ADD PUSH1 0x0 KECCAK256 PUSH1 0x0 PUSH2 0x100 EXP DUP2 SLOAD DUP2 PUSH1 0xFF MUL NOT AND SWAP1 DUP4 ISZERO ISZERO MUL OR SWAP1 SSTORE POP POP POP POP POP JUMP JUMPDEST PUSH1 0x1 DUP1 DUP2 GT ISZERO PUSH2 0xAD5 JUMPI PUSH2 0xAD4 PUSH2 0x2168 JUMP JUMPDEST JUMPDEST PUSH1 0x0 DUP1 SLOAD SWAP1 PUSH2 0x100 EXP SWAP1 DIV PUSH20 0xFFFFFFFFFFFFFFFFFFFFFFFFFFFFFFFFFFFFFFFF AND PUSH20 0xFFFFFFFFFFFFFFFFFFFFFFFFFFFFFFFFFFFFFFFF AND PUSH4 0x44276733 CALLER PUSH1 0x40 MLOAD DUP3 PUSH4 0xFFFFFFFF AND PUSH1 0xE0 SHL DUP2 MSTORE PUSH1 0x4 ADD PUSH2 0xB2E SWAP2 SWAP1 PUSH2 0x28AA JUMP JUMPDEST PUSH1 0x20 PUSH1 0x40 MLOAD DUP1 DUP4 SUB DUP2 DUP7 GAS STATICCALL ISZERO DUP1 ISZERO PUSH2 0xB4B JUMPI RETURNDATASIZE PUSH1 0x0 DUP1 RETURNDATACOPY RETURNDATASIZE PUSH1 0x0 REVERT JUMPDEST POP POP POP POP PUSH1 0x40 MLOAD RETURNDATASIZE PUSH1 0x1F NOT PUSH1 0x1F DUP3 ADD AND DUP3 ADD DUP1 PUSH1 0x40 MSTORE POP DUP2 ADD SWAP1 PUSH2 0xB6F SWAP2 SWAP1 PUSH2 0x28DA JUMP JUMPDEST PUSH1 0x1 DUP2 GT ISZERO PUSH2 0xB81 JUMPI PUSH2 0xB80 PUSH2 0x2168 JUMP JUMPDEST JUMPDEST PUSH1 0x1 DUP2 GT ISZERO PUSH2 0xB93 JUMPI PUSH2 0xB92 PUSH2 0x2168 JUMP JUMPDEST JUMPDEST EQ PUSH2 0xBD3 JUMPI PUSH1 0x40 MLOAD PUSH32 0x8C379A000000000000000000000000000000000000000000000000000000000 DUP2 MSTORE PUSH1 0x4 ADD PUSH2 0xBCA SWAP1 PUSH2 0x29BF JUMP JUMPDEST PUSH1 0x40 MLOAD DUP1 SWAP2 SUB SWAP1 REVERT JUMPDEST DUP1 PUSH1 0x3 PUSH1 0x0 PUSH1 0x1 PUSH1 0x0 DUP5 DUP2 MSTORE PUSH1 0x20 ADD SWAP1 DUP2 MSTORE PUSH1 0x20 ADD PUSH1 0x0 KECCAK256 PUSH1 0x5 ADD PUSH1 0x0 SWAP1 SLOAD SWAP1 PUSH2 0x100 EXP SWAP1 DIV PUSH20 0xFFFFFFFFFFFFFFFFFFFFFFFFFFFFFFFFFFFFFFFF AND PUSH20 0xFFFFFFFFFFFFFFFFFFFFFFFFFFFFFFFFFFFFFFFF AND PUSH20 0xFFFFFFFFFFFFFFFFFFFFFFFFFFFFFFFFFFFFFFFF AND DUP2 MSTORE PUSH1 0x20 ADD SWAP1 DUP2 MSTORE PUSH1 0x20 ADD PUSH1 0x0 KECCAK256 PUSH1 0x0 SWAP1 SLOAD SWAP1 PUSH2 0x100 EXP SWAP1 DIV PUSH1 0xFF AND PUSH2 0xC96 JUMPI PUSH1 0x40 MLOAD PUSH32 0x8C379A000000000000000000000000000000000000000000000000000000000 DUP2 MSTORE PUSH1 0x4 ADD PUSH2 0xC8D SWAP1 PUSH2 0x2A51 JUMP JUMPDEST PUSH1 0x40 MLOAD DUP1 SWAP2 SUB SWAP1 REVERT JUMPDEST DUP2 CALLER PUSH20 0xFFFFFFFFFFFFFFFFFFFFFFFFFFFFFFFFFFFFFFFF AND PUSH1 0x2 PUSH1 0x0 DUP4 DUP2 MSTORE PUSH1 0x20 ADD SWAP1 DUP2 MSTORE PUSH1 0x20 ADD PUSH1 0x0 KECCAK256 PUSH1 0x1 ADD PUSH1 0x0 SWAP1 SLOAD SWAP1 PUSH2 0x100 EXP SWAP1 DIV PUSH20 0xFFFFFFFFFFFFFFFFFFFFFFFFFFFFFFFFFFFFFFFF AND PUSH20 0xFFFFFFFFFFFFFFFFFFFFFFFFFFFFFFFFFFFFFFFF AND EQ PUSH2 0xD3B JUMPI PUSH1 0x40 MLOAD PUSH32 0x8C379A000000000000000000000000000000000000000000000000000000000 DUP2 MSTORE PUSH1 0x4 ADD PUSH2 0xD32 SWAP1 PUSH2 0x2ABD JUMP JUMPDEST PUSH1 0x40 MLOAD DUP1 SWAP2 SUB SWAP1 REVERT JUMPDEST PUSH1 0x0 PUSH1 0x1 PUSH1 0x0 DUP6 DUP2 MSTORE PUSH1 0x20 ADD SWAP1 DUP2 MSTORE PUSH1 0x20 ADD PUSH1 0x0 KECCAK256 SWAP1 POP PUSH1 0x1 PUSH1 0x4 DUP2 GT ISZERO PUSH2 0xD66 JUMPI PUSH2 0xD65 PUSH2 0x2168 JUMP JUMPDEST JUMPDEST DUP2 PUSH1 0x5 ADD PUSH1 0x14 SWAP1 SLOAD SWAP1 PUSH2 0x100 EXP SWAP1 DIV PUSH1 0xFF AND PUSH1 0x4 DUP2 GT ISZERO PUSH2 0xD8A JUMPI PUSH2 0xD89 PUSH2 0x2168 JUMP JUMPDEST JUMPDEST EQ PUSH2 0xDCA JUMPI PUSH1 0x40 MLOAD PUSH32 0x8C379A000000000000000000000000000000000000000000000000000000000 DUP2 MSTORE PUSH1 0x4 ADD PUSH2 0xDC1 SWAP1 PUSH2 0x2B95 JUMP JUMPDEST PUSH1 0x40 MLOAD DUP1 SWAP2 SUB SWAP1 REVERT JUMPDEST DUP5 PUSH1 0x2 PUSH1 0x0 DUP7 DUP2 MSTORE PUSH1 0x20 ADD SWAP1 DUP2 MSTORE PUSH1 0x20 ADD PUSH1 0x0 KECCAK256 PUSH1 0x0 ADD SLOAD EQ PUSH2 0xE22 JUMPI PUSH1 0x40 MLOAD PUSH32 0x8C379A000000000000000000000000000000000000000000000000000000000 DUP2 MSTORE PUSH1 0x4 ADD PUSH2 0xE19 SWAP1 PUSH2 0x2C01 JUMP JUMPDEST PUSH1 0x40 MLOAD DUP1 SWAP2 SUB SWAP1 REVERT JUMPDEST PUSH1 0x2 PUSH1 0x4 DUP2 GT ISZERO PUSH2 0xE36 JUMPI PUSH2 0xE35 PUSH2 0x2168 JUMP JUMPDEST JUMPDEST DUP2 PUSH1 0x5 ADD PUSH1 0x14 PUSH2 0x100 EXP DUP2 SLOAD DUP2 PUSH1 0xFF MUL NOT AND SWAP1 DUP4 PUSH1 0x4 DUP2 GT ISZERO PUSH2 0xE5C JUMPI PUSH2 0xE5B PUSH2 0x2168 JUMP JUMPDEST JUMPDEST MUL OR SWAP1 SSTORE POP POP POP POP POP POP JUMP JUMPDEST PUSH2 0xE70 PUSH2 0x1FA2 JUMP JUMPDEST PUSH1 0x0 PUSH1 0x1 DUP2 GT ISZERO PUSH2 0xE84 JUMPI PUSH2 0xE83 PUSH2 0x2168 JUMP JUMPDEST JUMPDEST PUSH1 0x0 DUP1 SLOAD SWAP1 PUSH2 0x100 EXP SWAP1 DIV PUSH20 0xFFFFFFFFFFFFFFFFFFFFFFFFFFFFFFFFFFFFFFFF AND PUSH20 0xFFFFFFFFFFFFFFFFFFFFFFFFFFFFFFFFFFFFFFFF AND PUSH4 0x44276733 CALLER PUSH1 0x40 MLOAD DUP3 PUSH4 0xFFFFFFFF AND PUSH1 0xE0 SHL DUP2 MSTORE PUSH1 0x4 ADD PUSH2 0xEDD SWAP2 SWAP1 PUSH2 0x28AA JUMP JUMPDEST PUSH1 0x20 PUSH1 0x40 MLOAD DUP1 DUP4 SUB DUP2 DUP7 GAS STATICCALL ISZERO DUP1 ISZERO PUSH2 0xEFA JUMPI RETURNDATASIZE PUSH1 0x0 DUP1 RETURNDATACOPY RETURNDATASIZE PUSH1 0x0 REVERT JUMPDEST POP POP POP POP PUSH1 0x40 MLOAD RETURNDATASIZE PUSH1 0x1F NOT PUSH1 0x1F DUP3 ADD AND DUP3 ADD DUP1 PUSH1 0x40 MSTORE POP DUP2 ADD SWAP1 PUSH2 0xF1E SWAP2 SWAP1 PUSH2 0x28DA JUMP JUMPDEST PUSH1 0x1 DUP2 GT ISZERO PUSH2 0xF30 JUMPI PUSH2 0xF2F PUSH2 0x2168 JUMP JUMPDEST JUMPDEST PUSH1 0x1 DUP2 GT ISZERO PUSH2 0xF42 JUMPI PUSH2 0xF41 PUSH2 0x2168 JUMP JUMPDEST JUMPDEST EQ PUSH2 0xF82 JUMPI PUSH1 0x40 MLOAD PUSH32 0x8C379A000000000000000000000000000000000000000000000000000000000 DUP2 MSTORE PUSH1 0x4 ADD PUSH2 0xF79 SWAP1 PUSH2 0x2953 JUMP JUMPDEST PUSH1 0x40 MLOAD DUP1 SWAP2 SUB SWAP1 REVERT JUMPDEST PUSH1 0x1 PUSH1 0x0 DUP4 DUP2 MSTORE PUSH1 0x20 ADD SWAP1 DUP2 MSTORE PUSH1 0x20 ADD PUSH1 0x0 KECCAK256 PUSH1 0x40 MLOAD DUP1 PUSH2 0x100 ADD PUSH1 0x40 MSTORE SWAP1 DUP2 PUSH1 0x0 DUP3 ADD SLOAD DUP2 MSTORE PUSH1 0x20 ADD PUSH1 0x1 DUP3 ADD DUP1 SLOAD PUSH2 0xFBB SWAP1 PUSH2 0x2879 JUMP JUMPDEST DUP1 PUSH1 0x1F ADD PUSH1 0x20 DUP1 SWAP2 DIV MUL PUSH1 0x20 ADD PUSH1 0x40 MLOAD SWAP1 DUP2 ADD PUSH1 0x40 MSTORE DUP1 SWAP3 SWAP2 SWAP1 DUP2 DUP2 MSTORE PUSH1 0x20 ADD DUP3 DUP1 SLOAD PUSH2 0xFE7 SWAP1 PUSH2 0x2879 JUMP JUMPDEST DUP1 ISZERO PUSH2 0x1034 JUMPI DUP1 PUSH1 0x1F LT PUSH2 0x1009 JUMPI PUSH2 0x100 DUP1 DUP4 SLOAD DIV MUL DUP4 MSTORE SWAP2 PUSH1 0x20 ADD SWAP2 PUSH2 0x1034 JUMP JUMPDEST DUP3 ADD SWAP2 SWAP1 PUSH1 0x0 MSTORE PUSH1 0x20 PUSH1 0x0 KECCAK256 SWAP1 JUMPDEST DUP2 SLOAD DUP2 MSTORE SWAP1 PUSH1 0x1 ADD SWAP1 PUSH1 0x20 ADD DUP1 DUP4 GT PUSH2 0x1017 JUMPI DUP3 SWAP1 SUB PUSH1 0x1F AND DUP3 ADD SWAP2 JUMPDEST POP POP POP POP POP DUP2 MSTORE PUSH1 0x20 ADD PUSH1 0x2 DUP3 ADD DUP1 SLOAD PUSH2 0x104D SWAP1 PUSH2 0x2879 JUMP JUMPDEST DUP1 PUSH1 0x1F ADD PUSH1 0x20 DUP1 SWAP2 DIV MUL PUSH1 0x20 ADD PUSH1 0x40 MLOAD SWAP1 DUP2 ADD PUSH1 0x40 MSTORE DUP1 SWAP3 SWAP2 SWAP1 DUP2 DUP2 MSTORE PUSH1 0x20 ADD DUP3 DUP1 SLOAD PUSH2 0x1079 SWAP1 PUSH2 0x2879 JUMP JUMPDEST DUP1 ISZERO PUSH2 0x10C6 JUMPI DUP1 PUSH1 0x1F LT PUSH2 0x109B JUMPI PUSH2 0x100 DUP1 DUP4 SLOAD DIV MUL DUP4 MSTORE SWAP2 PUSH1 0x20 ADD SWAP2 PUSH2 0x10C6 JUMP JUMPDEST DUP3 ADD SWAP2 SWAP1 PUSH1 0x0 MSTORE PUSH1 0x20 PUSH1 0x0 KECCAK256 SWAP1 JUMPDEST DUP2 SLOAD DUP2 MSTORE SWAP1 PUSH1 0x1 ADD SWAP1 PUSH1 0x20 ADD DUP1 DUP4 GT PUSH2 0x10A9 JUMPI DUP3 SWAP1 SUB PUSH1 0x1F AND DUP3 ADD SWAP2 JUMPDEST POP POP POP POP POP DUP2 MSTORE PUSH1 0x20 ADD PUSH1 0x3 DUP3 ADD SLOAD DUP2 MSTORE PUSH1 0x20 ADD PUSH1 0x4 DUP3 ADD SLOAD DUP2 MSTORE PUSH1 0x20 ADD PUSH1 0x5 DUP3 ADD PUSH1 0x0 SWAP1 SLOAD SWAP1 PUSH2 0x100 EXP SWAP1 DIV PUSH20 0xFFFFFFFFFFFFFFFFFFFFFFFFFFFFFFFFFFFFFFFF AND PUSH20 0xFFFFFFFFFFFFFFFFFFFFFFFFFFFFFFFFFFFFFFFF AND PUSH20 0xFFFFFFFFFFFFFFFFFFFFFFFFFFFFFFFFFFFFFFFF AND DUP2 MSTORE PUSH1 0x20 ADD PUSH1 0x5 DUP3 ADD PUSH1 0x14 SWAP1 SLOAD SWAP1 PUSH2 0x100 EXP SWAP1 DIV PUSH1 0xFF AND PUSH1 0x4 DUP2 GT ISZERO PUSH2 0x115E JUMPI PUSH2 0x115D PUSH2 0x2168 JUMP JUMPDEST JUMPDEST PUSH1 0x4 DUP2 GT ISZERO PUSH2 0x1170 JUMPI PUSH2 0x116F PUSH2 0x2168 JUMP JUMPDEST JUMPDEST DUP2 MSTORE PUSH1 0x20 ADD PUSH1 0x5 DUP3 ADD PUSH1 0x15 SWAP1 SLOAD SWAP1 PUSH2 0x100 EXP SWAP1 DIV PUSH1 0xFF AND ISZERO ISZERO ISZERO ISZERO DUP2 MSTORE POP POP SWAP1 POP SWAP2 SWAP1 POP JUMP JUMPDEST PUSH1 0x5 PUSH1 0x20 MSTORE DUP2 PUSH1 0x0 MSTORE PUSH1 0x40 PUSH1 0x0 KECCAK256 DUP2 DUP2 SLOAD DUP2 LT PUSH2 0x11B2 JUMPI PUSH1 0x0 DUP1 REVERT JUMPDEST SWAP1 PUSH1 0x0 MSTORE PUSH1 0x20 PUSH1 0x0 KECCAK256 ADD PUSH1 0x0 SWAP2 POP SWAP2 POP POP SLOAD DUP2 JUMP JUMPDEST DUP1 PUSH1 0x3 PUSH1 0x0 PUSH1 0x1 PUSH1 0x0 DUP5 DUP2 MSTORE PUSH1 0x20 ADD SWAP1 DUP2 MSTORE PUSH1 0x20 ADD PUSH1 0x0 KECCAK256 PUSH1 0x5 ADD PUSH1 0x0 SWAP1 SLOAD SWAP1 PUSH2 0x100 EXP SWAP1 DIV PUSH20 0xFFFFFFFFFFFFFFFFFFFFFFFFFFFFFFFFFFFFFFFF AND PUSH20 0xFFFFFFFFFFFFFFFFFFFFFFFFFFFFFFFFFFFFFFFF AND PUSH20 0xFFFFFFFFFFFFFFFFFFFFFFFFFFFFFFFFFFFFFFFF AND DUP2 MSTORE PUSH1 0x20 ADD SWAP1 DUP2 MSTORE PUSH1 0x20 ADD PUSH1 0x0 KECCAK256 PUSH1 0x0 SWAP1 SLOAD SWAP1 PUSH2 0x100 EXP SWAP1 DIV PUSH1 0xFF AND PUSH2 0x128A JUMPI PUSH1 0x40 MLOAD PUSH32 0x8C379A000000000000000000000000000000000000000000000000000000000 DUP2 MSTORE PUSH1 0x4 ADD PUSH2 0x1281 SWAP1 PUSH2 0x2A51 JUMP JUMPDEST PUSH1 0x40 MLOAD DUP1 SWAP2 SUB SWAP1 REVERT JUMPDEST PUSH1 0x0 PUSH1 0x1 PUSH1 0x0 DUP5 DUP2 MSTORE PUSH1 0x20 ADD SWAP1 DUP2 MSTORE PUSH1 0x20 ADD PUSH1 0x0 KECCAK256 SWAP1 POP PUSH1 0x1 PUSH1 0x4 DUP2 GT ISZERO PUSH2 0x12B5 JUMPI PUSH2 0x12B4 PUSH2 0x2168 JUMP JUMPDEST JUMPDEST DUP2 PUSH1 0x5 ADD PUSH1 0x14 SWAP1 SLOAD SWAP1 PUSH2 0x100 EXP SWAP1 DIV PUSH1 0xFF AND PUSH1 0x4 DUP2 GT ISZERO PUSH2 0x12D9 JUMPI PUSH2 0x12D8 PUSH2 0x2168 JUMP JUMPDEST JUMPDEST EQ DUP1 PUSH2 0x131A JUMPI POP PUSH1 0x0 PUSH1 0x4 DUP2 GT ISZERO PUSH2 0x12F4 JUMPI PUSH2 0x12F3 PUSH2 0x2168 JUMP JUMPDEST JUMPDEST DUP2 PUSH1 0x5 ADD PUSH1 0x14 SWAP1 SLOAD SWAP1 PUSH2 0x100 EXP SWAP1 DIV PUSH1 0xFF AND PUSH1 0x4 DUP2 GT ISZERO PUSH2 0x1318 JUMPI PUSH2 0x1317 PUSH2 0x2168 JUMP JUMPDEST JUMPDEST EQ JUMPDEST PUSH2 0x1359 JUMPI PUSH1 0x40 MLOAD PUSH32 0x8C379A000000000000000000000000000000000000000000000000000000000 DUP2 MSTORE PUSH1 0x4 ADD PUSH2 0x1350 SWAP1 PUSH2 0x2C6D JUMP JUMPDEST PUSH1 0x40 MLOAD DUP1 SWAP2 SUB SWAP1 REVERT JUMPDEST PUSH1 0x4 DUP1 DUP2 GT ISZERO PUSH2 0x136C JUMPI PUSH2 0x136B PUSH2 0x2168 JUMP JUMPDEST JUMPDEST DUP2 PUSH1 0x5 ADD PUSH1 0x14 PUSH2 0x100 EXP DUP2 SLOAD DUP2 PUSH1 0xFF MUL NOT AND SWAP1 DUP4 PUSH1 0x4 DUP2 GT ISZERO PUSH2 0x1392 JUMPI PUSH2 0x1391 PUSH2 0x2168 JUMP JUMPDEST JUMPDEST MUL OR SWAP1 SSTORE POP DUP1 PUSH1 0x5 ADD PUSH1 0x0 SWAP1 SLOAD SWAP1 PUSH2 0x100 EXP SWAP1 DIV PUSH20 0xFFFFFFFFFFFFFFFFFFFFFFFFFFFFFFFFFFFFFFFF AND PUSH20 0xFFFFFFFFFFFFFFFFFFFFFFFFFFFFFFFFFFFFFFFF AND PUSH2 0x8FC DUP3 PUSH1 0x4 ADD SLOAD SWAP1 DUP2 ISZERO MUL SWAP1 PUSH1 0x40 MLOAD PUSH1 0x0 PUSH1 0x40 MLOAD DUP1 DUP4 SUB DUP2 DUP6 DUP9 DUP9 CALL SWAP4 POP POP POP POP ISZERO DUP1 ISZERO PUSH2 0x1405 JUMPI RETURNDATASIZE PUSH1 0x0 DUP1 RETURNDATACOPY RETURNDATASIZE PUSH1 0x0 REVERT JUMPDEST POP PUSH1 0x0 PUSH1 0x3 PUSH1 0x0 DUP4 PUSH1 0x5 ADD PUSH1 0x0 SWAP1 SLOAD SWAP1 PUSH2 0x100 EXP SWAP1 DIV PUSH20 0xFFFFFFFFFFFFFFFFFFFFFFFFFFFFFFFFFFFFFFFF AND PUSH20 0xFFFFFFFFFFFFFFFFFFFFFFFFFFFFFFFFFFFFFFFF AND PUSH20 0xFFFFFFFFFFFFFFFFFFFFFFFFFFFFFFFFFFFFFFFF AND DUP2 MSTORE PUSH1 0x20 ADD SWAP1 DUP2 MSTORE PUSH1 0x20 ADD PUSH1 0x0 KECCAK256 PUSH1 0x0 PUSH2 0x100 EXP DUP2 SLOAD DUP2 PUSH1 0xFF MUL NOT AND SWAP1 DUP4 ISZERO ISZERO MUL OR SWAP1 SSTORE POP PUSH1 0x0 PUSH1 0x4 PUSH1 0x0 PUSH1 0x2 PUSH1 0x0 DUP8 DUP2 MSTORE PUSH1 0x20 ADD SWAP1 DUP2 MSTORE PUSH1 0x20 ADD PUSH1 0x0 KECCAK256 PUSH1 0x1 ADD PUSH1 0x0 SWAP1 SLOAD SWAP1 PUSH2 0x100 EXP SWAP1 DIV PUSH20 0xFFFFFFFFFFFFFFFFFFFFFFFFFFFFFFFFFFFFFFFF AND PUSH20 0xFFFFFFFFFFFFFFFFFFFFFFFFFFFFFFFFFFFFFFFF AND PUSH20 0xFFFFFFFFFFFFFFFFFFFFFFFFFFFFFFFFFFFFFFFF AND DUP2 MSTORE PUSH1 0x20 ADD SWAP1 DUP2 MSTORE PUSH1 0x20 ADD PUSH1 0x0 KECCAK256 PUSH1 0x0 PUSH2 0x100 EXP DUP2 SLOAD DUP2 PUSH1 0xFF MUL NOT AND SWAP1 DUP4 ISZERO ISZERO MUL OR SWAP1 SSTORE POP POP POP POP JUMP JUMPDEST PUSH1 0x3 PUSH1 0x20 MSTORE DUP1 PUSH1 0x0 MSTORE PUSH1 0x40 PUSH1 0x0 KECCAK256 PUSH1 0x0 SWAP2 POP SLOAD SWAP1 PUSH2 0x100 EXP SWAP1 DIV PUSH1 0xFF AND DUP2 JUMP JUMPDEST PUSH1 0x0 PUSH1 0x1 DUP2 GT ISZERO PUSH2 0x1549 JUMPI PUSH2 0x1548 PUSH2 0x2168 JUMP JUMPDEST JUMPDEST PUSH1 0x0 DUP1 SLOAD SWAP1 PUSH2 0x100 EXP SWAP1 DIV PUSH20 0xFFFFFFFFFFFFFFFFFFFFFFFFFFFFFFFFFFFFFFFF AND PUSH20 0xFFFFFFFFFFFFFFFFFFFFFFFFFFFFFFFFFFFFFFFF AND PUSH4 0x44276733 CALLER PUSH1 0x40 MLOAD DUP3 PUSH4 0xFFFFFFFF AND PUSH1 0xE0 SHL DUP2 MSTORE PUSH1 0x4 ADD PUSH2 0x15A2 SWAP2 SWAP1 PUSH2 0x28AA JUMP JUMPDEST PUSH1 0x20 PUSH1 0x40 MLOAD DUP1 DUP4 SUB DUP2 DUP7 GAS STATICCALL ISZERO DUP1 ISZERO PUSH2 0x15BF JUMPI RETURNDATASIZE PUSH1 0x0 DUP1 RETURNDATACOPY RETURNDATASIZE PUSH1 0x0 REVERT JUMPDEST POP POP POP POP PUSH1 0x40 MLOAD RETURNDATASIZE PUSH1 0x1F NOT PUSH1 0x1F DUP3 ADD AND DUP3 ADD DUP1 PUSH1 0x40 MSTORE POP DUP2 ADD SWAP1 PUSH2 0x15E3 SWAP2 SWAP1 PUSH2 0x28DA JUMP JUMPDEST PUSH1 0x1 DUP2 GT ISZERO PUSH2 0x15F5 JUMPI PUSH2 0x15F4 PUSH2 0x2168 JUMP JUMPDEST JUMPDEST PUSH1 0x1 DUP2 GT ISZERO PUSH2 0x1607 JUMPI PUSH2 0x1606 PUSH2 0x2168 JUMP JUMPDEST JUMPDEST EQ PUSH2 0x1647 JUMPI PUSH1 0x40 MLOAD PUSH32 0x8C379A000000000000000000000000000000000000000000000000000000000 DUP2 MSTORE PUSH1 0x4 ADD PUSH2 0x163E SWAP1 PUSH2 0x2953 JUMP JUMPDEST PUSH1 0x40 MLOAD DUP1 SWAP2 SUB SWAP1 REVERT JUMPDEST PUSH1 0x3 PUSH1 0x0 DUP6 PUSH20 0xFFFFFFFFFFFFFFFFFFFFFFFFFFFFFFFFFFFFFFFF AND PUSH20 0xFFFFFFFFFFFFFFFFFFFFFFFFFFFFFFFFFFFFFFFF AND DUP2 MSTORE PUSH1 0x20 ADD SWAP1 DUP2 MSTORE PUSH1 0x20 ADD PUSH1 0x0 KECCAK256 PUSH1 0x0 SWAP1 SLOAD SWAP1 PUSH2 0x100 EXP SWAP1 DIV PUSH1 0xFF AND ISZERO PUSH2 0x16D4 JUMPI PUSH1 0x40 MLOAD PUSH32 0x8C379A000000000000000000000000000000000000000000000000000000000 DUP2 MSTORE PUSH1 0x4 ADD PUSH2 0x16CB SWAP1 PUSH2 0x2CFF JUMP JUMPDEST PUSH1 0x40 MLOAD DUP1 SWAP2 SUB SWAP1 REVERT JUMPDEST PUSH1 0x0 DUP2 PUSH8 0xDE0B6B3A7640000 PUSH2 0x16EA SWAP2 SWAP1 PUSH2 0x2D4E JUMP JUMPDEST SWAP1 POP DUP1 CALLVALUE EQ PUSH2 0x172E JUMPI PUSH1 0x40 MLOAD PUSH32 0x8C379A000000000000000000000000000000000000000000000000000000000 DUP2 MSTORE PUSH1 0x4 ADD PUSH2 0x1725 SWAP1 PUSH2 0x2DDC JUMP JUMPDEST PUSH1 0x40 MLOAD DUP1 SWAP2 SUB SWAP1 REVERT JUMPDEST PUSH1 0x6 PUSH1 0x0 DUP2 SLOAD DUP1 SWAP3 SWAP2 SWAP1 PUSH2 0x1741 SWAP1 PUSH2 0x2DFC JUMP JUMPDEST SWAP2 SWAP1 POP SSTORE POP PUSH1 0x40 MLOAD DUP1 PUSH2 0x100 ADD PUSH1 0x40 MSTORE DUP1 PUSH1 0x6 SLOAD DUP2 MSTORE PUSH1 0x20 ADD DUP6 DUP2 MSTORE PUSH1 0x20 ADD DUP5 DUP2 MSTORE PUSH1 0x20 ADD DUP4 DUP2 MSTORE PUSH1 0x20 ADD DUP3 DUP2 MSTORE PUSH1 0x20 ADD DUP7 PUSH20 0xFFFFFFFFFFFFFFFFFFFFFFFFFFFFFFFFFFFFFFFF AND DUP2 MSTORE PUSH1 0x20 ADD PUSH1 0x0 PUSH1 0x4 DUP2 GT ISZERO PUSH2 0x17A2 JUMPI PUSH2 0x17A1 PUSH2 0x2168 JUMP JUMPDEST JUMPDEST PUSH1 0x4 DUP2 GT ISZERO PUSH2 0x17B4 JUMPI PUSH2 0x17B3 PUSH2 0x2168 JUMP JUMPDEST JUMPDEST DUP2 MSTORE PUSH1 0x20 ADD PUSH1 0x0 ISZERO ISZERO DUP2 MSTORE POP PUSH1 0x1 PUSH1 0x0 PUSH1 0x6 SLOAD DUP2 MSTORE PUSH1 0x20 ADD SWAP1 DUP2 MSTORE PUSH1 0x20 ADD PUSH1 0x0 KECCAK256 PUSH1 0x0 DUP3 ADD MLOAD DUP2 PUSH1 0x0 ADD SSTORE PUSH1 0x20 DUP3 ADD MLOAD DUP2 PUSH1 0x1 ADD SWAP1 DUP2 PUSH2 0x17F4 SWAP2 SWAP1 PUSH2 0x2FE6 JUMP JUMPDEST POP PUSH1 0x40 DUP3 ADD MLOAD DUP2 PUSH1 0x2 ADD SWAP1 DUP2 PUSH2 0x180A SWAP2 SWAP1 PUSH2 0x2FE6 JUMP JUMPDEST POP PUSH1 0x60 DUP3 ADD MLOAD DUP2 PUSH1 0x3 ADD SSTORE PUSH1 0x80 DUP3 ADD MLOAD DUP2 PUSH1 0x4 ADD SSTORE PUSH1 0xA0 DUP3 ADD MLOAD DUP2 PUSH1 0x5 ADD PUSH1 0x0 PUSH2 0x100 EXP DUP2 SLOAD DUP2 PUSH20 0xFFFFFFFFFFFFFFFFFFFFFFFFFFFFFFFFFFFFFFFF MUL NOT AND SWAP1 DUP4 PUSH20 0xFFFFFFFFFFFFFFFFFFFFFFFFFFFFFFFFFFFFFFFF AND MUL OR SWAP1 SSTORE POP PUSH1 0xC0 DUP3 ADD MLOAD DUP2 PUSH1 0x5 ADD PUSH1 0x14 PUSH2 0x100 EXP DUP2 SLOAD DUP2 PUSH1 0xFF MUL NOT AND SWAP1 DUP4 PUSH1 0x4 DUP2 GT ISZERO PUSH2 0x1891 JUMPI PUSH2 0x1890 PUSH2 0x2168 JUMP JUMPDEST JUMPDEST MUL OR SWAP1 SSTORE POP PUSH1 0xE0 DUP3 ADD MLOAD DUP2 PUSH1 0x5 ADD PUSH1 0x15 PUSH2 0x100 EXP DUP2 SLOAD DUP2 PUSH1 0xFF MUL NOT AND SWAP1 DUP4 ISZERO ISZERO MUL OR SWAP1 SSTORE POP SWAP1 POP POP PUSH1 0x1 PUSH1 0x3 PUSH1 0x0 DUP8 PUSH20 0xFFFFFFFFFFFFFFFFFFFFFFFFFFFFFFFFFFFFFFFF AND PUSH20 0xFFFFFFFFFFFFFFFFFFFFFFFFFFFFFFFFFFFFFFFF AND DUP2 MSTORE PUSH1 0x20 ADD SWAP1 DUP2 MSTORE PUSH1 0x20 ADD PUSH1 0x0 KECCAK256 PUSH1 0x0 PUSH2 0x100 EXP DUP2 SLOAD DUP2 PUSH1 0xFF MUL NOT AND SWAP1 DUP4 ISZERO ISZERO MUL OR SWAP1 SSTORE POP PUSH1 0x5 PUSH1 0x0 CALLER PUSH20 0xFFFFFFFFFFFFFFFFFFFFFFFFFFFFFFFFFFFFFFFF AND PUSH20 0xFFFFFFFFFFFFFFFFFFFFFFFFFFFFFFFFFFFFFFFF AND DUP2 MSTORE PUSH1 0x20 ADD SWAP1 DUP2 MSTORE PUSH1 0x20 ADD PUSH1 0x0 KECCAK256 PUSH1 0x6 SLOAD SWAP1 DUP1 PUSH1 0x1 DUP2 SLOAD ADD DUP1 DUP3 SSTORE DUP1 SWAP2 POP POP PUSH1 0x1 SWAP1 SUB SWAP1 PUSH1 0x0 MSTORE PUSH1 0x20 PUSH1 0x0 KECCAK256 ADD PUSH1 0x0 SWAP1 SWAP2 SWAP1 SWAP2 SWAP1 SWAP2 POP SSTORE POP POP POP POP POP JUMP JUMPDEST PUSH1 0x2 PUSH1 0x20 MSTORE DUP1 PUSH1 0x0 MSTORE PUSH1 0x40 PUSH1 0x0 KECCAK256 PUSH1 0x0 SWAP2 POP SWAP1 POP DUP1 PUSH1 0x0 ADD SLOAD SWAP1 DUP1 PUSH1 0x1 ADD PUSH1 0x0 SWAP1 SLOAD SWAP1 PUSH2 0x100 EXP SWAP1 DIV PUSH20 0xFFFFFFFFFFFFFFFFFFFFFFFFFFFFFFFFFFFFFFFF AND SWAP1 DUP1 PUSH1 0x2 ADD SLOAD SWAP1 POP DUP4 JUMP JUMPDEST PUSH1 0x0 DUP1 SLOAD SWAP1 PUSH2 0x100 EXP SWAP1 DIV PUSH20 0xFFFFFFFFFFFFFFFFFFFFFFFFFFFFFFFFFFFFFFFF AND DUP2 JUMP JUMPDEST PUSH1 0x1 DUP1 DUP2 GT ISZERO PUSH2 0x1A01 JUMPI PUSH2 0x1A00 PUSH2 0x2168 JUMP JUMPDEST JUMPDEST PUSH1 0x0 DUP1 SLOAD SWAP1 PUSH2 0x100 EXP SWAP1 DIV PUSH20 0xFFFFFFFFFFFFFFFFFFFFFFFFFFFFFFFFFFFFFFFF AND PUSH20 0xFFFFFFFFFFFFFFFFFFFFFFFFFFFFFFFFFFFFFFFF AND PUSH4 0x44276733 CALLER PUSH1 0x40 MLOAD DUP3 PUSH4 0xFFFFFFFF AND PUSH1 0xE0 SHL DUP2 MSTORE PUSH1 0x4 ADD PUSH2 0x1A5A SWAP2 SWAP1 PUSH2 0x28AA JUMP JUMPDEST PUSH1 0x20 PUSH1 0x40 MLOAD DUP1 DUP4 SUB DUP2 DUP7 GAS STATICCALL ISZERO DUP1 ISZERO PUSH2 0x1A77 JUMPI RETURNDATASIZE PUSH1 0x0 DUP1 RETURNDATACOPY RETURNDATASIZE PUSH1 0x0 REVERT JUMPDEST POP POP POP POP PUSH1 0x40 MLOAD RETURNDATASIZE PUSH1 0x1F NOT PUSH1 0x1F DUP3 ADD AND DUP3 ADD DUP1 PUSH1 0x40 MSTORE POP DUP2 ADD SWAP1 PUSH2 0x1A9B SWAP2 SWAP1 PUSH2 0x28DA JUMP JUMPDEST PUSH1 0x1 DUP2 GT ISZERO PUSH2 0x1AAD JUMPI PUSH2 0x1AAC PUSH2 0x2168 JUMP JUMPDEST JUMPDEST PUSH1 0x1 DUP2 GT ISZERO PUSH2 0x1ABF JUMPI PUSH2 0x1ABE PUSH2 0x2168 JUMP JUMPDEST JUMPDEST EQ PUSH2 0x1AFF JUMPI PUSH1 0x40 MLOAD PUSH32 0x8C379A000000000000000000000000000000000000000000000000000000000 DUP2 MSTORE PUSH1 0x4 ADD PUSH2 0x1AF6 SWAP1 PUSH2 0x29BF JUMP JUMPDEST PUSH1 0x40 MLOAD DUP1 SWAP2 SUB SWAP1 REVERT JUMPDEST DUP1 PUSH1 0x3 PUSH1 0x0 PUSH1 0x1 PUSH1 0x0 DUP5 DUP2 MSTORE PUSH1 0x20 ADD SWAP1 DUP2 MSTORE PUSH1 0x20 ADD PUSH1 0x0 KECCAK256 PUSH1 0x5 ADD PUSH1 0x0 SWAP1 SLOAD SWAP1 PUSH2 0x100 EXP SWAP1 DIV PUSH20 0xFFFFFFFFFFFFFFFFFFFFFFFFFFFFFFFFFFFFFFFF AND PUSH20 0xFFFFFFFFFFFFFFFFFFFFFFFFFFFFFFFFFFFFFFFF AND PUSH20 0xFFFFFFFFFFFFFFFFFFFFFFFFFFFFFFFFFFFFFFFF AND DUP2 MSTORE PUSH1 0x20 ADD SWAP1 DUP2 MSTORE PUSH1 0x20 ADD PUSH1 0x0 KECCAK256 PUSH1 0x0 SWAP1 SLOAD SWAP1 PUSH2 0x100 EXP SWAP1 DIV PUSH1 0xFF AND PUSH2 0x1BC2 JUMPI PUSH1 0x40 MLOAD PUSH32 0x8C379A000000000000000000000000000000000000000000000000000000000 DUP2 MSTORE PUSH1 0x4 ADD PUSH2 0x1BB9 SWAP1 PUSH2 0x2A51 JUMP JUMPDEST PUSH1 0x40 MLOAD DUP1 SWAP2 SUB SWAP1 REVERT JUMPDEST PUSH1 0x0 PUSH1 0x1 PUSH1 0x0 DUP5 DUP2 MSTORE PUSH1 0x20 ADD SWAP1 DUP2 MSTORE PUSH1 0x20 ADD PUSH1 0x0 KECCAK256 SWAP1 POP PUSH1 0x0 PUSH1 0x4 DUP2 GT ISZERO PUSH2 0x1BED JUMPI PUSH2 0x1BEC PUSH2 0x2168 JUMP JUMPDEST JUMPDEST DUP2 PUSH1 0x5 ADD PUSH1 0x14 SWAP1 SLOAD SWAP1 PUSH2 0x100 EXP SWAP1 DIV PUSH1 0xFF AND PUSH1 0x4 DUP2 GT ISZERO PUSH2 0x1C11 JUMPI PUSH2 0x1C10 PUSH2 0x2168 JUMP JUMPDEST JUMPDEST EQ PUSH2 0x1C51 JUMPI PUSH1 0x40 MLOAD PUSH32 0x8C379A000000000000000000000000000000000000000000000000000000000 DUP2 MSTORE PUSH1 0x4 ADD PUSH2 0x1C48 SWAP1 PUSH2 0x3104 JUMP JUMPDEST PUSH1 0x40 MLOAD DUP1 SWAP2 SUB SWAP1 REVERT JUMPDEST DUP1 PUSH1 0x5 ADD PUSH1 0x15 SWAP1 SLOAD SWAP1 PUSH2 0x100 EXP SWAP1 DIV PUSH1 0xFF AND ISZERO PUSH2 0x1CA3 JUMPI PUSH1 0x40 MLOAD PUSH32 0x8C379A000000000000000000000000000000000000000000000000000000000 DUP2 MSTORE PUSH1 0x4 ADD PUSH2 0x1C9A SWAP1 PUSH2 0x3170 JUMP JUMPDEST PUSH1 0x40 MLOAD DUP1 SWAP2 SUB SWAP1 REVERT JUMPDEST PUSH1 0x4 PUSH1 0x0 CALLER PUSH20 0xFFFFFFFFFFFFFFFFFFFFFFFFFFFFFFFFFFFFFFFF AND PUSH20 0xFFFFFFFFFFFFFFFFFFFFFFFFFFFFFFFFFFFFFFFF AND DUP2 MSTORE PUSH1 0x20 ADD SWAP1 DUP2 MSTORE PUSH1 0x20 ADD PUSH1 0x0 KECCAK256 PUSH1 0x0 SWAP1 SLOAD SWAP1 PUSH2 0x100 EXP SWAP1 DIV PUSH1 0xFF AND ISZERO PUSH2 0x1D30 JUMPI PUSH1 0x40 MLOAD PUSH32 0x8C379A000000000000000000000000000000000000000000000000000000000 DUP2 MSTORE PUSH1 0x4 ADD PUSH2 0x1D27 SWAP1 PUSH2 0x31DC JUMP JUMPDEST PUSH1 0x40 MLOAD DUP1 SWAP2 SUB SWAP1 REVERT JUMPDEST DUP1 PUSH1 0x5 ADD PUSH1 0x0 SWAP1 SLOAD SWAP1 PUSH2 0x100 EXP SWAP1 DIV PUSH20 0xFFFFFFFFFFFFFFFFFFFFFFFFFFFFFFFFFFFFFFFF AND PUSH20 0xFFFFFFFFFFFFFFFFFFFFFFFFFFFFFFFFFFFFFFFF AND CALLER PUSH20 0xFFFFFFFFFFFFFFFFFFFFFFFFFFFFFFFFFFFFFFFF AND SUB PUSH2 0x1DC2 JUMPI PUSH1 0x40 MLOAD PUSH32 0x8C379A000000000000000000000000000000000000000000000000000000000 DUP2 MSTORE PUSH1 0x4 ADD PUSH2 0x1DB9 SWAP1 PUSH2 0x326E JUMP JUMPDEST PUSH1 0x40 MLOAD DUP1 SWAP2 SUB SWAP1 REVERT JUMPDEST PUSH1 0x40 MLOAD DUP1 PUSH1 0x60 ADD PUSH1 0x40 MSTORE DUP1 PUSH2 0x1DD5 PUSH2 0x1F44 JUMP JUMPDEST DUP2 MSTORE PUSH1 0x20 ADD CALLER PUSH20 0xFFFFFFFFFFFFFFFFFFFFFFFFFFFFFFFFFFFFFFFF AND DUP2 MSTORE PUSH1 0x20 ADD TIMESTAMP DUP2 MSTORE POP PUSH1 0x2 PUSH1 0x0 DUP6 DUP2 MSTORE PUSH1 0x20 ADD SWAP1 DUP2 MSTORE PUSH1 0x20 ADD PUSH1 0x0 KECCAK256 PUSH1 0x0 DUP3 ADD MLOAD DUP2 PUSH1 0x0 ADD SSTORE PUSH1 0x20 DUP3 ADD MLOAD DUP2 PUSH1 0x1 ADD PUSH1 0x0 PUSH2 0x100 EXP DUP2 SLOAD DUP2 PUSH20 0xFFFFFFFFFFFFFFFFFFFFFFFFFFFFFFFFFFFFFFFF MUL NOT AND SWAP1 DUP4 PUSH20 0xFFFFFFFFFFFFFFFFFFFFFFFFFFFFFFFFFFFFFFFF AND MUL OR SWAP1 SSTORE POP PUSH1 0x40 DUP3 ADD MLOAD DUP2 PUSH1 0x2 ADD SSTORE SWAP1 POP POP PUSH1 0x1 DUP2 PUSH1 0x5 ADD PUSH1 0x15 PUSH2 0x100 EXP DUP2 SLOAD DUP2 PUSH1 0xFF MUL NOT AND SWAP1 DUP4 ISZERO ISZERO MUL OR SWAP1 SSTORE POP PUSH1 0x1 PUSH1 0x4 DUP2 GT ISZERO PUSH2 0x1E9C JUMPI PUSH2 0x1E9B PUSH2 0x2168 JUMP JUMPDEST JUMPDEST DUP2 PUSH1 0x5 ADD PUSH1 0x14 PUSH2 0x100 EXP DUP2 SLOAD DUP2 PUSH1 0xFF MUL NOT AND SWAP1 DUP4 PUSH1 0x4 DUP2 GT ISZERO PUSH2 0x1EC2 JUMPI PUSH2 0x1EC1 PUSH2 0x2168 JUMP JUMPDEST JUMPDEST MUL OR SWAP1 SSTORE POP PUSH1 0x1 PUSH1 0x4 PUSH1 0x0 CALLER PUSH20 0xFFFFFFFFFFFFFFFFFFFFFFFFFFFFFFFFFFFFFFFF AND PUSH20 0xFFFFFFFFFFFFFFFFFFFFFFFFFFFFFFFFFFFFFFFF AND DUP2 MSTORE PUSH1 0x20 ADD SWAP1 DUP2 MSTORE PUSH1 0x20 ADD PUSH1 0x0 KECCAK256 PUSH1 0x0 PUSH2 0x100 EXP DUP2 SLOAD DUP2 PUSH1 0xFF MUL NOT AND SWAP1 DUP4 ISZERO ISZERO MUL OR SWAP1 SSTORE POP POP POP POP JUMP JUMPDEST PUSH1 0x4 PUSH1 0x20 MSTORE DUP1 PUSH1 0x0 MSTORE PUSH1 0x40 PUSH1 0x0 KECCAK256 PUSH1 0x0 SWAP2 POP SLOAD SWAP1 PUSH2 0x100 EXP SWAP1 DIV PUSH1 0xFF AND DUP2 JUMP JUMPDEST PUSH1 0x0 PUSH1 0x1 PUSH1 0x7 PUSH1 0x0 DUP3 DUP3 SLOAD PUSH2 0x1F59 SWAP2 SWAP1 PUSH2 0x328E JUMP JUMPDEST SWAP3 POP POP DUP2 SWAP1 SSTORE POP PUSH2 0x2710 TIMESTAMP CALLER PUSH1 0x7 SLOAD PUSH1 0x40 MLOAD PUSH1 0x20 ADD PUSH2 0x1F7A SWAP4 SWAP3 SWAP2 SWAP1 PUSH2 0x332B JUMP JUMPDEST PUSH1 0x40 MLOAD PUSH1 0x20 DUP2 DUP4 SUB SUB DUP2 MSTORE SWAP1 PUSH1 0x40 MSTORE DUP1 MLOAD SWAP1 PUSH1 0x20 ADD KECCAK256 PUSH1 0x0 SHR PUSH2 0x1F9D SWAP2 SWAP1 PUSH2 0x3397 JUMP JUMPDEST SWAP1 POP SWAP1 JUMP JUMPDEST PUSH1 0x40 MLOAD DUP1 PUSH2 0x100 ADD PUSH1 0x40 MSTORE DUP1 PUSH1 0x0 DUP2 MSTORE PUSH1 0x20 ADD PUSH1 0x60 DUP2 MSTORE PUSH1 0x20 ADD PUSH1 0x60 DUP2 MSTORE PUSH1 0x20 ADD PUSH1 0x0 DUP2 MSTORE PUSH1 0x20 ADD PUSH1 0x0 DUP2 MSTORE PUSH1 0x20 ADD PUSH1 0x0 PUSH20 0xFFFFFFFFFFFFFFFFFFFFFFFFFFFFFFFFFFFFFFFF AND DUP2 MSTORE PUSH1 0x20 ADD PUSH1 0x0 PUSH1 0x4 DUP2 GT ISZERO PUSH2 0x2002 JUMPI PUSH2 0x2001 PUSH2 0x2168 JUMP JUMPDEST JUMPDEST DUP2 MSTORE PUSH1 0x20 ADD PUSH1 0x0 ISZERO ISZERO DUP2 MSTORE POP SWAP1 JUMP JUMPDEST PUSH1 0x0 PUSH1 0x40 MLOAD SWAP1 POP SWAP1 JUMP JUMPDEST PUSH1 0x0 DUP1 REVERT JUMPDEST PUSH1 0x0 DUP1 REVERT JUMPDEST PUSH1 0x0 DUP2 SWAP1 POP SWAP2 SWAP1 POP JUMP JUMPDEST PUSH2 0x2038 DUP2 PUSH2 0x2025 JUMP JUMPDEST DUP2 EQ PUSH2 0x2043 JUMPI PUSH1 0x0 DUP1 REVERT JUMPDEST POP JUMP JUMPDEST PUSH1 0x0 DUP2 CALLDATALOAD SWAP1 POP PUSH2 0x2055 DUP2 PUSH2 0x202F JUMP JUMPDEST SWAP3 SWAP2 POP POP JUMP JUMPDEST PUSH1 0x0 PUSH1 0x20 DUP3 DUP5 SUB SLT ISZERO PUSH2 0x2071 JUMPI PUSH2 0x2070 PUSH2 0x201B JUMP JUMPDEST JUMPDEST PUSH1 0x0 PUSH2 0x207F DUP5 DUP3 DUP6 ADD PUSH2 0x2046 JUMP JUMPDEST SWAP2 POP POP SWAP3 SWAP2 POP POP JUMP JUMPDEST PUSH2 0x2091 DUP2 PUSH2 0x2025 JUMP JUMPDEST DUP3 MSTORE POP POP JUMP JUMPDEST PUSH1 0x0 DUP2 MLOAD SWAP1 POP SWAP2 SWAP1 POP JUMP JUMPDEST PUSH1 0x0 DUP3 DUP3 MSTORE PUSH1 0x20 DUP3 ADD SWAP1 POP SWAP3 SWAP2 POP POP JUMP JUMPDEST PUSH1 0x0 JUMPDEST DUP4 DUP2 LT ISZERO PUSH2 0x20D1 JUMPI DUP1 DUP3 ADD MLOAD DUP2 DUP5 ADD MSTORE PUSH1 0x20 DUP2 ADD SWAP1 POP PUSH2 0x20B6 JUMP JUMPDEST PUSH1 0x0 DUP5 DUP5 ADD MSTORE POP POP POP POP JUMP JUMPDEST PUSH1 0x0 PUSH1 0x1F NOT PUSH1 0x1F DUP4 ADD AND SWAP1 POP SWAP2 SWAP1 POP JUMP JUMPDEST PUSH1 0x0 PUSH2 0x20F9 DUP3 PUSH2 0x2097 JUMP JUMPDEST PUSH2 0x2103 DUP2 DUP6 PUSH2 0x20A2 JUMP JUMPDEST SWAP4 POP PUSH2 0x2113 DUP2 DUP6 PUSH1 0x20 DUP7 ADD PUSH2 0x20B3 JUMP JUMPDEST PUSH2 0x211C DUP2 PUSH2 0x20DD JUMP JUMPDEST DUP5 ADD SWAP2 POP POP SWAP3 SWAP2 POP POP JUMP JUMPDEST PUSH1 0x0 PUSH20 0xFFFFFFFFFFFFFFFFFFFFFFFFFFFFFFFFFFFFFFFF DUP3 AND SWAP1 POP SWAP2 SWAP1 POP JUMP JUMPDEST PUSH1 0x0 PUSH2 0x2152 DUP3 PUSH2 0x2127 JUMP JUMPDEST SWAP1 POP SWAP2 SWAP1 POP JUMP JUMPDEST PUSH2 0x2162 DUP2 PUSH2 0x2147 JUMP JUMPDEST DUP3 MSTORE POP POP JUMP JUMPDEST PUSH32 0x4E487B7100000000000000000000000000000000000000000000000000000000 PUSH1 0x0 MSTORE PUSH1 0x21 PUSH1 0x4 MSTORE PUSH1 0x24 PUSH1 0x0 REVERT JUMPDEST PUSH1 0x5 DUP2 LT PUSH2 0x21A8 JUMPI PUSH2 0x21A7 PUSH2 0x2168 JUMP JUMPDEST JUMPDEST POP JUMP JUMPDEST PUSH1 0x0 DUP2 SWAP1 POP PUSH2 0x21B9 DUP3 PUSH2 0x2197 JUMP JUMPDEST SWAP2 SWAP1 POP JUMP JUMPDEST PUSH1 0x0 PUSH2 0x21C9 DUP3 PUSH2 0x21AB JUMP JUMPDEST SWAP1 POP SWAP2 SWAP1 POP JUMP JUMPDEST PUSH2 0x21D9 DUP2 PUSH2 0x21BE JUMP JUMPDEST DUP3 MSTORE POP POP JUMP JUMPDEST PUSH1 0x0 DUP2 ISZERO ISZERO SWAP1 POP SWAP2 SWAP1 POP JUMP JUMPDEST PUSH2 0x21F4 DUP2 PUSH2 0x21DF JUMP JUMPDEST DUP3 MSTORE POP POP JUMP JUMPDEST PUSH1 0x0 PUSH2 0x100 DUP3 ADD SWAP1 POP PUSH2 0x2210 PUSH1 0x0 DUP4 ADD DUP12 PUSH2 0x2088 JUMP JUMPDEST DUP2 DUP2 SUB PUSH1 0x20 DUP4 ADD MSTORE PUSH2 0x2222 DUP2 DUP11 PUSH2 0x20EE JUMP JUMPDEST SWAP1 POP DUP2 DUP2 SUB PUSH1 0x40 DUP4 ADD MSTORE PUSH2 0x2236 DUP2 DUP10 PUSH2 0x20EE JUMP JUMPDEST SWAP1 POP PUSH2 0x2245 PUSH1 0x60 DUP4 ADD DUP9 PUSH2 0x2088 JUMP JUMPDEST PUSH2 0x2252 PUSH1 0x80 DUP4 ADD DUP8 PUSH2 0x2088 JUMP JUMPDEST PUSH2 0x225F PUSH1 0xA0 DUP4 ADD DUP7 PUSH2 0x2159 JUMP JUMPDEST PUSH2 0x226C PUSH1 0xC0 DUP4 ADD DUP6 PUSH2 0x21D0 JUMP JUMPDEST PUSH2 0x2279 PUSH1 0xE0 DUP4 ADD DUP5 PUSH2 0x21EB JUMP JUMPDEST SWAP10 SWAP9 POP POP POP POP POP POP POP POP POP JUMP JUMPDEST PUSH2 0x228F DUP2 PUSH2 0x2147 JUMP JUMPDEST DUP2 EQ PUSH2 0x229A JUMPI PUSH1 0x0 DUP1 REVERT JUMPDEST POP JUMP JUMPDEST PUSH1 0x0 DUP2 CALLDATALOAD SWAP1 POP PUSH2 0x22AC DUP2 PUSH2 0x2286 JUMP JUMPDEST SWAP3 SWAP2 POP POP JUMP JUMPDEST PUSH1 0x0 PUSH1 0x20 DUP3 DUP5 SUB SLT ISZERO PUSH2 0x22C8 JUMPI PUSH2 0x22C7 PUSH2 0x201B JUMP JUMPDEST JUMPDEST PUSH1 0x0 PUSH2 0x22D6 DUP5 DUP3 DUP6 ADD PUSH2 0x229D JUMP JUMPDEST SWAP2 POP POP SWAP3 SWAP2 POP POP JUMP JUMPDEST PUSH1 0x0 DUP2 MLOAD SWAP1 POP SWAP2 SWAP1 POP JUMP JUMPDEST PUSH1 0x0 DUP3 DUP3 MSTORE PUSH1 0x20 DUP3 ADD SWAP1 POP SWAP3 SWAP2 POP POP JUMP JUMPDEST PUSH1 0x0 DUP2 SWAP1 POP PUSH1 0x20 DUP3 ADD SWAP1 POP SWAP2 SWAP1 POP JUMP JUMPDEST PUSH2 0x2314 DUP2 PUSH2 0x2025 JUMP JUMPDEST DUP3 MSTORE POP POP JUMP JUMPDEST PUSH1 0x0 PUSH2 0x2326 DUP4 DUP4 PUSH2 0x230B JUMP JUMPDEST PUSH1 0x20 DUP4 ADD SWAP1 POP SWAP3 SWAP2 POP POP JUMP JUMPDEST PUSH1 0x0 PUSH1 0x20 DUP3 ADD SWAP1 POP SWAP2 SWAP1 POP JUMP JUMPDEST PUSH1 0x0 PUSH2 0x234A DUP3 PUSH2 0x22DF JUMP JUMPDEST PUSH2 0x2354 DUP2 DUP6 PUSH2 0x22EA JUMP JUMPDEST SWAP4 POP PUSH2 0x235F DUP4 PUSH2 0x22FB JUMP JUMPDEST DUP1 PUSH1 0x0 JUMPDEST DUP4 DUP2 LT ISZERO PUSH2 0x2390 JUMPI DUP2 MLOAD PUSH2 0x2377 DUP9 DUP3 PUSH2 0x231A JUMP JUMPDEST SWAP8 POP PUSH2 0x2382 DUP4 PUSH2 0x2332 JUMP JUMPDEST SWAP3 POP POP PUSH1 0x1 DUP2 ADD SWAP1 POP PUSH2 0x2363 JUMP JUMPDEST POP DUP6 SWAP4 POP POP POP POP SWAP3 SWAP2 POP POP JUMP JUMPDEST PUSH1 0x0 PUSH1 0x20 DUP3 ADD SWAP1 POP DUP2 DUP2 SUB PUSH1 0x0 DUP4 ADD MSTORE PUSH2 0x23B7 DUP2 DUP5 PUSH2 0x233F JUMP JUMPDEST SWAP1 POP SWAP3 SWAP2 POP POP JUMP JUMPDEST PUSH1 0x0 DUP1 PUSH1 0x40 DUP4 DUP6 SUB SLT ISZERO PUSH2 0x23D6 JUMPI PUSH2 0x23D5 PUSH2 0x201B JUMP JUMPDEST JUMPDEST PUSH1 0x0 PUSH2 0x23E4 DUP6 DUP3 DUP7 ADD PUSH2 0x2046 JUMP JUMPDEST SWAP3 POP POP PUSH1 0x20 PUSH2 0x23F5 DUP6 DUP3 DUP7 ADD PUSH2 0x2046 JUMP JUMPDEST SWAP2 POP POP SWAP3 POP SWAP3 SWAP1 POP JUMP JUMPDEST PUSH1 0x0 DUP3 DUP3 MSTORE PUSH1 0x20 DUP3 ADD SWAP1 POP SWAP3 SWAP2 POP POP JUMP JUMPDEST PUSH1 0x0 PUSH2 0x241B DUP3 PUSH2 0x2097 JUMP JUMPDEST PUSH2 0x2425 DUP2 DUP6 PUSH2 0x23FF JUMP JUMPDEST SWAP4 POP PUSH2 0x2435 DUP2 DUP6 PUSH1 0x20 DUP7 ADD PUSH2 0x20B3 JUMP JUMPDEST PUSH2 0x243E DUP2 PUSH2 0x20DD JUMP JUMPDEST DUP5 ADD SWAP2 POP POP SWAP3 SWAP2 POP POP JUMP JUMPDEST PUSH2 0x2452 DUP2 PUSH2 0x2147 JUMP JUMPDEST DUP3 MSTORE POP POP JUMP JUMPDEST PUSH2 0x2461 DUP2 PUSH2 0x21BE JUMP JUMPDEST DUP3 MSTORE POP POP JUMP JUMPDEST PUSH2 0x2470 DUP2 PUSH2 0x21DF JUMP JUMPDEST DUP3 MSTORE POP POP JUMP JUMPDEST PUSH1 0x0 PUSH2 0x100 DUP4 ADD PUSH1 0x0 DUP4 ADD MLOAD PUSH2 0x248F PUSH1 0x0 DUP7 ADD DUP3 PUSH2 0x230B JUMP JUMPDEST POP PUSH1 0x20 DUP4 ADD MLOAD DUP5 DUP3 SUB PUSH1 0x20 DUP7 ADD MSTORE PUSH2 0x24A7 DUP3 DUP3 PUSH2 0x2410 JUMP JUMPDEST SWAP2 POP POP PUSH1 0x40 DUP4 ADD MLOAD DUP5 DUP3 SUB PUSH1 0x40 DUP7 ADD MSTORE PUSH2 0x24C1 DUP3 DUP3 PUSH2 0x2410 JUMP JUMPDEST SWAP2 POP POP PUSH1 0x60 DUP4 ADD MLOAD PUSH2 0x24D6 PUSH1 0x60 DUP7 ADD DUP3 PUSH2 0x230B JUMP JUMPDEST POP PUSH1 0x80 DUP4 ADD MLOAD PUSH2 0x24E9 PUSH1 0x80 DUP7 ADD DUP3 PUSH2 0x230B JUMP JUMPDEST POP PUSH1 0xA0 DUP4 ADD MLOAD PUSH2 0x24FC PUSH1 0xA0 DUP7 ADD DUP3 PUSH2 0x2449 JUMP JUMPDEST POP PUSH1 0xC0 DUP4 ADD MLOAD PUSH2 0x250F PUSH1 0xC0 DUP7 ADD DUP3 PUSH2 0x2458 JUMP JUMPDEST POP PUSH1 0xE0 DUP4 ADD MLOAD PUSH2 0x2522 PUSH1 0xE0 DUP7 ADD DUP3 PUSH2 0x2467 JUMP JUMPDEST POP DUP1 SWAP2 POP POP SWAP3 SWAP2 POP POP JUMP JUMPDEST PUSH1 0x0 PUSH1 0x20 DUP3 ADD SWAP1 POP DUP2 DUP2 SUB PUSH1 0x0 DUP4 ADD MSTORE PUSH2 0x2547 DUP2 DUP5 PUSH2 0x2476 JUMP JUMPDEST SWAP1 POP SWAP3 SWAP2 POP POP JUMP JUMPDEST PUSH1 0x0 DUP1 PUSH1 0x40 DUP4 DUP6 SUB SLT ISZERO PUSH2 0x2566 JUMPI PUSH2 0x2565 PUSH2 0x201B JUMP JUMPDEST JUMPDEST PUSH1 0x0 PUSH2 0x2574 DUP6 DUP3 DUP7 ADD PUSH2 0x229D JUMP JUMPDEST SWAP3 POP POP PUSH1 0x20 PUSH2 0x2585 DUP6 DUP3 DUP7 ADD PUSH2 0x2046 JUMP JUMPDEST SWAP2 POP POP SWAP3 POP SWAP3 SWAP1 POP JUMP JUMPDEST PUSH1 0x0 PUSH1 0x20 DUP3 ADD SWAP1 POP PUSH2 0x25A4 PUSH1 0x0 DUP4 ADD DUP5 PUSH2 0x2088 JUMP JUMPDEST SWAP3 SWAP2 POP POP JUMP JUMPDEST PUSH1 0x0 PUSH1 0x20 DUP3 ADD SWAP1 POP PUSH2 0x25BF PUSH1 0x0 DUP4 ADD DUP5 PUSH2 0x21EB JUMP JUMPDEST SWAP3 SWAP2 POP POP JUMP JUMPDEST PUSH1 0x0 DUP1 REVERT JUMPDEST PUSH1 0x0 DUP1 REVERT JUMPDEST PUSH32 0x4E487B7100000000000000000000000000000000000000000000000000000000 PUSH1 0x0 MSTORE PUSH1 0x41 PUSH1 0x4 MSTORE PUSH1 0x24 PUSH1 0x0 REVERT JUMPDEST PUSH2 0x2607 DUP3 PUSH2 0x20DD JUMP JUMPDEST DUP2 ADD DUP2 DUP2 LT PUSH8 0xFFFFFFFFFFFFFFFF DUP3 GT OR ISZERO PUSH2 0x2626 JUMPI PUSH2 0x2625 PUSH2 0x25CF JUMP JUMPDEST JUMPDEST DUP1 PUSH1 0x40 MSTORE POP POP POP JUMP JUMPDEST PUSH1 0x0 PUSH2 0x2639 PUSH2 0x2011 JUMP JUMPDEST SWAP1 POP PUSH2 0x2645 DUP3 DUP3 PUSH2 0x25FE JUMP JUMPDEST SWAP2 SWAP1 POP JUMP JUMPDEST PUSH1 0x0 PUSH8 0xFFFFFFFFFFFFFFFF DUP3 GT ISZERO PUSH2 0x2665 JUMPI PUSH2 0x2664 PUSH2 0x25CF JUMP JUMPDEST JUMPDEST PUSH2 0x266E DUP3 PUSH2 0x20DD JUMP JUMPDEST SWAP1 POP PUSH1 0x20 DUP2 ADD SWAP1 POP SWAP2 SWAP1 POP JUMP JUMPDEST DUP3 DUP2 DUP4 CALLDATACOPY PUSH1 0x0 DUP4 DUP4 ADD MSTORE POP POP POP JUMP JUMPDEST PUSH1 0x0 PUSH2 0x269D PUSH2 0x2698 DUP5 PUSH2 0x264A JUMP JUMPDEST PUSH2 0x262F JUMP JUMPDEST SWAP1 POP DUP3 DUP2 MSTORE PUSH1 0x20 DUP2 ADD DUP5 DUP5 DUP5 ADD GT ISZERO PUSH2 0x26B9 JUMPI PUSH2 0x26B8 PUSH2 0x25CA JUMP JUMPDEST JUMPDEST PUSH2 0x26C4 DUP5 DUP3 DUP6 PUSH2 0x267B JUMP JUMPDEST POP SWAP4 SWAP3 POP POP POP JUMP JUMPDEST PUSH1 0x0 DUP3 PUSH1 0x1F DUP4 ADD SLT PUSH2 0x26E1 JUMPI PUSH2 0x26E0 PUSH2 0x25C5 JUMP JUMPDEST JUMPDEST DUP2 CALLDATALOAD PUSH2 0x26F1 DUP5 DUP3 PUSH1 0x20 DUP7 ADD PUSH2 0x268A JUMP JUMPDEST SWAP2 POP POP SWAP3 SWAP2 POP POP JUMP JUMPDEST PUSH1 0x0 DUP1 PUSH1 0x0 DUP1 PUSH1 0x80 DUP6 DUP8 SUB SLT ISZERO PUSH2 0x2714 JUMPI PUSH2 0x2713 PUSH2 0x201B JUMP JUMPDEST JUMPDEST PUSH1 0x0 PUSH2 0x2722 DUP8 DUP3 DUP9 ADD PUSH2 0x229D JUMP JUMPDEST SWAP5 POP POP PUSH1 0x20 DUP6 ADD CALLDATALOAD PUSH8 0xFFFFFFFFFFFFFFFF DUP2 GT ISZERO PUSH2 0x2743 JUMPI PUSH2 0x2742 PUSH2 0x2020 JUMP JUMPDEST JUMPDEST PUSH2 0x274F DUP8 DUP3 DUP9 ADD PUSH2 0x26CC JUMP JUMPDEST SWAP4 POP POP PUSH1 0x40 DUP6 ADD CALLDATALOAD PUSH8 0xFFFFFFFFFFFFFFFF DUP2 GT ISZERO PUSH2 0x2770 JUMPI PUSH2 0x276F PUSH2 0x2020 JUMP JUMPDEST JUMPDEST PUSH2 0x277C DUP8 DUP3 DUP9 ADD PUSH2 0x26CC JUMP JUMPDEST SWAP3 POP POP PUSH1 0x60 PUSH2 0x278D DUP8 DUP3 DUP9 ADD PUSH2 0x2046 JUMP JUMPDEST SWAP2 POP POP SWAP3 SWAP6 SWAP2 SWAP5 POP SWAP3 POP JUMP JUMPDEST PUSH1 0x0 PUSH1 0x60 DUP3 ADD SWAP1 POP PUSH2 0x27AE PUSH1 0x0 DUP4 ADD DUP7 PUSH2 0x2088 JUMP JUMPDEST PUSH2 0x27BB PUSH1 0x20 DUP4 ADD DUP6 PUSH2 0x2159 JUMP JUMPDEST PUSH2 0x27C8 PUSH1 0x40 DUP4 ADD DUP5 PUSH2 0x2088 JUMP JUMPDEST SWAP5 SWAP4 POP POP POP POP JUMP JUMPDEST PUSH1 0x0 DUP2 SWAP1 POP SWAP2 SWAP1 POP JUMP JUMPDEST PUSH1 0x0 PUSH2 0x27F5 PUSH2 0x27F0 PUSH2 0x27EB DUP5 PUSH2 0x2127 JUMP JUMPDEST PUSH2 0x27D0 JUMP JUMPDEST PUSH2 0x2127 JUMP JUMPDEST SWAP1 POP SWAP2 SWAP1 POP JUMP JUMPDEST PUSH1 0x0 PUSH2 0x2807 DUP3 PUSH2 0x27DA JUMP JUMPDEST SWAP1 POP SWAP2 SWAP1 POP JUMP JUMPDEST PUSH1 0x0 PUSH2 0x2819 DUP3 PUSH2 0x27FC JUMP JUMPDEST SWAP1 POP SWAP2 SWAP1 POP JUMP JUMPDEST PUSH2 0x2829 DUP2 PUSH2 0x280E JUMP JUMPDEST DUP3 MSTORE POP POP JUMP JUMPDEST PUSH1 0x0 PUSH1 0x20 DUP3 ADD SWAP1 POP PUSH2 0x2844 PUSH1 0x0 DUP4 ADD DUP5 PUSH2 0x2820 JUMP JUMPDEST SWAP3 SWAP2 POP POP JUMP JUMPDEST PUSH32 0x4E487B7100000000000000000000000000000000000000000000000000000000 PUSH1 0x0 MSTORE PUSH1 0x22 PUSH1 0x4 MSTORE PUSH1 0x24 PUSH1 0x0 REVERT JUMPDEST PUSH1 0x0 PUSH1 0x2 DUP3 DIV SWAP1 POP PUSH1 0x1 DUP3 AND DUP1 PUSH2 0x2891 JUMPI PUSH1 0x7F DUP3 AND SWAP2 POP JUMPDEST PUSH1 0x20 DUP3 LT DUP2 SUB PUSH2 0x28A4 JUMPI PUSH2 0x28A3 PUSH2 0x284A JUMP JUMPDEST JUMPDEST POP SWAP2 SWAP1 POP JUMP JUMPDEST PUSH1 0x0 PUSH1 0x20 DUP3 ADD SWAP1 POP PUSH2 0x28BF PUSH1 0x0 DUP4 ADD DUP5 PUSH2 0x2159 JUMP JUMPDEST SWAP3 SWAP2 POP POP JUMP JUMPDEST PUSH1 0x0 DUP2 MLOAD SWAP1 POP PUSH2 0x28D4 DUP2 PUSH2 0x202F JUMP JUMPDEST SWAP3 SWAP2 POP POP JUMP JUMPDEST PUSH1 0x0 PUSH1 0x20 DUP3 DUP5 SUB SLT ISZERO PUSH2 0x28F0 JUMPI PUSH2 0x28EF PUSH2 0x201B JUMP JUMPDEST JUMPDEST PUSH1 0x0 PUSH2 0x28FE DUP5 DUP3 DUP6 ADD PUSH2 0x28C5 JUMP JUMPDEST SWAP2 POP POP SWAP3 SWAP2 POP POP JUMP JUMPDEST PUSH32 0x4F6E6C7920726964657273206861732061636365737300000000000000000000 PUSH1 0x0 DUP3 ADD MSTORE POP JUMP JUMPDEST PUSH1 0x0 PUSH2 0x293D PUSH1 0x16 DUP4 PUSH2 0x20A2 JUMP JUMPDEST SWAP2 POP PUSH2 0x2948 DUP3 PUSH2 0x2907 JUMP JUMPDEST PUSH1 0x20 DUP3 ADD SWAP1 POP SWAP2 SWAP1 POP JUMP JUMPDEST PUSH1 0x0 PUSH1 0x20 DUP3 ADD SWAP1 POP DUP2 DUP2 SUB PUSH1 0x0 DUP4 ADD MSTORE PUSH2 0x296C DUP2 PUSH2 0x2930 JUMP JUMPDEST SWAP1 POP SWAP2 SWAP1 POP JUMP JUMPDEST PUSH32 0x4F6E6C79206F70657261746F7273206861732061636365737300000000000000 PUSH1 0x0 DUP3 ADD MSTORE POP JUMP JUMPDEST PUSH1 0x0 PUSH2 0x29A9 PUSH1 0x19 DUP4 PUSH2 0x20A2 JUMP JUMPDEST SWAP2 POP PUSH2 0x29B4 DUP3 PUSH2 0x2973 JUMP JUMPDEST PUSH1 0x20 DUP3 ADD SWAP1 POP SWAP2 SWAP1 POP JUMP JUMPDEST PUSH1 0x0 PUSH1 0x20 DUP3 ADD SWAP1 POP DUP2 DUP2 SUB PUSH1 0x0 DUP4 ADD MSTORE PUSH2 0x29D8 DUP2 PUSH2 0x299C JUMP JUMPDEST SWAP1 POP SWAP2 SWAP1 POP JUMP JUMPDEST PUSH32 0x546869732070617373656E67657220646F6E2774206861766520616E79207269 PUSH1 0x0 DUP3 ADD MSTORE PUSH32 0x646520666F72206E6F7700000000000000000000000000000000000000000000 PUSH1 0x20 DUP3 ADD MSTORE POP JUMP JUMPDEST PUSH1 0x0 PUSH2 0x2A3B PUSH1 0x2A DUP4 PUSH2 0x20A2 JUMP JUMPDEST SWAP2 POP PUSH2 0x2A46 DUP3 PUSH2 0x29DF JUMP JUMPDEST PUSH1 0x40 DUP3 ADD SWAP1 POP SWAP2 SWAP1 POP JUMP JUMPDEST PUSH1 0x0 PUSH1 0x20 DUP3 ADD SWAP1 POP DUP2 DUP2 SUB PUSH1 0x0 DUP4 ADD MSTORE PUSH2 0x2A6A DUP2 PUSH2 0x2A2E JUMP JUMPDEST SWAP1 POP SWAP2 SWAP1 POP JUMP JUMPDEST PUSH32 0x596F7520617265206E6F7420647269766572206F662074686973207269646500 PUSH1 0x0 DUP3 ADD MSTORE POP JUMP JUMPDEST PUSH1 0x0 PUSH2 0x2AA7 PUSH1 0x1F DUP4 PUSH2 0x20A2 JUMP JUMPDEST SWAP2 POP PUSH2 0x2AB2 DUP3 PUSH2 0x2A71 JUMP JUMPDEST PUSH1 0x20 DUP3 ADD SWAP1 POP SWAP2 SWAP1 POP JUMP JUMPDEST PUSH1 0x0 PUSH1 0x20 DUP3 ADD SWAP1 POP DUP2 DUP2 SUB PUSH1 0x0 DUP4 ADD MSTORE PUSH2 0x2AD6 DUP2 PUSH2 0x2A9A JUMP JUMPDEST SWAP1 POP SWAP2 SWAP1 POP JUMP JUMPDEST PUSH32 0x50617373656E676572206973206E6F74207069636B6564207965740000000000 PUSH1 0x0 DUP3 ADD MSTORE POP JUMP JUMPDEST PUSH1 0x0 PUSH2 0x2B13 PUSH1 0x1B DUP4 PUSH2 0x20A2 JUMP JUMPDEST SWAP2 POP PUSH2 0x2B1E DUP3 PUSH2 0x2ADD JUMP JUMPDEST PUSH1 0x20 DUP3 ADD SWAP1 POP SWAP2 SWAP1 POP JUMP JUMPDEST PUSH1 0x0 PUSH1 0x20 DUP3 ADD SWAP1 POP DUP2 DUP2 SUB PUSH1 0x0 DUP4 ADD MSTORE PUSH2 0x2B42 DUP2 PUSH2 0x2B06 JUMP JUMPDEST SWAP1 POP SWAP2 SWAP1 POP JUMP JUMPDEST PUSH32 0x426F6F6B696E67206973206E6F7420636F6E6669726D65642079657400000000 PUSH1 0x0 DUP3 ADD MSTORE POP JUMP JUMPDEST PUSH1 0x0 PUSH2 0x2B7F PUSH1 0x1C DUP4 PUSH2 0x20A2 JUMP JUMPDEST SWAP2 POP PUSH2 0x2B8A DUP3 PUSH2 0x2B49 JUMP JUMPDEST PUSH1 0x20 DUP3 ADD SWAP1 POP SWAP2 SWAP1 POP JUMP JUMPDEST PUSH1 0x0 PUSH1 0x20 DUP3 ADD SWAP1 POP DUP2 DUP2 SUB PUSH1 0x0 DUP4 ADD MSTORE PUSH2 0x2BAE DUP2 PUSH2 0x2B72 JUMP JUMPDEST SWAP1 POP SWAP2 SWAP1 POP JUMP JUMPDEST PUSH32 0x496E76616C6964204F5450000000000000000000000000000000000000000000 PUSH1 0x0 DUP3 ADD MSTORE POP JUMP JUMPDEST PUSH1 0x0 PUSH2 0x2BEB PUSH1 0xB DUP4 PUSH2 0x20A2 JUMP JUMPDEST SWAP2 POP PUSH2 0x2BF6 DUP3 PUSH2 0x2BB5 JUMP JUMPDEST PUSH1 0x20 DUP3 ADD SWAP1 POP SWAP2 SWAP1 POP JUMP JUMPDEST PUSH1 0x0 PUSH1 0x20 DUP3 ADD SWAP1 POP DUP2 DUP2 SUB PUSH1 0x0 DUP4 ADD MSTORE PUSH2 0x2C1A DUP2 PUSH2 0x2BDE JUMP JUMPDEST SWAP1 POP SWAP2 SWAP1 POP JUMP JUMPDEST PUSH32 0x4E6F7720796F752063616E6E6F742063616E63656C2074686973207269646500 PUSH1 0x0 DUP3 ADD MSTORE POP JUMP JUMPDEST PUSH1 0x0 PUSH2 0x2C57 PUSH1 0x1F DUP4 PUSH2 0x20A2 JUMP JUMPDEST SWAP2 POP PUSH2 0x2C62 DUP3 PUSH2 0x2C21 JUMP JUMPDEST PUSH1 0x20 DUP3 ADD SWAP1 POP SWAP2 SWAP1 POP JUMP JUMPDEST PUSH1 0x0 PUSH1 0x20 DUP3 ADD SWAP1 POP DUP2 DUP2 SUB PUSH1 0x0 DUP4 ADD MSTORE PUSH2 0x2C86 DUP2 PUSH2 0x2C4A JUMP JUMPDEST SWAP1 POP SWAP2 SWAP1 POP JUMP JUMPDEST PUSH32 0x4B696E646C7920636F6D706C65746520796F75722063757272656E7420726964 PUSH1 0x0 DUP3 ADD MSTORE PUSH32 0x6500000000000000000000000000000000000000000000000000000000000000 PUSH1 0x20 DUP3 ADD MSTORE POP JUMP JUMPDEST PUSH1 0x0 PUSH2 0x2CE9 PUSH1 0x21 DUP4 PUSH2 0x20A2 JUMP JUMPDEST SWAP2 POP PUSH2 0x2CF4 DUP3 PUSH2 0x2C8D JUMP JUMPDEST PUSH1 0x40 DUP3 ADD SWAP1 POP SWAP2 SWAP1 POP JUMP JUMPDEST PUSH1 0x0 PUSH1 0x20 DUP3 ADD SWAP1 POP DUP2 DUP2 SUB PUSH1 0x0 DUP4 ADD MSTORE PUSH2 0x2D18 DUP2 PUSH2 0x2CDC JUMP JUMPDEST SWAP1 POP SWAP2 SWAP1 POP JUMP JUMPDEST PUSH32 0x4E487B7100000000000000000000000000000000000000000000000000000000 PUSH1 0x0 MSTORE PUSH1 0x11 PUSH1 0x4 MSTORE PUSH1 0x24 PUSH1 0x0 REVERT JUMPDEST PUSH1 0x0 PUSH2 0x2D59 DUP3 PUSH2 0x2025 JUMP JUMPDEST SWAP2 POP PUSH2 0x2D64 DUP4 PUSH2 0x2025 JUMP JUMPDEST SWAP3 POP DUP3 DUP3 MUL PUSH2 0x2D72 DUP2 PUSH2 0x2025 JUMP JUMPDEST SWAP2 POP DUP3 DUP3 DIV DUP5 EQ DUP4 ISZERO OR PUSH2 0x2D89 JUMPI PUSH2 0x2D88 PUSH2 0x2D1F JUMP JUMPDEST JUMPDEST POP SWAP3 SWAP2 POP POP JUMP JUMPDEST PUSH32 0x5061796D656E7420616D6F756E74206973206E6F742076616C69640000000000 PUSH1 0x0 DUP3 ADD MSTORE POP JUMP JUMPDEST PUSH1 0x0 PUSH2 0x2DC6 PUSH1 0x1B DUP4 PUSH2 0x20A2 JUMP JUMPDEST SWAP2 POP PUSH2 0x2DD1 DUP3 PUSH2 0x2D90 JUMP JUMPDEST PUSH1 0x20 DUP3 ADD SWAP1 POP SWAP2 SWAP1 POP JUMP JUMPDEST PUSH1 0x0 PUSH1 0x20 DUP3 ADD SWAP1 POP DUP2 DUP2 SUB PUSH1 0x0 DUP4 ADD MSTORE PUSH2 0x2DF5 DUP2 PUSH2 0x2DB9 JUMP JUMPDEST SWAP1 POP SWAP2 SWAP1 POP JUMP JUMPDEST PUSH1 0x0 PUSH2 0x2E07 DUP3 PUSH2 0x2025 JUMP JUMPDEST SWAP2 POP PUSH32 0xFFFFFFFFFFFFFFFFFFFFFFFFFFFFFFFFFFFFFFFFFFFFFFFFFFFFFFFFFFFFFFFF DUP3 SUB PUSH2 0x2E39 JUMPI PUSH2 0x2E38 PUSH2 0x2D1F JUMP JUMPDEST JUMPDEST PUSH1 0x1 DUP3 ADD SWAP1 POP SWAP2 SWAP1 POP JUMP JUMPDEST PUSH1 0x0 DUP2 SWAP1 POP DUP2 PUSH1 0x0 MSTORE PUSH1 0x20 PUSH1 0x0 KECCAK256 SWAP1 POP SWAP2 SWAP1 POP JUMP JUMPDEST PUSH1 0x0 PUSH1 0x20 PUSH1 0x1F DUP4 ADD DIV SWAP1 POP SWAP2 SWAP1 POP JUMP JUMPDEST PUSH1 0x0 DUP3 DUP3 SHL SWAP1 POP SWAP3 SWAP2 POP POP JUMP JUMPDEST PUSH1 0x0 PUSH1 0x8 DUP4 MUL PUSH2 0x2EA6 PUSH32 0xFFFFFFFFFFFFFFFFFFFFFFFFFFFFFFFFFFFFFFFFFFFFFFFFFFFFFFFFFFFFFFFF DUP3 PUSH2 0x2E69 JUMP JUMPDEST PUSH2 0x2EB0 DUP7 DUP4 PUSH2 0x2E69 JUMP JUMPDEST SWAP6 POP DUP1 NOT DUP5 AND SWAP4 POP DUP1 DUP7 AND DUP5 OR SWAP3 POP POP POP SWAP4 SWAP3 POP POP POP JUMP JUMPDEST PUSH1 0x0 PUSH2 0x2EE3 PUSH2 0x2EDE PUSH2 0x2ED9 DUP5 PUSH2 0x2025 JUMP JUMPDEST PUSH2 0x27D0 JUMP JUMPDEST PUSH2 0x2025 JUMP JUMPDEST SWAP1 POP SWAP2 SWAP1 POP JUMP JUMPDEST PUSH1 0x0 DUP2 SWAP1 POP SWAP2 SWAP1 POP JUMP JUMPDEST PUSH2 0x2EFD DUP4 PUSH2 0x2EC8 JUMP JUMPDEST PUSH2 0x2F11 PUSH2 0x2F09 DUP3 PUSH2 0x2EEA JUMP JUMPDEST DUP5 DUP5 SLOAD PUSH2 0x2E76 JUMP JUMPDEST DUP3 SSTORE POP POP POP POP JUMP JUMPDEST PUSH1 0x0 SWAP1 JUMP JUMPDEST PUSH2 0x2F26 PUSH2 0x2F19 JUMP JUMPDEST PUSH2 0x2F31 DUP2 DUP5 DUP5 PUSH2 0x2EF4 JUMP JUMPDEST POP POP POP JUMP JUMPDEST JUMPDEST DUP2 DUP2 LT ISZERO PUSH2 0x2F55 JUMPI PUSH2 0x2F4A PUSH1 0x0 DUP3 PUSH2 0x2F1E JUMP JUMPDEST PUSH1 0x1 DUP2 ADD SWAP1 POP PUSH2 0x2F37 JUMP JUMPDEST POP POP JUMP JUMPDEST PUSH1 0x1F DUP3 GT ISZERO PUSH2 0x2F9A JUMPI PUSH2 0x2F6B DUP2 PUSH2 0x2E44 JUMP JUMPDEST PUSH2 0x2F74 DUP5 PUSH2 0x2E59 JUMP JUMPDEST DUP2 ADD PUSH1 0x20 DUP6 LT ISZERO PUSH2 0x2F83 JUMPI DUP2 SWAP1 POP JUMPDEST PUSH2 0x2F97 PUSH2 0x2F8F DUP6 PUSH2 0x2E59 JUMP JUMPDEST DUP4 ADD DUP3 PUSH2 0x2F36 JUMP JUMPDEST POP POP JUMPDEST POP POP POP JUMP JUMPDEST PUSH1 0x0 DUP3 DUP3 SHR SWAP1 POP SWAP3 SWAP2 POP POP JUMP JUMPDEST PUSH1 0x0 PUSH2 0x2FBD PUSH1 0x0 NOT DUP5 PUSH1 0x8 MUL PUSH2 0x2F9F JUMP JUMPDEST NOT DUP1 DUP4 AND SWAP2 POP POP SWAP3 SWAP2 POP POP JUMP JUMPDEST PUSH1 0x0 PUSH2 0x2FD6 DUP4 DUP4 PUSH2 0x2FAC JUMP JUMPDEST SWAP2 POP DUP3 PUSH1 0x2 MUL DUP3 OR SWAP1 POP SWAP3 SWAP2 POP POP JUMP JUMPDEST PUSH2 0x2FEF DUP3 PUSH2 0x2097 JUMP JUMPDEST PUSH8 0xFFFFFFFFFFFFFFFF DUP2 GT ISZERO PUSH2 0x3008 JUMPI PUSH2 0x3007 PUSH2 0x25CF JUMP JUMPDEST JUMPDEST PUSH2 0x3012 DUP3 SLOAD PUSH2 0x2879 JUMP JUMPDEST PUSH2 0x301D DUP3 DUP3 DUP6 PUSH2 0x2F59 JUMP JUMPDEST PUSH1 0x0 PUSH1 0x20 SWAP1 POP PUSH1 0x1F DUP4 GT PUSH1 0x1 DUP2 EQ PUSH2 0x3050 JUMPI PUSH1 0x0 DUP5 ISZERO PUSH2 0x303E JUMPI DUP3 DUP8 ADD MLOAD SWAP1 POP JUMPDEST PUSH2 0x3048 DUP6 DUP3 PUSH2 0x2FCA JUMP JUMPDEST DUP7 SSTORE POP PUSH2 0x30B0 JUMP JUMPDEST PUSH1 0x1F NOT DUP5 AND PUSH2 0x305E DUP7 PUSH2 0x2E44 JUMP JUMPDEST PUSH1 0x0 JUMPDEST DUP3 DUP2 LT ISZERO PUSH2 0x3086 JUMPI DUP5 DUP10 ADD MLOAD DUP3 SSTORE PUSH1 0x1 DUP3 ADD SWAP2 POP PUSH1 0x20 DUP6 ADD SWAP5 POP PUSH1 0x20 DUP2 ADD SWAP1 POP PUSH2 0x3061 JUMP JUMPDEST DUP7 DUP4 LT ISZERO PUSH2 0x30A3 JUMPI DUP5 DUP10 ADD MLOAD PUSH2 0x309F PUSH1 0x1F DUP10 AND DUP3 PUSH2 0x2FAC JUMP JUMPDEST DUP4 SSTORE POP JUMPDEST PUSH1 0x1 PUSH1 0x2 DUP9 MUL ADD DUP9 SSTORE POP POP POP JUMPDEST POP POP POP POP POP POP JUMP JUMPDEST PUSH32 0x496E76616C696420426F6F6B696E670000000000000000000000000000000000 PUSH1 0x0 DUP3 ADD MSTORE POP JUMP JUMPDEST PUSH1 0x0 PUSH2 0x30EE PUSH1 0xF DUP4 PUSH2 0x20A2 JUMP JUMPDEST SWAP2 POP PUSH2 0x30F9 DUP3 PUSH2 0x30B8 JUMP JUMPDEST PUSH1 0x20 DUP3 ADD SWAP1 POP SWAP2 SWAP1 POP JUMP JUMPDEST PUSH1 0x0 PUSH1 0x20 DUP3 ADD SWAP1 POP DUP2 DUP2 SUB PUSH1 0x0 DUP4 ADD MSTORE PUSH2 0x311D DUP2 PUSH2 0x30E1 JUMP JUMPDEST SWAP1 POP SWAP2 SWAP1 POP JUMP JUMPDEST PUSH32 0x416C726561647920746865207269646520697320636F6E6669726D6564000000 PUSH1 0x0 DUP3 ADD MSTORE POP JUMP JUMPDEST PUSH1 0x0 PUSH2 0x315A PUSH1 0x1D DUP4 PUSH2 0x20A2 JUMP JUMPDEST SWAP2 POP PUSH2 0x3165 DUP3 PUSH2 0x3124 JUMP JUMPDEST PUSH1 0x20 DUP3 ADD SWAP1 POP SWAP2 SWAP1 POP JUMP JUMPDEST PUSH1 0x0 PUSH1 0x20 DUP3 ADD SWAP1 POP DUP2 DUP2 SUB PUSH1 0x0 DUP4 ADD MSTORE PUSH2 0x3189 DUP2 PUSH2 0x314D JUMP JUMPDEST SWAP1 POP SWAP2 SWAP1 POP JUMP JUMPDEST PUSH32 0x506C656173652066696E69736820796F75722063757272656E74207269646500 PUSH1 0x0 DUP3 ADD MSTORE POP JUMP JUMPDEST PUSH1 0x0 PUSH2 0x31C6 PUSH1 0x1F DUP4 PUSH2 0x20A2 JUMP JUMPDEST SWAP2 POP PUSH2 0x31D1 DUP3 PUSH2 0x3190 JUMP JUMPDEST PUSH1 0x20 DUP3 ADD SWAP1 POP SWAP2 SWAP1 POP JUMP JUMPDEST PUSH1 0x0 PUSH1 0x20 DUP3 ADD SWAP1 POP DUP2 DUP2 SUB PUSH1 0x0 DUP4 ADD MSTORE PUSH2 0x31F5 DUP2 PUSH2 0x31B9 JUMP JUMPDEST SWAP1 POP SWAP2 SWAP1 POP JUMP JUMPDEST PUSH32 0x50617373656E67657220616E6420447269766572206D757374206E6F74206265 PUSH1 0x0 DUP3 ADD MSTORE PUSH32 0x2073616D65000000000000000000000000000000000000000000000000000000 PUSH1 0x20 DUP3 ADD MSTORE POP JUMP JUMPDEST PUSH1 0x0 PUSH2 0x3258 PUSH1 0x25 DUP4 PUSH2 0x20A2 JUMP JUMPDEST SWAP2 POP PUSH2 0x3263 DUP3 PUSH2 0x31FC JUMP JUMPDEST PUSH1 0x40 DUP3 ADD SWAP1 POP SWAP2 SWAP1 POP JUMP JUMPDEST PUSH1 0x0 PUSH1 0x20 DUP3 ADD SWAP1 POP DUP2 DUP2 SUB PUSH1 0x0 DUP4 ADD MSTORE PUSH2 0x3287 DUP2 PUSH2 0x324B JUMP JUMPDEST SWAP1 POP SWAP2 SWAP1 POP JUMP JUMPDEST PUSH1 0x0 PUSH2 0x3299 DUP3 PUSH2 0x2025 JUMP JUMPDEST SWAP2 POP PUSH2 0x32A4 DUP4 PUSH2 0x2025 JUMP JUMPDEST SWAP3 POP DUP3 DUP3 ADD SWAP1 POP DUP1 DUP3 GT ISZERO PUSH2 0x32BC JUMPI PUSH2 0x32BB PUSH2 0x2D1F JUMP JUMPDEST JUMPDEST SWAP3 SWAP2 POP POP JUMP JUMPDEST PUSH1 0x0 DUP2 SWAP1 POP SWAP2 SWAP1 POP JUMP JUMPDEST PUSH2 0x32DD PUSH2 0x32D8 DUP3 PUSH2 0x2025 JUMP JUMPDEST PUSH2 0x32C2 JUMP JUMPDEST DUP3 MSTORE POP POP JUMP JUMPDEST PUSH1 0x0 DUP2 PUSH1 0x60 SHL SWAP1 POP SWAP2 SWAP1 POP JUMP JUMPDEST PUSH1 0x0 PUSH2 0x32FB DUP3 PUSH2 0x32E3 JUMP JUMPDEST SWAP1 POP SWAP2 SWAP1 POP JUMP JUMPDEST PUSH1 0x0 PUSH2 0x330D DUP3 PUSH2 0x32F0 JUMP JUMPDEST SWAP1 POP SWAP2 SWAP1 POP JUMP JUMPDEST PUSH2 0x3325 PUSH2 0x3320 DUP3 PUSH2 0x2147 JUMP JUMPDEST PUSH2 0x3302 JUMP JUMPDEST DUP3 MSTORE POP POP JUMP JUMPDEST PUSH1 0x0 PUSH2 0x3337 DUP3 DUP7 PUSH2 0x32CC JUMP JUMPDEST PUSH1 0x20 DUP3 ADD SWAP2 POP PUSH2 0x3347 DUP3 DUP6 PUSH2 0x3314 JUMP JUMPDEST PUSH1 0x14 DUP3 ADD SWAP2 POP PUSH2 0x3357 DUP3 DUP5 PUSH2 0x32CC JUMP JUMPDEST PUSH1 0x20 DUP3 ADD SWAP2 POP DUP2 SWAP1 POP SWAP5 SWAP4 POP POP POP POP JUMP JUMPDEST PUSH32 0x4E487B7100000000000000000000000000000000000000000000000000000000 PUSH1 0x0 MSTORE PUSH1 0x12 PUSH1 0x4 MSTORE PUSH1 0x24 PUSH1 0x0 REVERT JUMPDEST PUSH1 0x0 PUSH2 0x33A2 DUP3 PUSH2 0x2025 JUMP JUMPDEST SWAP2 POP PUSH2 0x33AD DUP4 PUSH2 0x2025 JUMP JUMPDEST SWAP3 POP DUP3 PUSH2 0x33BD JUMPI PUSH2 0x33BC PUSH2 0x3368 JUMP JUMPDEST JUMPDEST DUP3 DUP3 MOD SWAP1 POP SWAP3 SWAP2 POP POP JUMP INVALID LOG2 PUSH5 0x6970667358 0x22 SLT KECCAK256 CALL MSTORE PUSH7 0xECF503B881C234 DUP4 0x5D DELEGATECALL 0xA6 0x2E LOG4 MSTORE PUSH30 0xE868EFD51F688D805CB209C315DA64736F6C634300081200330000000000 "
		},
		"gasEstimates": {
			"creation": {
				"codeDepositCost": "2662000",
				"executionCost": "infinite",
				"totalCost": "infinite"
			},
			"external": {
				"adminContract()": "infinite",
				"bookRide(address,string,string,uint256)": "infinite",
				"booked(address)": "2890",
				"bookings(uint256)": "infinite",
				"cancelRide(uint256)": "infinite",
				"confirmRide(uint256)": "infinite",
				"confirmation(uint256)": "infinite",
				"dropPassenger(uint256)": "infinite",
				"getCurrentRide(uint256)": "infinite",
				"getHistoryRide(address)": "infinite",
				"history(address,uint256)": "infinite",
				"onService(address)": "2933",
				"pickPassenger(uint256,uint256)": "infinite"
			},
			"internal": {
				"generateOTP()": "infinite"
			}
		},
		"methodIdentifiers": {
			"adminContract()": "c05c5e94",
			"bookRide(address,string,string,uint256)": "b0e962e8",
			"booked(address)": "b0d928e1",
			"bookings(uint256)": "1dab301e",
			"cancelRide(uint256)": "a6f07b29",
			"confirmRide(uint256)": "dc712974",
			"confirmation(uint256)": "b17c3f99",
			"dropPassenger(uint256)": "46ecb974",
			"getCurrentRide(uint256)": "4e60f830",
			"getHistoryRide(address)": "259c422d",
			"history(address,uint256)": "7718f4ec",
			"onService(address)": "f267a50a",
			"pickPassenger(uint256,uint256)": "4c85b969"
		}
	},
	"abi": [
		{
			"inputs": [
				{
					"internalType": "contract Admin",
					"name": "_adminAddress",
					"type": "address"
				}
			],
			"stateMutability": "nonpayable",
			"type": "constructor"
		},
		{
			"inputs": [],
			"name": "adminContract",
			"outputs": [
				{
					"internalType": "contract Admin",
					"name": "",
					"type": "address"
				}
			],
			"stateMutability": "view",
			"type": "function"
		},
		{
			"inputs": [
				{
					"internalType": "address",
					"name": "_address",
					"type": "address"
				},
				{
					"internalType": "string",
					"name": "_from",
					"type": "string"
				},
				{
					"internalType": "string",
					"name": "_to",
					"type": "string"
				},
				{
					"internalType": "uint256",
					"name": "_kilometers",
					"type": "uint256"
				}
			],
			"name": "bookRide",
			"outputs": [],
			"stateMutability": "payable",
			"type": "function"
		},
		{
			"inputs": [
				{
					"internalType": "address",
					"name": "",
					"type": "address"
				}
			],
			"name": "booked",
			"outputs": [
				{
					"internalType": "bool",
					"name": "",
					"type": "bool"
				}
			],
			"stateMutability": "view",
			"type": "function"
		},
		{
			"inputs": [
				{
					"internalType": "uint256",
					"name": "",
					"type": "uint256"
				}
			],
			"name": "bookings",
			"outputs": [
				{
					"internalType": "uint256",
					"name": "bookingId",
					"type": "uint256"
				},
				{
					"internalType": "string",
					"name": "from",
					"type": "string"
				},
				{
					"internalType": "string",
					"name": "to",
					"type": "string"
				},
				{
					"internalType": "uint256",
					"name": "kilometers",
					"type": "uint256"
				},
				{
					"internalType": "uint256",
					"name": "fare",
					"type": "uint256"
				},
				{
					"internalType": "address",
					"name": "passengerAddress",
					"type": "address"
				},
				{
					"internalType": "enum Main.Passenger_Status",
					"name": "status",
					"type": "uint8"
				},
				{
					"internalType": "bool",
					"name": "isConfirm",
					"type": "bool"
				}
			],
			"stateMutability": "view",
			"type": "function"
		},
		{
			"inputs": [
				{
					"internalType": "uint256",
					"name": "_index",
					"type": "uint256"
				}
			],
			"name": "cancelRide",
			"outputs": [],
			"stateMutability": "nonpayable",
			"type": "function"
		},
		{
			"inputs": [
				{
					"internalType": "uint256",
					"name": "_index",
					"type": "uint256"
				}
			],
			"name": "confirmRide",
			"outputs": [],
			"stateMutability": "nonpayable",
			"type": "function"
		},
		{
			"inputs": [
				{
					"internalType": "uint256",
					"name": "",
					"type": "uint256"
				}
			],
			"name": "confirmation",
			"outputs": [
				{
					"internalType": "uint256",
					"name": "OTP",
					"type": "uint256"
				},
				{
					"internalType": "address",
					"name": "driverAddress",
					"type": "address"
				},
				{
					"internalType": "uint256",
					"name": "timestamp",
					"type": "uint256"
				}
			],
			"stateMutability": "view",
			"type": "function"
		},
		{
			"inputs": [
				{
					"internalType": "uint256",
					"name": "_index",
					"type": "uint256"
				}
			],
			"name": "dropPassenger",
			"outputs": [],
			"stateMutability": "nonpayable",
			"type": "function"
		},
		{
			"inputs": [
				{
					"internalType": "uint256",
					"name": "_index",
					"type": "uint256"
				}
			],
			"name": "getCurrentRide",
			"outputs": [
				{
					"components": [
						{
							"internalType": "uint256",
							"name": "bookingId",
							"type": "uint256"
						},
						{
							"internalType": "string",
							"name": "from",
							"type": "string"
						},
						{
							"internalType": "string",
							"name": "to",
							"type": "string"
						},
						{
							"internalType": "uint256",
							"name": "kilometers",
							"type": "uint256"
						},
						{
							"internalType": "uint256",
							"name": "fare",
							"type": "uint256"
						},
						{
							"internalType": "address",
							"name": "passengerAddress",
							"type": "address"
						},
						{
							"internalType": "enum Main.Passenger_Status",
							"name": "status",
							"type": "uint8"
						},
						{
							"internalType": "bool",
							"name": "isConfirm",
							"type": "bool"
						}
					],
					"internalType": "struct Main.BookingData",
					"name": "",
					"type": "tuple"
				}
			],
			"stateMutability": "view",
			"type": "function"
		},
		{
			"inputs": [
				{
					"internalType": "address",
					"name": "_address",
					"type": "address"
				}
			],
			"name": "getHistoryRide",
			"outputs": [
				{
					"internalType": "uint256[]",
					"name": "",
					"type": "uint256[]"
				}
			],
			"stateMutability": "view",
			"type": "function"
		},
		{
			"inputs": [
				{
					"internalType": "address",
					"name": "",
					"type": "address"
				},
				{
					"internalType": "uint256",
					"name": "",
					"type": "uint256"
				}
			],
			"name": "history",
			"outputs": [
				{
					"internalType": "uint256",
					"name": "",
					"type": "uint256"
				}
			],
			"stateMutability": "view",
			"type": "function"
		},
		{
			"inputs": [
				{
					"internalType": "address",
					"name": "",
					"type": "address"
				}
			],
			"name": "onService",
			"outputs": [
				{
					"internalType": "bool",
					"name": "",
					"type": "bool"
				}
			],
			"stateMutability": "view",
			"type": "function"
		},
		{
			"inputs": [
				{
					"internalType": "uint256",
					"name": "_otp",
					"type": "uint256"
				},
				{
					"internalType": "uint256",
					"name": "_index",
					"type": "uint256"
				}
			],
			"name": "pickPassenger",
			"outputs": [],
			"stateMutability": "nonpayable",
			"type": "function"
		}
	]
}