{
	"contracts/169/Admin.sol": {
		"Admin": {
			"abi": [
				{
					"inputs": [
						{
							"internalType": "address",
							"name": "_address",
							"type": "address"
						}
					],
					"name": "checkUser",
					"outputs": [
						{
							"internalType": "bool",
							"name": "",
							"type": "bool"
						}
					],
					"stateMutability": "view",
					"type": "function"
				},
				{
					"inputs": [
						{
							"internalType": "address",
							"name": "_address",
							"type": "address"
						}
					],
					"name": "getUser",
					"outputs": [
						{
							"components": [
								{
									"internalType": "address",
									"name": "ethAddress",
									"type": "address"
								},
								{
									"internalType": "string",
									"name": "name",
									"type": "string"
								}
							],
							"internalType": "struct Admin.UserData",
							"name": "",
							"type": "tuple"
						}
					],
					"stateMutability": "view",
					"type": "function"
				},
				{
					"inputs": [
						{
							"internalType": "string",
							"name": "_name",
							"type": "string"
						}
					],
					"name": "register",
					"outputs": [],
					"stateMutability": "nonpayable",
					"type": "function"
				},
				{
					"inputs": [
						{
							"internalType": "address",
							"name": "",
							"type": "address"
						}
					],
					"name": "users",
					"outputs": [
						{
							"internalType": "address",
							"name": "ethAddress",
							"type": "address"
						},
						{
							"internalType": "string",
							"name": "name",
							"type": "string"
						}
					],
					"stateMutability": "view",
					"type": "function"
				}
			],
			"devdoc": {
				"kind": "dev",
				"methods": {},
				"version": 1
			},
			"evm": {
				"assembly": "    /* \"contracts/169/Admin.sol\":57:697  contract Admin {... */\n  mstore(0x40, 0x80)\n  callvalue\n  dup1\n  iszero\n  tag_1\n  jumpi\n  0x00\n  dup1\n  revert\ntag_1:\n  pop\n  dataSize(sub_0)\n  dup1\n  dataOffset(sub_0)\n  0x00\n  codecopy\n  0x00\n  return\nstop\n\nsub_0: assembly {\n        /* \"contracts/169/Admin.sol\":57:697  contract Admin {... */\n      mstore(0x40, 0x80)\n      callvalue\n      dup1\n      iszero\n      tag_1\n      jumpi\n      0x00\n      dup1\n      revert\n    tag_1:\n      pop\n      jumpi(tag_2, lt(calldatasize, 0x04))\n      shr(0xe0, calldataload(0x00))\n      dup1\n      0x1e9d48cf\n      eq\n      tag_3\n      jumpi\n      dup1\n      0x6f77926b\n      eq\n      tag_4\n      jumpi\n      dup1\n      0xa87430ba\n      eq\n      tag_5\n      jumpi\n      dup1\n      0xf2c298be\n      eq\n      tag_6\n      jumpi\n    tag_2:\n      0x00\n      dup1\n      revert\n        /* \"contracts/169/Admin.sol\":568:695  function checkUser(address _address) public view returns(bool) {... */\n    tag_3:\n      tag_7\n      0x04\n      dup1\n      calldatasize\n      sub\n      dup2\n      add\n      swap1\n      tag_8\n      swap2\n      swap1\n      tag_9\n      jump\t// in\n    tag_8:\n      tag_10\n      jump\t// in\n    tag_7:\n      mload(0x40)\n      tag_11\n      swap2\n      swap1\n      tag_12\n      jump\t// in\n    tag_11:\n      mload(0x40)\n      dup1\n      swap2\n      sub\n      swap1\n      return\n        /* \"contracts/169/Admin.sol\":450:562  function getUser(address _address) public view returns (UserData memory) {... */\n    tag_4:\n      tag_13\n      0x04\n      dup1\n      calldatasize\n      sub\n      dup2\n      add\n      swap1\n      tag_14\n      swap2\n      swap1\n      tag_9\n      jump\t// in\n    tag_14:\n      tag_15\n      jump\t// in\n    tag_13:\n      mload(0x40)\n      tag_16\n      swap2\n      swap1\n      tag_17\n      jump\t// in\n    tag_16:\n      mload(0x40)\n      dup1\n      swap2\n      sub\n      swap1\n      return\n        /* \"contracts/169/Admin.sol\":156:197  mapping(address => UserData) public users */\n    tag_5:\n      tag_18\n      0x04\n      dup1\n      calldatasize\n      sub\n      dup2\n      add\n      swap1\n      tag_19\n      swap2\n      swap1\n      tag_9\n      jump\t// in\n    tag_19:\n      tag_20\n      jump\t// in\n    tag_18:\n      mload(0x40)\n      tag_21\n      swap3\n      swap2\n      swap1\n      tag_22\n      jump\t// in\n    tag_21:\n      mload(0x40)\n      dup1\n      swap2\n      sub\n      swap1\n      return\n        /* \"contracts/169/Admin.sol\":204:444  function register(string memory _name) public {... */\n    tag_6:\n      tag_23\n      0x04\n      dup1\n      calldatasize\n      sub\n      dup2\n      add\n      swap1\n      tag_24\n      swap2\n      swap1\n      tag_25\n      jump\t// in\n    tag_24:\n      tag_26\n      jump\t// in\n    tag_23:\n      stop\n        /* \"contracts/169/Admin.sol\":568:695  function checkUser(address _address) public view returns(bool) {... */\n    tag_10:\n        /* \"contracts/169/Admin.sol\":625:629  bool */\n      0x00\n        /* \"contracts/169/Admin.sol\":686:687  0 */\n      dup1\n        /* \"contracts/169/Admin.sol\":648:688  users[_address].ethAddress != address(0) */\n      0xffffffffffffffffffffffffffffffffffffffff\n      and\n        /* \"contracts/169/Admin.sol\":648:653  users */\n      0x00\n        /* \"contracts/169/Admin.sol\":648:663  users[_address] */\n      dup1\n        /* \"contracts/169/Admin.sol\":654:662  _address */\n      dup5\n        /* \"contracts/169/Admin.sol\":648:663  users[_address] */\n      0xffffffffffffffffffffffffffffffffffffffff\n      and\n      0xffffffffffffffffffffffffffffffffffffffff\n      and\n      dup2\n      mstore\n      0x20\n      add\n      swap1\n      dup2\n      mstore\n      0x20\n      add\n      0x00\n      keccak256\n        /* \"contracts/169/Admin.sol\":648:674  users[_address].ethAddress */\n      0x00\n      add\n      0x00\n      swap1\n      sload\n      swap1\n      0x0100\n      exp\n      swap1\n      div\n      0xffffffffffffffffffffffffffffffffffffffff\n      and\n        /* \"contracts/169/Admin.sol\":648:688  users[_address].ethAddress != address(0) */\n      0xffffffffffffffffffffffffffffffffffffffff\n      and\n      eq\n      iszero\n        /* \"contracts/169/Admin.sol\":641:688  return users[_address].ethAddress != address(0) */\n      swap1\n      pop\n        /* \"contracts/169/Admin.sol\":568:695  function checkUser(address _address) public view returns(bool) {... */\n      swap2\n      swap1\n      pop\n      jump\t// out\n        /* \"contracts/169/Admin.sol\":450:562  function getUser(address _address) public view returns (UserData memory) {... */\n    tag_15:\n        /* \"contracts/169/Admin.sol\":506:521  UserData memory */\n      tag_28\n      tag_29\n      jump\t// in\n    tag_28:\n        /* \"contracts/169/Admin.sol\":540:545  users */\n      0x00\n        /* \"contracts/169/Admin.sol\":540:555  users[_address] */\n      dup1\n        /* \"contracts/169/Admin.sol\":546:554  _address */\n      dup4\n        /* \"contracts/169/Admin.sol\":540:555  users[_address] */\n      0xffffffffffffffffffffffffffffffffffffffff\n      and\n      0xffffffffffffffffffffffffffffffffffffffff\n      and\n      dup2\n      mstore\n      0x20\n      add\n      swap1\n      dup2\n      mstore\n      0x20\n      add\n      0x00\n      keccak256\n        /* \"contracts/169/Admin.sol\":533:555  return users[_address] */\n      mload(0x40)\n      dup1\n      0x40\n      add\n      0x40\n      mstore\n      swap1\n      dup2\n      0x00\n      dup3\n      add\n      0x00\n      swap1\n      sload\n      swap1\n      0x0100\n      exp\n      swap1\n      div\n      0xffffffffffffffffffffffffffffffffffffffff\n      and\n      0xffffffffffffffffffffffffffffffffffffffff\n      and\n      0xffffffffffffffffffffffffffffffffffffffff\n      and\n      dup2\n      mstore\n      0x20\n      add\n      0x01\n      dup3\n      add\n      dup1\n      sload\n      tag_31\n      swap1\n      tag_32\n      jump\t// in\n    tag_31:\n      dup1\n      0x1f\n      add\n      0x20\n      dup1\n      swap2\n      div\n      mul\n      0x20\n      add\n      mload(0x40)\n      swap1\n      dup2\n      add\n      0x40\n      mstore\n      dup1\n      swap3\n      swap2\n      swap1\n      dup2\n      dup2\n      mstore\n      0x20\n      add\n      dup3\n      dup1\n      sload\n      tag_33\n      swap1\n      tag_32\n      jump\t// in\n    tag_33:\n      dup1\n      iszero\n      tag_34\n      jumpi\n      dup1\n      0x1f\n      lt\n      tag_35\n      jumpi\n      0x0100\n      dup1\n      dup4\n      sload\n      div\n      mul\n      dup4\n      mstore\n      swap2\n      0x20\n      add\n      swap2\n      jump(tag_34)\n    tag_35:\n      dup3\n      add\n      swap2\n      swap1\n      0x00\n      mstore\n      keccak256(0x00, 0x20)\n      swap1\n    tag_36:\n      dup2\n      sload\n      dup2\n      mstore\n      swap1\n      0x01\n      add\n      swap1\n      0x20\n      add\n      dup1\n      dup4\n      gt\n      tag_36\n      jumpi\n      dup3\n      swap1\n      sub\n      0x1f\n      and\n      dup3\n      add\n      swap2\n    tag_34:\n      pop\n      pop\n      pop\n      pop\n      pop\n      dup2\n      mstore\n      pop\n      pop\n      swap1\n      pop\n        /* \"contracts/169/Admin.sol\":450:562  function getUser(address _address) public view returns (UserData memory) {... */\n      swap2\n      swap1\n      pop\n      jump\t// out\n        /* \"contracts/169/Admin.sol\":156:197  mapping(address => UserData) public users */\n    tag_20:\n      mstore(0x20, 0x00)\n      dup1\n      0x00\n      mstore\n      keccak256(0x00, 0x40)\n      0x00\n      swap2\n      pop\n      swap1\n      pop\n      dup1\n      0x00\n      add\n      0x00\n      swap1\n      sload\n      swap1\n      0x0100\n      exp\n      swap1\n      div\n      0xffffffffffffffffffffffffffffffffffffffff\n      and\n      swap1\n      dup1\n      0x01\n      add\n      dup1\n      sload\n      tag_37\n      swap1\n      tag_32\n      jump\t// in\n    tag_37:\n      dup1\n      0x1f\n      add\n      0x20\n      dup1\n      swap2\n      div\n      mul\n      0x20\n      add\n      mload(0x40)\n      swap1\n      dup2\n      add\n      0x40\n      mstore\n      dup1\n      swap3\n      swap2\n      swap1\n      dup2\n      dup2\n      mstore\n      0x20\n      add\n      dup3\n      dup1\n      sload\n      tag_38\n      swap1\n      tag_32\n      jump\t// in\n    tag_38:\n      dup1\n      iszero\n      tag_39\n      jumpi\n      dup1\n      0x1f\n      lt\n      tag_40\n      jumpi\n      0x0100\n      dup1\n      dup4\n      sload\n      div\n      mul\n      dup4\n      mstore\n      swap2\n      0x20\n      add\n      swap2\n      jump(tag_39)\n    tag_40:\n      dup3\n      add\n      swap2\n      swap1\n      0x00\n      mstore\n      keccak256(0x00, 0x20)\n      swap1\n    tag_41:\n      dup2\n      sload\n      dup2\n      mstore\n      swap1\n      0x01\n      add\n      swap1\n      0x20\n      add\n      dup1\n      dup4\n      gt\n      tag_41\n      jumpi\n      dup3\n      swap1\n      sub\n      0x1f\n      and\n      dup3\n      add\n      swap2\n    tag_39:\n      pop\n      pop\n      pop\n      pop\n      pop\n      swap1\n      pop\n      dup3\n      jump\t// out\n        /* \"contracts/169/Admin.sol\":204:444  function register(string memory _name) public {... */\n    tag_26:\n        /* \"contracts/169/Admin.sol\":313:323  msg.sender */\n      caller\n        /* \"contracts/169/Admin.sol\":281:323  users[msg.sender].ethAddress != msg.sender */\n      0xffffffffffffffffffffffffffffffffffffffff\n      and\n        /* \"contracts/169/Admin.sol\":281:286  users */\n      0x00\n        /* \"contracts/169/Admin.sol\":281:298  users[msg.sender] */\n      dup1\n        /* \"contracts/169/Admin.sol\":287:297  msg.sender */\n      caller\n        /* \"contracts/169/Admin.sol\":281:298  users[msg.sender] */\n      0xffffffffffffffffffffffffffffffffffffffff\n      and\n      0xffffffffffffffffffffffffffffffffffffffff\n      and\n      dup2\n      mstore\n      0x20\n      add\n      swap1\n      dup2\n      mstore\n      0x20\n      add\n      0x00\n      keccak256\n        /* \"contracts/169/Admin.sol\":281:309  users[msg.sender].ethAddress */\n      0x00\n      add\n      0x00\n      swap1\n      sload\n      swap1\n      0x0100\n      exp\n      swap1\n      div\n      0xffffffffffffffffffffffffffffffffffffffff\n      and\n        /* \"contracts/169/Admin.sol\":281:323  users[msg.sender].ethAddress != msg.sender */\n      0xffffffffffffffffffffffffffffffffffffffff\n      and\n      sub\n        /* \"contracts/169/Admin.sol\":260:379  require(... */\n      tag_43\n      jumpi\n      mload(0x40)\n      0x08c379a000000000000000000000000000000000000000000000000000000000\n      dup2\n      mstore\n      0x04\n      add\n      tag_44\n      swap1\n      tag_45\n      jump\t// in\n    tag_44:\n      mload(0x40)\n      dup1\n      swap2\n      sub\n      swap1\n      revert\n    tag_43:\n        /* \"contracts/169/Admin.sol\":410:437  UserData(msg.sender, _name) */\n      mload(0x40)\n      dup1\n      0x40\n      add\n      0x40\n      mstore\n      dup1\n        /* \"contracts/169/Admin.sol\":419:429  msg.sender */\n      caller\n        /* \"contracts/169/Admin.sol\":410:437  UserData(msg.sender, _name) */\n      0xffffffffffffffffffffffffffffffffffffffff\n      and\n      dup2\n      mstore\n      0x20\n      add\n        /* \"contracts/169/Admin.sol\":431:436  _name */\n      dup3\n        /* \"contracts/169/Admin.sol\":410:437  UserData(msg.sender, _name) */\n      dup2\n      mstore\n      pop\n        /* \"contracts/169/Admin.sol\":390:395  users */\n      0x00\n        /* \"contracts/169/Admin.sol\":390:407  users[msg.sender] */\n      dup1\n        /* \"contracts/169/Admin.sol\":396:406  msg.sender */\n      caller\n        /* \"contracts/169/Admin.sol\":390:407  users[msg.sender] */\n      0xffffffffffffffffffffffffffffffffffffffff\n      and\n      0xffffffffffffffffffffffffffffffffffffffff\n      and\n      dup2\n      mstore\n      0x20\n      add\n      swap1\n      dup2\n      mstore\n      0x20\n      add\n      0x00\n      keccak256\n        /* \"contracts/169/Admin.sol\":390:437  users[msg.sender] = UserData(msg.sender, _name) */\n      0x00\n      dup3\n      add\n      mload\n      dup2\n      0x00\n      add\n      exp(0x0100, 0x00)\n      dup2\n      sload\n      dup2\n      0xffffffffffffffffffffffffffffffffffffffff\n      mul\n      not\n      and\n      swap1\n      dup4\n      0xffffffffffffffffffffffffffffffffffffffff\n      and\n      mul\n      or\n      swap1\n      sstore\n      pop\n      0x20\n      dup3\n      add\n      mload\n      dup2\n      0x01\n      add\n      swap1\n      dup2\n      tag_46\n      swap2\n      swap1\n      tag_47\n      jump\t// in\n    tag_46:\n      pop\n      swap1\n      pop\n      pop\n        /* \"contracts/169/Admin.sol\":204:444  function register(string memory _name) public {... */\n      pop\n      jump\t// out\n    tag_29:\n      mload(0x40)\n      dup1\n      0x40\n      add\n      0x40\n      mstore\n      dup1\n      and(0xffffffffffffffffffffffffffffffffffffffff, 0x00)\n      dup2\n      mstore\n      0x20\n      add\n      0x60\n      dup2\n      mstore\n      pop\n      swap1\n      jump\t// out\n        /* \"#utility.yul\":7:82   */\n    tag_48:\n        /* \"#utility.yul\":40:46   */\n      0x00\n        /* \"#utility.yul\":73:75   */\n      0x40\n        /* \"#utility.yul\":67:76   */\n      mload\n        /* \"#utility.yul\":57:76   */\n      swap1\n      pop\n        /* \"#utility.yul\":7:82   */\n      swap1\n      jump\t// out\n        /* \"#utility.yul\":88:205   */\n    tag_49:\n        /* \"#utility.yul\":197:198   */\n      0x00\n        /* \"#utility.yul\":194:195   */\n      dup1\n        /* \"#utility.yul\":187:199   */\n      revert\n        /* \"#utility.yul\":211:328   */\n    tag_50:\n        /* \"#utility.yul\":320:321   */\n      0x00\n        /* \"#utility.yul\":317:318   */\n      dup1\n        /* \"#utility.yul\":310:322   */\n      revert\n        /* \"#utility.yul\":334:460   */\n    tag_51:\n        /* \"#utility.yul\":371:378   */\n      0x00\n        /* \"#utility.yul\":411:453   */\n      0xffffffffffffffffffffffffffffffffffffffff\n        /* \"#utility.yul\":404:409   */\n      dup3\n        /* \"#utility.yul\":400:454   */\n      and\n        /* \"#utility.yul\":389:454   */\n      swap1\n      pop\n        /* \"#utility.yul\":334:460   */\n      swap2\n      swap1\n      pop\n      jump\t// out\n        /* \"#utility.yul\":466:562   */\n    tag_52:\n        /* \"#utility.yul\":503:510   */\n      0x00\n        /* \"#utility.yul\":532:556   */\n      tag_101\n        /* \"#utility.yul\":550:555   */\n      dup3\n        /* \"#utility.yul\":532:556   */\n      tag_51\n      jump\t// in\n    tag_101:\n        /* \"#utility.yul\":521:556   */\n      swap1\n      pop\n        /* \"#utility.yul\":466:562   */\n      swap2\n      swap1\n      pop\n      jump\t// out\n        /* \"#utility.yul\":568:690   */\n    tag_53:\n        /* \"#utility.yul\":641:665   */\n      tag_103\n        /* \"#utility.yul\":659:664   */\n      dup2\n        /* \"#utility.yul\":641:665   */\n      tag_52\n      jump\t// in\n    tag_103:\n        /* \"#utility.yul\":634:639   */\n      dup2\n        /* \"#utility.yul\":631:666   */\n      eq\n        /* \"#utility.yul\":621:684   */\n      tag_104\n      jumpi\n        /* \"#utility.yul\":680:681   */\n      0x00\n        /* \"#utility.yul\":677:678   */\n      dup1\n        /* \"#utility.yul\":670:682   */\n      revert\n        /* \"#utility.yul\":621:684   */\n    tag_104:\n        /* \"#utility.yul\":568:690   */\n      pop\n      jump\t// out\n        /* \"#utility.yul\":696:835   */\n    tag_54:\n        /* \"#utility.yul\":742:747   */\n      0x00\n        /* \"#utility.yul\":780:786   */\n      dup2\n        /* \"#utility.yul\":767:787   */\n      calldataload\n        /* \"#utility.yul\":758:787   */\n      swap1\n      pop\n        /* \"#utility.yul\":796:829   */\n      tag_106\n        /* \"#utility.yul\":823:828   */\n      dup2\n        /* \"#utility.yul\":796:829   */\n      tag_53\n      jump\t// in\n    tag_106:\n        /* \"#utility.yul\":696:835   */\n      swap3\n      swap2\n      pop\n      pop\n      jump\t// out\n        /* \"#utility.yul\":841:1170   */\n    tag_9:\n        /* \"#utility.yul\":900:906   */\n      0x00\n        /* \"#utility.yul\":949:951   */\n      0x20\n        /* \"#utility.yul\":937:946   */\n      dup3\n        /* \"#utility.yul\":928:935   */\n      dup5\n        /* \"#utility.yul\":924:947   */\n      sub\n        /* \"#utility.yul\":920:952   */\n      slt\n        /* \"#utility.yul\":917:1036   */\n      iszero\n      tag_108\n      jumpi\n        /* \"#utility.yul\":955:1034   */\n      tag_109\n      tag_49\n      jump\t// in\n    tag_109:\n        /* \"#utility.yul\":917:1036   */\n    tag_108:\n        /* \"#utility.yul\":1075:1076   */\n      0x00\n        /* \"#utility.yul\":1100:1153   */\n      tag_110\n        /* \"#utility.yul\":1145:1152   */\n      dup5\n        /* \"#utility.yul\":1136:1142   */\n      dup3\n        /* \"#utility.yul\":1125:1134   */\n      dup6\n        /* \"#utility.yul\":1121:1143   */\n      add\n        /* \"#utility.yul\":1100:1153   */\n      tag_54\n      jump\t// in\n    tag_110:\n        /* \"#utility.yul\":1090:1153   */\n      swap2\n      pop\n        /* \"#utility.yul\":1046:1163   */\n      pop\n        /* \"#utility.yul\":841:1170   */\n      swap3\n      swap2\n      pop\n      pop\n      jump\t// out\n        /* \"#utility.yul\":1176:1266   */\n    tag_55:\n        /* \"#utility.yul\":1210:1217   */\n      0x00\n        /* \"#utility.yul\":1253:1258   */\n      dup2\n        /* \"#utility.yul\":1246:1259   */\n      iszero\n        /* \"#utility.yul\":1239:1260   */\n      iszero\n        /* \"#utility.yul\":1228:1260   */\n      swap1\n      pop\n        /* \"#utility.yul\":1176:1266   */\n      swap2\n      swap1\n      pop\n      jump\t// out\n        /* \"#utility.yul\":1272:1381   */\n    tag_56:\n        /* \"#utility.yul\":1353:1374   */\n      tag_113\n        /* \"#utility.yul\":1368:1373   */\n      dup2\n        /* \"#utility.yul\":1353:1374   */\n      tag_55\n      jump\t// in\n    tag_113:\n        /* \"#utility.yul\":1348:1351   */\n      dup3\n        /* \"#utility.yul\":1341:1375   */\n      mstore\n        /* \"#utility.yul\":1272:1381   */\n      pop\n      pop\n      jump\t// out\n        /* \"#utility.yul\":1387:1597   */\n    tag_12:\n        /* \"#utility.yul\":1474:1478   */\n      0x00\n        /* \"#utility.yul\":1512:1514   */\n      0x20\n        /* \"#utility.yul\":1501:1510   */\n      dup3\n        /* \"#utility.yul\":1497:1515   */\n      add\n        /* \"#utility.yul\":1489:1515   */\n      swap1\n      pop\n        /* \"#utility.yul\":1525:1590   */\n      tag_115\n        /* \"#utility.yul\":1587:1588   */\n      0x00\n        /* \"#utility.yul\":1576:1585   */\n      dup4\n        /* \"#utility.yul\":1572:1589   */\n      add\n        /* \"#utility.yul\":1563:1569   */\n      dup5\n        /* \"#utility.yul\":1525:1590   */\n      tag_56\n      jump\t// in\n    tag_115:\n        /* \"#utility.yul\":1387:1597   */\n      swap3\n      swap2\n      pop\n      pop\n      jump\t// out\n        /* \"#utility.yul\":1603:1711   */\n    tag_57:\n        /* \"#utility.yul\":1680:1704   */\n      tag_117\n        /* \"#utility.yul\":1698:1703   */\n      dup2\n        /* \"#utility.yul\":1680:1704   */\n      tag_52\n      jump\t// in\n    tag_117:\n        /* \"#utility.yul\":1675:1678   */\n      dup3\n        /* \"#utility.yul\":1668:1705   */\n      mstore\n        /* \"#utility.yul\":1603:1711   */\n      pop\n      pop\n      jump\t// out\n        /* \"#utility.yul\":1717:1816   */\n    tag_58:\n        /* \"#utility.yul\":1769:1775   */\n      0x00\n        /* \"#utility.yul\":1803:1808   */\n      dup2\n        /* \"#utility.yul\":1797:1809   */\n      mload\n        /* \"#utility.yul\":1787:1809   */\n      swap1\n      pop\n        /* \"#utility.yul\":1717:1816   */\n      swap2\n      swap1\n      pop\n      jump\t// out\n        /* \"#utility.yul\":1822:1981   */\n    tag_59:\n        /* \"#utility.yul\":1896:1907   */\n      0x00\n        /* \"#utility.yul\":1930:1936   */\n      dup3\n        /* \"#utility.yul\":1925:1928   */\n      dup3\n        /* \"#utility.yul\":1918:1937   */\n      mstore\n        /* \"#utility.yul\":1970:1974   */\n      0x20\n        /* \"#utility.yul\":1965:1968   */\n      dup3\n        /* \"#utility.yul\":1961:1975   */\n      add\n        /* \"#utility.yul\":1946:1975   */\n      swap1\n      pop\n        /* \"#utility.yul\":1822:1981   */\n      swap3\n      swap2\n      pop\n      pop\n      jump\t// out\n        /* \"#utility.yul\":1987:2233   */\n    tag_60:\n        /* \"#utility.yul\":2068:2069   */\n      0x00\n        /* \"#utility.yul\":2078:2191   */\n    tag_121:\n        /* \"#utility.yul\":2092:2098   */\n      dup4\n        /* \"#utility.yul\":2089:2090   */\n      dup2\n        /* \"#utility.yul\":2086:2099   */\n      lt\n        /* \"#utility.yul\":2078:2191   */\n      iszero\n      tag_123\n      jumpi\n        /* \"#utility.yul\":2177:2178   */\n      dup1\n        /* \"#utility.yul\":2172:2175   */\n      dup3\n        /* \"#utility.yul\":2168:2179   */\n      add\n        /* \"#utility.yul\":2162:2180   */\n      mload\n        /* \"#utility.yul\":2158:2159   */\n      dup2\n        /* \"#utility.yul\":2153:2156   */\n      dup5\n        /* \"#utility.yul\":2149:2160   */\n      add\n        /* \"#utility.yul\":2142:2181   */\n      mstore\n        /* \"#utility.yul\":2114:2116   */\n      0x20\n        /* \"#utility.yul\":2111:2112   */\n      dup2\n        /* \"#utility.yul\":2107:2117   */\n      add\n        /* \"#utility.yul\":2102:2117   */\n      swap1\n      pop\n        /* \"#utility.yul\":2078:2191   */\n      jump(tag_121)\n    tag_123:\n        /* \"#utility.yul\":2225:2226   */\n      0x00\n        /* \"#utility.yul\":2216:2222   */\n      dup5\n        /* \"#utility.yul\":2211:2214   */\n      dup5\n        /* \"#utility.yul\":2207:2223   */\n      add\n        /* \"#utility.yul\":2200:2227   */\n      mstore\n        /* \"#utility.yul\":2049:2233   */\n      pop\n        /* \"#utility.yul\":1987:2233   */\n      pop\n      pop\n      pop\n      jump\t// out\n        /* \"#utility.yul\":2239:2341   */\n    tag_61:\n        /* \"#utility.yul\":2280:2286   */\n      0x00\n        /* \"#utility.yul\":2331:2333   */\n      0x1f\n        /* \"#utility.yul\":2327:2334   */\n      not\n        /* \"#utility.yul\":2322:2324   */\n      0x1f\n        /* \"#utility.yul\":2315:2320   */\n      dup4\n        /* \"#utility.yul\":2311:2325   */\n      add\n        /* \"#utility.yul\":2307:2335   */\n      and\n        /* \"#utility.yul\":2297:2335   */\n      swap1\n      pop\n        /* \"#utility.yul\":2239:2341   */\n      swap2\n      swap1\n      pop\n      jump\t// out\n        /* \"#utility.yul\":2347:2704   */\n    tag_62:\n        /* \"#utility.yul\":2425:2428   */\n      0x00\n        /* \"#utility.yul\":2453:2492   */\n      tag_126\n        /* \"#utility.yul\":2486:2491   */\n      dup3\n        /* \"#utility.yul\":2453:2492   */\n      tag_58\n      jump\t// in\n    tag_126:\n        /* \"#utility.yul\":2508:2569   */\n      tag_127\n        /* \"#utility.yul\":2562:2568   */\n      dup2\n        /* \"#utility.yul\":2557:2560   */\n      dup6\n        /* \"#utility.yul\":2508:2569   */\n      tag_59\n      jump\t// in\n    tag_127:\n        /* \"#utility.yul\":2501:2569   */\n      swap4\n      pop\n        /* \"#utility.yul\":2578:2643   */\n      tag_128\n        /* \"#utility.yul\":2636:2642   */\n      dup2\n        /* \"#utility.yul\":2631:2634   */\n      dup6\n        /* \"#utility.yul\":2624:2628   */\n      0x20\n        /* \"#utility.yul\":2617:2622   */\n      dup7\n        /* \"#utility.yul\":2613:2629   */\n      add\n        /* \"#utility.yul\":2578:2643   */\n      tag_60\n      jump\t// in\n    tag_128:\n        /* \"#utility.yul\":2668:2697   */\n      tag_129\n        /* \"#utility.yul\":2690:2696   */\n      dup2\n        /* \"#utility.yul\":2668:2697   */\n      tag_61\n      jump\t// in\n    tag_129:\n        /* \"#utility.yul\":2663:2666   */\n      dup5\n        /* \"#utility.yul\":2659:2698   */\n      add\n        /* \"#utility.yul\":2652:2698   */\n      swap2\n      pop\n        /* \"#utility.yul\":2429:2704   */\n      pop\n        /* \"#utility.yul\":2347:2704   */\n      swap3\n      swap2\n      pop\n      pop\n      jump\t// out\n        /* \"#utility.yul\":2764:3372   */\n    tag_63:\n        /* \"#utility.yul\":2879:2882   */\n      0x00\n        /* \"#utility.yul\":2915:2919   */\n      0x40\n        /* \"#utility.yul\":2910:2913   */\n      dup4\n        /* \"#utility.yul\":2906:2920   */\n      add\n        /* \"#utility.yul\":3008:3012   */\n      0x00\n        /* \"#utility.yul\":3001:3006   */\n      dup4\n        /* \"#utility.yul\":2997:3013   */\n      add\n        /* \"#utility.yul\":2991:3014   */\n      mload\n        /* \"#utility.yul\":3027:3090   */\n      tag_131\n        /* \"#utility.yul\":3084:3088   */\n      0x00\n        /* \"#utility.yul\":3079:3082   */\n      dup7\n        /* \"#utility.yul\":3075:3089   */\n      add\n        /* \"#utility.yul\":3061:3073   */\n      dup3\n        /* \"#utility.yul\":3027:3090   */\n      tag_57\n      jump\t// in\n    tag_131:\n        /* \"#utility.yul\":2930:3100   */\n      pop\n        /* \"#utility.yul\":3182:3186   */\n      0x20\n        /* \"#utility.yul\":3175:3180   */\n      dup4\n        /* \"#utility.yul\":3171:3187   */\n      add\n        /* \"#utility.yul\":3165:3188   */\n      mload\n        /* \"#utility.yul\":3235:3238   */\n      dup5\n        /* \"#utility.yul\":3229:3233   */\n      dup3\n        /* \"#utility.yul\":3225:3239   */\n      sub\n        /* \"#utility.yul\":3218:3222   */\n      0x20\n        /* \"#utility.yul\":3213:3216   */\n      dup7\n        /* \"#utility.yul\":3209:3223   */\n      add\n        /* \"#utility.yul\":3202:3240   */\n      mstore\n        /* \"#utility.yul\":3261:3334   */\n      tag_132\n        /* \"#utility.yul\":3329:3333   */\n      dup3\n        /* \"#utility.yul\":3315:3327   */\n      dup3\n        /* \"#utility.yul\":3261:3334   */\n      tag_62\n      jump\t// in\n    tag_132:\n        /* \"#utility.yul\":3253:3334   */\n      swap2\n      pop\n        /* \"#utility.yul\":3110:3345   */\n      pop\n        /* \"#utility.yul\":3362:3366   */\n      dup1\n        /* \"#utility.yul\":3355:3366   */\n      swap2\n      pop\n        /* \"#utility.yul\":2884:3372   */\n      pop\n        /* \"#utility.yul\":2764:3372   */\n      swap3\n      swap2\n      pop\n      pop\n      jump\t// out\n        /* \"#utility.yul\":3378:3743   */\n    tag_17:\n        /* \"#utility.yul\":3517:3521   */\n      0x00\n        /* \"#utility.yul\":3555:3557   */\n      0x20\n        /* \"#utility.yul\":3544:3553   */\n      dup3\n        /* \"#utility.yul\":3540:3558   */\n      add\n        /* \"#utility.yul\":3532:3558   */\n      swap1\n      pop\n        /* \"#utility.yul\":3604:3613   */\n      dup2\n        /* \"#utility.yul\":3598:3602   */\n      dup2\n        /* \"#utility.yul\":3594:3614   */\n      sub\n        /* \"#utility.yul\":3590:3591   */\n      0x00\n        /* \"#utility.yul\":3579:3588   */\n      dup4\n        /* \"#utility.yul\":3575:3592   */\n      add\n        /* \"#utility.yul\":3568:3615   */\n      mstore\n        /* \"#utility.yul\":3632:3736   */\n      tag_134\n        /* \"#utility.yul\":3731:3735   */\n      dup2\n        /* \"#utility.yul\":3722:3728   */\n      dup5\n        /* \"#utility.yul\":3632:3736   */\n      tag_63\n      jump\t// in\n    tag_134:\n        /* \"#utility.yul\":3624:3736   */\n      swap1\n      pop\n        /* \"#utility.yul\":3378:3743   */\n      swap3\n      swap2\n      pop\n      pop\n      jump\t// out\n        /* \"#utility.yul\":3749:3867   */\n    tag_64:\n        /* \"#utility.yul\":3836:3860   */\n      tag_136\n        /* \"#utility.yul\":3854:3859   */\n      dup2\n        /* \"#utility.yul\":3836:3860   */\n      tag_52\n      jump\t// in\n    tag_136:\n        /* \"#utility.yul\":3831:3834   */\n      dup3\n        /* \"#utility.yul\":3824:3861   */\n      mstore\n        /* \"#utility.yul\":3749:3867   */\n      pop\n      pop\n      jump\t// out\n        /* \"#utility.yul\":3873:4042   */\n    tag_65:\n        /* \"#utility.yul\":3957:3968   */\n      0x00\n        /* \"#utility.yul\":3991:3997   */\n      dup3\n        /* \"#utility.yul\":3986:3989   */\n      dup3\n        /* \"#utility.yul\":3979:3998   */\n      mstore\n        /* \"#utility.yul\":4031:4035   */\n      0x20\n        /* \"#utility.yul\":4026:4029   */\n      dup3\n        /* \"#utility.yul\":4022:4036   */\n      add\n        /* \"#utility.yul\":4007:4036   */\n      swap1\n      pop\n        /* \"#utility.yul\":3873:4042   */\n      swap3\n      swap2\n      pop\n      pop\n      jump\t// out\n        /* \"#utility.yul\":4048:4425   */\n    tag_66:\n        /* \"#utility.yul\":4136:4139   */\n      0x00\n        /* \"#utility.yul\":4164:4203   */\n      tag_139\n        /* \"#utility.yul\":4197:4202   */\n      dup3\n        /* \"#utility.yul\":4164:4203   */\n      tag_58\n      jump\t// in\n    tag_139:\n        /* \"#utility.yul\":4219:4290   */\n      tag_140\n        /* \"#utility.yul\":4283:4289   */\n      dup2\n        /* \"#utility.yul\":4278:4281   */\n      dup6\n        /* \"#utility.yul\":4219:4290   */\n      tag_65\n      jump\t// in\n    tag_140:\n        /* \"#utility.yul\":4212:4290   */\n      swap4\n      pop\n        /* \"#utility.yul\":4299:4364   */\n      tag_141\n        /* \"#utility.yul\":4357:4363   */\n      dup2\n        /* \"#utility.yul\":4352:4355   */\n      dup6\n        /* \"#utility.yul\":4345:4349   */\n      0x20\n        /* \"#utility.yul\":4338:4343   */\n      dup7\n        /* \"#utility.yul\":4334:4350   */\n      add\n        /* \"#utility.yul\":4299:4364   */\n      tag_60\n      jump\t// in\n    tag_141:\n        /* \"#utility.yul\":4389:4418   */\n      tag_142\n        /* \"#utility.yul\":4411:4417   */\n      dup2\n        /* \"#utility.yul\":4389:4418   */\n      tag_61\n      jump\t// in\n    tag_142:\n        /* \"#utility.yul\":4384:4387   */\n      dup5\n        /* \"#utility.yul\":4380:4419   */\n      add\n        /* \"#utility.yul\":4373:4419   */\n      swap2\n      pop\n        /* \"#utility.yul\":4140:4425   */\n      pop\n        /* \"#utility.yul\":4048:4425   */\n      swap3\n      swap2\n      pop\n      pop\n      jump\t// out\n        /* \"#utility.yul\":4431:4854   */\n    tag_22:\n        /* \"#utility.yul\":4572:4576   */\n      0x00\n        /* \"#utility.yul\":4610:4612   */\n      0x40\n        /* \"#utility.yul\":4599:4608   */\n      dup3\n        /* \"#utility.yul\":4595:4613   */\n      add\n        /* \"#utility.yul\":4587:4613   */\n      swap1\n      pop\n        /* \"#utility.yul\":4623:4694   */\n      tag_144\n        /* \"#utility.yul\":4691:4692   */\n      0x00\n        /* \"#utility.yul\":4680:4689   */\n      dup4\n        /* \"#utility.yul\":4676:4693   */\n      add\n        /* \"#utility.yul\":4667:4673   */\n      dup6\n        /* \"#utility.yul\":4623:4694   */\n      tag_64\n      jump\t// in\n    tag_144:\n        /* \"#utility.yul\":4741:4750   */\n      dup2\n        /* \"#utility.yul\":4735:4739   */\n      dup2\n        /* \"#utility.yul\":4731:4751   */\n      sub\n        /* \"#utility.yul\":4726:4728   */\n      0x20\n        /* \"#utility.yul\":4715:4724   */\n      dup4\n        /* \"#utility.yul\":4711:4729   */\n      add\n        /* \"#utility.yul\":4704:4752   */\n      mstore\n        /* \"#utility.yul\":4769:4847   */\n      tag_145\n        /* \"#utility.yul\":4842:4846   */\n      dup2\n        /* \"#utility.yul\":4833:4839   */\n      dup5\n        /* \"#utility.yul\":4769:4847   */\n      tag_66\n      jump\t// in\n    tag_145:\n        /* \"#utility.yul\":4761:4847   */\n      swap1\n      pop\n        /* \"#utility.yul\":4431:4854   */\n      swap4\n      swap3\n      pop\n      pop\n      pop\n      jump\t// out\n        /* \"#utility.yul\":4860:4977   */\n    tag_67:\n        /* \"#utility.yul\":4969:4970   */\n      0x00\n        /* \"#utility.yul\":4966:4967   */\n      dup1\n        /* \"#utility.yul\":4959:4971   */\n      revert\n        /* \"#utility.yul\":4983:5100   */\n    tag_68:\n        /* \"#utility.yul\":5092:5093   */\n      0x00\n        /* \"#utility.yul\":5089:5090   */\n      dup1\n        /* \"#utility.yul\":5082:5094   */\n      revert\n        /* \"#utility.yul\":5106:5286   */\n    tag_69:\n        /* \"#utility.yul\":5154:5231   */\n      0x4e487b7100000000000000000000000000000000000000000000000000000000\n        /* \"#utility.yul\":5151:5152   */\n      0x00\n        /* \"#utility.yul\":5144:5232   */\n      mstore\n        /* \"#utility.yul\":5251:5255   */\n      0x41\n        /* \"#utility.yul\":5248:5249   */\n      0x04\n        /* \"#utility.yul\":5241:5256   */\n      mstore\n        /* \"#utility.yul\":5275:5279   */\n      0x24\n        /* \"#utility.yul\":5272:5273   */\n      0x00\n        /* \"#utility.yul\":5265:5280   */\n      revert\n        /* \"#utility.yul\":5292:5573   */\n    tag_70:\n        /* \"#utility.yul\":5375:5402   */\n      tag_150\n        /* \"#utility.yul\":5397:5401   */\n      dup3\n        /* \"#utility.yul\":5375:5402   */\n      tag_61\n      jump\t// in\n    tag_150:\n        /* \"#utility.yul\":5367:5373   */\n      dup2\n        /* \"#utility.yul\":5363:5403   */\n      add\n        /* \"#utility.yul\":5505:5511   */\n      dup2\n        /* \"#utility.yul\":5493:5503   */\n      dup2\n        /* \"#utility.yul\":5490:5512   */\n      lt\n        /* \"#utility.yul\":5469:5487   */\n      0xffffffffffffffff\n        /* \"#utility.yul\":5457:5467   */\n      dup3\n        /* \"#utility.yul\":5454:5488   */\n      gt\n        /* \"#utility.yul\":5451:5513   */\n      or\n        /* \"#utility.yul\":5448:5536   */\n      iszero\n      tag_151\n      jumpi\n        /* \"#utility.yul\":5516:5534   */\n      tag_152\n      tag_69\n      jump\t// in\n    tag_152:\n        /* \"#utility.yul\":5448:5536   */\n    tag_151:\n        /* \"#utility.yul\":5556:5566   */\n      dup1\n        /* \"#utility.yul\":5552:5554   */\n      0x40\n        /* \"#utility.yul\":5545:5567   */\n      mstore\n        /* \"#utility.yul\":5335:5573   */\n      pop\n        /* \"#utility.yul\":5292:5573   */\n      pop\n      pop\n      jump\t// out\n        /* \"#utility.yul\":5579:5708   */\n    tag_71:\n        /* \"#utility.yul\":5613:5619   */\n      0x00\n        /* \"#utility.yul\":5640:5660   */\n      tag_154\n      tag_48\n      jump\t// in\n    tag_154:\n        /* \"#utility.yul\":5630:5660   */\n      swap1\n      pop\n        /* \"#utility.yul\":5669:5702   */\n      tag_155\n        /* \"#utility.yul\":5697:5701   */\n      dup3\n        /* \"#utility.yul\":5689:5695   */\n      dup3\n        /* \"#utility.yul\":5669:5702   */\n      tag_70\n      jump\t// in\n    tag_155:\n        /* \"#utility.yul\":5579:5708   */\n      swap2\n      swap1\n      pop\n      jump\t// out\n        /* \"#utility.yul\":5714:6022   */\n    tag_72:\n        /* \"#utility.yul\":5776:5780   */\n      0x00\n        /* \"#utility.yul\":5866:5884   */\n      0xffffffffffffffff\n        /* \"#utility.yul\":5858:5864   */\n      dup3\n        /* \"#utility.yul\":5855:5885   */\n      gt\n        /* \"#utility.yul\":5852:5908   */\n      iszero\n      tag_157\n      jumpi\n        /* \"#utility.yul\":5888:5906   */\n      tag_158\n      tag_69\n      jump\t// in\n    tag_158:\n        /* \"#utility.yul\":5852:5908   */\n    tag_157:\n        /* \"#utility.yul\":5926:5955   */\n      tag_159\n        /* \"#utility.yul\":5948:5954   */\n      dup3\n        /* \"#utility.yul\":5926:5955   */\n      tag_61\n      jump\t// in\n    tag_159:\n        /* \"#utility.yul\":5918:5955   */\n      swap1\n      pop\n        /* \"#utility.yul\":6010:6014   */\n      0x20\n        /* \"#utility.yul\":6004:6008   */\n      dup2\n        /* \"#utility.yul\":6000:6015   */\n      add\n        /* \"#utility.yul\":5992:6015   */\n      swap1\n      pop\n        /* \"#utility.yul\":5714:6022   */\n      swap2\n      swap1\n      pop\n      jump\t// out\n        /* \"#utility.yul\":6028:6174   */\n    tag_73:\n        /* \"#utility.yul\":6125:6131   */\n      dup3\n        /* \"#utility.yul\":6120:6123   */\n      dup2\n        /* \"#utility.yul\":6115:6118   */\n      dup4\n        /* \"#utility.yul\":6102:6132   */\n      calldatacopy\n        /* \"#utility.yul\":6166:6167   */\n      0x00\n        /* \"#utility.yul\":6157:6163   */\n      dup4\n        /* \"#utility.yul\":6152:6155   */\n      dup4\n        /* \"#utility.yul\":6148:6164   */\n      add\n        /* \"#utility.yul\":6141:6168   */\n      mstore\n        /* \"#utility.yul\":6028:6174   */\n      pop\n      pop\n      pop\n      jump\t// out\n        /* \"#utility.yul\":6180:6605   */\n    tag_74:\n        /* \"#utility.yul\":6258:6263   */\n      0x00\n        /* \"#utility.yul\":6283:6349   */\n      tag_162\n        /* \"#utility.yul\":6299:6348   */\n      tag_163\n        /* \"#utility.yul\":6341:6347   */\n      dup5\n        /* \"#utility.yul\":6299:6348   */\n      tag_72\n      jump\t// in\n    tag_163:\n        /* \"#utility.yul\":6283:6349   */\n      tag_71\n      jump\t// in\n    tag_162:\n        /* \"#utility.yul\":6274:6349   */\n      swap1\n      pop\n        /* \"#utility.yul\":6372:6378   */\n      dup3\n        /* \"#utility.yul\":6365:6370   */\n      dup2\n        /* \"#utility.yul\":6358:6379   */\n      mstore\n        /* \"#utility.yul\":6410:6414   */\n      0x20\n        /* \"#utility.yul\":6403:6408   */\n      dup2\n        /* \"#utility.yul\":6399:6415   */\n      add\n        /* \"#utility.yul\":6448:6451   */\n      dup5\n        /* \"#utility.yul\":6439:6445   */\n      dup5\n        /* \"#utility.yul\":6434:6437   */\n      dup5\n        /* \"#utility.yul\":6430:6446   */\n      add\n        /* \"#utility.yul\":6427:6452   */\n      gt\n        /* \"#utility.yul\":6424:6536   */\n      iszero\n      tag_164\n      jumpi\n        /* \"#utility.yul\":6455:6534   */\n      tag_165\n      tag_68\n      jump\t// in\n    tag_165:\n        /* \"#utility.yul\":6424:6536   */\n    tag_164:\n        /* \"#utility.yul\":6545:6599   */\n      tag_166\n        /* \"#utility.yul\":6592:6598   */\n      dup5\n        /* \"#utility.yul\":6587:6590   */\n      dup3\n        /* \"#utility.yul\":6582:6585   */\n      dup6\n        /* \"#utility.yul\":6545:6599   */\n      tag_73\n      jump\t// in\n    tag_166:\n        /* \"#utility.yul\":6264:6605   */\n      pop\n        /* \"#utility.yul\":6180:6605   */\n      swap4\n      swap3\n      pop\n      pop\n      pop\n      jump\t// out\n        /* \"#utility.yul\":6625:6965   */\n    tag_75:\n        /* \"#utility.yul\":6681:6686   */\n      0x00\n        /* \"#utility.yul\":6730:6733   */\n      dup3\n        /* \"#utility.yul\":6723:6727   */\n      0x1f\n        /* \"#utility.yul\":6715:6721   */\n      dup4\n        /* \"#utility.yul\":6711:6728   */\n      add\n        /* \"#utility.yul\":6707:6734   */\n      slt\n        /* \"#utility.yul\":6697:6819   */\n      tag_168\n      jumpi\n        /* \"#utility.yul\":6738:6817   */\n      tag_169\n      tag_67\n      jump\t// in\n    tag_169:\n        /* \"#utility.yul\":6697:6819   */\n    tag_168:\n        /* \"#utility.yul\":6855:6861   */\n      dup2\n        /* \"#utility.yul\":6842:6862   */\n      calldataload\n        /* \"#utility.yul\":6880:6959   */\n      tag_170\n        /* \"#utility.yul\":6955:6958   */\n      dup5\n        /* \"#utility.yul\":6947:6953   */\n      dup3\n        /* \"#utility.yul\":6940:6944   */\n      0x20\n        /* \"#utility.yul\":6932:6938   */\n      dup7\n        /* \"#utility.yul\":6928:6945   */\n      add\n        /* \"#utility.yul\":6880:6959   */\n      tag_74\n      jump\t// in\n    tag_170:\n        /* \"#utility.yul\":6871:6959   */\n      swap2\n      pop\n        /* \"#utility.yul\":6687:6965   */\n      pop\n        /* \"#utility.yul\":6625:6965   */\n      swap3\n      swap2\n      pop\n      pop\n      jump\t// out\n        /* \"#utility.yul\":6971:7480   */\n    tag_25:\n        /* \"#utility.yul\":7040:7046   */\n      0x00\n        /* \"#utility.yul\":7089:7091   */\n      0x20\n        /* \"#utility.yul\":7077:7086   */\n      dup3\n        /* \"#utility.yul\":7068:7075   */\n      dup5\n        /* \"#utility.yul\":7064:7087   */\n      sub\n        /* \"#utility.yul\":7060:7092   */\n      slt\n        /* \"#utility.yul\":7057:7176   */\n      iszero\n      tag_172\n      jumpi\n        /* \"#utility.yul\":7095:7174   */\n      tag_173\n      tag_49\n      jump\t// in\n    tag_173:\n        /* \"#utility.yul\":7057:7176   */\n    tag_172:\n        /* \"#utility.yul\":7243:7244   */\n      0x00\n        /* \"#utility.yul\":7232:7241   */\n      dup3\n        /* \"#utility.yul\":7228:7245   */\n      add\n        /* \"#utility.yul\":7215:7246   */\n      calldataload\n        /* \"#utility.yul\":7273:7291   */\n      0xffffffffffffffff\n        /* \"#utility.yul\":7265:7271   */\n      dup2\n        /* \"#utility.yul\":7262:7292   */\n      gt\n        /* \"#utility.yul\":7259:7376   */\n      iszero\n      tag_174\n      jumpi\n        /* \"#utility.yul\":7295:7374   */\n      tag_175\n      tag_50\n      jump\t// in\n    tag_175:\n        /* \"#utility.yul\":7259:7376   */\n    tag_174:\n        /* \"#utility.yul\":7400:7463   */\n      tag_176\n        /* \"#utility.yul\":7455:7462   */\n      dup5\n        /* \"#utility.yul\":7446:7452   */\n      dup3\n        /* \"#utility.yul\":7435:7444   */\n      dup6\n        /* \"#utility.yul\":7431:7453   */\n      add\n        /* \"#utility.yul\":7400:7463   */\n      tag_75\n      jump\t// in\n    tag_176:\n        /* \"#utility.yul\":7390:7463   */\n      swap2\n      pop\n        /* \"#utility.yul\":7186:7473   */\n      pop\n        /* \"#utility.yul\":6971:7480   */\n      swap3\n      swap2\n      pop\n      pop\n      jump\t// out\n        /* \"#utility.yul\":7486:7666   */\n    tag_76:\n        /* \"#utility.yul\":7534:7611   */\n      0x4e487b7100000000000000000000000000000000000000000000000000000000\n        /* \"#utility.yul\":7531:7532   */\n      0x00\n        /* \"#utility.yul\":7524:7612   */\n      mstore\n        /* \"#utility.yul\":7631:7635   */\n      0x22\n        /* \"#utility.yul\":7628:7629   */\n      0x04\n        /* \"#utility.yul\":7621:7636   */\n      mstore\n        /* \"#utility.yul\":7655:7659   */\n      0x24\n        /* \"#utility.yul\":7652:7653   */\n      0x00\n        /* \"#utility.yul\":7645:7660   */\n      revert\n        /* \"#utility.yul\":7672:7992   */\n    tag_32:\n        /* \"#utility.yul\":7716:7722   */\n      0x00\n        /* \"#utility.yul\":7753:7754   */\n      0x02\n        /* \"#utility.yul\":7747:7751   */\n      dup3\n        /* \"#utility.yul\":7743:7755   */\n      div\n        /* \"#utility.yul\":7733:7755   */\n      swap1\n      pop\n        /* \"#utility.yul\":7800:7801   */\n      0x01\n        /* \"#utility.yul\":7794:7798   */\n      dup3\n        /* \"#utility.yul\":7790:7802   */\n      and\n        /* \"#utility.yul\":7821:7839   */\n      dup1\n        /* \"#utility.yul\":7811:7892   */\n      tag_179\n      jumpi\n        /* \"#utility.yul\":7877:7881   */\n      0x7f\n        /* \"#utility.yul\":7869:7875   */\n      dup3\n        /* \"#utility.yul\":7865:7882   */\n      and\n        /* \"#utility.yul\":7855:7882   */\n      swap2\n      pop\n        /* \"#utility.yul\":7811:7892   */\n    tag_179:\n        /* \"#utility.yul\":7939:7941   */\n      0x20\n        /* \"#utility.yul\":7931:7937   */\n      dup3\n        /* \"#utility.yul\":7928:7942   */\n      lt\n        /* \"#utility.yul\":7908:7926   */\n      dup2\n        /* \"#utility.yul\":7905:7943   */\n      sub\n        /* \"#utility.yul\":7902:7986   */\n      tag_180\n      jumpi\n        /* \"#utility.yul\":7958:7976   */\n      tag_181\n      tag_76\n      jump\t// in\n    tag_181:\n        /* \"#utility.yul\":7902:7986   */\n    tag_180:\n        /* \"#utility.yul\":7723:7992   */\n      pop\n        /* \"#utility.yul\":7672:7992   */\n      swap2\n      swap1\n      pop\n      jump\t// out\n        /* \"#utility.yul\":7998:8178   */\n    tag_77:\n        /* \"#utility.yul\":8138:8170   */\n      0x54686973206164647265737320697320616c726561647920696e207573650000\n        /* \"#utility.yul\":8134:8135   */\n      0x00\n        /* \"#utility.yul\":8126:8132   */\n      dup3\n        /* \"#utility.yul\":8122:8136   */\n      add\n        /* \"#utility.yul\":8115:8171   */\n      mstore\n        /* \"#utility.yul\":7998:8178   */\n      pop\n      jump\t// out\n        /* \"#utility.yul\":8184:8550   */\n    tag_78:\n        /* \"#utility.yul\":8326:8329   */\n      0x00\n        /* \"#utility.yul\":8347:8414   */\n      tag_184\n        /* \"#utility.yul\":8411:8413   */\n      0x1e\n        /* \"#utility.yul\":8406:8409   */\n      dup4\n        /* \"#utility.yul\":8347:8414   */\n      tag_65\n      jump\t// in\n    tag_184:\n        /* \"#utility.yul\":8340:8414   */\n      swap2\n      pop\n        /* \"#utility.yul\":8423:8516   */\n      tag_185\n        /* \"#utility.yul\":8512:8515   */\n      dup3\n        /* \"#utility.yul\":8423:8516   */\n      tag_77\n      jump\t// in\n    tag_185:\n        /* \"#utility.yul\":8541:8543   */\n      0x20\n        /* \"#utility.yul\":8536:8539   */\n      dup3\n        /* \"#utility.yul\":8532:8544   */\n      add\n        /* \"#utility.yul\":8525:8544   */\n      swap1\n      pop\n        /* \"#utility.yul\":8184:8550   */\n      swap2\n      swap1\n      pop\n      jump\t// out\n        /* \"#utility.yul\":8556:8975   */\n    tag_45:\n        /* \"#utility.yul\":8722:8726   */\n      0x00\n        /* \"#utility.yul\":8760:8762   */\n      0x20\n        /* \"#utility.yul\":8749:8758   */\n      dup3\n        /* \"#utility.yul\":8745:8763   */\n      add\n        /* \"#utility.yul\":8737:8763   */\n      swap1\n      pop\n        /* \"#utility.yul\":8809:8818   */\n      dup2\n        /* \"#utility.yul\":8803:8807   */\n      dup2\n        /* \"#utility.yul\":8799:8819   */\n      sub\n        /* \"#utility.yul\":8795:8796   */\n      0x00\n        /* \"#utility.yul\":8784:8793   */\n      dup4\n        /* \"#utility.yul\":8780:8797   */\n      add\n        /* \"#utility.yul\":8773:8820   */\n      mstore\n        /* \"#utility.yul\":8837:8968   */\n      tag_187\n        /* \"#utility.yul\":8963:8967   */\n      dup2\n        /* \"#utility.yul\":8837:8968   */\n      tag_78\n      jump\t// in\n    tag_187:\n        /* \"#utility.yul\":8829:8968   */\n      swap1\n      pop\n        /* \"#utility.yul\":8556:8975   */\n      swap2\n      swap1\n      pop\n      jump\t// out\n        /* \"#utility.yul\":8981:9122   */\n    tag_79:\n        /* \"#utility.yul\":9030:9034   */\n      0x00\n        /* \"#utility.yul\":9053:9056   */\n      dup2\n        /* \"#utility.yul\":9045:9056   */\n      swap1\n      pop\n        /* \"#utility.yul\":9076:9079   */\n      dup2\n        /* \"#utility.yul\":9073:9074   */\n      0x00\n        /* \"#utility.yul\":9066:9080   */\n      mstore\n        /* \"#utility.yul\":9110:9114   */\n      0x20\n        /* \"#utility.yul\":9107:9108   */\n      0x00\n        /* \"#utility.yul\":9097:9115   */\n      keccak256\n        /* \"#utility.yul\":9089:9115   */\n      swap1\n      pop\n        /* \"#utility.yul\":8981:9122   */\n      swap2\n      swap1\n      pop\n      jump\t// out\n        /* \"#utility.yul\":9128:9221   */\n    tag_80:\n        /* \"#utility.yul\":9165:9171   */\n      0x00\n        /* \"#utility.yul\":9212:9214   */\n      0x20\n        /* \"#utility.yul\":9207:9209   */\n      0x1f\n        /* \"#utility.yul\":9200:9205   */\n      dup4\n        /* \"#utility.yul\":9196:9210   */\n      add\n        /* \"#utility.yul\":9192:9215   */\n      div\n        /* \"#utility.yul\":9182:9215   */\n      swap1\n      pop\n        /* \"#utility.yul\":9128:9221   */\n      swap2\n      swap1\n      pop\n      jump\t// out\n        /* \"#utility.yul\":9227:9334   */\n    tag_81:\n        /* \"#utility.yul\":9271:9279   */\n      0x00\n        /* \"#utility.yul\":9321:9326   */\n      dup3\n        /* \"#utility.yul\":9315:9319   */\n      dup3\n        /* \"#utility.yul\":9311:9327   */\n      shl\n        /* \"#utility.yul\":9290:9327   */\n      swap1\n      pop\n        /* \"#utility.yul\":9227:9334   */\n      swap3\n      swap2\n      pop\n      pop\n      jump\t// out\n        /* \"#utility.yul\":9340:9733   */\n    tag_82:\n        /* \"#utility.yul\":9409:9415   */\n      0x00\n        /* \"#utility.yul\":9459:9460   */\n      0x08\n        /* \"#utility.yul\":9447:9457   */\n      dup4\n        /* \"#utility.yul\":9443:9461   */\n      mul\n        /* \"#utility.yul\":9482:9579   */\n      tag_192\n        /* \"#utility.yul\":9512:9578   */\n      0xffffffffffffffffffffffffffffffffffffffffffffffffffffffffffffffff\n        /* \"#utility.yul\":9501:9510   */\n      dup3\n        /* \"#utility.yul\":9482:9579   */\n      tag_81\n      jump\t// in\n    tag_192:\n        /* \"#utility.yul\":9600:9639   */\n      tag_193\n        /* \"#utility.yul\":9630:9638   */\n      dup7\n        /* \"#utility.yul\":9619:9628   */\n      dup4\n        /* \"#utility.yul\":9600:9639   */\n      tag_81\n      jump\t// in\n    tag_193:\n        /* \"#utility.yul\":9588:9639   */\n      swap6\n      pop\n        /* \"#utility.yul\":9672:9676   */\n      dup1\n        /* \"#utility.yul\":9668:9677   */\n      not\n        /* \"#utility.yul\":9661:9666   */\n      dup5\n        /* \"#utility.yul\":9657:9678   */\n      and\n        /* \"#utility.yul\":9648:9678   */\n      swap4\n      pop\n        /* \"#utility.yul\":9721:9725   */\n      dup1\n        /* \"#utility.yul\":9711:9719   */\n      dup7\n        /* \"#utility.yul\":9707:9726   */\n      and\n        /* \"#utility.yul\":9700:9705   */\n      dup5\n        /* \"#utility.yul\":9697:9727   */\n      or\n        /* \"#utility.yul\":9687:9727   */\n      swap3\n      pop\n        /* \"#utility.yul\":9416:9733   */\n      pop\n      pop\n        /* \"#utility.yul\":9340:9733   */\n      swap4\n      swap3\n      pop\n      pop\n      pop\n      jump\t// out\n        /* \"#utility.yul\":9739:9816   */\n    tag_83:\n        /* \"#utility.yul\":9776:9783   */\n      0x00\n        /* \"#utility.yul\":9805:9810   */\n      dup2\n        /* \"#utility.yul\":9794:9810   */\n      swap1\n      pop\n        /* \"#utility.yul\":9739:9816   */\n      swap2\n      swap1\n      pop\n      jump\t// out\n        /* \"#utility.yul\":9822:9882   */\n    tag_84:\n        /* \"#utility.yul\":9850:9853   */\n      0x00\n        /* \"#utility.yul\":9871:9876   */\n      dup2\n        /* \"#utility.yul\":9864:9876   */\n      swap1\n      pop\n        /* \"#utility.yul\":9822:9882   */\n      swap2\n      swap1\n      pop\n      jump\t// out\n        /* \"#utility.yul\":9888:10030   */\n    tag_85:\n        /* \"#utility.yul\":9938:9947   */\n      0x00\n        /* \"#utility.yul\":9971:10024   */\n      tag_197\n        /* \"#utility.yul\":9989:10023   */\n      tag_198\n        /* \"#utility.yul\":9998:10022   */\n      tag_199\n        /* \"#utility.yul\":10016:10021   */\n      dup5\n        /* \"#utility.yul\":9998:10022   */\n      tag_83\n      jump\t// in\n    tag_199:\n        /* \"#utility.yul\":9989:10023   */\n      tag_84\n      jump\t// in\n    tag_198:\n        /* \"#utility.yul\":9971:10024   */\n      tag_83\n      jump\t// in\n    tag_197:\n        /* \"#utility.yul\":9958:10024   */\n      swap1\n      pop\n        /* \"#utility.yul\":9888:10030   */\n      swap2\n      swap1\n      pop\n      jump\t// out\n        /* \"#utility.yul\":10036:10111   */\n    tag_86:\n        /* \"#utility.yul\":10079:10082   */\n      0x00\n        /* \"#utility.yul\":10100:10105   */\n      dup2\n        /* \"#utility.yul\":10093:10105   */\n      swap1\n      pop\n        /* \"#utility.yul\":10036:10111   */\n      swap2\n      swap1\n      pop\n      jump\t// out\n        /* \"#utility.yul\":10117:10386   */\n    tag_87:\n        /* \"#utility.yul\":10227:10266   */\n      tag_202\n        /* \"#utility.yul\":10258:10265   */\n      dup4\n        /* \"#utility.yul\":10227:10266   */\n      tag_85\n      jump\t// in\n    tag_202:\n        /* \"#utility.yul\":10288:10379   */\n      tag_203\n        /* \"#utility.yul\":10337:10378   */\n      tag_204\n        /* \"#utility.yul\":10361:10377   */\n      dup3\n        /* \"#utility.yul\":10337:10378   */\n      tag_86\n      jump\t// in\n    tag_204:\n        /* \"#utility.yul\":10329:10335   */\n      dup5\n        /* \"#utility.yul\":10322:10326   */\n      dup5\n        /* \"#utility.yul\":10316:10327   */\n      sload\n        /* \"#utility.yul\":10288:10379   */\n      tag_82\n      jump\t// in\n    tag_203:\n        /* \"#utility.yul\":10282:10286   */\n      dup3\n        /* \"#utility.yul\":10275:10380   */\n      sstore\n        /* \"#utility.yul\":10193:10386   */\n      pop\n        /* \"#utility.yul\":10117:10386   */\n      pop\n      pop\n      pop\n      jump\t// out\n        /* \"#utility.yul\":10392:10465   */\n    tag_88:\n        /* \"#utility.yul\":10437:10440   */\n      0x00\n        /* \"#utility.yul\":10392:10465   */\n      swap1\n      jump\t// out\n        /* \"#utility.yul\":10471:10660   */\n    tag_89:\n        /* \"#utility.yul\":10548:10580   */\n      tag_207\n      tag_88\n      jump\t// in\n    tag_207:\n        /* \"#utility.yul\":10589:10654   */\n      tag_208\n        /* \"#utility.yul\":10647:10653   */\n      dup2\n        /* \"#utility.yul\":10639:10645   */\n      dup5\n        /* \"#utility.yul\":10633:10637   */\n      dup5\n        /* \"#utility.yul\":10589:10654   */\n      tag_87\n      jump\t// in\n    tag_208:\n        /* \"#utility.yul\":10524:10660   */\n      pop\n        /* \"#utility.yul\":10471:10660   */\n      pop\n      pop\n      jump\t// out\n        /* \"#utility.yul\":10666:10852   */\n    tag_90:\n        /* \"#utility.yul\":10726:10846   */\n    tag_210:\n        /* \"#utility.yul\":10743:10746   */\n      dup2\n        /* \"#utility.yul\":10736:10741   */\n      dup2\n        /* \"#utility.yul\":10733:10747   */\n      lt\n        /* \"#utility.yul\":10726:10846   */\n      iszero\n      tag_212\n      jumpi\n        /* \"#utility.yul\":10797:10836   */\n      tag_213\n        /* \"#utility.yul\":10834:10835   */\n      0x00\n        /* \"#utility.yul\":10827:10832   */\n      dup3\n        /* \"#utility.yul\":10797:10836   */\n      tag_89\n      jump\t// in\n    tag_213:\n        /* \"#utility.yul\":10770:10771   */\n      0x01\n        /* \"#utility.yul\":10763:10768   */\n      dup2\n        /* \"#utility.yul\":10759:10772   */\n      add\n        /* \"#utility.yul\":10750:10772   */\n      swap1\n      pop\n        /* \"#utility.yul\":10726:10846   */\n      jump(tag_210)\n    tag_212:\n        /* \"#utility.yul\":10666:10852   */\n      pop\n      pop\n      jump\t// out\n        /* \"#utility.yul\":10858:11401   */\n    tag_91:\n        /* \"#utility.yul\":10959:10961   */\n      0x1f\n        /* \"#utility.yul\":10954:10957   */\n      dup3\n        /* \"#utility.yul\":10951:10962   */\n      gt\n        /* \"#utility.yul\":10948:11394   */\n      iszero\n      tag_215\n      jumpi\n        /* \"#utility.yul\":10993:11031   */\n      tag_216\n        /* \"#utility.yul\":11025:11030   */\n      dup2\n        /* \"#utility.yul\":10993:11031   */\n      tag_79\n      jump\t// in\n    tag_216:\n        /* \"#utility.yul\":11077:11106   */\n      tag_217\n        /* \"#utility.yul\":11095:11105   */\n      dup5\n        /* \"#utility.yul\":11077:11106   */\n      tag_80\n      jump\t// in\n    tag_217:\n        /* \"#utility.yul\":11067:11075   */\n      dup2\n        /* \"#utility.yul\":11063:11107   */\n      add\n        /* \"#utility.yul\":11260:11262   */\n      0x20\n        /* \"#utility.yul\":11248:11258   */\n      dup6\n        /* \"#utility.yul\":11245:11263   */\n      lt\n        /* \"#utility.yul\":11242:11291   */\n      iszero\n      tag_218\n      jumpi\n        /* \"#utility.yul\":11281:11289   */\n      dup2\n        /* \"#utility.yul\":11266:11289   */\n      swap1\n      pop\n        /* \"#utility.yul\":11242:11291   */\n    tag_218:\n        /* \"#utility.yul\":11304:11384   */\n      tag_219\n        /* \"#utility.yul\":11360:11382   */\n      tag_220\n        /* \"#utility.yul\":11378:11381   */\n      dup6\n        /* \"#utility.yul\":11360:11382   */\n      tag_80\n      jump\t// in\n    tag_220:\n        /* \"#utility.yul\":11350:11358   */\n      dup4\n        /* \"#utility.yul\":11346:11383   */\n      add\n        /* \"#utility.yul\":11333:11344   */\n      dup3\n        /* \"#utility.yul\":11304:11384   */\n      tag_90\n      jump\t// in\n    tag_219:\n        /* \"#utility.yul\":10963:11394   */\n      pop\n      pop\n        /* \"#utility.yul\":10948:11394   */\n    tag_215:\n        /* \"#utility.yul\":10858:11401   */\n      pop\n      pop\n      pop\n      jump\t// out\n        /* \"#utility.yul\":11407:11524   */\n    tag_92:\n        /* \"#utility.yul\":11461:11469   */\n      0x00\n        /* \"#utility.yul\":11511:11516   */\n      dup3\n        /* \"#utility.yul\":11505:11509   */\n      dup3\n        /* \"#utility.yul\":11501:11517   */\n      shr\n        /* \"#utility.yul\":11480:11517   */\n      swap1\n      pop\n        /* \"#utility.yul\":11407:11524   */\n      swap3\n      swap2\n      pop\n      pop\n      jump\t// out\n        /* \"#utility.yul\":11530:11699   */\n    tag_93:\n        /* \"#utility.yul\":11574:11580   */\n      0x00\n        /* \"#utility.yul\":11607:11658   */\n      tag_223\n        /* \"#utility.yul\":11655:11656   */\n      0x00\n        /* \"#utility.yul\":11651:11657   */\n      not\n        /* \"#utility.yul\":11643:11648   */\n      dup5\n        /* \"#utility.yul\":11640:11641   */\n      0x08\n        /* \"#utility.yul\":11636:11649   */\n      mul\n        /* \"#utility.yul\":11607:11658   */\n      tag_92\n      jump\t// in\n    tag_223:\n        /* \"#utility.yul\":11603:11659   */\n      not\n        /* \"#utility.yul\":11688:11692   */\n      dup1\n        /* \"#utility.yul\":11682:11686   */\n      dup4\n        /* \"#utility.yul\":11678:11693   */\n      and\n        /* \"#utility.yul\":11668:11693   */\n      swap2\n      pop\n        /* \"#utility.yul\":11581:11699   */\n      pop\n        /* \"#utility.yul\":11530:11699   */\n      swap3\n      swap2\n      pop\n      pop\n      jump\t// out\n        /* \"#utility.yul\":11704:11999   */\n    tag_94:\n        /* \"#utility.yul\":11780:11784   */\n      0x00\n        /* \"#utility.yul\":11926:11955   */\n      tag_225\n        /* \"#utility.yul\":11951:11954   */\n      dup4\n        /* \"#utility.yul\":11945:11949   */\n      dup4\n        /* \"#utility.yul\":11926:11955   */\n      tag_93\n      jump\t// in\n    tag_225:\n        /* \"#utility.yul\":11918:11955   */\n      swap2\n      pop\n        /* \"#utility.yul\":11988:11991   */\n      dup3\n        /* \"#utility.yul\":11985:11986   */\n      0x02\n        /* \"#utility.yul\":11981:11992   */\n      mul\n        /* \"#utility.yul\":11975:11979   */\n      dup3\n        /* \"#utility.yul\":11972:11993   */\n      or\n        /* \"#utility.yul\":11964:11993   */\n      swap1\n      pop\n        /* \"#utility.yul\":11704:11999   */\n      swap3\n      swap2\n      pop\n      pop\n      jump\t// out\n        /* \"#utility.yul\":12004:13399   */\n    tag_47:\n        /* \"#utility.yul\":12121:12158   */\n      tag_227\n        /* \"#utility.yul\":12154:12157   */\n      dup3\n        /* \"#utility.yul\":12121:12158   */\n      tag_58\n      jump\t// in\n    tag_227:\n        /* \"#utility.yul\":12223:12241   */\n      0xffffffffffffffff\n        /* \"#utility.yul\":12215:12221   */\n      dup2\n        /* \"#utility.yul\":12212:12242   */\n      gt\n        /* \"#utility.yul\":12209:12265   */\n      iszero\n      tag_228\n      jumpi\n        /* \"#utility.yul\":12245:12263   */\n      tag_229\n      tag_69\n      jump\t// in\n    tag_229:\n        /* \"#utility.yul\":12209:12265   */\n    tag_228:\n        /* \"#utility.yul\":12289:12327   */\n      tag_230\n        /* \"#utility.yul\":12321:12325   */\n      dup3\n        /* \"#utility.yul\":12315:12326   */\n      sload\n        /* \"#utility.yul\":12289:12327   */\n      tag_32\n      jump\t// in\n    tag_230:\n        /* \"#utility.yul\":12374:12441   */\n      tag_231\n        /* \"#utility.yul\":12434:12440   */\n      dup3\n        /* \"#utility.yul\":12426:12432   */\n      dup3\n        /* \"#utility.yul\":12420:12424   */\n      dup6\n        /* \"#utility.yul\":12374:12441   */\n      tag_91\n      jump\t// in\n    tag_231:\n        /* \"#utility.yul\":12468:12469   */\n      0x00\n        /* \"#utility.yul\":12492:12496   */\n      0x20\n        /* \"#utility.yul\":12479:12496   */\n      swap1\n      pop\n        /* \"#utility.yul\":12524:12526   */\n      0x1f\n        /* \"#utility.yul\":12516:12522   */\n      dup4\n        /* \"#utility.yul\":12513:12527   */\n      gt\n        /* \"#utility.yul\":12541:12542   */\n      0x01\n        /* \"#utility.yul\":12536:13154   */\n      dup2\n      eq\n      tag_233\n      jumpi\n        /* \"#utility.yul\":13198:13199   */\n      0x00\n        /* \"#utility.yul\":13215:13221   */\n      dup5\n        /* \"#utility.yul\":13212:13289   */\n      iszero\n      tag_234\n      jumpi\n        /* \"#utility.yul\":13264:13273   */\n      dup3\n        /* \"#utility.yul\":13259:13262   */\n      dup8\n        /* \"#utility.yul\":13255:13274   */\n      add\n        /* \"#utility.yul\":13249:13275   */\n      mload\n        /* \"#utility.yul\":13240:13275   */\n      swap1\n      pop\n        /* \"#utility.yul\":13212:13289   */\n    tag_234:\n        /* \"#utility.yul\":13315:13382   */\n      tag_235\n        /* \"#utility.yul\":13375:13381   */\n      dup6\n        /* \"#utility.yul\":13368:13373   */\n      dup3\n        /* \"#utility.yul\":13315:13382   */\n      tag_94\n      jump\t// in\n    tag_235:\n        /* \"#utility.yul\":13309:13313   */\n      dup7\n        /* \"#utility.yul\":13302:13383   */\n      sstore\n        /* \"#utility.yul\":13171:13393   */\n      pop\n        /* \"#utility.yul\":12506:13393   */\n      jump(tag_232)\n        /* \"#utility.yul\":12536:13154   */\n    tag_233:\n        /* \"#utility.yul\":12588:12592   */\n      0x1f\n        /* \"#utility.yul\":12584:12593   */\n      not\n        /* \"#utility.yul\":12576:12582   */\n      dup5\n        /* \"#utility.yul\":12572:12594   */\n      and\n        /* \"#utility.yul\":12622:12659   */\n      tag_236\n        /* \"#utility.yul\":12654:12658   */\n      dup7\n        /* \"#utility.yul\":12622:12659   */\n      tag_79\n      jump\t// in\n    tag_236:\n        /* \"#utility.yul\":12681:12682   */\n      0x00\n        /* \"#utility.yul\":12695:12903   */\n    tag_237:\n        /* \"#utility.yul\":12709:12716   */\n      dup3\n        /* \"#utility.yul\":12706:12707   */\n      dup2\n        /* \"#utility.yul\":12703:12717   */\n      lt\n        /* \"#utility.yul\":12695:12903   */\n      iszero\n      tag_239\n      jumpi\n        /* \"#utility.yul\":12788:12797   */\n      dup5\n        /* \"#utility.yul\":12783:12786   */\n      dup10\n        /* \"#utility.yul\":12779:12798   */\n      add\n        /* \"#utility.yul\":12773:12799   */\n      mload\n        /* \"#utility.yul\":12765:12771   */\n      dup3\n        /* \"#utility.yul\":12758:12800   */\n      sstore\n        /* \"#utility.yul\":12839:12840   */\n      0x01\n        /* \"#utility.yul\":12831:12837   */\n      dup3\n        /* \"#utility.yul\":12827:12841   */\n      add\n        /* \"#utility.yul\":12817:12841   */\n      swap2\n      pop\n        /* \"#utility.yul\":12886:12888   */\n      0x20\n        /* \"#utility.yul\":12875:12884   */\n      dup6\n        /* \"#utility.yul\":12871:12889   */\n      add\n        /* \"#utility.yul\":12858:12889   */\n      swap5\n      pop\n        /* \"#utility.yul\":12732:12736   */\n      0x20\n        /* \"#utility.yul\":12729:12730   */\n      dup2\n        /* \"#utility.yul\":12725:12737   */\n      add\n        /* \"#utility.yul\":12720:12737   */\n      swap1\n      pop\n        /* \"#utility.yul\":12695:12903   */\n      jump(tag_237)\n    tag_239:\n        /* \"#utility.yul\":12931:12937   */\n      dup7\n        /* \"#utility.yul\":12922:12929   */\n      dup4\n        /* \"#utility.yul\":12919:12938   */\n      lt\n        /* \"#utility.yul\":12916:13095   */\n      iszero\n      tag_240\n      jumpi\n        /* \"#utility.yul\":12989:12998   */\n      dup5\n        /* \"#utility.yul\":12984:12987   */\n      dup10\n        /* \"#utility.yul\":12980:12999   */\n      add\n        /* \"#utility.yul\":12974:13000   */\n      mload\n        /* \"#utility.yul\":13032:13080   */\n      tag_241\n        /* \"#utility.yul\":13074:13078   */\n      0x1f\n        /* \"#utility.yul\":13066:13072   */\n      dup10\n        /* \"#utility.yul\":13062:13079   */\n      and\n        /* \"#utility.yul\":13051:13060   */\n      dup3\n        /* \"#utility.yul\":13032:13080   */\n      tag_93\n      jump\t// in\n    tag_241:\n        /* \"#utility.yul\":13024:13030   */\n      dup4\n        /* \"#utility.yul\":13017:13081   */\n      sstore\n        /* \"#utility.yul\":12939:13095   */\n      pop\n        /* \"#utility.yul\":12916:13095   */\n    tag_240:\n        /* \"#utility.yul\":13141:13142   */\n      0x01\n        /* \"#utility.yul\":13137:13138   */\n      0x02\n        /* \"#utility.yul\":13129:13135   */\n      dup9\n        /* \"#utility.yul\":13125:13139   */\n      mul\n        /* \"#utility.yul\":13121:13143   */\n      add\n        /* \"#utility.yul\":13115:13119   */\n      dup9\n        /* \"#utility.yul\":13108:13144   */\n      sstore\n        /* \"#utility.yul\":12543:13154   */\n      pop\n      pop\n      pop\n        /* \"#utility.yul\":12506:13393   */\n    tag_232:\n      pop\n        /* \"#utility.yul\":12096:13399   */\n      pop\n      pop\n      pop\n        /* \"#utility.yul\":12004:13399   */\n      pop\n      pop\n      jump\t// out\n\n    auxdata: 0xa264697066735822122005a5b6cc525338b98434e8544e75796f1588614fb98f6cc17fdb7750ba5ae44e64736f6c63430008120033\n}\n",
				"bytecode": {
					"linkReferences": {},
					"object": "608060405234801561001057600080fd5b50610cd3806100206000396000f3fe608060405234801561001057600080fd5b506004361061004c5760003560e01c80631e9d48cf146100515780636f77926b14610081578063a87430ba146100b1578063f2c298be146100e2575b600080fd5b61006b600480360381019061006691906105e1565b6100fe565b6040516100789190610629565b60405180910390f35b61009b600480360381019061009691906105e1565b610198565b6040516100a89190610720565b60405180910390f35b6100cb60048036038101906100c691906105e1565b6102d8565b6040516100d992919061079b565b60405180910390f35b6100fc60048036038101906100f79190610900565b6103a4565b005b60008073ffffffffffffffffffffffffffffffffffffffff166000808473ffffffffffffffffffffffffffffffffffffffff1673ffffffffffffffffffffffffffffffffffffffff16815260200190815260200160002060000160009054906101000a900473ffffffffffffffffffffffffffffffffffffffff1673ffffffffffffffffffffffffffffffffffffffff1614159050919050565b6101a061053f565b6000808373ffffffffffffffffffffffffffffffffffffffff1673ffffffffffffffffffffffffffffffffffffffff1681526020019081526020016000206040518060400160405290816000820160009054906101000a900473ffffffffffffffffffffffffffffffffffffffff1673ffffffffffffffffffffffffffffffffffffffff1673ffffffffffffffffffffffffffffffffffffffff16815260200160018201805461024f90610978565b80601f016020809104026020016040519081016040528092919081815260200182805461027b90610978565b80156102c85780601f1061029d576101008083540402835291602001916102c8565b820191906000526020600020905b8154815290600101906020018083116102ab57829003601f168201915b5050505050815250509050919050565b60006020528060005260406000206000915090508060000160009054906101000a900473ffffffffffffffffffffffffffffffffffffffff169080600101805461032190610978565b80601f016020809104026020016040519081016040528092919081815260200182805461034d90610978565b801561039a5780601f1061036f5761010080835404028352916020019161039a565b820191906000526020600020905b81548152906001019060200180831161037d57829003601f168201915b5050505050905082565b3373ffffffffffffffffffffffffffffffffffffffff166000803373ffffffffffffffffffffffffffffffffffffffff1673ffffffffffffffffffffffffffffffffffffffff16815260200190815260200160002060000160009054906101000a900473ffffffffffffffffffffffffffffffffffffffff1673ffffffffffffffffffffffffffffffffffffffff1603610473576040517f08c379a000000000000000000000000000000000000000000000000000000000815260040161046a906109f5565b60405180910390fd5b60405180604001604052803373ffffffffffffffffffffffffffffffffffffffff168152602001828152506000803373ffffffffffffffffffffffffffffffffffffffff1673ffffffffffffffffffffffffffffffffffffffff16815260200190815260200160002060008201518160000160006101000a81548173ffffffffffffffffffffffffffffffffffffffff021916908373ffffffffffffffffffffffffffffffffffffffff16021790555060208201518160010190816105389190610bcb565b5090505050565b6040518060400160405280600073ffffffffffffffffffffffffffffffffffffffff168152602001606081525090565b6000604051905090565b600080fd5b600080fd5b600073ffffffffffffffffffffffffffffffffffffffff82169050919050565b60006105ae82610583565b9050919050565b6105be816105a3565b81146105c957600080fd5b50565b6000813590506105db816105b5565b92915050565b6000602082840312156105f7576105f6610579565b5b6000610605848285016105cc565b91505092915050565b60008115159050919050565b6106238161060e565b82525050565b600060208201905061063e600083018461061a565b92915050565b61064d816105a3565b82525050565b600081519050919050565b600082825260208201905092915050565b60005b8381101561068d578082015181840152602081019050610672565b60008484015250505050565b6000601f19601f8301169050919050565b60006106b582610653565b6106bf818561065e565b93506106cf81856020860161066f565b6106d881610699565b840191505092915050565b60006040830160008301516106fb6000860182610644565b506020830151848203602086015261071382826106aa565b9150508091505092915050565b6000602082019050818103600083015261073a81846106e3565b905092915050565b61074b816105a3565b82525050565b600082825260208201905092915050565b600061076d82610653565b6107778185610751565b935061078781856020860161066f565b61079081610699565b840191505092915050565b60006040820190506107b06000830185610742565b81810360208301526107c28184610762565b90509392505050565b600080fd5b600080fd5b7f4e487b7100000000000000000000000000000000000000000000000000000000600052604160045260246000fd5b61080d82610699565b810181811067ffffffffffffffff8211171561082c5761082b6107d5565b5b80604052505050565b600061083f61056f565b905061084b8282610804565b919050565b600067ffffffffffffffff82111561086b5761086a6107d5565b5b61087482610699565b9050602081019050919050565b82818337600083830152505050565b60006108a361089e84610850565b610835565b9050828152602081018484840111156108bf576108be6107d0565b5b6108ca848285610881565b509392505050565b600082601f8301126108e7576108e66107cb565b5b81356108f7848260208601610890565b91505092915050565b60006020828403121561091657610915610579565b5b600082013567ffffffffffffffff8111156109345761093361057e565b5b610940848285016108d2565b91505092915050565b7f4e487b7100000000000000000000000000000000000000000000000000000000600052602260045260246000fd5b6000600282049050600182168061099057607f821691505b6020821081036109a3576109a2610949565b5b50919050565b7f54686973206164647265737320697320616c726561647920696e207573650000600082015250565b60006109df601e83610751565b91506109ea826109a9565b602082019050919050565b60006020820190508181036000830152610a0e816109d2565b9050919050565b60008190508160005260206000209050919050565b60006020601f8301049050919050565b600082821b905092915050565b600060088302610a777fffffffffffffffffffffffffffffffffffffffffffffffffffffffffffffffff82610a3a565b610a818683610a3a565b95508019841693508086168417925050509392505050565b6000819050919050565b6000819050919050565b6000610ac8610ac3610abe84610a99565b610aa3565b610a99565b9050919050565b6000819050919050565b610ae283610aad565b610af6610aee82610acf565b848454610a47565b825550505050565b600090565b610b0b610afe565b610b16818484610ad9565b505050565b5b81811015610b3a57610b2f600082610b03565b600181019050610b1c565b5050565b601f821115610b7f57610b5081610a15565b610b5984610a2a565b81016020851015610b68578190505b610b7c610b7485610a2a565b830182610b1b565b50505b505050565b600082821c905092915050565b6000610ba260001984600802610b84565b1980831691505092915050565b6000610bbb8383610b91565b9150826002028217905092915050565b610bd482610653565b67ffffffffffffffff811115610bed57610bec6107d5565b5b610bf78254610978565b610c02828285610b3e565b600060209050601f831160018114610c355760008415610c23578287015190505b610c2d8582610baf565b865550610c95565b601f198416610c4386610a15565b60005b82811015610c6b57848901518255600182019150602085019450602081019050610c46565b86831015610c885784890151610c84601f891682610b91565b8355505b6001600288020188555050505b50505050505056fea264697066735822122005a5b6cc525338b98434e8544e75796f1588614fb98f6cc17fdb7750ba5ae44e64736f6c63430008120033",
					"opcodes": "PUSH1 0x80 PUSH1 0x40 MSTORE CALLVALUE DUP1 ISZERO PUSH2 0x10 JUMPI PUSH1 0x0 DUP1 REVERT JUMPDEST POP PUSH2 0xCD3 DUP1 PUSH2 0x20 PUSH1 0x0 CODECOPY PUSH1 0x0 RETURN INVALID PUSH1 0x80 PUSH1 0x40 MSTORE CALLVALUE DUP1 ISZERO PUSH2 0x10 JUMPI PUSH1 0x0 DUP1 REVERT JUMPDEST POP PUSH1 0x4 CALLDATASIZE LT PUSH2 0x4C JUMPI PUSH1 0x0 CALLDATALOAD PUSH1 0xE0 SHR DUP1 PUSH4 0x1E9D48CF EQ PUSH2 0x51 JUMPI DUP1 PUSH4 0x6F77926B EQ PUSH2 0x81 JUMPI DUP1 PUSH4 0xA87430BA EQ PUSH2 0xB1 JUMPI DUP1 PUSH4 0xF2C298BE EQ PUSH2 0xE2 JUMPI JUMPDEST PUSH1 0x0 DUP1 REVERT JUMPDEST PUSH2 0x6B PUSH1 0x4 DUP1 CALLDATASIZE SUB DUP2 ADD SWAP1 PUSH2 0x66 SWAP2 SWAP1 PUSH2 0x5E1 JUMP JUMPDEST PUSH2 0xFE JUMP JUMPDEST PUSH1 0x40 MLOAD PUSH2 0x78 SWAP2 SWAP1 PUSH2 0x629 JUMP JUMPDEST PUSH1 0x40 MLOAD DUP1 SWAP2 SUB SWAP1 RETURN JUMPDEST PUSH2 0x9B PUSH1 0x4 DUP1 CALLDATASIZE SUB DUP2 ADD SWAP1 PUSH2 0x96 SWAP2 SWAP1 PUSH2 0x5E1 JUMP JUMPDEST PUSH2 0x198 JUMP JUMPDEST PUSH1 0x40 MLOAD PUSH2 0xA8 SWAP2 SWAP1 PUSH2 0x720 JUMP JUMPDEST PUSH1 0x40 MLOAD DUP1 SWAP2 SUB SWAP1 RETURN JUMPDEST PUSH2 0xCB PUSH1 0x4 DUP1 CALLDATASIZE SUB DUP2 ADD SWAP1 PUSH2 0xC6 SWAP2 SWAP1 PUSH2 0x5E1 JUMP JUMPDEST PUSH2 0x2D8 JUMP JUMPDEST PUSH1 0x40 MLOAD PUSH2 0xD9 SWAP3 SWAP2 SWAP1 PUSH2 0x79B JUMP JUMPDEST PUSH1 0x40 MLOAD DUP1 SWAP2 SUB SWAP1 RETURN JUMPDEST PUSH2 0xFC PUSH1 0x4 DUP1 CALLDATASIZE SUB DUP2 ADD SWAP1 PUSH2 0xF7 SWAP2 SWAP1 PUSH2 0x900 JUMP JUMPDEST PUSH2 0x3A4 JUMP JUMPDEST STOP JUMPDEST PUSH1 0x0 DUP1 PUSH20 0xFFFFFFFFFFFFFFFFFFFFFFFFFFFFFFFFFFFFFFFF AND PUSH1 0x0 DUP1 DUP5 PUSH20 0xFFFFFFFFFFFFFFFFFFFFFFFFFFFFFFFFFFFFFFFF AND PUSH20 0xFFFFFFFFFFFFFFFFFFFFFFFFFFFFFFFFFFFFFFFF AND DUP2 MSTORE PUSH1 0x20 ADD SWAP1 DUP2 MSTORE PUSH1 0x20 ADD PUSH1 0x0 KECCAK256 PUSH1 0x0 ADD PUSH1 0x0 SWAP1 SLOAD SWAP1 PUSH2 0x100 EXP SWAP1 DIV PUSH20 0xFFFFFFFFFFFFFFFFFFFFFFFFFFFFFFFFFFFFFFFF AND PUSH20 0xFFFFFFFFFFFFFFFFFFFFFFFFFFFFFFFFFFFFFFFF AND EQ ISZERO SWAP1 POP SWAP2 SWAP1 POP JUMP JUMPDEST PUSH2 0x1A0 PUSH2 0x53F JUMP JUMPDEST PUSH1 0x0 DUP1 DUP4 PUSH20 0xFFFFFFFFFFFFFFFFFFFFFFFFFFFFFFFFFFFFFFFF AND PUSH20 0xFFFFFFFFFFFFFFFFFFFFFFFFFFFFFFFFFFFFFFFF AND DUP2 MSTORE PUSH1 0x20 ADD SWAP1 DUP2 MSTORE PUSH1 0x20 ADD PUSH1 0x0 KECCAK256 PUSH1 0x40 MLOAD DUP1 PUSH1 0x40 ADD PUSH1 0x40 MSTORE SWAP1 DUP2 PUSH1 0x0 DUP3 ADD PUSH1 0x0 SWAP1 SLOAD SWAP1 PUSH2 0x100 EXP SWAP1 DIV PUSH20 0xFFFFFFFFFFFFFFFFFFFFFFFFFFFFFFFFFFFFFFFF AND PUSH20 0xFFFFFFFFFFFFFFFFFFFFFFFFFFFFFFFFFFFFFFFF AND PUSH20 0xFFFFFFFFFFFFFFFFFFFFFFFFFFFFFFFFFFFFFFFF AND DUP2 MSTORE PUSH1 0x20 ADD PUSH1 0x1 DUP3 ADD DUP1 SLOAD PUSH2 0x24F SWAP1 PUSH2 0x978 JUMP JUMPDEST DUP1 PUSH1 0x1F ADD PUSH1 0x20 DUP1 SWAP2 DIV MUL PUSH1 0x20 ADD PUSH1 0x40 MLOAD SWAP1 DUP2 ADD PUSH1 0x40 MSTORE DUP1 SWAP3 SWAP2 SWAP1 DUP2 DUP2 MSTORE PUSH1 0x20 ADD DUP3 DUP1 SLOAD PUSH2 0x27B SWAP1 PUSH2 0x978 JUMP JUMPDEST DUP1 ISZERO PUSH2 0x2C8 JUMPI DUP1 PUSH1 0x1F LT PUSH2 0x29D JUMPI PUSH2 0x100 DUP1 DUP4 SLOAD DIV MUL DUP4 MSTORE SWAP2 PUSH1 0x20 ADD SWAP2 PUSH2 0x2C8 JUMP JUMPDEST DUP3 ADD SWAP2 SWAP1 PUSH1 0x0 MSTORE PUSH1 0x20 PUSH1 0x0 KECCAK256 SWAP1 JUMPDEST DUP2 SLOAD DUP2 MSTORE SWAP1 PUSH1 0x1 ADD SWAP1 PUSH1 0x20 ADD DUP1 DUP4 GT PUSH2 0x2AB JUMPI DUP3 SWAP1 SUB PUSH1 0x1F AND DUP3 ADD SWAP2 JUMPDEST POP POP POP POP POP DUP2 MSTORE POP POP SWAP1 POP SWAP2 SWAP1 POP JUMP JUMPDEST PUSH1 0x0 PUSH1 0x20 MSTORE DUP1 PUSH1 0x0 MSTORE PUSH1 0x40 PUSH1 0x0 KECCAK256 PUSH1 0x0 SWAP2 POP SWAP1 POP DUP1 PUSH1 0x0 ADD PUSH1 0x0 SWAP1 SLOAD SWAP1 PUSH2 0x100 EXP SWAP1 DIV PUSH20 0xFFFFFFFFFFFFFFFFFFFFFFFFFFFFFFFFFFFFFFFF AND SWAP1 DUP1 PUSH1 0x1 ADD DUP1 SLOAD PUSH2 0x321 SWAP1 PUSH2 0x978 JUMP JUMPDEST DUP1 PUSH1 0x1F ADD PUSH1 0x20 DUP1 SWAP2 DIV MUL PUSH1 0x20 ADD PUSH1 0x40 MLOAD SWAP1 DUP2 ADD PUSH1 0x40 MSTORE DUP1 SWAP3 SWAP2 SWAP1 DUP2 DUP2 MSTORE PUSH1 0x20 ADD DUP3 DUP1 SLOAD PUSH2 0x34D SWAP1 PUSH2 0x978 JUMP JUMPDEST DUP1 ISZERO PUSH2 0x39A JUMPI DUP1 PUSH1 0x1F LT PUSH2 0x36F JUMPI PUSH2 0x100 DUP1 DUP4 SLOAD DIV MUL DUP4 MSTORE SWAP2 PUSH1 0x20 ADD SWAP2 PUSH2 0x39A JUMP JUMPDEST DUP3 ADD SWAP2 SWAP1 PUSH1 0x0 MSTORE PUSH1 0x20 PUSH1 0x0 KECCAK256 SWAP1 JUMPDEST DUP2 SLOAD DUP2 MSTORE SWAP1 PUSH1 0x1 ADD SWAP1 PUSH1 0x20 ADD DUP1 DUP4 GT PUSH2 0x37D JUMPI DUP3 SWAP1 SUB PUSH1 0x1F AND DUP3 ADD SWAP2 JUMPDEST POP POP POP POP POP SWAP1 POP DUP3 JUMP JUMPDEST CALLER PUSH20 0xFFFFFFFFFFFFFFFFFFFFFFFFFFFFFFFFFFFFFFFF AND PUSH1 0x0 DUP1 CALLER PUSH20 0xFFFFFFFFFFFFFFFFFFFFFFFFFFFFFFFFFFFFFFFF AND PUSH20 0xFFFFFFFFFFFFFFFFFFFFFFFFFFFFFFFFFFFFFFFF AND DUP2 MSTORE PUSH1 0x20 ADD SWAP1 DUP2 MSTORE PUSH1 0x20 ADD PUSH1 0x0 KECCAK256 PUSH1 0x0 ADD PUSH1 0x0 SWAP1 SLOAD SWAP1 PUSH2 0x100 EXP SWAP1 DIV PUSH20 0xFFFFFFFFFFFFFFFFFFFFFFFFFFFFFFFFFFFFFFFF AND PUSH20 0xFFFFFFFFFFFFFFFFFFFFFFFFFFFFFFFFFFFFFFFF AND SUB PUSH2 0x473 JUMPI PUSH1 0x40 MLOAD PUSH32 0x8C379A000000000000000000000000000000000000000000000000000000000 DUP2 MSTORE PUSH1 0x4 ADD PUSH2 0x46A SWAP1 PUSH2 0x9F5 JUMP JUMPDEST PUSH1 0x40 MLOAD DUP1 SWAP2 SUB SWAP1 REVERT JUMPDEST PUSH1 0x40 MLOAD DUP1 PUSH1 0x40 ADD PUSH1 0x40 MSTORE DUP1 CALLER PUSH20 0xFFFFFFFFFFFFFFFFFFFFFFFFFFFFFFFFFFFFFFFF AND DUP2 MSTORE PUSH1 0x20 ADD DUP3 DUP2 MSTORE POP PUSH1 0x0 DUP1 CALLER PUSH20 0xFFFFFFFFFFFFFFFFFFFFFFFFFFFFFFFFFFFFFFFF AND PUSH20 0xFFFFFFFFFFFFFFFFFFFFFFFFFFFFFFFFFFFFFFFF AND DUP2 MSTORE PUSH1 0x20 ADD SWAP1 DUP2 MSTORE PUSH1 0x20 ADD PUSH1 0x0 KECCAK256 PUSH1 0x0 DUP3 ADD MLOAD DUP2 PUSH1 0x0 ADD PUSH1 0x0 PUSH2 0x100 EXP DUP2 SLOAD DUP2 PUSH20 0xFFFFFFFFFFFFFFFFFFFFFFFFFFFFFFFFFFFFFFFF MUL NOT AND SWAP1 DUP4 PUSH20 0xFFFFFFFFFFFFFFFFFFFFFFFFFFFFFFFFFFFFFFFF AND MUL OR SWAP1 SSTORE POP PUSH1 0x20 DUP3 ADD MLOAD DUP2 PUSH1 0x1 ADD SWAP1 DUP2 PUSH2 0x538 SWAP2 SWAP1 PUSH2 0xBCB JUMP JUMPDEST POP SWAP1 POP POP POP JUMP JUMPDEST PUSH1 0x40 MLOAD DUP1 PUSH1 0x40 ADD PUSH1 0x40 MSTORE DUP1 PUSH1 0x0 PUSH20 0xFFFFFFFFFFFFFFFFFFFFFFFFFFFFFFFFFFFFFFFF AND DUP2 MSTORE PUSH1 0x20 ADD PUSH1 0x60 DUP2 MSTORE POP SWAP1 JUMP JUMPDEST PUSH1 0x0 PUSH1 0x40 MLOAD SWAP1 POP SWAP1 JUMP JUMPDEST PUSH1 0x0 DUP1 REVERT JUMPDEST PUSH1 0x0 DUP1 REVERT JUMPDEST PUSH1 0x0 PUSH20 0xFFFFFFFFFFFFFFFFFFFFFFFFFFFFFFFFFFFFFFFF DUP3 AND SWAP1 POP SWAP2 SWAP1 POP JUMP JUMPDEST PUSH1 0x0 PUSH2 0x5AE DUP3 PUSH2 0x583 JUMP JUMPDEST SWAP1 POP SWAP2 SWAP1 POP JUMP JUMPDEST PUSH2 0x5BE DUP2 PUSH2 0x5A3 JUMP JUMPDEST DUP2 EQ PUSH2 0x5C9 JUMPI PUSH1 0x0 DUP1 REVERT JUMPDEST POP JUMP JUMPDEST PUSH1 0x0 DUP2 CALLDATALOAD SWAP1 POP PUSH2 0x5DB DUP2 PUSH2 0x5B5 JUMP JUMPDEST SWAP3 SWAP2 POP POP JUMP JUMPDEST PUSH1 0x0 PUSH1 0x20 DUP3 DUP5 SUB SLT ISZERO PUSH2 0x5F7 JUMPI PUSH2 0x5F6 PUSH2 0x579 JUMP JUMPDEST JUMPDEST PUSH1 0x0 PUSH2 0x605 DUP5 DUP3 DUP6 ADD PUSH2 0x5CC JUMP JUMPDEST SWAP2 POP POP SWAP3 SWAP2 POP POP JUMP JUMPDEST PUSH1 0x0 DUP2 ISZERO ISZERO SWAP1 POP SWAP2 SWAP1 POP JUMP JUMPDEST PUSH2 0x623 DUP2 PUSH2 0x60E JUMP JUMPDEST DUP3 MSTORE POP POP JUMP JUMPDEST PUSH1 0x0 PUSH1 0x20 DUP3 ADD SWAP1 POP PUSH2 0x63E PUSH1 0x0 DUP4 ADD DUP5 PUSH2 0x61A JUMP JUMPDEST SWAP3 SWAP2 POP POP JUMP JUMPDEST PUSH2 0x64D DUP2 PUSH2 0x5A3 JUMP JUMPDEST DUP3 MSTORE POP POP JUMP JUMPDEST PUSH1 0x0 DUP2 MLOAD SWAP1 POP SWAP2 SWAP1 POP JUMP JUMPDEST PUSH1 0x0 DUP3 DUP3 MSTORE PUSH1 0x20 DUP3 ADD SWAP1 POP SWAP3 SWAP2 POP POP JUMP JUMPDEST PUSH1 0x0 JUMPDEST DUP4 DUP2 LT ISZERO PUSH2 0x68D JUMPI DUP1 DUP3 ADD MLOAD DUP2 DUP5 ADD MSTORE PUSH1 0x20 DUP2 ADD SWAP1 POP PUSH2 0x672 JUMP JUMPDEST PUSH1 0x0 DUP5 DUP5 ADD MSTORE POP POP POP POP JUMP JUMPDEST PUSH1 0x0 PUSH1 0x1F NOT PUSH1 0x1F DUP4 ADD AND SWAP1 POP SWAP2 SWAP1 POP JUMP JUMPDEST PUSH1 0x0 PUSH2 0x6B5 DUP3 PUSH2 0x653 JUMP JUMPDEST PUSH2 0x6BF DUP2 DUP6 PUSH2 0x65E JUMP JUMPDEST SWAP4 POP PUSH2 0x6CF DUP2 DUP6 PUSH1 0x20 DUP7 ADD PUSH2 0x66F JUMP JUMPDEST PUSH2 0x6D8 DUP2 PUSH2 0x699 JUMP JUMPDEST DUP5 ADD SWAP2 POP POP SWAP3 SWAP2 POP POP JUMP JUMPDEST PUSH1 0x0 PUSH1 0x40 DUP4 ADD PUSH1 0x0 DUP4 ADD MLOAD PUSH2 0x6FB PUSH1 0x0 DUP7 ADD DUP3 PUSH2 0x644 JUMP JUMPDEST POP PUSH1 0x20 DUP4 ADD MLOAD DUP5 DUP3 SUB PUSH1 0x20 DUP7 ADD MSTORE PUSH2 0x713 DUP3 DUP3 PUSH2 0x6AA JUMP JUMPDEST SWAP2 POP POP DUP1 SWAP2 POP POP SWAP3 SWAP2 POP POP JUMP JUMPDEST PUSH1 0x0 PUSH1 0x20 DUP3 ADD SWAP1 POP DUP2 DUP2 SUB PUSH1 0x0 DUP4 ADD MSTORE PUSH2 0x73A DUP2 DUP5 PUSH2 0x6E3 JUMP JUMPDEST SWAP1 POP SWAP3 SWAP2 POP POP JUMP JUMPDEST PUSH2 0x74B DUP2 PUSH2 0x5A3 JUMP JUMPDEST DUP3 MSTORE POP POP JUMP JUMPDEST PUSH1 0x0 DUP3 DUP3 MSTORE PUSH1 0x20 DUP3 ADD SWAP1 POP SWAP3 SWAP2 POP POP JUMP JUMPDEST PUSH1 0x0 PUSH2 0x76D DUP3 PUSH2 0x653 JUMP JUMPDEST PUSH2 0x777 DUP2 DUP6 PUSH2 0x751 JUMP JUMPDEST SWAP4 POP PUSH2 0x787 DUP2 DUP6 PUSH1 0x20 DUP7 ADD PUSH2 0x66F JUMP JUMPDEST PUSH2 0x790 DUP2 PUSH2 0x699 JUMP JUMPDEST DUP5 ADD SWAP2 POP POP SWAP3 SWAP2 POP POP JUMP JUMPDEST PUSH1 0x0 PUSH1 0x40 DUP3 ADD SWAP1 POP PUSH2 0x7B0 PUSH1 0x0 DUP4 ADD DUP6 PUSH2 0x742 JUMP JUMPDEST DUP2 DUP2 SUB PUSH1 0x20 DUP4 ADD MSTORE PUSH2 0x7C2 DUP2 DUP5 PUSH2 0x762 JUMP JUMPDEST SWAP1 POP SWAP4 SWAP3 POP POP POP JUMP JUMPDEST PUSH1 0x0 DUP1 REVERT JUMPDEST PUSH1 0x0 DUP1 REVERT JUMPDEST PUSH32 0x4E487B7100000000000000000000000000000000000000000000000000000000 PUSH1 0x0 MSTORE PUSH1 0x41 PUSH1 0x4 MSTORE PUSH1 0x24 PUSH1 0x0 REVERT JUMPDEST PUSH2 0x80D DUP3 PUSH2 0x699 JUMP JUMPDEST DUP2 ADD DUP2 DUP2 LT PUSH8 0xFFFFFFFFFFFFFFFF DUP3 GT OR ISZERO PUSH2 0x82C JUMPI PUSH2 0x82B PUSH2 0x7D5 JUMP JUMPDEST JUMPDEST DUP1 PUSH1 0x40 MSTORE POP POP POP JUMP JUMPDEST PUSH1 0x0 PUSH2 0x83F PUSH2 0x56F JUMP JUMPDEST SWAP1 POP PUSH2 0x84B DUP3 DUP3 PUSH2 0x804 JUMP JUMPDEST SWAP2 SWAP1 POP JUMP JUMPDEST PUSH1 0x0 PUSH8 0xFFFFFFFFFFFFFFFF DUP3 GT ISZERO PUSH2 0x86B JUMPI PUSH2 0x86A PUSH2 0x7D5 JUMP JUMPDEST JUMPDEST PUSH2 0x874 DUP3 PUSH2 0x699 JUMP JUMPDEST SWAP1 POP PUSH1 0x20 DUP2 ADD SWAP1 POP SWAP2 SWAP1 POP JUMP JUMPDEST DUP3 DUP2 DUP4 CALLDATACOPY PUSH1 0x0 DUP4 DUP4 ADD MSTORE POP POP POP JUMP JUMPDEST PUSH1 0x0 PUSH2 0x8A3 PUSH2 0x89E DUP5 PUSH2 0x850 JUMP JUMPDEST PUSH2 0x835 JUMP JUMPDEST SWAP1 POP DUP3 DUP2 MSTORE PUSH1 0x20 DUP2 ADD DUP5 DUP5 DUP5 ADD GT ISZERO PUSH2 0x8BF JUMPI PUSH2 0x8BE PUSH2 0x7D0 JUMP JUMPDEST JUMPDEST PUSH2 0x8CA DUP5 DUP3 DUP6 PUSH2 0x881 JUMP JUMPDEST POP SWAP4 SWAP3 POP POP POP JUMP JUMPDEST PUSH1 0x0 DUP3 PUSH1 0x1F DUP4 ADD SLT PUSH2 0x8E7 JUMPI PUSH2 0x8E6 PUSH2 0x7CB JUMP JUMPDEST JUMPDEST DUP2 CALLDATALOAD PUSH2 0x8F7 DUP5 DUP3 PUSH1 0x20 DUP7 ADD PUSH2 0x890 JUMP JUMPDEST SWAP2 POP POP SWAP3 SWAP2 POP POP JUMP JUMPDEST PUSH1 0x0 PUSH1 0x20 DUP3 DUP5 SUB SLT ISZERO PUSH2 0x916 JUMPI PUSH2 0x915 PUSH2 0x579 JUMP JUMPDEST JUMPDEST PUSH1 0x0 DUP3 ADD CALLDATALOAD PUSH8 0xFFFFFFFFFFFFFFFF DUP2 GT ISZERO PUSH2 0x934 JUMPI PUSH2 0x933 PUSH2 0x57E JUMP JUMPDEST JUMPDEST PUSH2 0x940 DUP5 DUP3 DUP6 ADD PUSH2 0x8D2 JUMP JUMPDEST SWAP2 POP POP SWAP3 SWAP2 POP POP JUMP JUMPDEST PUSH32 0x4E487B7100000000000000000000000000000000000000000000000000000000 PUSH1 0x0 MSTORE PUSH1 0x22 PUSH1 0x4 MSTORE PUSH1 0x24 PUSH1 0x0 REVERT JUMPDEST PUSH1 0x0 PUSH1 0x2 DUP3 DIV SWAP1 POP PUSH1 0x1 DUP3 AND DUP1 PUSH2 0x990 JUMPI PUSH1 0x7F DUP3 AND SWAP2 POP JUMPDEST PUSH1 0x20 DUP3 LT DUP2 SUB PUSH2 0x9A3 JUMPI PUSH2 0x9A2 PUSH2 0x949 JUMP JUMPDEST JUMPDEST POP SWAP2 SWAP1 POP JUMP JUMPDEST PUSH32 0x54686973206164647265737320697320616C726561647920696E207573650000 PUSH1 0x0 DUP3 ADD MSTORE POP JUMP JUMPDEST PUSH1 0x0 PUSH2 0x9DF PUSH1 0x1E DUP4 PUSH2 0x751 JUMP JUMPDEST SWAP2 POP PUSH2 0x9EA DUP3 PUSH2 0x9A9 JUMP JUMPDEST PUSH1 0x20 DUP3 ADD SWAP1 POP SWAP2 SWAP1 POP JUMP JUMPDEST PUSH1 0x0 PUSH1 0x20 DUP3 ADD SWAP1 POP DUP2 DUP2 SUB PUSH1 0x0 DUP4 ADD MSTORE PUSH2 0xA0E DUP2 PUSH2 0x9D2 JUMP JUMPDEST SWAP1 POP SWAP2 SWAP1 POP JUMP JUMPDEST PUSH1 0x0 DUP2 SWAP1 POP DUP2 PUSH1 0x0 MSTORE PUSH1 0x20 PUSH1 0x0 KECCAK256 SWAP1 POP SWAP2 SWAP1 POP JUMP JUMPDEST PUSH1 0x0 PUSH1 0x20 PUSH1 0x1F DUP4 ADD DIV SWAP1 POP SWAP2 SWAP1 POP JUMP JUMPDEST PUSH1 0x0 DUP3 DUP3 SHL SWAP1 POP SWAP3 SWAP2 POP POP JUMP JUMPDEST PUSH1 0x0 PUSH1 0x8 DUP4 MUL PUSH2 0xA77 PUSH32 0xFFFFFFFFFFFFFFFFFFFFFFFFFFFFFFFFFFFFFFFFFFFFFFFFFFFFFFFFFFFFFFFF DUP3 PUSH2 0xA3A JUMP JUMPDEST PUSH2 0xA81 DUP7 DUP4 PUSH2 0xA3A JUMP JUMPDEST SWAP6 POP DUP1 NOT DUP5 AND SWAP4 POP DUP1 DUP7 AND DUP5 OR SWAP3 POP POP POP SWAP4 SWAP3 POP POP POP JUMP JUMPDEST PUSH1 0x0 DUP2 SWAP1 POP SWAP2 SWAP1 POP JUMP JUMPDEST PUSH1 0x0 DUP2 SWAP1 POP SWAP2 SWAP1 POP JUMP JUMPDEST PUSH1 0x0 PUSH2 0xAC8 PUSH2 0xAC3 PUSH2 0xABE DUP5 PUSH2 0xA99 JUMP JUMPDEST PUSH2 0xAA3 JUMP JUMPDEST PUSH2 0xA99 JUMP JUMPDEST SWAP1 POP SWAP2 SWAP1 POP JUMP JUMPDEST PUSH1 0x0 DUP2 SWAP1 POP SWAP2 SWAP1 POP JUMP JUMPDEST PUSH2 0xAE2 DUP4 PUSH2 0xAAD JUMP JUMPDEST PUSH2 0xAF6 PUSH2 0xAEE DUP3 PUSH2 0xACF JUMP JUMPDEST DUP5 DUP5 SLOAD PUSH2 0xA47 JUMP JUMPDEST DUP3 SSTORE POP POP POP POP JUMP JUMPDEST PUSH1 0x0 SWAP1 JUMP JUMPDEST PUSH2 0xB0B PUSH2 0xAFE JUMP JUMPDEST PUSH2 0xB16 DUP2 DUP5 DUP5 PUSH2 0xAD9 JUMP JUMPDEST POP POP POP JUMP JUMPDEST JUMPDEST DUP2 DUP2 LT ISZERO PUSH2 0xB3A JUMPI PUSH2 0xB2F PUSH1 0x0 DUP3 PUSH2 0xB03 JUMP JUMPDEST PUSH1 0x1 DUP2 ADD SWAP1 POP PUSH2 0xB1C JUMP JUMPDEST POP POP JUMP JUMPDEST PUSH1 0x1F DUP3 GT ISZERO PUSH2 0xB7F JUMPI PUSH2 0xB50 DUP2 PUSH2 0xA15 JUMP JUMPDEST PUSH2 0xB59 DUP5 PUSH2 0xA2A JUMP JUMPDEST DUP2 ADD PUSH1 0x20 DUP6 LT ISZERO PUSH2 0xB68 JUMPI DUP2 SWAP1 POP JUMPDEST PUSH2 0xB7C PUSH2 0xB74 DUP6 PUSH2 0xA2A JUMP JUMPDEST DUP4 ADD DUP3 PUSH2 0xB1B JUMP JUMPDEST POP POP JUMPDEST POP POP POP JUMP JUMPDEST PUSH1 0x0 DUP3 DUP3 SHR SWAP1 POP SWAP3 SWAP2 POP POP JUMP JUMPDEST PUSH1 0x0 PUSH2 0xBA2 PUSH1 0x0 NOT DUP5 PUSH1 0x8 MUL PUSH2 0xB84 JUMP JUMPDEST NOT DUP1 DUP4 AND SWAP2 POP POP SWAP3 SWAP2 POP POP JUMP JUMPDEST PUSH1 0x0 PUSH2 0xBBB DUP4 DUP4 PUSH2 0xB91 JUMP JUMPDEST SWAP2 POP DUP3 PUSH1 0x2 MUL DUP3 OR SWAP1 POP SWAP3 SWAP2 POP POP JUMP JUMPDEST PUSH2 0xBD4 DUP3 PUSH2 0x653 JUMP JUMPDEST PUSH8 0xFFFFFFFFFFFFFFFF DUP2 GT ISZERO PUSH2 0xBED JUMPI PUSH2 0xBEC PUSH2 0x7D5 JUMP JUMPDEST JUMPDEST PUSH2 0xBF7 DUP3 SLOAD PUSH2 0x978 JUMP JUMPDEST PUSH2 0xC02 DUP3 DUP3 DUP6 PUSH2 0xB3E JUMP JUMPDEST PUSH1 0x0 PUSH1 0x20 SWAP1 POP PUSH1 0x1F DUP4 GT PUSH1 0x1 DUP2 EQ PUSH2 0xC35 JUMPI PUSH1 0x0 DUP5 ISZERO PUSH2 0xC23 JUMPI DUP3 DUP8 ADD MLOAD SWAP1 POP JUMPDEST PUSH2 0xC2D DUP6 DUP3 PUSH2 0xBAF JUMP JUMPDEST DUP7 SSTORE POP PUSH2 0xC95 JUMP JUMPDEST PUSH1 0x1F NOT DUP5 AND PUSH2 0xC43 DUP7 PUSH2 0xA15 JUMP JUMPDEST PUSH1 0x0 JUMPDEST DUP3 DUP2 LT ISZERO PUSH2 0xC6B JUMPI DUP5 DUP10 ADD MLOAD DUP3 SSTORE PUSH1 0x1 DUP3 ADD SWAP2 POP PUSH1 0x20 DUP6 ADD SWAP5 POP PUSH1 0x20 DUP2 ADD SWAP1 POP PUSH2 0xC46 JUMP JUMPDEST DUP7 DUP4 LT ISZERO PUSH2 0xC88 JUMPI DUP5 DUP10 ADD MLOAD PUSH2 0xC84 PUSH1 0x1F DUP10 AND DUP3 PUSH2 0xB91 JUMP JUMPDEST DUP4 SSTORE POP JUMPDEST PUSH1 0x1 PUSH1 0x2 DUP9 MUL ADD DUP9 SSTORE POP POP POP JUMPDEST POP POP POP POP POP POP JUMP INVALID LOG2 PUSH5 0x6970667358 0x22 SLT KECCAK256 SDIV 0xA5 0xB6 0xCC MSTORE MSTORE8 CODESIZE 0xB9 DUP5 CALLVALUE 0xE8 SLOAD 0x4E PUSH22 0x796F1588614FB98F6CC17FDB7750BA5AE44E64736F6C PUSH4 0x43000812 STOP CALLER "
				},
				"gasEstimates": {
					"creation": {
						"codeDepositCost": "656600",
						"executionCost": "689",
						"totalCost": "657289"
					},
					"external": {
						"checkUser(address)": "2888",
						"getUser(address)": "infinite",
						"register(string)": "infinite",
						"users(address)": "infinite"
					}
				},
				"methodIdentifiers": {
					"checkUser(address)": "1e9d48cf",
					"getUser(address)": "6f77926b",
					"register(string)": "f2c298be",
					"users(address)": "a87430ba"
				}
			},
			"storageLayout": {
				"storage": [
					{
						"astId": 11,
						"contract": "contracts/169/Admin.sol:Admin",
						"label": "users",
						"offset": 0,
						"slot": "0",
						"type": "t_mapping(t_address,t_struct(UserData)6_storage)"
					}
				],
				"types": {
					"t_address": {
						"encoding": "inplace",
						"label": "address",
						"numberOfBytes": "20"
					},
					"t_mapping(t_address,t_struct(UserData)6_storage)": {
						"encoding": "mapping",
						"key": "t_address",
						"label": "mapping(address => struct Admin.UserData)",
						"numberOfBytes": "32",
						"value": "t_struct(UserData)6_storage"
					},
					"t_string_storage": {
						"encoding": "bytes",
						"label": "string",
						"numberOfBytes": "32"
					},
					"t_struct(UserData)6_storage": {
						"encoding": "inplace",
						"label": "struct Admin.UserData",
						"members": [
							{
								"astId": 3,
								"contract": "contracts/169/Admin.sol:Admin",
								"label": "ethAddress",
								"offset": 0,
								"slot": "0",
								"type": "t_address"
							},
							{
								"astId": 5,
								"contract": "contracts/169/Admin.sol:Admin",
								"label": "name",
								"offset": 0,
								"slot": "1",
								"type": "t_string_storage"
							}
						],
						"numberOfBytes": "64"
					}
				}
			},
			"userdoc": {
				"kind": "user",
				"methods": {},
				"version": 1
			}
		}
	}
}