{
	"data": {
		"bytecode": {
			"linkReferences": {},
			"object": "608060405234801561001057600080fd5b5061071e806100206000396000f3fe60806040526004361061003f5760003560e01c806327e235e314610044578063c80ec52214610081578063d0e30db014610098578063dd78457d146100a2575b600080fd5b34801561005057600080fd5b5061006b60048036038101906100669190610489565b6100df565b60405161007891906104cf565b60405180910390f35b34801561008d57600080fd5b506100966100f7565b005b6100a0610330565b005b3480156100ae57600080fd5b506100c960048036038101906100c49190610489565b61040e565b6040516100d691906104cf565b60405180910390f35b60006020528060005260406000206000915090505481565b60008060003373ffffffffffffffffffffffffffffffffffffffff1673ffffffffffffffffffffffffffffffffffffffff1681526020019081526020016000205411610178576040517f08c379a000000000000000000000000000000000000000000000000000000000815260040161016f90610547565b60405180910390fd5b600160003373ffffffffffffffffffffffffffffffffffffffff1673ffffffffffffffffffffffffffffffffffffffff1681526020019081526020016000205442116101f9576040517f08c379a00000000000000000000000000000000000000000000000000000000081526004016101f0906105b3565b60405180910390fd5b60008060003373ffffffffffffffffffffffffffffffffffffffff1673ffffffffffffffffffffffffffffffffffffffff16815260200190815260200160002054905060008060003373ffffffffffffffffffffffffffffffffffffffff1673ffffffffffffffffffffffffffffffffffffffff1681526020019081526020016000208190555060003373ffffffffffffffffffffffffffffffffffffffff16826040516102a690610604565b60006040518083038185875af1925050503d80600081146102e3576040519150601f19603f3d011682016040523d82523d6000602084013e6102e8565b606091505b505090508061032c576040517f08c379a000000000000000000000000000000000000000000000000000000000815260040161032390610665565b60405180910390fd5b5050565b346000803373ffffffffffffffffffffffffffffffffffffffff1673ffffffffffffffffffffffffffffffffffffffff168152602001908152602001600020600082825461037e91906106b4565b92505081905550603c4261039291906106b4565b600160003373ffffffffffffffffffffffffffffffffffffffff1673ffffffffffffffffffffffffffffffffffffffff168152602001908152602001600020819055507fc0f11d1984ee75f6f1525a8923f9d04c30283be4701a16a79e170d3b12e233b84260405161040491906104cf565b60405180910390a1565b60016020528060005260406000206000915090505481565b600080fd5b600073ffffffffffffffffffffffffffffffffffffffff82169050919050565b60006104568261042b565b9050919050565b6104668161044b565b811461047157600080fd5b50565b6000813590506104838161045d565b92915050565b60006020828403121561049f5761049e610426565b5b60006104ad84828501610474565b91505092915050565b6000819050919050565b6104c9816104b6565b82525050565b60006020820190506104e460008301846104c0565b92915050565b600082825260208201905092915050565b7f496e7375666669656e6369656e742066756e6473000000000000000000000000600082015250565b60006105316014836104ea565b915061053c826104fb565b602082019050919050565b6000602082019050818103600083015261056081610524565b9050919050565b7f4c6f636b2074696d6520686173206e6f74206578706972656400000000000000600082015250565b600061059d6019836104ea565b91506105a882610567565b602082019050919050565b600060208201905081810360008301526105cc81610590565b9050919050565b600081905092915050565b50565b60006105ee6000836105d3565b91506105f9826105de565b600082019050919050565b600061060f826105e1565b9150819050919050565b7f4661696c656420746f2073656e64206574686572000000000000000000000000600082015250565b600061064f6014836104ea565b915061065a82610619565b602082019050919050565b6000602082019050818103600083015261067e81610642565b9050919050565b7f4e487b7100000000000000000000000000000000000000000000000000000000600052601160045260246000fd5b60006106bf826104b6565b91506106ca836104b6565b92508282019050808211156106e2576106e1610685565b5b9291505056fea26469706673582212209c8bc36ae4bcb3a078820eea09e823f69352fb9a40336659f98dab15c09c865264736f6c63430008120033",
			"opcodes": "PUSH1 0x80 PUSH1 0x40 MSTORE CALLVALUE DUP1 ISZERO PUSH2 0x10 JUMPI PUSH1 0x0 DUP1 REVERT JUMPDEST POP PUSH2 0x71E DUP1 PUSH2 0x20 PUSH1 0x0 CODECOPY PUSH1 0x0 RETURN INVALID PUSH1 0x80 PUSH1 0x40 MSTORE PUSH1 0x4 CALLDATASIZE LT PUSH2 0x3F JUMPI PUSH1 0x0 CALLDATALOAD PUSH1 0xE0 SHR DUP1 PUSH4 0x27E235E3 EQ PUSH2 0x44 JUMPI DUP1 PUSH4 0xC80EC522 EQ PUSH2 0x81 JUMPI DUP1 PUSH4 0xD0E30DB0 EQ PUSH2 0x98 JUMPI DUP1 PUSH4 0xDD78457D EQ PUSH2 0xA2 JUMPI JUMPDEST PUSH1 0x0 DUP1 REVERT JUMPDEST CALLVALUE DUP1 ISZERO PUSH2 0x50 JUMPI PUSH1 0x0 DUP1 REVERT JUMPDEST POP PUSH2 0x6B PUSH1 0x4 DUP1 CALLDATASIZE SUB DUP2 ADD SWAP1 PUSH2 0x66 SWAP2 SWAP1 PUSH2 0x489 JUMP JUMPDEST PUSH2 0xDF JUMP JUMPDEST PUSH1 0x40 MLOAD PUSH2 0x78 SWAP2 SWAP1 PUSH2 0x4CF JUMP JUMPDEST PUSH1 0x40 MLOAD DUP1 SWAP2 SUB SWAP1 RETURN JUMPDEST CALLVALUE DUP1 ISZERO PUSH2 0x8D JUMPI PUSH1 0x0 DUP1 REVERT JUMPDEST POP PUSH2 0x96 PUSH2 0xF7 JUMP JUMPDEST STOP JUMPDEST PUSH2 0xA0 PUSH2 0x330 JUMP JUMPDEST STOP JUMPDEST CALLVALUE DUP1 ISZERO PUSH2 0xAE JUMPI PUSH1 0x0 DUP1 REVERT JUMPDEST POP PUSH2 0xC9 PUSH1 0x4 DUP1 CALLDATASIZE SUB DUP2 ADD SWAP1 PUSH2 0xC4 SWAP2 SWAP1 PUSH2 0x489 JUMP JUMPDEST PUSH2 0x40E JUMP JUMPDEST PUSH1 0x40 MLOAD PUSH2 0xD6 SWAP2 SWAP1 PUSH2 0x4CF JUMP JUMPDEST PUSH1 0x40 MLOAD DUP1 SWAP2 SUB SWAP1 RETURN JUMPDEST PUSH1 0x0 PUSH1 0x20 MSTORE DUP1 PUSH1 0x0 MSTORE PUSH1 0x40 PUSH1 0x0 KECCAK256 PUSH1 0x0 SWAP2 POP SWAP1 POP SLOAD DUP2 JUMP JUMPDEST PUSH1 0x0 DUP1 PUSH1 0x0 CALLER PUSH20 0xFFFFFFFFFFFFFFFFFFFFFFFFFFFFFFFFFFFFFFFF AND PUSH20 0xFFFFFFFFFFFFFFFFFFFFFFFFFFFFFFFFFFFFFFFF AND DUP2 MSTORE PUSH1 0x20 ADD SWAP1 DUP2 MSTORE PUSH1 0x20 ADD PUSH1 0x0 KECCAK256 SLOAD GT PUSH2 0x178 JUMPI PUSH1 0x40 MLOAD PUSH32 0x8C379A000000000000000000000000000000000000000000000000000000000 DUP2 MSTORE PUSH1 0x4 ADD PUSH2 0x16F SWAP1 PUSH2 0x547 JUMP JUMPDEST PUSH1 0x40 MLOAD DUP1 SWAP2 SUB SWAP1 REVERT JUMPDEST PUSH1 0x1 PUSH1 0x0 CALLER PUSH20 0xFFFFFFFFFFFFFFFFFFFFFFFFFFFFFFFFFFFFFFFF AND PUSH20 0xFFFFFFFFFFFFFFFFFFFFFFFFFFFFFFFFFFFFFFFF AND DUP2 MSTORE PUSH1 0x20 ADD SWAP1 DUP2 MSTORE PUSH1 0x20 ADD PUSH1 0x0 KECCAK256 SLOAD TIMESTAMP GT PUSH2 0x1F9 JUMPI PUSH1 0x40 MLOAD PUSH32 0x8C379A000000000000000000000000000000000000000000000000000000000 DUP2 MSTORE PUSH1 0x4 ADD PUSH2 0x1F0 SWAP1 PUSH2 0x5B3 JUMP JUMPDEST PUSH1 0x40 MLOAD DUP1 SWAP2 SUB SWAP1 REVERT JUMPDEST PUSH1 0x0 DUP1 PUSH1 0x0 CALLER PUSH20 0xFFFFFFFFFFFFFFFFFFFFFFFFFFFFFFFFFFFFFFFF AND PUSH20 0xFFFFFFFFFFFFFFFFFFFFFFFFFFFFFFFFFFFFFFFF AND DUP2 MSTORE PUSH1 0x20 ADD SWAP1 DUP2 MSTORE PUSH1 0x20 ADD PUSH1 0x0 KECCAK256 SLOAD SWAP1 POP PUSH1 0x0 DUP1 PUSH1 0x0 CALLER PUSH20 0xFFFFFFFFFFFFFFFFFFFFFFFFFFFFFFFFFFFFFFFF AND PUSH20 0xFFFFFFFFFFFFFFFFFFFFFFFFFFFFFFFFFFFFFFFF AND DUP2 MSTORE PUSH1 0x20 ADD SWAP1 DUP2 MSTORE PUSH1 0x20 ADD PUSH1 0x0 KECCAK256 DUP2 SWAP1 SSTORE POP PUSH1 0x0 CALLER PUSH20 0xFFFFFFFFFFFFFFFFFFFFFFFFFFFFFFFFFFFFFFFF AND DUP3 PUSH1 0x40 MLOAD PUSH2 0x2A6 SWAP1 PUSH2 0x604 JUMP JUMPDEST PUSH1 0x0 PUSH1 0x40 MLOAD DUP1 DUP4 SUB DUP2 DUP6 DUP8 GAS CALL SWAP3 POP POP POP RETURNDATASIZE DUP1 PUSH1 0x0 DUP2 EQ PUSH2 0x2E3 JUMPI PUSH1 0x40 MLOAD SWAP2 POP PUSH1 0x1F NOT PUSH1 0x3F RETURNDATASIZE ADD AND DUP3 ADD PUSH1 0x40 MSTORE RETURNDATASIZE DUP3 MSTORE RETURNDATASIZE PUSH1 0x0 PUSH1 0x20 DUP5 ADD RETURNDATACOPY PUSH2 0x2E8 JUMP JUMPDEST PUSH1 0x60 SWAP2 POP JUMPDEST POP POP SWAP1 POP DUP1 PUSH2 0x32C JUMPI PUSH1 0x40 MLOAD PUSH32 0x8C379A000000000000000000000000000000000000000000000000000000000 DUP2 MSTORE PUSH1 0x4 ADD PUSH2 0x323 SWAP1 PUSH2 0x665 JUMP JUMPDEST PUSH1 0x40 MLOAD DUP1 SWAP2 SUB SWAP1 REVERT JUMPDEST POP POP JUMP JUMPDEST CALLVALUE PUSH1 0x0 DUP1 CALLER PUSH20 0xFFFFFFFFFFFFFFFFFFFFFFFFFFFFFFFFFFFFFFFF AND PUSH20 0xFFFFFFFFFFFFFFFFFFFFFFFFFFFFFFFFFFFFFFFF AND DUP2 MSTORE PUSH1 0x20 ADD SWAP1 DUP2 MSTORE PUSH1 0x20 ADD PUSH1 0x0 KECCAK256 PUSH1 0x0 DUP3 DUP3 SLOAD PUSH2 0x37E SWAP2 SWAP1 PUSH2 0x6B4 JUMP JUMPDEST SWAP3 POP POP DUP2 SWAP1 SSTORE POP PUSH1 0x3C TIMESTAMP PUSH2 0x392 SWAP2 SWAP1 PUSH2 0x6B4 JUMP JUMPDEST PUSH1 0x1 PUSH1 0x0 CALLER PUSH20 0xFFFFFFFFFFFFFFFFFFFFFFFFFFFFFFFFFFFFFFFF AND PUSH20 0xFFFFFFFFFFFFFFFFFFFFFFFFFFFFFFFFFFFFFFFF AND DUP2 MSTORE PUSH1 0x20 ADD SWAP1 DUP2 MSTORE PUSH1 0x20 ADD PUSH1 0x0 KECCAK256 DUP2 SWAP1 SSTORE POP PUSH32 0xC0F11D1984EE75F6F1525A8923F9D04C30283BE4701A16A79E170D3B12E233B8 TIMESTAMP PUSH1 0x40 MLOAD PUSH2 0x404 SWAP2 SWAP1 PUSH2 0x4CF JUMP JUMPDEST PUSH1 0x40 MLOAD DUP1 SWAP2 SUB SWAP1 LOG1 JUMP JUMPDEST PUSH1 0x1 PUSH1 0x20 MSTORE DUP1 PUSH1 0x0 MSTORE PUSH1 0x40 PUSH1 0x0 KECCAK256 PUSH1 0x0 SWAP2 POP SWAP1 POP SLOAD DUP2 JUMP JUMPDEST PUSH1 0x0 DUP1 REVERT JUMPDEST PUSH1 0x0 PUSH20 0xFFFFFFFFFFFFFFFFFFFFFFFFFFFFFFFFFFFFFFFF DUP3 AND SWAP1 POP SWAP2 SWAP1 POP JUMP JUMPDEST PUSH1 0x0 PUSH2 0x456 DUP3 PUSH2 0x42B JUMP JUMPDEST SWAP1 POP SWAP2 SWAP1 POP JUMP JUMPDEST PUSH2 0x466 DUP2 PUSH2 0x44B JUMP JUMPDEST DUP2 EQ PUSH2 0x471 JUMPI PUSH1 0x0 DUP1 REVERT JUMPDEST POP JUMP JUMPDEST PUSH1 0x0 DUP2 CALLDATALOAD SWAP1 POP PUSH2 0x483 DUP2 PUSH2 0x45D JUMP JUMPDEST SWAP3 SWAP2 POP POP JUMP JUMPDEST PUSH1 0x0 PUSH1 0x20 DUP3 DUP5 SUB SLT ISZERO PUSH2 0x49F JUMPI PUSH2 0x49E PUSH2 0x426 JUMP JUMPDEST JUMPDEST PUSH1 0x0 PUSH2 0x4AD DUP5 DUP3 DUP6 ADD PUSH2 0x474 JUMP JUMPDEST SWAP2 POP POP SWAP3 SWAP2 POP POP JUMP JUMPDEST PUSH1 0x0 DUP2 SWAP1 POP SWAP2 SWAP1 POP JUMP JUMPDEST PUSH2 0x4C9 DUP2 PUSH2 0x4B6 JUMP JUMPDEST DUP3 MSTORE POP POP JUMP JUMPDEST PUSH1 0x0 PUSH1 0x20 DUP3 ADD SWAP1 POP PUSH2 0x4E4 PUSH1 0x0 DUP4 ADD DUP5 PUSH2 0x4C0 JUMP JUMPDEST SWAP3 SWAP2 POP POP JUMP JUMPDEST PUSH1 0x0 DUP3 DUP3 MSTORE PUSH1 0x20 DUP3 ADD SWAP1 POP SWAP3 SWAP2 POP POP JUMP JUMPDEST PUSH32 0x496E7375666669656E6369656E742066756E6473000000000000000000000000 PUSH1 0x0 DUP3 ADD MSTORE POP JUMP JUMPDEST PUSH1 0x0 PUSH2 0x531 PUSH1 0x14 DUP4 PUSH2 0x4EA JUMP JUMPDEST SWAP2 POP PUSH2 0x53C DUP3 PUSH2 0x4FB JUMP JUMPDEST PUSH1 0x20 DUP3 ADD SWAP1 POP SWAP2 SWAP1 POP JUMP JUMPDEST PUSH1 0x0 PUSH1 0x20 DUP3 ADD SWAP1 POP DUP2 DUP2 SUB PUSH1 0x0 DUP4 ADD MSTORE PUSH2 0x560 DUP2 PUSH2 0x524 JUMP JUMPDEST SWAP1 POP SWAP2 SWAP1 POP JUMP JUMPDEST PUSH32 0x4C6F636B2074696D6520686173206E6F74206578706972656400000000000000 PUSH1 0x0 DUP3 ADD MSTORE POP JUMP JUMPDEST PUSH1 0x0 PUSH2 0x59D PUSH1 0x19 DUP4 PUSH2 0x4EA JUMP JUMPDEST SWAP2 POP PUSH2 0x5A8 DUP3 PUSH2 0x567 JUMP JUMPDEST PUSH1 0x20 DUP3 ADD SWAP1 POP SWAP2 SWAP1 POP JUMP JUMPDEST PUSH1 0x0 PUSH1 0x20 DUP3 ADD SWAP1 POP DUP2 DUP2 SUB PUSH1 0x0 DUP4 ADD MSTORE PUSH2 0x5CC DUP2 PUSH2 0x590 JUMP JUMPDEST SWAP1 POP SWAP2 SWAP1 POP JUMP JUMPDEST PUSH1 0x0 DUP2 SWAP1 POP SWAP3 SWAP2 POP POP JUMP JUMPDEST POP JUMP JUMPDEST PUSH1 0x0 PUSH2 0x5EE PUSH1 0x0 DUP4 PUSH2 0x5D3 JUMP JUMPDEST SWAP2 POP PUSH2 0x5F9 DUP3 PUSH2 0x5DE JUMP JUMPDEST PUSH1 0x0 DUP3 ADD SWAP1 POP SWAP2 SWAP1 POP JUMP JUMPDEST PUSH1 0x0 PUSH2 0x60F DUP3 PUSH2 0x5E1 JUMP JUMPDEST SWAP2 POP DUP2 SWAP1 POP SWAP2 SWAP1 POP JUMP JUMPDEST PUSH32 0x4661696C656420746F2073656E64206574686572000000000000000000000000 PUSH1 0x0 DUP3 ADD MSTORE POP JUMP JUMPDEST PUSH1 0x0 PUSH2 0x64F PUSH1 0x14 DUP4 PUSH2 0x4EA JUMP JUMPDEST SWAP2 POP PUSH2 0x65A DUP3 PUSH2 0x619 JUMP JUMPDEST PUSH1 0x20 DUP3 ADD SWAP1 POP SWAP2 SWAP1 POP JUMP JUMPDEST PUSH1 0x0 PUSH1 0x20 DUP3 ADD SWAP1 POP DUP2 DUP2 SUB PUSH1 0x0 DUP4 ADD MSTORE PUSH2 0x67E DUP2 PUSH2 0x642 JUMP JUMPDEST SWAP1 POP SWAP2 SWAP1 POP JUMP JUMPDEST PUSH32 0x4E487B7100000000000000000000000000000000000000000000000000000000 PUSH1 0x0 MSTORE PUSH1 0x11 PUSH1 0x4 MSTORE PUSH1 0x24 PUSH1 0x0 REVERT JUMPDEST PUSH1 0x0 PUSH2 0x6BF DUP3 PUSH2 0x4B6 JUMP JUMPDEST SWAP2 POP PUSH2 0x6CA DUP4 PUSH2 0x4B6 JUMP JUMPDEST SWAP3 POP DUP3 DUP3 ADD SWAP1 POP DUP1 DUP3 GT ISZERO PUSH2 0x6E2 JUMPI PUSH2 0x6E1 PUSH2 0x685 JUMP JUMPDEST JUMPDEST SWAP3 SWAP2 POP POP JUMP INVALID LOG2 PUSH5 0x6970667358 0x22 SLT KECCAK256 SWAP13 DUP12 0xC3 PUSH11 0xE4BCB3A078820EEA09E823 0xF6 SWAP4 MSTORE 0xFB SWAP11 BLOCKHASH CALLER PUSH7 0x59F98DAB15C09C DUP7 MSTORE PUSH5 0x736F6C6343 STOP ADDMOD SLT STOP CALLER "
		},
		"gasEstimates": {
			"creation": {
				"codeDepositCost": "364400",
				"executionCost": "399",
				"totalCost": "364799"
			},
			"external": {
				"balances(address)": "2792",
				"deposit()": "infinite",
				"locktime(address)": "2858",
				"withdrawn()": "infinite"
			}
		},
		"methodIdentifiers": {
			"balances(address)": "27e235e3",
			"deposit()": "d0e30db0",
			"locktime(address)": "dd78457d",
			"withdrawn()": "c80ec522"
		}
	},
	"abi": [
		{
			"anonymous": false,
			"inputs": [
				{
					"indexed": false,
					"internalType": "uint256",
					"name": "timestamp",
					"type": "uint256"
				}
			],
			"name": "Console",
			"type": "event"
		},
		{
			"inputs": [
				{
					"internalType": "address",
					"name": "",
					"type": "address"
				}
			],
			"name": "balances",
			"outputs": [
				{
					"internalType": "uint256",
					"name": "",
					"type": "uint256"
				}
			],
			"stateMutability": "view",
			"type": "function"
		},
		{
			"inputs": [],
			"name": "deposit",
			"outputs": [],
			"stateMutability": "payable",
			"type": "function"
		},
		{
			"inputs": [
				{
					"internalType": "address",
					"name": "",
					"type": "address"
				}
			],
			"name": "locktime",
			"outputs": [
				{
					"internalType": "uint256",
					"name": "",
					"type": "uint256"
				}
			],
			"stateMutability": "view",
			"type": "function"
		},
		{
			"inputs": [],
			"name": "withdrawn",
			"outputs": [],
			"stateMutability": "nonpayable",
			"type": "function"
		}
	]
}