{
	"contracts/130/Prediction.sol": {
		"Prediction": {
			"abi": [
				{
					"inputs": [
						{
							"internalType": "contract Token",
							"name": "_token",
							"type": "address"
						}
					],
					"stateMutability": "nonpayable",
					"type": "constructor"
				},
				{
					"inputs": [],
					"name": "admin",
					"outputs": [
						{
							"internalType": "address",
							"name": "",
							"type": "address"
						}
					],
					"stateMutability": "view",
					"type": "function"
				},
				{
					"inputs": [],
					"name": "declareWinner",
					"outputs": [],
					"stateMutability": "nonpayable",
					"type": "function"
				},
				{
					"inputs": [
						{
							"internalType": "uint256",
							"name": "_amount",
							"type": "uint256"
						}
					],
					"name": "predict",
					"outputs": [],
					"stateMutability": "nonpayable",
					"type": "function"
				},
				{
					"inputs": [
						{
							"internalType": "uint256",
							"name": "",
							"type": "uint256"
						}
					],
					"name": "predictions",
					"outputs": [
						{
							"internalType": "address",
							"name": "participate",
							"type": "address"
						},
						{
							"internalType": "uint256",
							"name": "amount",
							"type": "uint256"
						},
						{
							"internalType": "bool",
							"name": "redeemed",
							"type": "bool"
						}
					],
					"stateMutability": "view",
					"type": "function"
				},
				{
					"inputs": [
						{
							"internalType": "uint256",
							"name": "_index",
							"type": "uint256"
						}
					],
					"name": "redeemReward",
					"outputs": [],
					"stateMutability": "nonpayable",
					"type": "function"
				},
				{
					"inputs": [],
					"name": "token",
					"outputs": [
						{
							"internalType": "contract Token",
							"name": "",
							"type": "address"
						}
					],
					"stateMutability": "view",
					"type": "function"
				},
				{
					"inputs": [],
					"name": "winner",
					"outputs": [
						{
							"internalType": "address",
							"name": "",
							"type": "address"
						}
					],
					"stateMutability": "view",
					"type": "function"
				}
			],
			"devdoc": {
				"kind": "dev",
				"methods": {},
				"version": 1
			},
			"evm": {
				"assembly": "    /* \"contracts/130/Prediction.sol\":80:2289  contract Prediction {... */\n  mstore(0x40, 0x80)\n    /* \"contracts/130/Prediction.sol\":337:422  constructor(Token _token) {... */\n  callvalue\n  dup1\n  iszero\n  tag_1\n  jumpi\n  0x00\n  dup1\n  revert\ntag_1:\n  pop\n  mload(0x40)\n  sub(codesize, bytecodeSize)\n  dup1\n  bytecodeSize\n  dup4\n  codecopy\n  dup2\n  dup2\n  add\n  0x40\n  mstore\n  dup2\n  add\n  swap1\n  tag_2\n  swap2\n  swap1\n  tag_3\n  jump\t// in\ntag_2:\n    /* \"contracts/130/Prediction.sol\":381:391  msg.sender */\n  caller\n    /* \"contracts/130/Prediction.sol\":373:378  admin */\n  0x00\n  dup1\n    /* \"contracts/130/Prediction.sol\":373:391  admin = msg.sender */\n  0x0100\n  exp\n  dup2\n  sload\n  dup2\n  0xffffffffffffffffffffffffffffffffffffffff\n  mul\n  not\n  and\n  swap1\n  dup4\n  0xffffffffffffffffffffffffffffffffffffffff\n  and\n  mul\n  or\n  swap1\n  sstore\n  pop\n    /* \"contracts/130/Prediction.sol\":409:415  _token */\n  dup1\n    /* \"contracts/130/Prediction.sol\":401:406  token */\n  0x02\n  0x00\n    /* \"contracts/130/Prediction.sol\":401:415  token = _token */\n  0x0100\n  exp\n  dup2\n  sload\n  dup2\n  0xffffffffffffffffffffffffffffffffffffffff\n  mul\n  not\n  and\n  swap1\n  dup4\n  0xffffffffffffffffffffffffffffffffffffffff\n  and\n  mul\n  or\n  swap1\n  sstore\n  pop\n    /* \"contracts/130/Prediction.sol\":337:422  constructor(Token _token) {... */\n  pop\n    /* \"contracts/130/Prediction.sol\":80:2289  contract Prediction {... */\n  jump(tag_6)\n    /* \"#utility.yul\":88:205   */\ntag_8:\n    /* \"#utility.yul\":197:198   */\n  0x00\n    /* \"#utility.yul\":194:195   */\n  dup1\n    /* \"#utility.yul\":187:199   */\n  revert\n    /* \"#utility.yul\":334:460   */\ntag_10:\n    /* \"#utility.yul\":371:378   */\n  0x00\n    /* \"#utility.yul\":411:453   */\n  0xffffffffffffffffffffffffffffffffffffffff\n    /* \"#utility.yul\":404:409   */\n  dup3\n    /* \"#utility.yul\":400:454   */\n  and\n    /* \"#utility.yul\":389:454   */\n  swap1\n  pop\n    /* \"#utility.yul\":334:460   */\n  swap2\n  swap1\n  pop\n  jump\t// out\n    /* \"#utility.yul\":466:562   */\ntag_11:\n    /* \"#utility.yul\":503:510   */\n  0x00\n    /* \"#utility.yul\":532:556   */\n  tag_21\n    /* \"#utility.yul\":550:555   */\n  dup3\n    /* \"#utility.yul\":532:556   */\n  tag_10\n  jump\t// in\ntag_21:\n    /* \"#utility.yul\":521:556   */\n  swap1\n  pop\n    /* \"#utility.yul\":466:562   */\n  swap2\n  swap1\n  pop\n  jump\t// out\n    /* \"#utility.yul\":568:677   */\ntag_12:\n    /* \"#utility.yul\":618:625   */\n  0x00\n    /* \"#utility.yul\":647:671   */\n  tag_23\n    /* \"#utility.yul\":665:670   */\n  dup3\n    /* \"#utility.yul\":647:671   */\n  tag_11\n  jump\t// in\ntag_23:\n    /* \"#utility.yul\":636:671   */\n  swap1\n  pop\n    /* \"#utility.yul\":568:677   */\n  swap2\n  swap1\n  pop\n  jump\t// out\n    /* \"#utility.yul\":683:831   */\ntag_13:\n    /* \"#utility.yul\":769:806   */\n  tag_25\n    /* \"#utility.yul\":800:805   */\n  dup2\n    /* \"#utility.yul\":769:806   */\n  tag_12\n  jump\t// in\ntag_25:\n    /* \"#utility.yul\":762:767   */\n  dup2\n    /* \"#utility.yul\":759:807   */\n  eq\n    /* \"#utility.yul\":749:825   */\n  tag_26\n  jumpi\n    /* \"#utility.yul\":821:822   */\n  0x00\n    /* \"#utility.yul\":818:819   */\n  dup1\n    /* \"#utility.yul\":811:823   */\n  revert\n    /* \"#utility.yul\":749:825   */\ntag_26:\n    /* \"#utility.yul\":683:831   */\n  pop\n  jump\t// out\n    /* \"#utility.yul\":837:1006   */\ntag_14:\n    /* \"#utility.yul\":907:912   */\n  0x00\n    /* \"#utility.yul\":938:944   */\n  dup2\n    /* \"#utility.yul\":932:945   */\n  mload\n    /* \"#utility.yul\":923:945   */\n  swap1\n  pop\n    /* \"#utility.yul\":954:1000   */\n  tag_28\n    /* \"#utility.yul\":994:999   */\n  dup2\n    /* \"#utility.yul\":954:1000   */\n  tag_13\n  jump\t// in\ntag_28:\n    /* \"#utility.yul\":837:1006   */\n  swap3\n  swap2\n  pop\n  pop\n  jump\t// out\n    /* \"#utility.yul\":1012:1389   */\ntag_3:\n    /* \"#utility.yul\":1095:1101   */\n  0x00\n    /* \"#utility.yul\":1144:1146   */\n  0x20\n    /* \"#utility.yul\":1132:1141   */\n  dup3\n    /* \"#utility.yul\":1123:1130   */\n  dup5\n    /* \"#utility.yul\":1119:1142   */\n  sub\n    /* \"#utility.yul\":1115:1147   */\n  slt\n    /* \"#utility.yul\":1112:1231   */\n  iszero\n  tag_30\n  jumpi\n    /* \"#utility.yul\":1150:1229   */\n  tag_31\n  tag_8\n  jump\t// in\ntag_31:\n    /* \"#utility.yul\":1112:1231   */\ntag_30:\n    /* \"#utility.yul\":1270:1271   */\n  0x00\n    /* \"#utility.yul\":1295:1372   */\n  tag_32\n    /* \"#utility.yul\":1364:1371   */\n  dup5\n    /* \"#utility.yul\":1355:1361   */\n  dup3\n    /* \"#utility.yul\":1344:1353   */\n  dup6\n    /* \"#utility.yul\":1340:1362   */\n  add\n    /* \"#utility.yul\":1295:1372   */\n  tag_14\n  jump\t// in\ntag_32:\n    /* \"#utility.yul\":1285:1372   */\n  swap2\n  pop\n    /* \"#utility.yul\":1241:1382   */\n  pop\n    /* \"#utility.yul\":1012:1389   */\n  swap3\n  swap2\n  pop\n  pop\n  jump\t// out\n    /* \"contracts/130/Prediction.sol\":80:2289  contract Prediction {... */\ntag_6:\n  dataSize(sub_0)\n  dup1\n  dataOffset(sub_0)\n  0x00\n  codecopy\n  0x00\n  return\nstop\n\nsub_0: assembly {\n        /* \"contracts/130/Prediction.sol\":80:2289  contract Prediction {... */\n      mstore(0x40, 0x80)\n      callvalue\n      dup1\n      iszero\n      tag_1\n      jumpi\n      0x00\n      dup1\n      revert\n    tag_1:\n      pop\n      jumpi(tag_2, lt(calldatasize, 0x04))\n      shr(0xe0, calldataload(0x00))\n      dup1\n      0x52ef348a\n      gt\n      tag_10\n      jumpi\n      dup1\n      0x52ef348a\n      eq\n      tag_6\n      jumpi\n      dup1\n      0xdfbf53ae\n      eq\n      tag_7\n      jumpi\n      dup1\n      0xf851a440\n      eq\n      tag_8\n      jumpi\n      dup1\n      0xfc0c546a\n      eq\n      tag_9\n      jumpi\n      jump(tag_2)\n    tag_10:\n      dup1\n      0x4fbbb0\n      eq\n      tag_3\n      jumpi\n      dup1\n      0x14034bd2\n      eq\n      tag_4\n      jumpi\n      dup1\n      0x51a71b17\n      eq\n      tag_5\n      jumpi\n    tag_2:\n      0x00\n      dup1\n      revert\n        /* \"contracts/130/Prediction.sol\":295:330  PredictionData[] public predictions */\n    tag_3:\n      tag_11\n      0x04\n      dup1\n      calldatasize\n      sub\n      dup2\n      add\n      swap1\n      tag_12\n      swap2\n      swap1\n      tag_13\n      jump\t// in\n    tag_12:\n      tag_14\n      jump\t// in\n    tag_11:\n      mload(0x40)\n      tag_15\n      swap4\n      swap3\n      swap2\n      swap1\n      tag_16\n      jump\t// in\n    tag_15:\n      mload(0x40)\n      dup1\n      swap2\n      sub\n      swap1\n      return\n        /* \"contracts/130/Prediction.sol\":1656:1943  function declareWinner() public isAdmin {... */\n    tag_4:\n      tag_17\n      tag_18\n      jump\t// in\n    tag_17:\n      stop\n        /* \"contracts/130/Prediction.sol\":850:1650  function redeemReward(uint256 _index) public isNotAdmin {... */\n    tag_5:\n      tag_19\n      0x04\n      dup1\n      calldatasize\n      sub\n      dup2\n      add\n      swap1\n      tag_20\n      swap2\n      swap1\n      tag_13\n      jump\t// in\n    tag_20:\n      tag_21\n      jump\t// in\n    tag_19:\n      stop\n        /* \"contracts/130/Prediction.sol\":651:844  function predict(uint256 _amount) public isNotAdmin {... */\n    tag_6:\n      tag_22\n      0x04\n      dup1\n      calldatasize\n      sub\n      dup2\n      add\n      swap1\n      tag_23\n      swap2\n      swap1\n      tag_13\n      jump\t// in\n    tag_23:\n      tag_24\n      jump\t// in\n    tag_22:\n      stop\n        /* \"contracts/130/Prediction.sol\":132:153  address public winner */\n    tag_7:\n      tag_25\n      tag_26\n      jump\t// in\n    tag_25:\n      mload(0x40)\n      tag_27\n      swap2\n      swap1\n      tag_28\n      jump\t// in\n    tag_27:\n      mload(0x40)\n      dup1\n      swap2\n      sub\n      swap1\n      return\n        /* \"contracts/130/Prediction.sol\":106:126  address public admin */\n    tag_8:\n      tag_29\n      tag_30\n      jump\t// in\n    tag_29:\n      mload(0x40)\n      tag_31\n      swap2\n      swap1\n      tag_28\n      jump\t// in\n    tag_31:\n      mload(0x40)\n      dup1\n      swap2\n      sub\n      swap1\n      return\n        /* \"contracts/130/Prediction.sol\":159:177  Token public token */\n    tag_9:\n      tag_32\n      tag_33\n      jump\t// in\n    tag_32:\n      mload(0x40)\n      tag_34\n      swap2\n      swap1\n      tag_35\n      jump\t// in\n    tag_34:\n      mload(0x40)\n      dup1\n      swap2\n      sub\n      swap1\n      return\n        /* \"contracts/130/Prediction.sol\":295:330  PredictionData[] public predictions */\n    tag_14:\n      0x03\n      dup2\n      dup2\n      sload\n      dup2\n      lt\n      tag_36\n      jumpi\n      0x00\n      dup1\n      revert\n    tag_36:\n      swap1\n      0x00\n      mstore\n      keccak256(0x00, 0x20)\n      swap1\n      0x03\n      mul\n      add\n      0x00\n      swap2\n      pop\n      swap1\n      pop\n      dup1\n      0x00\n      add\n      0x00\n      swap1\n      sload\n      swap1\n      0x0100\n      exp\n      swap1\n      div\n      0xffffffffffffffffffffffffffffffffffffffff\n      and\n      swap1\n      dup1\n      0x01\n      add\n      sload\n      swap1\n      dup1\n      0x02\n      add\n      0x00\n      swap1\n      sload\n      swap1\n      0x0100\n      exp\n      swap1\n      div\n      0xff\n      and\n      swap1\n      pop\n      dup4\n      jump\t// out\n        /* \"contracts/130/Prediction.sol\":1656:1943  function declareWinner() public isAdmin {... */\n    tag_18:\n        /* \"contracts/130/Prediction.sol\":588:598  msg.sender */\n      caller\n        /* \"contracts/130/Prediction.sol\":579:598  admin == msg.sender */\n      0xffffffffffffffffffffffffffffffffffffffff\n      and\n        /* \"contracts/130/Prediction.sol\":579:584  admin */\n      0x00\n      dup1\n      sload\n      swap1\n      0x0100\n      exp\n      swap1\n      div\n      0xffffffffffffffffffffffffffffffffffffffff\n      and\n        /* \"contracts/130/Prediction.sol\":579:598  admin == msg.sender */\n      0xffffffffffffffffffffffffffffffffffffffff\n      and\n      eq\n        /* \"contracts/130/Prediction.sol\":571:627  require(admin == msg.sender, \"You don't have an access\") */\n      tag_39\n      jumpi\n      mload(0x40)\n      0x08c379a000000000000000000000000000000000000000000000000000000000\n      dup2\n      mstore\n      0x04\n      add\n      tag_40\n      swap1\n      tag_41\n      jump\t// in\n    tag_40:\n      mload(0x40)\n      dup1\n      swap2\n      sub\n      swap1\n      revert\n    tag_39:\n        /* \"contracts/130/Prediction.sol\":1737:1779  0x0000000000000000000000000000000000000000 */\n      0x00\n        /* \"contracts/130/Prediction.sol\":1727:1779  winner == 0x0000000000000000000000000000000000000000 */\n      0xffffffffffffffffffffffffffffffffffffffff\n      and\n        /* \"contracts/130/Prediction.sol\":1727:1733  winner */\n      0x01\n      0x00\n      swap1\n      sload\n      swap1\n      0x0100\n      exp\n      swap1\n      div\n      0xffffffffffffffffffffffffffffffffffffffff\n      and\n        /* \"contracts/130/Prediction.sol\":1727:1779  winner == 0x0000000000000000000000000000000000000000 */\n      0xffffffffffffffffffffffffffffffffffffffff\n      and\n      eq\n        /* \"contracts/130/Prediction.sol\":1706:1831  require(... */\n      tag_43\n      jumpi\n      mload(0x40)\n      0x08c379a000000000000000000000000000000000000000000000000000000000\n      dup2\n      mstore\n      0x04\n      add\n      tag_44\n      swap1\n      tag_45\n      jump\t// in\n    tag_44:\n      mload(0x40)\n      dup1\n      swap2\n      sub\n      swap1\n      revert\n    tag_43:\n        /* \"contracts/130/Prediction.sol\":1842:1855  uint256 index */\n      0x00\n        /* \"contracts/130/Prediction.sol\":1869:1880  predictions */\n      0x03\n        /* \"contracts/130/Prediction.sol\":1869:1887  predictions.length */\n      dup1\n      sload\n      swap1\n      pop\n        /* \"contracts/130/Prediction.sol\":1858:1866  random() */\n      tag_46\n        /* \"contracts/130/Prediction.sol\":1858:1864  random */\n      tag_47\n        /* \"contracts/130/Prediction.sol\":1858:1866  random() */\n      jump\t// in\n    tag_46:\n        /* \"contracts/130/Prediction.sol\":1858:1887  random() % predictions.length */\n      tag_48\n      swap2\n      swap1\n      tag_49\n      jump\t// in\n    tag_48:\n        /* \"contracts/130/Prediction.sol\":1842:1887  uint256 index = random() % predictions.length */\n      swap1\n      pop\n        /* \"contracts/130/Prediction.sol\":1906:1917  predictions */\n      0x03\n        /* \"contracts/130/Prediction.sol\":1918:1923  index */\n      dup2\n        /* \"contracts/130/Prediction.sol\":1906:1924  predictions[index] */\n      dup2\n      sload\n      dup2\n      lt\n      tag_50\n      jumpi\n      tag_51\n      tag_52\n      jump\t// in\n    tag_51:\n    tag_50:\n      swap1\n      0x00\n      mstore\n      keccak256(0x00, 0x20)\n      swap1\n      0x03\n      mul\n      add\n        /* \"contracts/130/Prediction.sol\":1906:1936  predictions[index].participate */\n      0x00\n      add\n      0x00\n      swap1\n      sload\n      swap1\n      0x0100\n      exp\n      swap1\n      div\n      0xffffffffffffffffffffffffffffffffffffffff\n      and\n        /* \"contracts/130/Prediction.sol\":1897:1903  winner */\n      0x01\n      0x00\n        /* \"contracts/130/Prediction.sol\":1897:1936  winner = predictions[index].participate */\n      0x0100\n      exp\n      dup2\n      sload\n      dup2\n      0xffffffffffffffffffffffffffffffffffffffff\n      mul\n      not\n      and\n      swap1\n      dup4\n      0xffffffffffffffffffffffffffffffffffffffff\n      and\n      mul\n      or\n      swap1\n      sstore\n      pop\n        /* \"contracts/130/Prediction.sol\":1696:1943  {... */\n      pop\n        /* \"contracts/130/Prediction.sol\":1656:1943  function declareWinner() public isAdmin {... */\n      jump\t// out\n        /* \"contracts/130/Prediction.sol\":850:1650  function redeemReward(uint256 _index) public isNotAdmin {... */\n    tag_21:\n        /* \"contracts/130/Prediction.sol\":477:487  msg.sender */\n      caller\n        /* \"contracts/130/Prediction.sol\":468:487  admin != msg.sender */\n      0xffffffffffffffffffffffffffffffffffffffff\n      and\n        /* \"contracts/130/Prediction.sol\":468:473  admin */\n      0x00\n      dup1\n      sload\n      swap1\n      0x0100\n      exp\n      swap1\n      div\n      0xffffffffffffffffffffffffffffffffffffffff\n      and\n        /* \"contracts/130/Prediction.sol\":468:487  admin != msg.sender */\n      0xffffffffffffffffffffffffffffffffffffffff\n      and\n      sub\n        /* \"contracts/130/Prediction.sol\":460:518  require(admin != msg.sender, \"Admin don't have an access\") */\n      tag_55\n      jumpi\n      mload(0x40)\n      0x08c379a000000000000000000000000000000000000000000000000000000000\n      dup2\n      mstore\n      0x04\n      add\n      tag_56\n      swap1\n      tag_57\n      jump\t// in\n    tag_56:\n      mload(0x40)\n      dup1\n      swap2\n      sub\n      swap1\n      revert\n    tag_55:\n        /* \"contracts/130/Prediction.sol\":947:989  0x0000000000000000000000000000000000000000 */\n      0x00\n        /* \"contracts/130/Prediction.sol\":937:989  winner != 0x0000000000000000000000000000000000000000 */\n      0xffffffffffffffffffffffffffffffffffffffff\n      and\n        /* \"contracts/130/Prediction.sol\":937:943  winner */\n      0x01\n      0x00\n      swap1\n      sload\n      swap1\n      0x0100\n      exp\n      swap1\n      div\n      0xffffffffffffffffffffffffffffffffffffffff\n      and\n        /* \"contracts/130/Prediction.sol\":937:989  winner != 0x0000000000000000000000000000000000000000 */\n      0xffffffffffffffffffffffffffffffffffffffff\n      and\n      sub\n        /* \"contracts/130/Prediction.sol\":916:1038  require(... */\n      tag_59\n      jumpi\n      mload(0x40)\n      0x08c379a000000000000000000000000000000000000000000000000000000000\n      dup2\n      mstore\n      0x04\n      add\n      tag_60\n      swap1\n      tag_61\n      jump\t// in\n    tag_60:\n      mload(0x40)\n      dup1\n      swap2\n      sub\n      swap1\n      revert\n    tag_59:\n        /* \"contracts/130/Prediction.sol\":1079:1090  predictions */\n      0x03\n        /* \"contracts/130/Prediction.sol\":1091:1097  _index */\n      dup2\n        /* \"contracts/130/Prediction.sol\":1079:1098  predictions[_index] */\n      dup2\n      sload\n      dup2\n      lt\n      tag_62\n      jumpi\n      tag_63\n      tag_52\n      jump\t// in\n    tag_63:\n    tag_62:\n      swap1\n      0x00\n      mstore\n      keccak256(0x00, 0x20)\n      swap1\n      0x03\n      mul\n      add\n        /* \"contracts/130/Prediction.sol\":1079:1110  predictions[_index].participate */\n      0x00\n      add\n      0x00\n      swap1\n      sload\n      swap1\n      0x0100\n      exp\n      swap1\n      div\n      0xffffffffffffffffffffffffffffffffffffffff\n      and\n        /* \"contracts/130/Prediction.sol\":1069:1110  winner == predictions[_index].participate */\n      0xffffffffffffffffffffffffffffffffffffffff\n      and\n        /* \"contracts/130/Prediction.sol\":1069:1075  winner */\n      0x01\n      0x00\n      swap1\n      sload\n      swap1\n      0x0100\n      exp\n      swap1\n      div\n      0xffffffffffffffffffffffffffffffffffffffff\n      and\n        /* \"contracts/130/Prediction.sol\":1069:1110  winner == predictions[_index].participate */\n      0xffffffffffffffffffffffffffffffffffffffff\n      and\n      eq\n        /* \"contracts/130/Prediction.sol\":1048:1164  require(... */\n      tag_65\n      jumpi\n      mload(0x40)\n      0x08c379a000000000000000000000000000000000000000000000000000000000\n      dup2\n      mstore\n      0x04\n      add\n      tag_66\n      swap1\n      tag_67\n      jump\t// in\n    tag_66:\n      mload(0x40)\n      dup1\n      swap2\n      sub\n      swap1\n      revert\n    tag_65:\n        /* \"contracts/130/Prediction.sol\":1192:1202  msg.sender */\n      caller\n        /* \"contracts/130/Prediction.sol\":1182:1202  winner == msg.sender */\n      0xffffffffffffffffffffffffffffffffffffffff\n      and\n        /* \"contracts/130/Prediction.sol\":1182:1188  winner */\n      0x01\n      0x00\n      swap1\n      sload\n      swap1\n      0x0100\n      exp\n      swap1\n      div\n      0xffffffffffffffffffffffffffffffffffffffff\n      and\n        /* \"contracts/130/Prediction.sol\":1182:1202  winner == msg.sender */\n      0xffffffffffffffffffffffffffffffffffffffff\n      and\n      eq\n        /* \"contracts/130/Prediction.sol\":1174:1238  require(winner == msg.sender, \"You can not cliam others reward\") */\n      tag_68\n      jumpi\n      mload(0x40)\n      0x08c379a000000000000000000000000000000000000000000000000000000000\n      dup2\n      mstore\n      0x04\n      add\n      tag_69\n      swap1\n      tag_70\n      jump\t// in\n    tag_69:\n      mload(0x40)\n      dup1\n      swap2\n      sub\n      swap1\n      revert\n    tag_68:\n        /* \"contracts/130/Prediction.sol\":1270:1281  predictions */\n      0x03\n        /* \"contracts/130/Prediction.sol\":1282:1288  _index */\n      dup2\n        /* \"contracts/130/Prediction.sol\":1270:1289  predictions[_index] */\n      dup2\n      sload\n      dup2\n      lt\n      tag_71\n      jumpi\n      tag_72\n      tag_52\n      jump\t// in\n    tag_72:\n    tag_71:\n      swap1\n      0x00\n      mstore\n      keccak256(0x00, 0x20)\n      swap1\n      0x03\n      mul\n      add\n        /* \"contracts/130/Prediction.sol\":1270:1298  predictions[_index].redeemed */\n      0x02\n      add\n      0x00\n      swap1\n      sload\n      swap1\n      0x0100\n      exp\n      swap1\n      div\n      0xff\n      and\n        /* \"contracts/130/Prediction.sol\":1269:1298  !predictions[_index].redeemed */\n      iszero\n        /* \"contracts/130/Prediction.sol\":1248:1359  require(... */\n      tag_74\n      jumpi\n      mload(0x40)\n      0x08c379a000000000000000000000000000000000000000000000000000000000\n      dup2\n      mstore\n      0x04\n      add\n      tag_75\n      swap1\n      tag_76\n      jump\t// in\n    tag_75:\n      mload(0x40)\n      dup1\n      swap2\n      sub\n      swap1\n      revert\n    tag_74:\n        /* \"contracts/130/Prediction.sol\":1370:1384  uint256 reward */\n      0x00\n        /* \"contracts/130/Prediction.sol\":1416:1417  2 */\n      0x02\n        /* \"contracts/130/Prediction.sol\":1387:1398  predictions */\n      0x03\n        /* \"contracts/130/Prediction.sol\":1399:1405  _index */\n      dup4\n        /* \"contracts/130/Prediction.sol\":1387:1406  predictions[_index] */\n      dup2\n      sload\n      dup2\n      lt\n      tag_77\n      jumpi\n      tag_78\n      tag_52\n      jump\t// in\n    tag_78:\n    tag_77:\n      swap1\n      0x00\n      mstore\n      keccak256(0x00, 0x20)\n      swap1\n      0x03\n      mul\n      add\n        /* \"contracts/130/Prediction.sol\":1387:1413  predictions[_index].amount */\n      0x01\n      add\n      sload\n        /* \"contracts/130/Prediction.sol\":1387:1417  predictions[_index].amount * 2 */\n      tag_80\n      swap2\n      swap1\n      tag_81\n      jump\t// in\n    tag_80:\n        /* \"contracts/130/Prediction.sol\":1370:1417  uint256 reward = predictions[_index].amount * 2 */\n      swap1\n      pop\n        /* \"contracts/130/Prediction.sol\":1469:1475  reward */\n      dup1\n        /* \"contracts/130/Prediction.sol\":1435:1440  token */\n      0x02\n      0x00\n      swap1\n      sload\n      swap1\n      0x0100\n      exp\n      swap1\n      div\n      0xffffffffffffffffffffffffffffffffffffffff\n      and\n        /* \"contracts/130/Prediction.sol\":1435:1450  token.balanceOf */\n      0xffffffffffffffffffffffffffffffffffffffff\n      and\n      0x70a08231\n        /* \"contracts/130/Prediction.sol\":1459:1463  this */\n      address\n        /* \"contracts/130/Prediction.sol\":1435:1465  token.balanceOf(address(this)) */\n      mload(0x40)\n      dup3\n      0xffffffff\n      and\n      0xe0\n      shl\n      dup2\n      mstore\n      0x04\n      add\n      tag_82\n      swap2\n      swap1\n      tag_28\n      jump\t// in\n    tag_82:\n      0x20\n      mload(0x40)\n      dup1\n      dup4\n      sub\n      dup2\n      dup7\n      gas\n      staticcall\n      iszero\n      dup1\n      iszero\n      tag_84\n      jumpi\n      returndatasize\n      0x00\n      dup1\n      returndatacopy\n      revert(0x00, returndatasize)\n    tag_84:\n      pop\n      pop\n      pop\n      pop\n      mload(0x40)\n      returndatasize\n      not(0x1f)\n      0x1f\n      dup3\n      add\n      and\n      dup3\n      add\n      dup1\n      0x40\n      mstore\n      pop\n      dup2\n      add\n      swap1\n      tag_85\n      swap2\n      swap1\n      tag_86\n      jump\t// in\n    tag_85:\n        /* \"contracts/130/Prediction.sol\":1435:1475  token.balanceOf(address(this)) >= reward */\n      lt\n      iszero\n        /* \"contracts/130/Prediction.sol\":1427:1513  require(token.balanceOf(address(this)) >= reward, \"Contract don't have enoght tokens\") */\n      tag_87\n      jumpi\n      mload(0x40)\n      0x08c379a000000000000000000000000000000000000000000000000000000000\n      dup2\n      mstore\n      0x04\n      add\n      tag_88\n      swap1\n      tag_89\n      jump\t// in\n    tag_88:\n      mload(0x40)\n      dup1\n      swap2\n      sub\n      swap1\n      revert\n    tag_87:\n        /* \"contracts/130/Prediction.sol\":1524:1529  token */\n      0x02\n      0x00\n      swap1\n      sload\n      swap1\n      0x0100\n      exp\n      swap1\n      div\n      0xffffffffffffffffffffffffffffffffffffffff\n      and\n        /* \"contracts/130/Prediction.sol\":1524:1538  token.transfer */\n      0xffffffffffffffffffffffffffffffffffffffff\n      and\n      0xa9059cbb\n        /* \"contracts/130/Prediction.sol\":1539:1549  msg.sender */\n      caller\n        /* \"contracts/130/Prediction.sol\":1551:1557  reward */\n      dup4\n        /* \"contracts/130/Prediction.sol\":1524:1558  token.transfer(msg.sender, reward) */\n      mload(0x40)\n      dup4\n      0xffffffff\n      and\n      0xe0\n      shl\n      dup2\n      mstore\n      0x04\n      add\n      tag_90\n      swap3\n      swap2\n      swap1\n      tag_91\n      jump\t// in\n    tag_90:\n      0x20\n      mload(0x40)\n      dup1\n      dup4\n      sub\n      dup2\n      0x00\n      dup8\n      gas\n      call\n      iszero\n      dup1\n      iszero\n      tag_93\n      jumpi\n      returndatasize\n      0x00\n      dup1\n      returndatacopy\n      revert(0x00, returndatasize)\n    tag_93:\n      pop\n      pop\n      pop\n      pop\n      mload(0x40)\n      returndatasize\n      not(0x1f)\n      0x1f\n      dup3\n      add\n      and\n      dup3\n      add\n      dup1\n      0x40\n      mstore\n      pop\n      dup2\n      add\n      swap1\n      tag_94\n      swap2\n      swap1\n      tag_95\n      jump\t// in\n    tag_94:\n      pop\n        /* \"contracts/130/Prediction.sol\":1597:1598  0 */\n      0x00\n        /* \"contracts/130/Prediction.sol\":1568:1579  predictions */\n      0x03\n        /* \"contracts/130/Prediction.sol\":1580:1586  _index */\n      dup4\n        /* \"contracts/130/Prediction.sol\":1568:1587  predictions[_index] */\n      dup2\n      sload\n      dup2\n      lt\n      tag_96\n      jumpi\n      tag_97\n      tag_52\n      jump\t// in\n    tag_97:\n    tag_96:\n      swap1\n      0x00\n      mstore\n      keccak256(0x00, 0x20)\n      swap1\n      0x03\n      mul\n      add\n        /* \"contracts/130/Prediction.sol\":1568:1594  predictions[_index].amount */\n      0x01\n      add\n        /* \"contracts/130/Prediction.sol\":1568:1598  predictions[_index].amount = 0 */\n      dup2\n      swap1\n      sstore\n      pop\n        /* \"contracts/130/Prediction.sol\":1639:1643  true */\n      0x01\n        /* \"contracts/130/Prediction.sol\":1608:1619  predictions */\n      0x03\n        /* \"contracts/130/Prediction.sol\":1620:1626  _index */\n      dup4\n        /* \"contracts/130/Prediction.sol\":1608:1627  predictions[_index] */\n      dup2\n      sload\n      dup2\n      lt\n      tag_99\n      jumpi\n      tag_100\n      tag_52\n      jump\t// in\n    tag_100:\n    tag_99:\n      swap1\n      0x00\n      mstore\n      keccak256(0x00, 0x20)\n      swap1\n      0x03\n      mul\n      add\n        /* \"contracts/130/Prediction.sol\":1608:1636  predictions[_index].redeemed */\n      0x02\n      add\n      0x00\n        /* \"contracts/130/Prediction.sol\":1608:1643  predictions[_index].redeemed = true */\n      0x0100\n      exp\n      dup2\n      sload\n      dup2\n      0xff\n      mul\n      not\n      and\n      swap1\n      dup4\n      iszero\n      iszero\n      mul\n      or\n      swap1\n      sstore\n      pop\n        /* \"contracts/130/Prediction.sol\":906:1650  {... */\n      pop\n        /* \"contracts/130/Prediction.sol\":850:1650  function redeemReward(uint256 _index) public isNotAdmin {... */\n      pop\n      jump\t// out\n        /* \"contracts/130/Prediction.sol\":651:844  function predict(uint256 _amount) public isNotAdmin {... */\n    tag_24:\n        /* \"contracts/130/Prediction.sol\":477:487  msg.sender */\n      caller\n        /* \"contracts/130/Prediction.sol\":468:487  admin != msg.sender */\n      0xffffffffffffffffffffffffffffffffffffffff\n      and\n        /* \"contracts/130/Prediction.sol\":468:473  admin */\n      0x00\n      dup1\n      sload\n      swap1\n      0x0100\n      exp\n      swap1\n      div\n      0xffffffffffffffffffffffffffffffffffffffff\n      and\n        /* \"contracts/130/Prediction.sol\":468:487  admin != msg.sender */\n      0xffffffffffffffffffffffffffffffffffffffff\n      and\n      sub\n        /* \"contracts/130/Prediction.sol\":460:518  require(admin != msg.sender, \"Admin don't have an access\") */\n      tag_103\n      jumpi\n      mload(0x40)\n      0x08c379a000000000000000000000000000000000000000000000000000000000\n      dup2\n      mstore\n      0x04\n      add\n      tag_104\n      swap1\n      tag_57\n      jump\t// in\n    tag_104:\n      mload(0x40)\n      dup1\n      swap2\n      sub\n      swap1\n      revert\n    tag_103:\n        /* \"contracts/130/Prediction.sol\":713:718  token */\n      0x02\n      0x00\n      swap1\n      sload\n      swap1\n      0x0100\n      exp\n      swap1\n      div\n      0xffffffffffffffffffffffffffffffffffffffff\n      and\n        /* \"contracts/130/Prediction.sol\":713:731  token.transferFrom */\n      0xffffffffffffffffffffffffffffffffffffffff\n      and\n      0x23b872dd\n        /* \"contracts/130/Prediction.sol\":732:742  msg.sender */\n      caller\n        /* \"contracts/130/Prediction.sol\":752:756  this */\n      address\n        /* \"contracts/130/Prediction.sol\":759:766  _amount */\n      dup5\n        /* \"contracts/130/Prediction.sol\":713:767  token.transferFrom(msg.sender, address(this), _amount) */\n      mload(0x40)\n      dup5\n      0xffffffff\n      and\n      0xe0\n      shl\n      dup2\n      mstore\n      0x04\n      add\n      tag_106\n      swap4\n      swap3\n      swap2\n      swap1\n      tag_107\n      jump\t// in\n    tag_106:\n      0x20\n      mload(0x40)\n      dup1\n      dup4\n      sub\n      dup2\n      0x00\n      dup8\n      gas\n      call\n      iszero\n      dup1\n      iszero\n      tag_109\n      jumpi\n      returndatasize\n      0x00\n      dup1\n      returndatacopy\n      revert(0x00, returndatasize)\n    tag_109:\n      pop\n      pop\n      pop\n      pop\n      mload(0x40)\n      returndatasize\n      not(0x1f)\n      0x1f\n      dup3\n      add\n      and\n      dup3\n      add\n      dup1\n      0x40\n      mstore\n      pop\n      dup2\n      add\n      swap1\n      tag_110\n      swap2\n      swap1\n      tag_95\n      jump\t// in\n    tag_110:\n      pop\n        /* \"contracts/130/Prediction.sol\":777:788  predictions */\n      0x03\n        /* \"contracts/130/Prediction.sol\":794:836  PredictionData(msg.sender, _amount, false) */\n      mload(0x40)\n      dup1\n      0x60\n      add\n      0x40\n      mstore\n      dup1\n        /* \"contracts/130/Prediction.sol\":809:819  msg.sender */\n      caller\n        /* \"contracts/130/Prediction.sol\":794:836  PredictionData(msg.sender, _amount, false) */\n      0xffffffffffffffffffffffffffffffffffffffff\n      and\n      dup2\n      mstore\n      0x20\n      add\n        /* \"contracts/130/Prediction.sol\":821:828  _amount */\n      dup4\n        /* \"contracts/130/Prediction.sol\":794:836  PredictionData(msg.sender, _amount, false) */\n      dup2\n      mstore\n      0x20\n      add\n        /* \"contracts/130/Prediction.sol\":830:835  false */\n      0x00\n        /* \"contracts/130/Prediction.sol\":794:836  PredictionData(msg.sender, _amount, false) */\n      iszero\n      iszero\n      dup2\n      mstore\n      pop\n        /* \"contracts/130/Prediction.sol\":777:837  predictions.push(PredictionData(msg.sender, _amount, false)) */\n      swap1\n      dup1\n      0x01\n      dup2\n      sload\n      add\n      dup1\n      dup3\n      sstore\n      dup1\n      swap2\n      pop\n      pop\n      0x01\n      swap1\n      sub\n      swap1\n      0x00\n      mstore\n      keccak256(0x00, 0x20)\n      swap1\n      0x03\n      mul\n      add\n      0x00\n      swap1\n      swap2\n      swap1\n      swap2\n      swap1\n      swap2\n      pop\n      0x00\n      dup3\n      add\n      mload\n      dup2\n      0x00\n      add\n      exp(0x0100, 0x00)\n      dup2\n      sload\n      dup2\n      0xffffffffffffffffffffffffffffffffffffffff\n      mul\n      not\n      and\n      swap1\n      dup4\n      0xffffffffffffffffffffffffffffffffffffffff\n      and\n      mul\n      or\n      swap1\n      sstore\n      pop\n      0x20\n      dup3\n      add\n      mload\n      dup2\n      0x01\n      add\n      sstore\n      0x40\n      dup3\n      add\n      mload\n      dup2\n      0x02\n      add\n      exp(0x0100, 0x00)\n      dup2\n      sload\n      dup2\n      0xff\n      mul\n      not\n      and\n      swap1\n      dup4\n      iszero\n      iszero\n      mul\n      or\n      swap1\n      sstore\n      pop\n      pop\n      pop\n        /* \"contracts/130/Prediction.sol\":651:844  function predict(uint256 _amount) public isNotAdmin {... */\n      pop\n      jump\t// out\n        /* \"contracts/130/Prediction.sol\":132:153  address public winner */\n    tag_26:\n      0x01\n      0x00\n      swap1\n      sload\n      swap1\n      0x0100\n      exp\n      swap1\n      div\n      0xffffffffffffffffffffffffffffffffffffffff\n      and\n      dup2\n      jump\t// out\n        /* \"contracts/130/Prediction.sol\":106:126  address public admin */\n    tag_30:\n      0x00\n      dup1\n      sload\n      swap1\n      0x0100\n      exp\n      swap1\n      div\n      0xffffffffffffffffffffffffffffffffffffffff\n      and\n      dup2\n      jump\t// out\n        /* \"contracts/130/Prediction.sol\":159:177  Token public token */\n    tag_33:\n      0x02\n      0x00\n      swap1\n      sload\n      swap1\n      0x0100\n      exp\n      swap1\n      div\n      0xffffffffffffffffffffffffffffffffffffffff\n      and\n      dup2\n      jump\t// out\n        /* \"contracts/130/Prediction.sol\":1949:2287  function random() private view returns (uint256) {... */\n    tag_47:\n        /* \"contracts/130/Prediction.sol\":1989:1996  uint256 */\n      0x00\n        /* \"contracts/130/Prediction.sol\":2125:2141  block.difficulty */\n      prevrandao\n        /* \"contracts/130/Prediction.sol\":2167:2182  block.timestamp */\n      timestamp\n        /* \"contracts/130/Prediction.sol\":2208:2219  predictions */\n      0x03\n        /* \"contracts/130/Prediction.sol\":2208:2226  predictions.length */\n      dup1\n      sload\n      swap1\n      pop\n        /* \"contracts/130/Prediction.sol\":2083:2248  abi.encodePacked(... */\n      add(0x20, mload(0x40))\n      tag_113\n      swap4\n      swap3\n      swap2\n      swap1\n      tag_114\n      jump\t// in\n    tag_113:\n      mload(0x40)\n      0x20\n      dup2\n      dup4\n      sub\n      sub\n      dup2\n      mstore\n      swap1\n      0x40\n      mstore\n        /* \"contracts/130/Prediction.sol\":2052:2266  keccak256(... */\n      dup1\n      mload\n      swap1\n      0x20\n      add\n      keccak256\n        /* \"contracts/130/Prediction.sol\":2027:2280  uint256(... */\n      0x00\n      shr\n        /* \"contracts/130/Prediction.sol\":2008:2280  return... */\n      swap1\n      pop\n        /* \"contracts/130/Prediction.sol\":1949:2287  function random() private view returns (uint256) {... */\n      swap1\n      jump\t// out\n        /* \"#utility.yul\":88:205   */\n    tag_116:\n        /* \"#utility.yul\":197:198   */\n      0x00\n        /* \"#utility.yul\":194:195   */\n      dup1\n        /* \"#utility.yul\":187:199   */\n      revert\n        /* \"#utility.yul\":334:411   */\n    tag_118:\n        /* \"#utility.yul\":371:378   */\n      0x00\n        /* \"#utility.yul\":400:405   */\n      dup2\n        /* \"#utility.yul\":389:405   */\n      swap1\n      pop\n        /* \"#utility.yul\":334:411   */\n      swap2\n      swap1\n      pop\n      jump\t// out\n        /* \"#utility.yul\":417:539   */\n    tag_119:\n        /* \"#utility.yul\":490:514   */\n      tag_162\n        /* \"#utility.yul\":508:513   */\n      dup2\n        /* \"#utility.yul\":490:514   */\n      tag_118\n      jump\t// in\n    tag_162:\n        /* \"#utility.yul\":483:488   */\n      dup2\n        /* \"#utility.yul\":480:515   */\n      eq\n        /* \"#utility.yul\":470:533   */\n      tag_163\n      jumpi\n        /* \"#utility.yul\":529:530   */\n      0x00\n        /* \"#utility.yul\":526:527   */\n      dup1\n        /* \"#utility.yul\":519:531   */\n      revert\n        /* \"#utility.yul\":470:533   */\n    tag_163:\n        /* \"#utility.yul\":417:539   */\n      pop\n      jump\t// out\n        /* \"#utility.yul\":545:684   */\n    tag_120:\n        /* \"#utility.yul\":591:596   */\n      0x00\n        /* \"#utility.yul\":629:635   */\n      dup2\n        /* \"#utility.yul\":616:636   */\n      calldataload\n        /* \"#utility.yul\":607:636   */\n      swap1\n      pop\n        /* \"#utility.yul\":645:678   */\n      tag_165\n        /* \"#utility.yul\":672:677   */\n      dup2\n        /* \"#utility.yul\":645:678   */\n      tag_119\n      jump\t// in\n    tag_165:\n        /* \"#utility.yul\":545:684   */\n      swap3\n      swap2\n      pop\n      pop\n      jump\t// out\n        /* \"#utility.yul\":690:1019   */\n    tag_13:\n        /* \"#utility.yul\":749:755   */\n      0x00\n        /* \"#utility.yul\":798:800   */\n      0x20\n        /* \"#utility.yul\":786:795   */\n      dup3\n        /* \"#utility.yul\":777:784   */\n      dup5\n        /* \"#utility.yul\":773:796   */\n      sub\n        /* \"#utility.yul\":769:801   */\n      slt\n        /* \"#utility.yul\":766:885   */\n      iszero\n      tag_167\n      jumpi\n        /* \"#utility.yul\":804:883   */\n      tag_168\n      tag_116\n      jump\t// in\n    tag_168:\n        /* \"#utility.yul\":766:885   */\n    tag_167:\n        /* \"#utility.yul\":924:925   */\n      0x00\n        /* \"#utility.yul\":949:1002   */\n      tag_169\n        /* \"#utility.yul\":994:1001   */\n      dup5\n        /* \"#utility.yul\":985:991   */\n      dup3\n        /* \"#utility.yul\":974:983   */\n      dup6\n        /* \"#utility.yul\":970:992   */\n      add\n        /* \"#utility.yul\":949:1002   */\n      tag_120\n      jump\t// in\n    tag_169:\n        /* \"#utility.yul\":939:1002   */\n      swap2\n      pop\n        /* \"#utility.yul\":895:1012   */\n      pop\n        /* \"#utility.yul\":690:1019   */\n      swap3\n      swap2\n      pop\n      pop\n      jump\t// out\n        /* \"#utility.yul\":1025:1151   */\n    tag_121:\n        /* \"#utility.yul\":1062:1069   */\n      0x00\n        /* \"#utility.yul\":1102:1144   */\n      0xffffffffffffffffffffffffffffffffffffffff\n        /* \"#utility.yul\":1095:1100   */\n      dup3\n        /* \"#utility.yul\":1091:1145   */\n      and\n        /* \"#utility.yul\":1080:1145   */\n      swap1\n      pop\n        /* \"#utility.yul\":1025:1151   */\n      swap2\n      swap1\n      pop\n      jump\t// out\n        /* \"#utility.yul\":1157:1253   */\n    tag_122:\n        /* \"#utility.yul\":1194:1201   */\n      0x00\n        /* \"#utility.yul\":1223:1247   */\n      tag_172\n        /* \"#utility.yul\":1241:1246   */\n      dup3\n        /* \"#utility.yul\":1223:1247   */\n      tag_121\n      jump\t// in\n    tag_172:\n        /* \"#utility.yul\":1212:1247   */\n      swap1\n      pop\n        /* \"#utility.yul\":1157:1253   */\n      swap2\n      swap1\n      pop\n      jump\t// out\n        /* \"#utility.yul\":1259:1377   */\n    tag_123:\n        /* \"#utility.yul\":1346:1370   */\n      tag_174\n        /* \"#utility.yul\":1364:1369   */\n      dup2\n        /* \"#utility.yul\":1346:1370   */\n      tag_122\n      jump\t// in\n    tag_174:\n        /* \"#utility.yul\":1341:1344   */\n      dup3\n        /* \"#utility.yul\":1334:1371   */\n      mstore\n        /* \"#utility.yul\":1259:1377   */\n      pop\n      pop\n      jump\t// out\n        /* \"#utility.yul\":1383:1501   */\n    tag_124:\n        /* \"#utility.yul\":1470:1494   */\n      tag_176\n        /* \"#utility.yul\":1488:1493   */\n      dup2\n        /* \"#utility.yul\":1470:1494   */\n      tag_118\n      jump\t// in\n    tag_176:\n        /* \"#utility.yul\":1465:1468   */\n      dup3\n        /* \"#utility.yul\":1458:1495   */\n      mstore\n        /* \"#utility.yul\":1383:1501   */\n      pop\n      pop\n      jump\t// out\n        /* \"#utility.yul\":1507:1597   */\n    tag_125:\n        /* \"#utility.yul\":1541:1548   */\n      0x00\n        /* \"#utility.yul\":1584:1589   */\n      dup2\n        /* \"#utility.yul\":1577:1590   */\n      iszero\n        /* \"#utility.yul\":1570:1591   */\n      iszero\n        /* \"#utility.yul\":1559:1591   */\n      swap1\n      pop\n        /* \"#utility.yul\":1507:1597   */\n      swap2\n      swap1\n      pop\n      jump\t// out\n        /* \"#utility.yul\":1603:1712   */\n    tag_126:\n        /* \"#utility.yul\":1684:1705   */\n      tag_179\n        /* \"#utility.yul\":1699:1704   */\n      dup2\n        /* \"#utility.yul\":1684:1705   */\n      tag_125\n      jump\t// in\n    tag_179:\n        /* \"#utility.yul\":1679:1682   */\n      dup3\n        /* \"#utility.yul\":1672:1706   */\n      mstore\n        /* \"#utility.yul\":1603:1712   */\n      pop\n      pop\n      jump\t// out\n        /* \"#utility.yul\":1718:2148   */\n    tag_16:\n        /* \"#utility.yul\":1861:1865   */\n      0x00\n        /* \"#utility.yul\":1899:1901   */\n      0x60\n        /* \"#utility.yul\":1888:1897   */\n      dup3\n        /* \"#utility.yul\":1884:1902   */\n      add\n        /* \"#utility.yul\":1876:1902   */\n      swap1\n      pop\n        /* \"#utility.yul\":1912:1983   */\n      tag_181\n        /* \"#utility.yul\":1980:1981   */\n      0x00\n        /* \"#utility.yul\":1969:1978   */\n      dup4\n        /* \"#utility.yul\":1965:1982   */\n      add\n        /* \"#utility.yul\":1956:1962   */\n      dup7\n        /* \"#utility.yul\":1912:1983   */\n      tag_123\n      jump\t// in\n    tag_181:\n        /* \"#utility.yul\":1993:2065   */\n      tag_182\n        /* \"#utility.yul\":2061:2063   */\n      0x20\n        /* \"#utility.yul\":2050:2059   */\n      dup4\n        /* \"#utility.yul\":2046:2064   */\n      add\n        /* \"#utility.yul\":2037:2043   */\n      dup6\n        /* \"#utility.yul\":1993:2065   */\n      tag_124\n      jump\t// in\n    tag_182:\n        /* \"#utility.yul\":2075:2141   */\n      tag_183\n        /* \"#utility.yul\":2137:2139   */\n      0x40\n        /* \"#utility.yul\":2126:2135   */\n      dup4\n        /* \"#utility.yul\":2122:2140   */\n      add\n        /* \"#utility.yul\":2113:2119   */\n      dup5\n        /* \"#utility.yul\":2075:2141   */\n      tag_126\n      jump\t// in\n    tag_183:\n        /* \"#utility.yul\":1718:2148   */\n      swap5\n      swap4\n      pop\n      pop\n      pop\n      pop\n      jump\t// out\n        /* \"#utility.yul\":2154:2376   */\n    tag_28:\n        /* \"#utility.yul\":2247:2251   */\n      0x00\n        /* \"#utility.yul\":2285:2287   */\n      0x20\n        /* \"#utility.yul\":2274:2283   */\n      dup3\n        /* \"#utility.yul\":2270:2288   */\n      add\n        /* \"#utility.yul\":2262:2288   */\n      swap1\n      pop\n        /* \"#utility.yul\":2298:2369   */\n      tag_185\n        /* \"#utility.yul\":2366:2367   */\n      0x00\n        /* \"#utility.yul\":2355:2364   */\n      dup4\n        /* \"#utility.yul\":2351:2368   */\n      add\n        /* \"#utility.yul\":2342:2348   */\n      dup5\n        /* \"#utility.yul\":2298:2369   */\n      tag_123\n      jump\t// in\n    tag_185:\n        /* \"#utility.yul\":2154:2376   */\n      swap3\n      swap2\n      pop\n      pop\n      jump\t// out\n        /* \"#utility.yul\":2382:2442   */\n    tag_127:\n        /* \"#utility.yul\":2410:2413   */\n      0x00\n        /* \"#utility.yul\":2431:2436   */\n      dup2\n        /* \"#utility.yul\":2424:2436   */\n      swap1\n      pop\n        /* \"#utility.yul\":2382:2442   */\n      swap2\n      swap1\n      pop\n      jump\t// out\n        /* \"#utility.yul\":2448:2590   */\n    tag_128:\n        /* \"#utility.yul\":2498:2507   */\n      0x00\n        /* \"#utility.yul\":2531:2584   */\n      tag_188\n        /* \"#utility.yul\":2549:2583   */\n      tag_189\n        /* \"#utility.yul\":2558:2582   */\n      tag_190\n        /* \"#utility.yul\":2576:2581   */\n      dup5\n        /* \"#utility.yul\":2558:2582   */\n      tag_121\n      jump\t// in\n    tag_190:\n        /* \"#utility.yul\":2549:2583   */\n      tag_127\n      jump\t// in\n    tag_189:\n        /* \"#utility.yul\":2531:2584   */\n      tag_121\n      jump\t// in\n    tag_188:\n        /* \"#utility.yul\":2518:2584   */\n      swap1\n      pop\n        /* \"#utility.yul\":2448:2590   */\n      swap2\n      swap1\n      pop\n      jump\t// out\n        /* \"#utility.yul\":2596:2722   */\n    tag_129:\n        /* \"#utility.yul\":2646:2655   */\n      0x00\n        /* \"#utility.yul\":2679:2716   */\n      tag_192\n        /* \"#utility.yul\":2710:2715   */\n      dup3\n        /* \"#utility.yul\":2679:2716   */\n      tag_128\n      jump\t// in\n    tag_192:\n        /* \"#utility.yul\":2666:2716   */\n      swap1\n      pop\n        /* \"#utility.yul\":2596:2722   */\n      swap2\n      swap1\n      pop\n      jump\t// out\n        /* \"#utility.yul\":2728:2867   */\n    tag_130:\n        /* \"#utility.yul\":2791:2800   */\n      0x00\n        /* \"#utility.yul\":2824:2861   */\n      tag_194\n        /* \"#utility.yul\":2855:2860   */\n      dup3\n        /* \"#utility.yul\":2824:2861   */\n      tag_129\n      jump\t// in\n    tag_194:\n        /* \"#utility.yul\":2811:2861   */\n      swap1\n      pop\n        /* \"#utility.yul\":2728:2867   */\n      swap2\n      swap1\n      pop\n      jump\t// out\n        /* \"#utility.yul\":2873:3030   */\n    tag_131:\n        /* \"#utility.yul\":2973:3023   */\n      tag_196\n        /* \"#utility.yul\":3017:3022   */\n      dup2\n        /* \"#utility.yul\":2973:3023   */\n      tag_130\n      jump\t// in\n    tag_196:\n        /* \"#utility.yul\":2968:2971   */\n      dup3\n        /* \"#utility.yul\":2961:3024   */\n      mstore\n        /* \"#utility.yul\":2873:3030   */\n      pop\n      pop\n      jump\t// out\n        /* \"#utility.yul\":3036:3284   */\n    tag_35:\n        /* \"#utility.yul\":3142:3146   */\n      0x00\n        /* \"#utility.yul\":3180:3182   */\n      0x20\n        /* \"#utility.yul\":3169:3178   */\n      dup3\n        /* \"#utility.yul\":3165:3183   */\n      add\n        /* \"#utility.yul\":3157:3183   */\n      swap1\n      pop\n        /* \"#utility.yul\":3193:3277   */\n      tag_198\n        /* \"#utility.yul\":3274:3275   */\n      0x00\n        /* \"#utility.yul\":3263:3272   */\n      dup4\n        /* \"#utility.yul\":3259:3276   */\n      add\n        /* \"#utility.yul\":3250:3256   */\n      dup5\n        /* \"#utility.yul\":3193:3277   */\n      tag_131\n      jump\t// in\n    tag_198:\n        /* \"#utility.yul\":3036:3284   */\n      swap3\n      swap2\n      pop\n      pop\n      jump\t// out\n        /* \"#utility.yul\":3290:3459   */\n    tag_132:\n        /* \"#utility.yul\":3374:3385   */\n      0x00\n        /* \"#utility.yul\":3408:3414   */\n      dup3\n        /* \"#utility.yul\":3403:3406   */\n      dup3\n        /* \"#utility.yul\":3396:3415   */\n      mstore\n        /* \"#utility.yul\":3448:3452   */\n      0x20\n        /* \"#utility.yul\":3443:3446   */\n      dup3\n        /* \"#utility.yul\":3439:3453   */\n      add\n        /* \"#utility.yul\":3424:3453   */\n      swap1\n      pop\n        /* \"#utility.yul\":3290:3459   */\n      swap3\n      swap2\n      pop\n      pop\n      jump\t// out\n        /* \"#utility.yul\":3465:3639   */\n    tag_133:\n        /* \"#utility.yul\":3605:3631   */\n      0x596f7520646f6e2774206861766520616e206163636573730000000000000000\n        /* \"#utility.yul\":3601:3602   */\n      0x00\n        /* \"#utility.yul\":3593:3599   */\n      dup3\n        /* \"#utility.yul\":3589:3603   */\n      add\n        /* \"#utility.yul\":3582:3632   */\n      mstore\n        /* \"#utility.yul\":3465:3639   */\n      pop\n      jump\t// out\n        /* \"#utility.yul\":3645:4011   */\n    tag_134:\n        /* \"#utility.yul\":3787:3790   */\n      0x00\n        /* \"#utility.yul\":3808:3875   */\n      tag_202\n        /* \"#utility.yul\":3872:3874   */\n      0x18\n        /* \"#utility.yul\":3867:3870   */\n      dup4\n        /* \"#utility.yul\":3808:3875   */\n      tag_132\n      jump\t// in\n    tag_202:\n        /* \"#utility.yul\":3801:3875   */\n      swap2\n      pop\n        /* \"#utility.yul\":3884:3977   */\n      tag_203\n        /* \"#utility.yul\":3973:3976   */\n      dup3\n        /* \"#utility.yul\":3884:3977   */\n      tag_133\n      jump\t// in\n    tag_203:\n        /* \"#utility.yul\":4002:4004   */\n      0x20\n        /* \"#utility.yul\":3997:4000   */\n      dup3\n        /* \"#utility.yul\":3993:4005   */\n      add\n        /* \"#utility.yul\":3986:4005   */\n      swap1\n      pop\n        /* \"#utility.yul\":3645:4011   */\n      swap2\n      swap1\n      pop\n      jump\t// out\n        /* \"#utility.yul\":4017:4436   */\n    tag_41:\n        /* \"#utility.yul\":4183:4187   */\n      0x00\n        /* \"#utility.yul\":4221:4223   */\n      0x20\n        /* \"#utility.yul\":4210:4219   */\n      dup3\n        /* \"#utility.yul\":4206:4224   */\n      add\n        /* \"#utility.yul\":4198:4224   */\n      swap1\n      pop\n        /* \"#utility.yul\":4270:4279   */\n      dup2\n        /* \"#utility.yul\":4264:4268   */\n      dup2\n        /* \"#utility.yul\":4260:4280   */\n      sub\n        /* \"#utility.yul\":4256:4257   */\n      0x00\n        /* \"#utility.yul\":4245:4254   */\n      dup4\n        /* \"#utility.yul\":4241:4258   */\n      add\n        /* \"#utility.yul\":4234:4281   */\n      mstore\n        /* \"#utility.yul\":4298:4429   */\n      tag_205\n        /* \"#utility.yul\":4424:4428   */\n      dup2\n        /* \"#utility.yul\":4298:4429   */\n      tag_134\n      jump\t// in\n    tag_205:\n        /* \"#utility.yul\":4290:4429   */\n      swap1\n      pop\n        /* \"#utility.yul\":4017:4436   */\n      swap2\n      swap1\n      pop\n      jump\t// out\n        /* \"#utility.yul\":4442:4618   */\n    tag_135:\n        /* \"#utility.yul\":4582:4610   */\n      0x57696e6e657220697320616c7265616479206465636c61726564000000000000\n        /* \"#utility.yul\":4578:4579   */\n      0x00\n        /* \"#utility.yul\":4570:4576   */\n      dup3\n        /* \"#utility.yul\":4566:4580   */\n      add\n        /* \"#utility.yul\":4559:4611   */\n      mstore\n        /* \"#utility.yul\":4442:4618   */\n      pop\n      jump\t// out\n        /* \"#utility.yul\":4624:4990   */\n    tag_136:\n        /* \"#utility.yul\":4766:4769   */\n      0x00\n        /* \"#utility.yul\":4787:4854   */\n      tag_208\n        /* \"#utility.yul\":4851:4853   */\n      0x1a\n        /* \"#utility.yul\":4846:4849   */\n      dup4\n        /* \"#utility.yul\":4787:4854   */\n      tag_132\n      jump\t// in\n    tag_208:\n        /* \"#utility.yul\":4780:4854   */\n      swap2\n      pop\n        /* \"#utility.yul\":4863:4956   */\n      tag_209\n        /* \"#utility.yul\":4952:4955   */\n      dup3\n        /* \"#utility.yul\":4863:4956   */\n      tag_135\n      jump\t// in\n    tag_209:\n        /* \"#utility.yul\":4981:4983   */\n      0x20\n        /* \"#utility.yul\":4976:4979   */\n      dup3\n        /* \"#utility.yul\":4972:4984   */\n      add\n        /* \"#utility.yul\":4965:4984   */\n      swap1\n      pop\n        /* \"#utility.yul\":4624:4990   */\n      swap2\n      swap1\n      pop\n      jump\t// out\n        /* \"#utility.yul\":4996:5415   */\n    tag_45:\n        /* \"#utility.yul\":5162:5166   */\n      0x00\n        /* \"#utility.yul\":5200:5202   */\n      0x20\n        /* \"#utility.yul\":5189:5198   */\n      dup3\n        /* \"#utility.yul\":5185:5203   */\n      add\n        /* \"#utility.yul\":5177:5203   */\n      swap1\n      pop\n        /* \"#utility.yul\":5249:5258   */\n      dup2\n        /* \"#utility.yul\":5243:5247   */\n      dup2\n        /* \"#utility.yul\":5239:5259   */\n      sub\n        /* \"#utility.yul\":5235:5236   */\n      0x00\n        /* \"#utility.yul\":5224:5233   */\n      dup4\n        /* \"#utility.yul\":5220:5237   */\n      add\n        /* \"#utility.yul\":5213:5260   */\n      mstore\n        /* \"#utility.yul\":5277:5408   */\n      tag_211\n        /* \"#utility.yul\":5403:5407   */\n      dup2\n        /* \"#utility.yul\":5277:5408   */\n      tag_136\n      jump\t// in\n    tag_211:\n        /* \"#utility.yul\":5269:5408   */\n      swap1\n      pop\n        /* \"#utility.yul\":4996:5415   */\n      swap2\n      swap1\n      pop\n      jump\t// out\n        /* \"#utility.yul\":5421:5601   */\n    tag_137:\n        /* \"#utility.yul\":5469:5546   */\n      0x4e487b7100000000000000000000000000000000000000000000000000000000\n        /* \"#utility.yul\":5466:5467   */\n      0x00\n        /* \"#utility.yul\":5459:5547   */\n      mstore\n        /* \"#utility.yul\":5566:5570   */\n      0x12\n        /* \"#utility.yul\":5563:5564   */\n      0x04\n        /* \"#utility.yul\":5556:5571   */\n      mstore\n        /* \"#utility.yul\":5590:5594   */\n      0x24\n        /* \"#utility.yul\":5587:5588   */\n      0x00\n        /* \"#utility.yul\":5580:5595   */\n      revert\n        /* \"#utility.yul\":5607:5783   */\n    tag_49:\n        /* \"#utility.yul\":5639:5640   */\n      0x00\n        /* \"#utility.yul\":5656:5676   */\n      tag_214\n        /* \"#utility.yul\":5674:5675   */\n      dup3\n        /* \"#utility.yul\":5656:5676   */\n      tag_118\n      jump\t// in\n    tag_214:\n        /* \"#utility.yul\":5651:5676   */\n      swap2\n      pop\n        /* \"#utility.yul\":5690:5710   */\n      tag_215\n        /* \"#utility.yul\":5708:5709   */\n      dup4\n        /* \"#utility.yul\":5690:5710   */\n      tag_118\n      jump\t// in\n    tag_215:\n        /* \"#utility.yul\":5685:5710   */\n      swap3\n      pop\n        /* \"#utility.yul\":5729:5730   */\n      dup3\n        /* \"#utility.yul\":5719:5754   */\n      tag_216\n      jumpi\n        /* \"#utility.yul\":5734:5752   */\n      tag_217\n      tag_137\n      jump\t// in\n    tag_217:\n        /* \"#utility.yul\":5719:5754   */\n    tag_216:\n        /* \"#utility.yul\":5775:5776   */\n      dup3\n        /* \"#utility.yul\":5772:5773   */\n      dup3\n        /* \"#utility.yul\":5768:5777   */\n      mod\n        /* \"#utility.yul\":5763:5777   */\n      swap1\n      pop\n        /* \"#utility.yul\":5607:5783   */\n      swap3\n      swap2\n      pop\n      pop\n      jump\t// out\n        /* \"#utility.yul\":5789:5969   */\n    tag_52:\n        /* \"#utility.yul\":5837:5914   */\n      0x4e487b7100000000000000000000000000000000000000000000000000000000\n        /* \"#utility.yul\":5834:5835   */\n      0x00\n        /* \"#utility.yul\":5827:5915   */\n      mstore\n        /* \"#utility.yul\":5934:5938   */\n      0x32\n        /* \"#utility.yul\":5931:5932   */\n      0x04\n        /* \"#utility.yul\":5924:5939   */\n      mstore\n        /* \"#utility.yul\":5958:5962   */\n      0x24\n        /* \"#utility.yul\":5955:5956   */\n      0x00\n        /* \"#utility.yul\":5948:5963   */\n      revert\n        /* \"#utility.yul\":5975:6151   */\n    tag_138:\n        /* \"#utility.yul\":6115:6143   */\n      0x41646d696e20646f6e2774206861766520616e20616363657373000000000000\n        /* \"#utility.yul\":6111:6112   */\n      0x00\n        /* \"#utility.yul\":6103:6109   */\n      dup3\n        /* \"#utility.yul\":6099:6113   */\n      add\n        /* \"#utility.yul\":6092:6144   */\n      mstore\n        /* \"#utility.yul\":5975:6151   */\n      pop\n      jump\t// out\n        /* \"#utility.yul\":6157:6523   */\n    tag_139:\n        /* \"#utility.yul\":6299:6302   */\n      0x00\n        /* \"#utility.yul\":6320:6387   */\n      tag_221\n        /* \"#utility.yul\":6384:6386   */\n      0x1a\n        /* \"#utility.yul\":6379:6382   */\n      dup4\n        /* \"#utility.yul\":6320:6387   */\n      tag_132\n      jump\t// in\n    tag_221:\n        /* \"#utility.yul\":6313:6387   */\n      swap2\n      pop\n        /* \"#utility.yul\":6396:6489   */\n      tag_222\n        /* \"#utility.yul\":6485:6488   */\n      dup3\n        /* \"#utility.yul\":6396:6489   */\n      tag_138\n      jump\t// in\n    tag_222:\n        /* \"#utility.yul\":6514:6516   */\n      0x20\n        /* \"#utility.yul\":6509:6512   */\n      dup3\n        /* \"#utility.yul\":6505:6517   */\n      add\n        /* \"#utility.yul\":6498:6517   */\n      swap1\n      pop\n        /* \"#utility.yul\":6157:6523   */\n      swap2\n      swap1\n      pop\n      jump\t// out\n        /* \"#utility.yul\":6529:6948   */\n    tag_57:\n        /* \"#utility.yul\":6695:6699   */\n      0x00\n        /* \"#utility.yul\":6733:6735   */\n      0x20\n        /* \"#utility.yul\":6722:6731   */\n      dup3\n        /* \"#utility.yul\":6718:6736   */\n      add\n        /* \"#utility.yul\":6710:6736   */\n      swap1\n      pop\n        /* \"#utility.yul\":6782:6791   */\n      dup2\n        /* \"#utility.yul\":6776:6780   */\n      dup2\n        /* \"#utility.yul\":6772:6792   */\n      sub\n        /* \"#utility.yul\":6768:6769   */\n      0x00\n        /* \"#utility.yul\":6757:6766   */\n      dup4\n        /* \"#utility.yul\":6753:6770   */\n      add\n        /* \"#utility.yul\":6746:6793   */\n      mstore\n        /* \"#utility.yul\":6810:6941   */\n      tag_224\n        /* \"#utility.yul\":6936:6940   */\n      dup2\n        /* \"#utility.yul\":6810:6941   */\n      tag_139\n      jump\t// in\n    tag_224:\n        /* \"#utility.yul\":6802:6941   */\n      swap1\n      pop\n        /* \"#utility.yul\":6529:6948   */\n      swap2\n      swap1\n      pop\n      jump\t// out\n        /* \"#utility.yul\":6954:7127   */\n    tag_140:\n        /* \"#utility.yul\":7094:7119   */\n      0x57696e6e6572206e6f74206465636c6172656420796574000000000000000000\n        /* \"#utility.yul\":7090:7091   */\n      0x00\n        /* \"#utility.yul\":7082:7088   */\n      dup3\n        /* \"#utility.yul\":7078:7092   */\n      add\n        /* \"#utility.yul\":7071:7120   */\n      mstore\n        /* \"#utility.yul\":6954:7127   */\n      pop\n      jump\t// out\n        /* \"#utility.yul\":7133:7499   */\n    tag_141:\n        /* \"#utility.yul\":7275:7278   */\n      0x00\n        /* \"#utility.yul\":7296:7363   */\n      tag_227\n        /* \"#utility.yul\":7360:7362   */\n      0x17\n        /* \"#utility.yul\":7355:7358   */\n      dup4\n        /* \"#utility.yul\":7296:7363   */\n      tag_132\n      jump\t// in\n    tag_227:\n        /* \"#utility.yul\":7289:7363   */\n      swap2\n      pop\n        /* \"#utility.yul\":7372:7465   */\n      tag_228\n        /* \"#utility.yul\":7461:7464   */\n      dup3\n        /* \"#utility.yul\":7372:7465   */\n      tag_140\n      jump\t// in\n    tag_228:\n        /* \"#utility.yul\":7490:7492   */\n      0x20\n        /* \"#utility.yul\":7485:7488   */\n      dup3\n        /* \"#utility.yul\":7481:7493   */\n      add\n        /* \"#utility.yul\":7474:7493   */\n      swap1\n      pop\n        /* \"#utility.yul\":7133:7499   */\n      swap2\n      swap1\n      pop\n      jump\t// out\n        /* \"#utility.yul\":7505:7924   */\n    tag_61:\n        /* \"#utility.yul\":7671:7675   */\n      0x00\n        /* \"#utility.yul\":7709:7711   */\n      0x20\n        /* \"#utility.yul\":7698:7707   */\n      dup3\n        /* \"#utility.yul\":7694:7712   */\n      add\n        /* \"#utility.yul\":7686:7712   */\n      swap1\n      pop\n        /* \"#utility.yul\":7758:7767   */\n      dup2\n        /* \"#utility.yul\":7752:7756   */\n      dup2\n        /* \"#utility.yul\":7748:7768   */\n      sub\n        /* \"#utility.yul\":7744:7745   */\n      0x00\n        /* \"#utility.yul\":7733:7742   */\n      dup4\n        /* \"#utility.yul\":7729:7746   */\n      add\n        /* \"#utility.yul\":7722:7769   */\n      mstore\n        /* \"#utility.yul\":7786:7917   */\n      tag_230\n        /* \"#utility.yul\":7912:7916   */\n      dup2\n        /* \"#utility.yul\":7786:7917   */\n      tag_141\n      jump\t// in\n    tag_230:\n        /* \"#utility.yul\":7778:7917   */\n      swap1\n      pop\n        /* \"#utility.yul\":7505:7924   */\n      swap2\n      swap1\n      pop\n      jump\t// out\n        /* \"#utility.yul\":7930:8108   */\n    tag_142:\n        /* \"#utility.yul\":8070:8100   */\n      0x596f7520617265206c6f6f73652c20747279206e6578742074696d6500000000\n        /* \"#utility.yul\":8066:8067   */\n      0x00\n        /* \"#utility.yul\":8058:8064   */\n      dup3\n        /* \"#utility.yul\":8054:8068   */\n      add\n        /* \"#utility.yul\":8047:8101   */\n      mstore\n        /* \"#utility.yul\":7930:8108   */\n      pop\n      jump\t// out\n        /* \"#utility.yul\":8114:8480   */\n    tag_143:\n        /* \"#utility.yul\":8256:8259   */\n      0x00\n        /* \"#utility.yul\":8277:8344   */\n      tag_233\n        /* \"#utility.yul\":8341:8343   */\n      0x1c\n        /* \"#utility.yul\":8336:8339   */\n      dup4\n        /* \"#utility.yul\":8277:8344   */\n      tag_132\n      jump\t// in\n    tag_233:\n        /* \"#utility.yul\":8270:8344   */\n      swap2\n      pop\n        /* \"#utility.yul\":8353:8446   */\n      tag_234\n        /* \"#utility.yul\":8442:8445   */\n      dup3\n        /* \"#utility.yul\":8353:8446   */\n      tag_142\n      jump\t// in\n    tag_234:\n        /* \"#utility.yul\":8471:8473   */\n      0x20\n        /* \"#utility.yul\":8466:8469   */\n      dup3\n        /* \"#utility.yul\":8462:8474   */\n      add\n        /* \"#utility.yul\":8455:8474   */\n      swap1\n      pop\n        /* \"#utility.yul\":8114:8480   */\n      swap2\n      swap1\n      pop\n      jump\t// out\n        /* \"#utility.yul\":8486:8905   */\n    tag_67:\n        /* \"#utility.yul\":8652:8656   */\n      0x00\n        /* \"#utility.yul\":8690:8692   */\n      0x20\n        /* \"#utility.yul\":8679:8688   */\n      dup3\n        /* \"#utility.yul\":8675:8693   */\n      add\n        /* \"#utility.yul\":8667:8693   */\n      swap1\n      pop\n        /* \"#utility.yul\":8739:8748   */\n      dup2\n        /* \"#utility.yul\":8733:8737   */\n      dup2\n        /* \"#utility.yul\":8729:8749   */\n      sub\n        /* \"#utility.yul\":8725:8726   */\n      0x00\n        /* \"#utility.yul\":8714:8723   */\n      dup4\n        /* \"#utility.yul\":8710:8727   */\n      add\n        /* \"#utility.yul\":8703:8750   */\n      mstore\n        /* \"#utility.yul\":8767:8898   */\n      tag_236\n        /* \"#utility.yul\":8893:8897   */\n      dup2\n        /* \"#utility.yul\":8767:8898   */\n      tag_143\n      jump\t// in\n    tag_236:\n        /* \"#utility.yul\":8759:8898   */\n      swap1\n      pop\n        /* \"#utility.yul\":8486:8905   */\n      swap2\n      swap1\n      pop\n      jump\t// out\n        /* \"#utility.yul\":8911:9092   */\n    tag_144:\n        /* \"#utility.yul\":9051:9084   */\n      0x596f752063616e206e6f7420636c69616d206f74686572732072657761726400\n        /* \"#utility.yul\":9047:9048   */\n      0x00\n        /* \"#utility.yul\":9039:9045   */\n      dup3\n        /* \"#utility.yul\":9035:9049   */\n      add\n        /* \"#utility.yul\":9028:9085   */\n      mstore\n        /* \"#utility.yul\":8911:9092   */\n      pop\n      jump\t// out\n        /* \"#utility.yul\":9098:9464   */\n    tag_145:\n        /* \"#utility.yul\":9240:9243   */\n      0x00\n        /* \"#utility.yul\":9261:9328   */\n      tag_239\n        /* \"#utility.yul\":9325:9327   */\n      0x1f\n        /* \"#utility.yul\":9320:9323   */\n      dup4\n        /* \"#utility.yul\":9261:9328   */\n      tag_132\n      jump\t// in\n    tag_239:\n        /* \"#utility.yul\":9254:9328   */\n      swap2\n      pop\n        /* \"#utility.yul\":9337:9430   */\n      tag_240\n        /* \"#utility.yul\":9426:9429   */\n      dup3\n        /* \"#utility.yul\":9337:9430   */\n      tag_144\n      jump\t// in\n    tag_240:\n        /* \"#utility.yul\":9455:9457   */\n      0x20\n        /* \"#utility.yul\":9450:9453   */\n      dup3\n        /* \"#utility.yul\":9446:9458   */\n      add\n        /* \"#utility.yul\":9439:9458   */\n      swap1\n      pop\n        /* \"#utility.yul\":9098:9464   */\n      swap2\n      swap1\n      pop\n      jump\t// out\n        /* \"#utility.yul\":9470:9889   */\n    tag_70:\n        /* \"#utility.yul\":9636:9640   */\n      0x00\n        /* \"#utility.yul\":9674:9676   */\n      0x20\n        /* \"#utility.yul\":9663:9672   */\n      dup3\n        /* \"#utility.yul\":9659:9677   */\n      add\n        /* \"#utility.yul\":9651:9677   */\n      swap1\n      pop\n        /* \"#utility.yul\":9723:9732   */\n      dup2\n        /* \"#utility.yul\":9717:9721   */\n      dup2\n        /* \"#utility.yul\":9713:9733   */\n      sub\n        /* \"#utility.yul\":9709:9710   */\n      0x00\n        /* \"#utility.yul\":9698:9707   */\n      dup4\n        /* \"#utility.yul\":9694:9711   */\n      add\n        /* \"#utility.yul\":9687:9734   */\n      mstore\n        /* \"#utility.yul\":9751:9882   */\n      tag_242\n        /* \"#utility.yul\":9877:9881   */\n      dup2\n        /* \"#utility.yul\":9751:9882   */\n      tag_145\n      jump\t// in\n    tag_242:\n        /* \"#utility.yul\":9743:9882   */\n      swap1\n      pop\n        /* \"#utility.yul\":9470:9889   */\n      swap2\n      swap1\n      pop\n      jump\t// out\n        /* \"#utility.yul\":9895:10117   */\n    tag_146:\n        /* \"#utility.yul\":10035:10069   */\n      0x596f75206861766520616c72656164792072656465656d20796f757220726577\n        /* \"#utility.yul\":10031:10032   */\n      0x00\n        /* \"#utility.yul\":10023:10029   */\n      dup3\n        /* \"#utility.yul\":10019:10033   */\n      add\n        /* \"#utility.yul\":10012:10070   */\n      mstore\n        /* \"#utility.yul\":10104:10109   */\n      0x6172640000000000000000000000000000000000000000000000000000000000\n        /* \"#utility.yul\":10099:10101   */\n      0x20\n        /* \"#utility.yul\":10091:10097   */\n      dup3\n        /* \"#utility.yul\":10087:10102   */\n      add\n        /* \"#utility.yul\":10080:10110   */\n      mstore\n        /* \"#utility.yul\":9895:10117   */\n      pop\n      jump\t// out\n        /* \"#utility.yul\":10123:10489   */\n    tag_147:\n        /* \"#utility.yul\":10265:10268   */\n      0x00\n        /* \"#utility.yul\":10286:10353   */\n      tag_245\n        /* \"#utility.yul\":10350:10352   */\n      0x23\n        /* \"#utility.yul\":10345:10348   */\n      dup4\n        /* \"#utility.yul\":10286:10353   */\n      tag_132\n      jump\t// in\n    tag_245:\n        /* \"#utility.yul\":10279:10353   */\n      swap2\n      pop\n        /* \"#utility.yul\":10362:10455   */\n      tag_246\n        /* \"#utility.yul\":10451:10454   */\n      dup3\n        /* \"#utility.yul\":10362:10455   */\n      tag_146\n      jump\t// in\n    tag_246:\n        /* \"#utility.yul\":10480:10482   */\n      0x40\n        /* \"#utility.yul\":10475:10478   */\n      dup3\n        /* \"#utility.yul\":10471:10483   */\n      add\n        /* \"#utility.yul\":10464:10483   */\n      swap1\n      pop\n        /* \"#utility.yul\":10123:10489   */\n      swap2\n      swap1\n      pop\n      jump\t// out\n        /* \"#utility.yul\":10495:10914   */\n    tag_76:\n        /* \"#utility.yul\":10661:10665   */\n      0x00\n        /* \"#utility.yul\":10699:10701   */\n      0x20\n        /* \"#utility.yul\":10688:10697   */\n      dup3\n        /* \"#utility.yul\":10684:10702   */\n      add\n        /* \"#utility.yul\":10676:10702   */\n      swap1\n      pop\n        /* \"#utility.yul\":10748:10757   */\n      dup2\n        /* \"#utility.yul\":10742:10746   */\n      dup2\n        /* \"#utility.yul\":10738:10758   */\n      sub\n        /* \"#utility.yul\":10734:10735   */\n      0x00\n        /* \"#utility.yul\":10723:10732   */\n      dup4\n        /* \"#utility.yul\":10719:10736   */\n      add\n        /* \"#utility.yul\":10712:10759   */\n      mstore\n        /* \"#utility.yul\":10776:10907   */\n      tag_248\n        /* \"#utility.yul\":10902:10906   */\n      dup2\n        /* \"#utility.yul\":10776:10907   */\n      tag_147\n      jump\t// in\n    tag_248:\n        /* \"#utility.yul\":10768:10907   */\n      swap1\n      pop\n        /* \"#utility.yul\":10495:10914   */\n      swap2\n      swap1\n      pop\n      jump\t// out\n        /* \"#utility.yul\":10920:11100   */\n    tag_148:\n        /* \"#utility.yul\":10968:11045   */\n      0x4e487b7100000000000000000000000000000000000000000000000000000000\n        /* \"#utility.yul\":10965:10966   */\n      0x00\n        /* \"#utility.yul\":10958:11046   */\n      mstore\n        /* \"#utility.yul\":11065:11069   */\n      0x11\n        /* \"#utility.yul\":11062:11063   */\n      0x04\n        /* \"#utility.yul\":11055:11070   */\n      mstore\n        /* \"#utility.yul\":11089:11093   */\n      0x24\n        /* \"#utility.yul\":11086:11087   */\n      0x00\n        /* \"#utility.yul\":11079:11094   */\n      revert\n        /* \"#utility.yul\":11106:11516   */\n    tag_81:\n        /* \"#utility.yul\":11146:11153   */\n      0x00\n        /* \"#utility.yul\":11169:11189   */\n      tag_251\n        /* \"#utility.yul\":11187:11188   */\n      dup3\n        /* \"#utility.yul\":11169:11189   */\n      tag_118\n      jump\t// in\n    tag_251:\n        /* \"#utility.yul\":11164:11189   */\n      swap2\n      pop\n        /* \"#utility.yul\":11203:11223   */\n      tag_252\n        /* \"#utility.yul\":11221:11222   */\n      dup4\n        /* \"#utility.yul\":11203:11223   */\n      tag_118\n      jump\t// in\n    tag_252:\n        /* \"#utility.yul\":11198:11223   */\n      swap3\n      pop\n        /* \"#utility.yul\":11258:11259   */\n      dup3\n        /* \"#utility.yul\":11255:11256   */\n      dup3\n        /* \"#utility.yul\":11251:11260   */\n      mul\n        /* \"#utility.yul\":11280:11310   */\n      tag_253\n        /* \"#utility.yul\":11298:11309   */\n      dup2\n        /* \"#utility.yul\":11280:11310   */\n      tag_118\n      jump\t// in\n    tag_253:\n        /* \"#utility.yul\":11269:11310   */\n      swap2\n      pop\n        /* \"#utility.yul\":11459:11460   */\n      dup3\n        /* \"#utility.yul\":11450:11457   */\n      dup3\n        /* \"#utility.yul\":11446:11461   */\n      div\n        /* \"#utility.yul\":11443:11444   */\n      dup5\n        /* \"#utility.yul\":11440:11462   */\n      eq\n        /* \"#utility.yul\":11420:11421   */\n      dup4\n        /* \"#utility.yul\":11413:11422   */\n      iszero\n        /* \"#utility.yul\":11393:11476   */\n      or\n        /* \"#utility.yul\":11370:11509   */\n      tag_254\n      jumpi\n        /* \"#utility.yul\":11489:11507   */\n      tag_255\n      tag_148\n      jump\t// in\n    tag_255:\n        /* \"#utility.yul\":11370:11509   */\n    tag_254:\n        /* \"#utility.yul\":11154:11516   */\n      pop\n        /* \"#utility.yul\":11106:11516   */\n      swap3\n      swap2\n      pop\n      pop\n      jump\t// out\n        /* \"#utility.yul\":11522:11665   */\n    tag_149:\n        /* \"#utility.yul\":11579:11584   */\n      0x00\n        /* \"#utility.yul\":11610:11616   */\n      dup2\n        /* \"#utility.yul\":11604:11617   */\n      mload\n        /* \"#utility.yul\":11595:11617   */\n      swap1\n      pop\n        /* \"#utility.yul\":11626:11659   */\n      tag_257\n        /* \"#utility.yul\":11653:11658   */\n      dup2\n        /* \"#utility.yul\":11626:11659   */\n      tag_119\n      jump\t// in\n    tag_257:\n        /* \"#utility.yul\":11522:11665   */\n      swap3\n      swap2\n      pop\n      pop\n      jump\t// out\n        /* \"#utility.yul\":11671:12022   */\n    tag_86:\n        /* \"#utility.yul\":11741:11747   */\n      0x00\n        /* \"#utility.yul\":11790:11792   */\n      0x20\n        /* \"#utility.yul\":11778:11787   */\n      dup3\n        /* \"#utility.yul\":11769:11776   */\n      dup5\n        /* \"#utility.yul\":11765:11788   */\n      sub\n        /* \"#utility.yul\":11761:11793   */\n      slt\n        /* \"#utility.yul\":11758:11877   */\n      iszero\n      tag_259\n      jumpi\n        /* \"#utility.yul\":11796:11875   */\n      tag_260\n      tag_116\n      jump\t// in\n    tag_260:\n        /* \"#utility.yul\":11758:11877   */\n    tag_259:\n        /* \"#utility.yul\":11916:11917   */\n      0x00\n        /* \"#utility.yul\":11941:12005   */\n      tag_261\n        /* \"#utility.yul\":11997:12004   */\n      dup5\n        /* \"#utility.yul\":11988:11994   */\n      dup3\n        /* \"#utility.yul\":11977:11986   */\n      dup6\n        /* \"#utility.yul\":11973:11995   */\n      add\n        /* \"#utility.yul\":11941:12005   */\n      tag_149\n      jump\t// in\n    tag_261:\n        /* \"#utility.yul\":11931:12005   */\n      swap2\n      pop\n        /* \"#utility.yul\":11887:12015   */\n      pop\n        /* \"#utility.yul\":11671:12022   */\n      swap3\n      swap2\n      pop\n      pop\n      jump\t// out\n        /* \"#utility.yul\":12028:12248   */\n    tag_150:\n        /* \"#utility.yul\":12168:12202   */\n      0x436f6e747261637420646f6e2774206861766520656e6f67687420746f6b656e\n        /* \"#utility.yul\":12164:12165   */\n      0x00\n        /* \"#utility.yul\":12156:12162   */\n      dup3\n        /* \"#utility.yul\":12152:12166   */\n      add\n        /* \"#utility.yul\":12145:12203   */\n      mstore\n        /* \"#utility.yul\":12237:12240   */\n      0x7300000000000000000000000000000000000000000000000000000000000000\n        /* \"#utility.yul\":12232:12234   */\n      0x20\n        /* \"#utility.yul\":12224:12230   */\n      dup3\n        /* \"#utility.yul\":12220:12235   */\n      add\n        /* \"#utility.yul\":12213:12241   */\n      mstore\n        /* \"#utility.yul\":12028:12248   */\n      pop\n      jump\t// out\n        /* \"#utility.yul\":12254:12620   */\n    tag_151:\n        /* \"#utility.yul\":12396:12399   */\n      0x00\n        /* \"#utility.yul\":12417:12484   */\n      tag_264\n        /* \"#utility.yul\":12481:12483   */\n      0x21\n        /* \"#utility.yul\":12476:12479   */\n      dup4\n        /* \"#utility.yul\":12417:12484   */\n      tag_132\n      jump\t// in\n    tag_264:\n        /* \"#utility.yul\":12410:12484   */\n      swap2\n      pop\n        /* \"#utility.yul\":12493:12586   */\n      tag_265\n        /* \"#utility.yul\":12582:12585   */\n      dup3\n        /* \"#utility.yul\":12493:12586   */\n      tag_150\n      jump\t// in\n    tag_265:\n        /* \"#utility.yul\":12611:12613   */\n      0x40\n        /* \"#utility.yul\":12606:12609   */\n      dup3\n        /* \"#utility.yul\":12602:12614   */\n      add\n        /* \"#utility.yul\":12595:12614   */\n      swap1\n      pop\n        /* \"#utility.yul\":12254:12620   */\n      swap2\n      swap1\n      pop\n      jump\t// out\n        /* \"#utility.yul\":12626:13045   */\n    tag_89:\n        /* \"#utility.yul\":12792:12796   */\n      0x00\n        /* \"#utility.yul\":12830:12832   */\n      0x20\n        /* \"#utility.yul\":12819:12828   */\n      dup3\n        /* \"#utility.yul\":12815:12833   */\n      add\n        /* \"#utility.yul\":12807:12833   */\n      swap1\n      pop\n        /* \"#utility.yul\":12879:12888   */\n      dup2\n        /* \"#utility.yul\":12873:12877   */\n      dup2\n        /* \"#utility.yul\":12869:12889   */\n      sub\n        /* \"#utility.yul\":12865:12866   */\n      0x00\n        /* \"#utility.yul\":12854:12863   */\n      dup4\n        /* \"#utility.yul\":12850:12867   */\n      add\n        /* \"#utility.yul\":12843:12890   */\n      mstore\n        /* \"#utility.yul\":12907:13038   */\n      tag_267\n        /* \"#utility.yul\":13033:13037   */\n      dup2\n        /* \"#utility.yul\":12907:13038   */\n      tag_151\n      jump\t// in\n    tag_267:\n        /* \"#utility.yul\":12899:13038   */\n      swap1\n      pop\n        /* \"#utility.yul\":12626:13045   */\n      swap2\n      swap1\n      pop\n      jump\t// out\n        /* \"#utility.yul\":13051:13383   */\n    tag_91:\n        /* \"#utility.yul\":13172:13176   */\n      0x00\n        /* \"#utility.yul\":13210:13212   */\n      0x40\n        /* \"#utility.yul\":13199:13208   */\n      dup3\n        /* \"#utility.yul\":13195:13213   */\n      add\n        /* \"#utility.yul\":13187:13213   */\n      swap1\n      pop\n        /* \"#utility.yul\":13223:13294   */\n      tag_269\n        /* \"#utility.yul\":13291:13292   */\n      0x00\n        /* \"#utility.yul\":13280:13289   */\n      dup4\n        /* \"#utility.yul\":13276:13293   */\n      add\n        /* \"#utility.yul\":13267:13273   */\n      dup6\n        /* \"#utility.yul\":13223:13294   */\n      tag_123\n      jump\t// in\n    tag_269:\n        /* \"#utility.yul\":13304:13376   */\n      tag_270\n        /* \"#utility.yul\":13372:13374   */\n      0x20\n        /* \"#utility.yul\":13361:13370   */\n      dup4\n        /* \"#utility.yul\":13357:13375   */\n      add\n        /* \"#utility.yul\":13348:13354   */\n      dup5\n        /* \"#utility.yul\":13304:13376   */\n      tag_124\n      jump\t// in\n    tag_270:\n        /* \"#utility.yul\":13051:13383   */\n      swap4\n      swap3\n      pop\n      pop\n      pop\n      jump\t// out\n        /* \"#utility.yul\":13389:13505   */\n    tag_152:\n        /* \"#utility.yul\":13459:13480   */\n      tag_272\n        /* \"#utility.yul\":13474:13479   */\n      dup2\n        /* \"#utility.yul\":13459:13480   */\n      tag_125\n      jump\t// in\n    tag_272:\n        /* \"#utility.yul\":13452:13457   */\n      dup2\n        /* \"#utility.yul\":13449:13481   */\n      eq\n        /* \"#utility.yul\":13439:13499   */\n      tag_273\n      jumpi\n        /* \"#utility.yul\":13495:13496   */\n      0x00\n        /* \"#utility.yul\":13492:13493   */\n      dup1\n        /* \"#utility.yul\":13485:13497   */\n      revert\n        /* \"#utility.yul\":13439:13499   */\n    tag_273:\n        /* \"#utility.yul\":13389:13505   */\n      pop\n      jump\t// out\n        /* \"#utility.yul\":13511:13648   */\n    tag_153:\n        /* \"#utility.yul\":13565:13570   */\n      0x00\n        /* \"#utility.yul\":13596:13602   */\n      dup2\n        /* \"#utility.yul\":13590:13603   */\n      mload\n        /* \"#utility.yul\":13581:13603   */\n      swap1\n      pop\n        /* \"#utility.yul\":13612:13642   */\n      tag_275\n        /* \"#utility.yul\":13636:13641   */\n      dup2\n        /* \"#utility.yul\":13612:13642   */\n      tag_152\n      jump\t// in\n    tag_275:\n        /* \"#utility.yul\":13511:13648   */\n      swap3\n      swap2\n      pop\n      pop\n      jump\t// out\n        /* \"#utility.yul\":13654:13999   */\n    tag_95:\n        /* \"#utility.yul\":13721:13727   */\n      0x00\n        /* \"#utility.yul\":13770:13772   */\n      0x20\n        /* \"#utility.yul\":13758:13767   */\n      dup3\n        /* \"#utility.yul\":13749:13756   */\n      dup5\n        /* \"#utility.yul\":13745:13768   */\n      sub\n        /* \"#utility.yul\":13741:13773   */\n      slt\n        /* \"#utility.yul\":13738:13857   */\n      iszero\n      tag_277\n      jumpi\n        /* \"#utility.yul\":13776:13855   */\n      tag_278\n      tag_116\n      jump\t// in\n    tag_278:\n        /* \"#utility.yul\":13738:13857   */\n    tag_277:\n        /* \"#utility.yul\":13896:13897   */\n      0x00\n        /* \"#utility.yul\":13921:13982   */\n      tag_279\n        /* \"#utility.yul\":13974:13981   */\n      dup5\n        /* \"#utility.yul\":13965:13971   */\n      dup3\n        /* \"#utility.yul\":13954:13963   */\n      dup6\n        /* \"#utility.yul\":13950:13972   */\n      add\n        /* \"#utility.yul\":13921:13982   */\n      tag_153\n      jump\t// in\n    tag_279:\n        /* \"#utility.yul\":13911:13982   */\n      swap2\n      pop\n        /* \"#utility.yul\":13867:13992   */\n      pop\n        /* \"#utility.yul\":13654:13999   */\n      swap3\n      swap2\n      pop\n      pop\n      jump\t// out\n        /* \"#utility.yul\":14005:14447   */\n    tag_107:\n        /* \"#utility.yul\":14154:14158   */\n      0x00\n        /* \"#utility.yul\":14192:14194   */\n      0x60\n        /* \"#utility.yul\":14181:14190   */\n      dup3\n        /* \"#utility.yul\":14177:14195   */\n      add\n        /* \"#utility.yul\":14169:14195   */\n      swap1\n      pop\n        /* \"#utility.yul\":14205:14276   */\n      tag_281\n        /* \"#utility.yul\":14273:14274   */\n      0x00\n        /* \"#utility.yul\":14262:14271   */\n      dup4\n        /* \"#utility.yul\":14258:14275   */\n      add\n        /* \"#utility.yul\":14249:14255   */\n      dup7\n        /* \"#utility.yul\":14205:14276   */\n      tag_123\n      jump\t// in\n    tag_281:\n        /* \"#utility.yul\":14286:14358   */\n      tag_282\n        /* \"#utility.yul\":14354:14356   */\n      0x20\n        /* \"#utility.yul\":14343:14352   */\n      dup4\n        /* \"#utility.yul\":14339:14357   */\n      add\n        /* \"#utility.yul\":14330:14336   */\n      dup6\n        /* \"#utility.yul\":14286:14358   */\n      tag_123\n      jump\t// in\n    tag_282:\n        /* \"#utility.yul\":14368:14440   */\n      tag_283\n        /* \"#utility.yul\":14436:14438   */\n      0x40\n        /* \"#utility.yul\":14425:14434   */\n      dup4\n        /* \"#utility.yul\":14421:14439   */\n      add\n        /* \"#utility.yul\":14412:14418   */\n      dup5\n        /* \"#utility.yul\":14368:14440   */\n      tag_124\n      jump\t// in\n    tag_283:\n        /* \"#utility.yul\":14005:14447   */\n      swap5\n      swap4\n      pop\n      pop\n      pop\n      pop\n      jump\t// out\n        /* \"#utility.yul\":14453:14532   */\n    tag_154:\n        /* \"#utility.yul\":14492:14499   */\n      0x00\n        /* \"#utility.yul\":14521:14526   */\n      dup2\n        /* \"#utility.yul\":14510:14526   */\n      swap1\n      pop\n        /* \"#utility.yul\":14453:14532   */\n      swap2\n      swap1\n      pop\n      jump\t// out\n        /* \"#utility.yul\":14538:14695   */\n    tag_155:\n        /* \"#utility.yul\":14643:14688   */\n      tag_286\n        /* \"#utility.yul\":14663:14687   */\n      tag_287\n        /* \"#utility.yul\":14681:14686   */\n      dup3\n        /* \"#utility.yul\":14663:14687   */\n      tag_118\n      jump\t// in\n    tag_287:\n        /* \"#utility.yul\":14643:14688   */\n      tag_154\n      jump\t// in\n    tag_286:\n        /* \"#utility.yul\":14638:14641   */\n      dup3\n        /* \"#utility.yul\":14631:14689   */\n      mstore\n        /* \"#utility.yul\":14538:14695   */\n      pop\n      pop\n      jump\t// out\n        /* \"#utility.yul\":14701:15239   */\n    tag_114:\n        /* \"#utility.yul\":14869:14872   */\n      0x00\n        /* \"#utility.yul\":14884:14959   */\n      tag_289\n        /* \"#utility.yul\":14955:14958   */\n      dup3\n        /* \"#utility.yul\":14946:14952   */\n      dup7\n        /* \"#utility.yul\":14884:14959   */\n      tag_155\n      jump\t// in\n    tag_289:\n        /* \"#utility.yul\":14984:14986   */\n      0x20\n        /* \"#utility.yul\":14979:14982   */\n      dup3\n        /* \"#utility.yul\":14975:14987   */\n      add\n        /* \"#utility.yul\":14968:14987   */\n      swap2\n      pop\n        /* \"#utility.yul\":14997:15072   */\n      tag_290\n        /* \"#utility.yul\":15068:15071   */\n      dup3\n        /* \"#utility.yul\":15059:15065   */\n      dup6\n        /* \"#utility.yul\":14997:15072   */\n      tag_155\n      jump\t// in\n    tag_290:\n        /* \"#utility.yul\":15097:15099   */\n      0x20\n        /* \"#utility.yul\":15092:15095   */\n      dup3\n        /* \"#utility.yul\":15088:15100   */\n      add\n        /* \"#utility.yul\":15081:15100   */\n      swap2\n      pop\n        /* \"#utility.yul\":15110:15185   */\n      tag_291\n        /* \"#utility.yul\":15181:15184   */\n      dup3\n        /* \"#utility.yul\":15172:15178   */\n      dup5\n        /* \"#utility.yul\":15110:15185   */\n      tag_155\n      jump\t// in\n    tag_291:\n        /* \"#utility.yul\":15210:15212   */\n      0x20\n        /* \"#utility.yul\":15205:15208   */\n      dup3\n        /* \"#utility.yul\":15201:15213   */\n      add\n        /* \"#utility.yul\":15194:15213   */\n      swap2\n      pop\n        /* \"#utility.yul\":15230:15233   */\n      dup2\n        /* \"#utility.yul\":15223:15233   */\n      swap1\n      pop\n        /* \"#utility.yul\":14701:15239   */\n      swap5\n      swap4\n      pop\n      pop\n      pop\n      pop\n      jump\t// out\n\n    auxdata: 0xa264697066735822122000c4de67056588b96b92d233412b7e5c2749a0521d07cace4a0ff3226d56717a64736f6c63430008120033\n}\n",
				"bytecode": {
					"linkReferences": {},
					"object": "60806040523480156200001157600080fd5b50604051620014ad380380620014ad83398181016040528101906200003791906200013d565b336000806101000a81548173ffffffffffffffffffffffffffffffffffffffff021916908373ffffffffffffffffffffffffffffffffffffffff16021790555080600260006101000a81548173ffffffffffffffffffffffffffffffffffffffff021916908373ffffffffffffffffffffffffffffffffffffffff160217905550506200016f565b600080fd5b600073ffffffffffffffffffffffffffffffffffffffff82169050919050565b6000620000f182620000c4565b9050919050565b60006200010582620000e4565b9050919050565b6200011781620000f8565b81146200012357600080fd5b50565b60008151905062000137816200010c565b92915050565b600060208284031215620001565762000155620000bf565b5b6000620001668482850162000126565b91505092915050565b61132e806200017f6000396000f3fe608060405234801561001057600080fd5b506004361061007c5760003560e01c806352ef348a1161005b57806352ef348a146100d9578063dfbf53ae146100f5578063f851a44014610113578063fc0c546a146101315761007c565b80624fbbb01461008157806314034bd2146100b357806351a71b17146100bd575b600080fd5b61009b60048036038101906100969190610b7e565b61014f565b6040516100aa93929190610c16565b60405180910390f35b6100bb6101b6565b005b6100d760048036038101906100d29190610b7e565b61037a565b005b6100f360048036038101906100ee9190610b7e565b610893565b005b6100fd610a99565b60405161010a9190610c4d565b60405180910390f35b61011b610abf565b6040516101289190610c4d565b60405180910390f35b610139610ae3565b6040516101469190610cc7565b60405180910390f35b6003818154811061015f57600080fd5b90600052602060002090600302016000915090508060000160009054906101000a900473ffffffffffffffffffffffffffffffffffffffff16908060010154908060020160009054906101000a900460ff16905083565b3373ffffffffffffffffffffffffffffffffffffffff1660008054906101000a900473ffffffffffffffffffffffffffffffffffffffff1673ffffffffffffffffffffffffffffffffffffffff1614610244576040517f08c379a000000000000000000000000000000000000000000000000000000000815260040161023b90610d3f565b60405180910390fd5b600073ffffffffffffffffffffffffffffffffffffffff16600160009054906101000a900473ffffffffffffffffffffffffffffffffffffffff1673ffffffffffffffffffffffffffffffffffffffff16146102d5576040517f08c379a00000000000000000000000000000000000000000000000000000000081526004016102cc90610dab565b60405180910390fd5b60006003805490506102e5610b09565b6102ef9190610dfa565b90506003818154811061030557610304610e2b565b5b906000526020600020906003020160000160009054906101000a900473ffffffffffffffffffffffffffffffffffffffff16600160006101000a81548173ffffffffffffffffffffffffffffffffffffffff021916908373ffffffffffffffffffffffffffffffffffffffff16021790555050565b3373ffffffffffffffffffffffffffffffffffffffff1660008054906101000a900473ffffffffffffffffffffffffffffffffffffffff1673ffffffffffffffffffffffffffffffffffffffff1603610408576040517f08c379a00000000000000000000000000000000000000000000000000000000081526004016103ff90610ea6565b60405180910390fd5b600073ffffffffffffffffffffffffffffffffffffffff16600160009054906101000a900473ffffffffffffffffffffffffffffffffffffffff1673ffffffffffffffffffffffffffffffffffffffff1603610499576040517f08c379a000000000000000000000000000000000000000000000000000000000815260040161049090610f12565b60405180910390fd5b600381815481106104ad576104ac610e2b565b5b906000526020600020906003020160000160009054906101000a900473ffffffffffffffffffffffffffffffffffffffff1673ffffffffffffffffffffffffffffffffffffffff16600160009054906101000a900473ffffffffffffffffffffffffffffffffffffffff1673ffffffffffffffffffffffffffffffffffffffff161461056e576040517f08c379a000000000000000000000000000000000000000000000000000000000815260040161056590610f7e565b60405180910390fd5b3373ffffffffffffffffffffffffffffffffffffffff16600160009054906101000a900473ffffffffffffffffffffffffffffffffffffffff1673ffffffffffffffffffffffffffffffffffffffff16146105fe576040517f08c379a00000000000000000000000000000000000000000000000000000000081526004016105f590610fea565b60405180910390fd5b6003818154811061061257610611610e2b565b5b906000526020600020906003020160020160009054906101000a900460ff1615610671576040517f08c379a00000000000000000000000000000000000000000000000000000000081526004016106689061107c565b60405180910390fd5b600060026003838154811061068957610688610e2b565b5b9060005260206000209060030201600101546106a591906110cb565b905080600260009054906101000a900473ffffffffffffffffffffffffffffffffffffffff1673ffffffffffffffffffffffffffffffffffffffff166370a08231306040518263ffffffff1660e01b81526004016107039190610c4d565b602060405180830381865afa158015610720573d6000803e3d6000fd5b505050506040513d601f19601f820116820180604052508101906107449190611122565b1015610785576040517f08c379a000000000000000000000000000000000000000000000000000000000815260040161077c906111c1565b60405180910390fd5b600260009054906101000a900473ffffffffffffffffffffffffffffffffffffffff1673ffffffffffffffffffffffffffffffffffffffff1663a9059cbb33836040518363ffffffff1660e01b81526004016107e29291906111e1565b6020604051808303816000875af1158015610801573d6000803e3d6000fd5b505050506040513d601f19601f820116820180604052508101906108259190611236565b5060006003838154811061083c5761083b610e2b565b5b90600052602060002090600302016001018190555060016003838154811061086757610866610e2b565b5b906000526020600020906003020160020160006101000a81548160ff0219169083151502179055505050565b3373ffffffffffffffffffffffffffffffffffffffff1660008054906101000a900473ffffffffffffffffffffffffffffffffffffffff1673ffffffffffffffffffffffffffffffffffffffff1603610921576040517f08c379a000000000000000000000000000000000000000000000000000000000815260040161091890610ea6565b60405180910390fd5b600260009054906101000a900473ffffffffffffffffffffffffffffffffffffffff1673ffffffffffffffffffffffffffffffffffffffff166323b872dd3330846040518463ffffffff1660e01b815260040161098093929190611263565b6020604051808303816000875af115801561099f573d6000803e3d6000fd5b505050506040513d601f19601f820116820180604052508101906109c39190611236565b50600360405180606001604052803373ffffffffffffffffffffffffffffffffffffffff16815260200183815260200160001515815250908060018154018082558091505060019003906000526020600020906003020160009091909190915060008201518160000160006101000a81548173ffffffffffffffffffffffffffffffffffffffff021916908373ffffffffffffffffffffffffffffffffffffffff1602179055506020820151816001015560408201518160020160006101000a81548160ff021916908315150217905550505050565b600160009054906101000a900473ffffffffffffffffffffffffffffffffffffffff1681565b60008054906101000a900473ffffffffffffffffffffffffffffffffffffffff1681565b600260009054906101000a900473ffffffffffffffffffffffffffffffffffffffff1681565b60004442600380549050604051602001610b25939291906112bb565b6040516020818303038152906040528051906020012060001c905090565b600080fd5b6000819050919050565b610b5b81610b48565b8114610b6657600080fd5b50565b600081359050610b7881610b52565b92915050565b600060208284031215610b9457610b93610b43565b5b6000610ba284828501610b69565b91505092915050565b600073ffffffffffffffffffffffffffffffffffffffff82169050919050565b6000610bd682610bab565b9050919050565b610be681610bcb565b82525050565b610bf581610b48565b82525050565b60008115159050919050565b610c1081610bfb565b82525050565b6000606082019050610c2b6000830186610bdd565b610c386020830185610bec565b610c456040830184610c07565b949350505050565b6000602082019050610c626000830184610bdd565b92915050565b6000819050919050565b6000610c8d610c88610c8384610bab565b610c68565b610bab565b9050919050565b6000610c9f82610c72565b9050919050565b6000610cb182610c94565b9050919050565b610cc181610ca6565b82525050565b6000602082019050610cdc6000830184610cb8565b92915050565b600082825260208201905092915050565b7f596f7520646f6e2774206861766520616e206163636573730000000000000000600082015250565b6000610d29601883610ce2565b9150610d3482610cf3565b602082019050919050565b60006020820190508181036000830152610d5881610d1c565b9050919050565b7f57696e6e657220697320616c7265616479206465636c61726564000000000000600082015250565b6000610d95601a83610ce2565b9150610da082610d5f565b602082019050919050565b60006020820190508181036000830152610dc481610d88565b9050919050565b7f4e487b7100000000000000000000000000000000000000000000000000000000600052601260045260246000fd5b6000610e0582610b48565b9150610e1083610b48565b925082610e2057610e1f610dcb565b5b828206905092915050565b7f4e487b7100000000000000000000000000000000000000000000000000000000600052603260045260246000fd5b7f41646d696e20646f6e2774206861766520616e20616363657373000000000000600082015250565b6000610e90601a83610ce2565b9150610e9b82610e5a565b602082019050919050565b60006020820190508181036000830152610ebf81610e83565b9050919050565b7f57696e6e6572206e6f74206465636c6172656420796574000000000000000000600082015250565b6000610efc601783610ce2565b9150610f0782610ec6565b602082019050919050565b60006020820190508181036000830152610f2b81610eef565b9050919050565b7f596f7520617265206c6f6f73652c20747279206e6578742074696d6500000000600082015250565b6000610f68601c83610ce2565b9150610f7382610f32565b602082019050919050565b60006020820190508181036000830152610f9781610f5b565b9050919050565b7f596f752063616e206e6f7420636c69616d206f74686572732072657761726400600082015250565b6000610fd4601f83610ce2565b9150610fdf82610f9e565b602082019050919050565b6000602082019050818103600083015261100381610fc7565b9050919050565b7f596f75206861766520616c72656164792072656465656d20796f75722072657760008201527f6172640000000000000000000000000000000000000000000000000000000000602082015250565b6000611066602383610ce2565b91506110718261100a565b604082019050919050565b6000602082019050818103600083015261109581611059565b9050919050565b7f4e487b7100000000000000000000000000000000000000000000000000000000600052601160045260246000fd5b60006110d682610b48565b91506110e183610b48565b92508282026110ef81610b48565b915082820484148315176111065761110561109c565b5b5092915050565b60008151905061111c81610b52565b92915050565b60006020828403121561113857611137610b43565b5b60006111468482850161110d565b91505092915050565b7f436f6e747261637420646f6e2774206861766520656e6f67687420746f6b656e60008201527f7300000000000000000000000000000000000000000000000000000000000000602082015250565b60006111ab602183610ce2565b91506111b68261114f565b604082019050919050565b600060208201905081810360008301526111da8161119e565b9050919050565b60006040820190506111f66000830185610bdd565b6112036020830184610bec565b9392505050565b61121381610bfb565b811461121e57600080fd5b50565b6000815190506112308161120a565b92915050565b60006020828403121561124c5761124b610b43565b5b600061125a84828501611221565b91505092915050565b60006060820190506112786000830186610bdd565b6112856020830185610bdd565b6112926040830184610bec565b949350505050565b6000819050919050565b6112b56112b082610b48565b61129a565b82525050565b60006112c782866112a4565b6020820191506112d782856112a4565b6020820191506112e782846112a4565b60208201915081905094935050505056fea264697066735822122000c4de67056588b96b92d233412b7e5c2749a0521d07cace4a0ff3226d56717a64736f6c63430008120033",
					"opcodes": "PUSH1 0x80 PUSH1 0x40 MSTORE CALLVALUE DUP1 ISZERO PUSH3 0x11 JUMPI PUSH1 0x0 DUP1 REVERT JUMPDEST POP PUSH1 0x40 MLOAD PUSH3 0x14AD CODESIZE SUB DUP1 PUSH3 0x14AD DUP4 CODECOPY DUP2 DUP2 ADD PUSH1 0x40 MSTORE DUP2 ADD SWAP1 PUSH3 0x37 SWAP2 SWAP1 PUSH3 0x13D JUMP JUMPDEST CALLER PUSH1 0x0 DUP1 PUSH2 0x100 EXP DUP2 SLOAD DUP2 PUSH20 0xFFFFFFFFFFFFFFFFFFFFFFFFFFFFFFFFFFFFFFFF MUL NOT AND SWAP1 DUP4 PUSH20 0xFFFFFFFFFFFFFFFFFFFFFFFFFFFFFFFFFFFFFFFF AND MUL OR SWAP1 SSTORE POP DUP1 PUSH1 0x2 PUSH1 0x0 PUSH2 0x100 EXP DUP2 SLOAD DUP2 PUSH20 0xFFFFFFFFFFFFFFFFFFFFFFFFFFFFFFFFFFFFFFFF MUL NOT AND SWAP1 DUP4 PUSH20 0xFFFFFFFFFFFFFFFFFFFFFFFFFFFFFFFFFFFFFFFF AND MUL OR SWAP1 SSTORE POP POP PUSH3 0x16F JUMP JUMPDEST PUSH1 0x0 DUP1 REVERT JUMPDEST PUSH1 0x0 PUSH20 0xFFFFFFFFFFFFFFFFFFFFFFFFFFFFFFFFFFFFFFFF DUP3 AND SWAP1 POP SWAP2 SWAP1 POP JUMP JUMPDEST PUSH1 0x0 PUSH3 0xF1 DUP3 PUSH3 0xC4 JUMP JUMPDEST SWAP1 POP SWAP2 SWAP1 POP JUMP JUMPDEST PUSH1 0x0 PUSH3 0x105 DUP3 PUSH3 0xE4 JUMP JUMPDEST SWAP1 POP SWAP2 SWAP1 POP JUMP JUMPDEST PUSH3 0x117 DUP2 PUSH3 0xF8 JUMP JUMPDEST DUP2 EQ PUSH3 0x123 JUMPI PUSH1 0x0 DUP1 REVERT JUMPDEST POP JUMP JUMPDEST PUSH1 0x0 DUP2 MLOAD SWAP1 POP PUSH3 0x137 DUP2 PUSH3 0x10C JUMP JUMPDEST SWAP3 SWAP2 POP POP JUMP JUMPDEST PUSH1 0x0 PUSH1 0x20 DUP3 DUP5 SUB SLT ISZERO PUSH3 0x156 JUMPI PUSH3 0x155 PUSH3 0xBF JUMP JUMPDEST JUMPDEST PUSH1 0x0 PUSH3 0x166 DUP5 DUP3 DUP6 ADD PUSH3 0x126 JUMP JUMPDEST SWAP2 POP POP SWAP3 SWAP2 POP POP JUMP JUMPDEST PUSH2 0x132E DUP1 PUSH3 0x17F PUSH1 0x0 CODECOPY PUSH1 0x0 RETURN INVALID PUSH1 0x80 PUSH1 0x40 MSTORE CALLVALUE DUP1 ISZERO PUSH2 0x10 JUMPI PUSH1 0x0 DUP1 REVERT JUMPDEST POP PUSH1 0x4 CALLDATASIZE LT PUSH2 0x7C JUMPI PUSH1 0x0 CALLDATALOAD PUSH1 0xE0 SHR DUP1 PUSH4 0x52EF348A GT PUSH2 0x5B JUMPI DUP1 PUSH4 0x52EF348A EQ PUSH2 0xD9 JUMPI DUP1 PUSH4 0xDFBF53AE EQ PUSH2 0xF5 JUMPI DUP1 PUSH4 0xF851A440 EQ PUSH2 0x113 JUMPI DUP1 PUSH4 0xFC0C546A EQ PUSH2 0x131 JUMPI PUSH2 0x7C JUMP JUMPDEST DUP1 PUSH3 0x4FBBB0 EQ PUSH2 0x81 JUMPI DUP1 PUSH4 0x14034BD2 EQ PUSH2 0xB3 JUMPI DUP1 PUSH4 0x51A71B17 EQ PUSH2 0xBD JUMPI JUMPDEST PUSH1 0x0 DUP1 REVERT JUMPDEST PUSH2 0x9B PUSH1 0x4 DUP1 CALLDATASIZE SUB DUP2 ADD SWAP1 PUSH2 0x96 SWAP2 SWAP1 PUSH2 0xB7E JUMP JUMPDEST PUSH2 0x14F JUMP JUMPDEST PUSH1 0x40 MLOAD PUSH2 0xAA SWAP4 SWAP3 SWAP2 SWAP1 PUSH2 0xC16 JUMP JUMPDEST PUSH1 0x40 MLOAD DUP1 SWAP2 SUB SWAP1 RETURN JUMPDEST PUSH2 0xBB PUSH2 0x1B6 JUMP JUMPDEST STOP JUMPDEST PUSH2 0xD7 PUSH1 0x4 DUP1 CALLDATASIZE SUB DUP2 ADD SWAP1 PUSH2 0xD2 SWAP2 SWAP1 PUSH2 0xB7E JUMP JUMPDEST PUSH2 0x37A JUMP JUMPDEST STOP JUMPDEST PUSH2 0xF3 PUSH1 0x4 DUP1 CALLDATASIZE SUB DUP2 ADD SWAP1 PUSH2 0xEE SWAP2 SWAP1 PUSH2 0xB7E JUMP JUMPDEST PUSH2 0x893 JUMP JUMPDEST STOP JUMPDEST PUSH2 0xFD PUSH2 0xA99 JUMP JUMPDEST PUSH1 0x40 MLOAD PUSH2 0x10A SWAP2 SWAP1 PUSH2 0xC4D JUMP JUMPDEST PUSH1 0x40 MLOAD DUP1 SWAP2 SUB SWAP1 RETURN JUMPDEST PUSH2 0x11B PUSH2 0xABF JUMP JUMPDEST PUSH1 0x40 MLOAD PUSH2 0x128 SWAP2 SWAP1 PUSH2 0xC4D JUMP JUMPDEST PUSH1 0x40 MLOAD DUP1 SWAP2 SUB SWAP1 RETURN JUMPDEST PUSH2 0x139 PUSH2 0xAE3 JUMP JUMPDEST PUSH1 0x40 MLOAD PUSH2 0x146 SWAP2 SWAP1 PUSH2 0xCC7 JUMP JUMPDEST PUSH1 0x40 MLOAD DUP1 SWAP2 SUB SWAP1 RETURN JUMPDEST PUSH1 0x3 DUP2 DUP2 SLOAD DUP2 LT PUSH2 0x15F JUMPI PUSH1 0x0 DUP1 REVERT JUMPDEST SWAP1 PUSH1 0x0 MSTORE PUSH1 0x20 PUSH1 0x0 KECCAK256 SWAP1 PUSH1 0x3 MUL ADD PUSH1 0x0 SWAP2 POP SWAP1 POP DUP1 PUSH1 0x0 ADD PUSH1 0x0 SWAP1 SLOAD SWAP1 PUSH2 0x100 EXP SWAP1 DIV PUSH20 0xFFFFFFFFFFFFFFFFFFFFFFFFFFFFFFFFFFFFFFFF AND SWAP1 DUP1 PUSH1 0x1 ADD SLOAD SWAP1 DUP1 PUSH1 0x2 ADD PUSH1 0x0 SWAP1 SLOAD SWAP1 PUSH2 0x100 EXP SWAP1 DIV PUSH1 0xFF AND SWAP1 POP DUP4 JUMP JUMPDEST CALLER PUSH20 0xFFFFFFFFFFFFFFFFFFFFFFFFFFFFFFFFFFFFFFFF AND PUSH1 0x0 DUP1 SLOAD SWAP1 PUSH2 0x100 EXP SWAP1 DIV PUSH20 0xFFFFFFFFFFFFFFFFFFFFFFFFFFFFFFFFFFFFFFFF AND PUSH20 0xFFFFFFFFFFFFFFFFFFFFFFFFFFFFFFFFFFFFFFFF AND EQ PUSH2 0x244 JUMPI PUSH1 0x40 MLOAD PUSH32 0x8C379A000000000000000000000000000000000000000000000000000000000 DUP2 MSTORE PUSH1 0x4 ADD PUSH2 0x23B SWAP1 PUSH2 0xD3F JUMP JUMPDEST PUSH1 0x40 MLOAD DUP1 SWAP2 SUB SWAP1 REVERT JUMPDEST PUSH1 0x0 PUSH20 0xFFFFFFFFFFFFFFFFFFFFFFFFFFFFFFFFFFFFFFFF AND PUSH1 0x1 PUSH1 0x0 SWAP1 SLOAD SWAP1 PUSH2 0x100 EXP SWAP1 DIV PUSH20 0xFFFFFFFFFFFFFFFFFFFFFFFFFFFFFFFFFFFFFFFF AND PUSH20 0xFFFFFFFFFFFFFFFFFFFFFFFFFFFFFFFFFFFFFFFF AND EQ PUSH2 0x2D5 JUMPI PUSH1 0x40 MLOAD PUSH32 0x8C379A000000000000000000000000000000000000000000000000000000000 DUP2 MSTORE PUSH1 0x4 ADD PUSH2 0x2CC SWAP1 PUSH2 0xDAB JUMP JUMPDEST PUSH1 0x40 MLOAD DUP1 SWAP2 SUB SWAP1 REVERT JUMPDEST PUSH1 0x0 PUSH1 0x3 DUP1 SLOAD SWAP1 POP PUSH2 0x2E5 PUSH2 0xB09 JUMP JUMPDEST PUSH2 0x2EF SWAP2 SWAP1 PUSH2 0xDFA JUMP JUMPDEST SWAP1 POP PUSH1 0x3 DUP2 DUP2 SLOAD DUP2 LT PUSH2 0x305 JUMPI PUSH2 0x304 PUSH2 0xE2B JUMP JUMPDEST JUMPDEST SWAP1 PUSH1 0x0 MSTORE PUSH1 0x20 PUSH1 0x0 KECCAK256 SWAP1 PUSH1 0x3 MUL ADD PUSH1 0x0 ADD PUSH1 0x0 SWAP1 SLOAD SWAP1 PUSH2 0x100 EXP SWAP1 DIV PUSH20 0xFFFFFFFFFFFFFFFFFFFFFFFFFFFFFFFFFFFFFFFF AND PUSH1 0x1 PUSH1 0x0 PUSH2 0x100 EXP DUP2 SLOAD DUP2 PUSH20 0xFFFFFFFFFFFFFFFFFFFFFFFFFFFFFFFFFFFFFFFF MUL NOT AND SWAP1 DUP4 PUSH20 0xFFFFFFFFFFFFFFFFFFFFFFFFFFFFFFFFFFFFFFFF AND MUL OR SWAP1 SSTORE POP POP JUMP JUMPDEST CALLER PUSH20 0xFFFFFFFFFFFFFFFFFFFFFFFFFFFFFFFFFFFFFFFF AND PUSH1 0x0 DUP1 SLOAD SWAP1 PUSH2 0x100 EXP SWAP1 DIV PUSH20 0xFFFFFFFFFFFFFFFFFFFFFFFFFFFFFFFFFFFFFFFF AND PUSH20 0xFFFFFFFFFFFFFFFFFFFFFFFFFFFFFFFFFFFFFFFF AND SUB PUSH2 0x408 JUMPI PUSH1 0x40 MLOAD PUSH32 0x8C379A000000000000000000000000000000000000000000000000000000000 DUP2 MSTORE PUSH1 0x4 ADD PUSH2 0x3FF SWAP1 PUSH2 0xEA6 JUMP JUMPDEST PUSH1 0x40 MLOAD DUP1 SWAP2 SUB SWAP1 REVERT JUMPDEST PUSH1 0x0 PUSH20 0xFFFFFFFFFFFFFFFFFFFFFFFFFFFFFFFFFFFFFFFF AND PUSH1 0x1 PUSH1 0x0 SWAP1 SLOAD SWAP1 PUSH2 0x100 EXP SWAP1 DIV PUSH20 0xFFFFFFFFFFFFFFFFFFFFFFFFFFFFFFFFFFFFFFFF AND PUSH20 0xFFFFFFFFFFFFFFFFFFFFFFFFFFFFFFFFFFFFFFFF AND SUB PUSH2 0x499 JUMPI PUSH1 0x40 MLOAD PUSH32 0x8C379A000000000000000000000000000000000000000000000000000000000 DUP2 MSTORE PUSH1 0x4 ADD PUSH2 0x490 SWAP1 PUSH2 0xF12 JUMP JUMPDEST PUSH1 0x40 MLOAD DUP1 SWAP2 SUB SWAP1 REVERT JUMPDEST PUSH1 0x3 DUP2 DUP2 SLOAD DUP2 LT PUSH2 0x4AD JUMPI PUSH2 0x4AC PUSH2 0xE2B JUMP JUMPDEST JUMPDEST SWAP1 PUSH1 0x0 MSTORE PUSH1 0x20 PUSH1 0x0 KECCAK256 SWAP1 PUSH1 0x3 MUL ADD PUSH1 0x0 ADD PUSH1 0x0 SWAP1 SLOAD SWAP1 PUSH2 0x100 EXP SWAP1 DIV PUSH20 0xFFFFFFFFFFFFFFFFFFFFFFFFFFFFFFFFFFFFFFFF AND PUSH20 0xFFFFFFFFFFFFFFFFFFFFFFFFFFFFFFFFFFFFFFFF AND PUSH1 0x1 PUSH1 0x0 SWAP1 SLOAD SWAP1 PUSH2 0x100 EXP SWAP1 DIV PUSH20 0xFFFFFFFFFFFFFFFFFFFFFFFFFFFFFFFFFFFFFFFF AND PUSH20 0xFFFFFFFFFFFFFFFFFFFFFFFFFFFFFFFFFFFFFFFF AND EQ PUSH2 0x56E JUMPI PUSH1 0x40 MLOAD PUSH32 0x8C379A000000000000000000000000000000000000000000000000000000000 DUP2 MSTORE PUSH1 0x4 ADD PUSH2 0x565 SWAP1 PUSH2 0xF7E JUMP JUMPDEST PUSH1 0x40 MLOAD DUP1 SWAP2 SUB SWAP1 REVERT JUMPDEST CALLER PUSH20 0xFFFFFFFFFFFFFFFFFFFFFFFFFFFFFFFFFFFFFFFF AND PUSH1 0x1 PUSH1 0x0 SWAP1 SLOAD SWAP1 PUSH2 0x100 EXP SWAP1 DIV PUSH20 0xFFFFFFFFFFFFFFFFFFFFFFFFFFFFFFFFFFFFFFFF AND PUSH20 0xFFFFFFFFFFFFFFFFFFFFFFFFFFFFFFFFFFFFFFFF AND EQ PUSH2 0x5FE JUMPI PUSH1 0x40 MLOAD PUSH32 0x8C379A000000000000000000000000000000000000000000000000000000000 DUP2 MSTORE PUSH1 0x4 ADD PUSH2 0x5F5 SWAP1 PUSH2 0xFEA JUMP JUMPDEST PUSH1 0x40 MLOAD DUP1 SWAP2 SUB SWAP1 REVERT JUMPDEST PUSH1 0x3 DUP2 DUP2 SLOAD DUP2 LT PUSH2 0x612 JUMPI PUSH2 0x611 PUSH2 0xE2B JUMP JUMPDEST JUMPDEST SWAP1 PUSH1 0x0 MSTORE PUSH1 0x20 PUSH1 0x0 KECCAK256 SWAP1 PUSH1 0x3 MUL ADD PUSH1 0x2 ADD PUSH1 0x0 SWAP1 SLOAD SWAP1 PUSH2 0x100 EXP SWAP1 DIV PUSH1 0xFF AND ISZERO PUSH2 0x671 JUMPI PUSH1 0x40 MLOAD PUSH32 0x8C379A000000000000000000000000000000000000000000000000000000000 DUP2 MSTORE PUSH1 0x4 ADD PUSH2 0x668 SWAP1 PUSH2 0x107C JUMP JUMPDEST PUSH1 0x40 MLOAD DUP1 SWAP2 SUB SWAP1 REVERT JUMPDEST PUSH1 0x0 PUSH1 0x2 PUSH1 0x3 DUP4 DUP2 SLOAD DUP2 LT PUSH2 0x689 JUMPI PUSH2 0x688 PUSH2 0xE2B JUMP JUMPDEST JUMPDEST SWAP1 PUSH1 0x0 MSTORE PUSH1 0x20 PUSH1 0x0 KECCAK256 SWAP1 PUSH1 0x3 MUL ADD PUSH1 0x1 ADD SLOAD PUSH2 0x6A5 SWAP2 SWAP1 PUSH2 0x10CB JUMP JUMPDEST SWAP1 POP DUP1 PUSH1 0x2 PUSH1 0x0 SWAP1 SLOAD SWAP1 PUSH2 0x100 EXP SWAP1 DIV PUSH20 0xFFFFFFFFFFFFFFFFFFFFFFFFFFFFFFFFFFFFFFFF AND PUSH20 0xFFFFFFFFFFFFFFFFFFFFFFFFFFFFFFFFFFFFFFFF AND PUSH4 0x70A08231 ADDRESS PUSH1 0x40 MLOAD DUP3 PUSH4 0xFFFFFFFF AND PUSH1 0xE0 SHL DUP2 MSTORE PUSH1 0x4 ADD PUSH2 0x703 SWAP2 SWAP1 PUSH2 0xC4D JUMP JUMPDEST PUSH1 0x20 PUSH1 0x40 MLOAD DUP1 DUP4 SUB DUP2 DUP7 GAS STATICCALL ISZERO DUP1 ISZERO PUSH2 0x720 JUMPI RETURNDATASIZE PUSH1 0x0 DUP1 RETURNDATACOPY RETURNDATASIZE PUSH1 0x0 REVERT JUMPDEST POP POP POP POP PUSH1 0x40 MLOAD RETURNDATASIZE PUSH1 0x1F NOT PUSH1 0x1F DUP3 ADD AND DUP3 ADD DUP1 PUSH1 0x40 MSTORE POP DUP2 ADD SWAP1 PUSH2 0x744 SWAP2 SWAP1 PUSH2 0x1122 JUMP JUMPDEST LT ISZERO PUSH2 0x785 JUMPI PUSH1 0x40 MLOAD PUSH32 0x8C379A000000000000000000000000000000000000000000000000000000000 DUP2 MSTORE PUSH1 0x4 ADD PUSH2 0x77C SWAP1 PUSH2 0x11C1 JUMP JUMPDEST PUSH1 0x40 MLOAD DUP1 SWAP2 SUB SWAP1 REVERT JUMPDEST PUSH1 0x2 PUSH1 0x0 SWAP1 SLOAD SWAP1 PUSH2 0x100 EXP SWAP1 DIV PUSH20 0xFFFFFFFFFFFFFFFFFFFFFFFFFFFFFFFFFFFFFFFF AND PUSH20 0xFFFFFFFFFFFFFFFFFFFFFFFFFFFFFFFFFFFFFFFF AND PUSH4 0xA9059CBB CALLER DUP4 PUSH1 0x40 MLOAD DUP4 PUSH4 0xFFFFFFFF AND PUSH1 0xE0 SHL DUP2 MSTORE PUSH1 0x4 ADD PUSH2 0x7E2 SWAP3 SWAP2 SWAP1 PUSH2 0x11E1 JUMP JUMPDEST PUSH1 0x20 PUSH1 0x40 MLOAD DUP1 DUP4 SUB DUP2 PUSH1 0x0 DUP8 GAS CALL ISZERO DUP1 ISZERO PUSH2 0x801 JUMPI RETURNDATASIZE PUSH1 0x0 DUP1 RETURNDATACOPY RETURNDATASIZE PUSH1 0x0 REVERT JUMPDEST POP POP POP POP PUSH1 0x40 MLOAD RETURNDATASIZE PUSH1 0x1F NOT PUSH1 0x1F DUP3 ADD AND DUP3 ADD DUP1 PUSH1 0x40 MSTORE POP DUP2 ADD SWAP1 PUSH2 0x825 SWAP2 SWAP1 PUSH2 0x1236 JUMP JUMPDEST POP PUSH1 0x0 PUSH1 0x3 DUP4 DUP2 SLOAD DUP2 LT PUSH2 0x83C JUMPI PUSH2 0x83B PUSH2 0xE2B JUMP JUMPDEST JUMPDEST SWAP1 PUSH1 0x0 MSTORE PUSH1 0x20 PUSH1 0x0 KECCAK256 SWAP1 PUSH1 0x3 MUL ADD PUSH1 0x1 ADD DUP2 SWAP1 SSTORE POP PUSH1 0x1 PUSH1 0x3 DUP4 DUP2 SLOAD DUP2 LT PUSH2 0x867 JUMPI PUSH2 0x866 PUSH2 0xE2B JUMP JUMPDEST JUMPDEST SWAP1 PUSH1 0x0 MSTORE PUSH1 0x20 PUSH1 0x0 KECCAK256 SWAP1 PUSH1 0x3 MUL ADD PUSH1 0x2 ADD PUSH1 0x0 PUSH2 0x100 EXP DUP2 SLOAD DUP2 PUSH1 0xFF MUL NOT AND SWAP1 DUP4 ISZERO ISZERO MUL OR SWAP1 SSTORE POP POP POP JUMP JUMPDEST CALLER PUSH20 0xFFFFFFFFFFFFFFFFFFFFFFFFFFFFFFFFFFFFFFFF AND PUSH1 0x0 DUP1 SLOAD SWAP1 PUSH2 0x100 EXP SWAP1 DIV PUSH20 0xFFFFFFFFFFFFFFFFFFFFFFFFFFFFFFFFFFFFFFFF AND PUSH20 0xFFFFFFFFFFFFFFFFFFFFFFFFFFFFFFFFFFFFFFFF AND SUB PUSH2 0x921 JUMPI PUSH1 0x40 MLOAD PUSH32 0x8C379A000000000000000000000000000000000000000000000000000000000 DUP2 MSTORE PUSH1 0x4 ADD PUSH2 0x918 SWAP1 PUSH2 0xEA6 JUMP JUMPDEST PUSH1 0x40 MLOAD DUP1 SWAP2 SUB SWAP1 REVERT JUMPDEST PUSH1 0x2 PUSH1 0x0 SWAP1 SLOAD SWAP1 PUSH2 0x100 EXP SWAP1 DIV PUSH20 0xFFFFFFFFFFFFFFFFFFFFFFFFFFFFFFFFFFFFFFFF AND PUSH20 0xFFFFFFFFFFFFFFFFFFFFFFFFFFFFFFFFFFFFFFFF AND PUSH4 0x23B872DD CALLER ADDRESS DUP5 PUSH1 0x40 MLOAD DUP5 PUSH4 0xFFFFFFFF AND PUSH1 0xE0 SHL DUP2 MSTORE PUSH1 0x4 ADD PUSH2 0x980 SWAP4 SWAP3 SWAP2 SWAP1 PUSH2 0x1263 JUMP JUMPDEST PUSH1 0x20 PUSH1 0x40 MLOAD DUP1 DUP4 SUB DUP2 PUSH1 0x0 DUP8 GAS CALL ISZERO DUP1 ISZERO PUSH2 0x99F JUMPI RETURNDATASIZE PUSH1 0x0 DUP1 RETURNDATACOPY RETURNDATASIZE PUSH1 0x0 REVERT JUMPDEST POP POP POP POP PUSH1 0x40 MLOAD RETURNDATASIZE PUSH1 0x1F NOT PUSH1 0x1F DUP3 ADD AND DUP3 ADD DUP1 PUSH1 0x40 MSTORE POP DUP2 ADD SWAP1 PUSH2 0x9C3 SWAP2 SWAP1 PUSH2 0x1236 JUMP JUMPDEST POP PUSH1 0x3 PUSH1 0x40 MLOAD DUP1 PUSH1 0x60 ADD PUSH1 0x40 MSTORE DUP1 CALLER PUSH20 0xFFFFFFFFFFFFFFFFFFFFFFFFFFFFFFFFFFFFFFFF AND DUP2 MSTORE PUSH1 0x20 ADD DUP4 DUP2 MSTORE PUSH1 0x20 ADD PUSH1 0x0 ISZERO ISZERO DUP2 MSTORE POP SWAP1 DUP1 PUSH1 0x1 DUP2 SLOAD ADD DUP1 DUP3 SSTORE DUP1 SWAP2 POP POP PUSH1 0x1 SWAP1 SUB SWAP1 PUSH1 0x0 MSTORE PUSH1 0x20 PUSH1 0x0 KECCAK256 SWAP1 PUSH1 0x3 MUL ADD PUSH1 0x0 SWAP1 SWAP2 SWAP1 SWAP2 SWAP1 SWAP2 POP PUSH1 0x0 DUP3 ADD MLOAD DUP2 PUSH1 0x0 ADD PUSH1 0x0 PUSH2 0x100 EXP DUP2 SLOAD DUP2 PUSH20 0xFFFFFFFFFFFFFFFFFFFFFFFFFFFFFFFFFFFFFFFF MUL NOT AND SWAP1 DUP4 PUSH20 0xFFFFFFFFFFFFFFFFFFFFFFFFFFFFFFFFFFFFFFFF AND MUL OR SWAP1 SSTORE POP PUSH1 0x20 DUP3 ADD MLOAD DUP2 PUSH1 0x1 ADD SSTORE PUSH1 0x40 DUP3 ADD MLOAD DUP2 PUSH1 0x2 ADD PUSH1 0x0 PUSH2 0x100 EXP DUP2 SLOAD DUP2 PUSH1 0xFF MUL NOT AND SWAP1 DUP4 ISZERO ISZERO MUL OR SWAP1 SSTORE POP POP POP POP JUMP JUMPDEST PUSH1 0x1 PUSH1 0x0 SWAP1 SLOAD SWAP1 PUSH2 0x100 EXP SWAP1 DIV PUSH20 0xFFFFFFFFFFFFFFFFFFFFFFFFFFFFFFFFFFFFFFFF AND DUP2 JUMP JUMPDEST PUSH1 0x0 DUP1 SLOAD SWAP1 PUSH2 0x100 EXP SWAP1 DIV PUSH20 0xFFFFFFFFFFFFFFFFFFFFFFFFFFFFFFFFFFFFFFFF AND DUP2 JUMP JUMPDEST PUSH1 0x2 PUSH1 0x0 SWAP1 SLOAD SWAP1 PUSH2 0x100 EXP SWAP1 DIV PUSH20 0xFFFFFFFFFFFFFFFFFFFFFFFFFFFFFFFFFFFFFFFF AND DUP2 JUMP JUMPDEST PUSH1 0x0 PREVRANDAO TIMESTAMP PUSH1 0x3 DUP1 SLOAD SWAP1 POP PUSH1 0x40 MLOAD PUSH1 0x20 ADD PUSH2 0xB25 SWAP4 SWAP3 SWAP2 SWAP1 PUSH2 0x12BB JUMP JUMPDEST PUSH1 0x40 MLOAD PUSH1 0x20 DUP2 DUP4 SUB SUB DUP2 MSTORE SWAP1 PUSH1 0x40 MSTORE DUP1 MLOAD SWAP1 PUSH1 0x20 ADD KECCAK256 PUSH1 0x0 SHR SWAP1 POP SWAP1 JUMP JUMPDEST PUSH1 0x0 DUP1 REVERT JUMPDEST PUSH1 0x0 DUP2 SWAP1 POP SWAP2 SWAP1 POP JUMP JUMPDEST PUSH2 0xB5B DUP2 PUSH2 0xB48 JUMP JUMPDEST DUP2 EQ PUSH2 0xB66 JUMPI PUSH1 0x0 DUP1 REVERT JUMPDEST POP JUMP JUMPDEST PUSH1 0x0 DUP2 CALLDATALOAD SWAP1 POP PUSH2 0xB78 DUP2 PUSH2 0xB52 JUMP JUMPDEST SWAP3 SWAP2 POP POP JUMP JUMPDEST PUSH1 0x0 PUSH1 0x20 DUP3 DUP5 SUB SLT ISZERO PUSH2 0xB94 JUMPI PUSH2 0xB93 PUSH2 0xB43 JUMP JUMPDEST JUMPDEST PUSH1 0x0 PUSH2 0xBA2 DUP5 DUP3 DUP6 ADD PUSH2 0xB69 JUMP JUMPDEST SWAP2 POP POP SWAP3 SWAP2 POP POP JUMP JUMPDEST PUSH1 0x0 PUSH20 0xFFFFFFFFFFFFFFFFFFFFFFFFFFFFFFFFFFFFFFFF DUP3 AND SWAP1 POP SWAP2 SWAP1 POP JUMP JUMPDEST PUSH1 0x0 PUSH2 0xBD6 DUP3 PUSH2 0xBAB JUMP JUMPDEST SWAP1 POP SWAP2 SWAP1 POP JUMP JUMPDEST PUSH2 0xBE6 DUP2 PUSH2 0xBCB JUMP JUMPDEST DUP3 MSTORE POP POP JUMP JUMPDEST PUSH2 0xBF5 DUP2 PUSH2 0xB48 JUMP JUMPDEST DUP3 MSTORE POP POP JUMP JUMPDEST PUSH1 0x0 DUP2 ISZERO ISZERO SWAP1 POP SWAP2 SWAP1 POP JUMP JUMPDEST PUSH2 0xC10 DUP2 PUSH2 0xBFB JUMP JUMPDEST DUP3 MSTORE POP POP JUMP JUMPDEST PUSH1 0x0 PUSH1 0x60 DUP3 ADD SWAP1 POP PUSH2 0xC2B PUSH1 0x0 DUP4 ADD DUP7 PUSH2 0xBDD JUMP JUMPDEST PUSH2 0xC38 PUSH1 0x20 DUP4 ADD DUP6 PUSH2 0xBEC JUMP JUMPDEST PUSH2 0xC45 PUSH1 0x40 DUP4 ADD DUP5 PUSH2 0xC07 JUMP JUMPDEST SWAP5 SWAP4 POP POP POP POP JUMP JUMPDEST PUSH1 0x0 PUSH1 0x20 DUP3 ADD SWAP1 POP PUSH2 0xC62 PUSH1 0x0 DUP4 ADD DUP5 PUSH2 0xBDD JUMP JUMPDEST SWAP3 SWAP2 POP POP JUMP JUMPDEST PUSH1 0x0 DUP2 SWAP1 POP SWAP2 SWAP1 POP JUMP JUMPDEST PUSH1 0x0 PUSH2 0xC8D PUSH2 0xC88 PUSH2 0xC83 DUP5 PUSH2 0xBAB JUMP JUMPDEST PUSH2 0xC68 JUMP JUMPDEST PUSH2 0xBAB JUMP JUMPDEST SWAP1 POP SWAP2 SWAP1 POP JUMP JUMPDEST PUSH1 0x0 PUSH2 0xC9F DUP3 PUSH2 0xC72 JUMP JUMPDEST SWAP1 POP SWAP2 SWAP1 POP JUMP JUMPDEST PUSH1 0x0 PUSH2 0xCB1 DUP3 PUSH2 0xC94 JUMP JUMPDEST SWAP1 POP SWAP2 SWAP1 POP JUMP JUMPDEST PUSH2 0xCC1 DUP2 PUSH2 0xCA6 JUMP JUMPDEST DUP3 MSTORE POP POP JUMP JUMPDEST PUSH1 0x0 PUSH1 0x20 DUP3 ADD SWAP1 POP PUSH2 0xCDC PUSH1 0x0 DUP4 ADD DUP5 PUSH2 0xCB8 JUMP JUMPDEST SWAP3 SWAP2 POP POP JUMP JUMPDEST PUSH1 0x0 DUP3 DUP3 MSTORE PUSH1 0x20 DUP3 ADD SWAP1 POP SWAP3 SWAP2 POP POP JUMP JUMPDEST PUSH32 0x596F7520646F6E2774206861766520616E206163636573730000000000000000 PUSH1 0x0 DUP3 ADD MSTORE POP JUMP JUMPDEST PUSH1 0x0 PUSH2 0xD29 PUSH1 0x18 DUP4 PUSH2 0xCE2 JUMP JUMPDEST SWAP2 POP PUSH2 0xD34 DUP3 PUSH2 0xCF3 JUMP JUMPDEST PUSH1 0x20 DUP3 ADD SWAP1 POP SWAP2 SWAP1 POP JUMP JUMPDEST PUSH1 0x0 PUSH1 0x20 DUP3 ADD SWAP1 POP DUP2 DUP2 SUB PUSH1 0x0 DUP4 ADD MSTORE PUSH2 0xD58 DUP2 PUSH2 0xD1C JUMP JUMPDEST SWAP1 POP SWAP2 SWAP1 POP JUMP JUMPDEST PUSH32 0x57696E6E657220697320616C7265616479206465636C61726564000000000000 PUSH1 0x0 DUP3 ADD MSTORE POP JUMP JUMPDEST PUSH1 0x0 PUSH2 0xD95 PUSH1 0x1A DUP4 PUSH2 0xCE2 JUMP JUMPDEST SWAP2 POP PUSH2 0xDA0 DUP3 PUSH2 0xD5F JUMP JUMPDEST PUSH1 0x20 DUP3 ADD SWAP1 POP SWAP2 SWAP1 POP JUMP JUMPDEST PUSH1 0x0 PUSH1 0x20 DUP3 ADD SWAP1 POP DUP2 DUP2 SUB PUSH1 0x0 DUP4 ADD MSTORE PUSH2 0xDC4 DUP2 PUSH2 0xD88 JUMP JUMPDEST SWAP1 POP SWAP2 SWAP1 POP JUMP JUMPDEST PUSH32 0x4E487B7100000000000000000000000000000000000000000000000000000000 PUSH1 0x0 MSTORE PUSH1 0x12 PUSH1 0x4 MSTORE PUSH1 0x24 PUSH1 0x0 REVERT JUMPDEST PUSH1 0x0 PUSH2 0xE05 DUP3 PUSH2 0xB48 JUMP JUMPDEST SWAP2 POP PUSH2 0xE10 DUP4 PUSH2 0xB48 JUMP JUMPDEST SWAP3 POP DUP3 PUSH2 0xE20 JUMPI PUSH2 0xE1F PUSH2 0xDCB JUMP JUMPDEST JUMPDEST DUP3 DUP3 MOD SWAP1 POP SWAP3 SWAP2 POP POP JUMP JUMPDEST PUSH32 0x4E487B7100000000000000000000000000000000000000000000000000000000 PUSH1 0x0 MSTORE PUSH1 0x32 PUSH1 0x4 MSTORE PUSH1 0x24 PUSH1 0x0 REVERT JUMPDEST PUSH32 0x41646D696E20646F6E2774206861766520616E20616363657373000000000000 PUSH1 0x0 DUP3 ADD MSTORE POP JUMP JUMPDEST PUSH1 0x0 PUSH2 0xE90 PUSH1 0x1A DUP4 PUSH2 0xCE2 JUMP JUMPDEST SWAP2 POP PUSH2 0xE9B DUP3 PUSH2 0xE5A JUMP JUMPDEST PUSH1 0x20 DUP3 ADD SWAP1 POP SWAP2 SWAP1 POP JUMP JUMPDEST PUSH1 0x0 PUSH1 0x20 DUP3 ADD SWAP1 POP DUP2 DUP2 SUB PUSH1 0x0 DUP4 ADD MSTORE PUSH2 0xEBF DUP2 PUSH2 0xE83 JUMP JUMPDEST SWAP1 POP SWAP2 SWAP1 POP JUMP JUMPDEST PUSH32 0x57696E6E6572206E6F74206465636C6172656420796574000000000000000000 PUSH1 0x0 DUP3 ADD MSTORE POP JUMP JUMPDEST PUSH1 0x0 PUSH2 0xEFC PUSH1 0x17 DUP4 PUSH2 0xCE2 JUMP JUMPDEST SWAP2 POP PUSH2 0xF07 DUP3 PUSH2 0xEC6 JUMP JUMPDEST PUSH1 0x20 DUP3 ADD SWAP1 POP SWAP2 SWAP1 POP JUMP JUMPDEST PUSH1 0x0 PUSH1 0x20 DUP3 ADD SWAP1 POP DUP2 DUP2 SUB PUSH1 0x0 DUP4 ADD MSTORE PUSH2 0xF2B DUP2 PUSH2 0xEEF JUMP JUMPDEST SWAP1 POP SWAP2 SWAP1 POP JUMP JUMPDEST PUSH32 0x596F7520617265206C6F6F73652C20747279206E6578742074696D6500000000 PUSH1 0x0 DUP3 ADD MSTORE POP JUMP JUMPDEST PUSH1 0x0 PUSH2 0xF68 PUSH1 0x1C DUP4 PUSH2 0xCE2 JUMP JUMPDEST SWAP2 POP PUSH2 0xF73 DUP3 PUSH2 0xF32 JUMP JUMPDEST PUSH1 0x20 DUP3 ADD SWAP1 POP SWAP2 SWAP1 POP JUMP JUMPDEST PUSH1 0x0 PUSH1 0x20 DUP3 ADD SWAP1 POP DUP2 DUP2 SUB PUSH1 0x0 DUP4 ADD MSTORE PUSH2 0xF97 DUP2 PUSH2 0xF5B JUMP JUMPDEST SWAP1 POP SWAP2 SWAP1 POP JUMP JUMPDEST PUSH32 0x596F752063616E206E6F7420636C69616D206F74686572732072657761726400 PUSH1 0x0 DUP3 ADD MSTORE POP JUMP JUMPDEST PUSH1 0x0 PUSH2 0xFD4 PUSH1 0x1F DUP4 PUSH2 0xCE2 JUMP JUMPDEST SWAP2 POP PUSH2 0xFDF DUP3 PUSH2 0xF9E JUMP JUMPDEST PUSH1 0x20 DUP3 ADD SWAP1 POP SWAP2 SWAP1 POP JUMP JUMPDEST PUSH1 0x0 PUSH1 0x20 DUP3 ADD SWAP1 POP DUP2 DUP2 SUB PUSH1 0x0 DUP4 ADD MSTORE PUSH2 0x1003 DUP2 PUSH2 0xFC7 JUMP JUMPDEST SWAP1 POP SWAP2 SWAP1 POP JUMP JUMPDEST PUSH32 0x596F75206861766520616C72656164792072656465656D20796F757220726577 PUSH1 0x0 DUP3 ADD MSTORE PUSH32 0x6172640000000000000000000000000000000000000000000000000000000000 PUSH1 0x20 DUP3 ADD MSTORE POP JUMP JUMPDEST PUSH1 0x0 PUSH2 0x1066 PUSH1 0x23 DUP4 PUSH2 0xCE2 JUMP JUMPDEST SWAP2 POP PUSH2 0x1071 DUP3 PUSH2 0x100A JUMP JUMPDEST PUSH1 0x40 DUP3 ADD SWAP1 POP SWAP2 SWAP1 POP JUMP JUMPDEST PUSH1 0x0 PUSH1 0x20 DUP3 ADD SWAP1 POP DUP2 DUP2 SUB PUSH1 0x0 DUP4 ADD MSTORE PUSH2 0x1095 DUP2 PUSH2 0x1059 JUMP JUMPDEST SWAP1 POP SWAP2 SWAP1 POP JUMP JUMPDEST PUSH32 0x4E487B7100000000000000000000000000000000000000000000000000000000 PUSH1 0x0 MSTORE PUSH1 0x11 PUSH1 0x4 MSTORE PUSH1 0x24 PUSH1 0x0 REVERT JUMPDEST PUSH1 0x0 PUSH2 0x10D6 DUP3 PUSH2 0xB48 JUMP JUMPDEST SWAP2 POP PUSH2 0x10E1 DUP4 PUSH2 0xB48 JUMP JUMPDEST SWAP3 POP DUP3 DUP3 MUL PUSH2 0x10EF DUP2 PUSH2 0xB48 JUMP JUMPDEST SWAP2 POP DUP3 DUP3 DIV DUP5 EQ DUP4 ISZERO OR PUSH2 0x1106 JUMPI PUSH2 0x1105 PUSH2 0x109C JUMP JUMPDEST JUMPDEST POP SWAP3 SWAP2 POP POP JUMP JUMPDEST PUSH1 0x0 DUP2 MLOAD SWAP1 POP PUSH2 0x111C DUP2 PUSH2 0xB52 JUMP JUMPDEST SWAP3 SWAP2 POP POP JUMP JUMPDEST PUSH1 0x0 PUSH1 0x20 DUP3 DUP5 SUB SLT ISZERO PUSH2 0x1138 JUMPI PUSH2 0x1137 PUSH2 0xB43 JUMP JUMPDEST JUMPDEST PUSH1 0x0 PUSH2 0x1146 DUP5 DUP3 DUP6 ADD PUSH2 0x110D JUMP JUMPDEST SWAP2 POP POP SWAP3 SWAP2 POP POP JUMP JUMPDEST PUSH32 0x436F6E747261637420646F6E2774206861766520656E6F67687420746F6B656E PUSH1 0x0 DUP3 ADD MSTORE PUSH32 0x7300000000000000000000000000000000000000000000000000000000000000 PUSH1 0x20 DUP3 ADD MSTORE POP JUMP JUMPDEST PUSH1 0x0 PUSH2 0x11AB PUSH1 0x21 DUP4 PUSH2 0xCE2 JUMP JUMPDEST SWAP2 POP PUSH2 0x11B6 DUP3 PUSH2 0x114F JUMP JUMPDEST PUSH1 0x40 DUP3 ADD SWAP1 POP SWAP2 SWAP1 POP JUMP JUMPDEST PUSH1 0x0 PUSH1 0x20 DUP3 ADD SWAP1 POP DUP2 DUP2 SUB PUSH1 0x0 DUP4 ADD MSTORE PUSH2 0x11DA DUP2 PUSH2 0x119E JUMP JUMPDEST SWAP1 POP SWAP2 SWAP1 POP JUMP JUMPDEST PUSH1 0x0 PUSH1 0x40 DUP3 ADD SWAP1 POP PUSH2 0x11F6 PUSH1 0x0 DUP4 ADD DUP6 PUSH2 0xBDD JUMP JUMPDEST PUSH2 0x1203 PUSH1 0x20 DUP4 ADD DUP5 PUSH2 0xBEC JUMP JUMPDEST SWAP4 SWAP3 POP POP POP JUMP JUMPDEST PUSH2 0x1213 DUP2 PUSH2 0xBFB JUMP JUMPDEST DUP2 EQ PUSH2 0x121E JUMPI PUSH1 0x0 DUP1 REVERT JUMPDEST POP JUMP JUMPDEST PUSH1 0x0 DUP2 MLOAD SWAP1 POP PUSH2 0x1230 DUP2 PUSH2 0x120A JUMP JUMPDEST SWAP3 SWAP2 POP POP JUMP JUMPDEST PUSH1 0x0 PUSH1 0x20 DUP3 DUP5 SUB SLT ISZERO PUSH2 0x124C JUMPI PUSH2 0x124B PUSH2 0xB43 JUMP JUMPDEST JUMPDEST PUSH1 0x0 PUSH2 0x125A DUP5 DUP3 DUP6 ADD PUSH2 0x1221 JUMP JUMPDEST SWAP2 POP POP SWAP3 SWAP2 POP POP JUMP JUMPDEST PUSH1 0x0 PUSH1 0x60 DUP3 ADD SWAP1 POP PUSH2 0x1278 PUSH1 0x0 DUP4 ADD DUP7 PUSH2 0xBDD JUMP JUMPDEST PUSH2 0x1285 PUSH1 0x20 DUP4 ADD DUP6 PUSH2 0xBDD JUMP JUMPDEST PUSH2 0x1292 PUSH1 0x40 DUP4 ADD DUP5 PUSH2 0xBEC JUMP JUMPDEST SWAP5 SWAP4 POP POP POP POP JUMP JUMPDEST PUSH1 0x0 DUP2 SWAP1 POP SWAP2 SWAP1 POP JUMP JUMPDEST PUSH2 0x12B5 PUSH2 0x12B0 DUP3 PUSH2 0xB48 JUMP JUMPDEST PUSH2 0x129A JUMP JUMPDEST DUP3 MSTORE POP POP JUMP JUMPDEST PUSH1 0x0 PUSH2 0x12C7 DUP3 DUP7 PUSH2 0x12A4 JUMP JUMPDEST PUSH1 0x20 DUP3 ADD SWAP2 POP PUSH2 0x12D7 DUP3 DUP6 PUSH2 0x12A4 JUMP JUMPDEST PUSH1 0x20 DUP3 ADD SWAP2 POP PUSH2 0x12E7 DUP3 DUP5 PUSH2 0x12A4 JUMP JUMPDEST PUSH1 0x20 DUP3 ADD SWAP2 POP DUP2 SWAP1 POP SWAP5 SWAP4 POP POP POP POP JUMP INVALID LOG2 PUSH5 0x6970667358 0x22 SLT KECCAK256 STOP 0xC4 0xDE PUSH8 0x56588B96B92D233 COINBASE 0x2B PUSH31 0x5C2749A0521D07CACE4A0FF3226D56717A64736F6C63430008120033000000 "
				},
				"gasEstimates": {
					"creation": {
						"codeDepositCost": "982000",
						"executionCost": "infinite",
						"totalCost": "infinite"
					},
					"external": {
						"admin()": "2555",
						"declareWinner()": "infinite",
						"predict(uint256)": "infinite",
						"predictions(uint256)": "infinite",
						"redeemReward(uint256)": "infinite",
						"token()": "infinite",
						"winner()": "2536"
					},
					"internal": {
						"random()": "infinite"
					}
				},
				"methodIdentifiers": {
					"admin()": "f851a440",
					"declareWinner()": "14034bd2",
					"predict(uint256)": "52ef348a",
					"predictions(uint256)": "004fbbb0",
					"redeemReward(uint256)": "51a71b17",
					"token()": "fc0c546a",
					"winner()": "dfbf53ae"
				}
			},
			"storageLayout": {
				"storage": [
					{
						"astId": 716,
						"contract": "contracts/130/Prediction.sol:Prediction",
						"label": "admin",
						"offset": 0,
						"slot": "0",
						"type": "t_address"
					},
					{
						"astId": 718,
						"contract": "contracts/130/Prediction.sol:Prediction",
						"label": "winner",
						"offset": 0,
						"slot": "1",
						"type": "t_address"
					},
					{
						"astId": 721,
						"contract": "contracts/130/Prediction.sol:Prediction",
						"label": "token",
						"offset": 0,
						"slot": "2",
						"type": "t_contract(Token)963"
					},
					{
						"astId": 732,
						"contract": "contracts/130/Prediction.sol:Prediction",
						"label": "predictions",
						"offset": 0,
						"slot": "3",
						"type": "t_array(t_struct(PredictionData)728_storage)dyn_storage"
					}
				],
				"types": {
					"t_address": {
						"encoding": "inplace",
						"label": "address",
						"numberOfBytes": "20"
					},
					"t_array(t_struct(PredictionData)728_storage)dyn_storage": {
						"base": "t_struct(PredictionData)728_storage",
						"encoding": "dynamic_array",
						"label": "struct Prediction.PredictionData[]",
						"numberOfBytes": "32"
					},
					"t_bool": {
						"encoding": "inplace",
						"label": "bool",
						"numberOfBytes": "1"
					},
					"t_contract(Token)963": {
						"encoding": "inplace",
						"label": "contract Token",
						"numberOfBytes": "20"
					},
					"t_struct(PredictionData)728_storage": {
						"encoding": "inplace",
						"label": "struct Prediction.PredictionData",
						"members": [
							{
								"astId": 723,
								"contract": "contracts/130/Prediction.sol:Prediction",
								"label": "participate",
								"offset": 0,
								"slot": "0",
								"type": "t_address"
							},
							{
								"astId": 725,
								"contract": "contracts/130/Prediction.sol:Prediction",
								"label": "amount",
								"offset": 0,
								"slot": "1",
								"type": "t_uint256"
							},
							{
								"astId": 727,
								"contract": "contracts/130/Prediction.sol:Prediction",
								"label": "redeemed",
								"offset": 0,
								"slot": "2",
								"type": "t_bool"
							}
						],
						"numberOfBytes": "96"
					},
					"t_uint256": {
						"encoding": "inplace",
						"label": "uint256",
						"numberOfBytes": "32"
					}
				}
			},
			"userdoc": {
				"kind": "user",
				"methods": {},
				"version": 1
			}
		}
	}
}